:10000000B8170020C11A000065440000AD1A0000B6
:1000100000000000000000000000000000000000E0
:10002000000000000000000000000000A11B000014
:100030000000000000000000311B0000F52400005B
:10004000F11C0000F11C0000F11C0000F11C00007C
:10005000F11C0000F11C0000F11C0000F11C00006C
:10006000F11C0000F11C0000F11C0000F11C00005C
:10007000F11C0000F11C0000F11C0000F11C00004C
:10008000F11C0000F11C0000F11C0000F11C00003C
:10009000F11C0000F11C0000F11C0000F11C00002C
:1000A000F11C0000F11C0000F11C0000F11C00001C
:1000B00002B4714649084900095649008E4402BC01
:1000C0007047C04602B4714649084900095C4900BE
:1000D0008E4402BC7047C046002934D00123002260
:1000E00010B488422CD301242407A14204D28142B7
:1000F00002D209011B01F8E7E400A14204D28142C7
:1001000002D249005B00F8E7884201D3401A1A4343
:100110004C08A04202D3001B5C0822438C08A0427A
:1001200002D3001B9C082243CC08A04202D3001B30
:10013000DC082243002803D01B0901D00909E3E7AA
:10014000100010BC704701B5002000F00BF802BD94
:100150000029F8D003B5FFF7C1FF0EBC4243891A4E
:100160001847C0467047C0461C2101231B04984213
:1001700001D3000C10391B0A984201D3000A083938
:100180001B09984201D30009043902A2105C4018EF
:100190007047C04604030202010101010000000093
:1001A00000000000414208401C2101231B0498422A
:1001B00001D3000C10391B0A984201D3000A0839F8
:1001C0001B09984201D30009043902A2105C401AAD
:1001D0007047C0461B1C1D1D1E1E1E1E1F1F1F1FFD
:1001E0001F1F1F1F002B11D1002A0FD1002900D182
:1001F000002802D00021C943080007B4024802A128
:100200004018029003BDC0465DFFFFFF03B468467F
:1002100001B5029800F031F8019B9E4602B00CBC7B
:100220007047C046D0400B00D1409C46203AD34096
:10023000184352426346934018437047914003006D
:1002400090409C46203A9340194352426346D34023
:100250001943704710B5002903D1FFF785FF2030FF
:1002600002E00800FFF780FF10BDC0460023C25C1B
:100270000133002AFBD1581E7047F0B506000F006D
:1002800015001C0085B08B4263D801D1824260D832
:1002900021002800FFF7DEFF390000903000FFF753
:1002A000D9FF009B21001B1A1A0028000393FFF7B7
:1002B000C5FF00900191B94245D801D1B04242D862
:1002C000009B019C01200021039AF61AA741FFF729
:1002D000B5FF04000D00039B002B2BD0019B009A5F
:1002E000DB0750081843019B5908039B9C46B94201
:1002F0002CD801D1B04229D832003B00121A8B41D0
:10030000012692185B410027B6185F4101235B422A
:100310009C446346002BEAD130003900039AFFF772
:1003200081FF039AA4197D4106000F00FFF786FFA5
:10033000241A8D410A9B002B01D01E605F602000B3
:10034000290005B0F0BD00240025C4E7B6197F419F
:10035000DCE700240025EDE770B5194803F096FCB2
:10036000184C200004F035FA002806D11648216800
:1003700003F08CFC0120404270BD802521692D03D3
:100380000A68A3682A430A60200013211B680F4AE9
:100390009847002803D00E4803F078FCEAE70D48A0
:1003A00003F074FCA36829005B69200098470A48A1
:1003B00003F06CFC0021094802F08CFDF2E7C04616
:1003C000344F0000504C0000604F00000100060058
:1003D0008D4F0000AF4F0000DD4F000010270000E0
:1003E000F0B597B0059304230B921A400B9B0A9229
:1003F000DA0807231A40013207001C9D03910D9271
:10040000820700D0C5E1041D002804D0072909D8BF
:100410001C20404254E1039A1A401300A4180822F9
:10042000D31A0393059B0426013B069300230993EB
:100430000C9304930293013B07930196002F01D084
:10044000059B23600D9B002B00DDF1E09D4B059A81
:100450009A4203D39C4B9A4200D2E9E00B99E21BEB
:100460009308890700D50DE1049A0F2A00D9BBE053
:10047000002F00D10EE104990EAA53540A000799E7
:1004800012AB99540C9B01330C93F4E008260196AF
:10049000069B01330693069B9878002800D105E15E
:1004A000029B002B08D12528F2D1079B013307932B
:1004B000012302930426EAE77A284AD84B280ED86B
:1004C000472846D829282CD825283FD041D820288D
:1004D000DED0233843425841C3B20293D8E74C38A8
:1004E0002E2836D8FFF7E4FDD4353535353535358A
:1004F000353535353735353535353535356135377C
:1005000037616161D437D235D4351837183535792C
:10051000E63735353735E600002308930426029385
:1005200027E0012213002A38C0B2834067490B42FA
:10053000AED1E2211800890508400B4235D11900DF
:10054000114002911342A3D0089013E0079B013B96
:1005500007930023C1E70022069B08925B78029272
:100560006C2B07D10426069B01961B786C2B01D1BE
:10057000B6190196013CA0193100FFF7ADFD70439B
:100580000400002F3BD0019B039ADB1B1B189342F6
:1005900000D93DE7089B002B41D1019B042B20D1C2
:1005A00008CD03600423043415E0072107358D438B
:1005B00064188C430CCD002F08D00131C91B03985F
:1005C0000919814200D923E72260636000230826CD
:1005D00002933300083401935AE7029B08930023E7
:1005E0009CE7019B082B01D0162012E70723073553
:1005F0009D430CCD0260436008230834EBE7089B61
:10060000002B0CD1019B042B01D10435CAE7019BBF
:10061000082BE9D10735013B9D430835ECE7069BE4
:10062000023306930D9B013B0D9308CD059305E71F
:100630000B9B9B0722D50121E21B930880208000A1
:100640008242D1D2049A0F2ACED8002F1CD004980F
:10065000DBB20EAA13549C46079B12AA135400291E
:1006600000D10FE780226346524213430EAA13546F
:10067000099B01330993049B01330493069B0434C3
:10068000013B07E70021D9E7002903D0039B013391
:100690000393F0E7039B023303930A9B002BEAD1F9
:1006A0000598FFF7E3FD039B1B18F1E78022E31B8E
:1006B000D200934298D2002F0AD103980838C0186C
:1006C00017B0F0BDA84B000000550000DAFF000095
:1006D0009B08302238603B706B469B180A9A1B7847
:1006E000002A0BD0FB70099BBB70002B1BD100258F
:1006F0000EAE049BAB421BD1E01BE1E77B70F2E73F
:100700000EADED560EA9595C002D07DA039E1519A2
:100710000140B54200D97BE62170013401330499D0
:100720009942EDD1E3E7012200237F20D21BF6E7B7
:10073000099B002B02D033787F2B1BD80A9B002B00
:100740001BD012ABEB5C2370002301340193012317
:10075000019ADB1B1B199B18039A934200D957E699
:100760003378019A237001342000059904F0F9F9D7
:10077000019B1C1901350136BBE733789B00FB1840
:100780001A6805920A9A05981A60FFF76FFD431CD4
:10079000DCE70E203DE6C046F0B59BB000AF3B6203
:1007A0008023FB181B6806001B07DB0F7B61837827
:1007B000F9623A63BB6300290AD10478BB6BA400D9
:1007C000E41845780419FB6A9D421BD8A31BFB6201
:1007D000F378BB61BB6B002B04D08023FB181B6834
:1007E000DB0719D4BB69002B47D13B6B002B03D02F
:1007F00030003A6AF96A9847FB6AFB63BD46F86BBA
:100800001BB0F0BD01342000FFF730FDFB6A013062
:1008100001332418FB62D6E73378FB619B007B62CF
:100820007368BB627B6AF5183B6B002B00D029E133
:10083000FB6AFB63BB6BEC180023BB63A54232D0A1
:100840002B789B009859FFF711FD84217B181B68BA
:100850000130002B0CD08822BA18BB6B126893426F
:1008600006D27A1812685B009852BB6B0133BB63E7
:10087000FB6B01351B18FB63E0E78023FB181B684B
:100880009B07B2D53378FB619B007B627368BB62C8
:100890007B6AF5183B6B002B77D1FB6AFB63BB6B64
:1008A000EC183B6BBB6380220523BA181268250045
:1008B00013405A4253410133FB62BB695B00E318AA
:1008C0003B633B6BAB4299D02B787B636B789B008F
:1008D0009C59B84B9C4202D3B74B9C4223D37B69B3
:1008E000002B33D0796BB86A03F0A9F900282DD01A
:1008F0006C468AB06A46B14B5361BB6A93617B6BAD
:10090000D36180239B001384AD4B1361922100239C
:10091000AC481032890100F0A3FCA546FB6B023BFA
:10092000FB630235CDE77B69002B05D0796BB86A94
:1009300003F085F90028DBD180230122FB181B6816
:10094000134209D1FB6BFA6A9B1AE9E78023022262
:10095000FB181B681342E4D02000FFF787FC8421BA
:100960007B181B68002B0DD08822BA18BB6B12684D
:10097000934207D2791809685B00421C5A52BB6B3C
:100980000133BB63FB6B1B18CAE7BB6B1C1E7B638D
:1009900015D0802104237A1812681A4014007A6353
:1009A0007A1812681A420AD00023BC6B7B63183392
:1009B00040229B182900BA6BD81904F0D2F8BB6BFF
:1009C000EB18FB60FB63BB695B003B613A69FB684A
:1009D000944663447B60FB6B7A68934257D17B6B90
:1009E000757800215A198023FB181B68D2B29B0727
:1009F00000D461088020381800680023C00705D49F
:100A00008033FB181B685B07DB1723407270B370E1
:100A1000F17030003A6A796A3B6B9847F8630028B6
:100A200000DAEBE6FB6940203370BB6B2100B3704A
:100A3000BB693A6AF37018231B18D81975703B6BA1
:100A40009847041E00DAB1E0FB6ABA6BF868991A9D
:100A50007B6A3A6AC91A3B699C46C91A60443B6B77
:100A60009847002800DAA3E00025FB6B1C19231827
:100A7000FB637B6B9D4261D300213A6A08003B6BAC
:100A80009847BBE6BB6B00247B63082390E7FB6BB6
:100A9000484A1B78BB60FB6B5D78AB009B59934267
:100AA00002D3454A93420CD37B69002B30D0B968FE
:100AB000B86A03F0C4F800282AD0FB6B0233FB634A
:100AC00089E77B69002B05D0B968B86A03F0B7F8ED
:100AD0000028F2D180230122FB181B6813420AD0A0
:100AE0007B6B9B18073240215218796BD219DBB20D
:100AF00055547B63E1E78023FB181B685B07DCD55B
:100B0000182240215218631CD2191555DCB2D4E7C3
:100B100080230222FB181B68134203D07B6B063232
:100B20000133E0E7402118225218B968631CD2193A
:100B30001155DBB20234E4B2D554BEE7402208239B
:100B40009B18DB19EB5C0732BA18137084229B00E8
:100B50009B59BB63BB181C68002C09D08823FB1869
:100B60001B6800249D4203D2BA1812686B00D45A45
:100B700047230121F8183A6A3B6B9847002817DB96
:100B8000FB6B1B18FB63002C04D1B86BFFF76EFBEB
:100B9000013084B221003A6AB86B3B6B9847002859
:100BA00006DBFB6B01351B18FB6362E7F86325E688
:100BB000F86323E6A84B000000550000F64F000044
:100BC00004000001E04D0000014B18607047C04672
:100BD00000000020F7B504000D001E00019202F095
:100BE000BFF9030003F0D6FF054F32003B500199D7
:100BF0002800A04703F0CEFF385800F07DFFC04624
:100C00000800000010B52E4B2E4A196A11404222EE
:100C10000A431A62DA681207FCD500212A4A916059
:100C20005178C909FCD18321490251605178C90921
:100C3000FCD16F31FF319982D9688907FCD5022137
:100C4000FF3191605178C909FCD120495160517838
:100C5000C909FCD18221C90151809121890099845F
:100C60001B481C49006809688005890E8902800DAF
:100C7000014399621849D962D968C906FCD5022195
:100C8000988C01439984D9680906FCD5D96849062E
:100C9000F9D51E21114C606888431A3901436160FF
:100CA0008021490091605178C909FCD10C495160FB
:100CB0005178C909FCD11A6A02318A431A6210BDFF
:100CC000000800400000FFCF000C0040010521009B
:100CD0002860800024608000B805FF7D004000414E
:100CE00000070100F7B505000600002D01D1300016
:100CF000FEBD2800FFF756FA01238340DA430E4F6A
:100D000004019D433B1901931B7B0092002BECD007
:100D1000E3591B69002B09D1009B3C191E406368F5
:100D200004221968019803F09CFADEE73819984705
:100D30000028DAD1F0E7C046084E0000F0B50022E6
:100D400089B00F490F4803F02FFE0024002600272A
:100D50000E20C0220C4D03900696079728000B4BDF
:100D60000B490494029401940094920001F08EFEC9
:100D70000849280003F058FD200009B0F0BDC04626
:100D8000990D000000050020880000209D10000043
:100D9000B8070020AA50000010B5024801F0E4FD99
:100DA00010BDC04674000020F7B500901F480191A7
:100DB00003F036FA061E35D000252800FEBD237B41
:100DC000002B11D02368DB68002B01D0200098474E
:100DD00063689F7123681B69002B1BD16368042221
:100DE0002000196803F03DFA01361034104B9C4284
:100DF000E5D3009B002BE0D0002DDDD02800FFF7CD
:100E000071FF019B0500002BF6D00021642002F049
:100E100061F8F1E7200098470028DFD03B00B3409D
:100E20001D43E1E705000127024CDFE7B80600207B
:100E3000184E0000084E0000014B8000C05870475B
:100E40002C4E0000030010B50800002B05D0044A0A
:100E5000136000F0ABFC002010BD16204042FBE701
:100E60000400002010B5054C2378002B02D1044863
:100E700001F07AFD0123237010BDC046B0070020A9
:100E80007400002010B50400074803F0C9F9002CD5
:100E900003D00121054803F0B9FD054803F090FD9A
:100EA000044801F061FD10BDB0060020B40600202A
:100EB000000500207400002010B50021014803F057
:100EC000B2FD10BDB006002070B5FFF7F5FF0500BC
:100ED000084C094B9C4200D370BD63685B79002BC2
:100EE00006D023685B68002B02D0290020009847B9
:100EF0001034EEE7084E0000184E000010B5044C08
:100F00000449200002F0CCFF034B1C6010BDC0461A
:100F100038000020184E0000A80600200023FA2107
:100F20000C4A10B513700C4A890013600B4A0C4828
:100F30001360FFF787FFFFF7E1FF0A4B0A4918002C
:100F40008B4200D310BD1A1A5C6812110132227153
:100F50001033F5E7B1070020B0060020B4060020EA
:100F60002B420000084E0000184E000010B5044C43
:100F7000010000220023200002F0B3FF10BDC04694
:100F80003800002010B5024803F045F810BDC046F7
:100F90003800002010B5034B0100186803F08CF8EE
:100FA00010BDC046A806002010B5024803F0BDF8E9
:100FB00010BDC0463800002070B5204B18780028BE
:100FC00026D0FFF7DFFF1E4C051E2CD11D4B1E4CFB
:100FD0001B68002B11DD03F0E3FC0A220023FFF75E
:100FE00001F922686368801A9941002903D1FA2324
:100FF0009B00984201D9FFF767FF22686368FA20D7
:101000000021800012184B4122606360FFF7CCFF83
:1010100070BD63685B79002B04D023682900200031
:101020001B6898471034094B9C42F2D32800FFF705
:10103000B1FF0121064803F0E9FCC7E7B007002033
:10104000084E0000B0060020F8040020184E0000F2
:10105000B406002070B50E4D297800290CD101206E
:10106000FFF7A2FE0B4C0C4B9C4206D3FFF7A4FFEC
:101070000028FBD101232B7070BD63685B79002BC6
:1010800003D0236820009B6898471034EBE7C046E4
:10109000B1070020084E0000184E0000F7B50021EF
:1010A0000800FFF781FE041E2DD0FA2700267F00DE
:1010B00003F070FD1C4B1D4A1B581360002B06D01B
:1010C0001B4B1B68092B02DD1A4801F04DFC002365
:1010D0000093002C07D02000FFF704FE041E02D16D
:1010E00001277F423E00FFF767FF0190002808D1EB
:1010F000009B114D002B13D10E483A00330001F034
:1011000065FC019BE4E701277F423E00D0E72B68A6
:101110009B69002B03D0002228001100984710354E
:10112000064B9D42F3D3E7E708000000AC06002021
:10113000B406002074000020084E0000184E000085
:1011400013B5154803F06CF8144B1B78002B0AD02C
:10115000EFF3108472B6FFF72FFF002C02D162B6B6
:10116000BFF36F8F13BD0E4B1B68002BFAD0002806
:1011700009D1002200230B480092019300230A4A60
:1011800002F0F0F9EEE70928ECD1064803F018FC6C
:10119000064801F0E9FBE5E7B4060020B1070020AE
:1011A000AC0600200005002010270000740000207D
:1011B00010B5064B04001B6898472100A060044846
:1011C00002F00DFFFFF7BCFF10BDC0460400002079
:1011D00038000020044B054A00209B1ADB08994286
:1011E00001D2C90088587047084E0000E04D000049
:1011F000F0B55E1C85B0B5000090280007231730BD
:101200009843033080080F000192FFF7AFFE02AB56
:1012100004000322581D002103F0ACFC03AB1E7038
:10122000002C0BD0039B21002361002314312A1FC3
:101230000198C058C85004339A42F9D1E023BA014A
:101240005B001A406D02054B2A431A402000002320
:10125000009903F02AF805B0F0BDC046C0FF0F00AA
:10126000F0B591B004AF3B600B035B0D0D007860EF
:101270007A613B610C0D002B00D173E0BB6000264E
:1012800004237E62BE62FE6202931833FB18019350
:101290000A231822009302339B18DB193200B96825
:1012A0007869FFF779FA8023F8601B01984224D30C
:1012B0007B696C461A795B798AB01B0213437A69A1
:1012C000927912041A437B69DB791B06134304AA43
:1012D0009361294B2949D36180239B001384284BB8
:1012E0005161136192213300264810328901FFF7C2
:1012F000B7FFA546BD460DB0F0BDFB6817345B05D2
:101300005A0D3A61204A1B0B15401D43FB68E0183B
:101310000723984303308008FFF728FE041E15D0EA
:10132000030010337B62FB68FE62BB6204230293FE
:101330001833FB1801930A231821009302335B181A
:10134000124AB9687869DB19FFF726FA3B690E4A39
:101350005B0215401D432A0020003B68796802F0BB
:10136000A4FFC7E720000723173098430330800805
:10137000FFF7FCFD0400E9E7FF070000BF50000095
:1013800004000001E84D0000FF01F0FF7942000079
:10139000F0B587B00E9F0400150002910393002F53
:1013A00015D00F9B10210593009300203B000D9A50
:1013B000FFF716F8802306001B01984208D302218C
:1013C000174A1848184B02F090FF07B0F0BD3E00D6
:1013D000072322000C9C1D401A40D2001734AD0197
:1013E0001543A0197202154398430C9A0330120555
:1013F00080081543FFF7BAFD041E09D0002F07D05F
:101400000F9B310000930D9A3B001030FEF7E8FF70
:101410002A002000039B029902F047FFD5E7C0464F
:10142000FE500000E84D0000FF0700004068002863
:1014300004D0044BC01AC00800B2704701204042DB
:10144000FBE7C046E04D00000EB417B5054C05ABF8
:1014500004CB01002000019300F05AFC1EBC08BC24
:1014600003B018473143000010B5CB0604D48906F9
:1014700003D50349FFF7E8FF10BD0249FAE7C0466C
:101480003751000036510000F0B591B0079317AB0B
:101490001B7804000D0006920593002B00D1B4E0E8
:1014A00002261B9B1B9A1E4001231A400C921B9A7A
:1014B00007331A4008921B9AF8331A400992002702
:1014C00002F0CDFE0200B84204D020008D49FFF7A3
:1014D000BBFF0700002E09D044231B9A1A4235D1C6
:1014E0002A0020008849FFF7AFFF3F180C9B002B14
:1014F0000AD0059A854B9200D258002A00D1844A1E
:1015000020008449FFF7A0FF099B002B5AD0089BBD
:10151000002B77D11D00069B002B05D01A00200060
:101520007D49FFF791FF0500189B7C48ED19002BC2
:1015300000D0BEE01A9B002B74D11B9BDB0700D5AB
:10154000DAE020001B99FFF78FFFBEE00020744B0C
:101550001E688642C9D0734B28001968FEF7BCFD8F
:10156000FA253100FEF7F4FDAD0069430A9008004A
:101570003100FEF7EDFD0E91E1210D9009010A9871
:10158000FEF7E6FD0B910B983C21FEF7A5FDE1214E
:101590000F9009010A98FEF79FFD0A900E983100FE
:1015A0006843FEF799FD0D9B02903C210B98019337
:1015B000FEF7CEFD200000910F9B0A9A5A49FFF7D3
:1015C00043FF92E7089B099D002B08D0059A574BD3
:1015D000920020005649D258FFF736FF0500069BBF
:1015E000002B05D01A0020004B49FFF72DFF2D18C6
:1015F000079B002B98D01A0020004E49FFF724FFCC
:101600002D1891E700230793E0E7079B4A48012B39
:1016100000D14248189B059D002B4AD11A9B002BF4
:1016200053D000251A9F102F00D9102720001B9996
:10163000FFF71AFF0026B5424CDC199B20001A78F0
:101640003E49FFF701FF012607231E4203D1200078
:101650003B49FFF7F9FEB74242D9199B20009A5D3A
:101660003649FFF7F1FE0136102EEDD1002620009D
:101670003449FFF7E9FE3300199AD25C1300203B8E
:101680005E2B00D92E2220002F49FFF7DDFE013608
:10169000102E2AD007231E4203D120002849FFF72D
:1016A000D3FE3300B742E7D820002549FFF7CCFE30
:1016B000EDE7189B2200254902F08DFA1A9B002BBA
:1016C000B0D1059B002B00D037E7200002F024FEAC
:1016D00011B0F0BD20001A49FFF7B6FE0136AAE7A7
:1016E00020001B49FFF7B0FEBDE7199BDB191993DA
:1016F0001A9BDB1B1A93E2E72000054A0549FFF716
:10170000A3FE1EE73E510000425100003C4E000087
:1017100039510000675100006A5100003143000058
:10172000C0060020BC0600204B510000504E0000B7
:101730006E510000745100005743000079510000C1
:10174000815100008351000085510000111D0000EF
:101750007F51000073B5114A04000B0005689142E7
:1017600000D91300052168460D4A01F037FF060035
:10177000636828000B220B495B6802F0BEFD6368BA
:101780003200280069465B6802F0B7FD63682800F4
:101790001B2205495B6802F0B0FD73BD0F270000F6
:1017A00095520000A451000088510000012310B59B
:1017B00000211C00074A904207D8074A002900D19F
:1017C00001231360054B186010BD210040085B0029
:1017D000F1E7C04640420F00BC060020C0060020D2
:1017E00070B50D0004004618B44201D1280070BD48
:1017F00021780348013483685B689847F4E7C04662
:10180000704C000010B5034A03480021121A02F080
:101810001BFE10BDB8070020880000200648074ABC
:1018200010B5121A064902F013FE064A0648074987
:10183000121A02F00DFE10BD0000002084000020EE
:1018400000550000000000200000002000550000AE
:10185000F0B585B000AF0C1EB86036D06E468AB0C9
:101860006D4609686268A3682B6205232048A96158
:101870006861EA612B61A1212A001E481032002311
:1018800089017A60F860FFF7EBFCB546E168AD4688
:10189000226963692B6205231748A9616861EA61BF
:1018A0002B61A12100237A68F8688901FFF7D8FC31
:1018B000B546E3690121114AF86802F016FDA369F3
:1018C00001210F4AF86802F010FDBB68012B07D117
:1018D000EFF305830B4A0748B968103B02F005FD9A
:1018E0002100B86800F0CCFEBD4605B0F0BDC04692
:1018F000EA510000004E000019520000485200005A
:10190000575200008552000030BFFDE7F7B50A4B83
:101910000A4D0600EF18CC1B2A002000084901934D
:1019200003F01FF960190021019A03F023F9380030
:10193000083C74660830FEBD040000000000000092
:10194000184E0000054B5A699B689A4205D08023C7
:10195000034A5B0551680B435360704784070020BE
:1019600000ED00E0F0B53E4B8BB05B6800AF7B60F4
:10197000DB05DB0D04003B6062B6BFF36F8F394EB1
:10198000130EFF2B08D1F33B1340082B3DD101214F
:101990003000354A02F0A2FC00252C003B68032BE6
:1019A00039D1324A0121300002F098FCA369304A53
:1019B000934202D32F4A934205D32F4A934249D3ED
:1019C0002E4A934246D2023B1A882D4B9A4241D16D
:1019D0002368012130002B4A02F087FC2668082387
:1019E0002022F818210003F0BCF87B6A002D33D0C8
:1019F000DA0502D1244A13437B6208233000F91828
:101A0000FFF726FFBD460BB0F0BD01251207C5D577
:101A10000C000025C2E7F822796852001B4B1142E6
:101A200000D01B4B6A468AB07A606A4693613B6875
:101A30001849103BD36180239B001384164B5161DE
:101A4000136191210023300010328901FFF708FC57
:101A50007B689D460026C2E75B0A5B02CCE7C04676
:101A600000ED00E0004E0000C6520000F152000000
:101A7000B0000000A04B000000000020000000208B
:101A800002DF000008530000FF0100009852000030
:101A9000AD52000024530000040000010821024A56
:101AA00053698B435361704700ED00E0EFF308800A
:101AB000EFF3098101B57246FFF754FF01BDC0463F
:101AC0000A4880F30888FFF79DF872B6084809496C
:101AD000401880F30988EFF314800221084380F353
:101AE0001488BFF36F8F02F0C9FC0000B817002004
:101AF000B80A00200008000010B50A4B9B6883421A
:101B00000DD1EFF30583002B09D08022064B52053F
:101B100059680A435A605A6A04490A405A6201F0F5
:101B200025FA10BD8407002000ED00E0FF7FFFFFD5
:101B300015498A6815481044EFF3098CF0C04346F4
:101B40004C4655465E466746F8C072B6104F114E79
:101B50004A698A603E60104C141920680F4C20605E
:101B6000906E00239366002800D162B6074C1019CE
:101B70001030F8C89846A146AA46B346BC46243859
:101B8000F0C88CF3098870478407002030000000FB
:101B900004ED00E00000000864000000E8060020FA
:101BA00004207146014202D0EFF3098001D1EFF326
:101BB00008808169023909780229FFD001B572468F
:101BC00002F04AFC01BDC04643B2000605D41F2204
:101BD0001A4001239340014A1360704700E100E07E
:101BE00030B5FF2503220B00290040B20240D2008D
:101BF00091409B012B40C943934000280ADBC0243D
:101C00000A4A800880008018A40002590A40134341
:101C1000035130BD0F2210400838054A800880006B
:101C20008018C26911401943C161F2E700E100E088
:101C300000ED00E0FF22044B9343044A9360BFF39E
:101C40004F8FBFF36F8F70470000000000ED00E082
:101C500010B5203A1360029B01245360039B064990
:101C60009360049BA143D36080235B04D361002372
:101C700091610265836610BDD50B000070B50B4BFA
:101C800015009860426E0A4B0E001A602C1C86F3F9
:101C900009880020034B9847201C002100220023C4
:101CA000014C204799440000D50B00008407002018
:101CB000E80600201022014B1A61704700ED00E099
:101CC000F0B5C02400220326FF25A40010002F0039
:101CD0003040C0008740054993089B005B181959A4
:101CE0000132B94319511C2AF0D1F0BD00E100E0E6
:101CF00010B5EFF30583054A103BDB00D1184968A6
:101D000098588847FFF71EFE10BDC046904C000053
:101D1000F0B587B007000E001400002110226846BD
:101D20001D0002F027FF6A4602239370054B2A002C
:101D30002100684601930497059601F07DFC07B0E9
:101D4000F0BDC046B344000010B5024B1B68984775
:101D5000002010BDEC060020034B044A186002234B
:101D600091780B4393707047EC0600201000002020
:101D7000072310B50449054A99430548521A01F052
:101D8000F0FE002010BDC046BF17002000800020DC
:101D9000F0060020024A5378DB09FCD17047C046A8
:101DA00000180040F8B500250F4A066913699CB277
:101DB000DBB21461AB4201D1240A08350127002CA3
:101DC00000D1F8BD3C420CD0380073191A7E53067E
:101DD0009B0FDB00D206F318D20E904059681A68A8
:101DE000904764080135EAE700180040402310B529
:101DF0000B4A042091690B4393610A4B0A4A5A80AB
:101E000000221100FFF7ECFE0420FFF7DDFE0223A5
:101E1000064A11780B431370FFF7BCFF002010BD7A
:101E200000040040000C0040054000000018004085
:101E300010B5094B04009B181B7E00207F2B09D98D
:101E40005A06920F944205D1D806C00E401A43425A
:101E50005841C0B210BDC046FC060020F0B585B0A8
:101E600003933D4B029242019B185D5CFF2D00D114
:101E70006FE0EFF31083019372B60222374C2378A0
:101E800093432370364B5B191B7E7F2B16D95A0662
:101E9000920F824203D1DB06DB0E8B420ED002236F
:101EA000227813432370FFF775FF019B002B02D1AB
:101EB00062B6BFF36F8F1020404240E0284B0A9E6D
:101EC000C700FE500B9EDF197E601F2603270E40C1
:101ED00080213840494231430722400108435B19C1
:101EE00018760F202A40920090401C4BE910890080
:101EF000C9188B698343029804280CD8FEF7E2F8CE
:101F000003070921230001209040034303E002203E
:101F1000FAE797403B430398002802D008209040FE
:101F200003438B610223227813432370FFF732FFB0
:101F30000123AB402361019B002B06D0002005B09C
:101F4000F0BD0420E0E70520DEE762B6BFF36F8F47
:101F5000F4E78620B0E7C046445300000018004074
:101F6000FC060020F7B51F4B42019B185C5C0E007D
:101F70000190FF2C33D0EFF3108772B602221A4D76
:101F80002B7893432B70FFF705FF22003100019857
:101F9000FFF74EFF002814D07F200122134BA240F0
:101FA0001B19197E014078381976E3100440A4000B
:101FB0000830A0409B005B19996981439961AA6030
:101FC0002A6102232A7813432B70FFF7E3FE002FC8
:101FD00001D00020FEBD62B6BFF36F8FF9E7862007
:101FE0004042F7E74453000000180040FC06002080
:101FF0000B4B42019B1810B55C5CFF2C0BD02200F0
:10200000FFF716FF002809D00123A3400020054A4E
:102010001361D36010BD86204042FBE71020FBE730
:1020200044530000001800400B4B42019B1810B5B0
:102030005C5CFF2C0BD02200FFF7FAFE002809D0D1
:102040000123A3400020054A9360136110BD862040
:102050004042FBE71020FBE744530000001800401B
:10206000F7B50F4B01901D69002318000D4E0E4F60
:10207000F25C7F2A10D9FA18127E01995406A40F37
:102080008C4209D12C000121DC400C4204D00C0010
:10209000D206D20E944020430133102BE8D1FEBD6E
:1020A0000018004014070020FC06002010B5084866
:1020B00002F08FFB002808D0064C2000FFF74CFEF2
:1020C0002000FEF781FD002010BD13204042FBE7F9
:1020D000704C0000D920000070B50400074D0A289C
:1020E00004D1AB680D2128005B689847AB682800D5
:1020F0005B68E1B29847200070BDC046704C00009C
:10210000F0B585B0170002938023466802697568B0
:102110000C0069184031097850603548C9B2384020
:10212000DB0398421FD080239B039F4202D01620DE
:10213000404216E0012399430391307A2100FFF7D2
:1021400073FF03001022103393430AD12100307A29
:10215000FFF708FF002804D16B462D191B7B403583
:102160002B7005B0F0BD880740D528680123E040FA
:1021700018423BD1180008436108691803903031B8
:102180000F201C4228D00B78184008708021029B39
:10219000C9048B4224D0C021C9048B4224D08021A1
:1021A00089048B42C3D180230121DB039F4200D1EC
:1021B000033193680120E3400340307A01920D4AD5
:1021C00000920A002100FFF749FE0028C9D1210032
:1021D000307AFFF70DFFBDE70B7883431800D4E793
:1021E00080230021DB03E1E70221E2E786209FE76D
:1021F000FFFFFFFEE5450000F0B504001F27890042
:1022000085B04518AC4202D1002005B0F0BD0F20CA
:1022100023680D491A0C02409200515830301A0DB3
:102220001E013A401840760F012E04D11B0F1B04EB
:10223000034340201843039001A801910292043403
:1022400001F0A5FFDEE7C046BC4E0000F0B54568D2
:1022500003692A6985B06969019313682C680B4387
:102260001360F0223F21AB69009012011B02134062
:10227000AA8B20000A4013438022D20113432A4A2A
:102280005380BF23237502F0D9F9AA68274B200099
:102290001343236002F0D2F90021686A03AA02F016
:1022A000BAF900283BDB039B002219791868FFF775
:1022B000A3FF002833DB019A1D4B20005360013B34
:1022C000FF3B636002F0BAF969681A480B0B0A0514
:1022D0000021801859410023174AFDF783FF01268A
:1022E0007642F71702000B00B6185F41002F18D195
:1022F00012498E4215D8524292B22000A28102F0B9
:102300009DF96B68019A009813602B6A9847022325
:10231000226820001343236002F090F9380005B0D2
:10232000F0BD22204042FAE7000C004004000060AB
:102330000001030000366E01006CDC02FEFF0000AD
:10234000F0B5036985B0019343680D001C68200057
:1023500002F074F90222236820009343236002F004
:102360006DF9EA79002A0DD1019BDA71216866685E
:10237000B304DB0F02932B79012B06D0022B07D07D
:10238000002B03D08620404259E002931A0001E05E
:1023900002920122019803716B79012B51D0012027
:1023A000032BEFD1039001984371AF79042FE9D843
:1023B000264B12061940114387712000216002F05C
:1023C0003DF9039B07219A013B000B4005330B406D
:1023D0001343029A2000520313431D4A3240134311
:1023E000360C9BB236041E43666002F027F92B6858
:1023F000184A190B18050023801859410023164A62
:10240000FDF7F0FE01267642F71702000B00B61822
:102410005F41002F17D111498E4214D8524292B217
:102420002000A28102F00AF92B68019A20001360B3
:10243000022322681343236002F000F9380005B03C
:10244000F0BD0020AEE722209DE7C046FFFFFFF071
:10245000B8DFFFFF00366E01006CDC02FEFF0000FB
:1024600070B580251049114B8C681B680E681048A8
:102470008A686D02002C08D1002A11D11A002E4260
:1024800009D100681818801A70BD002A0AD02E429F
:1024900001D1A242F5D90468E41804600968F0E7A4
:1024A0001C00F4E71A00F2E710E000E080070020CB
:1024B000740700200A4A0020136A1B021B0A1362D9
:1024C0009622084B52011A60074B084A1860084BC5
:1024D0005A600722986019680A431A607047C0461C
:1024E00000ED00E08007002074070020BF1200000C
:1024F00010E000E070B5FFF7B3FF0C4B0C4A186812
:1025000011680C4C401810609621002225681A6052
:102510004901401BFDF7E0FD96235B0143435B1936
:10252000236000F017FFFFF70DFA70BD740700205D
:102530007C07002078070020F0B5334D334E85B07E
:10254000002953D0431C08D101222B6893432B60F0
:10255000FF231B06336005B0F0BD336801930027ED
:10256000012848DCEFF31083039372B6FFF778FF7E
:102570000022AB680293264B1C68264B04191A6094
:10258000254B1B680093E01A90423ADB96235B01CF
:102590005F43224AC01919008018FDF79DFD96235C
:1025A0005B015843009B1B1B18188023DB009842DB
:1025B00000D218001A4B984200D91800002330604E
:1025C0000138A9686860AB60029B02985B1A1A190F
:1025D000884202D2019A9B181A190D4B1A60039B6C
:1025E000002BB8D162B6BFF36F8FB4E733680193A5
:1025F000431CB4D10B480C4B984200DD1800471E19
:10260000B0E78020C000D9E710E000E0800700209C
:102610007C0700207407002078070020BF1200000C
:1026200080E8FF00A60D0000A70D000070B5EFF3D5
:10263000108572B6084A094B14681B68E41AFFF744
:102640000FFF0019002D02D162B6BFF36F8F9621E4
:102650004901FDF741FD70BD7C070020780700208F
:1026600010B50400FEF7F6FC03480121034A01F00F
:1026700035FE200002F0BAF8004E0000DE530000E4
:10268000F0B585B005000C0000AFEFF310837B6060
:1026900072B62D4A9368FB602C4B042802D82C4B51
:1026A0008100CB586E468AB0117C6A46D361294BB3
:1026B00029489384294B5061956111621361B121BE
:1026C000274B1032BB60B86800238901FEF7C8FDB4
:1026D000B546002C07D0E369DB0504D00121214A6F
:1026E000B86801F0FBFDFB68002B07D0180002F072
:1026F0009EF8002802D00378002B00D11A486E46BD
:102700008AB06A46194BD0615361FB689361114BE3
:102710001384174B13619121002311481032890152
:10272000FEF79EFD2100B5462800FFF799FF7B6864
:10273000002B02D162B6BFF36F8FF868FFF7DCF9A8
:10274000BD4605B0F0BDC04684070020ED53000033
:10275000084F0000010300000354000005000001C1
:10276000004E00002B540000FB5300004C540000AE
:1027700004000001F8B501270A4E83009D5901307D
:1027800084003359AB4200D8F8BD6868002806D0F1
:10279000037F3B4201D102F003F80835F1E72B68D3
:1027A0009847FAE71C4F0000012270B5234B032025
:1027B00086B01A70FFF7DEFF00F008FF0420FFF775
:1027C000D9FF1F4C26001F4DAC420ED300F0BCFABF
:1027D000AE4220D300F0C8FAFDF7BEFD01211A4A2F
:1027E000137B8B43137306B070BD636A0593236A32
:1027F0000493E3690393A3690293636901932369D3
:102800000093E368A2686168206800F005F9236816
:102810005C653034D7E7B26AF36A511C01D1591CA8
:1028200005D011003068194303D100F079FB303630
:10283000CEE70649183000F0FDFCF8E7B3070020AA
:10284000704D0000704D0000A805002017490000E1
:1028500070B570260125040046430102114880220C
:102860000918002086B004950E350395053565439B
:102870000D4B0590029001900C48F6182D180C4B4A
:1028800030000095520000F0C7F80422737B2C74CE
:10289000934373730134074BE402E418EE606C60F9
:1028A00006B070BDB8120020380500208407002053
:1028B000F5470000B80A0020F0B5002087B0FFF708
:1028C00059FF204B83F308881F49204B0A6A0025D3
:1028D0001A40C0231B0413430B62FFF7DFF8FFF716
:1028E000E9F9FEF71BFB1A4800F0FCF80120FFF79E
:1028F00041FF0220FFF73EFF00F066FA154C164B31
:1029000080225C61154B164E0593012315490493F3
:10291000D20033002000039502950195009500F048
:102920007BF804220700637B20009343637301F06C
:10293000BCFF2800FFF78CFF320039002000FFF7B2
:102940009DF9C046B812002000ED00E0FFFF00FF37
:1029500018060020A805002084070020AE540000BF
:10296000A9270000B813002070B5EFF3108572B6E8
:102970000468A0421AD0002C18D062682368002690
:1029800013605A6002222000637B266093436373C6
:102990006660A660183001F0D9FF2000E66601F0FD
:1029A00084FF2900084800F0A3F970BD8268C3685D
:1029B0009B1A591E8B419B188360002DF5D162B67E
:1029C000BFF36F8FF1E7C046B407002013B50400D2
:1029D000EFF3108172B68068002808D00138A0603B
:1029E000002902D162B6BFF36F8F002016BD100020
:1029F000184307D1002902D162B6BFF36F8F1020B0
:102A00004042F3E7009201932200024800F054F99B
:102A1000ECE7C046B4070020F0B587B0059303008B
:102A200058338365C365109B072703730423002570
:102A30000732BA434373D2190F9BBA4383738B187F
:102A40000E0085601900C5738561C561040004939B
:102A5000FEF75CFF049BC019B8431F1A0E9B3A0097
:102A600002930D9B310001930C9B20000093059B6A
:102A7000FFF7EEF8044B65659B68AB4200D01B6E18
:102A80003800236607B0F0BD8407002070B504004D
:102A9000002086B005900E98119D04900D98109E10
:102AA00003900C9802900B9801900A9800902000D7
:102AB000FFF7B2FF2B00721C01D1013305D02B00B0
:102AC000334305D1200000F02BFA200006B070BD82
:102AD000200032002B000249183000F0ABFBF4E775
:102AE000174900000223FF33838100230366014B53
:102AF00098607047840700200B21084A4942936878
:102B0000D9669866802306495B05486803434B6095
:102B100062B6BFF36F8F9368D86E7047840700204A
:102B200000ED00E00D2370B5C356427B002B38DB6F
:102B3000D30636D180235B4213431B4C4373A369F6
:102B40001A49E2698B4207D1016042601060E0617E
:102B500011E09A42F8D01B68002BF5D00E250E2606
:102B600045579E57B542F4D0AE42F2DD5A68036035
:102B7000426010605860A5698D4201D0002D00D1DF
:102B8000E568A3685A7BD20605D1DA897F2A02D983
:102B9000AA69002A06D0AB4202D0280000F0ACFAA5
:102BA000656170BD6361FCE7840700209C0700201D
:102BB0000D2270B582560500437B002A04DA7F227D
:102BC0001340437301F035FE0D4E0E4AB469B368ED
:102BD000944201D0002C00D1F468AB4208D05A7B5B
:102BE000D20605D1DA897F2A02D9A269002A05D046
:102BF000A34202D0200000F07FFA2300736170BD71
:102C0000840700209C07002010B5511C01D1591CDD
:102C100003D00249183000F00DFB10BD1749000029
:102C20000D2270B582560400437B002A04DA7F220D
:102C30001340437301F0FDFD8023627B5B4213432D
:102C40001B4D6373AB691B49EA698B4207D1216055
:102C500062601460EC6111E09A42F8D01B68002BAE
:102C6000F5D00E200E2620569E57B042F4D0864254
:102C7000F2DD5A682360626014605C60AE69AB6824
:102C80008E4201D0002E00D1EE68A34208D05A7BBC
:102C9000D20605D1DA897F2A02D9B269002A05D085
:102CA000B34202D0300000F027FA33006B6170BDF0
:102CB000840700209C07002070B50C0011000A4A10
:102CC0000A4B90681860EFF3108372B6956828007D
:102CD00001F0C2FD049A059B2800FFF795FF200034
:102CE000FFF70AFF70BDC04684070020A40700203C
:102CF00010B500290AD1EFF30580002807D1064B53
:102D00009A685B699A4202D0FFF7F6FE10BD62B680
:102D1000BFF36F8FFAE7C0468407002010B5002884
:102D20000AD1EFF30580002807D1064B5A699B684A
:102D30009A4202D0FFF7E0FE10BD62B6BFF36F8F7C
:102D4000FAE7C04684070020EFF3108172B6054B06
:102D50009A68D37B013BD373002902D162B6BFF3DB
:102D60006F8F70478407002070B5EFF3108672B63E
:102D7000134DAB68DA7B0132DA73AC69114A9442C5
:102D800001D0002C00D1EC685A7BD20605D1DA893B
:102D90007F2A02D9A269002A05D0A34202D02000CE
:102DA00000F0AAF923006B61002E02D162B6BFF3D6
:102DB0006F8FEFF3108072B6FFF7B0FF70BDC046A3
:102DC000840700209C070020024B034A9A61DA61C5
:102DD0007047C046840700209C07002070B5EFF3C1
:102DE000108572B61C4CA168E3690A68CB1A581E9C
:102DF000834149685B420A6051601340E169A268FF
:102E0000002B05D1154B516013600A60E2610CE0A4
:102E10000E200E2610569E57B04218D0864216DD60
:102E20005968136051600A605A60A6690B4B9E4254
:102E300001D0002E00D1E668A3689E4202D0300087
:102E400000F05AF928006661FFF756FE70BD8B420C
:102E5000D8D01B68D4E7C046840700209C07002018
:102E6000F8B5030007000C000B4303D1FFF7B6FFD2
:102E70000020F8BDEFF3108672B6134D134BA8680F
:102E80001860FFF795FEA86823003A001049183033
:102E900000F0D0F90423AA680400517B30000B43F2
:102EA0005373FFF729FEAB689A6A002AE0D18022AB
:102EB000DB6A12069342DBD101F06EFD201AC34398
:102EC000DB171840D5E7C04684070020A407002080
:102ED0001749000070B504000D00FFF7C1FF0300A3
:102EE0002000621C01D1013513D01800D917092226
:102EF000002380185941002901D109280AD9042941
:102F00000AD802D103000B3306D80A220023FDF7AA
:102F100069F970BD0800FCE70048FAE7FFFFFF7F92
:102F200070B50400EFF3108572B60426437B33427C
:102F30000DD0183001F00AFD637B2000B3436373AA
:102F4000FFF7F0FD29000548FFF7D2FE70BD002D08
:102F5000FCD162B6BFF36F8FF8E7C046B40700201C
:102F6000014B98687047C04684070020F0B5037B8A
:102F700085B004000393EFF31083019372B6019BB5
:102F800002930823427B1A4207D0019B002B02D1F7
:102F900062B6BFF36F8F05B0F0BD1900114348B2A0
:102FA000002857DB6173A368002B02D0200001F0DA
:102FB00048FC20002600183001F0C8FC5836A56DEA
:102FC000AE4201D0002D4DD1304F0025BB689C4250
:102FD00004D1EFF305856A1E9541EDB2BE692C4A16
:102FE000964201D0002E00D1FE68B34202D03000DC
:102FF00000F082F820007E6101F04BFA002D02D033
:103000002448FFF76FFDBB689C4238D1EFF305837E
:10301000002B34D1237BDB070FD5019B002B02D182
:1030200062B6BFF36F8F62B6BFF36F8F0423181CB5
:1030300002DFEFF3108372B602930298FFF75CFD94
:10304000039BDB07A7D562B6BFF36F8F0423181C61
:1030500002DFA0E77F210A4013432000637301F0E1
:10306000E8FBA0E7280001F0ECFB2800183001F095
:103070006DFC00232800EB66FFF754FD9FE7019BE2
:10308000002BDDD162B6BFF36F8FD9E78407002034
:103090009C070020180600200121044B044AC01A96
:1030A000044BC0104343D1547047C04688060020EB
:1030B000B4070020ABAAAAAAC289030000207F2A75
:1030C00011D80A4A106800280DD00E21084A595616
:1030D00012680020914206DB5A7BD20603D10548D4
:1030E000181A431E98410123184070472000002001
:1030F000A80700203805002070B518240C4B0500E7
:103100001E7C0C4B7443E418200001F01FFC0022CD
:10311000094B28009A55FFF7CFFF002807D0074B2F
:1031200020001A680649013AD31700F083F870BDF1
:103130008407002088060020B4070020200000201B
:103140009930000070B5EFF3108572B6104A114B3C
:1031500094681868A04207D1FFF7CEFF002D02D176
:1031600062B6BFF36F8F70BD00211960127C0A4BED
:103170009B5C8B42F2D02000FFF79EFF0028EDD031
:10318000637BDB0602D12000FFF74AFD2000E3E766
:1031900084070020A4070020B4070020024B186811
:1031A000984200D1002070472400002070B506002E
:1031B000FFF7F4FF002810D0026943693400F517C7
:1031C000121BAB41002B08DC03D1802109068A4287
:1031D00003D2D843C017104070BD0148FCE7C04679
:1031E000FFFFFF7F002010B5034B1B68834201D116
:1031F000FFF71CFA10BDC046AC07002030B5002810
:103200000ED00B4B5B6898420AD00168002907D0AA
:103210000A694B690469456912196B410A614B617E
:103220000368426813605A6000230360436030BD46
:1032300024000020F0B5040015001E0085B0531CCA
:1032400002D1731C00D17CE0A160EFF310830393E3
:1032500072B6002E26DBFFF7C5FF0021009001208B
:1032600040197141009AD31712184B413649226117
:1032700063610868496812184B411E00150001235C
:103280000293FFF78BFF0700304B9C465B6801936E
:10329000002F1DD163462360019B63601C60634661
:1032A0005C6027E0284B1868596802225242D31705
:1032B000121A8B41521BB3411100002B04DC01D1C7
:1032C000002A01D101210023636121610023D7E796
:1032D0003869796922696369994202DC28D1904290
:1032E00026D9801A99417B683861796163602760CB
:1032F0001C607C60FFF752FF84420FD1144B1B68A7
:10330000002B0BD1029B002B02D1FFF76BFF00902B
:103310000098FFF74BFF0021FFF70EF9039B002BEE
:1033200002D162B6BFF36F8F2800310005B0F0BD47
:10333000121A8B4122616361019B9F42AAD03F68B0
:10334000A6E700250026EFE7A006002024000020C5
:10335000AC070020F0B587B0EFF3108372B601938D
:103360002F4B1860FFF71AFF2E4F04003A687B6856
:10337000029203932A4B9C461D6800280FD0426995
:103380000669EB179A4202DC24D1AE4222D9190019
:10339000226963692800121A8B41226163610298D5
:1033A00003992A00EB1712184B4100243A607B6006
:1033B000634620001C60FFF7F9FE2100FFF7BCF810
:1033C000019BA34202D162B6BFF36F8FFFF7BAFE33
:1033D00007B0F0BDF31704960593049A059B029875
:1033E000039980185941002300220E4D2261636128
:1033F000286069602000FFF701FF019B002B02D1CC
:1034000062B6BFF36F8F2000A3689847EFF3108375
:1034100072B6034A019313689B1B1360A2E7C04670
:10342000AC070020A006002010B5EFF3108472B6A0
:10343000FFF7D8FE02000649C317086849688018DC
:103440005941002C02D162B6BFF36F8F10BDC04648
:10345000A0060020F7B50400EFF3108572B60368EC
:103460000195002B05D0002D5FD162B6BFF36F8FA1
:103470005BE0826AC36A002101208018594100295B
:1034800001D1012836D9002B04DC01D1002A01D159
:103490000122002301267642F717B6185F4101F09A
:1034A0007FFA0122002380185941801979410029AF
:1034B00002DC3BD1002839D001F072FA002301224E
:1034C0008018594180197941244B994201D1033028
:1034D00030D801F065FA01220023801859410222F8
:1034E0005242D31780197941121A8B4120001C498E
:1034F000FFF7A0FE236B01332363236A002B0BD05D
:10350000002D02D162B6BFF36F8F2000236A984767
:10351000EFF3108372B60193A5691834A54201D068
:10352000002D0BD1019B002B9FD0F7BD02225242F0
:10353000D317DBE7802300221B06D7E7280001F022
:10354000C0F90023EB66019B002B02D162B6BFF3EA
:103550006F8F280001F0A9F9E7E7C046FFFFFF7F62
:1035600055340000F8B5060014001D00EFF3108775
:1035700072B6511C07D1591C05D1002F02D162B679
:10358000BFF36F8FF8BD002B0DDB14001D1E05DC93
:10359000002B01D1002A01D1012400250122524231
:1035A000D317A4185D41300001F0D0F9069A079BAB
:1035B000B262F36200232200336330002B00024921
:1035C000FFF738FED9E7C0465534000010B5024871
:1035D00000F05CFB10BDC046B65400000CB470B5E2
:1035E00088B001AC06000D001C220021200001F073
:1035F000C1FA0223A3700F4B2661636000239D4232
:1036000006D080222B001206954200D91300013B00
:10361000F6180DAA20000C996661009200F00CF8D3
:10362000002D02D0002223691A7008B070BC08BCBB
:1036300002B01847854B0000F0B5436893B0039083
:103640000893837815009B0700D4F8E000230193CA
:103650000E78002E6AD0252E0DD04B1C0993019BAD
:10366000013301930399089BF0B29847002800DAD0
:10367000DFE00999ECE74E788B1C0993252EEED0FC
:10368000002304211C00099A0293079309921F2C1E
:103690002ED83000203810280AD8FCF713FD1D0959
:1036A00009270909091E0909091B09250909180023
:1036B0003300303B092B29D92A2E32D108CD6006A0
:1036C00022D4002B29DB20200793044305E00123AB
:1036D0001C4302E002231C430C43099B01321E7869
:1036E000002ED3D109922DE00823F1E71023EFE754
:1036F0007F2C1ED83300303B092BDDD8600605D562
:103700000A20029E7043C3180293E6E70A20079E30
:103710007043C31807932023DAE75B4207932823FB
:10372000D6E72E2E05D140231C42D1D0019813B0EC
:10373000F0BD6C2E2DD027D8682E31D06A2E32D015
:103740004C2E30D0029B002B03DA40239C430023F5
:103750000293202333431A00653A022A01D9612BD0
:1037600024D10722EB1D934308331D00AB4F029277
:10377000240753D5019A029B16009C18B4424FD1DE
:10378000079B029A9E1A82E1742EA6D07A2EA4D0AC
:10379000D8E780231C429BD080208000044397E719
:1037A00080235B00F6E7A0239B0091E7300063389D
:1037B000122800D9E3E0FCF785FC0A46E2E2E2E2E7
:1037C00046E2E2E2E2E2F3DDE2E211E2AD0004CD44
:1037D0000CAB1A7001230CAF0293C9E780CD002F08
:1037E00000D18F4F0299630601D40121494238006C
:1037F00001F025F90290BBE720200399089B984728
:10380000002816DB013C029BA342F5D3079A019BDB
:10381000944663441B1B01930794ABE7079CF2E7B4
:10382000019B0399FB1A985D089B98470136002875
:10383000A4DA039B9A7804231343039A9370012319
:103840005B42019372E723063FD5A30537D50722D4
:10385000073595432F000CCF0492059310232500C4
:103860009D43059B002B3ADA0499059A00244B42AC
:103870009441049305948023DB001D43ADB20CAC4E
:103880000A2304980599220001F0E4F8041B6B0652
:1038900065D501232A009A431300029AA24200DC54
:1038A000A4E0002E00D19CE01022290011400B91D1
:1038B000154200D09CE0029A1D0006921EE02F00E7
:1038C00008CF0493DB170593C8E72F0008CFE20564
:1038D000F7D5A20501D55BB2F3E71BB2F1E7049B74
:1038E000059A1343CBD16306C9D5029B002BC6D1E1
:1038F00011339C43029B25001C0006932A00494B70
:103900001A400B921D4277D0069B01330693002389
:103910000B9371E010239C43063B9C4680232200BE
:103920001A4006921C4242D021008133FF331940D5
:103930001C4239D00722EB1D93431F0003CB0837ED
:1039400003000B4346D1250016339D43630644D53F
:10395000029B002B41D117339C432500029C10236E
:103960002A001A400B921D4256D0631C002E42D0F2
:1039700022003FE0102378269C461C43CEE7782B9C
:1039800004D110229B1B1A439446C7E725200399B4
:10399000089B9847002800DA4BE7019B023360E65A
:1039A000082300269C46B9E72F0001CFC8E72F0067
:1039B0008022210008CF5200180011401442BFD0CD
:1039C000802221009200114098B21442B8D006998A
:1039D000D8B2B5E706239C4325000CAC6346220011
:1039E00052E711239D43029B069387E71D00B6E72C
:1039F0001D00029A931C06932B072AD4EB0709D5C6
:103A0000079B069A0294934204DD9B1A1B190293AA
:103A1000079B0693069B10E006946FE7F85400009E
:103A2000F15400000604000020200399089B9847E9
:103A3000002800DAFDE60A9B01330A930A9A079BE5
:103A40009342F1DC069A019B9B1A0A9A9B180193F8
:103A500006920B9B002B25D030200399089B98479A
:103A6000002800DAE5E6019B002E12D10133019314
:103A7000019E029B019A9B189B1BA34220DC250000
:103A8000002D25D13D00079B069AA4199E1A01948A
:103A900031E002330193F0B20399089B9847002864
:103AA000E6DAC6E6174B1D42E2D02020AB0700D570
:103AB0000B306D0500D52D20019B01330193EBE701
:103AC00030200399089B013698470028D1DAB0E6E8
:103AD0000CAB013DE85C0399089B98470028CFDABE
:103AE000A7E6019B2020013301930399089B984787
:103AF000002800DA9DE6019AA3199B1A002BF0DC3E
:103B0000B7E5C046060400007047C9004018408869
:103B100040087047F8B50D000400FFF7F6FFFCF70A
:103B200023FB1F21091A8A00A218EB0010691F1D30
:103B30000633E719E318AEB2002808D101308840F7
:103B4000E1680143E16015613E801E80F8BDC1005F
:103B50000431625A3A80D200A2181880D680665288
:103B6000F4E70723F7B50027043ACC1D89189C43D6
:103B700099430B1BDE080460A660E76030000093E9
:103B800001912425FCF7F0FA20222D1A121A2000A8
:103B900039009200103000F0EDFF0123AD00073531
:103BA000ED086A001A436280711BEA00A0184B00FE
:103BB00027804380009BA552E218019B5780198003
:103BC0000123F600A6197288290013437380200090
:103BD000FFF7A0FFF7BDF0B585B00D001C1E0290E9
:103BE000039229D000265B780193E0782378400087
:103BF0009B00C018A378C0182018019B9E4210D3C8
:103C00006279237912021A43A37903991B0413439F
:103C1000E279029812061A4323000833A84705B038
:103C2000F0BD0378471C9B0038001F51FCF71EFBBA
:103C3000013038180136E0E716204042EFE770B552
:103C400000240200012520001378002B01D1180068
:103C50000AE0002813D08C4207D1702B04D01E003C
:103C6000403E3A2E0BD8002070BD1E00403E3A2E3A
:103C700005D8537801320134002BE8D00020252BE1
:103C800000D168400132DFE7002070470FB407B56C
:103C900004A901C9019100F0D0FA03B008BC04B036
:103CA000184770B5056908242E000023020026403D
:103CB0001800254205D1D0681368984203D9C31A69
:103CC00030000B6070BD126A0120D31AF9E713B5FA
:103CD00001A90400FFF7E5FF002804D0019BE2687A
:103CE000013B9B180193206A019BC01A013816BD45
:103CF00010B5040050182269236AD20702D5013B8F
:103D0000184010BD9842FCD3C01AFAE710B5040061
:103D10000A00C168FFF7ECFF08222369E0609343C3
:103D2000236110BD022270B50D008B001A43036899
:103D3000C1699B005A50040001682A00FFF7D8FFB0
:103D4000E3682060984203D108232269134323616A
:103D50002A0061682000FFF7CBFF606070BDF0B5FE
:103D60001F00C3681600C2699B00D518D25C0323EC
:103D700085B01A40040000230291022A08D0336063
:103D80003B600222236913420DD10023019339E0E5
:103D90002968336089083B60F3D0FFF7B7FFE36819
:103DA000A3600123F2E7A369280098472B780090CD
:103DB000DA07D10F0191002AE7D002221A400392BC
:103DC0000222134221D0029B002B03D019002000B5
:103DD000FFF7A8FF61682000009AFFF789FFA3683A
:103DE000E1686060994206D12000009AFFF780FFE9
:103DF0000023A0600193A36822692360E360082385
:103E000013432361019805B0F0BD20000099FFF72E
:103E10007DFFE368A360029B002B04D02368E26966
:103E200003999B009950029B009A9C4662443A6019
:103E300021682000FFF75CFF0823226920601343FC
:103E4000012223612B7893432B703560A9E770B56D
:103E500004000D001600FFF74BFF2368834205D1D5
:103E60000822236925609343236170BD0223B200B9
:103E70001343E269AD00AB50616832002000FFF7E8
:103E800037FF6060F1E770B5036904005B0706D592
:103E9000456AFFF71CFF854200D20500656270BDD0
:103EA00070B50D0004001C22002100F063FE00220A
:103EB000EB68A361AB6863612B68E3616B68626266
:103EC00023622A69002B04D0591E0B4201D1012321
:103ED0001A432261200001220021283000F091FCC9
:103EE00070BDF0B58BB0059300230492026A040004
:103EF0001E000291079309938A423BD30193EFF38B
:103F0000108772B6099A0397002A05D020000199FC
:103F1000FFF79DFF00230993200008A9FFF7C1FECA
:103F2000089B029A0500009393422BD32368E26911
:103F30009B00D618D35C0322934333702168200082
:103F4000029AFFF7D5FEE3682060984215D000255D
:103F5000039B002B02D162B6BFF36F8F0799002934
:103F600006D06369002B01D02000984700230793F7
:103F7000002DC4D130000BB0F0BD082223691343DB
:103F80002361E4E7002804D020000099FFF7CAFE6F
:103F9000DEE7049B059A134317D000F03FFC00288E
:103FA00013D1002F11D162B6BFF36F8F2000049A96
:103FB000059B2830FEF70AFD0500EFF3108372B66B
:103FC00003936B425D41EDB2C2E723682000019389
:103FD000009909AB07AAFFF7C2FE0500B8E770B564
:103FE0000400836908000D0098470200EFF3108673
:103FF00072B60123297820000B432B706168FFF70C
:1040000077FE60602000FFF73EFF002E02D162B60F
:10401000BFF36F8F70BDF8B50400EFF3108772B671
:1040200008212269A3680A4203D16168CA1A8B4237
:1040300001D9226AD21AE169002A07D1002F02D1E0
:1040400062B6BFF36F8F00263000F8BD9B00CE181C
:104050000322CB5C03211A400B42EFD0022A02D18B
:104060003568AD0805D1DA0713D43000A369984745
:104070000500A1682A002000FFF73AFE2900A06091
:104080002000FFF743FE002FC7D162B6BFF36F8F4A
:10409000C3E7022213433370A3693000A568984731
:1040A000290002002000FFF723FEA060002FCBD1E3
:1040B00062B6BFF36F8FC7E7F8B5040083690800E5
:1040C0000D0098470600EFF3108772B601222B7897
:1040D00093432B7023699B0705D5E268E36992003F
:1040E0009B189D421AD102222B7893432B70A36810
:1040F000E168994204D132002000FFF7F9FDA06089
:1041000031002000FFF702FE002F02D162B6BFF39C
:104110006F8F20002830FEF727FCF8BD03222E68A1
:10412000830016401E432E60EEE710B5EFF31084B7
:1041300072B6036982681B0703D441688B1A8A42EE
:1041400001D9036A9B1A002C02D162B6BFF36F8FAC
:104150005A1E9341D8B210BD704770B50F254B0859
:10416000C3182A403033CC070DD51C781601220025
:104170002A4032431A70012340184030027813431A
:104180000370002070BD1C78AC432243F2E70300AB
:10419000002170B500685C689A6804194034217089
:1041A0000D1C01310E005C68A64046600E005C6884
:1041B000A6404661540605D512035968120FFFF751
:1041C000CCFF70BD940705D00A4202D05C68A140C4
:1041D000816104250124D1082140A1402943D5064D
:1041E00002D55D68AC4084605B689206D20F920194
:1041F000C018114340300170E3E70378020000204B
:104200005B070AD4136852881B035B0D12099818C8
:104210000723173098430330800870470020704709
:1042200010B5012100F0E5FB10BD10B500F0B8FBA2
:104230000A220023FBF7D6FF10BD1FB50290002015
:10424000039103000200010001900090FDF7A0F827
:1042500005B000BD10B50120FCF714FE10BD002014
:104260007047436810B5DA710122436819604368EA
:104270005A71FCF7F7FD10BD70B506000C00150073
:10428000081E0ED0906853681B1A99420AD813680A
:104290000A001818310000F064FC2000AB681B19FC
:1042A000AB6070BD1C204042FBE770B50E000400FF
:1042B00015001900002802D1FCF7E4FD70BD002BA9
:1042C00006D013035B0D1030C018120D00F049FC2E
:1042D000200025606660FCF76BFFEFE707B5012360
:1042E000019201AAFCF784FF07BD07B50092019374
:1042F0006A460223FCF77CFF07BDF8B506000D00F7
:1043000014001F00002C00D1F8BD210028003A0045
:10431000B047241A2D18F5E710B5426804000CCAFE
:1043200081680068FFF7E9FF002263681A6010BD2A
:1043300070B54B6805001A68CB680C009A4202D130
:104340000800FFF7E9FF6068012100F052FBA36855
:104350001D54002070BD70B504000D000A2802D164
:104360000D20FFF7E5FF29002000FFF7E1FF002007
:1043700070BDF0B58B6889B006930B880790DB059C
:1043800008000D780C005E0F1700FDF74FF80023B2
:10439000AD0601006D0F984203DB2800FCF71AFF01
:1043A00003002100226810311203520D60888C181E
:1043B000551EAA4152421140002200090490029168
:1043C000079806990597039401960092FDF75CF80B
:1043D00009B0F0BD436800201B685B681961704735
:1043E00043681B681A68526853607047F7B501212B
:1043F00043681B685A6811751D686B682F681C68D4
:104400005B68AE680193002C02D16B681C60F7BD3D
:1044100021003000019AB847241A3618F3E710B586
:1044200043681B681868FDF795F910BD70B54368BF
:104430000C001D686B681869FCF7FEFC0F22030076
:1044400021002868984770BD10B500F093FB10BD9F
:1044500010B500F086FB10BD10B501000068FDF737
:10446000F7F910BD10B5FDF74FFAFDF76BFA10BD67
:1044700010B500210120FDF7EBF910BD10B5FDF7D7
:10448000D9FBFDF7BFF9FDF7C9F9FDF719FCFEF7F8
:1044900013FA862040427047002802D162B6BFF36B
:1044A0006F8F7047BFF34F8F30BF62B6BFF36F8F10
:1044B000704710B50B6949699847002010BD10B5C9
:1044C000FDF742FC002010BDF0B5436806695B684B
:1044D000900702D586204042F0BD0120140C044014
:1044E000844030278446251C1740900319D5002F9F
:1044F000F0D16046884054030FD55861986001247C
:10450000B0688C40D20519D5AA0717D520435B188F
:104510004033B06000201D70DEE71403EED59861D3
:10452000ECE7604688405860002FE8D0042525431A
:10453000D40601D59861E2E75861E0E7A043E6E7D9
:10454000436800205B681B6A0B60704743685B68C8
:10455000186942401140414019610020704743688A
:1045600000205B6899617047436800205B6859616F
:104570007047436800205B68D961704710B50369D4
:10458000D868002821D088421BD108681C69D860EF
:10459000A14200D1186100200860824206D0DA688A
:1045A0000A601A69D960002A00D11961002010E060
:1045B000814206D10868206018698142EBD11C61F4
:1045C000E9E7040000680028F2D1002AE7D11620AC
:1045D000404210BD0020704710B54368187AFDF7BF
:1045E0003FFD10BD70B50B00C9680500002903D060
:1045F0005E680C68002900D170BD8B681A002A40E3
:104600002B4202D030004B689847231E00D023680D
:1046100021001C00EEE730B50368136005790468DB
:10462000ED006419A34202D30220404230BD5C7900
:104630008C4201D00833F0E70020F7E70723C26976
:104640001A42FCD1704743681B681A7E520703D593
:1046500000201B8D0B70704710204042FBE7436821
:104660001B681A7ED207FCD51985704710B54368C0
:10467000022218680123448B418BA4081C4011427C
:1046800000D01443428B1A4201D004231C43072359
:10469000428B13434383FFF7D1FF200010BD10B5B9
:1046A00002699368002B01D0D168984710BD10B5FE
:1046B00043681C68237EDB07D80F002B05D0002041
:1046C000824202DD0B780130238510BD032243684E
:1046D0001B689A757047032243681B681A757047F8
:1046E000436800201B681A7ED20702D5987DC00758
:1046F000C00F7047026903000020127C824204D080
:104700005B681B68987D8007C00F70470422436870
:104710001B689A757047042243681B681A757047B6
:10472000436800201B681A7E520702D5987D400717
:10473000C00F704710B5436800201B681C7E6407DB
:1047400005D51B8DDBB2824202DD0B70013010BD3E
:1047500016204042FBE743681B689A7D187E104094
:10476000431E984170470822436801201B681A764F
:10477000704703699960DA607047030010B508005C
:104780000822196900F0EDF9002010BD002210B5D3
:1047900011000920FDF724FA0920FDF715FA10BDD4
:1047A00010B543690400002B07D100230122E16802
:1047B000487802434A70584210BD98470028F4D008
:1047C000C21783185340FF2B00DDFF23E2681370EC
:1047D000ECE7002809D00123C26800205178194273
:1047E00002D010784242504118407047EFF31083D6
:1047F00072B6FEE710B5EFF3108372B6FFF752FE04
:10480000F9E7002A07D08A4205D38160C2600060C0
:1048100040600020704716204042FBE7EFF3058020
:10482000431E9841C0B27047582040427047002054
:1048300070470368426813605A6000230360436056
:10484000704710B50400FFF7F4FF0222637B934327
:1048500063730023A36010BD70B504000D00FEF764
:10486000A7F90223627B13436373002D1CD0A5605C
:104870002B689D4209D16B68256063601C606C6089
:1048800012E06A689A42F6D01B68002BF3D00E2221
:104890000E21A25659568A42F3D09142F1DD5A6850
:1048A0002360626014605C6070BD10B5EFF310842B
:1048B00072B6FEF737F9002C02D162B6BFF36F8FE4
:1048C00010BD10B5EFF3108472B68368002B01D0D1
:1048D000FFF7B7FF002C02D162B6BFF36F8F10BD98
:1048E00070B50400EFF3108572B62823427B1A429C
:1048F0000BD18368002B01D0FFF7A3FF0422637B59
:10490000200093436373FEF70DF9002D02D162B6C8
:10491000BFF36F8F70BD10B501211838FFF7E0FFAE
:1049200010BD70B5EFF3108572B60468A0420BD0CD
:10493000002C02D02000FFF784FF002D02D162B6C8
:10494000BFF36F8F200070BD0024F6E770B5040040
:10495000EFF3108572B60368002B1AD0FEF71EFC29
:1049600006002000FEF74AFC802300221B0622617D
:104970006361A64206D1FEF735FCFEF717FC002165
:10498000FDF7DAFD0020002D02D162B6BFF36F8F74
:1049900070BD16204042F6E710B5FEF745FD10BD8C
:1049A00010B5FEF741FD10BD42620200002318322F
:1049B000016203638261C2610360436043637047C5
:1049C00010B50400FFF7C2FF002811D1636A002B65
:1049D00001D02000984720001830FFF7A2FF0028E0
:1049E00006D0FFF762FFEFF3108072B6FEF796F97C
:1049F00010BD0300EFF3108272B600684118196011
:104A0000002A02D162B6BFF36F8F70470300EFF345
:104A1000108272B60068411A1960002A02D162B68B
:104A2000BFF36F8F70470300EFF3108272B6006818
:104A30001960002A02D162B6BFF36F8F704703007E
:104A400041188B4202D01A78002A01D1181A7047F7
:104A50000133F6E7F0B50D003721C91A8FB0C9B29E
:104A60000D911F2104000B400C930C99E3B208290F
:104A700055D0102900D164E0E907600808436908AF
:104A800006900791A008A9070843A9080890099172
:104A9000089E099F06980799801979410E07B44628
:104AA000060900966646009F37430E090097019657
:104AB000009E019F801979410E06B4466746060A9A
:104AC0003E4302960E0A0396029E039F8019794187
:104AD0000E04B4466746060C3E4304960E0C05963B
:104AE000049E059F8019794100260A910B960A9E23
:104AF0000B9F801979414E07CD080521C408344326
:104B0000614349005B1ADBB2092B12D90120002155
:104B10000A3B24184D41DBB21DE00200A5E7072146
:104B20000B4069078C466646E008E90806433400F6
:104B30000D00303313702300501C2B43EDD10FB008
:104B4000F0BD0F210B4029078C4666462009290934
:104B5000064334000D00092BEBD90D99CB18DBB2BD
:104B6000E7E7002310B59A4200D110BDCC5CC454D5
:104B70000133F8E703008218934200D1704719709F
:104B80000133F9E70B694A69934202D05A1C0A6162
:104B9000187070470148006870470000E806002060
:084BA000DAB6FF7F01000000FE
:104BA80000000000504C000000000000F04B000026
:104BB80000000000104C000000000000304C000015
:104BC80000000000704C0000AD2000000000000054
:104BD800B5240000000000003D0D000000000000AA
:084BE800711D00000000000037
:104BF0003753000000000000000000002C000020DF
:104C0000FC060020ED1D0000000000000000000078
:104C1000A4530000984E0000704D00002E000020AC
:104C200024070020D545000000000000000000001F
:104C3000B2530000A44E0000704D00003000002070
:104C400038070020D54500000000000000000000EB
:104C5000C0530000B04E0000704D00003200002034
:104C60004C070020D54500000000000000000000B7
:104C7000CE530000C84E0000944D000034000020C8
:104C8000600700204D22000000000000000000002E
:104C900000000000714400000000000071440000AA
:104CA000000000007144000000000000714400009A
:104CB000F04B0000A51D0000000000007144000042
:104CC000000000007144000000000000714400007A
:104CD0000000000071440000704C00009F4600007E
:104CE000000000007144000000000000714400005A
:104CF000000000007144000000000000714400004A
:104D00000000000071440000000000007144000039
:104D10000000000071440000000000007144000029
:104D20000000000071440000000000007144000019
:104D30000000000071440000000000007144000009
:104D400000000000714400000000000071440000F9
:104D500000000000714400000000000071440000E9
:104D600000000000714400000000000071440000D9
:104D7000C9440000414500004D4500005F4500006A
:104D80006945000073450000012100007D450000D9
:044D9000D945000001
:104D9400474600005F4600006D46000041230000C6
:104DA4007B470000AF46000035470000CD460000B9
:104DB400D7460000E14600000D47000017470000F9
:104DC400F54600002147000000000000000000003C
:0C4DD400574700006747000073470000CD
:104DE0009950000003000000B250000003000000D2
:104DF000B650000003000000E15100000300000075
:084E0000B354000003000000A0
:104E08007C4E000008000020D05100000100000086
:104E1800F80000200001000055420000FB4100009E
:104E280002000000734300000000000000000000C2
:104E38000000000000000000B0510000B851000060
:104E4800000000000000000000000000C051000049
:104E5800C4510000C8510000CC5100006C4E000045
:104E6800C4060020E1170000DC060020B20700207D
:104E7800010000002D4400001F440000ED43000025
:104E8800E143000000000000D543000000000000DE
:104E9800FFFFFFFF0045004102000000FFFFFFFF8A
:104EA8008044004101000000FFFFFFFF0044004173
:104EB80000000000004400418044004100450041DA
:104EC8000008004200C201000000100000000000BD
:104ED800200400400400000000000000140000004E
:104EE8008D470000F04E0000F84E00000100000061
:104EF800004F000002000000000040320000503265
:104F08006454000072540000865400009554000058
:104F1800A1540000A84B0000A84B0000D84B00008B
:104F2800E04B0000F04B0000F04B0000496E696355
:104F380069616E646F206F20426C696E6B792028FE
:104F480050697363612D4C454429206E612053419B
:104F58004D20523231210A004572726F3A2064693D
:104F680073706F73697469766F204C45442025739C
:104F7800206EC3A36F20657374C3A12070726F6E17
:104F8800746F2E0A004572726F3A2066616C686110
:104F980020616F20636F6E66696775726172206F3A
:104FA800204C45442E0A004C454420636F6E6669C8
:104FB80067757261646F2E20496E696369616E64FA
:104FC8006F206C6F6F702064652070697363617205
:104FD8002E2E2E0A0045737461646F20646F204C76
:104FE800454420616C74657261646F210A002875FC
:104FF8006E7369676E6564292063686172202A2070
:105008007573656420666F7220252570206172674C
:10501800756D656E742E2049742773207265636FF1
:105028006D6D656E64656420746F206361737420B0
:10503800697420746F20766F6964202A2062656322
:1050480061757365206974206D617920636175737A
:1050580065206D69736265686176696F7220696E33
:10506800206365727461696E20636F6E6669677527
:10507800726174696F6E732E20537472696E673A29
:105088002225732220617267756D656E743A2564F6
:105098000063627072696E74665F7061636B6167EA
:1050A80065006C6F6767696E67006C6F67006C6F8F
:1050B800675F6D676D74004D657373616765202860
:1050C80022257322292064726F70706564206265DE
:1050D80063617573652069742065786365656473B9
:1050E8002073697A65206C696D69746174696F6E83
:1050F8002028257529004D657373616765206472E2
:105108006F7070656420626563617573652069748A
:1051180020657863656564732073697A65206C69B6
:105128006D69746174696F6E2028257529000D0AF0
:10513800001B5B306D00257320005B2530386C75D3
:105148005D20005B253032753A253032753A2530BE
:1051580032752E253033752C253033755D200025AA
:10516800730025732F003C25733E200025733A20D9
:1051780000253032782000202020007C00256300A4
:10518800206D657373616765732064726F707065F5
:1051980064202D2D2D0D0A1B5B306D001B5B313BF0
:1051A80033316D2D2D2D20001B5B313B33316D00CC
:1051B8001B5B313B33336D006572720077726E0092
:1051C800696E6600646267006C6F675F6261636B3B
:1051D800656E645F75617274006C6F675F7561728C
:1051E800740072302F61313A2020307825303878B9
:1051F800202072312F61323A2020307825303878DB
:10520800202072322F61333A2020307825303878C8
:105218000072332F61343A202030782530387820D6
:105228007231322F69703A20203078253038782052
:105238007231342F6C723A2020307825303878005B
:1052480020787073723A20203078253038780046FC
:1052580061756C74696E6720696E737472756374B6
:10526800696F6E20616464726573732028723135CA
:105278002F7063293A2030782530387800556E68C9
:10528800616E646C6564204952516E3A2025640051
:1052980052657365727665642045786365707469D4
:1052A8006F6E20280053707572696F757320696E70
:1052B80074657272757074202849525120005350D9
:1052C80053454C20696E20746872656164206D6F67
:1052D800646520646F6573206E6F7420696E6469FD
:1052E8006361746520505350002A2A2A2A2A2048CC
:1052F800415244204641554C54202A2A2A2A2A0041
:10530800415243485F455843455054207769746873
:1053180020726561736F6E2025780A002A2A2A2A6E
:105328002A20257320256429202A2A2A2A2A00656A
:105338006963403430303031383030000001FFFFCD
:1053480004050607FF090A0B0C0D0E0F00010203E6
:1053580004FF06070C0DFF0F08FF0A0B00FF0203EE
:10536800FFFFFFFF0809FFFFFFFF0E0F0001FFFF10
:10537800FFFF0607FFFFFFFFFFFF0E0FFFFFFFFF07
:10538800FFFFFFFFFFFFFFFFFFFFFFFFFFFFFFFF25
:10539800FFFFFFFFFFFFFFFFFFFFFFFF6770696F62
:1053A800403431303034353030006770696F403404
:1053B80031303034343830006770696F4034313000
:1053C800303434303000736572636F6D403432307E
:1053D80030303830300048616C74696E67207379FA
:1053E8007374656D00556E6B6E6F776E20657272A3
:1053F8006F7200756E6B6E6F776E003E3E3E205A80
:10540800455048595220464154414C204552524F2C
:10541800522025643A202573206F6E204350552072
:105428002564004661756C7420647572696E672026
:10543800696E746572727570742068616E646C69E7
:105448006E670A0043757272656E742074687265BF
:1054580061643A202570202825732900435055207F
:10546800657863657074696F6E00556E68616E6407
:105478006C656420696E746572727570740053741B
:1054880061636B206F766572666C6F77004B65722F
:105498006E656C206F6F7073004B65726E656C2063
:1054A80070616E6963006D61696E006F73002A2A0E
:1054B8002A20426F6F74696E67205A657068797226
:1054C800204F53206275696C642076342E322E305A
:1054D8002D343731372D67356164393439343833F1
:1054E800356162202A2A2A0A00286E756C6C290008
:0854F8002A666C6F61742A0042
:10550000893C00001D420000644E000000000000C5
:1055100000000000BF440000000000000000000088
:0C552000C800000024000020240000202F
:0C552C0000000000000000000000000073
:105538000000000000000000000000000000000063
:105548000000000000000000000000000000000053
:105558000000000000000000000000000000000043
:0855680000000000000000003B
:045570000000000037
:1055740074000020740000200000000001000000FE
:0455840015E015E039
:0400000300001AC11E
:00000001FF
