:1000000090440020E141000011610100CD41000059
:10001000CD410000CD410000CD410000CD410000A8
:10002000000000000000000000000000F942000095
:10003000CD4100000000000091420000CD410000D1
:10004000E9440000E9440000E9440000E9440000FC
:10005000E9440000E9440000E9440000E9440000EC
:10006000E9440000E9440000E9440000E9440000DC
:10007000E9440000E9440000E9440000E9440000CC
:10008000E9440000E9440000E9440000E9440000BC
:10009000E9440000E9440000E9440000E9440000AC
:1000A000E9440000E9440000E9440000E94400009C
:1000B000E9440000E9440000E9440000E94400008C
:1000C000E9440000E9440000E9440000E94400007C
:1000D000E9440000E9440000E9440000E94400006C
:1000E000E9440000E9440000E9440000E94400005C
:1000F000E9440000E9440000E9440000E94400004C
:10010000E9440000E9440000E9440000E94400003B
:10011000E9440000E9440000E9440000E94400002B
:10012000E9440000E9440000E9440000E94400001B
:10013000E9440000E9440000E9440000E94400000B
:10014000E9440000E9440000E9440000E9440000FB
:04015000E94400007E
:04015400FFFFFFFFAB
:1001580080F0004002E000BF81F0004142001FBF74
:100168005FEA410392EA030F7FEA226C7FEA236C7D
:100178006AD04FEA1262D2EB1363C1BFD218414072
:1001880048404140B8BF5B42192B88BF704710F008
:10019800004F40F4000020F07F4018BF404211F0AB
:1001A800004F41F4000121F07F4118BF494292EA13
:1001B800030F3FD0A2F1010241FA03FC10EB0C003F
:1001C800C3F1200301FA03F100F0004302D54942CC
:1001D80060EB4000B0F5000F13D3B0F1807F06D379
:1001E80040084FEA310102F10102FE2A51D2B1F171
:1001F800004F40EBC25008BF20F0010040EA030066
:100208007047490040EB0000013A28BFB0F5000FE5
:10021800EDD2B0FA80FCACF1080CB2EB0C0200FA9B
:100228000CF0AABF00EBC25052421843BCBFD040EA
:100238001843704792F0000F81F4000106BF80F464
:1002480000000132013BB5E74FEA41037FEA226C27
:1002580018BF7FEA236C21D092EA030F04D092F0F2
:10026800000F08BF0846704790EA010F1CBF002026
:10027800704712F07F4F04D1400028BF40F0004083
:10028800704712F100723CBF00F50000704700F0A3
:10029800004343F0FE4040F4000070477FEA2262CA
:1002A80016BF08467FEA23630146420206BF5FEA9B
:1002B800412390EA010F40F4800070474FF000039B
:1002C80004E000BF10F0004348BF40425FEA000C62
:1002D80008BF704743F0964301464FF000001CE00A
:1002E80050EA010208BF70474FF000030AE000BF60
:1002F80050EA010208BF704711F0004302D540429E
:1003080061EB41015FEA010C02BF8446014600200F
:1003180043F0B64308BFA3F18053A3F50003BCFA2A
:100328008CF2083AA3EBC25310DB01FA02FC6344D7
:1003380000FA02FCC2F12002BCF1004F20FA02F2DE
:1003480043EB020008BF20F00100704702F12002D1
:1003580001FA02FCC2F1200250EA4C0021FA02F232
:1003680043EB020008BF20EADC70704753B94AB972
:10037800002908BF00281CBF4FF0FF314FF0FF30A5
:1003880000F00CB8ADF1080C6DE904CE00F008F8E7
:10039800DDF804E0DDE9022304B07047704700BFD0
:1003A8002DE9F04786468C460846089E1546744651
:1003B8001946002B40F0C1808542B2FA82F245D935
:1003C8004AB1C2F1200300FA02FC954094402EFA8B
:1003D80003F343EA0C0C4FEA154EA8B2230CBCFBFE
:1003E800FEF80EFB18CC08FB00F943EA0C439945CC
:1003F80028D9EB1808F1FF3704D2994502D9A8F19A
:1004080002072B44A3EB0903A4B2B3FBFEFC0EFBCB
:100418001C330CFB00F044EA0344A04214D92C1905
:100428000CF1FF3304D2A04202D9ACF102032C44F0
:10043800241A43EA07401EB1D44000233460736095
:10044800BDE8F0874746DDE76346F1E792BB431B0B
:1004580001214FEA154EAFB2200CB3FBFEFC0EFB98
:100468001C330CFB07F840EA0343984561D9EB18A5
:100478000CF1FF3004D2984502D9ACF102002B44AC
:10048800A3EB0803A4B2B3FBFEFC0EFB1C330CFB6E
:1004980007F744EA0344A7424DD92C190CF1FF335E
:1004A80004D2A74202D9ACF102032C44E41B43EA6C
:1004B8000040C0E7C2F120039540944020FA03F1C0
:1004C8002EFA03F34FEA154E9040AFB20343B1FB47
:1004D800FEFC0EFB1C10190C0CFB07F841EA00414E
:1004E800884522D969180CF1FF3004D2884502D911
:1004F800ACF102002944A1EB08019BB2B1FBFEFC60
:100508000EFB1C110CFB07F743EA01439F420ED96F
:10051800EB180CF1FF3104D29F4202D9ACF1020171
:100528002B44DB1B41EA004193E76046E3E7614661
:10053800F7E76046A4E76346B8E7834206D916B9E9
:10054800002108467CE7C6E900E0F9E7B3FA83F73B
:100558008FB9834201D3724508D8BEEB020460EB21
:10056800030301209C461EB9002169E73846FAE7D3
:10057800C6E9004CF8E7C7F1200CBB400EFA07F5B6
:1005880022FA0CF42EFA0CF1BA401C4320FA0CF3B0
:10059800B8404FEA144901431FFA84FEB3FBF9F847
:1005A80009FB18300B0C08FB0EFA43EA00439A4586
:1005B80040D9E31808F1FF3004D29A4502D9A8F1CE
:1005C80002002344A3EB0A0389B2B3FBF9F809FB41
:1005D800183308FB0EFE41EA03418E452CD96118F9
:1005E80008F1FF3304D28E4502D9A8F10203214451
:1005F80043EA0040A1EB0E01A0FB02984145CE461C
:10060800434602D306D14D4504D20138B9EB020E58
:1006180068EB0403002EA7D0B5EB0E0261EB0301D3
:1006280001FA0CFC22FA07F3F9404CEA0303C6E985
:10063800003199E74046C5E74346D9E710F8012B52
:1006480011F8013B012A28BF9A42F7D0D01A704707
:10065800034611F8012B03F8012B002AF9D1704742
:10066800034613F8012B002AFBD1181A01387047EA
:10067800F0B583B0604D00AFD5F86431996811F0DA
:1006880001011AD140F603403A1D05F0C7F80446A7
:10069800002840F0AD807868C3681B785BB905F125
:1006A800D403D3E8AF2F02F00902D3E8EF1FC3E861
:1006B800E42F002CF9D10CF047FF002141F2030090
:1006C8003A1D05F0ABF80446002840F091807B689D
:1006D8004A4EDA68D2F80100D2F8051003C6184667
:1006E8000CF032FF214641F201003A1D05F096F860
:1006F800044600287CD17868C3685A7885F8702049
:100708005A88A5F872201A7985F87120B3F807205D
:10071800A5F87420B3F80530A5F876300CF014FF6E
:10072800214641F202003A1D05F078F804460028F7
:100738005ED1D7F804C0DCF80C20531C4132344693
:1007480018685968083303C493422646F7D16046AF
:100758000CF0FAFE06F066FE0446002848D195F82B
:100768008A30990610D40221254A264815F0F1FD51
:1007780095F87C305A0649D40121234A214815F0BE
:10078800E8FD6FF0120433E0072140F6334005F02E
:100798000BF80646002800F0408107210C3017F0BE
:1007A800AFFE452303700623C0F8024084714470ED
:1007B80004712246C370314640F6334005F02EF8E6
:1007C8000446A8B9012140F6314004F0EDFF064681
:1007D800002800F0228101210C3017F0A0FE2246EB
:1007E800314640F6314005F019F804460028BFD0DC
:1007F80020460C37BD46F0BD0000002078000020E0
:1008080020D00100ACAB01004ED00100002142F223
:1008180003003A1D05F002F804460028E8D17B6879
:10082800A34EDA68D2F80100D2F8051003C61846BC
:100838000CF08AFE214642F202003A1D04F0EEFF57
:1008480004460028D4D17C68E368B3F8012091B24B
:1008580049B1D97839B1A5F80421DA78114606F1F9
:10086800280019F0DAFA20460CF06EFE95F87C6044
:1008780016F0200618D1022140F66D4004F094FFCE
:100888000446002800F0C98002210C3017F038FE19
:100898000123214603704670324640F66D4004F04D
:1008A800BDFF04460028A3D195F89C301B0712D53C
:1008B800002142F21C003A1D04F0B0FF0446002853
:1008C80096D17868C368D3F80120D3F80530C5E914
:1008D80038230CF039FE95F8D8309E0621D53846D5
:1008E800B91C05F013F80446002881D1042142F20E
:1008F800240004F059FF0646002800F08E800421E9
:100908000C3017F0FDFD3B88224603807B8831467A
:10091800438042F2240004F081FF044600287FF45B
:1009280067AF95F8D8305C0610D5002142F22A004E
:100938003A1D04F073FF044600287FF459AF786825
:10094800C3685B7885F820310CF0FEFD082142F27F
:10095800010004F029FF044600285ED008210C306D
:1009680017F0CEFD95F8D81040F2022311F0400F91
:1009780008BF0323024688074CBF43F02C0043F00E
:100988000C008B0695F8D93048BF40F0400013F0B2
:10099800090F95F8A23018BF40F4006003F0060371
:1009A800CE0748BF40F01000062B08BF40F4C070C7
:1009B800002115F0F4FC2146002242F2010004F067
:1009C8002DFF044600287FF413AF95F87C30B5F866
:1009D8000411980624D4C9B941F205003A1D04F05F
:1009E8001DFF044600287FF403AFB5F804317C6886
:1009F8004BB9E368B3F80120A5F804219A882D487B
:100A0800114619F00AFA20460CF09EFD082140F61E
:100A1800014004F0C9FE044660B96FF06804E7E6D7
:100A28000029F3D10121244A244815F092FC6FF0E3
:100A38000404DDE608210C3017F062FD95F8D83083
:100A48000246D9072AD44FF000511D4815F0A7FCDB
:100A58002146002240F6014004F0E0FE044600284A
:100A68007FF4C6AE01463A1D4FF6014004F0D6FEAB
:100A780050B3144A0221114815F06BFC15F048FEDA
:100A8800044600287FF4B4AE07F018FD0446002899
:100A98007FF4AEAE05F00CFD0446A9E602A1D1E94B
:100AA8000001D3E7AFF300809088000200800020A7
:100AB800D80000200801002072D00100ACAB010072
:100AC8001088000295D001007B686D46DC688AB00A
:100AD800B4F80130032B96BF424A434952F8231019
:100AE8006A46D3614FF4007340481384404BC2E90F
:100AF800050142F8103F4FF413513E4815F044FCED
:100B0800B4F80120AD46022AB4F8033048D1032BCB
:100B180046D8394A52F823106D468AB06A46D361DE
:100B28004FF4007335481384314BC2E9050142F88C
:100B3800103F4FF413512F4815F026FCAD4663794A
:100B4800A679032B98BF2E4AB4F80750D4F80900A9
:100B58006C468CB094BF52F8231023496A46C2E908
:100B680007364FF40073DFF89CC09385264BC2E923
:100B780005C1C2E909504FF4735142F8103F1D48AE
:100B880015F002FCA54678680CF0DEFC00214FF653
:100B980002403A1D04F042FE044618B11B4A69E7B8
:100BA8001149B9E778681A4DC368B3F80130A5F858
:100BB800C1300CF0C9FC95F8C1305B077FF55EAF1A
:100BC80021464FF603403A1D04F028FE08B1114AA9
:100BD80050E77868C3685B7885F8C0300CF0B4FCDF
:100BE8004CE700BF3CB5010048CE0100B9D0010078
:100BF80004000001ACAB01002CB50100D2D001000B
:100C08001CB50100EAD001000700000117D101005E
:100C18000000002040D101008B1E59425941014B70
:100C280019707047211D002008B5034813F08BFB8D
:100C38000022024B1A7008BD86BC0100201D00204E
:100C48000349044B0448002A18BF194613F07BBB1C
:100C5800A0BC01009BBC0100A8BC010070B5044603
:100C68000E480D4613F06FFB0D4B1B78A3B10D4ECC
:100C7800307888B90C4B0D4953F8353028334B6020
:100C88000B4B8B600B4BC1E9033404238B8209F0B7
:100C98007DFF08B90123337070BD00BFBABC0100E5
:100CA800211D0020201D0020B8B00100E017002001
:100CB800490C0000310C0000014813F044BB00BF90
:100CC800C4BC0100034808B513F03DFB002000F048
:100CD800E9FC00BFE2BC010011B1034813F033BBCB
:100CE800024813F030BB00BF00BD010020BD010069
:100CF80070B503788AB004460E4607AD032B20D89A
:100D0800DFE803F002191B1D11492846FFF7A0FC74
:100D1800059563781E210493A37830460393E378FE
:100D28000C4A02932379019363790093A37911F014
:100D380081FD0AB070BD0849E7E70849E5E70849B9
:100D4800E3E70A212846074A11F074FDE0E700BFEF
:100D58002BBD01004DBD010032BD010039BD0100B0
:100D680043BD0100F4E3010000B589B015F011FF9F
:100D78006946FFF7BDFF6946024813F0E4FA09B077
:100D88005DF804FB70BD010010B5044688B06946E3
:100D9800FFF7AEFF204605F039FC6946044813F01A
:100DA800D2FA044A13680133136008B010BD00BFBB
:100DB80087BD0100F8170020F0B5384889B011F058
:100DC80019FD002005F098FB064600285FD1344D38
:100DD800344803AC13F0B7FA14F046FC0FCD0FC437
:100DE8002F6803AD2760304C0FCD0FC420462F4924
:100DF80040F8107933460222009606F0F3F90146CE
:100E080000283AD02A4813F09EFA2A4807F03AFBFD
:100E18000021294812F08DFF284807F019FB4FF4EC
:100E28000040002112F083FF4FF07C534FF07E55B5
:100E3800234C039300214FF4A47012F078FF21484B
:100E480013F081FA002103A8FFF708FF2378C3B93C
:100E580029460398FFF782F903901B4813F073FAA9
:100E6800012103A8FFF7FAFE2378002BE2D04FF404
:100E7800A470002112F05BFFF6E7144813F063FA40
:100E8800C3E74FF4A470002112F051FFDEE70146DA
:100E98000F4813F058FA002009B0F0BDD9BD010081
:100EA80020AD0100FFBD0100FC17002090B101003A
:100EB800B3BD0100C0010020910D0000A801002071
:100EC800201D002038BE010042BE010016BE0100F0
:100ED800DFBD010010B5094C0A44914200D110BD94
:100EE80011F8013B58400309E35C0001C0B24340DC
:100EF8001809205C1B01DBB25840EEE74CBE01002C
:100F08002DE9F04F91B0009302F004030293C2F36D
:100F1800C2030133840705460E46DDF86890039244
:100F2800059340F0BB81041D30B1072909D86FF043
:100F38001B0011B0BDE8F08F01F00706341DC6F1A3
:100F48000806009B4FF000084FF0040A591E4FF0A6
:100F5800FF3347460193C3465346CDF810800DB181
:100F6800009A22600598002800F3E8809848009AC3
:100F7800824203D397488242C0F0E080039AA4EBF0
:100F8800050E92074FEA9E0000F103810F2F00F231
:100F9800B180002D00F0058107F140020DEB020C35
:100FA800019A0CF8200C0CF8102C049801300490CD
:100FB800E7E07A285DD84B280ED8472859D8292841
:100FC8002DD8252852D054D820287AD02338D0F1CB
:100FD800000B4BEB000B74E04C382E2849D8DFE8A7
:100FE80000F07048484848484848484848484B48EE
:100FF8004848484848484859484B4B595959704BF4
:101008006D487048184B184848827F4B48484B48F1
:101018007F0000204FF0000B4FF0040A38E0012257
:101028002A38C0B202FA00F010EA0E0F49D110F0C7
:10103800625C2FD110EA020B43D06046013C544455
:10104800B4FBFAF40AFB04F4002D61D0A3EB050C01
:10105800A444B4453FF66BAF002868D1042B47D1B0
:1010680059F8043B2360042304342AE0019A013A26
:1010780001924FF0000B24E011F8010C6C2834D1D8
:10108800002011F8023C83466C2BC5D14FF0080AAA
:101098005346D3E709F1070929F00709073424F073
:1010A8000704F9E802AB35B106982044B0423FF690
:1010B8003EAFC4E900AB4FF0000B08344FF0080A0C
:1010C800534611F8010F002878D0BBF1000F7FF4C8
:1010D80070AF2528F5D14FF0010B019B0133019327
:1010E8004FF0040AECE7584694E700208346A5E74A
:1010F800082B02D06FF015001BE709F1070929F04A
:101108000709F9E80223C4E9002308230834D8E7CB
:1011180068B9042B02D109F10409A4E7082BE9D125
:1011280009F1070929F0070909F10809EDE7059A06
:10113800013A059259F8042B009210E7039A900798
:1011480020D54FF0010CA4EB050E4FEA9E00BEF52A
:10115800007FCFD20F2FCDD8F5B107F140020DEBAC
:10116800020E019AC0B20EF8200C0EF8102CBCF139
:10117800000F3FF41AAF60F07F000EF8200C08F162
:1011880001080137C5F108024FF6DA7E04340692E9
:1011980097E74FF0000CDAE7BCF1000F01D00136F9
:1011A800EFE7029802360028EBD10098CDE9063126
:1011B800FFF756FADDE906310644E2E7631BB3F5AB
:1011C800806F97D245B9A6F10804E018B1E600BFD0
:1011D80074A7010084F00100029A9B0828602B7014
:1011E8009DF81030C2B1EB7085F80280B8F1000F9D
:1011F80005D0002208A8C5F1010C97420ED14FF086
:10120800000AC5F101030DF1200901930DF1300B1E
:10121800574512D1601B8CE66B70E5E710F8013B6F
:10122800190608D504EB0C0EB64503F07F033FF60C
:101238007EAE04F8013B0132DFE7B8F1000F03D0BE
:1012480099F90020002A17DB029BD3B11AF80B206A
:1012580004F8012B0022019B98182044B0423FF665
:1012680066AE99F80000009904F8010B2046039235
:1012780019F03AFA039A14440AF1010A09F101092A
:10128800C6E799F8002055F822300093029B009891
:1012980045F82230FFF7E4F9421CDCE76FF00D0057
:1012A80047E600BF2DE9F04F97B000AFD7F880B000
:1012B8003B62CBF3C0030446894690F802A0FA6269
:1012C800BB6141B9457800780AEB800020444D4560
:1012D80017D8A0EB0409E378FB61BAF1000F02D03C
:1012E8001BF0010F16D1FB6953BBFB6A1BB14946C2
:1012F80020463A6A98474D4628465C37BD46BDE8C1
:10130800F08F461C3046FFF7ABF90130304409F145
:101318000109DCE7626823787A62FA6A99007961E0
:1013280004EB8301002A40F001810E464FF00008CB
:101338004D4601EB0A094E454CD101EB0A0610E077
:101348001BF0020FD1D023789A007A61626804EB0F
:1013580083017A62FA6A002A77D14D46904601EBFA
:101368000A061BF0050F0CBF02230123FB62FB6971
:1013780006EB430A0BF00203BB625645BCD016F8D5
:10138800021B16F8013C54F82390AF4B994502D341
:10139800AE4B994536D3BB69002B40D0786A12F022
:1013A800ABFF00283BD0E9468AB06A46A84B536198
:1013B8007B6AC2E906314FF400731384A54B42F8E7
:1013C800103F00234FF41251A34801F04FFD023D96
:1013D800CD46D2E716F8013BF96254F82300FFF72F
:1013E8003FF9D7F88430F96A01304BB1D7F8883023
:1013F80098453EBFD7F8843023F8180008F1010853
:10140800054498E7BB6923B1786A12F075FF002894
:10141800C9D11BF0010F05D1FB6AED1AADE7BB6A14
:10142800002BAAD04846FFF71BF9D7F8843053B1F0
:10143800D7F8883098453FBFD7F88420431C22F856
:10144800183008F10108054497E7BAF1000F73D086
:101458001BF0040673D0D046002607F14800524618
:101468003B61B96219F040F9B96A3B6901EB0A02BC
:10147800BA62FA69F9695200FA60BA6A02EB410283
:101488003A610BF00202BA603A69B96A8A4258D1E5
:1014980062781BF0020F18BF00217A6208BF4FEA7A
:1014A8005801B2181BF0010FD2B240F09F801BF018
:1014B800040F14BF40460020BB616270A070E17049
:1014C80020463A6A7969FB6A9847051EFFF614AF09
:1014D800BB69414623707B6A3A6A6370FB6984F88A
:1014E80002A0E37007F14800FB6A9847B0F10008D2
:1014F800C0F2B4807B69A9EB0A01C91AFB683A6A91
:10150800C91AD7E90A0398470028C0F2A9804FF002
:10151800000BA84408EB000507F1380AB34567D368
:1015280000213A6A0846FB6A9847E5E656464FF0B6
:10153800000807F1380092E75646D04696E7B046CD
:1015480094E7BA6A12F8021B12F8015CBA6254F8FE
:1015580025003D4A904202D33C4A90421ED3BA69C4
:1015680032B1786A7B6012F0C7FE7B6800288BD1A5
:10157800BA6802BB08F1280207F1300C08F1010033
:10158800944407F1580208F1020852FA80F00CF866
:10159800101C5FFA88F800F8105C75E7BA693AB170
:1015A800786A7B6012F0A8FE7B6800287FF46CAF35
:1015B8001BF0010F09D006F1280207F13000711C59
:1015C800161806F8205CCEB25EE71BF0040F3FF455
:1015D8005BAF08F1280207F1300008F1010102EBC6
:1015E800000808F8105C5FFA81F84DE7002063E70F
:1015F8001BF80A3054F8239087F83730D7F884302E
:10160800FBB133F81B8001213A6AFB6A07F1370006
:101618009847002824DB0544B8F1000F06D1484656
:10162800FFF71EF800F101081FFA88F841464846FE
:101638003A6AFB6A9847002812DB05440BF1010B54
:101648006CE7D7F88480DEE774A7010084F0010016
:101658005CBE010004000001FCAB010045464BE6FE
:10166800054649E6014B1860704700BFD0010020CD
:1016780080B505460E461746984610F09DFA034673
:1016880019F06AF80446DFF81890424649F8003025
:1016980039463046A84754F8090002F0C7FD00BF94
:1016A80008000000044608B54FF02002EFF311834C
:1016B80082F31288BFF36F8F0DF06CFE204602F0A4
:1016C800A3FD034812F03FFE02F0C8FEFCE700BF8E
:1016D80010BF01002DE9F047058B04462807904606
:1016E80011D4022905F0070540F0CD80204613F0FB
:1016F80015F978B10138218B042811D8DFE800F0FA
:10170800C3106D85950001290CBF45F0100545F003
:101718002005258388F31188BFF36F8FBDE8F08714
:1017280001F0070AAA4500F0A6800027B9463E4600
:10173800A368002B00F0BD8041F00801218388F3E5
:101748001188BFF36F8FA168002900F0BB800D6876
:10175800002900F0B780334652462046D1F804806D
:10176800C047002D76D02B6829461D46F0E701F0CA
:1017780007035A1F012A1BD8002221F00701062B54
:10178800276889B2C4E9002209D13B4603E0628B8D
:10179800013262831B68002BF9D141F00201204617
:1017A800218313F0BBF800287BD041F0200177E0BB
:1017B800042B0AD121F0070189B22046218313F0B6
:1017C800ADF810B141F020012183218B01F0070A07
:1017D800AA4550D00027B946AAE7236921F0070196
:1017E80041F00601062DD3F8009021832DD1B9F1DF
:1017F800000F40D041F00801218388F31188BFF31E
:101808006F8F20463949C84729E021F0070123692D
:1018180041F0040189B2042DD3F804902183E6D065
:1018280000274FF0040A3E4682E721F007012369AA
:1018380041F0050189B2052DD3F808902183D6D04F
:1018480000274FF0050A3E4672E700274FF0060AC8
:101858003E466DE72B4687E7B9F1000FD1D14FF02F
:101868002003EFF3118883F31288BFF36F8F238B64
:1018780023F008032383258BEA062ED525F01003D1
:10188800238305F007056669218B002EBFF66FAF2D
:1018980000232768C4E9003321F0070141F0010162
:1018A8002183218B4FF0000901F0070AAA457FF434
:1018B8003FAF002F9BD041F00801218388F31188A6
:1018C800BFF36F8F002FC7D03D6839463346524665
:1018D800204613F04FF82F46F4E7AB067FF51AAF12
:1018E80025F02003238305F00705FFE6A949010039
:1018F80000F01F0240090DD001280DD1094B03EB60
:101908008203D3F8002222F0E04242EA0171C3F8D0
:1019180000127047044BF2E70023803253F822305C
:10192800FFDE00BF002884500025845038B501240C
:10193800134B144DC3F8004502230321C5F8D036D4
:101948000020FFF7D5FF20460321FFF7D1FFC5F898
:1019580004472146C5F804492120C5F8004BFFF784
:10196800C7FF21462020FFF7C3FF21460B20FFF7C2
:10197800BFFF21460A20FFF7BBFF002038BD00BF8C
:10198800001000500040005007B50DF1070017F097
:10199800B4F8114B98421CD14FF480620F4B104998
:1019A800C3F8B8254FF40062C3F83C259DF807003A
:1019B80017F08FF80B499DF8070017F085F80120FC
:1019C8009DF8073098400DF02DFE002003B05DF81B
:1019D80004FB6FF00B00F9E70000AD0B00A002500C
:1019E8002CA0025028A10250052370B5144D154EA5
:1019F8002C780134B4FBF3F303EB8303E41A17F0F8
:101A08005CF8114A137823B156F82430C01A072815
:101A180014D94FF05023D3F8141141B10021C3F861
:101A28001411D3F814312C700CB9012313702C78CD
:101A380017F043F846F82400012070BD0020FCE7A9
:101A4800231D002010180020221D002048B1054B3E
:101A5800054A1B68B3FBF2F35843044B43F00103F8
:101A6800184770470804002040420F0020AE0100CC
:101A780070B5049CC4F3072630460DF091FAE5B220
:101A88000146284617F031F800220120074BA40B25
:101A980004F0FC041A51A8400DF0CAFD30460DF0C0
:101AA80033FC2846BDE870400DF0B6BE80A0025059
:101AB80073B501A80DF0AAFE264B984247D10DF048
:101AC80005FC041E0ADA9DF804000DF0A5FE0121AC
:101AD8002346214A214813F00BFD35E040F6070361
:101AE8001F4D8DF80540AE68ADF806307468019B4F
:101AF80014B96FF05704EAE708212846194AA047A5
:101B0800041EE4DB3369002BF3D0012208212846A8
:101B18009847041EDBDB01209DF8043098400DF047
:101B280081FD9DF805009DF804509DF8076016F0AA
:101B3800AEFF0146284616F0CCFF0B4BB60045F029
:101B480000459D51002CC2D1204602B070BD6FF0F7
:101B58001204BCE70000AD0B3DBF010084AC0100DE
:101B68007CA80100751B000080A102502DE9F341FB
:101B7800144683681B690BB100229847C4F30726F3
:101B880030460DF015FA0546304616F080FF4FF046
:101B98000008E7B20146384616F0ABFF104B220E9C
:101BA800920043F8028030460DF0FAF90D4A4FEAE8
:101BB800943C0CF0FC0C47F0004342F80C30014612
:101BC800384616F081FF084B05F132020093304683
:101BD80043460194520016F064FF02B0BDE8F0815C
:101BE80080A1025080A00250791A00000DF0FCBBC1
:101BF8002DE9F7430F4606460821C06A13F006F898
:101C080080463C68DFF84890241A3C6004EA0905DD
:101C1800AC4203D8002003B0BDE8F08308236A462D
:101C28002146304612F063FF0028F4D16946304659
:101C380012F0F6FF40B1BDF80230BDF8042005EA05
:101C4800090513441D443C60A4EB0804E0E700BF09
:101C58000000FFFF2DE9F04704468AB000F11407A1
:101C6800384618F03CF8A06A8368DB689847E06259
:101C780050B9864A0121864812F054FF6FF01505C5
:101C880028460AB0BDE8F087A06A8368DB689847F1
:101C98000368013B1F2B01D97E4AEBE7A06A216844
:101CA80007AA16F0E2FD08B17B4AE3E7A5892DB142
:101CB800089BB5FBF3F203FB12550DB1774AD9E740
:101CC800E389012B01D8764AD4E7E36A029593F8B1
:101CD80004904FF0FF334FF0FF3238460FF0C0FF4B
:101CE8000821E06A12F092FFA8460646E3891FFA27
:101CF80085FA534508D8E389434523D138460FF080
:101D080073FF6FF02C05BBE7A1892B04891B13FA1D
:101D180081F14A4608232046029112F02FFF78B13C
:101D2800204602A912F0F1FE08F1010808234A46EC
:101D3800204602991FFA88F812F020FF0028DAD00E
:101D48000135D3E753450BD1029908234A4620466B
:101D5800891B12F013FF18B9204602A912F0D5FE0C
:101D6800204602A9FFF744FF054618B138460FF090
:101D78003BFF85E7029B4FEA13484FEA0848636038
:101D8800C4F80880D4E9011399420FD308232046E8
:101D980003AA12F0ACFE05460028E7D103AB13F8FE
:101DA800012B91453DD10135082DF8D163682046B6
:101DB8001B0C1B0402A9029312F0A7FE4A462046F8
:101DC800A389029912F0DAFE051ECFDB63687BD087
:101DD8004FF6FF7906EB0308A3891FFA88F29B1BCD
:101DE8009A42CDF8088038D303212E4A284812F0A9
:101DF80099FE2046616812F0E6FE05460028B5D136
:101E08006368294AA18913400B44A3EB4603636026
:101E180013402046A36012F0E6FF0546002D6FD060
:101E2800A4E7204603A912F0FBFE626810B9921BD2
:101E38006260A7E7BDF81050BDF80E10E06AC4F85C
:101E48000880294412F0E2FE40449042A060EED19E
:101E5800002DECD06FF01C057DE00823414620469C
:101E680005AA12F044FE054600287FF47FAF2046FD
:101E780005A912F0D5FE38B1BDF814304B4503D191
:101E8800BDF81830002B6CD0B044A5E782BF010024
:101E980014AC0100A4BF0100C1BF0100D9BF0100FB
:101EA800EDBF01004AC001000000FFFF4A4620467E
:101EB8005B1A12F063FE051EFFF658AF08D0E26AFF
:101EC800A36812681344A360D4E901318B42EDD8AA
:101ED8006168A38901EB46029A429FD1DFF8A88086
:101EE800A26801EA08039A4298D0204612F06BFED5
:101EF800054600287FF43AAF636803EA0803A36045
:101F0800A389A288A3EB46039A4220D038460FF053
:101F18006BFE0123A2892374E389032100921B48E5
:101F28001B4A13F0EFFA63689AB200920321194A28
:101F380016481B0C13F0E6FAA3689AB20092032124
:101F4800154A12481B0C13F0DDFA002598E62046C6
:101F580012F032FF054638460FF046FE002DD8D065
:101F68008EE60E4A0321094812F0DCFD636820461C
:101F78001B0C1B0402A9029312F0C7FD204602990C
:101F880012F021FE49E700BF0000FFFF14AC01007A
:101F980010C0010027C0010039C0010071C0010054
:101FA8002DE9F04F1D46037C04468946904689B0CA
:101FB80053B90121644A654812F0B4FD6FF00C066C
:101FC800304609B0BDE8F08FC26A0821104612F009
:101FD8001DFE82462946104612F018FEA3890746C0
:101FE800A3EB8A03AB42C0F0AB801DB1B8F1000F80
:101FF80000F0A68063680393204604AA03A9DDF8CD
:102008000CB012F045FE06460028D9D1BDF81030B4
:102018004B4505D06268039B9A42EDD1E5B9CFE7FD
:10202800204604A912F0FCFD0028F3D0BDF81200E8
:10203800BDF8143075B1AB420ED14FEA1B4109040B
:1020480001442B464246204612F06EFD002803DC70
:102058000646B5E7002BB3D0002F3ED104F1140398
:1020680001934FF0FF324FF0FF3304F114000FF0EB
:10207800F7FDDFF8DCB0E3899E425ED0D4E90123A6
:10208800F9188A422CD3ADF81A30FF2306A88DF828
:102098001E30ADF81890ADF81C5012F0AEFD2B466E
:1020A8004246A168204612F03DFE29468246E06A73
:1020B80012F0ACFDA2680244A260BAF1000F07D189
:1020C800204606A912F067FE002814BF8246AA46D9
:1020D80001980FF089FD564672E75744BFB2BDE735
:1020E8000821E06A12F092FD4FF6FF730021ADF867
:1020F80018308DF81E30A389ADF81C10111802EAAB
:102108000B021A44101A606006A8ADF81A1012F0F3
:1021180074FD06A9204612F03EFE2046211D12F04D
:10212800F4FC6368204603EA0B03A36012F05BFE2D
:1021380082460028CCD101369DE76FF01B0AC7E71D
:102148006FF015063CE700BF6EBF010014AC01003C
:102158000000FFFF2DE9FF471E46037C04460F469B
:102168009046BDF830904BB92C4801212C4A12F00A
:10217800D9FC6FF00C0004B0BDE8F0870821C06AF4
:1021880012F044FDA389A3EB4003B34243D30025D7
:10219800D4F804A0CDF804A04D455146DDF804A0BC
:1021A80009D9636853451ED1BDF80830BB421AD01F
:1021B8006FF00100DFE7204602AA01A912F068FDCE
:1021C8000028D8D1BDF80830BB4206D1204602A964
:1021D80012F026FD08B10135ADB26268019B9A4242
:1021E800DAD15146E0E7BDF80C30002BE0D0A94524
:1021F800DED8BDF80A00090CB3424FEA014128BFF6
:10220800334601444246204612F071FC0028B2D100
:10221800BDF80C00AFE76FF01500ACE714AC010097
:102228006EBF010010B530B90B480C4912F0B3FE6F
:102238006FF0150010BD836833B90748084912F0DC
:10224800AAFE6FF00400F5E71B6813B1BDE8104063
:1022580018471846EEE700BF1CAC01008DC001000E
:102268009EC0010010B530B90B480C4912F093FE1E
:102278006FF0150010BD836833B90748084912F09C
:102288008AFE6FF00400F5E75B6813B1BDE8104003
:1022980018471846EEE700BF1CAC01008DC00100CE
:1022A8009EC0010070B508B101B132B90B480C49A4
:1022B80012F071FE6FF0150070BD84680CB1E5680E
:1022C80035B90648074912F066FE6FF00400F3E7D7
:1022D80041F8040BE368BDE8704018471CAC0100E6
:1022E800BCC001009EC0010010B5044630B91048BA
:1022F800104912F050FE6FF0150010BD006830B99B
:102308000B480D4912F047FE6FF00100F5E78368AE
:102318000BB11B6933B90648084912F03CFE6FF04F
:102328000400EAE7616898470028E6D12060E4E7FE
:102338001CAC0100E8C00100F9C001009EC001000A
:1023480070B51346044630B91048114912F023FEFF
:102358006FF0150070BD006830B90C480D4912F0D7
:102368001AFE6FF00100F5E782680AB1956835B981
:102378000648094912F00FFE6FF00400EAE70A4622
:10238800AC466168BDE87040604700BF1CAC010006
:10239800E8C00100F9C001009EC00100034A1368AB
:1023A8000BB9526813600020704700BFD4010020A9
:1023B80030B50C460E4985B00291D0F8AC110546EF
:1023C800CDE9003100F1E0014FF0FF3320460EF077
:1023D80041FC50B9012384F86430D5F8A83123B101
:1023E800204605B0BDE83040184705B030BD00BFF5
:1023F8009750010038B50C461146054612F049FEC3
:10240800034638B92846044912F043FE0346002023
:10241800236038BD0120FBE74CEE01002DE9F04FA9
:10242800012381460569466885B005F55977D7E8DF
:10243800EF2F002A03D1C7E8E13F0029F7D10CBFED
:102448001A46002240F0B580B368B16A05F5E47811
:102458001C1F104612F0A2FE844263D8013A00F015
:10246800A280B2FA82F24FF00044D440726820464B
:10247800073222F00302C5F86022B16A12F08EFE1C
:10248800C5F86402B36A40466343033323F0030389
:1024980002EB4302230103EB4403093323F0030354
:1024A80003EBC403C5F858221A440832C5F854226D
:1024B8007368C5F85C42C5F850323F4BC5E9A9635B
:1024C800D9F80030C5F8FC31316800F0BDF9044690
:1024D80030BBD9F804A0D9F81090DAE9073409F527
:1024E800307B012B584608BF103C17F057FD0023DE
:1024F800DAF8240031494FF4806201EB802100931F
:10250800584623460FF0E6FD09F52C702C4917F0C4
:1025180007FDDAF8140083685C682CB96FF057047B
:10252800002139E0013294E74B46264ADAF81810C0
:10253800A04704460028F3D1DAF8140083681B6921
:10254800002BEBD00122DAF818109847044600282F
:10255800E6D11D4B2846C5F8A8311C4BC5F8AC314F
:102568001B4B0393D5F810320293D5F80832CDE906
:102578000083D5F86832B26AD5F8601300F02CF9F8
:1025880004460028CCD105F1E0000EF013FC002829
:10259800C5F868030ADB0221384612F0AFFD204671
:1025A80005B0BDE8F08F6FF00B04B9E76FF01504C4
:1025B800B6E76FF07704F2E7ED500100101E002037
:1025C800D3500100C7500100DD2500007B520100F7
:1025D8003551010013B5044640B100230122CDE96D
:1025E8000032074BD0E909120EF0E8FAA36E1B6817
:1025F80023B1E06E02B0BDE81040184702B010BD2C
:102608004CEE010013B504460846216901F55971DD
:10261800D1E8AF1F022910D193B1A0B10121CDE9B2
:1026280000311346D0E909120EF0C8FA074B984258
:1026380008BF6FF00B0002B010BD6FF00F00FAE793
:102648006FF04C00F7E76FF00100F4E72EF8FFFF9A
:102658002DE9F74388461546066906F55973D3E808
:10266800AF3F022B5FD1136823B96FF0150003B099
:10267800BDE8F0831B78002BF7D0D6F86093B9F14A
:10268800000F33D106F5D8774FF0FF324FF0FF3304
:1026980038460FF0E5FA30462A6801A9FFF7AAFE86
:1026A800019C1CB9384612F027FDDEE705F1080346
:1026B800A3666B6984F86490E366E46360B13846A6
:1026C80012F01AFD21463046236E2A68FFF770FE85
:1026D8000020C8F80040CAE72022296804F1400019
:1026E80017F0CBFE384612F007FDF1E730460F49E8
:1026F80012F0CFFC04460028B7D005F10803836622
:102708006B69C063C366002380F86430202229689F
:10271800403017F0B2FE22460121304600F03EF864
:102728000028D5D0A1E76FF00F00A0E74CEE01001C
:102738002DE9F04F05460E4690460027D0F8B0A088
:1027480085B0AAF5AE7421463046FDF777FFE0B9AB
:10275800114BA4F1400B0293DAF810303246CDE960
:10276800008329464FF0FF335846AAF5CE790EF07C
:1027780071FA60B97023012203FB079383F8642080
:10278800DAF80C300BB158469847703417B105B0D9
:10279800BDE8F08F0127D6E7DD5201001FB51446CA
:1027A80090B18AB1012912D10A4B00F1E0010293DC
:1027B800D0F8AC31403201934FF0FF3320460093FC
:1027C8000EF048FA04B010BD6FF01500FAE70020CB
:1027D800F8E700BFDD5201002DE9F04387B00E464F
:1027E800DDE90E811446DDE910251F4630B329B313
:1027F800DFF850C000F1E009002D08BF65469EB91A
:10280800CDE9034400F5CE742046059617F021F86B
:1028180003ABCDE900432A463B46414648460EF005
:10282800EFFA07B0BDE8F083002241460E92484611
:102838002A4607B0BDE8F0430EF00EBC6FF0150055
:10284800EFE700BF39270000F0B50E46044689B00F
:10285800002872D0436B0BB9394B436301232246DE
:10286800E3630023D4F8981004F1400042F8301FC5
:10287800CDE901334FF0FF330093D4F89C3016F0C4
:10288800A8FA304A06AB92E8030083E8030018462A
:102898000EF09AF80546D8B904F134000EF076F82F
:1028A8000546A8B9616B284805AA16F06EFA0546D0
:1028B80070B9059B9A6872B10C33D4F89400C4F8C7
:1028C800A03012F038FDC4F8D40030B96FF00B0511
:1028D800284609B0F0BD0346EFE7D4F8940012F09B
:1028E8002AFDC4F8D8000028F0D0D4F88C30D4F8E9
:1028F800A010C4F8A8300423C4F8AC30C4F8C4301D
:102908000223A362114BB4F89420D4F8D470C4F80D
:10291800B810C4F8D010D4F89010236204F1A403BE
:10292800A4F8B020C4F8A470C4F8C010A4F8C82053
:10293800C4F8BC00A661E362CAE76FF01505C7E7F3
:1029480023C1010034AD01002DC10100CCB101004B
:102958002DE9F047044607464FF00109DFF850809B
:1029680014B93846BDE8F08794FAA4F5B5FA85F5A8
:1029780009FA05F32E0108EB05156FEA030A24EAA4
:1029880003042B7B002BEBD058F806301B694BB99E
:102998004644736804222846196807EA0A0700F0C3
:1029A80051FADDE7284698470028D9D1F0E700BF5B
:1029B80094AC010030B5002289B00F490F4817F0D8
:1029C800A7FB002200230024CDE906230E230C4D8B
:1029D800CDE903344FF440722846CDE90144094B50
:1029E800094900940EF05EFD0849284617F00DF8D5
:1029F800204609B030BD00BF192A0000900F002002
:102A0800080B0020F12C00001022002035C1010025
:102A180001480FF0D3B900BFC00500202DE9F047E9
:102A280080461F480F4612F0D8FC0646002830D0D2
:102A380000252846BDE8F087237B73B12368DB684F
:102A48000BB12046984723681B69D3B963680422F1
:102A58002046196800F0F6F9013610344C45EBD3DE
:102A6800B8F1000FE5D0002DE2D02846FFF770FF3F
:102A78000546002FF7D000214FF4A4700FF07EF820
:102A8800F1E7204698470028E0D00AFA06F31D43EC
:102A9800E2E705464FF0010A024CDFF80C90DDE74B
:102AA8003418002094AC0100A4AC0100014B53F889
:102AB800200070470CB2010008B5034608462BB148
:102AC800044A136000F074FC002008BD6FF0150084
:102AD800FBE700BF0002002010B5044C237813B9AF
:102AE80003480FF06BF90123237010BD241D00204B
:102AF800C005002010B50446064812F06EFC3CB133
:102B0800054BD3E8EF1F0139C3E8E21F002AF8D1CB
:102B180010BD00BF2C1800203018002000200146EE
:102B2800034BD3E8EF0FC3E8E21F002AF9D170473F
:102B38002C18002070B5FFF7F1FF0546074C084E2A
:102B4800B44200D370BD63685B792BB123685B68BE
:102B580013B12946204698471034F1E794AC010098
:102B6800A4AC010010B5044C0449204611F003FD43
:102B7800034B1C6010BD00BFE8040020F8B1010041
:102B88002418002008B50023074A4FF400411370A9
:102B9800064A07481360074A1360FFF78DFFBDE830
:102BA8000840FFF7DFBF00BF251D00202C180020BC
:102BB800DF5301003018002001460022002301489D
:102BC80011F0FABCE8040020014811F093BD00BFE1
:102BD800E8040020024B0146186811F0DDBD00BF73
:102BE80024180020014811F013BE00BFE80400209B
:102BF80070B5264B1878002847D0FFF7E5FF054643
:102C080070B1234BD3E8EF1F0139C3E8E21F002A54
:102C1800F8D1204C204EB4422DD32846FFF7DAFFD6
:102C28001E4B1F4C1B68002B19DD17F02AFA4FF4B6
:102C38007A72A0FB020302FB0131C30B43EA414352
:102C4800D4E900209B1A40F2E9324FEAD13161EB16
:102C58000001934271F1000101D3FFF76BFFD4E942
:102C6800003213F57A7342F10002C4E90032BDE87C
:102C78007040FFF7B7BF63685B7923B123682946C3
:102C880020461B6898471034C5E770BD241D0020F6
:102C98003018002094AC0100A4AC01002C180020CE
:102CA800880F002070B50D4D297861B90120FFF714
:102CB800B5FE0B4C0B4EB44206D3FFF799FF002824
:102CC800FBD101232B7070BD63685B791BB123684E
:102CD80020469B6898471034EDE700BF251D00206B
:102CE80094AC0100A4AC010000212DE9F04708468E
:102CF800FFF794FE044658B340F267684FF00009A6
:102D080017F02AFD1B4B1C4A1B58136033B11B4B91
:102D18001B68092B02DD1A480FF050F80025194FDF
:102D2800DFF85CA044B12046FFF712FE044618B94C
:102D38004FF0FF384FF0FF39FFF75AFF064628B922
:102D4800B5B942464B4650460FF05EF83546E9E7BE
:102D58004FF0FF384FF0FF39D2E72B689B691BB162
:102D680000222846114698471035BD42F5D3E8E7BA
:102D7800054DFAE708000000281800203018002048
:102D8800C0050020A4AC010094AC010013B518489C
:102D980012F023FB174B1B787BB14FF02003EFF3A6
:102DA800118483F31288BFF36F8FFFF721FF84F339
:102DB8001188BFF36F8F02B010BD0F4B1B68002B3B
:102DC800F9D050B9002200230C48CDE900234FF474
:102DD800004200230FF024FCEDE70928EBD1074857
:102DE80017F0A2F9064802B0BDE810400EF0E6BFA1
:102DF80030180020251D002028180020900F0020E2
:102E0800C005002010B5064B04461B6898472146AC
:102E1800A060044811F04EFCBDE81040FFF7B6BFB3
:102E280000020020E8040020044A054B9B1AB1EB7D
:102E3800D30F34BF52F831000020704764AB010053
:102E480094AC0100084B10B4C31A44681B11013339
:102E5800237143689A7101224368196043685A7163
:102E680010BCFFF739BE00BF94AC01002DE9F04F4C
:102E78008FB0C1F34A2804AF0D469146B8607B6015
:102E88000C0DB8F1000F63D000264FF0040B4FF083
:102E98000A0A07F11403C7F80C80C7E907667E62BF
:102EA8000193CDF808B0CDF800A007F11C03324615
:102EB8004846F968FEF7F6F9B0F5006F03461CD3EB
:102EC8006C468AB0D9F8041004AB26481A46C3E900
:102ED800050140F2FF71D9614FF400711984224B4A
:102EE80042F8103F4FF4125133462048FFF7BEFF17
:102EF800A5462C37BD46BDE8F08FC0F30A0804F19B
:102F08001700184420F0070080083B60FFF754FEC4
:102F180068F35325044690B13B6800F11001C7E9F6
:102F2800083607F11403F961CDE900A3CDF808B01C
:102F380048460F4AF96807F11C03FEF7B3F968F32E
:102F480053252A4620467B68B96812F078FAD0E7FC
:102F580004F1170020F007008008FFF72DFE044653
:102F6800EDE700BF4AC101000400000124AC0100E4
:102F78001B5401002DE9F04F87B00446DDE9105AD3
:102F8800DDE912690F4693469846A6B310213346E9
:102F980052460020CDF80090CDF81490FDF7B0FF10
:102FA800014605F117000844144B04F007040BF020
:102FB800070BE40020F0070003EA412344EA8B14DE
:102FC80080081C430391FFF7F7FD44EA05540546C2
:102FD80040B13EB1334652460399CDF800901030C7
:102FE800FDF78EFF434622463946284607B0BDE81E
:102FF800F04F12F024BA3146D3E700BF00FE0F00AD
:103008000EB403B503AB53F8042B014604480193EF
:1030180001F096FC02B05DF804EB03B0704700BF06
:1030280059550100CA0605D48B064CBF024903490D
:10303800FFF7E6BF704700BF4BEE01004AEE010004
:103048002DE9F04F89B09A46DDE914739DF84CB02C
:103058000593169B04460D46179E06920493BBF1F2
:10306800000F00F0858006F00803079312F0CFF9EF
:1030780006F002090246002849D020468549FFF794
:10308800BFFF8046B9F1000F08D016F0440F40D1B9
:103098002A4620468049FFF7B3FF804406F0010323
:1030A80053B17E4B204653F82B207D4B7D49002A97
:1030B80008BF1A46FFF7A4FF06F00803002B54D0F8
:1030C800794B204653F82B207849FFF799FF05469E
:1030D800069B2BB11A4620467549FFF791FF054418
:1030E800BAF1000F05D0524620467249FFF788FF13
:1030F80005444544002F49D1049B002B4FD1F307C9
:1031080000F1C18031462046FFF78CFFB5E08046CC
:10311800B8E7694B18680028BFD0684B4FF47A7934
:103128001B684FF46161B5FBF3F5B5FBF0F300FBE9
:10313800135509FB05F5B3FBF1F2B5FBF0FE4FF0B3
:103148003C0C01FB123100FB1E55B1FBFCF309FBE3
:1031580005F5B5FBF0F50CFB131120460091CDE900
:1031680001E55749FFF74CFF97E706F00805AFE779
:10317800BAF1010F06D1002F65D1049B002B7CD03A
:1031880000250CE0002FF8D04E485DE04E483B4645
:1031980022464E4911F07FF8049B002B69D0DFF8D6
:1031A8003081DFF83091049F3146102F204628BF28
:1031B80010274FF0000AFFF735FF554546DC059B01
:1031C800494620461A78FFF71BFF4FF0010A1AF00C
:1031D800070F03D141462046FFF712FF57453CD958
:1031E800059B4946204613F80A20FFF709FF0AF114
:1031F800010ABAF1100FEAD14FF0000A2046364909
:10320800FFF7FEFE5246059B20469A5C334B995CBD
:1032180011F0970F08BF2E223149FFF7F1FE0AF18E
:10322800010ABAF1100F1DD01AF0070F03D1414659
:103238002046FFF7E5FE57455246E4D8414620466A
:10324800FFF7DEFEEBE720485D46A0E74146204653
:10325800FFF7D6FE0AF1010AAFE720462149FFF73A
:10326800CFFEC4E7059B3B440593049BDB1B0493FB
:1032780099D1BBF1000F7FF442AF204609B0BDE8F9
:10328800F04F12F058B92046054A0649FFF7B8FE34
:1032980038E700BF8EC1010092C101001CB20100D5
:1032A80089C101008BCF010030B20100B7C1010014
:1032B800BDC10100C1C101003C1800203818002020
:1032C8009BC101008755010059550100494900007B
:1032D80016EE0100C6C10100CCC1010078EF010063
:1032E800CEC1010014EE01002DE9F0410F884B68B2
:1032F80005460C4690468E6886B0C7F382175BB1C8
:10330800144A9B1A43F3CF01002920DB2078C0F32D
:10331800C200FFF789FD0346214651F8102B60884B
:10332800C2F34A22002A01EB020408BF002100224E
:10333800C0F30B10CDE90408CDE902142846314644
:1033480001970092FFF77CFE06B0BDE8F0810023EC
:10335800E2E700BF64AB010042F20F7373B58B4222
:1033680028BF0B4605680446052168460D4A0FF03C
:1033780061FA0646636828460B225B680A4912F020
:10338800CDF863683246694628465B6812F0C6F88D
:1033980063681B2228465B68044912F0BFF802B034
:1033A80070BD00BF53EA0100EDC10100D1C10100A9
:1033B80000210123064A904206D8064A01B9012392
:1033C8001360054B18607047012140085B00F2E765
:1033D80040420F00381800203C180020F8B50D4670
:1033E8000446064F4618B44201D12846F8BD14F8E1
:1033F800011BBB6801485B689847F4E768A80100AF
:10340800014B03600020704778B2010070B5114B82
:103418000D461C68DCB1104B196800238B4202DB97
:103428006FF0010070BD224612F8106B864202D080
:1034380014460133F2E7E06810B96FF01200F1E7C3
:1034480016F021FA0028F8D000202C60EAE76FF087
:103458000C00E7E70C02002078B2010070B588B0D4
:1034680005460C46C0B269461646FFF7CFFF00284E
:103478001BDB0098C8B143682268029383680195F2
:10348800CDE903360023CDE906230593C56812F07C
:10349800ACF86DB12846084901AA15F0EAF9079871
:1034A80008B9059B236008B070BD6FF01500FAE7F6
:1034B8006FF01200F7E700BFF555010010B5084C92
:1034C80086B024788DF81740012402940DF1170472
:1034D8000194BDF82040009414F0EFF906B010BD37
:1034E800D304002080B50C4A0C4B00AF88B00129EA
:1034F80008BF13466A460A49C2E905134FF4007328
:103508009383084B42F8103F00234FF4E6510648D6
:10351800FFF7ACFCBD4680BD5BC2010063C2010081
:103528006CC201000300000164AB01002DE9F04109
:103538000F4B05461C680E461746ACB14FF0FF32DC
:103548004FF0FF330B480EF08BFB63683246D3F81D
:10355800088029463B462046C047044605480EF0E9
:1035680043FB2046BDE8F0816FF00104F9E700BF96
:103578006C1800209405002000230360044B5A684F
:1035880012B9C3E90000704710605860704700BF67
:1035980070180020014B1860704700BF6C1800209D
:1035A800002330B585B00546CDE9023301904FF0D0
:1035B800FF334FF0FF320B480EF052FB0A4B1C68EA
:1035C8004CB9284600F0E0F8044606480EF00CFB1B
:1035D800204605B030BD636820461B6801A998479E
:1035E8002468EDE794050020701800201FB5CDE988
:1035F800010103924FF0FF334FF0FF3209480EF0FC
:103608002FFB094B1C682CB906480EF0EDFA204632
:1036180004B010BD636820461B6801A99847246858
:10362800F1E700BF94050020701800200022024B2B
:10363800C3E90022704700BF701800200022024B27
:10364800C3E90022FFF7F2BF781800202DE9F743FD
:1036580007460C4609B100230B6000261E4DDFF813
:103668007C904D450FD31E4B1D6885B355F8148CBF
:103678003846414601AA143D11F0FDFF10B3D6B9F2
:1036880014BB2E461EE0D5F800803846414601AAF4
:1036980011F0F1FF50B116B954B92E4606E00022D8
:1036A8004046316811F0E7FF0028F5D11435D8E716
:1036B800019B2360F1E700224046316811F0DBFFEF
:1036C8000028DDD16D69D0E7019B2360D9E730463A
:1036D80003B0BDE8F08300BFA4AC01001CAD01003D
:1036E800781800202DE9F04784B002AFD7F8289069
:1036F80004460D46164698467860B9F1000F07D083
:10370800D9F8001031BBD9F804A0BAF1000F28D1BC
:103718002046391DFFF79AFF08B3D0F808904346B2
:10372800324629467868C847C8B16D468AB002AAA9
:10373800124BD061C2E905344FF400731384104B67
:1037480042F8103F00234FF411510E48FFF78EFB4B
:10375800AD4604E03A1D11F08EFF0028D3D10020B9
:1037680007E0D9F80830324600932946434678687E
:10377800D0470837BD46BDE8F08700BF85C20100C5
:103788000400000174AC0100F8B506460025174C8A
:10379800174FBC4208D3174B1C682CB3143CB6B95E
:1037A800E368E3B96469F8E72EB9E3685BB92846CA
:1037B80005461434EDE700223146206811F05BFF1E
:1037C8000028F2D1F3E79847002DF0D1F0E7002266
:1037D8003146206811F04FFF0028E1D1E2E7984711
:1037E800002D08BF0546DDE72846F8BDA4AC01005A
:1037F8001CAD01007818002038B50C4D4FF0FF3390
:103808004FF0FF320A480EF02BFA2B783BB9FFF73E
:1038180015FF00F06DF8044610B901232B70002441
:1038280003480EF0E1F9204638BD00BF271D0020EF
:10383800940500202DE9F04706468946048FDFF8F5
:10384800ACA0013498B0A4B200F10807651EADB26F
:10385800B5F5004F47D04A23294605AA384611F046
:1038680093FB04F57F543F34A4B2804621460123DC
:1038780038460DF10B0211F087FBB8F1000F014635
:1038880010DC002810DC338FAB4209D132466B1EA6
:1038980022F8383F4FF4004102233846FEF780FBF8
:1038A8002C46D3E7002808DC2946384611F068FB87
:1038B8002146384611F064FBE5E708F160030DEB9B
:1038C80003080023524608F84C3C05A8CDF80090A0
:1038D80003AB0397ADF81040FFF704FF0028DFD0D3
:1038E80018B0BDE8F0870020FAE700BFEF560100E6
:1038F8007FB50123694605200193FFF787FD04463C
:1039080060BB052002AA01A9FFF7A8FD044610B173
:1039180010F10C0F22D10399B1F5803F23D2002377
:103928001846009A9468084484421AD30133082B35
:10393800F9D10E4DA982EB8253682846AB60D36853
:10394800EB6311F068FF044640B9094E28466E60E3
:10395800FFF712FE28466E60FFF71CFE204604B0F3
:1039680070BD9BB2E5E76FF02004F7E780180020F0
:10397800400200200449431E0F3013F8012F8A5CCF
:1039880083421A70F9D17047AAC20100F0B5074600
:10399800264E8DB001AD0C460FCE0FC50FCE0FC50C
:1039A80096E8070085E807003846002F39D0002C34
:1039B80039D0381F0246214610344B780D781B0445
:1039C80043EA0563CD7804312B4311F8025C8C423D
:1039D80043EA052342F8043FEFD10421144C8A0737
:1039E800036916D1C3F30742A55C1A0EA25C42EA2A
:1039F8000562C3F30725655DDBB2E35C42EA054275
:103A080042EA032221F0030330336B4453F82C3C81
:103A1800534050F8042F013153402C290361DED163
:103A280001200DB0F0BD2046FBE700BF3CAD010012
:103A3800AAC201002DE9F04F002703689DB0029348
:103A48004368DFF8BCA103938368DDE90246049369
:103A5800C36805930369DDE904BE069343690793C8
:103A68008369DDE9062C0893C36998460993089B86
:103A78000093CD590CAB2DBA5AF8049BDD514FEA8F
:103A8800F223A94483EAB213009D83EA72634B448C
:103A980025EA020502EA0C0985EA09052B44434494
:103AA80086EA0B054FEA743888EAB408254006EA26
:103AB8000B0985EA090588EAB4580437A844402F59
:103AC80003EB0E054344DE46DDF8008040F08880B5
:103AD8004FF0100A4B490A9151460AF1010A0DF1BB
:103AE800700E0AF00F070EEB870757F8407C01F0BD
:103AF8000F094FEAB748019788EAF71801F10E074E
:103B080007F00F070EEB870757F8407C09314FEA9B
:103B1800F74E8EEA774ECDF82CE001F00F010DF14B
:103B2800700E0EEB81010EEB890959F840EC51F843
:103B3800401CBAF1400F7144DDF804E088EADE0861
:103B4800DDF82CE041448EEA972E714405EA02081C
:103B58004FEAF52E2CEA050787EA08078EEAB51E14
:103B6800DDF828808EEA756E774458F804EF49F836
:103B7800401C77440F4400994FEA733E394484EA65
:103B88000607CDF828808EEAB30E07EA030704EA91
:103B980006088EEAB35E87EA080777440F4401EB0C
:103BA8000B0ECDF800C0B34622D10299394401600A
:103BB80003991944049B416023448360059B334463
:103BC800C360069B73440361079B2B444361089BB6
:103BD80013448361099B6344C3611DB0BDE8F08F42
:103BE800B346CDF800C0264694461C462A4640E710
:103BF800944626462A461C4675463B466CE700BF57
:103C0800A4B30100E0B3010010B50446C8B17022A6
:103C1800002111F02EFE0B4B0B4A0C49C4E900237E
:103C28000B4B0C48C4E902130B4BC4E904030120F5
:103C38000A4BA36103F17453A3F52303A3F692433C
:103C4800E36110BD85AE67BB67E6096A72F36E3C37
:103C58003AF54FA57F520E518C68059BABD9831F4F
:103C68002DE9F04780460C4600AF002936D0D1E94F
:103C78000012E9468AB06D46A3684FF0050A2E4641
:103C88001A48C5E90723C5E9050146F810AF00231E
:103C980032464FF421511648FFF7E8F8D4E90312E9
:103CA800CD466369AD461348C5E90723C5E9050153
:103CB800C5F810A0002332464FF421510C48FFF7F5
:103CC800D5F8CD46E36901210B4A094811F010FCEB
:103CD800A3690121094A064811F00AFC2146404619
:103CE8000DF0E0F9BD46BDE8F08700BFAAC30100AA
:103CF80064AC0100D9C3010008C4010017C4010065
:103D080030BFFFF7FDBF00BF114B124A2DE9F0414C
:103D1800D518013DB5FBF3F5DFF83C805D430F4B4B
:103D2800074608EB0304013CB4FBF3F403FB04541B
:103D38000E1B30460A4916F0D7FC7019424600217E
:103D4800083E16F0F8FC7E6704F10800BDE8F08133
:103D5800010000000000000008000000040000004E
:103D68001CAD0100044B99685869884203D0034987
:103D78004FF080520A607047C81C002004ED00E034
:103D880070B52A4C06460D4629482A4912F0C3F94F
:103D9800A36ADB0647D52648274912F0BCF911204B
:103DA800A36A1C0704D52248244912F0B4F912204A
:103DB8001E4CA36A990712D521491D4812F0ABF988
:103DC800636BA26A120609D501211E4A184811F030
:103DD8008FFB1EB1A36A23F08003A3621320134C48
:103DE800A36ADE0704D51248174912F094F9142083
:103DF800A36A9C0604D50E48144912F08CF91520C4
:103E08000A4B9A6AD10658BF9A6A9A6A920642BFC2
:103E18005A6A22F400525A629A6A42F0FF029A627F
:103E280000232B7070BD1020BAE700BF00ED00E042
:103E380064AC010045C401005BC401008EC40100EC
:103E4800A1C40100B9C40100CFC40100EEC401003F
:103E580010B5244C2449254812F05DF9A36A99014C
:103E68003ED52248224912F056F91E20A36ADA01EB
:103E780004D51E481F4912F04EF91F20194CA36A99
:103E8800DB0204D519481C4912F045F90220A36A3F
:103E98001C0304D51548194912F03DF92120114C8D
:103EA800A36A590304D51148154912F034F92220A0
:103EB800A36A9A0304D50D48124912F02CF923205D
:103EC800084CA36ADB0304D508480F4912F023F90C
:103ED8002420A36A6FEA03436FEA1343A36210BD69
:103EE8001D20C3E700ED00E01DC5010064AC010022
:103EF80035C5010048C5010062C501008CC5010037
:103F0800AAC50100CFC50100E9C5010070B5294C5B
:103F180006460D462848294912F0FDF8A36AD90437
:103F28003CD52548264912F0F6F81720A36A1A0549
:103F380004D52148234912F0EEF818201D4CA36A35
:103F48009B0512D51C48204912F0E5F8A36BA26A1C
:103F5800100409D501211D4A174811F0C9FA1EB1EC
:103F6800A36A23F40043A3621920124CA36A5905DB
:103F780004D51148164912F0CEF81A20A36ADA05BA
:103F88000ED50D48134912F0C6F81B20094A936A4A
:103F980043F47F43936200232B7070BD1620C5E75E
:103FA800A36A9B04F2D504480B4912F0B4F81C200C
:103FB800ECE700BF00ED00E064AC010014C60100AE
:103FC8002AC601008EC401003BC6010054C6010088
:103FD80069C6010084C60100EEC401002DE9F04164
:103FE8008AB0654B0446D3F80480002600AFC8F3B6
:103FF800080586F31188BFF36F8F02F07F43B3F192
:104008007F4F07D102F00C03082B12D15B495C48A3
:1040180012F081F8002634460023FB71EB1E092BB1
:1040280000F28980DFE803F00A7F827C8787878730
:10403800878510074CBF0C460126EDE751495048CB
:1040480012F069F800234C4DFB71EB6A9A0705D50D
:104058004D494B4812F05FF8002332E0EB6A002B21
:1040680001DA4A49F5E7EB6A5B00F5D54849444867
:1040780012F051F86B69A26943F480736B61BFF366
:104088004F8FBFF36F8F6B6932F8022C23F4807364
:104098006B61BFF34F8FBFF36F8F4DF602739A4278
:1040A80008D0AB6ADBB273B30120F91DFFF768FED5
:1040B800034606E023680121364A314811F018FA10
:1040C8002368FA79DAB907F1080504F1200C2A46C1
:1040D80020686168083403C264451546F7D17A6AD6
:1040E800002E44D0C2F3080121B96FEA52226FEAC8
:1040F80042227A62184607F10801FFF7B1FD283716
:10410800BD46BDE8F081AB6A13F47F4F04D00120AF
:10411800F91DFFF7FBFECBE7AB6AB3F5803F9BD3F6
:10412800FFF796FEC4E70020F91DBFE70020F91D40
:10413800EFE719498DE7194A18F4F87FE8468AB07D
:10414800174B18BF13466A461649103DC2E90513B6
:104158004FF400731384144BD56142F8103F0023C9
:104168004FF411510648FEF781FEC54674E722F464
:10417800FF7222F00102BCE700ED00E0CAC60100B0
:1041880064AC0100F5C601000CC701002DC7010091
:104198003BC701005AC7010076C70100B1C601003C
:1041A8009CC601009AC7010004000001044B5A692B
:1041B80042F010025A615A6942F480625A617047AB
:1041C80000ED00E0EFF30880EFF3098101B57246D6
:1041D800FFF704FF01BD00BFFDF708FD202080F3B5
:1041E800118808484FF40061401880F30988EFF3FC
:1041F80014800221084380F31488BFF36F8F00F006
:10420800CDF8000050370020BFF34F8F0549064B0B
:10421800CA6802F4E0621343CB60BFF34F8F00BF5C
:10422800FDE700BF00ED00E00400FA05084B9B68BD
:1042380083420BD1EFF3058343B1064B5A6842F032
:1042480080525A605A6A22F400425A6215F0EFBC52
:10425800C81C002000ED00E06FF00A01084A9368CE
:10426800D967084998674B6843F080534B6000232F
:1042780083F31188BFF36F8F9368D86F704700BFBF
:10428800C81C002000ED00E016498A684FF0300095
:104298001044EFF3098C80E8F01F202080F3128887
:1042A800BFF36F8F104F4FF000664A698A603E6017
:1042B8004FF07404141920680C4C2060906F002390
:1042C800936780F3118802F1300090E8F01F8CF3B7
:1042D800098802F1000004B511F025FFBDE804408B
:1042E80070470000C81C002004ED00E0C018002042
:1042F8001EF0040F0CBFEFF30880EFF3098081690B
:1043080011F8021C0229FFD001B511F0F9FE01BD18
:1043180040B2002807DB01234109034A00F01F00CF
:10432800834042F82130704700E100E040B20028A5
:104338000CDB01220649430900F01F0082402033AC
:1043480041F82320BFF34F8FBFF36F8F704700BF33
:1043580000E100E0054B420953F82220012300F058
:104368001F0003FA00F01040704700BF00E100E0B2
:1043780040B2002801F10101ACBF00F16040064BDA
:104388004FEA4111C9B2ABBF00F5614000F00F0020
:1043980080F800131954704714ED00E00F4A08B56F
:1043A8000F4B22F07F029A60BFF34F8FBFF36F8FDE
:1043B800D3F8882022F47002C3F88820EFF314831E
:1043C80023F0040383F31488BFF36F8F0CF01EFFF0
:1043D8000DF05AFF00F078F80CF062FF00000000C2
:1043E80000ED00E042F8203C009B0B4942F81C3CE1
:1043F800019B21F0010142F8183C029B42F8081C7D
:1044080042F8143C4FF0807342F8043C0023203AF1
:1044180002658367704700BF791600000A4B446F36
:1044280098600A4B1C60436E83F30B88104681F337
:104438000988002163B681F31188BFF36F8F0022CA
:104448000023FDF715F900BFC81C0020C018002084
:10445800014910220A60704710ED00E072B6404032
:1044680080F31188BFF36F8F01B5FDF7BDFA0028FF
:104478000AD0BFF34F8F30BF00BF00BF00BF00BFDF
:1044880000BF00BF00BF00BFBDE8014062B6BFF378
:104498006F8F704772B6494081F3118801B5FDF7F7
:1044A800A3FA00280AD0BFF34F8F20BF00BF00BF78
:1044B80000BF00BF00BF00BF00BF00BFBDE8014094
:1044C80080F3118862B67047002320210348C21880
:1044D8000133452B82F80013F9D1704700E100E061
:1044E80001B5EFF30580A0F110004FEAC0000449C0
:1044F800014409C99847BDE801400249084700003E
:10450800CCA801006D3D00001FB5094C094A23469F
:104518000121094800F012F900230393074B0121F8
:10452800E41A01A80193029400F012F904B010BD36
:104538000000072000000020A4B401009807002014
:1045480010B50C7A0B6804F01F0223F01F031A43FE
:10455800CB68640923F01F03054943EA440343F089
:104568000103C1F89800C1F89C20C1F8A03010BD23
:1045780000ED00E010B50A4BD3F89030C3F30723E1
:10458800013B984208D901210346064A064810F023
:10459800AFFF6FF0150010BDFFF7D2FFFBE700BFBC
:1045A80000ED00E0B1C7010044AC01002DE9F04F77
:1045B8008946144606464FF00008514D85B0C84557
:1045C80027DAD6F804A0BAF1000F44D0BAF11F0FC9
:1045D80017D91AF01F0F14D1D6F800B01BF01F0F0F
:1045E8000FD1584611F0A3FD07460AEB0B0001381E
:1045F80011F09DFD874210D06FF01507414A3B46E8
:1046080001E04346404A0121404810F071FF6FF035
:104618001504204605B0BDE8F08F17F1160FEDD050
:10462800BC42EBDDC5F89870D5F89C10C5F89870B9
:10463800D5F8A03021F01F0143F01F0BD6E9003256
:104648001A44994202F1FF3A1DD1D34507D13146A8
:10465800F8B211F075FD08F101080C36AFE73146E4
:10466800C5F89870D5F89C3022F01F0203F01F039C
:104678001343C5F89C30E0B211F062FD10F1160F3B
:10468800C5D0441CE7E7C5F89870D5F8A020013BD1
:1046980023F01F0302F01F021343D3453146E0B253
:1046A800C5F8A030E8D011F04BFD10F1160FAED0D0
:1046B800C5F89870D5F89C209DF808300BF1FF3BA1
:1046C80062F304038DF80830D5F8A0309DF808206F
:1046D8005B0863F347128DF80820D6E900321344CB
:1046E800009323F01F035B44A3EB0A03013023F07C
:1046F8001F036946C0B20393FFF73CFFBEE700BF44
:1047080000ED00E0FAC70100D7C7010044AC010082
:104718000522044BC3F89420BFF34F8FBFF36F8F6C
:10472800704700BF00ED00E0BFF35F8F0022024B2F
:10473800C3F89420704700BF00ED00E010B5034CAB
:104748002278FFF733FF207010BD00BF281D00201E
:104758002DE9F74F294D8A4606464FF00008AB462B
:10476800274FD0451BDAD6F80490B9F1000F3FD097
:1047780031680846019111F0DAFC0199044609EB09
:104788000100013811F0D3FC84424FF014021D4B94
:1047980008D002FB08F36FF015024BF8032003B0B2
:1047A800BDE8F08F14F1160F2C60F8D01978A142EB
:1047B800F5DD02FB08B0C7F89840C7F89840D7F86D
:1047C8009C4000F10801007B64F304000871D7F8ED
:1047D800A0000C79400860F347140C71D7F89C10BE
:1047E80021F01F016960D7F8A01021F01F0129618D
:1047F80008F1010814350C36B3E700BFC4180020CF
:1048080000ED00E0281D0020F0B53C493C4DD1F8F2
:1048180090302C68C3F307239C4287B06BD80020E4
:10482800FFF782FF374BC1F8C03084420DD1364DB7
:1048380001A82C70FEF7E4FD00240646334FA6427B
:104848000AD1FFF765FF002053E0696801EB00110A
:10485800FFF776FE0130E8E70199200101EB041328
:10486800DA683A40B2F5001F22D0B2F5800F2CD09A
:10487800B2F5801F36D15A689B680958013B22F06F
:104888001F0003440120844623F01F0340EA4C1014
:10489800CDE902218DF8100002A928780593FFF7C9
:1048A80069FE002823DB2B78013401332B70C6E71F
:1048B8005A689B680958013B22F01F0003444FF0D7
:1048C800020C012023F01F03E0E75A689B6809588F
:1048D800013B22F01F0003444FF0000C022023F09C
:1048E8001F03D3E701210A4A0A4810F0F8FD6FF0C8
:1048F800150007B0F0BD4FF0FF30FAE700ED00E01B
:10490800B0B40100AAFF4400281D00200000F0FFF9
:104918001DC8010044AC010008B5024B1B6898474C
:10492800002008BDD8180020034B044A186093786B
:1049380043F0020393707047D818002054020020F7
:10494800F0B587B007460E46144600211022684687
:104958001D4615F0F0FE02238DF80230054B2A465D
:1049680021466846CDE9047601930EF08DF807B02C
:10497800F0BD00BF7B61010008B50649064821F07B
:104988000701C1F1005202F5E0220FF02CFC0020D3
:1049980008BD00BFD4640020DC1800201022174B8B
:1049A80070B5C3F840244FF47F03D3F83021D3F80F
:1049B8003431072A1BD1023B032B02D8104AD35C9F
:1049C800ABB14FF05024012600250520C4F8186625
:1049D800C4F8145614F076F83046C4F8146614F087
:1049E80071F8C4F81456C4F81856002070BD4FF07A
:1049F80050230022C3F81426F7E700BF0030005008
:104A08004EC801000E4B402928BF402170B51D46F5
:104A18000C4C4618B04203F1020304D1002305F8F8
:104A28001130074870BD02781209A25C03F8022C05
:104A380010F8012B02F00F02A25C03F8012CE9E741
:104A4800471D002085C8010030B503788BB00446A7
:104A580007AD032B21D8DFE803F0021A1C1E124908
:104A68002846FBF7F5FD059563781E210493A37886
:104A78000E4A0393E3780E480293237901936379EE
:104A88000093A3790DF0D6FE09480BB030BD094953
:104A9800E6E70949E4E70949E2E70A212846084A1E
:104AA8000DF0C8FEDFE700BF2BBD01004DBD0100C2
:104AB800291D002032BD010039BD010043BD0100A0
:104AC800F4E301002DE9F3410446174698461F4DCB
:104AD800D5E8AF3FDA071DD538B901211C4A1D4872
:104AE80010F0FDFC6FF0010015E001A910F0E7FDE2
:104AF80019490246204615F0AEFC0028F2D1D5E847
:104B0800AF3FC3F3C0061B0708D50221134A11485B
:104B180010F0E5FC002002B0BDE8F081A5F1D40456
:104B2800072221464046B84706280AD801210C4AE0
:104B3800084810F0D4FC45F8D46CE671C4F803605A
:104B4800E8E70723B0FBF3F0E071E3E7D4000020C7
:104B58009DC80100ECAB010040BD0100BEC80100CA
:104B6800E2C801002DE9F04188B0DDF838809C7971
:104B78005D791E79DF7893F802C093F801E01B781D
:104B8800B8F1000F0ED0CDE90638CDE904CE1346B2
:104B9800CDE90267CDE90045084A0DF04BFE08B0A3
:104BA800BDE8F081CDE905E3CDE9037C1346CDE905
:104BB8000156034A00940DF03DFEF0E707C90100D5
:104BC8002BC9010010B5FEF717FE044628B10121D4
:104BD8000346034A034810F08BFC204610BD00BF73
:104BE8004CC90100ECAB010070B504461E461546E1
:104BF8008CB0A2B129B10A4602A804210FF015FE13
:104C080002A900912B462246242103A8FFF7AAFFF8
:104C18003146109A03A8FEF789FC0CB070BD034614
:104C28002421044A03A80DF005FE0028F0DA6FF0ED
:104C38001500F2E771C9010007B50B4B0B48DA798B
:104C4800C2EBC202009200221146FFF7CDFF0346D5
:104C580038B10121064A074803B05DF804EB10F0AB
:104C680047BC03B05DF804FB0000002040BD010014
:104C780077C90100ECAB010030B5044615468DB08C
:104C880092B129B10A4602A804210FF0CEFD02A96B
:104C980000912B462246242103A8FFF763FF03A8AF
:104CA80010F0E5FC0DB030BD03462421044A03A8EA
:104CB8000DF0C0FD0028F2DA6FF01500F2E700BF32
:104CC80071C9010007B5009313460A460146034817
:104CD800FFF78AFF03B05DF804FB00BFB0E00100F6
:104CE8000A4601460148FFF7C7BF00BFB0E0010010
:104CF80007B5009313460A4601460348FFF774FFB9
:104D080003B05DF804FB00BFAAE0010007B50093FB
:104D180013460A4601460348FFF766FF03B05DF8ED
:104D280004FB00BF8FDF01000A4601460148FFF778
:104D3800A3BF00BF8FDF010007B500220346009123
:104D480003481146FFF750FF03B05DF804FB00BFAE
:104D580087DF010008B502480DF0B6F9002008BD4C
:104D680064020020F8B5194DD5E8AF3F13F0010FE4
:104D78002E4628D015F8CD3CA5F1D4078BB901F003
:104D880001FF044630B10121114A124810F0A7FB77
:104D98002046F8BDFB7923B901F04EFF04460028F0
:104DA800F1D1D5E8AF3F5A0701D401F0E7FAD6E8C8
:104DB800EF3F23F48032C6E8E12F0029F7D1DB0367
:104DC80001D5FFF7C7FF0024E2E700BFD4000020A9
:104DD80092C90100ECAB010007B5009313460A46DF
:104DE80001460348FFF700FF03B05DF804FB00BF6E
:104DF80053E601000A4601460148FFF73DBF00BFE0
:104E080053E6010030B50024094D0A4B85B0284609
:104E18000293039415F0C2F802AB284600934FF4AE
:104E2800A3620A2304490DF055F9204605B030BDA8
:104E3800C80F0020C5C901001025002001460148FF
:104E48000DF0BEB9C80F0020037830B5012B13D080
:104E5800022B27D07BB90A46184B03F1100453F8EC
:104E6800045BA34242F8045BF9D11B7813704388B2
:104E78004B731B0A8B7330BD0A46104B03F11004A9
:104E880053F8045BA34242F8045BF9D11B78137012
:104E98004368C3F307224B731B0CCB731B0A8A733B
:104EA8000B74E8E700F1100350F8042B984241F81E
:104EB800042BF9D103780B70DDE700BFCEC90100E0
:104EC800012838B505460CBF0648074813F0B8FA5C
:104ED800044620B101210C3013F00EFB2576204644
:104EE80038BD00BFB8060020080600200246002092
:104EF80070B50B460A49D1E8EF4FC1E8E50F002D20
:104F0800F9D124B9BDE870400120FFF7D9BF0121CC
:104F18002082217604F10C0013F0EEFA204670BDD1
:104F28004001002070B504460F2C0D461046194666
:104F380005D80D2C0DD9BDE87040FFF7D7BF132C4D
:104F480007D10C4813F07CFA044638B900242046EF
:104F580070BD02460B4645B10748F3E701210C3006
:104F680013F0CAFA01232376F1E70120BDE8704067
:104F7800FFF7A6BF3C0700208C060020C36802216B
:104F88001B78024A024811F0F1B900BFE7C90100D5
:104F9800ACAB0100F8B506460F4603F0A9F8044685
:104FA80040B18378012B24D0132111F06EFD2046E7
:104FB80011F02CFD3946304608F03CF8054628BB70
:104FC8003946304606F0D4F8144B1B6823B31C68E6
:104FD80004B10C3C53F8043C13B1394630469847A9
:104FE800D4B12346E4689B68A4B10C3C002BF4D1EF
:104FF800F7E70023D0F8B8501321C0F8B83011F003
:1050080044FD204611F002FD002DD3D0284613F0B0
:1050180058F9D5E7002BE0D1F8BD00BF44190020AE
:1050280038B5C368B3F801401B786BB90F21204627
:1050380002F002FF054640B9084B1A8822B96FEA08
:1050480004506FEA1050188038BD012102F0E8FDC5
:105058002846BDE8384011F0D9BC00BF001D00202B
:105068002DE9F041C5682E78CEB9B5F801700F2149
:10507800384602F0E1FE044638B93B46BDE8F04147
:105088000121084A084811F071B9EB7831460373D9
:1050980002F0C6FD2046BDE8F04111F0B7BCBDE8FE
:1050A800F08100BF0FCA0100ACAB010010B5C368A6
:1050B8000121B3F80140204602F0BEFE38B923466C
:1050C800BDE810400121044A044811F04FB9BDE879
:1050D800104011F09BBC00BF35CA0100ACAB010009
:1050E80010B5C36801211C88204602F0A5FE38B916
:1050F8002346BDE810400121034A044811F036B99F
:10510800BDE8104011F082BC35CA0100ACAB01000B
:10511800012110B50C3013F023FABDE810400378D4
:105128000121024A024811F021B900BF59CA010001
:10513800ACAB0100014610B5084813F088F90849DE
:10514800084814F01AFF031E06DABDE810400121D2
:10515800054A064811F00AB910BD00BF44010020F5
:10516800B0020020E81000207BCA0100ACAB0100AF
:1051780010B5084C0146052294F86F0003F00AF8B0
:1051880038B994F86F000422BDE81040024903F0D2
:1051980001B810BD000000206BC801000121024ABF
:1051A800024811F0D6B800BF98CA0100ACAB0100A4
:1051B8000B46B0B50D8A00AF04462946D868FFF7FC
:1051C80021FC8AB06A46094BC2E90750C2E9053496
:1051D80040F202439384064B4FF43251054842F89B
:1051E800103F11F0D1F8BD46B0BD00BFB2CA0100F2
:1051F80005000001ACAB010037B502EBC3039342D5
:1052080004D103B0BDE83040FFF7D2BF144614F80C
:10521800085B854211D10B8A54789C4207D9012139
:105228000090074A074810F06DF903B030BD0846F2
:10523800536803B0BDE8304018472246DFE700BF97
:10524800D4CA0100ACAB010010B5012104460C30F2
:1052580013F086F92146BDE810400A23014A007878
:10526800FFF7CABFA4B5010070B5C5680121B5F83C
:105278000160304602F0E0FD044638B93346BDE827
:10528800704001210B4A0C4811F070B82B783BB9DB
:10529800D5F80330C0F8AD30D5F80730C0F8B130D4
:1052A800201D4FF4805111F056F82046BDE870409B
:1052B80011F0ACBB35CA0100ACAB010073B53D4879
:1052C80013F0DBF80446002871D0017E012945D08F
:1052D800032969D1038A032B02D8374A012141E007
:1052E80004210C3013F03CF9FF23428806886376CA
:1052F800238AC6F30B009A42608309D001210092E9
:105308002E482F4A10F0FEF8204608F01DF912E04A
:105318000F2102F091FD054610B9638B294ADDE79C
:1053280002F0C2FD21466076320B284602F042FBAD
:10533800284611F06BFB244BD3F84431002B36D0B0
:105348002249234814F019FE031E30DA0121214AAC
:105358001A4802B0BDE8704011F008B8038A012B62
:1053680004D81D4A154811F001F8CDE702210C3088
:1053780013F0F6F80546007810F0C0FF83070CD448
:1053880040F68D23154A164916480EF0EBFF4040AB
:1053980080F311884FF0030002DF06232146124AEA
:1053A8002878FFF729FFAFE70B46104A96E702B0C7
:1053B80070BD00BF44010020F6CA0100ACAB01007B
:1053C80017CB01003BCB010000000020B0020020F9
:1053D800E81000207BCA01005DCB010079CB0100F9
:1053E800ADCB0100DBCB010074B50100F8CB0100A7
:1053F8002DE9F04383B0064602AF907A88461446FA
:1054080007F0F8FF3D4D854219D0A47AE8462046BA
:1054180007F0F0FF8AB002AA394BC2E90740C2E997
:105428000536062355624FF44251364842F8103F7C
:1054380010F0AAFFC5460437BD46BDE8F0832046F4
:1054480007F0E0FF4FF00C092F4D09FB005043888F
:10545800B3420DD0204607F0D5FF09FB0050438822
:1054680002210093294A3346264810F04BF8E2E718
:10547800274ED6F8400120B108F066F80023C6F898
:105488004031204607F0BEFF0C2606FB005043685B
:10549800ABB1B8F1000F12D1204607F0B3FF0121DC
:1054A80006FB00504268D2E90003127A03F01F0697
:1054B800B1405B09DAB100EB830010F04CFF2046E5
:1054C80007F0A0FF0C2606FB00508368002BB2D023
:1054D800204607F097FF704305F80080204607F044
:1054E80091FF06FB0055A8680CF068FCA3E7C943C8
:1054F80000EB830010F04BFFE1E700BF100700202E
:105508000CCC0100ACAB0100E818002041CC010034
:105518000000002038B5042104460C3013F020F8B0
:105528004578017822464088FFF762FF25B1BDE83B
:10553800384002480CF042BC38BD00BF28010020AA
:1055480070B5032104460C3013F00AF840F63542D2
:105558000578B0F80100E36890421B7806D1BDE8F1
:1055680070400221074A084810F000BF2246194639
:10557800FFF73EFF25B1BDE8704004480CF01EBCA3
:1055880070BD00BF74CC0100ACAB01002801002045
:105598002DE9F84F0123D0F80C80018A98F80040D3
:1055A80000AF03EB84038B427CD96D468AB06A4610
:1055B800C2E9073105233E484FF42151C2E90504E9
:1055C8003C4842F8103F10F0DFFEAD46BD46BDE84E
:1055D800F88F5B460121384A364810F0C7FE01357E
:1055E80098F800309D42F1DA08EB8503B3F801B072
:1055F8000F215846B3F8036002F01EFC0446002849
:10560800E7D000F1280B16B34FF02003EFF3118217
:1056180083F31288BFF36F8FE3696BB1013BE361DA
:1056280082F31188BFF36F8F204602F089F9013E9B
:105638000CF0C4FBB6B2E6E7636963B982F311887C
:10564800BFF36F8F012152461A4810F082FE2046A0
:1056580011F0DCF9C3E7A16918688B42606108BFE3
:10566800A06182F31188BFF36F8F4FF02002EFF330
:10567800118182F31288BFF36F8FDA68E261C3F891
:105688000C90C3F80090626A4AB9C4E9083381F300
:105698001188BFF36F8F58460CF016FDC4E71360EE
:1056A8006362F4E70025DFF814A0A94698E700BF75
:1056B800AACC0100ACAB0100D4CC0100F0CC0100B5
:1056C80073B5C5680121B5F80160304602F0B4FB36
:1056D800044640B933460121284A294802B0BDE8AA
:1056E800704010F043BE2B78061D1A2B19D1C378D1
:1056F800012B2AD14FF48061304610F02CFE420570
:105708000FD4D4F8A03069460093D4F8A8302046C6
:10571800019303F003F8204602B0BDE8704011F091
:1057280075B92B788BB9B5F80330A4F89E30B5F865
:105738000530A4F8A430B5F80730A4F8A6306FF403
:105748008071304610F023FE14E0D6E8AF3FDB0549
:10575800F5D52B78202BF2D194F8AC30002BEED075
:10576800013B84F8AC304FF42032002304F1580098
:105778000CF050FD204602F0B9FBCCE735CA010019
:10578800ACAB010010B5C1E900239DF808300C4608
:105798000B7207F037FE0C22024B02FB00335C60F1
:1057A80010BD00BFE81800202DE9F0474FF0FF3288
:1057B8004FF0FF33064617480F4612F041FE4FF0F0
:1057C8000008044600F10C0A0121504612F094FE2C
:1057D800204684F8188007F015FE4FF00C090E4D8E
:1057E80009FB00504680204607F00CFE09FB0050DC
:1057F800C0F80880204607F005FE09FB0055032184
:105808005046C5F8048012F07BFE0680877020465B
:10581800BDE8F08710070020E81800202DE9F041C6
:10582800074616460C4688B021B9FFF7BDFF044667
:10583800002852D002AD01220021284614F0EDFACA
:10584800204607F0DFFD0C23DFF89C8003FB008077
:105858008560204612F02AFE0146244812F024FEF4
:105868004FF4A022284600230CF0CEFA054688B152
:1058780040F24B131E4A1F491F480EF073FD2A467B
:1058880039461E480EF06EFD404080F311884FF0F7
:10589800030002DF204607F0B5FD0C23584318F833
:1058A800005095B102213B46154A16480095093D1E
:1058B8000FF028FEEDB2204607F046FE092D0FD85E
:1058C800114B585708B0BDE8F08116B1346000207C
:1058D800F8E7204607F038FEF9E76FF06800F1E7CF
:1058E8006FF00400EEE700BFE81800204C0100202C
:1058F80079CB010007CD0100DBCB010010CD010001
:105908003CCD0100ACAB01000BD2010073B50646DB
:105918000D4642F22F00002101AAFFF77FFF04463F
:1059280038B10121084A094810F013FD204602B099
:1059380070BD0198C368B3F801203280B3F8033012
:105948002B8007F001FEF1E758CD0100ACAB010058
:10595800F7B5144B054693F99B300C46002B1DDA1E
:1059680014B9204603B0F0BD082C4FF0000142F2F4
:10597800180001AA264628BF0826FFF74FFF00286F
:10598800F0D1019F3246F9682846013114F0ACFE87
:10599800384607F0D9FD3544A41BE1E76FF08500D0
:1059A800E0E700BF000000202DE9F04788B0054679
:1059B8000026954BB0F80180198848F4704291424E
:1059C80002AF04BF1E80012600F0F0FF2C782CB334
:1059D8003C2C1CD101F0B6FA6FF08001103010F0A9
:1059E800D6FC0020FFF7C4FB054640B90121874AD1
:1059F800874810F0AEFC1837BD46BDE8F087047341
:105A0800002102F00DF9284611F000F8F3E72346CB
:105A18000221804A7E4810F0A9FCECE7EB7805F1FA
:105A28000409012B08BF7C4B484608BF93F86F4018
:105A380010F060FC494650B307F1100010F04FFC1D
:105A4800D5F81130C7F80930B5F81530A7F80D307A
:105A580001233B72EB78012B27D04846FEF7F4FF71
:105A68006C4688B002AA6D4B4FF4E251C2E905308A
:105A78004FF4007393836A4B654842F8103F10F067
:105A880083FC1321A546404610F099FCB3E7204655
:105A980010F0FFFD014607F1100010F069FC4946BF
:105AA80007F1080010F064FCD4E707F11000FFF7D5
:105AB8005FFBEB780446012B0AD101F043FA8246DA
:105AC8006FF08001103010F062FC504610F0FBFEC1
