:1080000048BF002059BA0000C5BE01002DBA0000CB
:108010002DBA00002DBA00002DBA00002DBA0000C4
:10802000000000000000000000000000F1B20000AD
:108030002DBA00000000000081B200002DBA00003F
:1080400085B3000085B3000085B3000085B3000050
:1080500085B3000085B3000085B3000085B3000040
:1080600085B3000085B3000085B3000085B3000030
:1080700085B3000085B3000085B3000085B3000020
:1080800085B3000085B3000085B3000085B3000010
:1080900085B3000085B3000085B3000085B3000000
:1080A00085B3000085B3000085B3000085B30000F0
:1080B00085B3000085B3000085B3000085B30000E0
:1080C00085B3000085B3000085B3000085B30000D0
:1080D00085B3000085B3000085B3000085B30000C0
:1080E00085B3000085B3000085B3000085B30000B0
:1080F00085B3000085B3000085B3000085B30000A0
:1081000085B3000085B3000085B3000085B300008F
:1081100085B3000085B3000085B3000085B300007F
:1081200085B3000085B3000085B3000085B300006F
:1081300085B3000085B3000085B3000085B300005F
:1081400085B3000085B3000085B3000085B300004F
:0481500085B30000F3
:04815400FFFFFFFF2B
:1081580053B94AB9002908BF00281CBF4FF0FF31A6
:108168004FF0FF3000F00CB8ADF1080C6DE904CE0B
:1081780000F008F8DDF804E0DDE9022304B07047F8
:10818800704700BF2DE9F04786468C460846089E92
:10819800154674461946002B40F0C1808542B2FA54
:1081A80082F245D94AB1C2F1200300FA02FC954097
:1081B80094402EFA03F343EA0C0C4FEA154EA8B28A
:1081C800230CBCFBFEF80EFB18CC08FB00F943EAB5
:1081D8000C43994528D9EB1808F1FF3704D2994583
:1081E80002D9A8F102072B44A3EB0903A4B2B3FBFD
:1081F800FEFC0EFB1C330CFB00F044EA0344A042D7
:1082080014D92C190CF1FF3304D2A04202D9ACF1D5
:1082180002032C44241A43EA07401EB1D440002329
:1082280034607360BDE8F0874746DDE76346F1E7F1
:1082380092BB431B01214FEA154EAFB2200CB3FB92
:10824800FEFC0EFB1C330CFB07F840EA0343984581
:1082580061D9EB180CF1FF3004D2984502D9ACF182
:1082680002002B44A3EB0803A4B2B3FBFEFC0EFBF5
:108278001C330CFB07F744EA0344A7424DD92C19D9
:108288000CF1FF3304D2A74202D9ACF102032C440B
:10829800E41B43EA0040C0E7C2F120039540944044
:1082A80020FA03F12EFA03F34FEA154E9040AFB2CD
:1082B8000343B1FBFEFC0EFB1C10190C0CFB07F86A
:1082C80041EA0041884522D969180CF1FF3004D2EF
:1082D800884502D9ACF102002944A1EB08019BB200
:1082E800B1FBFEFC0EFB1C110CFB07F743EA014334
:1082F8009F420ED9EB180CF1FF3104D29F4202D9EC
:10830800ACF102012B44DB1B41EA004193E76046D4
:10831800E3E76146F7E76046A4E76346B8E78342C8
:1083280006D916B9002108467CE7C6E900E0F9E756
:10833800B3FA83F78FB9834201D3724508D8BEEBED
:10834800020460EB030301209C461EB9002169E783
:108358003846FAE7C6E9004CF8E7C7F1200CBB40FD
:108368000EFA07F522FA0CF42EFA0CF1BA401C4367
:1083780020FA0CF3B8404FEA144901431FFA84FE6F
:10838800B3FBF9F809FB18300B0C08FB0EFA43EAAB
:1083980000439A4540D9E31808F1FF3004D29A45C2
:1083A80002D9A8F102002344A3EB0A0389B2B3FB64
:1083B800F9F809FB183308FB0EFE41EA03418E4524
:1083C8002CD9611808F1FF3304D28E4502D9A8F1DF
:1083D8000203214443EA0040A1EB0E01A0FB0298EE
:1083E8004145CE46434602D306D14D4504D2013815
:1083F800B9EB020E68EB0403002EA7D0B5EB0E0212
:1084080061EB030101FA0CFC22FA07F3F9404CEA8C
:108418000303C6E9003199E74046C5E74346D9E773
:1084280010F8012B11F8013B012A28BF9A42F7D016
:10843800D01A7047034611F8012B03F8012B002AC4
:10844800F9D17047034613F8012B002AFBD1181AFB
:108458000138704700000000F0B589B0684D00AFE2
:10846800D5F86431996811F001011DD140F6034037
:108478003A1D04F0BFFB0446002840F0BD807C682C
:10848800E3681B786BB905F0B1FF05F1D403D3E8B5
:10849800AF2F02F00902D3E8EF1FC3E8E02F00284E
:1084A800F9D120460CF006FC002141F203003A1DE8
:1084B80004F0A0FB0446002840F09E807B68514EE3
:1084C800DA68D2F80100D2F8051003C618460CF095
:1084D800F1FB214641F201003A1D04F08BFB0446F2
:1084E800002840F089807868C3685A7885F8702039
:1084F8005A88A5F872201A7985F87120B3F80720F0
:10850800A5F87420B3F80530A5F876300CF0D2FB46
:10851800214641F202003A1D04F06CFB0446002893
:108528006AD1D7F804C0DCF80C20531C4132344619
:1085380018685968083303C493422646F7D1604641
:108548000CF0B8FB06F054F90446002854D195F80D
:108558008A3099061CD42C4B4FF48451FB610223BA
:108568002A48BB6107F1180213F0C2FD95F87C3068
:108578005A064FD4264B4FF48251FB6102232348FD
:10858800BB6107F1180213F0B3FD6FF0120433E07A
:10859800072140F6334004F0F3FA0646002800F0BD
:1085A800468107210C3016F085F845230370062311
:1085B800C0F802408471447004712246C370314689
:1085C80040F6334004F016FB0446A8B9012140F6F2
:1085D800314004F0D5FA0646002800F02881012130
:1085E8000C3016F076F82246314640F6314004F059
:1085F80001FB04460028B9D020462437BD46F0BD0B
:108608000080002078800020F8270200A4090200DA
:1086180026280200002142F2030007F1080204F0B4
:10862800E9FA04460028E7D1BB68AB4EDA68D2F80D
:108638000100D2F8051003C618460CF03BFB214692
:1086480042F2020007F1080204F0D4FA04460028B6
:10865800D2D1BC68E368B3F8012091B249B1D978A6
:1086680039B1A5F80421DA78114606F1280017F087
:10867800C9F920460CF01EFB95F87C6016F0200620
:1086880018D1022140F66D4004F07AFA0446002819
:1086980000F0CD8002210C3016F00CF801232146A1
:1086A80003704670324640F66D4004F0A3FA044663
:1086B8000028A1D195F89C301B0713D5002142F260
:1086C8001C0007F1080204F095FA0446002893D12B
:1086D800B868C368D3F80120D3F80530C5E9382352
:1086E8000CF0E8FA95F8D8309E0622D5391DB81C4A
:1086F80004F002FB044600287FF47EAF042142F216
:10870800240004F03DFA0646002800F09080042179
:108718000C3015F0CFFF7B8822460380BB8831469A
:10872800438042F2240004F065FA044600287FF4EE
:1087380063AF95F8D8305C0611D5002142F22A00C3
:1087480007F1080204F056FA044600287FF454AFF3
:10875800B868C3685B7885F820310CF0ABFA08215B
:1087680042F2010004F00CFA044600285FD0082108
:108778000C3015F09FFF95F8D81040F2022311F045
:10878800400F08BF0323024688074CBF43F02C0064
:1087980043F00C008B0695F8D93048BF40F04000F4
:1087A80013F0090F95F8A23018BF40F4006003F0E9
:1087B8000603CE0748BF40F01000062B08BF40F460
:1087C800C070002113F09FFC2146002242F20100F4
:1087D80004F010FA044600287FF40EAF95F87C30B8
:1087E800B5F80411980625D4D1B941F2050007F16E
:1087F800080204F0FFF9044600287FF4FDAEB5F83E
:108808000431BC684BB9E368B3F80120A5F804212A
:108818009A883248114617F0F5F820460CF04AFAC3
:10882800082140F6014004F0ABF9044690B96FF016
:108838006804E1E60029F3D1294B4FF48251FB612A
:1088480002232848BB6107F1180213F051FC6FF0AE
:108858000404D1E608210C3015F02CFF95F8D83027
:108868000246D9072FD44FF000511F4813F04BFC94
:108878002146002240F6014004F0BCF904460028D5
:108888007FF4BAAE01463A1D4FF6014004F0B2F942
:1088980070B3164BFB6102234FF484511148BB613E
:1088A80007F1180213F024FC05F0F4FC0446002834
:1088B8007FF4A2AE07F01CF9044600287FF49CAEB2
:1088C80005F02EF898E602A1D1E90001CEE700BF35
:1088D8009088000200800020D880002008810020B5
:1088E8004A280200A4090200108800026D2802002C
:1088F8007B686D46DC688AB0B4F80130032B96BFFC
:10890800424A434952F823106A46D3614FF4007330
:1089180040481384404BC2E9050142F8103F4FF428
:1089280013513E4813F0E4FBB4F80120AD46022A87
:10893800B4F8033048D1032B46D8394A52F82310EB
:108948006D468AB06A46D3614FF400733548138484
:10895800314BC2E9050142F8103F4FF413512F483B
:1089680013F0C6FBAD466379A679032B98BF2E4A50
:10897800B4F80750D4F809006C468CB094BF52F88C
:10898800231023496A46C2E907364FF40073DFF81B
:108998009CC09385264BC2E905C1C2E909504FF432
:1089A800735142F8103F1D4813F0A2FBA5467868A2
:1089B8000CF080F900214FF602403A1D04F01AF934
:1089C800044618B11B4B65E71149B9E778681A4D99
:1089D800C368B3F80130A5F8C1300CF06BF995F80D
:1089E800C1305B077FF560AF21464FF603403A1D63
:1089F80004F000F908B1114B4CE77868C3685B785C
:108A080085F8C0300CF056F94EE700BF9C10020004
:108A1800482202009128020004000001A409020073
:108A28008C100200AA2802007C100200C228020052
:108A380007000001EF28020000800020182902002A
:108A48007FB51422002101A817F07AFD01238DF8C3
:108A58000430044B044901A8039305F009FE07B04C
:108A68005DF804FB60003000C18D00002DE9F04383
:108A7800054642780F4689B00178254811F0EAFC8E
:108A88002B78023B012B06D86C7814F0010439D0FE
:108A9800204811F0DFFC012031E06B6831461B5B98
:108AA80001A88DF80480ADF806308DF81080ADF877
:108AB800129013F070FA30B905F04EFE014638B145
:108AC800154811F0C7FC02346B789C42E5DBE2E7FD
:108AD800124C94E80F0086E80F002069616902AB28
:108AE80003C302AA314638460D4B06F0FBFD01468A
:108AF80020B10C4811F0AEFCFFF7A2FF002009B02E
:108B0800BDE8F083A04641F61C0904AEDCE700BFCF
:108B1800A8160200BE160200CC160200800A020047
:108B28000C970020EA160200022902D1034811F02E
:108B380091BC01290CBF02480248F8E70D17020052
:108B4800331702005B1702002DE9F0410D461E465F
:108B5800144632B90E4811F07DFC2046AC81BDE8C0
:108B6800F0810C4811F076FC00250B4FDFF82C80C3
:108B7800B54204DB0A4811F06DFC0120EFE7615DA6
:108B8800404607F8011B11F065FC0135F0E700BF0E
:108B980096170200A6170200A89B0020B71702002C
:108BA800624002002DE9F0411D460C46BDF81870E0
:108BB80051B90B4811F04EFC0A4EDFF82C80BC422C
:108BC80005DB0A4811F046FC0020BDE8F081295D6C
:108BD800404606F8011B11F03DFC0134EFE700BFE9
:108BE800BB170200A89B002000240200624002007C
:108BF800F0B5064614460D4685B051B9344811F013
:108C080029FC14222946204617F09AFC002005B0BA
:108C1800F0BD098A2F4811F01DFC002741F61C03FE
:108C28002D4C01A92068ADF806308DF8047013F0BA
:108C3800B2F942F65723B8B9ADF80E308DF80C00EA
:108C4800264B039A23601A602B8A0133238103235E
:108C580023742146304609F0B3F901460028D5D0DF
:108C68001F4811F0F7FBD1E7206802A98DF80870BA
:108C7800ADF80A3013F08FF91A4F98B942F602137B
:108C88008DF80C00ADF80E30039A144B28461A6084
:108C980023602B8A023323810423237414F0A5FE56
:108CA800B881D6E7104B39463B6002233B822B8ABA
:108CB8003046FB8109F032FE014620B110F1780FF1
:108CC80001D00A48CDE70A4811F0C4FB9EE700BF6F
:108CD800CA170200DD170200F8960020789B0020D2
:108CE800F4170200DC960020518B00000E180200D9
:108CF8002918020070B503788AB004460E4607ADFD
:108D0800032B20D8DFE803F002191B1D1149284660
:108D1800FFF790FB059563781E210493A3783046EE
:108D28000393E3780C4A02932379019363790093C0
:108D3800A37910F01DF90AB070BD0849E7E70849A2
:108D4800E5E70849E3E70A212846074A10F010F941
:108D5800E0E700BF37180200591802003E18020069
:108D6800451802004F180200183A020030B50D46A7
:108D7800044689B013F00AFD6946FFF7BBFF2A468F
:108D88000A4D0B48694611F065FB2868A0420AD1D4
:108D980013F023FC00232B60FFF752FE014610B1AD
:108DA800044811F057FB09B030BD00BF0C970020F4
:108DB8007C1802009E180200F0B511F1270F074633
:108DC8000E4615461C468BB010DB02A9FFF792FF32
:108DD80000962A46A388064802A911F03BFB012DFC
:108DE80004D83A462046034903F01AFA0BB0F0BDFE
:108DF800C1180200758A000070B50C468AB0054695
:108E080013F0C4FC02A9FFF775FF1A4E6CB1224695
:108E1800194802A911F01EFB306813F0DEFB00238D
:108E28003360FFF70DFE0AB070BD144802A911F0B7
:108E380011FB3068124BA8421D60F4D141F61C03A7
:108E48008DF80440ADF806300E490F4B019A0B60BF
:108E58001A600E4B0C744B6001230B814FF6FF73A5
:108E6800CB8109F0ADF801460028DCD0084811F0A4
:108E7800F1FAD8E70C970020F8180200161902003A
:108E8800C8960020F8960020789B0020F98B0000F7
:108E98002519020037B5002004F0ECFD014628B181
:108EA8001B4811F0D7FA002003B030BD194811F063
:108EB800D1FAFFF7C5FD014608B11748F1E7174891
:108EC80011F0C8FA164D174C2868C8B113F04EFBBC
:108ED800154A0023226001226260144A8DF804308A
:108EE800928963810F4901AB28682281E36009F008
:108EF80049FC58B90E4811F0ADFA286813F06DFB1B
:108F080000214FF420300FF0F5FCDDE70948F2E7C7
:108F18003E1902005E1902009E180200751902002F
:108F2800C8960020CC960020AD8B0000DC9600206F
:108F380094190200A51902002DE9F04F91B0009391
:108F480002F004030293C2F3C20301338407054607
:108F58000E46DDF868900392059340F0BB81041D2E
:108F680030B1072909D86FF01B0011B0BDE8F08FA8
:108F780001F00706341DC6F10806009B4FF00008F3
:108F88004FF0040A591E4FF0FF3347460193C3467A
:108F98005346CDF810800DB1009A2260059800283C
:108FA80000F3E8809848009A824203D397488242A7
:108FB800C0F0E080039AA4EB050E92074FEA9E00EA
:108FC80000F103810F2F00F2B180002D00F0058120
:108FD80007F140020DEB020C019A0CF8200C0CF87A
:108FE800102C049801300490E7E07A285DD84B28CB
:108FF8000ED8472859D829282DD8252852D054D8F2
:1090080020287AD02338D0F1000B4BEB000B74E00A
:109018004C382E2849D8DFE800F0704848484848BE
:109028004848484848484B484848484848484859A4
:10903800484B4B595959704B6D487048184B184854
:1090480048827F4B48484B487F0000204FF0000B78
:109058004FF0040A38E001222A38C0B202FA00F0C0
:1090680010EA0E0F49D110F0625C2FD110EA020B02
:1090780043D06046013C5444B4FBFAF40AFB04F4C0
:10908800002D61D0A3EB050CA4446645FFF46BAF3B
:10909800002868D1042B47D159F8043B23600423E6
:1090A80004342AE0019A013A01924FF0000B24E0BF
:1090B80011F8010C6C2834D1002011F8023C8346C9
:1090C8006C2BC5D14FF0080A5346D3E709F10709BD
:1090D80029F00709073424F00704F9E802AB35B191
:1090E80006982044B0423FF63EAFC4E900AB4FF0CB
:1090F800000B08344FF0080A534611F8010F0028F6
:1091080078D0BBF1000F7FF470AF2528F5D14FF070
:10911800010B019B013301934FF0040AECE7584619
:1091280094E700208346A5E7082B02D06FF01500CE
:109138001BE709F1070929F00709F9E80223C4E93F
:10914800002308230834D8E768B9042B02D109F1B1
:109158000409A4E7082BE9D109F1070929F007094F
:1091680009F10809EDE7059A013A059259F8042B27
:10917800009210E7039A900720D54FF0010CA4EB5A
:10918800050E4FEA9E00BEF5007FCFD20F2FCDD837
:10919800F5B107F140020DEB020E019AC0B20EF8CC
:1091A800200C0EF8102CBCF1000F3FF41AAF60F041
:1091B8007F000EF8200C08F101080137C5F10802FC
:1091C8004FF6DA7E0434069297E74FF0000CDAE7A0
:1091D800BCF1000F01D00136EFE7029802360028F3
:1091E800EBD10098CDE90631FFF72CF9DDE906311E
:1091F8000644E2E7631BB3F5806F97D245B9A6F141
:109208000804E018B1E600BF7C05020074420200C1
:10921800029A9B0828602B709DF81030C2B1EB7041
:1092280085F80280B8F1000F05D0002208A8C5F122
:10923800010C97420ED14FF0000AC5F101030DF160
:10924800200901930DF1300B574512D1601B8CE6B4
:109258006B70E5E710F8013B190608D504EB0C0E16
:10926800764503F07F03FFF47EAE04F8013B01323C
:10927800DFE7B8F1000F03D099F90020002A17DBC7
:10928800029BD3B11AF80B2004F8012B0022019B92
:10929800981820448642FFF466AE99F800000099B9
:1092A80004F8010B2046039217F03DF9039A144481
:1092B8000AF1010A09F10109C6E799F8002055F8F1
:1092C80022300093029B009845F82230FFF7BAF845
:1092D800421CDCE76FF00D0047E600BF2DE9F04FB8
:1092E80095B000AFBB61BB6F0446C3F3C0038A46A9
:1092F80090F802B07A623B6141B9457800780BEB8F
:1093080080002044554517D8A0EB040AE3787B6118
:10931800BBF1000F02D0BB6FD80716D47B6953BBD3
:109328007B6A1BB151462046BA699847554628467C
:109338005437BD46BDE8F08F461C3046FFF782F82B
:10934800013030440AF1010ADCE7237862683B62A5
:109358009B00FB603B6AFA6104EB83097B6A002B84
:1093680040F0FF80C8460026554609EB0B0AD04559
:1093780051D1D94413E0BB6F9907D1D523789946C9
:109388003B629B00FB60636804EB8909FB617B6AB5
:10939800002B7AD15546BBF1000F4FD15E46BB6F0B
:1093A80013F0050F0CBF4FF0020B4FF0010B7B6958
:1093B80009EB430ABB6F03F002037B62D145B6D0C9
:1093C80019F8021B19F8013C54F82380AB4B984557
:1093D80002D3AB4B984538D33B69002B42D0F86990
:1093E80011F00FF800283DD0E8468AB06A46A54B30
:1093F8005361FB69C2E906314FF400731384A24B31
:1094080042F8103F00234FF41251A04801F0AAF986
:10941800023DC546D2E718F8013B54F82300FFF790
:1094280011F8FB6F01303BB1D7F880309E423EBF48
:10943800FB6F23F816000136054498E7BB6F13F05D
:1094480004061CBF7E6AD944A9E73B6923B1F869C1
:1094580010F0D7FF0028C7D1BB6FDA0705D4A5EBFA
:109468000B05ABE77B6A002BA8D04046FEF7EAFF66
:10947800FB6F43B1D7F880309E423FBFFA6F431C61
:1094880022F816300136054498E7BBF1000F6ED07C
:10949800BB6F13F004066DD0D846002607F14000D4
:1094A8005A46494617F03FF87B69D9445B007B6010
:1094B8007B6909EB4303BB60BB6F03F002033B60AE
:1094C800BB684B4558D1B96F6378B86F890748BFF7
:1094D800002106EB030258BF4FEA5801C507D2B274
:1094E80000F19A8010F0040F14BF40460020FB6181
:1094F8006270A070E1702046BA69F9687B6A984783
:10950800051EFFF614AF3B6A41462370FB69BA6932
:1095180063707B6984F802B0E37007F140007B6AEE
:109528009847B0F10008C0F2A480FB68AAEB0B01D1
:10953800C91A7B684846C91ABA697B6A98470028DD
:10954800C0F299804FF0000BA84408EB000507F122
:10955800300AB34562D30021BA6908467B6A984746
:10956800E5E65E464FF0000807F1300098E75E46F2
:10957800D84699E7B04697E719F8021B3F4B19F808
:10958800015C54F82500984202D33D4B98421DD304
:109598003B6923B1F86910F034FF002890D13B688B
:1095A800FBB908F1280307F1280208F1010003EBD1
:1095B800020C07F1500308F1020853FA80F00CF886
:1095C800101C5FFA88F800F8105C79E73B692BB14A
:1095D800F86910F016FF00287FF472AFBB6FDB0745
:1095E80009D506F1280307F12802711C9E1806F810
:1095F800205CCEB264E7BB6F58077FF561AF08F116
:10960800280307F1280208F1010103EB020808F812
:10961800105C5FFA81F853E7002068E71BF80A300E
:1096280054F8239087F82F30FB6FFBB133F81B8079
:109638000121BA697B6A07F12F00984700281ADBD5
:109648000544B8F1000F06D14846FEF7FBFE00F1CD
:1096580001081FFA88F841464846BA697B6A984764
:10966800002808DB05440BF1010B72E7D7F87C8072
:10967800DEE745465BE6054659E600BF7C05020085
:1096880074420200B219020004000001EC09020051
:10969800014B1860704700BF9481002080B50546D3
:1096A8000E46174698460FF03FF9034616F058FF46
:1096B8000446DFF81890424649F8003039463046EB
:1096C800A84754F8090002F03DFA00BF080000005E
:1096D8002DE9F047058B04462807904611D4022946
:1096E80005F0070540F0CD80204611F06DF978B1FE
:1096F8000138218B042811D8DFE800F0C3106D85EC
:10970800950001290CBF45F0100545F0200525837B
:1097180088F31188BFF36F8FBDE8F08701F0070A5F
:10972800AA4500F0A6800027B9463E46A368002B4C
:1097380000F0BD8041F00801218388F31188BFF350
:109748006F8FA168002900F0BB800D68002900F028
:10975800B780334652462046D1F80480C047002DD2
:1097680076D02B6829461D46F0E701F007035A1FFB
:10977800012A1BD8002221F00701062B276889B28D
:10978800C4E9002209D13B4603E0628B01326283BF
:109798001B68002BF9D141F002012046218311F00A
:1097A80013F900287BD041F0200177E0042B0AD17F
:1097B80021F0070189B22046218311F005F910B183
:1097C80041F020012183218B01F0070AAA4550D0DE
:1097D8000027B946AAE7236921F0070141F00601ED
:1097E800062DD3F8009021832DD1B9F1000F40D078
:1097F80041F00801218388F31188BFF36F8F204659
:109808003949C84729E021F00701236941F00401DB
:1098180089B2042DD3F804902183E6D000274FF0B5
:10982800040A3E4682E721F00701236941F0050159
:1098380089B2052DD3F808902183D6D000274FF0A0
:10984800050A3E4672E700274FF0060A3E466DE7D6
:109858002B4687E7B9F1000FD1D14FF02003EFF382
:10986800118883F31288BFF36F8F238B23F00803CB
:109878002383258BEA062ED525F01003238305F0D4
:1098880007056669218B002EBFF66FAF0023276896
:10989800C4E9003321F0070141F001012183218B44
:1098A8004FF0000901F0070AAA457FF43FAF002FE7
:1098B8009BD041F00801218388F31188BFF36F8F93
:1098C800002FC7D03D68394633465246204611F02E
:1098D800A7F82F46F4E7AB067FF51AAF25F020036B
:1098E800238305F00705FFE655AA010007B50DF12A
:1098F800070015F03BF9114B98421CD14FF48062D8
:109908000F4B1049C3F8B8254FF40062C3F83C2543
:109918009DF8070015F016F90B499DF8070015F09A
:109928000CF901209DF8073098400CF079FD0020D3
:1099380003B05DF804FB6FF00B00F9E70000AD0B16
:1099480000A002402CA0024028A10240052370B5C7
:10995800144D154E2C780134B4FBF3F303EB830359
:10996800E41A15F0C5F8114A137823B156F82430D3
:10997800C01A072813D90E4BD3F8141141B100218E
:10998800C3F81411D3F814312C700CB901231370D7
:109998002C7815F0ADF846F82400012070BD0020A1
:1099A800FCE700BFAA9B002010970020A99B00207D
:1099B8000050004048B1054B054A1B68B3FBF2F361
:1099C8005843044B43F0010318477047EC820020CA
:1099D80040420F00500B020070B5049CC4F30726E8
:1099E80030460CF039FAE5B20146284615F0B6F8CB
:1099F80000220120074BA40B04F0FC041A51A840D4
:109A08000CF014FD30460CF0DBFB2846BDE8704036
:109A18000CF09ABE80A00240F0B583B000AF381DAC
:109A28000CF08CFE284B98424BD10CF0ABFB041E7B
:109A380013DA38790CF088FE6D4688B06A46234BF5
:109A4800C2E90534032342F8103F00234FF4C25102
:109A58001F4800F087FEAD462FE040F607031D4D76
:109A68007C71AE68FB8074687B6814B96FF057042A
:109A7800E2E708212846184AA047041EDCDB3369C0
:109A8800002BF3D00122082128469847041ED3DB77
:109A980001203B7998400CF0C3FC78793D79FE7938
:109AA80015F011F80146284615F04CF80B4BB60096
:109AB80045F000459D51002CBED120460C37BD46CF
:109AC800F0BD6FF01204B7E70000AD0B6A1A020090
:109AD8005C0A0200B4060200E99A000080A1024074
:109AE8002DE9F341144683681B690BB1002298479E
:109AF800C4F3072630460CF0B7F90546304614F093
:109B0800E2FF4FF00008E7B20146384615F02AF8A0
:109B1800104B220E920043F8028030460CF09CF95C
:109B28000D4A4FEA943C0CF0FC0C47F0004342F815
:109B38000C300146384615F000F8084B05F13202A2
:109B48000093304643460194520014F0C5FF02B01A
:109B5800BDE8F08180A1024080A00240E1990000A8
:109B680014F0E7BF7FB570B9124B13480593022371
:109B78004FF4825104AA049311F098FA6FF015007B
:109B880007B05DF804FB836863B90C4B0A4805937A
:109B980002234FF4825104AA049311F087FA6FF05C
:109BA8000400EDE71B681BB107B05DF804EB18472C
:109BB8001846E5E79B1A0200040A0200AC1A0200E4
:109BC80030B587B008B101B16AB9134B1348059392
:109BD80002234FF4825104AA049311F067FA6FF03C
:109BE800150007B030BD84680CB1E56865B90C4B49
:109BF8000A48059302234FF4825104AA049311F0F2
:109C080055FA6FF00400ECE741F8040BE36807B07D
:109C1800BDE83040184700BFCA1A0200040A020013
:109C2800AC1A020030B51346044687B068B91A4B1F
:109C38001A48059302234FF4825104AA049311F0A1
:109C480035FA6FF0150007B030BD006860B9144BE5
:109C58001248059302234FF4825104AA049311F089
:109C680025FA6FF00100EEE782680AB1956865B9D8
:109C78000C4B0A48059302234FF4825104AA04931B
:109C880011F014FA6FF00400DDE70A46AC4661688B
:109C980007B0BDE830406047F61A0200040A020027
:109CA800071B0200AC1A02000020014B1860704725
:109CB8000000072030B50C460E4985B00291D0F857
:109CC800AC110546CDE9003100F1E0014FF0FF335A
:109CD80020460DF05FFB50B9012384F86430D5F8B5
:109CE800A83123B1204605B0BDE83040184705B07B
:109CF80030BD00BFABB1010038B50C461146054672
:109D080011F051FA034638B92846044911F04BFAC4
:109D180003460020236038BD0120FBE763400200B2
:109D28002DE9F04F012381460569466885B005F5A0
:109D38005B77D7E8EF2F002A03D1C7E8E13F002976
:109D4800F7D10CBF1A46002240F0B180B368B16A5F
:109D580005F5E4781C1F104611F0AAFA84425FD872
:109D6800013A00F09E80B2FA82F24FF00044D440EB
:109D780072682046073222F00302C5F86022B16AF1
:109D880011F096FAC5F86402B36A40466343033398
:109D980023F0030302EB4302230103EB44030933DB
:109DA80023F0030303EBC403C5F858221A4408320E
:109DB800C5F854227368C5F85C42C5F850323D4B6B
:109DC800C5E9A963316800F0BDF9044630BBD9F88C
:109DD80004A0D9F81090DAE9073409F5307B012B93
:109DE800584608BF103C15F0CEFE0023DAF82400D0
:109DF80031494FF4806201EB802100935846234695
:109E08000EF0DCF909F52C702C4915F07EFEDAF815
:109E1800140083685C682CB96FF05704002139E09E
:109E2800013298E74B46264ADAF81810A04704464C
:109E38000028F3D1DAF8140083681B69002BEBD0F3
:109E48000122DAF81810984704460028E6D11D4B7D
:109E58002846C5F8A8311C4BC5F8AC311B4B0393F9
:109E6800D5F810320293D5F80832CDE90083D5F839
:109E78006832B26AD5F8681300F02CF90446002855
:109E8800CCD105F1E0000DF033FB0028C5F87003D4
:109E98000ADB0221384611F0BBF9204605B0BDE8BF
:109EA800F08F6FF00B04B9E76FF01504B6E76FF0A9
:109EB8007704F2E701B20100989C0020E7B10100A5
:109EC800DBB10100D99E00008FB3010049B2010047
:109ED80013B5044640B100230122CDE90032074BF7
:109EE800D0E909120DF00AFAA36E1B6823B1E06EDF
:109EF80002B0BDE81040184702B010BD6340020030
:109F080013B504460846216901F55B71D1E8AF1F16
:109F1800022910D193B1A0B10121CDE90031134636
:109F2800D0E909120DF0EAF9074B984208BF6FF023
:109F38000B0002B010BD6FF00F00FAE76FF04C0095
:109F4800F7E76FF00100F4E72EF8FFFF2DE9F7437C
:109F580088461546066906F55B73D3E8AF3F022BC2
:109F68005FD1136823B96FF0150003B0BDE8F08323
:109F78001B78002BF7D0D6F86893B9F1000F33D1CE
:109F880006F5D8774FF0FF324FF0FF3338460DF023
:109F9800A9FE30462A6801A9FFF7AEFE019C1CB94C
:109FA800384611F033F9DEE705F10803A3666B695B
:109FB80084F86490E366E46360B1384611F026F9EA
:109FC80021463046236E2A68FFF774FE0020C8F841
:109FD8000040CAE72022296804F1400016F069F918
:109FE800384611F013F9F1E730460F4911F0DBF864
:109FF80004460028B7D005F1080383666B69C0637F
:10A00800C366002380F8643020222968403016F0A7
:10A0180050F922460121304600F03EF80028D5D0FC
:10A02800A1E76FF00F00A0E7634002002DE9F04FB1
:10A0380005460E4690460027D0F8B0A085B0AAF590
:10A04800AE7421463046FEF7EBF9E0B9114BA4F1A6
:10A05800400B0293DAF810303246CDE900832946E6
:10A068004FF0FF335846AAF5CE790DF093F960B951
:10A078007023012203FB079383F86420DAF80C307D
:10A088000BB158469847703417B105B0BDE8F08F4A
:10A098000127D6E7F1B301001FB5144690B18AB184
:10A0A800012912D10A4B00F1E0010293D0F8AC313A
:10A0B800403201934FF0FF33204600930DF06AF9C8
:10A0C80004B010BD6FF01500FAE70020F8E700BFF4
:10A0D800F1B301002DE9F04387B00E46DDE90E81AA
:10A0E8001446DDE910251F4630B329B3DFF850C008
:10A0F80000F1E009002D08BF65469EB9CDE903448B
:10A1080000F5CE742046059615F0F0FA03ABCDE9BC
:10A1180000432A463B46414648460DF00FFA07B031
:10A12800BDE8F083002241460E9248462A4607B011
:10A13800BDE8F0430DF02CBB6FF01500EFE700BF52
:10A1480035A00000F0B50E46044689B000286FD04F
:10A1580001230246C3630023D0F89810364F4030DD
:10A1680040F80C7C42F8301FCDE901334FF0FF3343
:10A178000093C36D14F07AFD304A06AB92E80300F1
:10A1880083E8030018460CF0CBFF0546D8B904F164
:10A1980034000CF0A7FF0546A8B93946284805AA97
:10A1A80014F040FD054670B9059B9A6872B10C33EE
:10A1B800D4F89400C4F8A03011F047F9C4F8D400DA
:10A1C80030B96FF00B05284609B0F0BD0346EFE73C
:10A1D800D4F8940011F039F9C4F8D8000028F0D068
:10A1E800D4F88C30D4F8A010C4F8A8300423C4F8EC
:10A1F800AC30C4F8C4300223A362124BB4F89420E4
:10A20800D4F8D470C4F8B810C4F8D010D4F89010AA
:10A21800236204F1A403A4F8B020C4F8A470C4F81D
:10A22800C010A4F8C820C4F8BC00A661E362CAE75D
:10A238006FF01505C7E700BF311B0200980A02003E
:10A248003B1B0200640E02002DE9F0470446074656
:10A258004FF00109DFF8508014B93846BDE8F0879F
:10A2680094FAA4F5B5FA85F509FA05F32E0108EB79
:10A2780005156FEA030A24EA03042B7B002BEBD0B5
:10A2880058F806301B694BB94644736804222846BF
:10A29800196807EA0A0700F051FADDE728469847E7
:10A2A8000028D9D1F0E700BF6C0A020030B50022BF
:10A2B80089B00F490F4815F03FFE00220023002403
:10A2C800CDE906230E230C4DCDE903344FF440723B
:10A2D8002846CDE90144094B094900940DF07AFC60
:10A2E8000849284615F0D5FA204609B030BD00BF08
:10A2F80011A30000A08E0020108A0020E9A500000C
:10A3080098A00020431B020001480DF0D5BD00BFF6
:10A31800008500202DE9F04780461F480F4611F0C0
:10A32800E6F80646002830D000252846BDE8F08724
:10A33800237B73B12368DB680BB1204698472368F9
:10A348001B69D3B9636804222046196800F0F6F93E
:10A35800013610344C45EBD3B8F1000FE5D0002D91
:10A36800E2D02846FFF770FF0546002FF7D00021FE
:10A378004FF4A4700EF0BEFAF1E720469847002883
:10A38800E0D00AFA06F31D43E2E705464FF0010A5A
:10A39800024CDFF80C90DDE7349700206C0A0200CD
:10A3A8007C0A0200014B53F820007047A40E0200FB
:10A3B80008B5034608462BB1044A136000F074FC44
:10A3C800002008BD6FF01500FBE700BFC481002026
:10A3D80010B5044C237813B903480DF06DFD012323
:10A3E800237010BDAB9B00200085002010B50446EB
:10A3F800064811F07CF83CB1054BD3E8EF1F013952
:10A40800C3E8E21F002AF8D110BD00BF2C97002036
:10A418003097002000200146034BD3E8EF0FC3E834
:10A42800E21F002AF9D170472C97002070B5FFF77A
:10A43800F1FF0546074C084EB44200D370BD63686F
:10A448005B792BB123685B6813B12946204698478E
:10A458001034F1E76C0A02007C0A020010B5044CC3
:10A468000449204610F0A1FC034B1C6010BD00BF3E
:10A4780028840020900E02002497002008B50023AD
:10A48800074A4FF400411370064A07481360074A09
:10A498001360FFF78DFFBDE80840FFF7DFBF00BF7F
:10A4A800AC9B00202C970020F3B4010030970020CB
:10A4B800014600220023014810F098BC288400209F
:10A4C800014810F031BD00BF28840020024B01462E
:10A4D800186810F07BBD00BF24970020014810F0D9
:10A4E800B1BD00BF2884002070B5264B187800281D
:10A4F80047D0FFF7E5FF054670B1234BD3E8EF1FC0
:10A508000139C3E8E21F002AF8D1204C204EB4429A
:10A518002DD32846FFF7DAFF1E4B1F4C1B68002B74
:10A5280019DD15F0C2FC4FF47A72A0FB020302FB9E
:10A538000131C30B43EA4143D4E900209B1A40F29E
:10A54800E9324FEAD13161EB0001934271F1000128
:10A5580001D3FFF76BFFD4E9003213F57A7342F1A8
:10A568000002C4E90032BDE87040FFF7B7BF636876
:10A578005B7923B12368294620461B689847103425
:10A58800C5E770BDAB9B0020309700206C0A020025
:10A598007C0A02002C970020988E002070B50D4D83
:10A5A800297861B90120FFF7B5FE0B4C0B4EB44278
:10A5B80006D3FFF799FF0028FBD101232B7070BD4C
:10A5C80063685B791BB1236820469B689847103401
:10A5D800EDE700BFAC9B00206C0A02007C0A020079
:10A5E80000212DE9F0470846FFF794FE044658B3CA
:10A5F80040F267684FF0000915F0B2FF1B4B1C4A88
:10A608001B58136033B11B4B1B68092B02DD1A481A
:10A618000DF052FC0025194FDFF85CA044B120462C
:10A62800FFF712FE044618B94FF0FF384FF0FF3914
:10A63800FFF75AFF064628B9B5B942464B46504679
:10A648000DF060FC3546E9E74FF0FF384FF0FF3971
:10A65800D2E72B689B691BB1002228461146984710
:10A668001035BD42F5D3E8E7054DFAE708000000CC
:10A678002897002030970020008500207C0A0200DF
:10A688006C0A020013B5184810F031FF174B1B78FD
:10A698007BB14FF02003EFF3118483F31288BFF3EB
:10A6A8006F8FFFF721FF84F31188BFF36F8F02B01C
:10A6B80010BD0F4B1B68002BF9D050B900220023A6
:10A6C8000C48CDE900234FF4004200230EF070FB44
:10A6D800EDE70928EBD1074815F03AFC064802B027
:10A6E800BDE810400DF0E8BB30970020AC9B00207F
:10A6F80028970020A08E00200085002010B5064B6A
:10A7080004461B6898472146A060044810F0ECFBFB
:10A71800BDE81040FFF7B6BFC481002028840020A0
:10A72800044A054B9B1AB1EBD30F34BF52F83100E2
:10A73800002070475C0902006C0A0200084B10B444
:10A74800C31A44681B110133237143689A710122AB
:10A758004368196043685A7110BCFFF739BE00BFDF
:10A768006C0A02002DE9F04F8FB0C1F34A2804AFFC
:10A778000D469146B8607B600C0DB8F1000F63D0B0
:10A7880000264FF0040B4FF00A0A07F11403C7F82C
:10A798000C80C7E907667E620193CDF808B0CDF852
:10A7A80000A007F11C0332464846F968FEF796FDFB
:10A7B800B0F5006F03461CD36C468AB0D9F8041074
:10A7C80004AB26481A46C3E9050140F2FF71D96176
:10A7D8004FF400711984224B42F8103F4FF4125184
:10A7E80033462048FFF7BEFFA5462C37BD46BDE8D7
:10A7F800F08FC0F30A0804F11700184420F007008E
:10A8080080083B60FFF754FE68F35325044690B177
:10A818003B6800F11001C7E9083607F11403F96134
:10A82800CDE900A3CDF808B048460F4AF96807F10A
:10A838001C03FEF753FD68F353252A4620467B6820
:10A84800B96810F086FED0E704F1170020F0070081
:10A858008008FFF72DFE0446EDE700BF581B0200F5
:10A86800040000010C0A02002FB501002DE9F04F89
:10A8780087B00446DDE9105ADDE912690F469346B0
:10A888009846A6B31021334652460020CDF80090D2
:10A89800CDF81490FEF750FB014605F11700084467
:10A8A800144B04F007040BF0070BE40020F007003A
:10A8B80003EA412344EA8B1480081C430391FFF701
:10A8C800F7FD44EA0554054640B13EB133465246C9
:10A8D8000399CDF800901030FEF72EFB4346224630
:10A8E8003946284607B0BDE8F04F10F032BE314671
:10A8F800D3E700BF00FE0F000EB403B503AB53F857
:10A90800042B01460448019301F004FB02B05DF8F2
:10A9180004EB03B0704700BFC1B50100CA0605D4F7
:10A928008B064CBF02490349FFF7E6BF704700BFDB
:10A9380062400200614002002DE9F04F89B09A465A
:10A94800DDE914739DF84CB00593169B04460D463B
:10A95800179E06920493BBF1000F00F0858006F065
:10A968000803079310F0DDFD06F0020902460028EF
:10A9780049D020468549FFF7BFFF8046B9F1000F4F
:10A9880008D016F0440F40D12A4620468049FFF7E8
:10A99800B3FF804406F0010353B17E4B204653F8C1
:10A9A8002B207D4B7D49002A08BF1A46FFF7A4FFDC
:10A9B80006F00803002B54D0794B204653F82B207F
:10A9C8007849FFF799FF0546069B2BB11A462046A2
:10A9D8007549FFF791FF0544BAF1000F05D05246BB
:10A9E80020467249FFF788FF05444544002F49D1A6
:10A9F800049B002B4FD1F30700F1C180314620465C
:10AA0800FFF78CFFB5E08046B8E7694B1868002867
:10AA1800BFD0684B4FF47A791B684FF46161B5FB7E
:10AA2800F3F5B5FBF0F300FB135509FB05F5B3FB94
:10AA3800F1F2B5FBF0FE4FF03C0C01FB123100FBCC
:10AA48001E55B1FBFCF309FB05F5B5FBF0F50CFB56
:10AA5800131120460091CDE901E55749FFF74CFF56
:10AA680097E706F00805AFE7BAF1010F06D1002F06
:10AA780065D1049B002B7CD000250CE0002FF8D07A
:10AA88004E485DE04E483B4622464E490FF088FC52
:10AA9800049B002B69D0DFF83081DFF83091049FE8
:10AAA8003146102F204628BF10274FF0000AFFF725
:10AAB80035FF554546DC059B494620461A78FFF781
:10AAC8001BFF4FF0010A1AF0070F03D14146204639
:10AAD800FFF712FF57453CD9059B4946204613F816
:10AAE8000A20FFF709FF0AF1010ABAF1100FEAD1AB
:10AAF8004FF0000A20463649FFF7FEFE5246059BF6
:10AB080020469A5C334B995C11F0970F08BF2E22B0
:10AB18003149FFF7F1FE0AF1010ABAF1100F1DD011
:10AB28001AF0070F03D141462046FFF7E5FE5745C7
:10AB38005246E4D841462046FFF7DEFEEBE72048C0
:10AB48005D46A0E741462046FFF7D6FE0AF1010A16
:10AB5800AFE720462149FFF7CFFEC4E7059B3B44FA
:10AB68000593049BDB1B049399D1BBF1000F7FF481
:10AB780042AF204609B0BDE8F04F10F010BD2046A6
:10AB8800054A0649FFF7B8FE38E700BF9C1B0200DC
:10AB9800A01B0200B40E0200971B020090270200BF
:10ABA800C80E0200C51B0200CB1B0200CF1B02000F
:10ABB8003C97002038970020A91B0200EFB5010040
:10ABC800C1B501001DBF00002D400200D41B0200CA
:10ABD800DA1B020066410200DC1B02002B40020067
:10ABE8002DE9F0410F884B6805460C4690468E6863
:10ABF80086B0C7F382175BB1144A9B1A43F3CF019F
:10AC0800002920DB2078C0F3C200FFF789FD034646
:10AC1800214651F8102B6088C2F34A22002A01EB22
:10AC2800020408BF00210022C0F30B10CDE904087C
:10AC3800CDE902142846314601970092FFF77CFEC1
:10AC480006B0BDE8F0810023E2E700BF5C0902001E
:10AC580042F20F7373B58B4228BF0B460568044652
:10AC6800052168460D4A0EF083F9064663682846B2
:10AC78000B225B680A4910F085FC63683246694616
:10AC880028465B6810F07EFC63681B2228465B68D8
:10AC9800044910F077FC02B070BD00BF0024020028
:10ACA800FB1B0200DF1B020000210123064A904221
:10ACB80006D8064A01B901231360054B186070478E
:10ACC800012140085B00F2E740420F00389700205E
:10ACD8003C970020014B00201960704754970020D2
:10ACE8000122024B02481A7010F059BCAE9B00209A
:10ACF800F80E02000148FFF7ABBF00BFF80E0200D4
:10AD080010B5064B0C461868FFF74CFB2146BDE80A
:10AD1800104003460F220248184700BF54970020EE
:10AD2800F80E0200F8B50D460446064F4618B44220
:10AD380001D12846F8BD14F8011BBB6801485B68BF
:10AD48009847F4E7A00602000449431E0F3013F8A1
:10AD5800012F8A5C83421A70F9D17047411C0200A6
:10AD6800F0B50746264E8DB001AD0C460FCE0FC587
:10AD78000FCE0FC596E8070085E807003846002F74
:10AD880039D0002C39D0381F0246214610344B7870
:10AD98000D781B0443EA0563CD7804312B4311F881
:10ADA800025C8C4243EA052342F8043FEFD10421B8
:10ADB800144C8A07036916D1C3F30742A55C1A0E1F
:10ADC800A25C42EA0562C3F30725655DDBB2E35C7A
:10ADD80042EA054242EA032221F0030330336B447E
:10ADE80053F82C3C534050F8042F013153402C2980
:10ADF8000361DED101200DB0F0BD2046FBE700BFA6
:10AE0800A00A0200411C02002DE9F04F0027036848
:10AE18009DB002934368DFF8BCA103938368DDE922
:10AE280002460493C36805930369DDE904BE0693EB
:10AE3800436907938369DDE9062C0893C36998463B
:10AE48000993089B0093CD590CAB2DBA5AF8049B73
:10AE5800DD514FEAF223A94483EAB213009D83EA45
:10AE680072634B4425EA020502EA0C0985EA0905E2
:10AE78002B44434486EA0B054FEA743888EAB40841
:10AE8800254006EA0B0985EA090588EAB45804371B
:10AE9800A844402F03EB0E054344DE46DDF800804E
:10AEA80040F088804FF0100A4B490A9151460AF148
:10AEB800010A0DF1700E0AF00F070EEB870757F81D
:10AEC800407C01F00F094FEAB748019788EAF71864
:10AED80001F10E0707F00F070EEB870757F8407CC4
:10AEE80009314FEAF74E8EEA774ECDF82CE001F0A3
:10AEF8000F010DF1700E0EEB81010EEB890959F867
:10AF080040EC51F8401CBAF1400F7144DDF804E000
:10AF180088EADE08DDF82CE041448EEA972E714479
:10AF280005EA02084FEAF52E2CEA050787EA080722
:10AF38008EEAB51EDDF828808EEA756E774458F8DB
:10AF480004EF49F8401C77440F4400994FEA733ED8
:10AF5800394484EA0607CDF828808EEAB30E07EA5A
:10AF6800030704EA06088EEAB35E87EA080777440F
:10AF78000F4401EB0B0ECDF800C0B34622D1029965
:10AF88003944016003991944049B41602344836058
:10AF9800059B3344C360069B73440361079B2B44A2
:10AFA8004361089B13448361099B6344C3611DB0DB
:10AFB800BDE8F08FB346CDF800C0264694461C463F
:10AFC8002A4640E7944626462A461C4675463B468E
:10AFD8006CE700BF080F0200440F020010B50446DA
:10AFE800C8B17022002110F01AFB0B4B0B4A0C4918
:10AFF800C4E900230B4B0C48C4E902130B4BC4E90A
:10B00800040301200A4BA36103F17453A3F523033E
:10B01800A3F69243E36110BD85AE67BB67E6096A94
:10B0280072F36E3C3AF54FA57F520E518C68059B22
:10B03800ABD9831F014910220A60704710ED00E068
:10B0480072B6404080F31188BFF36F8F01B5FEF7E9
:10B058007DFC00280AD0BFF34F8F30BF00BF00BF70
:10B0680000BF00BF00BF00BF00BF00BFBDE8014078
:10B0780062B6BFF36F8F704772B6494081F311888B
:10B0880001B5FEF763FC00280AD0BFF34F8F20BF3D
:10B0980000BF00BF00BF00BF00BF00BF00BF00BFB0
:10B0A800BDE8014080F3118862B670472DE9F0478A
:10B0B80081460C4600AF00294CD0D1E900126E46FB
:10B0C8008AB0A3686D464FF0050AA8462548C5E929
:10B0D8000723C5E9050148F810AF002342464FF49D
:10B0E80021512148FFF73EFBD4E90312B5466369B5
:10B0F800AD461E48C5E90723C5E90501C5F810A0F6
:10B10800002342464FF421511748FFF72BFBB54661
:10B1180088B0E3696D464FF0030AA846144AC5E9AA
:10B12800052348F810AF002342464FF4C2510E4899
:10B13800FFF718FBB546A369AD460E4AC5F810A03F
:10B14800C5E90523002342464FF4C2510648FFF7DC
:10B1580009FBB546214648460CF030FBBD46BDE824
:10B16800F08700BF411D02004C0A0200701D02005A
:10B178009F1D0200AE1D020040B2002807DB01231C
:10B188004109034A00F01F00834042F8213070470C
:10B1980000E100E040B200280CDB01220649430927
:10B1A80000F01F008240203341F82320BFF34F8F67
:10B1B800BFF36F8F704700BF00E100E0054B420905
:10B1C80053F82220012300F01F0003FA00F010407A
:10B1D800704700BF00E100E040B2002801F1010122
:10B1E800ACBF00F16040064B4FEA4111C9B2ABBF9A
:10B1F80000F5614000F00F0080F800131954704703
:10B2080014ED00E030BFFFF7FDBF00BF0B4A08B5E3
:10B218000B4B22F07F029A60BFF34F8FBFF36F8F03
:10B22800D3F8882022F47002C3F888200CF086FB3B
:10B238000DF0F2FB00F000FC0CF0CAFB00800000EF
:10B2480000ED00E0094A0A49936809689867D967D8
:10B2580008494B6843F080534B60002383F31188FF
:10B26800BFF36F8F9368D86F704700BF409B002073
:10B27800D015020000ED00E018498A6882F881E0E4
:10B288004FF030001044EFF3098C80E8F01F2020C5
:10B2980080F31288BFF36F8F114F4FF000664A6931
:10B2A8008A603E604FF07404141920680D4C2060C9
:10B2B80092F981E0906F0023936780F3118802F17F
:10B2C800300090E8F01F8CF3098802F1000004B503
:10B2D80010F0FBFDBDE8044070470000409B0020D3
:10B2E80004ED00E0589700201EF0040F0CBFEFF3A8
:10B2F8000880EFF30980816911F8021C0229FFD048
:10B3080001B510F0D3FD01BD42F8203C009B0D496A
:10B3180042F81C3C019B21F0010142F8183C029BB9
:10B3280042F8081C42F8143C4FF0807342F8043C81
:10B33800002383674FF43C43203A0265C0F880300D
:10B34800704700BFA59600000A4B446F98600A4BEF
:10B358001C60436E83F30B88104681F30988002133
:10B3680063B681F31188BFF36F8F00220023FEF7C5
:10B3780095F900BF409B00205897002001B5EFF3D6
:10B388000580A0F110004FEAC0000449014409C932
:10B398009847BDE80140024908470000DC06020062
:10B3A80009B40000114B124A2DE9F041D518013DAE
:10B3B800B5FBF3F5DFF83C805D430F4B074608EB20
:10B3C8000304013CB4FBF3F403FB04540E1B3046A6
:10B3D8000A4915F0A8F8701942460021083E15F0F0
:10B3E800AFF87E6704F10800BDE8F08101000000B5
:10B3F8000000000004000000040000007C0A0200B5
:10B40800044B99685869884203D003494FF0805229
:10B418000A607047409B002004ED00E02DE9F041F0
:10B4280086B006460D4600AF0224444B4FF48251C5
:10B438007B6143483C6107F1100210F04AFD414B23
:10B448009B6ADB0678D5404B3D484FF48251C7E9EB
:10B45800044307F1100210F03CFD1120394B9B6AA0
:10B468001C070BD5394B36487B6102234FF48251B8
:10B478003B6107F1100210F02CFD1220314CA36A39
:10B48800990723D5E846324B07F110027B61022366
:10B498004FF482513B612A4810F01BFD636BA26A8E
:10B4A800120612D588B06A462A492548C2E905130A
:10B4B80003234FF4C25142F8103F10F00AFDC5466D
:10B4C8001EB1A36A23F08003A36213201D4B9B6A5D
:10B4D800DE070BD5204B1A487B6102234FF48251BB
:10B4E8003B6107F1100210F0F4FC1420154B9B6A25
:10B4F8009C060BD5194B12487B6102234FF48251ED
:10B508003B6107F1100210F0E4FC15200D4B1837D1
:10B518009A6AD10658BF9A6A9A6A920642BF5A6ACC
:10B5280022F400525A629A6A42F0FF029A62002399
:10B538002B70BD46BDE8F08110208FE7DC1D0200AE
:10B548004C0A020000ED00E0F21D0200251E020078
:10B55800381E0200501E0200661E0200851E0200F0
:10B568002DE9F04186B006460D4600AF0224474B50
:10B578004FF482517B6146483C6107F1100210F09C
:10B58800A8FC444B9B6AD9046DD5434B40484FF403
:10B598008251C7E9044307F1100210F09AFC172002
:10B5A8003C4B9B6A1A050BD53C4B39487B610223FF
:10B5B8004FF482513B6107F1100210F08AFC182009
:10B5C800344CA36A9B0523D5E846354B30487B614C
:10B5D800022307F110023B614FF4825110F079FC0D
:10B5E800A36BA26A100412D588B06A462D49284870
:10B5F800C2E9051303234FF4C25142F8103F10F07B
:10B6080068FCC5461EB1A36A23F40043A36219204F
:10B61800204B9B6A59050BD5234B1D487B610223A0
:10B628004FF482513B6107F1100210F052FC1A20CE
:10B63800184B9A6AD20518D51C4B15487B61022312
:10B648004FF482513B6107F1100210F042FC1B20BD
:10B65800104A1837936A43F47F43936200232B7090
:10B66800BD46BDE8F08116209AE79B6A9B04EFD59A
:10B678000F4B07487B6102234FF482513B6107F16E
:10B68800100210F026FC1C20E2E700BFB41E0200E6
:10B698004C0A020000ED00E0CA1E0200251E02004E
:10B6A800DB1E0200F41E0200091F0200241F020014
:10B6B800851E020010B586B002243E4B4FF482511D
:10B6C8003D4804AA0593049410F003FC3B4B9B6A85
:10B6D80099016CD53A4B38484FF4825104AACDE908
:10B6E800044310F0F6FB1E20344B9B6ADA010AD59E
:10B6F800344B3148059302234FF4825104AA049332
:10B7080010F0E7FB1F202D4B9B6ADB020AD50224B1
:10B718002D4B29484FF4825104AA0593049410F044
:10B72800D8FB2046254B9B6A1C030AD5274B224889
:10B73800059302234FF4825104AA049310F0C9FB25
:10B7480021201E4B9B6A59030AD5214B1A480593A1
:10B7580002234FF4825104AA049310F0BAFB22206A
:10B76800164B9B6A9A030AD51A4B13480593022372
:10B778004FF4825104AA049310F0ABFB23200F4B23
:10B788009B6ADB030AD5144B0B48059302234FF43D
:10B79800825104AA049310F09CFB2420074A936A60
:10B7A8006FEA03436FEA1343936206B010BD1D208E
:10B7B8009AE700BF3C1F02004C0A020000ED00E0BF
:10B7C800541F0200671F0200811F0200AB1F020006
:10B7D800C91F0200EE1F0200082002002DE9F047F1
:10B7E8008AB07D4B0446D3F804908A461646002555
:10B7F80000AFC9F3080885F31188BFF36F8F02F013
:10B808007F43B3F17F4F25D1D30723D4500603D408
:10B8180011070FD401250FE0704B4FF48251FB61E3
:10B8280002236F48BB6107F1180210F052FB16F0B3
:10B83800040600D0544600250023FB71A8F1030339
:10B84800092B00F2A880DFE803F0079B9E97A6A6C5
:10B85800A6A6A6A12C46EFE7E9464FF00208614BE1
:10B8680007F11802FB614FF482515D48C7F8188050
:10B8780010F02FFB0023584EFB71F36A9A070BD583
:10B88800594BC7E906834FF48251554807F118020E
:10B8980010F01FFB002338E0F36A002B01DA534B4A
:10B8A800EFE7F36A5B00F5D5514B07F11802C7E9DA
:10B8B80006834FF482514A4810F00BFB7369A26962
:10B8C80043F480737361BFF34F8FBFF36F8F736956
:10B8D80032F8022C23F480737361BFF34F8FBFF3E8
:10B8E8006F8F4DF602739A4231D188B023686A4649
:10B8F80040493B48C2E9051303234FF4C25142F8BB
:10B90800103F10F0E6FACD462368FA79DAB907F164
:10B91800080604F1200C324620686168083403C226
:10B9280064451646F7D17A6A002D50D0C2F3080153
:10B9380021B96FEA52226FEA42227A62184607F169
:10B948000801FFF7B3FB2837BD46BDE8F087B36AA7
:10B95800DBB223B10120F91DFFF760FD0EE0B36AE9
:10B9680013F47F4F04D00120F91DFFF7F9FD05E01E
:10B97800B36AB3F5803F8DD3FFF79CFE0346C4E757
:10B988000020F91DE8E70020F91DEEE71A4BFB61DE
:10B998000223BB6177E7194A6E4619F4F87F8AB02B
:10B9A800174B18BF13466A4616490D48C2E90513D6
:10B9B800A8F11003D3614FF400731384124B4FF4B2
:10B9C800115142F8103F10F084FAB54662E722F4AC
:10B9D800FF7222F00102B0E700ED00E061200200F2
:10B9E8004C0A0200842002009B200200BC200200B6
:10B9F800CA200200E92002000521020048200200B6
:10BA0800332002002921020004000001044B5A6976
:10BA180042F010025A615A6942F480625A617047D2
:10BA280000ED00E0EFF30880EFF3098101B57246FD
:10BA3800FFF7D4FE01BD00BF002320210348C21830
:10BA48000133452B82F80013F9D1704700E100E07B
:10BA5800002080F31488BFF36F8F002080F30A88DA
:10BA680080F30B88FEF77CF800200E490860BFF3CE
:10BA78004F8F0D4880F3088800F03EF8202080F3AF
:10BA880011880A484FF40061401880F30988EFF3E1
:10BA980014800221084380F31488BFF36F8FFFF7E7
:10BAA800B5FB000094ED00E048BF002008B200207C
:10BAB800BFF34F8F0549064BCA6802F4E06213438F
:10BAC800CB60BFF34F8F00BFFDE700BF00ED00E084
:10BAD8000400FA05002318460649D1F89020C2F35D
:10BAE8000722934200DB7047C1F89830C1F8A000E4
:10BAF8000133F6E700ED00E010B572B6002484F3D8
:10BB08001388FFF7E7FF23464FF0FF300C4A03F195
:10BB180020010133102B42F82100F8D100234FF007
:10BB2800FF30074A03F160010133102B42F821006E
:10BB3800F8D162B6BFF34F8FBFF36F8F10BD00BF50
:10BB480000E100E0084B9B6883420BD1EFF30583CB
:10BB580043B1064B5A6842F080525A605A6A22F43E
:10BB680000425A620CF0E6BE409B002000ED00E067
:10BB78001FB5094C094A23460121094800F02AF952
:10BB880000230393074B0121E41A01A801930294AF
:10BB980000F02AF904B010BD000007200080002042
:10BBA800081002009886002010B50C7A0B6804F083
:10BBB8001F0223F01F031A43CB68640923F01F03F5
:10BBC800054943EA440343F00103C1F89800C1F86A
:10BBD8009C20C1F8A03010BD00ED00E080B500AF9A
:10BBE80088B06A46074BC2E90530032342F8103F84
:10BBF80000234FF4C2510448FEF7B4FD6FF015005E
:10BC0800BD4680BD402102002C0A02002DE9F04FFC
:10BC1800144606464FF0000987B05F4D00AF7960C3
:10BC28007B68994535DAD6F80480B8F1000F54D00E
:10BC3800B8F11F0F1BD918F01F0F18D1D6F800B094
:10BC48001BF01F0F13D1584610F048F9824608EB35
:10BC58000B00013810F042F982451FD06FF0150A29
:10BC68006C4688B06A464D49C2E9051A05E06C463B
:10BC780088B06A464A4BC2E90539032342F8103FA7
:10BC880000234FF4C2514748FEF76CFDA5466FF0FC
:10BC9800150420461C37BD46BDE8F08F1AF1160F73
:10BCA800DED05445DCDDC5F898A0D5F89C00C5F871
:10BCB80098A0D5F8A02020F01F0042F01F08D6E970
:10BCC80000211144904201F1FF3B1ED1D84508D113
:10BCD80031465FFA8AF010F00AF909F101090C36C9
:10BCE8009EE7C5F898A0D5F89C3021F01F0103F015
:10BCF8001F030B433146C5F89C30E0B210F0F7F84B
:10BD080010F1160FC3D0441CE7E7013AD845E0B25A
:10BD180022F01F02C5F898A008D1D5F8A030314606
:10BD280003F01F031343C5F8A030E7E7D5F8A010C8
:10BD380001F01F010A43C5F8A020314610F0D7F8DA
:10BD480010F1160FA3D0C5F898A0D5F89C203B7C1D
:10BD580008F1FF3862F304033B74D5F8A0303A7C4D
:10BD68005B0863F347123A74D6E900321344BB60A8
:10BD780023F01F03441C4344A3EB0B03E0B223F05E
:10BD88001F0307287B6102D9FFF728FFB8E707F1EF
:10BD98000801FFF709FFB6E700ED00E0892102007E
:10BDA800662102002C0A02000522044BC3F89420E5
:10BDB800BFF34F8FBFF36F8F704700BF00ED00E0F8
:10BDC800BFF35F8F0022024BC3F89420704700BF77
:10BDD80000ED00E010B5034C2278FFF717FF207044
:10BDE80010BD00BFAF9B00202DE9F74F294D8A46B3
:10BDF80006464FF00008AB46274FD0451BDAD6F869
:10BE08000490B9F1000F3FD031680846019110F055
:10BE180065F80199044609EB0100013810F05EF855
:10BE280084424FF014021D4B08D002FB08F36FF058
:10BE380015024BF8032003B0BDE8F08F14F1160F7C
:10BE48002C60F8D01978A142F5DD02FB08B0C7F8DC
:10BE58009840C7F89840D7F89C4000F10801007B4B
:10BE680064F304000871D7F8A0000C79400860F367
:10BE780047140C71D7F89C1021F01F016960D7F89E
:10BE8800A01021F01F01296108F1010814350C36B2
:10BE9800B3E700BF5C97002000ED00E0AF9B0020F7
:10BEA80038B50E4D2C68082C15D80020FFF788FFF0
:10BEB8000B4B0C4AC3F8C020844205D10A4B002022
:10BEC8001C70FFF771FF38BD696801EB0011FFF7BF
:10BED8006BFE0130F0E74FF0FF30F4E7141002007A
:10BEE80000ED00E0AAFF4400AF9B002008B5024B1C
:10BEF8001B689847002008BD70970020034B044A30
:10BF08001860937843F0020393707047709700208D
:10BF1800C8810020F0B587B007460E4614460021B8
:10BF2800102268461D4614F00BFB02238DF80230E0
:10BF3800054B2A4621466846CDE9047601930DF063
:10BF4800DDF807B0F0BD00BF37BF010008B50649EE
:10BF5800064821F00701C1F1005202F5E0220EF077
:10BF6800DBFC002008BD00BF3B1101204803012075
:10BF7800F8B5144BD3F83021D3F83431072A1CD143
:10BF8800023B032B02D8104AD35CB3B1012600242C
:10BF98004FF050270D4D0520C7F81866C5F8144610
:10BFA80012F0C9FD3046C5F8146612F0C4FDC5F894
:10BFB8001446C7F818460020F8BD0022034BC3F802
:10BFC8001426F8E700F00720BB21020000500040CB
:10BFD80008B5044813F0A4FB00280CBF6FF012004A
:10BFE800002008BD8C0602000E4B402928BF4021C6
:10BFF80070B51D460C4C4618B04203F1020304D13B
:10C00800002305F81130074870BD02781209A25CB8
:10C0180003F8022C10F8012B02F00F02A25C03F8BF
:10C02800012CE9E7CE9B0020EB21020030B5037814
:10C038008BB0044607AD032B21D8DFE803F0021AC2
:10C048001C1E12492846FCF7F5F9059563781E2150
:10C058000493A3780E4A0393E3780E480293237956
:10C06800019363790093A3790CF082FF09480BB020
:10C0780030BD0949E6E70949E4E70949E2E70A2149
:10C088002846084A0CF074FFDFE700BF37180200A3
:10C0980059180200B09B00203E1802004518020003
:10C0A8004F180200183A020030B50024094D0A4B17
:10C0B80085B028460293039413F065FD02AB284629
:10C0C80000934FF4A3620A2304490CF077F8204642
:10C0D80005B030BDD88E00200322020098A30020AE
:10C0E800014601480CF0E0B8D88E0020037830B53E
:10C0F800012B13D0022B27D07BB90A46184B03F12A
:10C10800100453F8045BA34242F8045BF9D11B788E
:10C11800137043884B731B0A8B7330BD0A46104B50
:10C1280003F1100453F8045BA34242F8045BF9D10D
:10C138001B7813704368C3F307224B731B0CCB7334
:10C148001B0A8A730B74E8E700F1100350F8042BFC
:10C15800984241F8042BF9D103780B70DDE700BF52
:10C168000C220200012838B505460CBF06480748CE
:10C1780012F03AFA044620B101210C3012F096FA76
:10C188002576204638BD00BFE48500206085002064
:10C198000246002070B50B460A49D1E8EF4FC1E8C6
:10C1A800E50F002DF9D124B9BDE870400120FFF753
:10C1B800D9BF01212082217604F10C0012F076FA11
:10C1C800204670BD4081002070B504460F2C0D46F6
:10C1D8001046194605D80D2C0DD9BDE87040FFF75B
:10C1E800D7BF132C07D10C4812F0FEF9044638B912
:10C1F8000024204670BD02460B4645B10748F3E7C8
:10C2080001210C3012F052FA01232376F1E70120C4
:10C21800BDE87040FFF7A6BF68860020B8850020FB
:10C228002DE9F04105460E46904682B000AFAB8836
:10C23800012B18D9284612F07FFA044698B1AB882A
:10C24800984214D96D4688B06A46D36104231149CF
:10C25800C2E9051042F8103F00234FF402510E487E
:10C26800FEF780FAAD460837BD46BDE8F08128469E
:10C2780012F062FA2B683870013C414638467C70EF
:10C288007B60B0470028EED02146284612F044FAD9
:10C29800CDE700BF1D2202008C09020070B58EB0E8
:10C2A8006C4606460A4D0D2E0FCD0FC40FCD0FC498
:10C2B8000FCD0FC495E8030084E803009DBF0EABC3
:10C2C80003EB860656F8380C02480EB070BD00BF66
:10C2D800CC0A02004822020038B5C368B3F801400E
:10C2E8001B786BB90F21204602F0EEFE054640B9D7
:10C2F800084B1A8822B96FEA04506FEA1050188068
:10C3080038BD012102F00EFF2846BDE8384010F084
:10C3180064B900BF7C9B00207FB5064B4FF4825167
:10C3280005930223044804AA04930FF0E1FE07B022
:10C338005DF804FB50220200A4090200F0B583B0A6
:10C34800C5680121B5F8016000AF304602F0BCFEB7
:10C35800044688B96C4688B06A461E4B4FF4C251F1
:10C36800C2E9053603231C4842F8103F0FF0C0FE0F
:10C37800A5460C37BD46F0BD2B781A2B17D1C378CC
:10C38800012B22D14FF4806104300FF09AFE43054F
:10C398000DD4D4F8A03039463B60D4F8A8302046F4
:10C3A8007B6003F04DFD204610F017F9E1E72B788C
:10C3B8005BB9B5F80330A4F89E30B5F80530A4F899
:10C3C800A430B5F80730A4F8A630204602F0FCFFE8
:10C3D800E9E700BF6A220200A409020098B50146F5
:10C3E80000AF0D4812F007F90C490D4813F0BAFBDD
:10C3F80000280EDA6C4688B06A460A4B4FF4C251E0
:10C40800C2E905300323084842F8103F0FF070FED8
:10C41800A546BD4698BD00BF448100201482002077
:10C42800089000208E220200A40902000B46B0B535
:10C438000D8A00AF04462946D868FFF7D5FD8AB0B3
:10C448006A46094BC2E90750C2E9053440F2024383
:10C458009384064B4FF43251054842F8103F0FF0D1
:10C4680047FEBD46B0BD00BFAB220200050000017B
:10C47800A4090200B0B5044600AF02EBC30393421F
:10C4880003D12046FFF7D2FF18E0104610F8085BEA
:10C49800A54219D10B8A5078984211D96D4688B0B7
:10C4A8006A460A49D461C2E9051304234FF40151CD
:10C4B800074842F8103F0FF01BFEAD46BD46B0BD21
:10C4C800084653689847F9E70246D8E7CD220200A4
:10C4D800A40902002DE9F0415D4800AF12F0A1F86F
:10C4E800044600287CD0037E012B7CD0032B40F02F
:10C4F800A980038A032B0CD84FF40073554A564978
:10C5080056480EF049FB404080F311884FF0030075
:10C5180002DF042104F10C0012F006F94588B0F896
:10C528000080204608F020FB4D4EC8F30B0326F888
:10C538001030238A9D4213D06E4688B06A46494916
:10C54800D561C2E9051304234FF40151464842F866
:10C55800103F0FF0CDFDB546204608F0ABFB26E0B6
:10C56800204608F001FB0F2136F8100002F0ACFD60
:10C578000546A0B9204608F0F7FA6D4688B036F8A7
:10C5880010306A463949C2E9051303234FF4C251F2
:10C59800354842F8103F0FF0ABFDAD46DCE72146C9
:10C5A8004FEA183202F02CFC284610F016F8304BEF
:10C5B800D3F84431A3B12F492F4813F0D3FA0028F8
:10C5C8000EDA6C4688B06A462C4B4FF4C251C2E969
:10C5D80005300323244842F8103F0FF089FDA54693
:10C5E800BD46BDE8F081038A012B0CD840F65D23D7
:10C5F800184A194919480EF0CFFA404080F31188BB
:10C608004FF0030002DF022104F10C0012F08CF855
:10C61800054600780FF02AFD83070CD440F6612305
:10C628000C4A17490D480EF0B7FA404080F31188BC
:10C638004FF0030002DF06232146124A2878FFF74D
:10C6480019FF89E76D4688B06A460F499BE700BF26
:10C6580044810020EF220200232302003C23020031
:10C668007E9B002059230200A40902007D230200BA
:10C678000080002014820020089000208E220200F2
:10C688009F230200D4100200CD23020010B501211F
:10C6980004460C3012F048F82146BDE810400B2340
:10C6A800014A0078FFF7E6BE0411020080B50121B7
:10C6B80000AF0C3012F038F888B06A4603780649A3
:10C6C8000648C2E9051303234FF4C25142F8103F4C
:10C6D8000FF00EFDBD4680BDE1230200A409020053
:10C6E80080B5C36800AF88B06A461B78064907481A
:10C6F800C2E9051303234FF4C45142F8103F0FF069
:10C70800F7FCBD4680BD00BF03240200A409020057
:10C71800B0B5C36800AF1C880121204602F0D4FCE4
:10C7280080B96D4688B06A46084B4FF4C251C2E9D9
:10C7380005340323064842F8103F0FF0D9FCAD46F4
:10C74800BD46B0BD0FF049FFFAE700BF6A220200FC
:10C75800A4090200B0B5C36800AFB3F801400121D5
:10C76800204602F0B1FC80B96D4688B06A46084B95
:10C778004FF4C251C2E905340323064842F8103F7A
:10C788000FF0B6FCAD46BD46B0BD0FF026FFFAE788
:10C798006A220200A4090200F8B5C5680121B5F8AB
:10C7A800016000AF304602F08FFC044680B96C4649
:10C7B80088B06A46104B4FF4C251C2E905360323CC
:10C7C8000E4842F8103F0FF093FCA546BD46F8BD51
:10C7D8002B783BB9D5F80330C0F8AC30D5F8073022
:10C7E800C0F8B0304FF40051201D0FF06AFC20460D
:10C7F8000FF0F3FEEAE700BF6A220200A409020074
:10C808002DE9F843064600AF907A8846144608F0AA
:10C81800A3F9414D854218D0A47AE846204608F08D
:10C828009BF98AB06A463D4BC2E90740C2E9053622
:10C83800062355624FF44251394842F8103F0FF031
:10C8480057FCC546BD46BDE8F883204608F08CF97C
:10C858004FF00C09334D09FB00504388B34216D002
:10C86800204608F081F909FB00506C4688B06A46FA
:10C878004388D36104232C492948C2E905164FF49B
:10C88800025142F8103F0FF033FCA546DAE7274E75
:10C89800D6F8400120B108F00DFA0023C6F840315F
:10C8A800204608F061F90C2606FB00504368ABB13E
:10C8B800B8F1000F12D1204608F056F9012106FB05
:10C8C80000504268D2E90003127A03F01F06B14013
:10C8D8005B09DAB100EB83000FF0F3FB204608F0A8
:10C8E80043F90C2606FB00508368002BAAD020468B
:10C8F80008F03AF9704305F80080204608F034F94A
:10C9080006FB0055A8680BF0D7FA9BE7C94300EB74
:10C9180083000FF0F0FBE1E73C8600202B240200A7
:10C92800A4090200749700206024020000800020FF
:10C9380038B5042104460C3011F0F6FE457801782C
:10C9480022464088FFF75CFF25B1BDE83840024821
:10C958000BF0B2BA38BD00BF2881002038B50321DA
:10C9680004460C3011F0E0FEE36805782246197899
:10C97800B0F80100FFF744FF25B1BDE83840024890
:10C988000BF09ABA38BD00BF288100202DE9F04F7E
:10C9980087B00123D0F80C80018A98F8004000AFD6
:10C9A80003EB84038B4240F28D806D468AB06A4661
:10C9B800C2E90731052346484FF42151C2E905046D
:10C9C800444842F8103F0FF093FBAD461C37BD4674
:10C9D800BDE8F08F6C4688B06A463F4B4FF4C251B1
:10C9E800C2E9053B03233B4842F8103F0FF080FBA8
:10C9F800A546013598F800309D42E7DA08EB850333
:10CA0800B3F801B00F215846B3F8036002F05CFB9D
:10CA180004460028DED000F1280B46B34FF020036F
:10CA2800EFF3118283F31288BFF36F8FE3696BB161
:10CA3800013BE36182F31188BFF36F8F204602F058
:10CA4800A5F9013E0BF038FAB6B2E6E7636993B987
:10CA580082F31188BFF36F8F02234FF482511D4870
:10CA680007F11002C7F814A03B610FF041FB204604
:10CA78000FF0B3FDBDE7A16918688B42606108BF7C
:10CA8800A06182F31188BFF36F8F4FF02002EFF39C
:10CA9800118182F31288BFF36F8FDA68E261C3F8FD
:10CAA8000C90C3F80090626A4AB9C4E9083381F36C
:10CAB8001188BFF36F8F58460BF07AFBBEE71360FF
:10CAC8006362F4E70025DFF814A0A94692E700BFE7
:10CAD80093240200A4090200BD240200D924020004
:10CAE8002DE9F041C66800AF3578B5B9B6F80180D0
:10CAF8000F21404602F0E8FA044688B96C4688B02F
:10CB08006A46144B4FF4C251C2E905380323124850
:10CB180042F8103F0FF0ECFAA546BD46BDE8F0819B
:10CB2800F3782946037302F0FDFAA378012B03D0AA
:10CB380020460FF052FDF0E7231DD3E8AF3FDB0797
:10CB4800F6D52046022102F0EDFA284601F054FC01
:10CB5800EEE700BFF0240200A409020010B5C1E905
:10CB680000239DF808300C460B7207F0FDFF0C22DD
:10CB7800024B02FB00335C6010BD00BF74970020BD
:10CB88002DE9F0474FF0FF324FF0FF3306461748C4
:10CB98000F4611F029FD4FF00008044600F10C0A79
:10CBA8000121504611F082FD204684F8188007F0D4
:10CBB800DBFF4FF00C090E4D09FB00504680204664
:10CBC80007F0D2FF09FB0050C0F80880204607F0A4
:10CBD800CBFF09FB005503215046C5F8048011F02E
:10CBE80069FD068087702046BDE8F0873C860020F6
:10CBF800749700202DE9F04387B0804615460C460F
:10CC080000AF21B9FFF7BCFF044600285DD0012220
:10CC18000021384612F0F6FE204607F0A5FF0C2347
:10CC2800DFF8B49003FB00908760204611F012FDF6
:10CC380001462A4811F00CFD4FF4A0220023384683
:10CC48000BF060F9064688B14FF4A973244A2549C8
:10CC580025480DF0A1FF3246414624480DF09CFFBF
:10CC6800404080F311884FF0030002DF204607F0B0
:10CC78007BFF0C23584319F80060F6B16D4688B065
:10CC88006A461B4BD661C2E9053804234FF40251AA
:10CC9800184842F8103F0FF02BFA2046AD4608F02E
:10CCA80009F8092E14D00D2E0CBF6FF00B006FF091
:10CCB80004001C37BD46BDE8F08315B12C60002088
:10CCC800F7E7204607F0F6FFF9E76FF06800F0E7AE
:10CCD8006FF06E00EDE700BF749700204C810020D4
:10CCE800EF220200162502003C2302001F25020045
:10CCF8004B250200A409020070B588B006460D460F
:10CD080042F22F00002101AAFFF774FF044660B128
:10CD18000B4B4FF48251079302230A4806AA069345
:10CD28000FF0E6F9204608B070BD0198C368B3F863
:10CD380001203280B3F803302B8007F0BBFFF1E706
:10CD480067250200A4090200F7B5144B054693F9BC
:10CD58009B300C46002B1DDA14B9204603B0F0BDF9
:10CD6800082C4FF0000142F2180001AA264628BFFD
:10CD78000826FFF73FFF0028F0D1019F3246F968E7
:10CD88002846013113F0CFFB384607F093FF3544AE
:10CD9800A41BE1E76FF08500E0E700BF00800020FA
:10CDA800F0B587B006460DF10B01002001F04AFAF4
:10CDB8000546002845D1192142F20D00FFF7E0FE93
:10CDC8000746002840D019210C3011F073FC0446A6
:10CDD8002946192213F0B4FB9DF80B301C4A237323
:10CDE80092F8211192F82031601D994294BF06F102
:10CDF800880106F196010FF06FF993893846238070
:10CE0800D389144A6380B6F8A030A4F80D30B6F878
:10CE1800A230A4F80F30B6F8A430A4F81130B6F850
:10CE2800A630A4F81330012300930C230DEB030163
:10CE3800FFF794FE0022394642F20D00FFF7DAFEB2
:10CE48000546284607B0F0BD6FF06805F9E700BF52
:10CE580000800020D480002030B5002187B042F245
:10CE68000E00FFF78DFE00250C2304460DEB030191
:10CE7800054A0095FFF772FE2A46214642F20E0047
:10CE8800FFF7B8FE07B030BDD48000202DE9F0438D
:10CE98008DB005460026A84BB0F80180198848F4E3
:10CEA8007042914202AF04BF1E80012601F048F88B
:10CEB8002C78002C3AD0022C28D1002106220846D2
:10CEC80002F0ECFB054680B99C4B4FF48251C7E950
:10CED80008439B4807F120020FF00AF9002001F0EF
:10CEE8008BFA2C37BD46BDE8F0830021047302F0AD
:10CEF80019F92B1DD3E8AF3FDE0703D52146284695
:10CF080002F010F928460FF068FBE7E76D4688B095
:10CF180002AA8C4B4FF4C451C2E905340323884854
:10CF280042F8103F0FF0E4F8AD46DAE7EB7805F188
:10CF38000409012B08BF844B484608BF93F86F408B
:10CF48000FF090F8494638B307F110000FF07FF85A
:10CF580005F1110107F109000FF0C5F801233B7233
:10CF6800E87838B34846FFF761F86C4688B002AAFB
:10CF7800764B4FF4E251C2E905304FF400739383C6
:10CF8800734B6F4842F8103F0FF0B2F81321A546D3
:10CF980040460FF0C8F8A4E720460FF005FA01460E
:10CFA80007F110000FF098F8494607F108000FF054
:10CFB80093F8D5E7062207F1100102F06FFBEB7832
:10CFC800044623B96FF4805162480FF094F8002C9E
:10CFD800C8D020460022B5F8013007F1100120F82A
:10CFE800883B0FF079F8B5F81730A4F89E30B5F8FB
:10CFF8001930A4F8A430B5F81B30A4F8A630EB78A3
:10D008002273E37073B907F1080104F196000FF079
:10D0180063F8217A4C4BC1EBC101194404F18F002C
:10D028000FF05AF80721204602F07CF81EB10121C2
:10D03800204602F077F820460FF0D2FA637B072BE0
:10D048006ED1231DD3E8AF3F13F4005F3E4D29D1C5
:10D05800E3781BB195F8D830180723D5022142F29E
:10D068001600FFF78DFD0646002861D002210C301E
:10D0780011F020FB238800220380314642F216007B
:10D08800FFF7B8FD70B16E4688B002AA324B4FF474
:10D09800C251C2E905300323294842F8103F0FF076
:10D0A80027F8B54695F8D930D90716D500210223B7
:10D0B80020461A4600910FF06FF870B16E4688B09E
:10D0C80002AA264B4FF4C251C2E9053003231C487B
:10D0D80042F8103F0FF00CF8B54695F8D8309A068C
:10D0E8001ED5D5F864319B689B0719D5B91D381D25
:10D0F800FFF702FEA0B92046FA88B9880FF02EF88B
:10D1080070B16D4688B002AA154B4FF4C251C2E9FE
:10D11800053003230A4842F8103F0EF0E9FFAD46F8
:10D1280020460FF05AFAE378002B7FF4DAAED5E602
:10D138006FF06800A7E700BF7C9B002087250200EE
:10D14800A4090200A525020000800020BE250200D7
:10D1580003000001D4800020DA250200FB2502002C
:10D168001226020000B5C16889B00B7801A88DF8B5
:10D178000030B1F801300431ADF8013011F8013C4C
:10D188008DF80330B1F80730ADF81730B1F8093031
:10D19800ADF81930B1F80B30ADF81B304B7B8DF87A
:10D1A8001D300EF099FF07490DF10B000EF09BFFA3
:10D1B8000DF111000EF097FF6846FFF767FE09B002
:10D1C8005DF804FBE521020029289ABF014B185C91
:10D1D8000920704789290200F0B587B0C3680F217C
:10D1E800B3F8016000AF30461D7801F06DFF0446CA
:10D1F80088B96C4688B06A461E4B4FF4C251C2E9E2
:10D20800053603231C4842F8103F0EF071FFA5466F
:10D218001C37BD46F0BD5DB12846FFF7D5FF29464E
:10D228000246204602F07AF920460FF0D6F9EFE7D9
:10D238008378012BF0D107F0A3FA20460EF028FFDF
:10D248000028E9D10520FFF7BFFF05210246204647
:10D2580002F064F9094B4FF482517B6102230648BE
:10D2680007F110023B610EF043FF052120460FF045
:10D278008FFAD9E7F0240200A40902002E26020042
:10D288002DE9F04186B0C6680F21B6F8018000AFDD
:10D298004046357801F018FF044690B96C4688B0CE
:10D2A8006A46244B4FF4C251C2E905380323224889
:10D2B80042F8103F0EF01CFFA5461837BD46BDE8E2
:10D2C800F0815DB12846FFF77FFF294602462046D8
:10D2D80002F024F920460FF080F9EEE78278F3781F
:10D2E800012AC37205D00020FFF76EFF0021024615
:10D2F800EDE70BB107F044FA20460EF0C9FE00280E
:10D30800F1D10520FFF760FF05210246204602F013
:10D3180005F90A4B4FF482517B610223064807F155
:10D3280010023B610EF0E4FE052120460FF030FAB2
:10D33800D0E700BFF0240200A40902002E26020054
:10D34800024BD3F864315B69184700BF00800020A6
:10D35800F8B505460C4600AF19B9FFF711FC0446AD
:10D3680018B340F635439D4219D12046FFF7E8FF30
:10D37800054688B16E4688B06A460D4B4FF4C251D7
:10D38800C2E9053003230B4842F8103F0EF0B0FE07
:10D398002046B54607F08EFC2846BD46F8BD214616
:10D3A800054811F055F90025F6E76FF06805F3E731
:10D3B80054260200A40902004C8100202DE9F04106
:10D3C80086B000AF044607F0CFFB324B33F810505D
:10D3D800A07A07F0C1FB214612F006FB2E4B93F80A
:10D3E8008A309B0614D50F21284601F06DFE0446AD
:10D3F80090B96C4688B06A46284B4FF4C451C2E9CC
:10D4080005350323264842F8103F0EF071FEA54665
:10D418001837BD46BDE8F081437B073B012B0ED989
:10D42800204B4FF484517B6102231D483B6107F177
:10D4380010020EF05DFE20460FF0CFF8E8E70FF07F
:10D44800CCF8052140F63540FFF79AFB044658B959
:10D45800154B4FF482517B61022311483B6107F160
:10D4680010020EF045FED3E700F10C0801214046FA
:10D4780011F020F9012604210670404611F01AF92E
:10D48800002305808670C370214640F63540FFF7BB
:10D498005FFFBDE77E9B002000800020762602000B
:10D4A800A4090200A0260200CC2602002DE9F041C2
:10D4B8008CB0C4680121268802AF1FFA86F840465E
:10D4C80001F002FE054690B96C4688B002AA2D4BC1
:10D4D8004FF4C251C2E9053803232B4842F8103FE4
:10D4E8000EF006FEA5462837BD46BDE8F081D4F803
:10D4F8000220D4F8063001976189009110F009FEE6
:10D5080070B3122142F21A00FFF73AFB044670B9D1
:10D518001E4B4FF482517B6202231B483B6207F18A
:10D5280020020EF0E5FD28460FF057F8DBE7122140
:10D538000C3011F0BFF803463A4623F8026B07F1A6
:10D54800100C164603CE664518605960324603F142
:10D558000803F6D1214642F21A00FFF7F9FEE2E786
:10D56800022142F21B00FFF70BFB04460028CFD034
:10D5780002210C3011F09EF82146068042F21B0071
:10D58800EBE700BF6A220200A4090200EF260200AE
:10D59800F0B583B0C36800AFD9789A781E8842EA9C
:10D5A80001223A8059791A79B4B242EA01227A8082
:10D5B800D9799A79204642EA0122BA801A7A5B7AA6
:10D5C800012142EA0323FB8001F07EFD0546A8B94C
:10D5D8006D4688B06A461E4B4FF4C251C2E9053405
:10D5E80003231C4842F8103F0EF082FD0221AD468D
:10D5F80020460EF01DFE0C37BD46F0BD394601F041
:10D6080025FF38B91E2120460EF012FE28460EF0DE
:10D61800E4FFF0E70E2142F22000FFF7B1FA0446DA
:10D628000028F3D00E210C3011F044F800230680B6
:10D63800C0F80A303B88214643807B888380BB88BA
:10D64800C380FB88038142F22000FFF781FEDDE7FB
:10D658006A220200A40902002DE9F04FDFF8548184
:10D6680087B0DFF8549100AFD8F80C3053486FF307
:10D678009433C8F80C3001F0DFFC451C4FF0FF3242
:10D688004FF0FF3329464B480BF0C2FB60B140F620
:10D69800DE234A464A494B480DF07EFA404080F363
:10D6A80011884FF0030002DF4FF0030A414E15B90D
:10D6B8000BF09EF8D8E7F368C3F38633022B60D9E2
:10D6C800042B68D1337B002B5ED1002200233E4817
:10D6D80010F08FFF044660B94FF427634A463B4970
:10D6E80038480DF059FA404080F311884FF0030094
:10D6F80002DFDFF8DCB04FF0FF334FF0FF32354880
:10D708000AF000FCDBF840318BB1334B4FF4825107
:10D718007B610223314807F110023B610EF0E8FCFF
:10D72800DBF8400107F0C6FA0023CBF84031204669
:10D7380010F090FFCBF840012046FFF701FE00B340
:10D74800EB4688B06A46264B4FF4C251C2E9053011
:10D758000323224842F8103F0EF0CAFCDD461D485C
:10D768000AF0AAFB204607F0FFF90C221D4B1F21E7
:10D7780002FB003022464088FFF742F8204607F0B7
:10D7880099FA1436013D92E7012BFAD130693838FD
:10D7980002F024F9F5E76C4688B06A4612490F484A
:10D7A800C2E905134FF4C45142F810AF0EF0A0FCC3
:10D7B800A546E6E7D8810020EF220200EC81002090
:10D7C800162502003C2302004C8100204F3B02003A
:10D7D800008000202881002006270200A4090200FA
:10D7E8005426020074970020212702002DE9F041F9
:10D7F800044600F10C06304610F0AEFFB4F8108075
:10D808000546B8F1010F0CD840F685631B4A1C4940
:10D818001C480DF0C1F9404080F311884FF0030017
:10D8280002DF3046022110F07FFF074600780EF035
:10D838001DFCC20706460CD440F689630F4A1249FC
:10D8480010480DF0A9F9404080F311884FF003000B
:10D8580002DF052321460D4A3878FEF70BFEB30791
:10D8680007D56369A4F8108013FA85F5E560BDE86B
:10D87800F0812046BDE8F04107F01CBAEF22020013
:10D88800232302003C23020042270200AC100200BE
:10D89800B0B5037E0446012B00AF06D0032B12D18E
:10D8A800FEF79CFD0020BD46B0BDC36818780EF099
:10D8B800DDFBC207054602D52046FFF797FFAB07F9
:10D8C800F0D52046ECE76D4688B06A460849094815
:10D8D800C2E9051303234FF4C25142F8103F0EF07A
:10D8E80007FC2046AD4607F0E5F96FF01500DAE7CA
:10D8F8005B270200A4090200084A0346D2F8640123
:10D9080030B9D96839B1596929B1C2F86431704759
:10D918006FF0770070476FF01500704700800020A7
:10D928002DE9F84F042100AF3E4C3F480EF0C9FBEB
:10D93800002000F061FD3D4DE2793D4B2046012A73
:10D9480088BF1D466E46FEF771FB8AB06A46394BA2
:10D95800A346C2E905350125374BD0611362374B21
:10D968004FF42351364842F8103F0EF0C1FBDFF860
:10D97800D480B546DFF8C890334EE3790BF1070B36
:10D988009D4238DB94F870506E462846FEF786FCB8
:10D998008CB06A46B4F87210B4F87630C2E9075110
:10D9A8004FF400755362DFF8A4C0294BC2E905C0E3
:10D9B80015854FF4535142F8103F21480EF098FB5B
:10D9C800B54694F871603046FEF768FC8AB06A463E
:10D9D800B4F874301F49C2E907631F4BC2E9051048
:10D9E80095844FF43351164842F8103F0EF080FBEF
:10D9F800BD46BDE8F88F5846FEF718FBEA468AB0E0
:10DA08006A4640F20133C2E90565D06113844FF4D8
:10DA18001351484642F8108F0EF06AFB0135D5467F
:10DA2800ABE700BF00800020D480002063400200E4
:10DA38006F2702007327020000020103040000029E
:10DA4800A4090200040000018227020093270200B3
:10DA580006000001D12702000500000110B5FAF701
:10DA6800FBFC034B1B6813B1BDE81040184710BD01
:10DA7800EC970020F0B58FB03B4D0646D5F86431E1
:10DA880008AF83B9394B6FF012047B6102234FF45E
:10DA98008251374807F110023B610EF029FB2046FE
:10DAA8001C37BD46F0BD6FF0020105F1D4000EF041
:10DAB80022FB01210EF005FB10EA010450D12D4B89
:10DAC8001E600A4605F5947011F09CFF05F5A670D6
