:10000000483E0020753000001D22010061300000D4
:10001000613000006130000061300000613000009C
:100020000000000000000000000000006931000036
:10003000613000000000000001310000613000006C
:100040005933000059330000593300005933000080
:100050005933000059330000593300005933000070
:100060005933000059330000593300005933000060
:100070005933000059330000593300005933000050
:100080005933000059330000593300005933000040
:100090005933000059330000593300005933000030
:1000A0005933000059330000593300005933000020
:1000B0005933000059330000593300005933000010
:1000C0005933000059330000593300005933000000
:1000D00059330000593300005933000059330000F0
:1000E00059330000593300005933000059330000E0
:1000F00059330000593300005933000059330000D0
:1001000059330000593300005933000059330000BF
:1001100059330000593300005933000059330000AF
:10012000593300005933000059330000593300009F
:10013000593300005933000059330000593300008F
:10014000593300005933000059330000593300007F
:04015000593300001F
:04015400FFFFFFFFAB
:1001580053B94AB9002908BF00281CBF4FF0FF3126
:100168004FF0FF3000F00CB8ADF1080C6DE904CE8B
:1001780000F008F8DDF804E0DDE9022304B0704778
:10018800704700BF2DE9F04786468C460846089E12
:10019800154674461946002B40F0C1808542B2FAD4
:1001A80082F245D94AB1C2F1200300FA02FC954017
:1001B80094402EFA03F343EA0C0C4FEA154EA8B20A
:1001C800230CBCFBFEF80EFB18CC08FB00F943EA35
:1001D8000C43994528D9EB1808F1FF3704D2994503
:1001E80002D9A8F102072B44A3EB0903A4B2B3FB7D
:1001F800FEFC0EFB1C330CFB00F044EA0344A04257
:1002080014D92C190CF1FF3304D2A04202D9ACF155
:1002180002032C44241A43EA07401EB1D4400023A9
:1002280034607360BDE8F0874746DDE76346F1E771
:1002380092BB431B01214FEA154EAFB2200CB3FB12
:10024800FEFC0EFB1C330CFB07F840EA0343984501
:1002580061D9EB180CF1FF3004D2984502D9ACF102
:1002680002002B44A3EB0803A4B2B3FBFEFC0EFB75
:100278001C330CFB07F744EA0344A7424DD92C1959
:100288000CF1FF3304D2A74202D9ACF102032C448B
:10029800E41B43EA0040C0E7C2F1200395409440C4
:1002A80020FA03F12EFA03F34FEA154E9040AFB24D
:1002B8000343B1FBFEFC0EFB1C10190C0CFB07F8EA
:1002C80041EA0041884522D969180CF1FF3004D26F
:1002D800884502D9ACF102002944A1EB08019BB280
:1002E800B1FBFEFC0EFB1C110CFB07F743EA0143B4
:1002F8009F420ED9EB180CF1FF3104D29F4202D96C
:10030800ACF102012B44DB1B41EA004193E7604654
:10031800E3E76146F7E76046A4E76346B8E7834248
:1003280006D916B9002108467CE7C6E900E0F9E7D6
:10033800B3FA83F78FB9834201D3724508D8BEEB6D
:10034800020460EB030301209C461EB9002169E703
:100358003846FAE7C6E9004CF8E7C7F1200CBB407D
:100368000EFA07F522FA0CF42EFA0CF1BA401C43E7
:1003780020FA0CF3B8404FEA144901431FFA84FEEF
:10038800B3FBF9F809FB18300B0C08FB0EFA43EA2B
:1003980000439A4540D9E31808F1FF3004D29A4542
:1003A80002D9A8F102002344A3EB0A0389B2B3FBE4
:1003B800F9F809FB183308FB0EFE41EA03418E45A4
:1003C8002CD9611808F1FF3304D28E4502D9A8F15F
:1003D8000203214443EA0040A1EB0E01A0FB02986E
:1003E8004145CE46434602D306D14D4504D2013895
:1003F800B9EB020E68EB0403002EA7D0B5EB0E0292
:1004080061EB030101FA0CFC22FA07F3F9404CEA0C
:100418000303C6E9003199E74046C5E74346D9E7F3
:1004280010F8012B11F8013B012A28BF9A42F7D096
:10043800D01A7047034611F8012B03F8012B002A44
:10044800F9D17047034613F8012B002AFBD1181A7B
:100458000138704700000000F0B583B0604D00AF70
:10046800D5F86431996811F001011AD140F60340BA
:100478003A1D04F093F80446002840F0AD807868EF
:10048800C3681B785BB905F1D403D3E8AF2F02F03A
:100498000902D3E8EF1FC3E8E42F002CF9D10AF0D2
:1004A80039FD002141F203003A1D04F077F80446B3
:1004B800002840F091807B684A4EDA68D2F8010043
:1004C800D2F8051003C618460AF024FD214641F269
:1004D80001003A1D04F062F8044600287CD17868CF
:1004E800C3685A7885F870205A88A5F872201A7956
:1004F80085F87120B3F80720A5F87420B3F8053003
:10050800A5F876300AF006FD214641F202003A1DB0
:1005180004F044F8044600285ED1D7F804C0DCF89B
:100528000C20531C4132344618685968083303C4F8
:1005380093422646F7D160460AF0ECFC05F0EEFD42
:100548000446002848D195F88A30990610D402212B
:10055800254A264811F05DFF95F87C305A0649D4A3
:100568000121234A214811F054FF6FF0120433E0AF
:10057800072140F6334003F0D7FF0646002800F075
:10058800408107210C3013F027FF45230370062311
:10059800C0F802408471447004712246C370314629
:1005A80040F6334003F0FAFF0446A8B9012140F6AB
:1005B800314003F0B9FF0646002800F022810121EE
:1005C8000C3013F018FF2246314640F6314003F054
:1005D800E5FF04460028BFD020460C37BD46F0BDD5
:1005E80000000020780000205D85010028680100D7
:1005F8008B850100002142F203003A1D03F0CEFF73
:1006080004460028E8D17B68A34EDA68D2F80100D6
:10061800D2F8051003C618460AF07CFC214642F2BF
:1006280002003A1D03F0BAFF04460028D4D17C68C2
:10063800E368B3F8012091B249B1D97839B1A5F886
:100648000421DA78114606F1280015F04FFA204601
:100658000AF060FC95F87C6016F0200618D102219B
:1006680040F66D4003F060FF0446002800F0C980A2
:1006780002210C3013F0B0FE0123214603704670AE
:10068800324640F66D4003F089FF04460028A3D1A6
:1006980095F89C301B0712D5002142F21C003A1D28
:1006A80003F07CFF0446002896D17868C368D3F825
:1006B8000120D3F80530C5E938230AF02BFC95F85A
:1006C800D8309E0621D53846B91C03F0DFFF044612
:1006D800002881D1042142F2240003F025FF0646B8
:1006E800002800F08E8004210C3013F075FE3B8842
:1006F800224603807B883146438042F2240003F07F
:100708004DFF044600287FF467AF95F8D8305C06A3
:1007180010D5002142F22A003A1D03F03FFF04469B
:1007280000287FF459AF7868C3685B7885F8203172
:100738000AF0F0FB082142F2010003F0F5FE04463E
:1007480000285ED008210C3013F046FE95F8D8102A
:1007580040F2022311F0400F08BF03230246880726
:100768004CBF43F02C0043F00C008B0695F8D930B1
:1007780048BF40F0400013F0090F95F8A23018BFA9
:1007880040F4006003F00603CE0748BF40F01000B5
:10079800062B08BF40F4C070002111F054FE21461A
:1007A800002242F2010003F0F9FE044600287FF41B
:1007B80013AF95F87C30B5F80411980624D4C9B95C
:1007C80041F205003A1D03F0E9FE044600287FF4D3
:1007D80003AFB5F804317C684BB9E368B3F801207E
:1007E800A5F804219A882D48114615F07FF920466E
:1007F8000AF090FB082140F6014003F095FE0446FC
:1008080060B96FF06804E7E60029F3D10121244AB2
:10081800244811F0FEFD6FF00404DDE608210C30D9
:1008280013F0DAFD95F8D8300246D90729D44FF0ED
:1008380000511D4811F007FE2146002240F60140F4
:1008480003F0ACFE044600287FF4C6AE01463A1D0C
:100858004FF6014003F0A2FE50B3144A022111489A
:1008680011F0D7FD05F0E4F8044600287FF4B4AE93
:1008780006F0A8FC044600287FF4AEAE04F036FC6F
:10088800AAE603A1D1E90001D4E700BFAFF30080D5
:100898009088000200800020D80000200801002075
:1008A800AF8501002868010010880002D285010088
:1008B8007B686D46DC688AB0B4F80130032B96BFBC
:1008C800424A434952F823106A46D3614FF40073F1
:1008D80040481384404BC2E9050142F8103F4FF4E9
:1008E80013513E4811F0A4FDB4F80120AD46022A88
:1008F800B4F8033048D1032B46D8394A52F82310AC
:100908006D468AB06A46D3614FF400733548138444
:10091800314BC2E9050142F8103F4FF413512F48FB
:1009280011F086FDAD466379A679032B98BF2E4A50
:10093800B4F80750D4F809006C468CB094BF52F84C
:10094800231023496A46C2E907364FF40073DFF8DB
:100958009CC09385264BC2E905C1C2E909504FF4F2
:10096800735142F8103F1D4811F062FDA5467868A2
:100978000AF0D0FA00214FF602403A1D03F00EFEAD
:10098800044618B11B4A69E71149B9E778681A4D56
:10099800C368B3F80130A5F8C1300AF0BBFA95F87E
:1009A800C1305B077FF55EAF21464FF603403A1D25
:1009B80003F0F4FD08B1114A50E77868C3685B7822
:1009C80085F8C0300AF0A6FA4CE700BF386F01007E
:1009D800B2830100F68501000400000128680100C7
:1009E800286F01000F860100186F0100278601009B
:1009F8000700000154860100000000207D860100E8
:100A08008B1E59425941014B19707047BD1A00207D
:100A180008B5034810F03DF90022024B1A7008BDD2
:100A280044750100BC1A00200349044B0448002AFD
:100A380018BF194610F02DB95E75010059750100EF
:100A48006675010038B50E4810F023F90D4B1B7878
:100A5800A3B10D4C207888B901250C4B0C491A78A4
:100A68008D8201321A700B4A4A600B4A8A600B4A1F
:100A7800C1E9032308F04CF900B9257038BD00BF5F
:100A880078750100BD1A0020BC1A0020DC03002084
:100A980050160020906C0100310A0000190A00006D
:100AA800014810F0F6B800BF8275010011B1034883
:100AB80010F0EFB8024810F0ECB800BFA0750100C4
:100AC800C075010030B593B012F098F80378044669
:100AD80007AD032B24D8DFE803F0021D1F211349BB
:100AE8002846FFF7A7FCA379059562781E21049292
:100AF800A2780AA80392E278029222790192627996
:100B080000920B4A0EF0A6FB0A480AA910F0C1F899
:100B180013B030BD0849E3E70849E1E70849DFE7D2
:100B28000A212846074A0EF095FBDCE7CB75010041
:100B3800ED75010010760100D2750100D97501002C
:100B4800E37501008396010070B51D4888B00EF06A
:100B580061FB002004F070FB064648BB194D1A489B
:100B680003AC10F096F80FCD0FC42B68174923601B
:100B780002223346009603A805F0B0F9014698B161
:100B8800134810F086F8134810F083F8124806F05E
:100B9800F7FA124810F07DF800214FF400400DF0EC
:100BA800B7FCFFF74FFFF7E70D4810F072F8EAE7D8
:100BB80001460C4810F06DF8002008B070BD00BF69
:100BC80027760100006901004D760100B86C01002C
:100BD80064760100AC76010094010020B376010030
:100BE8008A7601002D7601002DE9F04F91B000932F
:100BF80002F004030293C2F3C203013384070546DB
:100C08000E46DDF868900392059340F0BB81041D01
:100C180030B1072909D86FF01B0011B0BDE8F08F7B
:100C280001F00706341DC6F10806009B4FF00008C6
:100C38004FF0040A591E4FF0FF3347460193C3464D
:100C48005346CDF810800DB1009A2260059800280F
:100C580000F3E8809848009A824203D3974882427A
:100C6800C0F0E080039AA4EB050E92074FEA9E00BD
:100C780000F103810F2F00F2B180002D00F00581F3
:100C880007F140020DEB020C019A0CF8200C0CF84D
:100C9800102C049801300490E7E07A285DD84B289E
:100CA8000ED8472859D829282DD8252852D054D8C5
:100CB80020287AD02338D0F1000B4BEB000B74E0DE
:100CC8004C382E2849D8DFE800F070484848484892
:100CD8004848484848484B48484848484848485978
:100CE800484B4B595959704B6D487048184B184828
:100CF80048827F4B48484B487F0000204FF0000B4C
:100D08004FF0040A38E001222A38C0B202FA00F093
:100D180010EA0E0F49D110F0625C2FD110EA020BD5
:100D280043D06046013C5444B4FBFAF40AFB04F493
:100D3800002D61D0A3EB050CA444B4453FF66BAF7E
:100D4800002868D1042B47D159F8043B23600423B9
:100D580004342AE0019A013A01924FF0000B24E092
:100D680011F8010C6C2834D1002011F8023C83469C
:100D78006C2BC5D14FF0080A5346D3E709F1070990
:100D880029F00709073424F00704F9E802AB35B164
:100D980006982044B0423FF63EAFC4E900AB4FF09E
:100DA800000B08344FF0080A534611F8010F0028C9
:100DB80078D0BBF1000F7FF470AF2528F5D14FF044
:100DC800010B019B013301934FF0040AECE75846ED
:100DD80094E700208346A5E7082B02D06FF01500A2
:100DE8001BE709F1070929F00709F9E80223C4E913
:100DF800002308230834D8E768B9042B02D109F185
:100E08000409A4E7082BE9D109F1070929F0070922
:100E180009F10809EDE7059A013A059259F8042BFA
:100E2800009210E7039A900720D54FF0010CA4EB2D
:100E3800050E4FEA9E00BEF5007FCFD20F2FCDD80A
:100E4800F5B107F140020DEB020E019AC0B20EF89F
:100E5800200C0EF8102CBCF1000F3FF41AAF60F014
:100E68007F000EF8200C08F101080137C5F10802CF
:100E78004FF6DA7E0434069297E74FF0000CDAE773
:100E8800BCF1000F01D00136EFE7029802360028C6
:100E9800EBD10098CDE90631FFF7D4FADDE9063148
:100EA8000644E2E7631BB3F5806F97D245B9A6F114
:100EB8000804E018B1E600BF54640100FC9F01007B
:100EC800029A9B0828602B709DF81030C2B1EB7015
:100ED80085F80280B8F1000F05D0002208A8C5F1F6
:100EE800010C97420ED14FF0000AC5F101030DF134
:100EF800200901930DF1300B574512D1601B8CE688
:100F08006B70E5E710F8013B190608D504EB0C0EE9
:100F1800B64503F07F033FF67EAE04F8013B01328D
:100F2800DFE7B8F1000F03D099F90020002A17DB9A
:100F3800029BD3B11AF80B2004F8012B0022019B65
:100F480098182044B0423FF666AE99F80000009920
:100F580004F8010B2046039215F050FA039A144442
:100F68000AF1010A09F10109C6E799F8002055F8C4
:100F780022300093029B009845F82230FFF762FA6E
:100F8800421CDCE76FF00D0047E600BF2DE9F04F8B
:100F980097B000AFD7F880B03B62CBF3C0030446EC
:100FA800894690F802A0FA62BB6141B94578007899
:100FB8000AEB800020444D4517D8A0EB0409E378DC
:100FC800FB61BAF1000F02D01BF0010F16D1FB69CB
:100FD80053BBFB6A1BB1494620463A6A98474D46BF
:100FE80028465C37BD46BDE8F08F461C3046FFF703
:100FF80029FA0130304409F10109DCE762682378F5
:101008007A62FA6A9900796104EB8301002A40F058
:1010180001810E464FF000084D4601EB0A094E4586
:101028004CD101EB0A0610E01BF0020FD1D0237857
:101038009A007A61626804EB83017A62FA6A002A8C
:1010480077D14D46904601EB0A061BF0050F0CBF01
:1010580002230123FB62FB6906EB430A0BF0020340
:10106800BB625645BCD016F8021B16F8013C54F872
:101078002390AF4B994502D3AE4B994536D3BB6904
:10108800002B40D0786A0FF0DBFD00283BD0E94602
:101098008AB06A46A84B53617B6AC2E906314FF4AD
:1010A80000731384A54B42F8103F00234FF41251EC
:1010B800A34801F0BFF8023DCD46D2E716F8013B40
:1010C800F96254F82300FFF7BDF9D7F88430F96ABC
:1010D80001304BB1D7F8883098453EBFD7F88430F7
:1010E80023F8180008F10108054498E7BB6923B103
:1010F800786A0FF0A5FD0028C9D11BF0010F05D1B2
:10110800FB6AED1AADE7BB6A002BAAD04846FFF789
:1011180099F9D7F8843053B1D7F8883098453FBF4C
:10112800D7F88420431C22F8183008F10108054438
:1011380097E7BAF1000F73D01BF0040673D0D046BE
:10114800002607F1480052463B61B96215F056F98E
:10115800B96A3B6901EB0A02BA62FA69F969520095
:10116800FA60BA6A02EB41023A610BF00202BA6015
:101178003A69B96A8A4258D162781BF0020F18BFDF
:1011880000217A6208BF4FEA5801B2181BF0010F1C
:10119800D2B240F09F801BF0040F14BF40460020DD
:1011A800BB616270A070E17020463A6A7969FB6A97
:1011B8009847051EFFF614AFBB69414623707B6A4A
:1011C8003A6A6370FB6984F802A0E37007F148008B
:1011D800FB6A9847B0F10008C0F2B4807B69A9EBBC
:1011E8000A01C91AFB683A6AC91AD7E90A03984773
:1011F8000028C0F2A9804FF0000BA84408EB0005B6
:1012080007F1380AB34567D300213A6A0846FB6AF2
:101218009847E5E656464FF0000807F1380092E790
:101228005646D04696E7B04694E7BA6A12F8021BCB
:1012380012F8015CBA6254F825003D4A904202D384
:101248003C4A90421ED3BA6932B1786A7B600FF08B
:10125800F7FC7B6800288BD1BA6802BB08F128022A
:1012680007F1300C08F10100944407F1580208F125
:10127800020852FA80F00CF8101C5FFA88F800F89F
:10128800105C75E7BA693AB1786A7B600FF0D8FCF0
:101298007B6800287FF46CAF1BF0010F09D006F1C2
:1012A800280207F13000711C161806F8205CCEB22F
:1012B8005EE71BF0040F3FF45BAF08F1280207F16B
:1012C800300008F1010102EB000808F8105C5FFA31
:1012D80081F84DE7002063E71BF80A3054F82390A3
:1012E80087F83730D7F88430FBB133F81B800121F9
:1012F8003A6AFB6A07F137009847002824DB05445F
:10130800B8F1000F06D14846FFF79CF800F1010834
:101318001FFA88F8414648463A6AFB6A9847002807
:1013280012DB05440BF1010B6CE7D7F88480DEE78C
:1013380054640100FC9F0100BA760100040000011A
:101348007068010045464BE6054649E6014B1860C2
:10135800704700BFAC01002080B505460E46174611
:1013680098460DF0F3F8034615F066F80446DFF8E2
:101378001890424649F8003039463046A84754F894
:10138800090001F08BFE00BF080000002DE9F047BE
:10139800058B04462807904611D4022905F0070555
:1013A80040F0CD8020460FF0E4FE78B10138218B63
:1013B800042811D8DFE800F0C3106D8595000129D5
:1013C8000CBF45F0100545F02005258388F31188EA
:1013D800BFF36F8FBDE8F08701F0070AAA4500F058
:1013E800A6800027B9463E46A368002B00F0BD80C2
:1013F80041F00801218388F31188BFF36F8FA1683A
:10140800002900F0BB800D68002900F0B780334642
:1014180052462046D1F80480C047002D76D02B686C
:1014280029461D46F0E701F007035A1F012A1BD879
:10143800002221F00701062B276889B2C4E900229F
:1014480009D13B4603E0628B013262831B68002BA3
:10145800F9D141F00201204621830FF08AFE0028CD
:101468007BD041F0200177E0042B0AD121F007015D
:1014780089B2204621830FF07CFE10B141F0200193
:101488002183218B01F0070AAA4550D00027B946CD
:10149800AAE7236921F0070141F00601062DD3F8D8
:1014A800009021832DD1B9F1000F40D041F00801FF
:1014B800218388F31188BFF36F8F20463949C847C5
:1014C80029E021F00701236941F0040189B2042DC4
:1014D800D3F804902183E6D000274FF0040A3E4653
:1014E80082E721F00701236941F0050189B2052D42
:1014F800D3F808902183D6D000274FF0050A3E463E
:1015080072E700274FF0060A3E466DE72B4687E74D
:10151800B9F1000FD1D14FF02003EFF3118883F315
:101528001288BFF36F8F238B23F008032383258B47
:10153800EA062ED525F01003238305F00705666912
:10154800218B002EBFF66FAF00232768C4E9003354
:1015580021F0070141F001012183218B4FF000099F
:1015680001F0070AAA457FF43FAF002F9BD041F056
:101578000801218388F31188BFF36F8F002FC7D02C
:101588003D6839463346524620460FF01EFE2F4628
:10159800F4E7AB067FF51AAF25F02003238305F0A7
:1015A8000705FFE6FF11010010B530B90B480C49DB
:1015B8000FF0C8FE6FF0150010BD836833B90748F7
:1015C80008490FF0BFFE6FF00400F5E71B6813B180
:1015D800BDE8104018471846EEE700BF80680100D4
:1015E8006E7701007F77010010B530B90B480C49C0
:1015F8000FF0A8FE6FF0150010BD836833B90748D7
:1016080008490FF09FFE6FF00400F5E75B6813B11F
:10161800BDE8104018471846EEE700BF8068010093
:101628006E7701007F77010070B508B101B132B95A
:101638000B480C490FF086FE6FF0150070BD8468EA
:101648000CB1E56835B9064807490FF07BFE6FF025
:101658000400F3E741F8040BE368BDE8704018475D
:10166800806801009D7701007F77010010B504466E
:1016780030B9104810490FF065FE6FF0150010BD25
:10168800006830B90B480D490FF05CFE6FF001009F
:10169800F5E783680BB11B6933B9064808490FF0B1
:1016A80051FE6FF00400EAE7616898470028E6D128
:1016B8002060E4E780680100C9770100DA7701005B
:1016C8007F77010070B51346044630B910481149B8
:1016D8000FF038FE6FF0150070BD006830B90C4887
:1016E8000D490FF02FFE6FF00100F5E782680AB18F
:1016F800956835B9064809490FF024FE6FF00400D3
:10170800EAE70A46AC466168BDE87040604700BF3A
:1017180080680100C9770100DA7701007F7701004E
:10172800034A13680BB9526813600020704700BF62
:10173800B001002030B50C460E4985B00291D0F8B2
:10174800AC110546CDE9003100F1E0014FF0FF335F
:1017580020460BF049FF50B9012384F86430D5F8CE
:10176800A83123B1204605B0BDE83040184705B080
:1017780030BD00BF4514010038B50C46114605467A
:101788000FF05EFE034638B9284604490FF058FEAC
:1017980003460020236038BD0120FBE7C89D0100F7
:1017A8002DE9F04F012381460569466885B005F5A6
:1017B8005977D7E8EF2F002A03D1C7E8E13F00297E
:1017C800F7D10CBF1A46002240F0B580B368B16A61
:1017D80005F5E4781C1F10460FF0B7FE844263D865
:1017E800013A00F0A280B2FA82F24FF00044D440ED
:1017F80072682046073222F00302C5F86022B16AF7
:101808000FF0A3FEC5F86402B36A4046634303338E
:1018180023F0030302EB4302230103EB44030933E0
:1018280023F0030303EBC403C5F858221A44083213
:10183800C5F854227368C5F85C42C5F850323F4B6E
:10184800C5E9A963D9F80030C5F8FC31316800F062
:10185800DFF9044630BBD9F804A0D9F81090DAE9CA
:10186800073409F5307B012B584608BF103C14F0AB
:101878001BFA0023DAF8240031494FF4806201EBA7
:1018880080210093584623460DF034F909F52C7051
:101898002C4914F0AFF9DAF8140083685C682CB9A5
:1018A8006FF05704002139E0013294E74B46264A8D
:1018B800DAF81810A04704460028F3D1DAF8140023
:1018C80083681B69002BEBD00122DAF818109847BF
:1018D80004460028E6D11D4B2846C5F8A8311C4B04
:1018E800C5F8AC311B4B0393D5F810320293D5F8E9
:1018F8000832CDE90083D5F86832B26AD5F86013AA
:1019080000F04EF904460028CCD105F1E0000BF0B8
:101918001BFF0028C5F868030ADB022138460FF0D0
:10192800C4FD204605B0BDE8F08F6FF00B04B9E7A1
:101938006FF01504B6E76FF07704F2E79B14010027
:10194800B01B00208114010075140100611900000A
:1019580029160100E314010013B5044640B1002321
:101968000122CDE90032074BD0E909120BF0F0FD56
:10197800A36E1B6823B1E06E02B0BDE810401847A3
:1019880002B010BDC89D010013B504460846216980
:1019980001F55971D1E8AF1F022910D193B1A0B157
:1019A8000121CDE900311346D0E909120BF0D0FD31
:1019B800074B984208BF6FF00B0002B010BD6FF0E4
:1019C8000F00FAE76FF04C00F7E76FF00100F4E75B
:1019D8002EF8FFFF2DE9F74388461546066906F5F8
:1019E8005973D3E8AF3F022B5FD1136823B96FF067
:1019F800150003B0BDE8F0831B78002BF7D0D6F8AC
:101A08006093B9F1000F33D106F5D8774FF0FF3264
:101A18004FF0FF3338460CF0EDFD30462A6801A937
:101A2800FFF7AAFE019C1CB938460FF03CFDDEE723
:101A380005F10803A3666B6984F86490E366E463C0
:101A480060B138460FF02FFD21463046236E2A68D4
:101A5800FFF770FE0020C8F80040CAE72022296876
:101A680004F1400014F090FB38460FF01CFDF1E73C
:101A780030460F490FF0E4FC04460028B7D005F1C2
:101A8800080383666B69C063C366002380F864300B
:101A980020222968403014F077FB22460121304685
:101AA80000F060F80028D5D0A1E76FF00F00A0E79C
:101AB800C89D010010B50C46006900F55973D3E8BC
:101AC800AF3F022B0FD189B10A4900F52C7014F0F1
:101AD800CFF8204613F001FB70220021204614F0B5
:101AE8009AFC002010BD6FF00F00FBE76FF00100BB
:101AF800F8E700BF681600202DE9F04F05460E46AE
:101B080090460027D0F8B0A085B0AAF5AE7421465B
:101B18003046FEF785FCE0B9114BA4F1400B029367
:101B2800DAF810303246CDE9008329464FF0FF330A
:101B38005846AAF5CE790BF057FD60B970230122FB
:101B480003FB079383F86420DAF80C300BB158468E
:101B58009847703417B105B0BDE8F08F0127D6E774
:101B6800571601001FB5144690B18AB1012912D148
:101B78000A4B00F1E0010293D0F8AC3140320193F6
:101B88004FF0FF33204600930BF02EFD04B010BD3C
:101B98006FF01500FAE70020F8E700BF57160100BC
:101BA8002DE9F04387B00E46DDE90E811446DDE9E4
:101BB80010251F4630B329B3DFF850C000F1E00903
:101BC800002D08BF65469EB9CDE9034400F5CE74E3
:101BD8002046059613F0A6FC03ABCDE900432A4640
:101BE8003B46414648460BF0D5FD07B0BDE8F083BB
:101BF800002241460E9248462A4607B0BDE8F04307
:101C08000BF0F4BE6FF01500EFE700BF011B0000FA
:101C1800F0B50E46044689B0002872D0436B0BB964
:101C2800394B436301232246E3630023D4F8981019
:101C380004F1400042F8301FCDE901334FF0FF3383
:101C48000093D4F89C3012F02DFF304A06AB92E88E
:101C5800030083E8030018460BF080FB0546D8B95B
:101C680004F134000BF05CFB0546A8B9616B284809
:101C780005AA12F0F3FE054670B9059B9A6872B181
:101C88000C33D4F89400C4F8A0300FF011FDC4F858
:101C9800D40030B96FF00B05284609B0F0BD0346F3
:101CA800EFE7D4F894000FF003FDC4F8D80000283B
:101CB800F0D0D4F88C30D4F8A010C4F8A83004239D
:101CC800C4F8AC30C4F8C4300223A362114BB4F892
:101CD8009420D4F8D470C4F8B810C4F8D010D4F84C
:101CE8009010236204F1A403A4F8B020C4F8A470EF
:101CF800C4F8C010A4F8C820C4F8BC00A661E36208
:101D0800CAE76FF01505C7E70478010014690100F8
:101D18000E780100F46C01002DE9F04704460746EF
:101D28004FF00109DFF8508014B93846BDE8F08754
:101D380094FAA4F5B5FA85F509FA05F32E0108EB2E
:101D480005156FEA030A24EA03042B7B002BEBD06A
:101D580058F806301B694BB9464473680422284674
:101D6800196807EA0A0700F051FADDE7284698479C
:101D78000028D9D1F0E700BFE868010030B500229B
:101D880089B00F490F4814F049F8002200230024B5
:101D9800CDE906230E230C4DCDE903344FF44072F0
:101DA8002846CDE90144094B094900940CF044F850
:101DB8000849284613F092FC204609B030BD00BF00
:101DC800E11D0000580E0020D0090020B9200000B5
:101DD800B01F00201678010001480CF0B9BC00BF04
:101DE800B40400202DE9F04780461F480F460FF045
:101DF800B1FC0646002830D000252846BDE8F0870B
:101E0800237B73B12368DB680BB1204698472368AE
:101E18001B69D3B9636804222046196800F0F6F9F3
:101E2800013610344C45EBD3B8F1000FE5D0002D46
:101E3800E2D02846FFF770FF0546002FF7D00021B3
:101E48004FF4A4700CF064FBF1E720469847002893
:101E5800E0D00AFA06F31D43E2E705464FF0010A0F
:101E6800024CDFF80C90DDE7A0160020E8680100BE
:101E7800F8680100014B53F820007047346D0100E9
:101E880008B5034608462BB1044A136000F08EFCDF
:101E9800002008BD6FF01500FBE700BFDC01002043
:101EA80010B5044C237813B903480CF051FC0123F6
:101EB800237010BDBE1A0020B404002010B50446DB
:101EC80006480FF047FC3CB1054BD3E8EF1F01393A
:101ED800C3E8E21F002AF8D110BD00BF9816002001
:101EE8009C16002000200146034BD3E8EF0FC3E8FF
:101EF800E21F002AF9D170479816002070B5FFF745
:101F0800F1FF0546074C084EB44200D370BD636824
:101F18005B792BB123685B6813B129462046984743
:101F28001034F1E7E8680100F868010010B5044CC6
:101F3800044920460EF0C3FF034B1C6010BD00BFD0
:101F4800F0030020206D01009016002008B5002342
:101F5800074A4FF400411370064A07481360074ABE
:101F68001360FFF78DFFBDE80840FFF7DFBF00BF34
:101F7800BF1A002098160020591701009C1600204F
:101F880001460022002301480EF0BABFF0030020EA
:101F980001480FF053B800BFF0030020024B014680
:101FA80018680FF09DB800BF9016002001480FF088
:101FB800D3B800BFF003002070B5264B187800286E
:101FC80047D0FFF7E5FF054670B1234BD3E8EF1F75
:101FD8000139C3E8E21F002AF8D1204C204EB44250
:101FE8002DD32846FFF7DAFF1E4B1F4C1B68002B2A
:101FF80019DD13F0CCFE4FF47A72A0FB020302FB4A
:102008000131C30B43EA4143D4E900209B1A40F253
:10201800E9324FEAD13161EB0001934271F10001DD
:1020280001D3FFF76BFFD4E9003213F57A7342F15D
:102038000002C4E90032BDE87040FFF7B7BF63682B
:102048005B7923B12368294620461B6898471034DA
:10205800C5E770BDBE1A00209C160020E868010084
:10206800F868010098160020500E002070B50D4D3C
:10207800297861B90120FFF7B5FE0B4C0B4EB4422D
:1020880006D3FFF799FF0028FBD101232B7070BD01
:1020980063685B791BB1236820469B6898471034B6
:1020A800EDE700BFBF1A0020E8680100F8680100EA
:1020B80000212DE9F0470846FFF794FE044658B37F
:1020C80040F267684FF0000914F0B6F91B4B1C4A40
:1020D8001B58136033B11B4B1B68092B02DD1A48D0
:1020E8000CF036FB0025194FDFF85CA044B1204600
:1020F800FFF712FE044618B94FF0FF384FF0FF39CA
:10210800FFF75AFF064628B9B5B942464B4650462E
:102118000CF044FB3546E9E74FF0FF384FF0FF3944
:10212800D2E72B689B691BB10022284611469847C5
:102138001035BD42F5D3E8E7054DFAE70800000081
:10214800941600209C160020B4040020F8680100B2
:10215800E868010013B518480FF0FCFA174B1B7814
:102168007BB14FF02003EFF3118483F31288BFF3A0
:102178006F8FFFF721FF84F31188BFF36F8F02B0D1
:1021880010BD0F4B1B68002BF9D050B9002200235B
:102198000C48CDE900234FF4004200230CF050FF17
:1021A800EDE70928EBD1074813F044FE064802B0D2
:1021B800BDE810400CF0CCBA9C160020BF1A0020D5
:1021C80094160020580E0020B404002010B5064BC9
:1021D80004461B6898472146A06004480EF00EFF8D
:1021E800BDE81040FFF7B6BFDC010020F003002077
:1021F800044A054B9B1AB1EBD30F34BF52F8310098
:1022080000207047F0670100E8680100084B10B42F
:10221800C31A44681B110133237143689A71012260
:102228004368196043685A7110BCFFF739BE00BF94
:10223800E86801002DE9F04F8FB0C1F34A2804AFD8
:102248000D469146B8607B600C0DB8F1000F63D065
:1022580000264FF0040B4FF00A0A07F11403C7F8E1
:102268000C80C7E907667E620193CDF808B0CDF807
:1022780000A007F11C0332464846F968FEF786FEBF
:10228800B0F5006F03461CD36C468AB0D9F8041029
:1022980004AB26481A46C3E9050140F2FF71D9612B
:1022A8004FF400711984224B42F8103F4FF4125139
:1022B80033462048FFF7BEFFA5462C37BD46BDE88C
:1022C800F08FC0F30A0804F11700184420F0070043
:1022D80080083B60FFF754FE68F35325044690B12D
:1022E8003B6800F11001C7E9083607F11403F961EA
:1022F800CDE900A3CDF808B048460F4AF96807F1C0
:102308001C03FEF743FE68F353252A4620467B68E4
:10231800B9680FF051FAD0E704F1170020F0070070
:102328008008FFF72DFE0446EDE700BF2B7801007B
:102338000400000188680100951701002DE9F04F9D
:1023480087B00446DDE9105ADDE912690F46934665
:102358009846A6B31021334652460020CDF8009087
:10236800CDF81490FEF740FC014605F1170008442B
:10237800144B04F007040BF0070BE40020F00700EF
:1023880003EA412344EA8B1480081C430391FFF7B6
:10239800F7FD44EA0554054640B13EB1334652467E
:1023A8000399CDF800901030FEF71EFC43462246F4
:1023B8003946284607B0BDE8F04F0FF0FDB9314661
:1023C800D3E700BF00FE0F000EB403B503AB53F80C
:1023D800042B01460448019301F0FAF902B05DF8B4
:1023E80004EB03B0704700BFD3180100CA0605D438
:1023F8008B064CBF02490349FFF7E6BF704700BF91
:10240800C79D0100C69D01002DE9F04F89B09A468D
:10241800149B9DF84CB00693159B04460593169B98
:102428000D469046179E0493BBF1000F00F09D8067
:1024380006F4807307930FF0A7F906F00209024625
:1024480000283ED020469249FFF7BEFF0746B9F163
:10245800000F08D016F0440F35D12A4620468D4982
:10246800FFF7B2FF074406F0010353B18A4B204639
:1024780053F82B20894B8A49002A08BF1A46FFF7D0
:10248800A3FF06F48073002B49D006F00803002B45
:1024980063D1B8F1000F66D0424620468149FFF764
:1024A80093FF0546069B3D44002B6DD1049B002BF2
:1024B80073D1F30700F1E58031462046FFF796FF18
:1024C800D9E00746C3E7784B18680028CAD0774B8D
:1024D8004FF47A791B684FF46161B5FBF3F5B5FBEE
:1024E800F0F300FB135509FB05F5B3FBF1F2B5FB5F
:1024F800F0FE4FF03C0C01FB123100FB1E55B1FB06
:10250800FCF309FB05F5B5FBF0F50CFB13112046B0
:102518000091CDE901E56649FFF756FFA2E706F00D
:102528000803EBB1634B204653F82B206249FFF7B1
:102538004BFF0546B8F1000F05D0424620465949E1
:10254800FFF742FF0544BAF1000FABD052462046D0
:102558005A49FFF739FF0544A4E74FF0000AE1E7BD
:1025680006F00805E6E745469CE7BAF1010F069B29
:1025780006D1002B65D1049B002B7CD000250CE0F4
:10258800002BF8D04E485DE04E48069B22464E4947
:102598000EF025FB049B002B69D0DFF83081DFF8B3
:1025A8003091049F3146102F204628BF10274FF046
:1025B800000AFFF71BFF554546DC059B49462046A8
:1025C8001A78FFF701FF4FF0010A1AF0070F03D13D
:1025D80041462046FFF7F8FE57453CD9059B49463A
:1025E800204613F80A20FFF7EFFE0AF1010ABAF1B4
:1025F800100FEAD14FF0000A20463649FFF7E4FEF3
:102608005246059B20469A5C334B995C11F0970F14
:1026180008BF2E223149FFF7D7FE0AF1010ABAF1A5
:10262800100F1DD01AF0070F03D141462046FFF7BF
:10263800CBFE57455246E4D841462046FFF7C4FE34
:10264800EBE720485D46A0E741462046FFF7BCFE81
:102658000AF1010AAFE720462149FFF7B5FEC4E7B2
:10266800059B3B440593049BDB1B049399D1BBF169
:10267800000F7FF41EAF204609B0BDE8F04F0FF001
:1026880017B92046054A0649FFF79EFE14E700BF22
:102698006F78010073780100446D01006A780100C9
:1026A800F584010098780100A8160020A4160020DF
:1026B8007C780100586D01009C780100A278010027
:1026C80001190100D3180100D9370000929D0100BB
:1026D800A7780100AD780100EF9E0100AF780100F6
:1026E800909D01002DE9F0410F884B6805460C4686
:1026F80090468E6886B0C7F382175BB1144A9B1A5E
:1027080043F3CF01002920DB2078C0F3C200FFF794
:102718006FFD0346214651F8102B6088C2F34A2208
:10272800002A01EB020408BF00210022C0F30B10AD
:10273800CDE90408CDE902142846314601970092F4
:10274800FFF762FE06B0BDE8F0810023E2E700BFB4
:10275800F067010042F20F7373B58B4228BF0B4636
:1027680005680446052168460D4A0CF073FD0646C7
:10277800636828460B225B680A490FF08CF8636887
:102788003246694628465B680FF085F863681B2265
:1027980028465B6804490FF07EF802B070BD00BFA0
:1027A800EF7F0100CE780100B278010000210123FB
:1027B800064A904206D8064A01B901231360054B20
:1027C80018607047012140085B00F2E740420F00A3
:1027D800A4160020A8160020F8B50D460446064F9A
:1027E8004618B44201D12846F8BD14F8011BBB684D
:1027F80001485B689847F4E730650100014B0360C6
:1028080000207047A06D01000449431E0F3013F8E3
:10281800012F8A5C83421A70F9D17047147901003C
:10282800F0B50746264E8DB001AD0C460FCE0FC54C
:102838000FCE0FC596E8070085E807003846002F39
:1028480039D0002C39D0381F0246214610344B7835
:102858000D781B0443EA0563CD7804312B4311F846
:10286800025C8C4243EA052342F8043FEFD104217D
:10287800144C8A07036916D1C3F30742A55C1A0EE4
:10288800A25C42EA0562C3F30725655DDBB2E35C3F
:1028980042EA054242EA032221F0030330336B4443
:1028A80053F82C3C534050F8042F013153402C2945
:1028B8000361DED101200DB0F0BD2046FBE700BF6B
:1028C8001C690100147901002DE9F04F0027036805
:1028D8009DB002934368DFF8BCA103938368DDE9E8
:1028E80002460493C36805930369DDE904BE0693B1
:1028F800436907938369DDE9062C0893C369984601
:102908000993089B0093CD590CAB2DBA5AF8049B38
:10291800DD514FEAF223A94483EAB213009D83EA0A
:1029280072634B4425EA020502EA0C0985EA0905A7
:102938002B44434486EA0B054FEA743888EAB40806
:10294800254006EA0B0985EA090588EAB4580437E0
:10295800A844402F03EB0E054344DE46DDF8008013
:1029680040F088804FF0100A4B490A9151460AF10D
:10297800010A0DF1700E0AF00F070EEB870757F8E2
:10298800407C01F00F094FEAB748019788EAF71829
:1029980001F10E0707F00F070EEB870757F8407C89
:1029A80009314FEAF74E8EEA774ECDF82CE001F068
:1029B8000F010DF1700E0EEB81010EEB890959F82C
:1029C80040EC51F8401CBAF1400F7144DDF804E0C6
:1029D80088EADE08DDF82CE041448EEA972E71443F
:1029E80005EA02084FEAF52E2CEA050787EA0807E8
:1029F8008EEAB51EDDF828808EEA756E774458F8A1
:102A080004EF49F8401C77440F4400994FEA733E9D
:102A1800394484EA0607CDF828808EEAB30E07EA1F
:102A2800030704EA06088EEAB35E87EA08077744D4
:102A38000F4401EB0B0ECDF800C0B34622D102992A
:102A48003944016003991944049B4160234483601D
:102A5800059B3344C360069B73440361079B2B4467
:102A68004361089B13448361099B6344C3611DB0A0
:102A7800BDE8F08FB346CDF800C0264694461C4604
:102A88002A4640E7944626462A461C4675463B4653
:102A98006CE700BFA06D0100DC6D010010B50446B5
:102AA800C8B1702200210EF06AFF0B4B0B4A0C498B
:102AB800C4E900230B4B0C48C4E902130B4BC4E9CF
:102AC800040301200A4BA36103F17453A3F5230304
:102AD800A3F69243E36110BD85AE67BB67E6096A5A
:102AE80072F36E3C3AF54FA57F520E518C68059BE8
:102AF800ABD9831F2DE9F04780460C4600AF00296B
:102B080036D0D1E90012E9468AB06D46A3684FF085
:102B1800050A2E461A48C5E90723C5E9050146F8FE
:102B280010AF002332464FF421511648FFF782FBBD
:102B3800D4E90312CD466369AD461348C5E90723B6
:102B4800C5E90501C5F810A0002332464FF421510C
:102B58000C48FFF76FFBCD46E36901210B4A094892
:102B68000EF083FEA3690121094A06480EF07DFE96
:102B7800214640460AF060FFBD46BDE8F08700BF29
:102B8800147A0100C8680100437A0100727A0100D2
:102B9800817A010030BFFFF7FDBF00BF114B124A19
:102BA8002DE9F041D518013DB5FBF3F5DFF83C8080
:102BB8005D430F4B074608EB0304013CB4FBF3F4F9
:102BC80003FB04540E1B30460A4913F017FC701916
:102BD80042460021083E13F01EFC7E6704F10800FF
:102BE800BDE8F081010000000000000004000000C2
:102BF80004000000F8680100044B9968586988428D
:102C080003D003494FF080520A607047641A0020CD
:102C180004ED00E070B52A4C06460D4629482A49BD
:102C28000FF0FFFAA36ADB0647D5264827490FF0BD
:102C3800F8FA1120A36A1C0704D5224824490FF08A
:102C4800F0FA12201E4CA36A990712D521491D4893
:102C58000FF0E7FA636BA26A120609D501211E4A32
:102C680018480EF002FE1EB1A36A23F08003A36287
:102C78001320134CA36ADE0704D5124817490FF036
:102C8800D0FA1420A36A9C0604D50E4814490FF004
:102C9800C8FA15200A4B9A6AD10658BF9A6A9A6AE6
:102CA800920642BF5A6A22F400525A629A6A42F065
:102CB800FF029A6200232B7070BD1020BAE700BF94
:102CC80000ED00E0C8680100AF7A0100C57A010094
:102CD800F87A01000B7B0100237B0100397B01009E
:102CE800587B010010B5244C244925480FF099FA67
:102CF800A36A99013ED5224822490FF092FA1E2074
:102D0800A36ADA0104D51E481F490FF08AFA1F206A
:102D1800194CA36ADB0204D519481C490FF081FA43
:102D28000220A36A1C0304D5154819490FF079FA43
:102D38002120114CA36A590304D5114815490FF0F5
:102D480070FA2220A36A9A0304D50D4812490FF09D
:102D580068FA2320084CA36ADB0304D508480F4906
:102D68000FF05FFA2420A36A6FEA03436FEA134364
:102D7800A36210BD1D20C3E700ED00E0877B0100C2
:102D8800C86801009F7B0100B27B0100CC7B010079
:102D9800F67B0100147C0100397C0100537C0100A2
:102DA80070B5294C06460D46284829490FF039FACE
:102DB800A36AD9043CD5254826490FF032FA1720D2
:102DC800A36A1A0504D5214823490FF02AFA1820C6
:102DD8001D4CA36A9B0512D51C4820490FF021FA07
:102DE800A36BA26A100409D501211D4A17480EF0E9
:102DF8003CFD1EB1A36A23F40043A3621920124CC0
:102E0800A36A590504D5114816490FF00AFA1A2081
:102E1800A36ADA050ED50D4813490FF002FA1B20F4
:102E2800094A936A43F47F43936200232B7070BD71
:102E38001620C5E7A36A9B04F2D504480B490FF096
:102E4800F0F91C20ECE700BF00ED00E0C8680100C5
:102E58007E7C0100947C0100F87A0100A57C0100C9
:102E6800BE7C0100D37C0100EE7C0100587B010090
:102E78002DE9F0418AB0654B0446D3F8048000265A
:102E880000AFC8F3080586F31188BFF36F8F02F00F
:102E98007F43B3F17F4F07D102F00C03082B12D107
:102EA8005B495C480FF0BDF9002634460023FB71EE
:102EB800EB1E092B00F28980DFE803F00A7F827C91
:102EC80087878787878510074CBF0C460126EDE763
:102ED800514950480FF0A5F900234C4DFB71EB6A9E
:102EE8009A0705D54D494B480FF09BF9002332E06E
:102EF800EB6A002B01DA4A49F5E7EB6A5B00F5D586
:102F0800484944480FF08DF96B69A26943F480730E
:102F18006B61BFF34F8FBFF36F8F6B6932F8022C71
:102F280023F480736B61BFF34F8FBFF36F8F4DF640
:102F380002739A4208D0AB6ADBB273B30120F91D61
:102F4800FFF768FE034606E023680121364A314848
:102F58000EF08BFC2368FA79DAB907F1080504F159
:102F6800200C2A4620686168083403C26445154667
:102F7800F7D17A6A002E44D0C2F3080121B96FEA6A
:102F880052226FEA42227A62184607F10801FFF7D7
:102F9800B1FD2837BD46BDE8F081AB6A13F47F4F19
:102FA80004D00120F91DFFF7FBFECBE7AB6AB3F5B0
:102FB800803F9BD3FFF796FEC4E70020F91DBFE7CB
:102FC8000020F91DEFE719498DE7194A18F4F87F31
:102FD800E8468AB0174B18BF13466A461649103D93
:102FE800C2E905134FF400731384144BD56142F8FA
:102FF800103F00234FF411510648FFF71BF9C5464F
:1030080074E722F4FF7222F00102BCE700ED00E051
:10301800347D0100C86801005F7D0100767D0100F4
:10302800977D0100A57D0100C47D0100E07D0100C0
:103038001B7D0100067D0100047E010004000001E3
:10304800044B5A6942F010025A615A6942F480628C
:103058005A61704700ED00E0EFF30880EFF3098153
:1030680001B57246FFF704FF01BD00BF00F05CFD2B
:10307800202080F3118808484FF40061401880F33D
:103088000988EFF314800221084380F31488BFF302
:103098006F8F00F0BBF8000008310020084B9B68D8
:1030A80083420BD1EFF3058343B1064B5A6842F0D4
:1030B80080525A605A6A22F400425A6212F020BCC6
:1030C800641A002000ED00E06FF00A01084A9368D6
:1030D800D967084998674B6843F080534B600023D1
:1030E80083F31188BFF36F8F9368D86F704700BF61
:1030F800641A002000ED00E016498A684FF030009D
:103108001044EFF3098C80E8F01F202080F3128828
:10311800BFF36F8F104F4FF000664A698A603E60B8
:103128004FF07404141920680C4C2060906F002331
:10313800936780F3118802F1300090E8F01F8CF358
:10314800098802F1000004B50FF073F8BDE80440E7
:1031580070470000641A002004ED00E0D816002033
:103168001EF0040F0CBFEFF30880EFF309808169AC
:1031780011F8021C0229FFD001B50FF047F801BD74
:1031880040B2002807DB01234109034A00F01F0071
:10319800834042F82130704700E100E040B2002847
:1031A8000CDB01220649430900F01F00824020334E
:1031B80041F82320BFF34F8FBFF36F8F704700BFD5
:1031C80000E100E0054B420953F82220012300F0FA
:1031D8001F0003FA00F01040704700BF00E100E054
:1031E80040B2002801F10101ACBF00F16040064B7C
:1031F8004FEA4111C9B2ABBF00F5614000F00F00C2
:1032080080F800131954704714ED00E00F4A08B510
:103218000F4B22F07F029A60BFF34F8FBFF36F8F7F
:10322800D3F8882022F47002C3F88820EFF31483BF
:1032380023F0040383F31488BFF36F8F0AF0B0FC04
:103248000BF032FD00F078F80AF0F4FC0000000002
:1032580000ED00E042F8203C009B0B4942F81C3C82
:10326800019B21F0010142F8183C029B42F8081C1E
:1032780042F8143C4FF0807342F8043C0023203A93
:1032880002658367704700BF611300000A4B446FF3
:1032980098600A4B1C60436E83F30B88104681F3D9
:1032A8000988002163B681F31188BFF36F8F00226C
:1032B8000023FEF751F800BF641A0020D81600203A
:1032C800014910220A60704710ED00E072B64040D4
:1032D80080F31188BFF36F8F01B500F023FB00283E
:1032E8000AD0BFF34F8F30BF00BF00BF00BF00BF81
:1032F80000BF00BF00BF00BFBDE8014062B6BFF31A
:103308006F8F704772B6494081F3118801B500F09C
:1033180009FB00280AD0BFF34F8F20BF00BF00BFB2
:1033280000BF00BF00BF00BF00BF00BFBDE8014035
:1033380080F3118862B67047002320210348C21821
:103348000133452B82F80013F9D1704700E100E002
:1033580001B5EFF30580A0F110004FEAC000044961
:10336800014409C99847BDE80140024908470000DF
:103378006C650100012C00001FB5094C094A234661
:103388000121094800F012F900230393074B01219A
:10339800E41A01A80193029400F012F904B010BDD8
:1033A8000000072000000020A06E01006006002039
:1033B80010B50C7A0B6804F01F0223F01F031A43A0
:1033C800CB68640923F01F03054943EA440343F02B
:1033D8000103C1F89800C1F89C20C1F8A03010BDC5
:1033E80000ED00E010B50A4BD3F89030C3F3072383
:1033F800013B984208D901210346064A06480EF0C7
:1034080034FA6FF0150010BDFFF7D2FFFBE700BFDD
:1034180000ED00E01B7E0100A86801002DE9F04FD7
:103428008946144606464FF00008514D85B0C845F8
:1034380027DAD6F804A0BAF1000F44D0BAF11F0F6A
:1034480017D91AF01F0F14D1D6F800B01BF01F0FB0
:103458000FD158460EF0F1FE07460AEB0B00013873
:103468000EF0EBFE874210D06FF01507414A3B463D
:1034780001E04346404A012140480EF0F6F96FF05A
:103488001504204605B0BDE8F08F17F1160FEDD0F2
:10349800BC42EBDDC5F89870D5F89C10C5F898705B
:1034A800D5F8A03021F01F0143F01F0BD6E90032F8
:1034B8001A44994202F1FF3A1DD1D34507D131464A
:1034C800F8B20EF0C3FE08F101080C36AFE731463A
:1034D800C5F89870D5F89C3022F01F0203F01F033E
:1034E8001343C5F89C30E0B20EF0B0FE10F1160F91
:1034F800C5D0441CE7E7C5F89870D5F8A020013B73
:1035080023F01F0302F01F021343D3453146E0B2F4
:10351800C5F8A030E8D00EF099FE10F1160FAED025
:10352800C5F89870D5F89C209DF808300BF1FF3B42
:1035380062F304038DF80830D5F8A0309DF8082010
:103548005B0863F347128DF80820D6E9003213446C
:10355800009323F01F035B44A3EB0A03013023F01D
:103568001F036946C0B20393FFF73CFFBEE700BFE5
:1035780000ED00E0647E0100417E0100A8680100C2
:103588000522044BC3F89420BFF34F8FBFF36F8F0E
:10359800704700BF00ED00E0BFF35F8F0022024BD1
:1035A800C3F89420704700BF00ED00E010B5034C4D
:1035B8002278FFF733FF207010BD00BFC11A00202A
:1035C8002DE9F74F294D8A4606464FF00008AB46CD
:1035D800274FD0451BDAD6F80490B9F1000F3FD039
:1035E8003168084601910EF028FE0199044609EB5E
:1035F800010001380EF021FE84424FF014021D4BE9
:1036080008D002FB08F36FF015024BF8032003B053
:10361800BDE8F08F14F1160F2C60F8D01978A1428C
:10362800F5DD02FB08B0C7F89840C7F89840D7F80E
:103638009C4000F10801007B64F304000871D7F88E
:10364800A0000C79400860F347140C71D7F89C105F
:1036580021F01F016960D7F8A01021F01F0129612E
:1036680008F1010814350C36B3E700BFDC1600205A
:1036780000ED00E0C11A0020F0B54449444CD1F8EF
:1036880090302568C3F307239D4287B07AD800207D
:10369800FFF782FF3F4BC1F8C030854216D13E4C40
:1036A80001A82570FFF7AAF8002506463B4FAE4251
:1036B80013D1002023783549D1F89020C2F307228E
:1036C800934259DBFFF75CFF002053E0616801EB90
:1036D8000011FFF76DFE0130DFE70199280101EBCA
:1036E8000513DA683A40B2F5001F22D0B2F5800F10
:1036F8002CD0B2F5801F36D15A689B680958013B17
:1037080022F01F0003440120844623F01F0340EAEF
:103718004C10CDE902218DF8100002A920780593FC
:10372800FFF760FE002823DB23780135013323707F
:10373800BDE75A689B680958013B22F01F00034403
:103748004FF0020C012023F01F03E0E75A689B6842
:103758000958013B22F01F0003444FF0000C0620DB
:1037680023F01F03D3E701210D4A0E480EF074F829
:103778006FF0150007B0F0BDC1F89830C1F8A0008F
:10378800013399E74FF0FF30F4E700BF00ED00E0A8
:10379800AC6E0100AAFF4400C11A00200000F0FF2F
:1037A800877E0100A868010008B5024B1B6898478E
:1037B800002008BDF0160020034B044A18609378D7
:1037C80043F0020393707047F0160020E8010020D0
:1037D800F0B587B007460E46144600211022684609
:1037E8001D4612F018FE02238DF80230054B2A46BA
:1037F80021466846CDE9047601930BF0F1FD07B048
:10380800F0BD00BF8722010008B50649064821F02F
:103818000701C1F1005202F5E0220DF088F90020FD
:1038280008BD00BFE35D0020F416002000F01F0271
:1038380040090DD001280DD1094B03EB8203D3F8C1
:10384800002222F0E04242EA0171C3F800127047F8
:10385800044BF2E70023803253F82230FFDE00BF2A
:10386800002884500025845038B50124134B144D8A
:10387800C3F8004502230321C5F8D0360020FFF71E
:10388800D5FF20460321FFF7D1FFC5F8044721469D
:10389800C5F804492120C5F8004BFFF7C7FF2146AA
:1038A8002020FFF7C3FF21460B20FFF7BFFF21466B
:1038B8000A20FFF7BBFF002038BD00BF00100050F2
:1038C8000040005007B50DF1070010F092FF114BB2
:1038D80098421CD14FF480620F4B1049C3F8B825A9
:1038E8004FF40062C3F83C259DF8070010F06DFF07
:1038F8000B499DF8070010F063FF01209DF8073081
:10390800984008F027FF002003B05DF804FB6FF033
:103918000B00F9E70000AD0B00A002502CA00250EC
:1039280028A10250052370B5144D154E2C7801348A
:10393800B4FBF3F303EB8303E41A10F03AFF114AE4
:10394800137823B156F82430C01A072814D94FF039
:103958005023D3F8141141B10021C3F81411D3F83E
:1039680014312C700CB9012313702C7810F021FF3E
:1039780046F82400012070BD0020FCE7C31A00208F
:1039880000170020C21A002048B1054B054A1B68E1
:10399800B3FBF2F35843044B43F001031847704755
:1039A8001403002040420F00D069010070B5049C48
:1039B800C4F30726304608F0A3FBE5B201462846C3
:1039C80010F00FFF00220120074BA40B04F0FC04A9
:1039D8001A51A84008F0C4FE304608F045FD2846B4
:1039E800BDE8704008F0B0BF80A0025073B501A8D0
:1039F80008F0A4FF264B984247D108F017FD041E93
:103A08000ADA9DF8040008F09FFF01212346214AA5
:103A180021480DF02AFF35E040F607031F4D8DF8C9
:103A28000540AE68ADF806307468019B14B96FF0B4
:103A38005704EAE708212846194AA047041EE4DB90
:103A48003369002BF3D00122082128469847041E29
:103A5800DBDB01209DF80430984008F07BFE9DF8E0
:103A680005009DF804509DF8076010F08CFE014693
:103A7800284610F0AAFE0B4BB60045F000459D51B4
:103A8800002CC2D1204602B070BD6FF01204BCE712
:103A98000000AD0BBC7E0100D86801004465010040
:103AA800B13A000080A102502DE9F3411446836821
:103AB8001B690BB100229847C4F30726304608F06B
:103AC80027FB0546304610F05EFE4FF00008E7B2CF
:103AD8000146384610F089FE104B220E920043F83A
:103AE8000280304608F00CFB0D4A4FEA943C0CF07B
:103AF800FC0C47F0004342F80C300146384610F001
:103B08005FFE084B05F132020093304643460194AC
:103B1800520010F042FE02B0BDE8F08180A10250D0
:103B280080A00250B539000008F0F6BC1022174BEF
:103B380070B5C3F840244FF47F03D3F83021D3F88D
:103B48003431072A1BD1023B032B02D8104AD35C1D
:103B5800ABB14FF05024012600250520C4F81866A3
:103B6800C4F8145610F02AFE3046C4F8146610F053
:103B780025FEC4F81456C4F81856002070BD4FF03E
:103B880050230022C3F81426F7E700BF0030005086
:103B9800ED7E01000E4B402928BF402170B51D461F
:103BA8000C4C4618B04203F1020304D1002305F877
:103BB8001130074870BD02781209A25C03F8022C84
:103BC80010F8012B02F00F02A25C03F8012CE9E7C0
:103BD800E21A0020247F010030B503788BB0044638
:103BE80007AD032B21D8DFE803F0021A1C1E124987
:103BF8002846FCF71FFC059563781E210493A378DB
:103C08000E4A0393E3780E4802932379019363796C
:103C18000093A3790BF01EFB09480BB030BD09498E
:103C2800E6E70949E4E70949E2E70A212846084A9C
:103C38000BF010FBDFE700BFCB750100ED7501004D
:103C4800C41A0020D2750100D9750100E37501007E
:103C58008396010030B50024094D0A4B85B02846EB
:103C68000293039412F020F802AB284600934FF415
:103C7800A3620A2304490AF03DFF204605B030BD7F
:103C8800900E00203C7F0100B02200200146014830
:103C98000AF0A6BF900E0020037830B5012B13D090
:103CA800022B27D07BB90A46184B03F1100453F8AE
:103CB800045BA34242F8045BF9D11B781370438874
:103CC8004B731B0A8B7330BD0A46104B03F110046B
:103CD80053F8045BA34242F8045BF9D11B781370D4
:103CE8004368C3F307224B731B0CCB731B0A8A73FD
:103CF8000B74E8E700F1100350F8042B984241F8E0
:103D0800042BF9D103780B70DDE700BF457F010074
:103D1800012838B505460CBF0648074810F0FDFADB
:103D2800044620B101210C3010F052FB25762046C4
:103D380038BD00BFAC050020FC040020132810B5D6
:103D48000CD10A4810F0E9FA044628B101210C30D8
:103D580010F03EFB01232376204610BD09B104482C
:103D6800F0E70120BDE81040FFF7D2BF3006002081
:103D780080050020C36802211B78024A02480EF021
:103D88004ABB00BF5E7F01002868010038B5C368E0
:103D9800B3F801401B786BB90F21204602F0FAFEF8
:103DA800054640B9084B1A8822B96FEA04506FEAF1
:103DB8001050188038BD012102F0E0FD2846BDE80A
:103DC800384002F0A9BD00BF9C1A00202DE9F0413F
:103DD800C5682E78CEB9B5F801700F21384602F0C3
:103DE800D9FE044638B93B46BDE8F0410121084AEE
:103DF80008480EF010BBEB783146037302F0BEFDA5
:103E08002046BDE8F04102F087BDBDE8F08100BF63
:103E1800867F01002868010010B5C3680121B3F846
:103E28000140204602F0B6FE38B92346BDE81040EE
:103E38000121044A04480EF0EEBABDE8104002F031
:103E48006BBD00BFAC7F01002868010010B5C368D6
:103E580001211C88204602F09DFE38B92346BDE8A2
:103E680010400121034A04480EF0D5BABDE81040BD
:103E780002F052BDAC7F010028680100012110B595
:103E88000C3010F0D9FABDE8104003780121024A3D
:103E980002480EF0C0BA00BFD07F010028680100B8
:103EA800014610B5084810F03EFA0849084811F0D4
:103EB800CEFE031E06DABDE810400121054A064879
:103EC8000EF0A9BA10BD00BF440100203402002042
:103ED800B00F0020F27F01002868010010B5084CDF
:103EE8000146052294F86F0002F0ECFF38B994F807
:103EF8006F000422BDE81040024902F0E3BF10BD84
:103F0800000000200A7F01000121024A02480EF049
:103F180080BA00BF0F800100286801000B46B0B5C9
:103F28000D8A00AF04462946D868FFF733FE8AB0E9
:103F38006A46094BC2E90750C2E9053440F2024318
:103F48009384064B4FF43251054842F8103F0EF067
:103F58006FFABD46B0BD00BF298001000500000111
:103F68002868010037B502EBC303934204D103B0BC
:103F7800BDE83040FFF7D2BF144614F8085B85420D
:103F880011D10B8A54789C4207D901210090074A25
:103F980007480DF074FC03B030BD0846536803B001
:103FA800BDE8304018472246DFE700BF4B800100DC
:103FB8002868010010B5012104460C3010F03CFAC5
:103FC8002146BDE810400A23014A0078FFF7CABF1E
:103FD800A06F010070B5C5680121B5F801603046D1
:103FE80002F0D8FD044638B93346BDE870400121D7
:103FF8000B4A0C480EF00FBA2B783BB9D5F80330B2
:10400800C0F8AD30D5F80730C0F8B130201D4FF4F6
:1040180080510EF002FA2046BDE8704002F07CBCE8
:10402800AC7F01002868010073B53D4810F091F994
:104038000446002871D0017E012945D0032969D1A1
:10404800038A032B02D8374A012141E004210C30AE
:1040580010F0F2F9FF23428806886376238AC6F3B4
:104068000B009A42608309D0012100922E482F4A02
:104078000DF005FC204606F04DFF12E00F2102F07E
:1040880089FD054610B9638B294ADDE702F0BAFDC0
:1040980021466076320B284602F008FB284602F0DB
:1040A8003BFC244BD3F84431002B36D0224923481B
:1040B80011F0CDFD031E30DA0121214A1A4802B061
:1040C800BDE870400EF0A7B9038A012B04D81D4A39
:1040D80015480EF0A0F9CDE702210C3010F0ACF92C
:1040E800054600780EF06AF983070CD440F6B5232C
:1040F800154A164916480CF0D9FD404080F311883E
:104108004FF0030002DF06232146124A2878FFF702
:1041180029FFAFE70B46104A96E702B070BD00BF13
:10412800440100206D800100286801008E80010094
:10413800B28001000000002034020020B00F0020EF
:10414800F27F0100D4800100F08001002481010089
:1041580052810100706F01006F8101002DE9F74F56
:104168000023804689461746DFF810A1DAE8EF4FAA
:10417800CAE8E23F002AF9D1264644B9434601215C
:104188003F4A404803B0BDE8F04F0EF044B920461E
:1041980006F024FE4FF00C0B3B4D0BFB0050438800
:1041A80043451BD0204606F019FE0BFB0050438800
:1041B80001210093354A434632480DF060FBDAE8A6
:1041C800EF3FCAE8E26F002AF9D1002B53D01E4610
:1041D800304603B0BDE8F04F06F09CBEA7420ED0B3
:1041E800204610F095F8012104F10C08404621768C
:1041F80010F0EEF840463A8AF96810F0F3F82046D5
:1042080006F0ECFD0C2707FB00504368ABB1B9F191
:10421800000F12D1204606F0E1FD012107FB0050F6
:104228004268D2E90003127A03F01F07B9405B091C
:10423800DAB100EB83000EF0F0F8204606F0CEFD70
:104248000C2707FB00508368002BC1D0204606F0DE
:10425800C5FD784305F80090204606F0BFFD07FB32
:104268000055A8680AF074FAB2E7C94300EB830066
:104278000EF0E1F8E1E703B0BDE8F08F400100205F
:10428800838101002868010014170020AB81010018
:1042980038B5042104460C3010F0CEF803464088A7
:1042A8005D7818B122461978FFF758FF25B1BDE8A7
:1042B800384002480AF04CBA38BD00BF2801002037
:1042C80070B5032104460C3010F0B6F840F63542BC
:1042D8000578B0F80100E36890421B7806D1BDE884
:1042E80070400221074A08480EF095B818B12246D6
:1042F8001946FFF733FF25B1BDE8704003480AF0BF
:1043080027BA70BDDE81010028680100280100205D
:104318002DE9F84F0123D0F80C80018A98F8004065
:1043280000AF03EB84038B427CD96D468AB06A46A2
:10433800C2E9073105233E484FF42151C2E905047B
:104348003C4842F8103F0EF073F8AD46BD46BDE854
:10435800F88F5B460121384A36480EF05CF8013583
:1043680098F800309D42F1DA08EB8503B3F801B004
:104378000F215846B3F8036002F00CFC04460028ED
:10438800E7D000F1280B16B34FF02003EFF31182AA
:1043980083F31288BFF36F8FE3696BB1013BE3616D
:1043A80082F31188BFF36F8F204602F045F9013E72
:1043B8000AF0CEF9B6B2E6E7636963B982F3118809
:1043C800BFF36F8F012152461A480EF022F820469B
:1043D80002F0A2FAC3E7A16918688B42606108BFBE
:1043E800A06182F31188BFF36F8F4FF02002EFF3C3
:1043F800118182F31288BFF36F8FDA68E261C3F824
:104408000C90C3F80090626A4AB9C4E9083381F392
:104418001188BFF36F8F58460AF066FBC4E7136034
:104428006362F4E70025DFF814A0A94698E700BF07
:1044380014820100286801003E8201005A820100AE
:1044480073B5C5680121B5F80160304602F0A2FBDA
:10445800044640B933460121284A294802B0BDE83C
:1044680070400DF0D8BF2B78061D1A2B19D1C378D0
:10447800012B2AD14FF4806130460DF0CEFF420562
:104488000FD4D4F8A03069460093D4F8A830204659
:10449800019302F0C7FF204602B0BDE8704002F069
:1044A8003BBA2B788BB9B5F80330A4F89E30B5F831
:1044B8000530A4F8A430B5F80730A4F8A6306FF496
:1044C800807130460DF0B7FF14E0D6E8AF3FDB054A
:1044D800F5D52B78202BF2D194F8AC30002BEED008
:1044E800013B84F8AC304FF42032002304F158002B
:1044F8000AF0A0FB204602F0A7FBCCE7AC7F010046
:104508002868010010B5C1E900239DF808300C4661
:104518000B7206F063FC0C22024B02FB00335C605A
:1045280010BD00BF141700202DE9F0474FF0FF32EF
:104538004FF0FF33064617480F460FF0EEFE4FF0D8
:104548000008044600F10C0A012150460FF040FF14
:10455800204684F8188006F041FC4FF00C090E4DF7
:1045680009FB00504680204606F038FC09FB005045
:10457800C0F80880204606F031FC09FB00550321ED
:104588005046C5F804800FF027FF06808770204644
:10459800BDE8F08704060020141700202DE9F0413B
:1045A800074616460C4688B021B9FFF7BDFF0446FA
:1045B800002852D002AD01220021284611F096FAB7
:1045C800204606F00BFC0C23DFF89C8003FB0080E0
:1045D800856020460FF0D6FE014624480FF0D0FE35
:1045E8004FF4A022284600230AF0D8F8054688B1DF
:1045F80040F24B131E4A1F491F480CF057FB2A462E
:1046080039461E480CF052FB404080F311884FF0A9
:10461800030002DF204606F0E1FB0C23584318F89C
:10462800005095B102213B46154A16480095093DB0
:104638000DF025F9EDB2204606F06CFC092D0FD8D7
:10464800114B585708B0BDE8F08116B1346000200E
:10465800F8E7204606F05EFCF9E76FF06800F1E73E
:104668006FF00400EEE700BF141700204C01002093
:10467800F080010071820100528101007A820100FC
:10468800A6820100286801002B87010073B5064641
:104698000D4642F22F00002101AAFFF77FFF0446D2
:1046A80038B10121084A09480DF0B3FE204602B08E
:1046B80070BD0198C368B3F801203280B3F80330A5
:1046C8002B8006F027FCF1E7C28201002868010070
:1046D800F7B5144B054693F99B300C46002B1DDAB1
:1046E80014B9204603B0F0BD082C4FF0000142F287
:1046F800180001AA264628BF0826FFF74FFF002802
:10470800F0D1019F3246F9682846013111F076FE52
:10471800384606F0FFFB3544A41BE1E76FF085003F
:10472800E0E700BF000000202DE9F04F89B0054602
:104738004FF000099F4BB0F80180198848F4704287
:10474800914202AF04BFA3F800904FF0010900F0B6
:104758008FFF2C782CB33C2C1CD101F07FFA6FF022
:10476800800110300DF067FE0020FFF7B7FB05460B
:1047780040B90121904A91480DF04BFE1C37BD46C7
:10478800BDE8F08F0473002102F0F8F8284602F023
:10479800C3F8F3E723460221894A88480DF03BFE17
:1047A800ECE7EB782E1D012B08BF864B304608BF7F
:1047B80093F86F400DF0FEFD314650B34FF0010AFB
:1047C80007F110000DF0EBFDD5F81130C7F80930EE
:1047D800B5F81530A7F80D30EB78012B2CD0304602
:1047E800FFF7FAF96C4688B002AA774B4FF4E2510A
:1047F800C2E905304FF400739383744B6F4842F855
:10480800103F0DF015FE1321A54640460DF02BFE76
:10481800B4E720460DF088FF0346006895F804A029
:1048280038619A889B796868BA82BB75B288B3790F
:10483800B860BA81BB73CFE707F11000FFF74EFBF2
:10484800EB780446012B0AD101F008FA83466FF091
:10485800800110300DF0EFFD58460EF07DF8002C69
:10486800BDD02346B5F8012023F8882BBA7D3869D6
:10487800B98AC4F888009A7100229980B5F817306F
:10488800A4F89E30B5F81930A4F8A430B5F81B3058
:10489800A4F8A630EB782273012BE37020D187F8B7
:1048A80008A0BA89BB7BB868A4F8932084F895302F
:1048B800C4F88F0001F0D2F9237A424AC3EBC3034C
:1048C8009918D358C4F896308B88A4F89A308B7905
:1048D80084F89C30D2F8E4305D0601D501F07EFB07
:1048E8000721204602F04AF8B9F1000F03D0012150
:1048F800204602F043F820460EF0F3F8637B072BBE
:1049080053D1231DD3E8AF3F13F4805F2D4E20D140
:10491800E3781BB196F8D83018071AD5022142F26D
:104928001600FFF701FE0546002840D002210C3092
:104938000FF052FD238800220380294642F2160018
:10494800FFF72CFE034620B10121214A1B480DF038
:1049580062FD96F8D930D9070DD5022300211A46F1
:10496800204600910DF0B8FD034620B10121194AF7
:1049780012480DF050FD96F8D8309A0615D5D6F89D
:1049880064319B689B0710D5B91D381DFFF77EFE63
:1049980058B92046FA88B9880DF080FD034620B141
:1049A80001210D4A05480DF036FD2046EFE66FF06F
:1049B8006803C9E79C1A0020E28201002868010008
:1049C80003830100000000201C8301000300000194
:1049D80038830100598301007083010000B5C36862
:1049E80089B01A788DF80020B3F80120ADF80120BD
:1049F800DA788DF80320B3F80B20ADF81720B3F858
:104A08000D20ADF81920B3F80F20ADF81B205A7C03
:104A18008DF81D20586801901A899B7AADF80820F6
:104A28008DF80A30084B68461A689B88CDF80B2029
:104A3800ADF80F30CDF81120ADF81530FFF774FE42
:104A480009B05DF804FB00BF1E7F010029289ABF4A
:104A5800014B185C092070470187010070B5C368D5
:104A68000F21B3F801601D78304602F093F8044630
:104A780038B93346BDE870400121174A17480DF090
:104A8800CABC65B12846FFF7E1FF29460246204621
:104A980002F082F92046BDE8704001F03DBF8678FB
:104AA800012EEFD105F088FF20460DF099FC002873
:104AB800E8D10520FFF7CAFF05210246204602F08B
:104AC8006BF93146064A05480DF0A3FC052120463E
:104AD8000EF010F8DEE700BF867F010028680100AD
:104AE8008C8301002DE9F041C6680F21B6F80170EA
:104AF8003578384602F04EF8044638B93B46BDE8EA
:104B0800F04101211B4A1C480DF085BC65B12846BF
:104B1800FFF79CFF29460246204602F03DF9204651
:104B2800BDE8F04101F0F8BE8278F378012AC3723B
:104B380005D00020FFF78AFF00210246ECE70BB101
:104B480005F03AFF20460DF04BFC0028F1D1052076
:104B5800FFF77CFF05210246204602F01DF90121DE
:104B6800064A05480DF055FC052120460DF0C2FF08
:104B7800D5E700BF867F0100286801008C8301000B
:104B880070B58EB06C4606460A4D0D2E0FCD0FC47B
:104B98000FCD0FC40FCD0FC495E8030084E80300C0
:104BA8009DBF0EAB03EB860656F8380C02480EB0D4
:104BB80070BD00BF48690100B2830100024BD3F801
:104BC80064315B69184700BF0000002038B505460E
:104BD8000C4619B9FFF7A8FC0446C8B140F635439E
:104BE8009D420FD12046FFF7E9FF054640B1034635
:104BF80001210948094A0DF00EFC204606F08AF901
:104C0800284638BD214606480FF0BAFB0025F7E7CD
:104C18006FF06805F4E700BF28680100BA83010057
:104C28004C0100202DE9F0410446458B477E807AEF
:104C380006F0CCF86169064649B1637ADA0704D40C
:104C4800436A20461B689B68984700236361214696
:104C5800304610F03DFF244B93F88A309B0641D52F
:104C6800384602F0A7FA044638B93B46BDE8F04199
:104C780002211E4A1E480DF0CEBB437B073B012B89
:104C880009D91B4802211B4A0DF0C3FB2046BDE889
:104C9800F04101F041BE01F03FFE052140F63540EC
:104CA800FFF742FC044630B9BDE8F0410121124A41
:104CB8000F480DF0AEBB00F10C07012138460FF08C
:104CC8008BFB01260421067038460FF085FB002374
:104CD80005808670C3702146BDE8F04140F6354036
:104CE800FFF774BFBDE8F08100000020DC830100FD
:104CF800286801000584010031840100F0B5C56809
:104D080001212F8887B0BCB2204601F043FF064638
:104D180040B923460121264A264807B0BDE8F0409D
:104D28000DF079BB02ACD5F80220D5F80630019415
:104D3800698900910FF0F7F840B3122142F21A0086
:104D4800FFF7F2FB054648B901211B4A19480DF047
:104D580060FB304601F0E0FD07B0F0BD12210C30D9
:104D68000FF03AFB0346224623F8027B06AF1446AF
:104D780003CCBC4218605960224603F10803F6D1FF
:104D8800294642F21A00FFF721FFE2E7022142F228
:104D98001B00FFF7C9FB04460028D5D002210C30C0
:104DA8000FF01AFB2146078042F21B00EBE700BF19
:104DB800AC7F0100286801005484010073B5C36802
:104DC800D9789A781E8842EA0122ADF800205979EC
:104DD8001A79B4B242EA0122ADF80220D9799A7957
:104DE800204642EA0122ADF804201A7A5B7A0121B2
:104DF80042EA0323ADF8063001F0CCFE054658B967
:104E080001211C4823461C4A0DF005FB02212046BF
:104E18000DF0AEFB02B070BD694601F055FF38B920
:104E28001E2120460DF0A4FB284601F075FDF1E790
:104E38000E2142F22000FFF777FB04460028F3D04A
:104E48000E210C300FF0C8FA00230680C0F80A3093
:104E5800BDF8003021464380BDF802308380BDF89C
:104E68000430C380BDF80630038142F22000FFF70A
:104E7800ADFED9E728680100AC7F01002DE9F84FA5
:104E8800484FDFF8248107F11409FB6848466FF39F
:104E98009433FB6001F0F8FC451C4FF0FF324FF0F3
:104EA800FF3329463F480AF005F960B140F632332E
:104EB80042463E493E480BF0F9FE404080F31188D7
:104EC8004FF0030002DF374EDFF8E8B015B909F0FC
:104ED8009DFADAE7F368C3F38633022B52D9042B21
:104EE8005AD1337B002B50D10022002332480FF0D7
:104EF80018FA044660B940F6C42342462F492C48A4
:104F08000BF0D4FE404080F311884FF0030002DF1D
:104F1800DFF8ACA04FF0FF324FF0FF33294809F01B
:104F28003DFCDAF840215AB1274A012121480DF009
:104F380070FADAF8400105F0EDFF0022CAF84021C6
:104F480020460FF01FFACAF840012046FFF736FE48
:104F58000346B8B101211D4A16480DF05CFA1948FC
:104F680009F0F6FB204605F039FF0C22184B02FB2E
:104F78000033588818B122461F21FFF7EFF8204662
:104F880005F0C8FF1436013DA0E7012BFAD13069BE
:104F9800383802F06BF8F5E7022158460D4A0DF053
:104FA8003AFAEFE7F8010020F08001007182010071
:104FB80052810100286801004C010020209801005E
:104FC80000000020280100206B840100BA83010042
:104FD80014170020868401002DE9F041044600F1F1
:104FE8000C0630460FF038FAB4F810800546B8F1D0
:104FF800010F0AD843460121184A19480DF00BFA47
:105008002046BDE8F04105F085BF304602210FF08B
:1050180013FA074600780DF0D1F9C20706460CD4FA
:1050280040F6EE630F4A104910480BF03FFE40402F
:1050380080F311884FF0030002DF052321460C4A54
:105048003878FEF78FFFB307DAD56369A4F81080C4
:1050580013FA85F5E560BDE8F08100BFD480010052
:1050680028680100F0800100A78401005281010036
:10507800486F010038B5037E0446012B05D0032B89
:1050880011D1FEF70DFF002038BDC36818780DF068
:1050980095F9C207054602D52046FFF79DFFAB07E5
:1050A800F1D52046EDE70121044A05480DF0B3F992
:1050B800204605F02FFF6FF01500E5E7C0840100DA
:1050C80028680100084A0346D2F8640130B9D96853
:1050D80039B1596929B1C2F8643170476FF0770066
:1050E80070476FF015007047000000202DE9F84F59
:1050F8003D4C00AF04213D480DF08FF93C4DE2795D
:105108003C4B2046012A88BF1D466E46FEF764FDCB
:105118008AB06A46384BA346C2E905350125374BA4
:10512800D0611362364B4FF42351364842F8103F92
:105138000DF07EF9DFF8D080B546DFF8C890334E21
:10514800E3790BF1070B9D4238DB94F870506E46FB
:105158002846FFF715FD8CB06A46B4F87210B4F80B
:105168007630C2E907514FF400755362DFF8A0C0EA
:10517800284BC2E905C015854FF4535142F8103F3A
:1051880020480DF055F9B54694F871603046FFF7A0
:10519800F7FC8AB06A46B4F874301F49C2E907635D
:1051A8001E4BC2E9051095844FF43351154842F857
:1051B800103F0DF03DF9BD46BDE8F88F5846FEF7A3
:1051C8000BFDEA468AB06A4640F20133C2E905653A
:1051D800D06113844FF41351484642F8108F0DF0F4
:1051E80027F90135D546ABE700000020D4000020A0
:1051F800C89D0100D4840100D88401000002010385
:10520800040000022868010004000001E78401008E
:10521800F884010006000001368501000500000140
:1052280010B5FBF719F9034B1B6813B1BDE8104023
:10523800184710BD2C17002070B5344D0646D5F818
:10524800643188B04BB90121314A32480DF0E1F898
:105258006FF01204204608B070BD6FF0020105F12E
:10526800D4000DF0E8F801210DF0D7F810EA010498
:1052780048D1294B1E600A4605F5947010F036FC9B
:1052880005F5A67010F00DFC00220023CDE90623D9
:105298006FF008034FF48062CDE90243CDE9004482
:1052A8001E4B1F4904941F4808F0C6FD1E491D489F
:1052B80010F014FA1D4810F0F7FC6FF007034FF4D4
:1052C80096621B491948009409F014FC19491748BB
:1052D80010F004FAD5F86431DB689847044630B119
:1052E80003460121144A0B480DF095F8B2E726B998
:1052F80008B0BDE87040FBF7AFB805F1C40009F08D
:10530800F3FBA7E76FF07704A4E700BF00000020D5
:10531800A6860100286801002C170020854E000091
:10532800C8270020300F0020BF860100B00F0020E2
:10533800C82B0020C5860100CB86010000487047B5
:10534800E7860100F8B506460024094DEF79E3B277
:105358009F4202D86FF0010007E0294630460DF061
:105368002EF90735631C08B12046F8BD1C46EEE748
:105378000000002037B504460D4671B12846124991
:105388000DF01DF948B929461048C4EBC40420445F
:105398000DF01DF9002003B030BD68460CF0F1FF98
:1053A8000028F8D16846FFF7CDFF0028F5DA074B4B
:1053B800C4EBC400694618440DF009F9002DE9D082
:1053C80001462846E4E700BF117F010000000020E5
:1053D80070B5144E06223146044610F0B3FED8B11B
:1053E800062142F20500FFF79FF80546B0B10622F4
:1053F80021460C300EF0F6FF0022294642F2050045
:10540800FFF7CCF848B93346226843F86929A288DF
:10541800B280012283F86820002070BD6FF0680018
:10542800FBE700BF69000020F7B50021044606220B
:10543800084601F047FD064688B1414BD3E8EF1F07
:1054480041F40041C3E8E21F002AF7D1237A43F070
:105458000103237203B0BDE8F04001F05DBA394D95
:105468000146394800F0F4FB95F821314BB130463C
:105478000DF0F2F828B1354A022135480DF0DFF871
:105488001DE095F8212195F820319A4221D1022179
:10549800304A2F480DF0D3F8002242F22900114675
:1054A800FFF77CF810B12C4A0121E6E795F8213185
:1054B800013385F82131237A43F004032372012054
:1054C8000DF0CAF80021254803B0BDE8F04000F00F
:1054D800BFBB2246671C394612F82A0B0DF07EF82E
:1054E800064608B11E4ADFE795F82131013385F8F1
:1054F8002131237A43F00403237295F8A7305B0720
:1055080001D4184AB8E7394668460DF060F8012317
:10551800082142F24E008DF80730FFF705F80446DF
:1055280060B1082269460C300EF05CFF3246214615
:1055380042F24E00FFF732F80028C0D00A4AB3E71B
:10554800D4000020000000200D2701002888010059
:10555800486801004D8801007E88010091260100FD
:105568009E880100BE880100E888010000212DE91D
:10557800F04106220446084601F0A4FC054680B125
:10558800334BD3E8EF1F41F40041C3E8E21F002A80
:10559800F7D1237A43F002032372BDE8F04101F00A
:1055A800BBB901462B4800F053FB28460DF054F8D0
:1055B800294D064688B101210346284A28480CF09F
:1055C80054F995F8213113B101200DF045F8BDE8E3
:1055D800F0410021234800F03BBB95F8213195F8B4
:1055E80020219A420CD2013B85F82131237A0246C8
:1055F80023F0040302201C49237205F0B9FAE0E7FE
:10560800072142F22800FEF78FFF04F10108074640
:1056180028B90121154A12480DF011F8D1E70721E0
:105628000C300EF0D9FE41460CF0D1FF3246394617
:1056380042F22800FEF7B2FF0028EAD195F821319E
:10564800013B85F82131237A23F004032372B8E75C
:10565800D40000200D27010000000020038901006C
:1056680048680100912601004B260100308901009D
:10567800084BD3E8EF2F22F40041C3E8E01F0028CD
:10568800F7D1130404D500220220034905F070BAAB
:10569800704700BFD40000208F270100002307B502
:1056A8000549CDE900036A46022005F061FA019830
:1056B80003B05DF804FB00BFB7260100034610B431
:1056C80070B10A4991F8204191F821210CB1944216
:1056D80008D2013281F821211A7A42F004021A72A2
:1056E80010BC704710BCFFF79FBE00BF0000002031
:1056F800034610B498B10B4C94F8201194F821216A
:1057080029B101318A4203DC10BCFFF72FBF12B167
:10571800013A84F821211A7A22F004021A7210BC84
:10572800704700BF0000002070B50446B1B9C0B191
:105738001F490CF044FFA0B92046FFF703FE0028DC
:105748002FDA2378012B04D1A37903F0C003C02BEF
:1057580007D00121174A18480CF071FF6FF01500A7
:1057680070BD164DEB79012B1ED005F1D403D3E89B
:10577800AF3FDB0707D4002CF0D020460C490CF0D3
:105788001EFF0028EAD1EE792146731C3046EB71E2
:10579800FFF7F0FD08B93046E2E7EB79013BEB7122
:1057A800DEE76FF07700DBE76FF00B00D8E700BFAC
:1057B800117F0100558901004868010000000020A0
:1057C8002DE9F341044640B91A4A02211A480CF05F
:1057D80036FF002002B0BDE8F081002141F2090047
:1057E80001AAFEF7DBFE054608B1144AEDE7019E63
:1057F8000622D6F80C80124908F10107384610F045
:10580800A1FC28B1062238460E4910F09BFC18B9B5
:10581800304605F07FFBDCE7D8F801303046C4F8A5
:105828000130BB882570A4F8053005F073FB012012
:10583800D0E700BF83890100486801009C89010006
:105848001E7F0100187F010007B56846FFF7B8FF03
:10585800044BD87118B169460020FFF78BFD03B0DF
:105868005DF804FB00000020F7B51F4B054693F8D0
:10587800C2300E46DB0708D41C4A02211C480CF033
:10588800DEFE0024204603B0F0BD00214FF609409B
:1058980001AAFEF783FE034608B1164AEDE7019810
:1058A8001627C26854780232B44228BF34469C4254
:1058B80009DC05F02FFB002CE4D102210E4A0C482C
:1058C8000CF0BDFEDEE7114607FB035602F1140C8F
:1058D80051F804EB614546F804EBF9D10988013326
:1058E80031801632E3E700BF00000020BA890100CA
:1058F80048680100E6890100068A0100F0B5164DE6
:1059080089B0EC792CB9012102A8FFF7ADFFE87145
:10591800D0B90021084609B0BDE8F040FFF704BF40
:1059280008AB06FB003353F8182C33F8143C6946CF
:10593800CDF80120ADF805308DF80070FFF71AFD9D
:10594800013418B109B0F0BD16260127EB79E0B291
:105958008342E5D80020F5E7000000202DE9F0415A
:1059680090460E461D46024650B14BB131030478AD
:1059780010D5730708D501212A4A2B480CF05FFE81
:105988006FF01500BDE8F0810CF0E2FE0028F9D1B7
:10599800012341E0F70730D5244FB8F1000F13D0A9
:1059A800B0060AD4C4EBC403FB5C012B13D02B70E4
:1059B800B20620D543F002030BE097F8D830590619
:1059C800F0D46FF08500DDE7C4EBC403FB5C012B6A
:1059D80001D02B700FE0072101FB04711046013143
:1059E8000CF0AEFE0028CDD1C4EBC4043B5D2B7097
:1059F800B8F1000FDCD10020C4E773070ED50B4EB9
:105A0800C4EBC407F35D012BE3D1072111FB04317B
:105A180031440CF095FEF35D2B70B3E70CF098FE63
:105A2800B6E700BF2F8A0100486801000000002087
:105A380038B5104DEB7913B10024204638BDFFF777
:105A480003FF044628B10C4A01210C480CF0F7FD6D
:105A5800F3E7EB79002BEFD1FFF750FF044600285E
:105A6800F1D1681CFFF7B4FC04460028E5D0044ACD
:105A7800EAE700BF000000204E8A010048680100E4
:105A88006D8A01002DE9F74F0C46202192460090BF
:105A9800FEF74AFD0546002855D020210C300EF0AF
:105AA8009BFC20228146002110F0B5FC002609F15C
:105AB800010B04EBCA0A0023D4F800806268934201
:105AC8000CD30834A245F6D100222946009889F85B
