:1000000098450020A13300004F4301008D330000CC
:100010008D3300008D3300008D3300008D330000E0
:100020000000000000000000000000009534000007
:100030008D330000000000002D3400008D330000DF
:1000400085360000853600008536000085360000C4
:1000500085360000853600008536000085360000B4
:1000600085360000853600008536000085360000A4
:100070008536000085360000853600008536000094
:100080008536000085360000853600008536000084
:100090008536000085360000853600008536000074
:1000A0008536000085360000853600008536000064
:1000B0008536000085360000853600008536000054
:1000C0008536000085360000853600008536000044
:1000D0008536000085360000853600008536000034
:1000E0008536000085360000853600008536000024
:1000F0008536000085360000853600008536000014
:100100008536000085360000853600008536000003
:1001100085360000853600008536000085360000F3
:1001200085360000853600008536000085360000E3
:1001300085360000853600008536000085360000D3
:1001400085360000853600008536000085360000C3
:0401500085360000F0
:04015400FFFFFFFFAB
:1001580053B94AB9002908BF00281CBF4FF0FF3126
:100168004FF0FF3000F00CB8ADF1080C6DE904CE8B
:1001780000F008F8DDF804E0DDE9022304B0704778
:10018800704700BF2DE9F04786468C460846089E12
:10019800154674461946002B40F0C1808542B2FAD4
:1001A80082F245D94AB1C2F1200300FA02FC954017
:1001B80094402EFA03F343EA0C0C4FEA154EA8B20A
:1001C800230CBCFBFEF80EFB18CC08FB00F943EA35
:1001D8000C43994528D9EB1808F1FF3704D2994503
:1001E80002D9A8F102072B44A3EB0903A4B2B3FB7D
:1001F800FEFC0EFB1C330CFB00F044EA0344A04257
:1002080014D92C190CF1FF3304D2A04202D9ACF155
:1002180002032C44241A43EA07401EB1D4400023A9
:1002280034607360BDE8F0874746DDE76346F1E771
:1002380092BB431B01214FEA154EAFB2200CB3FB12
:10024800FEFC0EFB1C330CFB07F840EA0343984501
:1002580061D9EB180CF1FF3004D2984502D9ACF102
:1002680002002B44A3EB0803A4B2B3FBFEFC0EFB75
:100278001C330CFB07F744EA0344A7424DD92C1959
:100288000CF1FF3304D2A74202D9ACF102032C448B
:10029800E41B43EA0040C0E7C2F1200395409440C4
:1002A80020FA03F12EFA03F34FEA154E9040AFB24D
:1002B8000343B1FBFEFC0EFB1C10190C0CFB07F8EA
:1002C80041EA0041884522D969180CF1FF3004D26F
:1002D800884502D9ACF102002944A1EB08019BB280
:1002E800B1FBFEFC0EFB1C110CFB07F743EA0143B4
:1002F8009F420ED9EB180CF1FF3104D29F4202D96C
:10030800ACF102012B44DB1B41EA004193E7604654
:10031800E3E76146F7E76046A4E76346B8E7834248
:1003280006D916B9002108467CE7C6E900E0F9E7D6
:10033800B3FA83F78FB9834201D3724508D8BEEB6D
:10034800020460EB030301209C461EB9002169E703
:100358003846FAE7C6E9004CF8E7C7F1200CBB407D
:100368000EFA07F522FA0CF42EFA0CF1BA401C43E7
:1003780020FA0CF3B8404FEA144901431FFA84FEEF
:10038800B3FBF9F809FB18300B0C08FB0EFA43EA2B
:1003980000439A4540D9E31808F1FF3004D29A4542
:1003A80002D9A8F102002344A3EB0A0389B2B3FBE4
:1003B800F9F809FB183308FB0EFE41EA03418E45A4
:1003C8002CD9611808F1FF3304D28E4502D9A8F15F
:1003D8000203214443EA0040A1EB0E01A0FB02986E
:1003E8004145CE46434602D306D14D4504D2013895
:1003F800B9EB020E68EB0403002EA7D0B5EB0E0292
:1004080061EB030101FA0CFC22FA07F3F9404CEA0C
:100418000303C6E9003199E74046C5E74346D9E7F3
:1004280010F8012B11F8013B012A28BF9A42F7D096
:10043800D01A7047034611F8012B03F8012B002A44
:10044800F9D17047034613F8012B002AFBD1181A7B
:100458000138704700000000F0B583B0624D00AF6E
:10046800D5F86431996811F001011DD140F60340B7
:100478003A1D04F06BFA0446002840F0B0807C680E
:10048800E3681B786BB905F039FF05F1D403D3E8AD
:10049800AF2F02F00902D3E8EF1FC3E8E02F0028CE
:1004A800F9D120460CF0D2FC002141F203003A1D9C
:1004B80004F04CFA0446002840F091807B684B4ECB
:1004C800DA68D2F80100D2F8051003C618460CF015
:1004D800BDFC214641F201003A1D04F037FA0446FA
:1004E80000287CD17868C3685A7885F870205A88C3
:1004F800A5F872201A7985F87120B3F80720A5F8B5
:100508007420B3F80530A5F876300CF09FFC21462E
:1005180041F202003A1D04F019FA044600285ED19F
:10052800D7F804C0DCF80C20531C41323446186854
:100538005968083303C493422646F7D160460CF045
:1005480085FC06F0E1F80446002848D195F88A3081
:10055800990610D40221264A264813F0F3FF95F88D
:100568007C305A064AD40121234A224813F0EAFF74
:100578006FF0120433E0072140F6334004F0ACF981
:100588000646002800F0418107210C3016F017FDBF
:10059800452303700623C0F8024084714470047137
:1005A8002246C370314640F6334004F0CFF9044682
:1005B800A8B9012140F6314004F08EF9064600281A
:1005C80000F0238101210C3016F008FD2246314647
:1005D80040F6314004F0BAF904460028BFD020465E
:1005E8000C37BD46F0BD00BF000000207800002099
:1005F800C6B5010020950100F4B50100002142F2C2
:1006080003003A1D04F0A2F904460028E7D17B68EC
:10061800A34EDA68D2F80100D2F8051003C61846CE
:100628000CF014FC214642F202003A1D04F08EF947
:1006380004460028D3D17C68E368B3F8012091B25E
:1006480049B1D97839B1A5F80421DA78114606F10B
:10065800280018F0C3F820460CF0F8FB95F87C60E9
:1006680016F0200618D1022140F66D4004F034F946
:100678000446002800F0C98002210C3016F09FFCC7
:100688000123214603704670324640F66D4004F05F
:100698005DF904460028A2D195F89C301B0712D5B5
:1006A800002142F21C003A1D04F050F904460028CB
:1006B80095D17868C368D3F80120D3F80530C5E927
:1006C80038230CF0C3FB95F8D8309E0621D5384660
:1006D800B91C04F0B3F90446002880D1042142F281
:1006E800240004F0F9F80646002800F08E80042162
:1006F8000C3016F064FC3B88224603807B88314628
:10070800438042F2240004F021F9044600287FF4D3
:1007180066AF95F8D8305C0610D5002142F22A0061
:100728003A1D04F013F9044600287FF458AF78689E
:10073800C3685B7885F820310CF088FB082142F209
:10074800010004F0C9F8044600285ED008210C30E6
:1007580016F035FC95F8D81040F2022311F0400F3E
:1007680008BF0323024688074CBF43F02C0043F020
:100778000C008B0695F8D93048BF40F0400013F0C4
:10078800090F95F8A23018BF40F4006003F0060383
:10079800CE0748BF40F01000062B08BF40F4C070D9
:1007A800002113F0F0FE2146002242F2010004F07D
:1007B800CDF8044600287FF412AF95F87C30B5F8E0
:1007C8000411980624D4C9B941F205003A1D04F071
:1007D800BDF8044600287FF402AFB5F804317C6800
:1007E8004BB9E368B3F80120A5F804219A882D488D
:1007F800114617F0F3FF20460CF028FB082140F6BD
:10080800014004F069F8044660B96FF06804E6E650
:100818000029F3D10121244A244813F093FE6FF0F4
:100828000404DCE608210C3016F0C9FB95F8D83032
:100838000246D90729D44FF000511D4813F0A3FEF2
:100848002146002240F6014004F080F804460028C2
:100858007FF4C5AE01463A1D4FF6014004F076F824
:1008680050B3144A0221114813F06CFE05F0EAFB5C
:10087800044600287FF4B3AE07F096F80446002833
:100888007FF4ADAE04F0B8FEA9E603A1D1E90001FA
:10089800D4E700BFAFF300809088000200800020FA
:1008A800D80000200801002018B60100209501009A
:1008B800108800023BB601007B686D46DC688AB090
:1008C800B4F80130032B96BF424A434952F823102B
:1008D8006A46D3614FF4007340481384404BC2E921
:1008E800050142F8103F4FF413513E4813F040FE03
:1008F800B4F80120AD46022AB4F8033048D1032BDE
:1009080046D8394A52F823106D468AB06A46D361F0
:100918004FF4007335481384314BC2E9050142F89E
:10092800103F4FF413512F4813F022FEAD46637960
:10093800A679032B98BF2E4AB4F80750D4F80900BB
:100948006C468CB094BF52F8231023496A46C2E91A
:1009580007364FF40073DFF89CC09385264BC2E935
:1009680005C1C2E909504FF4735142F8103F1D48C0
:1009780013F0FEFDA54678680CF068FA00214FF6E2
:1009880002403A1D03F0E2FF044618B11B4A69E72A
:100998001149B9E778681A4DC368B3F80130A5F86A
:1009A800C1300CF053FA95F8C1305B077FF55EAFA4
:1009B80021464FF603403A1D03F0C8FF08B1114A1B
:1009C80050E77868C3685B7885F8C0300CF03EFA69
:1009D8004CE700BFF49D01001BB401005FB60100A5
:1009E8000400000120950100E49D010078B6010093
:1009F800D49D010090B6010007000001BDB60100BA
:100A080000000020E6B6010038B50D4614462AB9A4
:100A1800054812F0BDF92046AC8138BD03488989E4
:100A280012F0B6F90120F8E7F4A4010004A50100CA
:100A3800014812F0ADB900BF1EA501002DE9F04133
:100A4800384C16460D46277C69B917B9132114F09E
:100A580063F9354812F09CF914220021304618F049
:100A68004EFB002038E00B8A1C21304EDFF8C0C056
:100A78003268032F01FB02F2DFF8B8E0DFF8B88034
:100A88002E4F02EB0C012DD002338B8102234CF840
:100A980002E00B822B8A0333CB8109F0B1FD0146BA
:100AA800E0B110F1780F19D0254812F071F9002340
:100AB80023602B8A04332381032323744FF6FF73A7
:100AC80018493868C4F80480E38109F0A3F801469E
:100AD80020B31C4812F05CF9BDE8F0811A4812F006
:100AE80057F9E4E701338B8102234CF802E00B82CB
:100AF8002B8A0233CB8109F083FD014650B110F1F6
:100B0800780F07D00E4812F043F9002323602B8A90
:100B18000133D0E70C4812F03BF9F6E733680133AC
:100B280033609EE7841C00202CA5010000170020DC
:100B380004170020110A0000450A0000981C002034
:100B48003FA5010068A501005AA501002DE9F04361
:100B5800054642780F4689B00178244812F018F902
:100B68002B78023B012B06D86C7814F0010437D09F
:100B78001F4812F00DF901202FE06B6831461B5B0E
:100B880001A88DF80480ADF806308DF81080ADF816
:100B9800129013F041FC30B905F070FD014638B1F0
:100BA800144812F0F5F802346B78A342E5DCE2E76A
:100BB800114C94E80F0086E80F002069616902ABC8
:100BC80003C302AA314638460C4B06F0DFFC014647
:100BD80010B10B4812F0DCF8002009B0BDE8F08332
:100BE800A04641F61C0904AEDEE700BF81A501005E
:100BF80097A50100A5A5010000960100981C0020FA
:100C0800C3A50100034B04491A68044B18680DF08A
:100C1800DFBC00BF7C1C002068010020801C002075
:100C2800034B04491A68044B043218680DF0D0BC11
:100C38007C1C002068010020801C0020034B044914
:100C48001A68044B083218680DF0C2BC7C1C0020DE
:100C580068010020801C0020034B04491A68044BDB
:100C68000C3218680DF0B4BC7C1C00206801002010
:100C7800801C00202DE9F04111F1270F0446884619
:100C880017461E4692B02BDB037807AD032B30D8EE
:100C9800DFE803F002292B2D19492846FFF7CAFB84
:100CA800059563781E210493A378164A0393E37885
:100CB8000AA802932379019363790093A37910F02A
:100CC80047FBCDF800803A46B3880F480AA912F0CE
:100CD8005FF8012F04D8224630460C4903F0E0F9AA
:100CE80012B0BDE8F0810A49D7E70A49D5E70A49B1
:100CF800D3E70A212846094A10F02AFBD0E700BFAB
:100D0800E6A5010008A601002BA60100550B00006E
:100D1800EDA50100F4A50100FEA5010083C90100AD
:100D2800002307B58DF80430ADF806000D4A019987
:100D380011600D490A600D4A0B744A6001220A814C
:100D48004FF6FF720A4BCA81186808F063FF014624
:100D580028B1084803B05DF804EB12F019B803B0E5
:100D68005DF804FBE4210020841C0020450A0000F3
:100D7800981C002068A5010010B5044651B9064822
:100D880012F006F8054B41F61C001C60BDE8104047
:100D9800FFF7C6BF10BD00BF62A60100801C00207F
:100DA80070B53B4B86B019683A48B1FA81F14909E8
:100DB80011F0EEFF38480DF093FB4FF0E863374A27
:100DC8003749354816F031FB36480DF089FB4FF0AE
:100DD800E863354A3549334816F027FB34480DF0A7
:100DE8007FFB4FF0E863334A3349314816F01DFB67
:100DF80032480DF075FB4FF0E863314A31492F480E
:100E080016F013FB30480DF05BFB30480DF058FB33
:100E18002F480DF055FB2F480DF052FB0DF0B0FB9D
:100E28001422002101A818F06AF901238DF8043072
:100E3800294B2A4901A8039305F0ACFB014608BBDE
:100E4800274811F0A5FF4FF4C03000210FF0FEFB3A
:100E5800244E1D4D244C3178284616F0DDFA2178B1
:100E68001A4816F0D9FA214B1948197816F0D4FA0D
:100E78001F4B1848197816F0CFFA002121200FF0DF
:100E8800E5FBE8E71B4811F083FF002006B070BDC2
:100E9800981C00206EA60100A0990100C01C00202B
:100EA8000D0C000098990100B41C0020290C0000CA
:100EB80090990100A81C0020450C000088990100A9
:100EC8009C1C0020610C00008099010078990100A9
:100ED8007099010068990100600030007D0C0000E5
:100EE8009BA601000B2200200A22002009220020D4
:100EF8000822002078A601002DE9F04F91B0009358
:100F080002F004030293C2F3C203013384070546C7
:100F18000E46DDF868900392059340F0BB81041DEE
:100F280030B1072909D86FF01B0011B0BDE8F08F68
:100F380001F00706341DC6F10806009B4FF00008B3
:100F48004FF0040A591E4FF0FF3347460193C3463A
:100F58005346CDF810800DB1009A226005980028FC
:100F680000F3E8809848009A824203D39748824267
:100F7800C0F0E080039AA4EB050E92074FEA9E00AA
:100F880000F103810F2F00F2B180002D00F00581E0
:100F980007F140020DEB020C019A0CF8200C0CF83A
:100FA800102C049801300490E7E07A285DD84B288B
:100FB8000ED8472859D829282DD8252852D054D8B2
:100FC80020287AD02338D0F1000B4BEB000B74E0CB
:100FD8004C382E2849D8DFE800F07048484848487F
:100FE8004848484848484B48484848484848485965
:100FF800484B4B595959704B6D487048184B184815
:1010080048827F4B48484B487F0000204FF0000B38
:101018004FF0040A38E001222A38C0B202FA00F080
:1010280010EA0E0F49D110F0625C2FD110EA020BC2
:1010380043D06046013C5444B4FBFAF40AFB04F480
:10104800002D61D0A3EB050CA444B4453FF66BAF6B
:10105800002868D1042B47D159F8043B23600423A6
:1010680004342AE0019A013A01924FF0000B24E07F
:1010780011F8010C6C2834D1002011F8023C834689
:101088006C2BC5D14FF0080A5346D3E709F107097D
:1010980029F00709073424F00704F9E802AB35B151
:1010A80006982044B0423FF63EAFC4E900AB4FF08B
:1010B800000B08344FF0080A534611F8010F0028B6
:1010C80078D0BBF1000F7FF470AF2528F5D14FF031
:1010D800010B019B013301934FF0040AECE75846DA
:1010E80094E700208346A5E7082B02D06FF015008F
:1010F8001BE709F1070929F00709F9E80223C4E900
:10110800002308230834D8E768B9042B02D109F171
:101118000409A4E7082BE9D109F1070929F007090F
:1011280009F10809EDE7059A013A059259F8042BE7
:10113800009210E7039A900720D54FF0010CA4EB1A
:10114800050E4FEA9E00BEF5007FCFD20F2FCDD8F7
:10115800F5B107F140020DEB020E019AC0B20EF88C
:10116800200C0EF8102CBCF1000F3FF41AAF60F001
:101178007F000EF8200C08F101080137C5F10802BC
:101188004FF6DA7E0434069297E74FF0000CDAE760
:10119800BCF1000F01D00136EFE7029802360028B3
:1011A800EBD10098CDE90631FFF74CF9DDE90631BE
:1011B8000644E2E7631BB3F5806F97D245B9A6F101
:1011C8000804E018B1E600BF3C910100D8D3010043
:1011D800029A9B0828602B709DF81030C2B1EB7002
:1011E80085F80280B8F1000F05D0002208A8C5F1E3
:1011F800010C97420ED14FF0000AC5F101030DF121
:10120800200901930DF1300B574512D1601B8CE674
:101218006B70E5E710F8013B190608D504EB0C0ED6
:10122800B64503F07F033FF67EAE04F8013B01327A
:10123800DFE7B8F1000F03D099F90020002A17DB87
:10124800029BD3B11AF80B2004F8012B0022019B52
:1012580098182044B0423FF666AE99F8000000990D
:1012680004F8010B2046039217F03CFF039A14443C
:101278000AF1010A09F10109C6E799F8002055F8B1
:1012880022300093029B009845F82230FFF7DAF8E5
:10129800421CDCE76FF00D0047E600BF2DE9F04F78
:1012A80097B000AFD7F880B03B62CBF3C0030446D9
:1012B800894690F802A0FA62BB6141B94578007886
:1012C8000AEB800020444D4517D8A0EB0409E378C9
:1012D800FB61BAF1000F02D01BF0010F16D1FB69B8
:1012E80053BBFB6A1BB1494620463A6A98474D46AC
:1012F80028465C37BD46BDE8F08F461C3046FFF7F0
:10130800A1F80130304409F10109DCE7626823786B
:101318007A62FA6A9900796104EB8301002A40F045
:1013280001810E464FF000084D4601EB0A094E4573
:101338004CD101EB0A0610E01BF0020FD1D0237844
:101348009A007A61626804EB83017A62FA6A002A79
:1013580077D14D46904601EB0A061BF0050F0CBFEE
:1013680002230123FB62FB6906EB430A0BF002032D
:10137800BB625645BCD016F8021B16F8013C54F85F
:101388002390AF4B994502D3AE4B994536D3BB69F1
:10139800002B40D0786A11F0D2FC00283BD0E946F7
:1013A8008AB06A46A84B53617B6AC2E906314FF49A
:1013B80000731384A54B42F8103F00234FF41251D9
:1013C800A34801F0BFF8023DCD46D2E716F8013B2D
:1013D800F96254F82300FFF735F8D7F88430F96A32
:1013E80001304BB1D7F8883098453EBFD7F88430E4
:1013F80023F8180008F10108054498E7BB6923B1F0
:10140800786A11F09CFC0028C9D11BF0010F05D1A6
:10141800FB6AED1AADE7BB6A002BAAD04846FFF776
:1014280011F8D7F8843053B1D7F8883098453FBFC2
:10143800D7F88420431C22F8183008F10108054425
:1014480097E7BAF1000F73D01BF0040673D0D046AB
:10145800002607F1480052463B61B96217F042FE88
:10146800B96A3B6901EB0A02BA62FA69F969520082
:10147800FA60BA6A02EB41023A610BF00202BA6002
:101488003A69B96A8A4258D162781BF0020F18BFCC
:1014980000217A6208BF4FEA5801B2181BF0010F09
:1014A800D2B240F09F801BF0040F14BF40460020CA
:1014B800BB616270A070E17020463A6A7969FB6A84
:1014C8009847051EFFF614AFBB69414623707B6A37
:1014D8003A6A6370FB6984F802A0E37007F1480078
:1014E800FB6A9847B0F10008C0F2B4807B69A9EBA9
:1014F8000A01C91AFB683A6AC91AD7E90A03984760
:101508000028C0F2A9804FF0000BA84408EB0005A2
:1015180007F1380AB34567D300213A6A0846FB6ADF
:101528009847E5E656464FF0000807F1380092E77D
:101538005646D04696E7B04694E7BA6A12F8021BB8
:1015480012F8015CBA6254F825003D4A904202D371
:101558003C4A90421ED3BA6932B1786A7B6011F076
:10156800EEFB7B6800288BD1BA6802BB08F1280221
:1015780007F1300C08F10100944407F1580208F112
:10158800020852FA80F00CF8101C5FFA88F800F88C
:10159800105C75E7BA693AB1786A7B6011F0CFFBE5
:1015A8007B6800287FF46CAF1BF0010F09D006F1AF
:1015B800280207F13000711C161806F8205CCEB21C
:1015C8005EE71BF0040F3FF45BAF08F1280207F158
:1015D800300008F1010102EB000808F8105C5FFA1E
:1015E80081F84DE7002063E71BF80A3054F8239090
:1015F80087F83730D7F88430FBB133F81B800121E6
:101608003A6AFB6A07F137009847002824DB05444B
:10161800B8F1000F06D14846FEF714FF00F10108A3
:101628001FFA88F8414648463A6AFB6A98470028F4
:1016380012DB05440BF1010B6CE7D7F88480DEE779
:101648003C910100D8D30100BAA6010004000001B2
:101658007095010045464BE6054649E6014B186082
:10166800704700BF4002002080B505460E46174669
:1016780098460FF009F8034617F052FD0446DFF8C4
:101688001890424649F8003039463046A84754F881
:10169800090001F099FE00BF080000002DE9F0479D
:1016A800058B04462807904611D4022905F0070542
:1016B80040F0CD80204611F0DBFD78B10138218B58
:1016C800042811D8DFE800F0C3106D8595000129C2
:1016D8000CBF45F0100545F02005258388F31188D7
:1016E800BFF36F8FBDE8F08701F0070AAA4500F045
:1016F800A6800027B9463E46A368002B00F0BD80AF
:1017080041F00801218388F31188BFF36F8FA16826
:10171800002900F0BB800D68002900F0B78033462F
:1017280052462046D1F80480C047002D76D02B6859
:1017380029461D46F0E701F007035A1F012A1BD866
:10174800002221F00701062B276889B2C4E900228C
:1017580009D13B4603E0628B013262831B68002B90
:10176800F9D141F002012046218311F081FD0028C2
:101778007BD041F0200177E0042B0AD121F007014A
:1017880089B22046218311F073FD10B141F0200188
:101798002183218B01F0070AAA4550D00027B946BA
:1017A800AAE7236921F0070141F00601062DD3F8C5
:1017B800009021832DD1B9F1000F40D041F00801EC
:1017C800218388F31188BFF36F8F20463949C847B2
:1017D80029E021F00701236941F0040189B2042DB1
:1017E800D3F804902183E6D000274FF0040A3E4640
:1017F80082E721F00701236941F0050189B2052D2F
:10180800D3F808902183D6D000274FF0050A3E462A
:1018180072E700274FF0060A3E466DE72B4687E73A
:10182800B9F1000FD1D14FF02003EFF3118883F302
:101838001288BFF36F8F238B23F008032383258B34
:10184800EA062ED525F01003238305F007056669FF
:10185800218B002EBFF66FAF00232768C4E9003341
:1018680021F0070141F001012183218B4FF000098C
:1018780001F0070AAA457FF43FAF002F9BD041F043
:101888000801218388F31188BFF36F8F002FC7D019
:101898003D68394633465246204611F015FD2F461D
:1018A800F4E7AB067FF51AAF25F02003238305F094
:1018B8000705FFE6FD32010010B530B90B480C49A9
:1018C80011F0BFFD6FF0150010BD836833B90748EC
:1018D800084911F0B6FD6FF00400F5E71B6813B175
:1018E800BDE8104018471846EEE700BF8095010094
:1018F8006EA701007FA7010010B530B90B480C494D
:1019080011F09FFD6FF0150010BD836833B90748CB
:10191800084911F096FD6FF00400F5E75B6813B114
:10192800BDE8104018471846EEE700BF8095010053
:101938006EA701007FA7010070B508B101B132B9E7
:101948000B480C4911F07DFD6FF0150070BD8468DF
:101958000CB1E56835B90648074911F072FD6FF01A
:101968000400F3E741F8040BE368BDE8704018474A
:10197800809501009DA701007FA7010010B50446CE
:1019880030B91048104911F05CFD6FF0150010BD1A
:10199800006830B90B480D4911F053FD6FF0010094
:1019A800F5E783680BB11B6933B90648084911F09C
:1019B80048FD6FF00400EAE7616898470028E6D11F
:1019C8002060E4E780950100C9A70100DAA70100BB
:1019D8007FA7010070B51346044630B91048114975
:1019E80011F02FFD6FF0150070BD006830B90C487C
:1019F8000D4911F026FD6FF00100F5E782680AB184
:101A0800956835B90648094911F01BFD6FF00400C7
:101A1800EAE70A46AC466168BDE87040604700BF27
:101A280080950100C9A70100DAA701007FA701007E
:101A3800034A13680BB9526813600020704700BF4F
:101A48004402002030B50C460E4985B00291D0F80A
:101A5800AC110546CDE9003100F1E0014FF0FF334C
:101A680020460DF05FFE50B9012384F86430D5F8A4
:101A7800A83123B1204605B0BDE83040184705B06D
:101A880030BD00BF4335010038B50C461146054648
:101A980011F055FD034638B92846044911F04FFDA9
:101AA80003460020236038BD0120FBE7A6D10100D2
:101AB8002DE9F04F012381460569466885B005F593
:101AC8005977D7E8EF2F002A03D1C7E8E13F00296B
:101AD800F7D10CBF1A46002240F0B580B368B16A4E
:101AE80005F5E4781C1F104611F0AEFD844263D85A
:101AF800013A00F0A280B2FA82F24FF00044D440DA
:101B080072682046073222F00302C5F86022B16AE3
:101B180011F09AFDC5F86402B36A40466343033383
:101B280023F0030302EB4302230103EB44030933CD
:101B380023F0030303EBC403C5F858221A44083200
:101B4800C5F854227368C5F85C42C5F850323F4B5B
:101B5800C5E9A963D9F80030C5F8FC31316800F04F
:101B6800DFF9044630BBD9F804A0D9F81090DAE9B7
:101B7800073409F5307B012B584608BF103C16F096
:101B88000BFF0023DAF8240031494FF4806201EB9F
:101B980080210093584623460FF04AF809F52C7027
:101BA8002C4916F09FFEDAF8140083685C682CB99B
:101BB8006FF05704002139E0013294E74B46264A7A
:101BC800DAF81810A04704460028F3D1DAF8140010
:101BD80083681B69002BEBD00122DAF818109847AC
:101BE80004460028E6D11D4B2846C5F8A8311C4BF1
:101BF800C5F8AC311B4B0393D5F810320293D5F8D6
:101C08000832CDE90083D5F86832B26AD5F8601396
:101C180000F04EF904460028CCD105F1E0000DF0A3
:101C280031FE0028C5F868030ADB0221384611F0A6
:101C3800BBFC204605B0BDE8F08F6FF00B04B9E798
:101C48006FF01504B6E76FF07704F2E799350100F5
:101C5800002300207F35010073350100711C00004E
:101C680027370100E135010013B5044640B10023D0
:101C78000122CDE90032074BD0E909120DF006FD2B
:101C8800A36E1B6823B1E06E02B0BDE81040184790
:101C980002B010BDA6D1010013B50446084621695B
:101CA80001F55971D1E8AF1F022910D193B1A0B144
:101CB8000121CDE900311346D0E909120DF0E6FC07
:101CC800074B984208BF6FF00B0002B010BD6FF0D1
:101CD8000F00FAE76FF04C00F7E76FF00100F4E748
:101CE8002EF8FFFF2DE9F74388461546066906F5E5
:101CF8005973D3E8AF3F022B5FD1136823B96FF054
:101D0800150003B0BDE8F0831B78002BF7D0D6F898
:101D18006093B9F1000F33D106F5D8774FF0FF3251
:101D28004FF0FF3338460EF003FD30462A6801A90C
:101D3800FFF7AAFE019C1CB9384611F033FCDEE718
:101D480005F10803A3666B6984F86490E366E463AD
:101D580060B1384611F026FC21463046236E2A68C9
:101D6800FFF770FE0020C8F80040CAE72022296863
:101D780004F1400017F07FF8384611F013FCF1E742
:101D880030460F4911F0DBFB04460028B7D005F1B7
:101D9800080383666B69C063C366002380F86430F8
:101DA80020222968403017F066F822460121304683
:101DB80000F060F80028D5D0A1E76FF00F00A0E789
:101DC800A6D1010010B50C46006900F55973D3E897
:101DD800AF3F022B0FD189B10A4900F52C7016F0DC
:101DE800BFFD204615F0F1FF70220021204617F0B4
:101DF80086F9002010BD6FF00F00FBE76FF00100BF
:101E0800F8E700BFCC1C00202DE9F04F05460E4630
:101E180090460027D0F8B0A085B0AAF5AE74214648
:101E28003046FEF7FDFAE0B9114BA4F1400B0293DE
:101E3800DAF810303246CDE9008329464FF0FF33F7
:101E48005846AAF5CE790DF06DFC60B970230122D1
:101E580003FB079383F86420DAF80C300BB158467B
:101E68009847703417B105B0BDE8F08F0127D6E761
:101E7800553701001FB5144690B18AB1012912D116
:101E88000A4B00F1E0010293D0F8AC3140320193E3
:101E98004FF0FF33204600930DF044FC04B010BD12
:101EA8006FF01500FAE70020F8E700BF553701008A
:101EB8002DE9F04387B00E46DDE90E811446DDE9D1
:101EC80010251F4630B329B3DFF850C000F1E009F0
:101ED800002D08BF65469EB9CDE9034400F5CE74D0
:101EE8002046059616F096F903ABCDE900432A463D
:101EF8003B46414648460DF0EBFC07B0BDE8F08391
:101F0800002241460E9248462A4607B0BDE8F043F3
:101F18000DF00ABE6FF01500EFE700BF111E0000BC
:101F2800F0B50E46044689B0002872D0436B0BB951
:101F3800394B436301232246E3630023D4F8981006
:101F480004F1400042F8301FCDE901334FF0FF3370
:101F58000093D4F89C3015F01DFC304A06AB92E88B
:101F6800030083E8030018460DF096FA0546D8B931
:101F780004F134000DF072FA0546A8B9616B2848DF
:101F880005AA15F0E3FB054670B9059B9A6872B17E
:101F98000C33D4F89400C4F8A03011F008FCC4F84D
:101FA800D40030B96FF00B05284609B0F0BD0346E0
:101FB800EFE7D4F8940011F0FAFBC4F8D800002831
:101FC800F0D0D4F88C30D4F8A010C4F8A83004238A
:101FD800C4F8AC30C4F8C4300223A362114BB4F87F
:101FE8009420D4F8D470C4F8B810C4F8D010D4F839
:101FF8009010236204F1A403A4F8B020C4F8A470DC
:10200800C4F8C010A4F8C820C4F8BC00A661E362F4
:10201800CAE76FF01505C7E704A801001896010084
:102028000EA80100289B01002DE9F0470446074649
:102038004FF00109DFF8508014B93846BDE8F08741
:1020480094FAA4F5B5FA85F509FA05F32E0108EB1B
:1020580005156FEA030A24EA03042B7B002BEBD057
:1020680058F806301B694BB9464473680422284661
:10207800196807EA0A0700F051FADDE72846984789
:102088000028D9D1F0E700BFE895010030B500225B
:1020980089B00F490F4816F039FD002200230024AB
:1020A800CDE906230E230C4DCDE903344FF44072DD
:1020B8002846CDE90144094B094900940DF05AFF1F
:1020C8000849284616F082F9204609B030BD00BFFD
:1020D800F1200000080F0020800A0020C92300001A
:1020E8000027002016A8010001480EF0CFBB00BF52
:1020F800640500202DE9F04780461F480F4611F07F
:10210800A8FB0646002830D000252846BDE8F08701
:10211800237B73B12368DB680BB12046984723689B
:102128001B69D3B9636804222046196800F0F6F9E0
:10213800013610344C45EBD3B8F1000FE5D0002D33
:10214800E2D02846FFF770FF0546002FF7D00021A0
:102158004FF4A4700EF07AFAF1E720469847002869
:10216800E0D00AFA06F31D43E2E705464FF0010AFC
:10217800024CDFF80C90DDE7041D0020E895010013
:10218800F8950100014B53F820007047689B010047
:1021980008B5034608462BB1044A136000F08EFCCC
:1021A800002008BD6FF01500FBE700BF700200209B
:1021B80010B5044C237813B903480EF067FB0123CC
:1021C800237010BD0C2200206405002010B50446C1
:1021D800064811F03EFB3CB1054BD3E8EF1F01392F
:1021E800C3E8E21F002AF8D110BD00BFFC1C002084
:1021F800001D002000200146034BD3E8EF0FC3E881
:10220800E21F002AF9D17047FC1C002070B5FFF7C7
:10221800F1FF0546074C084EB44200D370BD636811
:102228005B792BB123685B6813B129462046984730
:102238001034F1E7E8950100F895010010B5044C59
:102248000449204610F0BAFE034B1C6010BD00BFC5
:10225800A0040020549B0100F41C002008B50023B2
:10226800074A4FF400411370064A07481360074AAB
:102278001360FFF78DFFBDE80840FFF7DFBF00BF21
:102288000D220020FC1C002057380100001D0020F2
:10229800014600220023014810F0B1BEA00400202E
:1022A800014810F04ABF00BFA0040020024B0146BD
:1022B800186810F094BF00BFF41C0020014810F00B
:1022C800CABF00BFA004002070B5264B18780028AC
:1022D80047D0FFF7E5FF054670B1234BD3E8EF1F62
:1022E8000139C3E8E21F002AF8D1204C204EB4423D
:1022F8002DD32846FFF7DAFF1E4B1F4C1B68002B17
:1023080019DD16F0BCFB4FF47A72A0FB020302FB46
:102318000131C30B43EA4143D4E900209B1A40F240
:10232800E9324FEAD13161EB0001934271F10001CA
:1023380001D3FFF76BFFD4E9003213F57A7342F14A
:102348000002C4E90032BDE87040FFF7B7BF636818
:102358005B7923B12368294620461B6898471034C7
:10236800C5E770BD0C220020001D0020E895010083
:10237800F8950100FC1C0020000F002070B50D4DE1
:10238800297861B90120FFF7B5FE0B4C0B4EB4421A
:1023980006D3FFF799FF0028FBD101232B7070BDEE
:1023A80063685B791BB1236820469B6898471034A3
:1023B800EDE700BF0D220020E8950100F895010027
:1023C80000212DE9F0470846FFF794FE044658B36C
:1023D80040F267684FF0000916F0A2FE1B4B1C4A3A
:1023E8001B58136033B11B4B1B68092B02DD1A48BD
:1023F8000EF04CFA0025194FDFF85CA044B12046D6
:10240800FFF712FE044618B94FF0FF384FF0FF39B6
:10241800FFF75AFF064628B9B5B942464B4650461B
:102428000EF05AFA3546E9E74FF0FF384FF0FF391A
:10243800D2E72B689B691BB10022284611469847B2
:102448001035BD42F5D3E8E7054DFAE7080000006E
:10245800F81C0020001D002064050020F8950100EC
:10246800E895010013B5184811F0F3F9174B1B78DC
:102478007BB14FF02003EFF3118483F31288BFF38D
:102488006F8FFFF721FF84F31188BFF36F8F02B0BE
:1024980010BD0F4B1B68002BF9D050B90022002348
:1024A8000C48CDE900234FF4004200230EF066FEED
:1024B800EDE70928EBD1074816F034FB064802B0CF
:1024C800BDE810400EF0E2B9001D00200D220020EA
:1024D800F81C0020080F00206405002010B5064BEA
:1024E80004461B6898472146A060044810F005FE82
:1024F800BDE81040FFF7B6BF70020020A00400201E
:10250800044A054B9B1AB1EBD30F34BF52F8310084
:1025180000207047E0940100E8950100084B10B4D2
:10252800C31A44681B110133237143689A7101224D
:102538004368196043685A7110BCFFF739BE00BF81
:10254800E89501002DE9F04F8FB0C1F34A2804AF98
:102558000D469146B8607B600C0DB8F1000F63D052
:1025680000264FF0040B4FF00A0A07F11403C7F8CE
:102578000C80C7E907667E620193CDF808B0CDF8F4
:1025880000A007F11C0332464846F968FEF786FEAC
:10259800B0F5006F03461CD36C468AB0D9F8041016
:1025A80004AB26481A46C3E9050140F2FF71D96118
:1025B8004FF400711984224B42F8103F4FF4125126
:1025C80033462048FFF7BEFFA5462C37BD46BDE879
:1025D800F08FC0F30A0804F11700184420F0070030
:1025E80080083B60FFF754FE68F35325044690B11A
:1025F8003B6800F11001C7E9083607F11403F961D7
:10260800CDE900A3CDF808B048460F4AF96807F1AC
:102618001C03FEF743FE68F353252A4620467B68D1
:10262800B96811F048F9D0E704F1170020F0070065
:102638008008FFF72DFE0446EDE700BF2BA8010038
:102648000400000188950100933801002DE9F04F3E
:1026580087B00446DDE9105ADDE912690F46934652
:102668009846A6B31021334652460020CDF8009074
:10267800CDF81490FEF740FC014605F11700084418
:10268800144B04F007040BF0070BE40020F00700DC
:1026980003EA412344EA8B1480081C430391FFF7A3
:1026A800F7FD44EA0554054640B13EB1334652466B
:1026B8000399CDF800901030FEF71EFC43462246E1
:1026C8003946284607B0BDE8F04F11F0F4B8314656
:1026D800D3E700BF00FE0F000EB403B503AB53F8F9
:1026E800042B01460448019301F008FA02B05DF892
:1026F80004EB03B0704700BFD1390100CA0605D406
:102708008B064CBF02490349FFF7E6BF704700BF7D
:10271800A5D10100A4D101002DE9F04F89B09A4656
:10272800149B9DF84CB00693159B04460593169B85
:102738000D469046179E0493BBF1000F00F09D8054
:1027480006F48073079311F09EF806F0020902461A
:1027580000283ED020469249FFF7BEFF0746B9F150
:10276800000F08D016F0440F35D12A4620468D496F
:10277800FFF7B2FF074406F0010353B18A4B204626
:1027880053F82B20894B8A49002A08BF1A46FFF7BD
:10279800A3FF06F48073002B49D006F00803002B32
:1027A80063D1B8F1000F66D0424620468149FFF751
:1027B80093FF0546069B3D44002B6DD1049B002BDF
:1027C80073D1F30700F1E58031462046FFF796FF05
:1027D800D9E00746C3E7784B18680028CAD0774B7A
:1027E8004FF47A791B684FF46161B5FBF3F5B5FBDB
:1027F800F0F300FB135509FB05F5B3FBF1F2B5FB4C
:10280800F0FE4FF03C0C01FB123100FB1E55B1FBF2
:10281800FCF309FB05F5B5FBF0F50CFB131120469D
:102828000091CDE901E56649FFF756FFA2E706F0FA
:102838000803EBB1634B204653F82B206249FFF79E
:102848004BFF0546B8F1000F05D0424620465949CE
:10285800FFF742FF0544BAF1000FABD052462046BD
:102868005A49FFF739FF0544A4E74FF0000AE1E7AA
:1028780006F00805E6E745469CE7BAF1010F069B16
:1028880006D1002B65D1049B002B7CD000250CE0E1
:10289800002BF8D04E485DE04E48069B22464E4934
:1028A80010F01CFA049B002B69D0DFF83081DFF8A8
:1028B8003091049F3146102F204628BF10274FF033
:1028C800000AFFF71BFF554546DC059B4946204695
:1028D8001A78FFF701FF4FF0010A1AF0070F03D12A
:1028E80041462046FFF7F8FE57453CD9059B494627
:1028F800204613F80A20FFF7EFFE0AF1010ABAF1A1
:10290800100FEAD14FF0000A20463649FFF7E4FEDF
:102918005246059B20469A5C334B995C11F0970F01
:1029280008BF2E223149FFF7D7FE0AF1010ABAF192
:10293800100F1DD01AF0070F03D141462046FFF7AC
:10294800CBFE57455246E4D841462046FFF7C4FE21
:10295800EBE720485D46A0E741462046FFF7BCFE6E
:102968000AF1010AAFE720462149FFF7B5FEC4E79F
:10297800059B3B440593049BDB1B049399D1BBF156
:10298800000F7FF41EAF204609B0BDE8F04F11F0EC
:102998000EB82046054A0649FFF79EFE14E700BF19
:1029A8006FA8010073A80100789B01006AA80100C4
:1029B8005EB5010098A801000C1D0020081D00202C
:1029C8007CA801008C9B01009CA80100A2A8010022
:1029D800FF390100D1390100053B000070D1010029
:1029E800A7A80100ADA80100CDD20100AFA8010041
:1029F8006ED101002DE9F0410F884B6805460C4661
:102A080090468E6886B0C7F382175BB1144A9B1A4A
:102A180043F3CF01002920DB2078C0F3C200FFF781
:102A28006FFD0346214651F8102B6088C2F34A22F5
:102A3800002A01EB020408BF00210022C0F30B109A
:102A4800CDE90408CDE902142846314601970092E1
:102A5800FFF762FE06B0BDE8F0810023E2E700BFA1
:102A6800E094010042F20F7373B58B4228BF0B4606
:102A780005680446052168460D4A0EF069FC0646BD
:102A8800636828460B225B680A4910F083FF636875
:102A98003246694628465B6810F07CFF63681B2253
:102AA80028465B68044910F075FF02B070BD00BF8E
:102AB8003AB00100CEA80100B2A80100002101230C
:102AC800064A904206D8064A01B901231360054B0D
:102AD80018607047012140085B00F2E740420F0090
:102AE800081D00200C1D0020F8B50D460446064FB1
:102AF8004618B44201D12846F8BD14F8011BBB683A
:102B080001485B689847F4E718920100014B03609D
:102B180000207047D49B01001FB507240294044C81
:102B28000194BDF81840009413F051FA04B010BD98
:102B3800890400200449431E0F3013F8012F8A5CD2
:102B480083421A70F9D170473CA90100F0B50746D5
:102B5800264E8DB001AD0C460FCE0FC50FCE0FC55A
:102B680096E8070085E807003846002F39D0002C82
:102B780039D0381F0246214610344B780D781B0493
:102B880043EA0563CD7804312B4311F8025C8C428B
:102B980043EA052342F8043FEFD10421144C8A0785
:102BA800036916D1C3F30742A55C1A0EA25C42EA78
:102BB8000562C3F30725655DDBB2E35C42EA0542C3
:102BC80042EA032221F0030330336B4453F82C3CD0
:102BD800534050F8042F013153402C290361DED1B2
:102BE80001200DB0F0BD2046FBE700BF2096010094
:102BF8003CA901002DE9F04F002703689DB002931E
:102C08004368DFF8BCA103938368DDE902460493B7
:102C1800C36805930369DDE904BE06934369079316
:102C28008369DDE9062C0893C36998460993089BD4
:102C38000093CD590CAB2DBA5AF8049BDD514FEADD
:102C4800F223A94483EAB213009D83EA72634B44DA
:102C580025EA020502EA0C0985EA09052B444344E2
:102C680086EA0B054FEA743888EAB408254006EA74
:102C78000B0985EA090588EAB4580437A844402FA7
:102C880003EB0E054344DE46DDF8008040F0888003
:102C98004FF0100A4B490A9151460AF1010A0DF109
:102CA800700E0AF00F070EEB870757F8407C01F00B
:102CB8000F094FEAB748019788EAF71801F10E079C
:102CC80007F00F070EEB870757F8407C09314FEAEA
:102CD800F74E8EEA774ECDF82CE001F00F010DF19A
:102CE800700E0EEB81010EEB890959F840EC51F892
:102CF800401CBAF1400F7144DDF804E088EADE08B0
:102D0800DDF82CE041448EEA972E714405EA02086A
:102D18004FEAF52E2CEA050787EA08078EEAB51E62
:102D2800DDF828808EEA756E774458F804EF49F884
:102D3800401C77440F4400994FEA733E394484EAB3
:102D48000607CDF828808EEAB30E07EA030704EADF
:102D580006088EEAB35E87EA080777440F4401EB5A
:102D68000B0ECDF800C0B34622D102993944016058
:102D780003991944049B416023448360059B3344B1
:102D8800C360069B73440361079B2B444361089B04
:102D980013448361099B6344C3611DB0BDE8F08F90
:102DA800B346CDF800C0264694461C462A4640E75E
:102DB800944626462A461C4675463B466CE700BFA5
:102DC800609C01009C9C010010B50446C8B17022AB
:102DD800002110F06DFE0B4B0B4A0C49C4E900238F
:102DE8000B4B0C48C4E902130B4BC4E90403012044
:102DF8000A4BA36103F17453A3F52303A3F692438B
:102E0800E36110BD85AE67BB67E6096A72F36E3C85
:102E18003AF54FA57F520E518C68059BABD9831F9D
:102E28002DE9F04780460C4600AF002936D0D1E99D
:102E38000012E9468AB06D46A3684FF0050A2E468F
:102E48001A48C5E90723C5E9050146F810AF00236C
:102E580032464FF421511648FFF774FBD4E90312A8
:102E6800CD466369AD461348C5E90723C5E90501A1
:102E7800C5F810A0002332464FF421510C48FFF743
:102E880061FBCD46E36901210B4A094810F06CFD4E
:102E9800A3690121094A064810F066FD214640460B
:102EA8000CF068FEBD46BDE8F08700BF3CAA0100F3
:102EB800C89501006BAA01009AAA0100A9AA0100FD
:102EC80030BFFFF7FDBF00BF114B124A2DE9F0419B
:102ED800D518013DB5FBF3F5DFF83C805D430F4B9A
:102EE800074608EB0304013CB4FBF3F403FB04546A
:102EF8000E1B30460A4916F0F5F8701942460021B3
:102F0800083E16F0FCF87E6704F10800BDE8F08181
:102F180001000000000000000400000004000000A0
:102F2800F8950100044B99685869884203D0034911
:102F38004FF080520A607047AC21002004ED00E099
:102F480070B52A4C06460D4629482A4911F002FA5E
:102F5800A36ADB0647D52648274911F0FBF911205B
:102F6800A36A1C0704D52248244911F0F3F912205A
:102F78001E4CA36A990712D521491D4811F0EAF998
:102F8800636BA26A120609D501211E4A184810F07F
:102F9800EBFC1EB1A36A23F08003A3621320134C39
:102FA800A36ADE0704D51248174911F0D3F9142093
:102FB800A36A9C0604D50E48144911F0CBF91520D4
:102FC8000A4B9A6AD10658BF9A6A9A6A920642BF11
:102FD8005A6A22F400525A629A6A42F0FF029A62CE
:102FE80000232B7070BD1020BAE700BF00ED00E091
:102FF800C8950100D7AA0100EDAA010020AB010085
:1030080033AB01004BAB010061AB010080AB0100A9
:1030180010B5244C2449254811F09CF9A36A99015C
:103028003ED52248224911F095F91E20A36ADA01FB
:1030380004D51E481F4911F08DF91F20194CA36AA9
:10304800DB0204D519481C4911F084F90220A36A4F
:103058001C0304D51548194911F07CF92120114C9D
:10306800A36A590304D51148154911F073F92220B0
:10307800A36A9A0304D50D48124911F06BF923206D
:10308800084CA36ADB0304D508480F4911F062F91C
:103098002420A36A6FEA03436FEA1343A36210BDB7
:1030A8001D20C3E700ED00E0AFAB0100C8950100AB
:1030B800C7AB0100DAAB0100F4AB01001EAC0100A4
:1030C8003CAC010061AC01007BAC010070B5294C3F
:1030D80006460D462848294911F03CF9A36AD90447
:1030E8003CD52548264911F035F91720A36A1A0559
:1030F80004D52148234911F02DF918201D4CA36A45
:103108009B0512D51C48204911F024F9A36BA26A2B
:10311800100409D501211D4A174810F025FC1EB1DD
:10312800A36A23F40043A3621920124CA36A590529
:1031380004D51148164911F00DF91A20A36ADA05C9
:103148000ED50D48134911F005F91B20094A936A59
:1031580043F47F43936200232B7070BD1620C5E7AC
:10316800A36A9B04F2D504480B4911F0F3F81C201C
:10317800ECE700BF00ED00E0C8950100A6AC010037
:10318800BCAC010020AB0100CDAC0100E6AC0100F5
:10319800FBAC010016AD010080AB01002DE9F04148
:1031A8008AB0654B0446D3F80480002600AFC8F304
:1031B800080586F31188BFF36F8F02F07F43B3F1E0
:1031C8007F4F07D102F00C03082B12D15B495C48F2
:1031D80011F0C0F8002634460023FB71EB1E092BC2
:1031E80000F28980DFE803F00A7F827C878787877F
:1031F800878510074CBF0C460126EDE7514950481A
:1032080011F0A8F800234C4DFB71EB6A9A0705D51D
:103218004D494B4811F09EF8002332E0EB6A002B31
:1032280001DA4A49F5E7EB6A5B00F5D548494448B5
:1032380011F090F86B69A26943F480736B61BFF376
:103248004F8FBFF36F8F6B6932F8022C23F48073B2
:103258006B61BFF34F8FBFF36F8F4DF602739A42C6
:1032680008D0AB6ADBB273B30120F91DFFF768FE23
:10327800034606E023680121364A314810F074FB02
:103288002368FA79DAB907F1080504F1200C2A460F
:1032980020686168083403C264451546F7D17A6A24
:1032A800002E44D0C2F3080121B96FEA52226FEA16
:1032B80042227A62184607F10801FFF7B1FD283764
:1032C800BD46BDE8F081AB6A13F47F4F04D00120FE
:1032D800F91DFFF7FBFECBE7AB6AB3F5803F9BD345
:1032E800FFF796FEC4E70020F91DBFE70020F91D8F
:1032F800EFE719498DE7194A18F4F87FE8468AB0CC
:10330800174B18BF13466A461649103DC2E9051304
:103318004FF400731384144BD56142F8103F002317
:103328004FF411510648FFF70DF9C54674E722F42A
:10333800FF7222F00102BCE700ED00E05CAD010085
:10334800C895010087AD01009EAD0100BFAD010029
:10335800CDAD0100ECAD010008AE010043AD0100A8
:103368002EAD01002CAE010004000001044B5A6987
:1033780042F010025A615A6942F480625A617047F9
:1033880000ED00E0EFF30880EFF3098101B5724624
:10339800FFF704FF01BD00BF00F05CFD202080F3B3
:1033A800118808484FF40061401880F30988EFF34A
:1033B80014800221084380F31488BFF36F8F00F054
:1033C800BBF8000058380020084B9B6883420BD19B
:1033D800EFF3058343B1064B5A6842F080525A60B6
:1033E8005A6A22F400425A6215F002B9AC21002050
:1033F80000ED00E06FF00A01084A9368D9670849B0
:1034080098674B6843F080534B60002383F311881F
:10341800BFF36F8F9368D86F704700BFAC2100204F
:1034280000ED00E016498A684FF030001044EFF3D1
:10343800098C80E8F01F202080F31288BFF36F8F7B
:10344800104F4FF000664A698A603E604FF074047E
:10345800141920680C4C2060906F0023936780F348
:10346800118802F1300090E8F01F8CF3098802F10E
:10347800000004B510F076FFBDE804407047000076
:10348800AC21002004ED00E03C1D00201EF0040FDC
:103498000CBFEFF30880EFF30980816911F8021C73
:1034A8000229FFD001B510F04AFF01BD40B2002843
:1034B80007DB01234109034A00F01F00834042F85B
:1034C8002130704700E100E040B200280CDB012207
:1034D8000649430900F01F008240203341F82320A9
:1034E800BFF34F8FBFF36F8F704700BF00E100E05D
:1034F800054B420953F82220012300F01F0003FA6C
:1035080000F01040704700BF00E100E040B2002822
:1035180001F10101ACBF00F16040064B4FEA4111D7
:10352800C9B2ABBF00F5614000F00F0080F800138E
:103538001954704714ED00E00F4A08B50F4B22F0FC
:103548007F029A60BFF34F8FBFF36F8FD3F8882045
:1035580022F47002C3F88820EFF3148323F00403E5
:1035680083F31488BFF36F8F0CF0B8FB0DF03AFCAF
:1035780000F078F80CF0FCFB0000000000ED00E023
:1035880042F8203C009B0B4942F81C3C019B21F06F
:10359800010142F8183C029B42F8081C42F8143C0E
:1035A8004FF0807342F8043C0023203A0265836799
:1035B800704700BF711600000A4B446F98600A4BB1
:1035C8001C60436E83F30B88104681F30988002141
:1035D80063B681F31188BFF36F8F00220023FEF7D3
:1035E80043F800BFAC2100203C1D002001491022F7
:1035F8000A60704710ED00E072B6404080F3118811
:10360800BFF36F8F01B500F023FB00280AD0BFF38A
:103618004F8F30BF00BF00BF00BF00BF00BF00BF5B
:1036280000BF00BFBDE8014062B6BFF36F8F7047AF
:1036380072B6494081F3118801B500F009FB0028F2
:103648000AD0BFF34F8F20BF00BF00BF00BF00BF2D
:1036580000BF00BF00BF00BFBDE8014080F3118874
:1036680062B67047002320210348C2180133452B56
:1036780082F80013F9D1704700E100E001B5EFF3DB
:103688000580A0F110004FEAC0000449014409C9AF
:103698009847BDE8014002490847000054920100DC
:1036A8002D2F00001FB5094C094A2346012109485E
:1036B80000F012F900230393074B0121E41A01A833
:1036C8000193029400F012F904B010BD0000072025
:1036D80000000020609D01001007002010B50C7A42
:1036E8000B6804F01F0223F01F031A43CB68640918
:1036F80023F01F03054943EA440343F00103C1F8DB
:103708009800C1F89C20C1F8A03010BD00ED00E081
:1037180010B50A4BD3F89030C3F30723013B984206
:1037280008D901210346064A064810F01DF96FF032
:10373800150010BDFFF7D2FFFBE700BF00ED00E06A
:1037480043AE0100A89501002DE9F04F89461446C3
:1037580006464FF00008514D85B0C84527DAD6F81F
:1037680004A0BAF1000F44D0BAF11F0F17D91AF00C
:103778001F0F14D1D6F800B01BF01F0F0FD15846F9
:1037880010F0F4FD07460AEB0B00013810F0EEFDCF
:10379800874210D06FF01507414A3B4601E0434687
:1037A800404A0121404810F0DFF86FF01504204628
:1037B80005B0BDE8F08F17F1160FEDD0BC42EBDD78
:1037C800C5F89870D5F89C10C5F89870D5F8A03051
:1037D80021F01F0143F01F0BD6E900321A44994229
:1037E80002F1FF3A1DD1D34507D13146F8B210F0A6
:1037F800C6FD08F101080C36AFE73146C5F89870E8
:10380800D5F89C3022F01F0203F01F031343C5F8BC
:103818009C30E0B210F0B3FD10F1160FC5D0441C77
:10382800E7E7C5F89870D5F8A020013B23F01F03FF
:1038380002F01F021343D3453146E0B2C5F8A03069
:10384800E8D010F09CFD10F1160FAED0C5F89870B6
:10385800D5F89C209DF808300BF1FF3B62F3040378
:103868008DF80830D5F8A0309DF808205B0863F380
:1038780047128DF80820D6E900321344009323F04C
:103888001F035B44A3EB0A03013023F01F036946BF
:10389800C0B20393FFF73CFFBEE700BF00ED00E0B6
:1038A8008CAE010069AE0100A89501000522044B09
:1038B800C3F89420BFF34F8FBFF36F8F704700BFDB
:1038C80000ED00E0BFF35F8F0022024BC3F89420A5
:1038D800704700BF00ED00E010B5034C2278FFF7F9
:1038E80033FF207010BD00BF0F2200202DE9F74FD5
:1038F800294D8A4606464FF00008AB46274FD0456B
:103908001BDAD6F80490B9F1000F3FD031680846A9
:10391800019110F02BFD0199044609EB01000138D3
:1039280010F024FD84424FF014021D4B08D002FB16
:1039380008F36FF015024BF8032003B0BDE8F08FD1
:1039480014F1160F2C60F8D01978A142F5DD02FBAE
:1039580008B0C7F89840C7F89840D7F89C4000F1DD
:103968000801007B64F304000871D7F8A0000C7903
:10397800400860F347140C71D7F89C1021F01F0120
:103988006960D7F8A01021F01F01296108F101082A
:1039980014350C36B3E700BF401D002000ED00E0F1
:1039A8000F220020F0B54449444CD1F890302568E6
:1039B800C3F307239D4287B07AD80020FFF782FF20
:1039C8003F4BC1F8C030854216D13E4C01A8257046
:1039D800FFF79CF8002506463B4FAE4213D1002066
:1039E80023783549D1F89020C2F30722934259DB56
:1039F800FFF75CFF002053E0616801EB0011FFF75F
:103A08006DFE0130DFE70199280101EB0513DA6843
:103A18003A40B2F5001F22D0B2F5800F2CD0B2F593
:103A2800801F36D15A689B680958013B22F01F0055
:103A380003440120844623F01F0340EA4C10CDE9DB
:103A480002218DF8100002A920780593FFF760FE87
:103A5800002823DB2378013501332370BDE75A683A
:103A68009B680958013B22F01F0003444FF0020CE9
:103A7800012023F01F03E0E75A689B680958013BBF
:103A880022F01F0003444FF0000C062023F01F0310
:103A9800D3E701210D4A0E480FF05DFF6FF01500C6
:103AA80007B0F0BDC1F89830C1F8A000013399E71C
:103AB8004FF0FF30F4E700BF00ED00E06C9D01001F
:103AC800AAFF44000F2200200000F0FFAFAE010063
:103AD800A895010008B5024B1B689847002008BD4F
:103AE800541D0020034B044A1860937843F00203E6
:103AF80093707047541D002094020020F0B587B0E1
:103B080007460E4614460021102268461D4615F049
:103B1800F6FA02238DF80230054B2A4621466846FC
:103B2800CDE9047601930DF0D9FC07B0F0BD00BFD4
:103B3800B943010008B50649064821F00701C1F15B
:103B4800005202F5E0220FF071F8002008BD00BF16
:103B5800EB940020581D002000F01F0240090DD0F2
:103B680001280DD1094B03EB8203D3F8002222F080
:103B7800E04242EA0171C3F800127047044BF2E7D1
:103B88000023803253F82230FFDE00BF0028845023
:103B98000025845038B50124134B144DC3F8004553
:103BA80002230321C5F8D0360020FFF7D5FF2046B1
:103BB8000321FFF7D1FFC5F804472146C5F804499A
:103BC8002120C5F8004BFFF7C7FF21462020FFF74B
:103BD800C3FF21460B20FFF7BFFF21460A20FFF74E
:103BE800BBFF002038BD00BF00100050004000504F
:103BF80007B50DF1070013F074FC114B98421CD166
:103C08004FF480620F4B1049C3F8B8254FF4006297
:103C1800C3F83C259DF8070013F04FFC0B499DF8AD
:103C2800070013F045FC01209DF8073098400AF082
:103C38002FFE002003B05DF804FB6FF00B00F9E7DE
:103C48000000AD0B00A002502CA0025028A1025089
:103C5800052370B5144D154E2C780134B4FBF3F3DD
:103C680003EB8303E41A13F0A9FB114A137823B179
:103C780056F82430C01A072814D94FF05023D3F827
:103C8800141141B10021C3F81411D3F814312C7068
:103C98000CB9012313702C7813F090FB46F824001C
:103CA800012070BD0020FCE711220020641D0020C7
:103CB8001022002048B1054B054A1B68B3FBF2F3FC
:103CC8005843044B43F0010318477047C0030020D2
:103CD80040420F00D096010070B5049CC4F307263B
:103CE80030460AF0F3F9E5B20146284613F0F1FB35
:103CF80000220120074BA40B04F0FC041A51A84031
:103D08000AF0CCFD30460AF095FB2846BDE8704025
:103D18000AF0B8BE80A0025073B501A80AF0ACFE44
:103D2800264B984247D10AF067FB041E0ADA9DF831
:103D380004000AF0A7FE01212346214A21480FF07A
:103D480013FE35E040F607031F4D8DF80540AE68B9
:103D5800ADF806307468019B14B96FF05704EAE7B0
:103D680008212846194AA047041EE4DB3369002BC2
:103D7800F3D00122082128469847041EDBDB0120E6
:103D88009DF8043098400AF083FD9DF805009DF8E1
:103D980004509DF8076013F0FBFA0146284613F01B
:103DA8008CFB0B4BB60045F000459D51002CC2D151
:103DB800204602B070BD6FF01204BCE70000AD0BE6
:103DC800E4AE0100D89501002C920100DD3D000011
:103DD80080A102502DE9F341144683681B690BB199
:103DE80000229847C4F3072630460AF077F90546BB
:103DF800304613F0CDFA4FF00008E7B201463846D6
:103E080013F06BFB104B220E920043F802803046F1
:103E18000AF05CF90D4A4FEA943C0CF0FC0C47F0B0
:103E2800004342F80C300146384613F041FB084B7A
:103E380005F132020093304643460194520013F0D4
:103E4800B1FA02B0BDE8F08180A1025080A0025012
:103E5800E13C00000AF0FEBB1022174B70B5C3F816
:103E680040244FF47F03D3F83021D3F83431072AA4
:103E78001BD1023B032B02D8104AD35CABB14FF0E5
:103E88005024012600250520C4F81866C4F81456E5
:103E980013F00CFB3046C4F8146613F007FBC4F8A3
:103EA8001456C4F81856002070BD4FF05023002255
:103EB800C3F81426F7E700BF0030005015AF010023
:103EC8000E4B402928BF402170B51D460C4C4618A2
:103ED800B04203F1020304D1002305F8113007486A
:103EE80070BD02781209A25C03F8022C10F8012BAD
:103EF80002F00F02A25C03F8012CE9E7302200204F
:103F08004CAF010030B503788BB0044607AD032BE6
:103F180021D8DFE803F0021A1C1E12492846FCF7D4
:103F280089FA059563781E210493A3780E4A0393B2
:103F3800E3780E4802932379019363790093A37978
:103F48000DF006FA09480BB030BD0949E6E7094902
:103F5800E4E70949E2E70A212846084A0DF0F8F99A
:103F6800DFE700BFE6A5010008A601001222002035
:103F7800EDA50100F4A50100FEA5010083C901001B
:103F880030B50024094D0A4B85B0284602930394A6
:103F980014F002FD02AB284600934FF4A3620A23F3
:103FA80004490CF045FE204605B030BD400F002006
:103FB80064AF0100002A0020014601480CF0AEBEA3
:103FC800400F0020037830B5012B13D0022B27D0E7
:103FD8007BB90A46184B03F1100453F8045BA3425B
:103FE80042F8045BF9D11B78137043884B731B0AA2
:103FF8008B7330BD0A46104B03F1100453F8045B71
:10400800A34242F8045BF9D11B7813704368C3F3E9
:1040180007224B731B0CCB731B0A8A730B74E8E7DC
:1040280000F1100350F8042B984241F8042BF9D101
:1040380003780B70DDE700BF6DAF0100012838B5CC
:1040480005460CBF0648074812F054FF044620B145
:1040580001210C3012F0AFFF2576204638BD00BF95
:104068005C060020AC050020132810B50CD10A48C6
:1040780012F040FF044628B101210C3012F09BFFDA
:1040880001232376204610BD09B10448F0E701203A
:10409800BDE81040FFF7D2BFE00600203006002040
:1040A800F0B505460E46174685B0AB88012B0ED9EC
:1040B800284612F0C6FF044648B1AB88984208D992
:1040C800022100930D4A03460D480FF057FC05B036
:1040D800F0BD284612F0B5FF2B688DF80800013CAA
:1040E800394602A88DF809400393B0470028EED05E
:1040F8002146284612F095FFD7E700BF7EAF0100A2
:1041080000950100C36802211B78024A024810F09A
:104118001BBA00BFA9AF01002095010038B5C368DC
:10412800B3F801401B786BB90F21204603F044F81F
:10413800054640B9084B1A8822B96FEA04506FEA5D
:104148001050188038BD012102F00EFF2846BDE846
:10415800384002F0D7BE00BFE82100202DE9F04129
:10416800C66835784DBBB6F801700F21384603F0A4
:1041780023F8044638B93B46BDE8F0410121104A0E
:10418800104810F0E1B9F3782946037302F0ECFE09
:10419800A378012B04D02046BDE8F04102F0B2BE5E
:1041A800231DD3E8AF3FDB07F5D52046022102F0F7
:1041B800DBFE284602F0A8F8EDE7BDE8F08100BF75
:1041C800D1AF01002095010010B5C3680121B3F8F3
:1041D8000140204602F0F0FF38B92346BDE8104000
:1041E8000121044A044810F0AFB9BDE8104002F0BC
:1041F80089BE00BFF7AF01002095010010B5C36864
:1042080001211C88204602F0D7FF38B92346BDE8B3
:1042180010400121034A044810F096B9BDE8104047
:1042280002F070BEF7AF010020950100012110B522
:104238000C3012F0FEFEBDE8104003780121024A5E
:10424800024810F081B900BF1BB0010020950100A1
:10425800014610B5084812F053FE0849084814F002
:104268006EFB031E06DABDE810400121054A064828
:1042780010F06AB910BD00BF44010020E002002020
:10428800601000203DB001002095010010B5084CD9
:104298000146052294F86F0003F056F938B994F8EE
:1042A8006F000422BDE81040024903F04DB910BD6B
:1042B8000000002032AF01000121024A024810F03C
:1042C80041B900BF5AB00100209501000B46B0B5B6
:1042D8000D8A00AF04462946D868FFF7F1FD8AB079
:1042E8006A46094BC2E90750C2E9053440F2024365
:1042F8009384064B4FF43251054842F8103F10F0B2
:1043080037F9BD46B0BD00BF74B00100050000011B
:104318002095010037B502EBC303934204D103B0E3
:10432800BDE83040FFF7D2BF144614F8085B854259
:1043380011D10B8A54789C4207D901210090074A71
:1043480007480FF01BFB03B030BD0846536803B0A5
:10435800BDE8304018472246DFE700BF96B00100AD
:104368002095010010B5012104460C3012F061FEC1
:104378002146BDE810400B23014A0078FFF7CABF69
:104388005C9E010070B5C5680121B5F80160304632
:1043980002F012FF044638B93346BDE870400121E7
:1043A8000B4A0C4810F0D0B82B783BB9D5F803303D
:1043B800C0F8AD30D5F80730C0F8B130201D4FF443
:1043C800005110F0CAF82046BDE8704002F09ABDCE
:1043D800F7AF01002095010073B53D4812F0A6FD26
:1043E8000446002871D0017E012945D0032969D1EE
:1043F800038A032B02D8374A012141E004210C30FB
:1044080012F017FEFF23428806886376238AC6F3D4
:104418000B009A42608309D0012100922E482F4A4E
:104428000FF0ACFA204608F011FD12E00F2102F05F
:10443800C3FE054610B9638B294ADDE702F0F4FE96
:1044480021466076320B284602F026FC284602F008
:1044580059FD244BD3F84431002B36D02249234848
:1044680014F06DFA031E30DA0121214A1A4802B00D
:10447800BDE8704010F068B8038A012B04D81D4AC3
:10448800154810F061F8CDE702210C3012F0D1FD8B
:104498000546007810F02BF883070CD440F6B523B6
:1044A800154A164916480EF080FC404080F31188E2
:1044B8004FF0030002DF06232146124A2878FFF74F
:1044C80029FFAFE70B46104A96E702B070BD00BF60
:1044D80044010020B8B0010020950100D9B00100C6
:1044E800FDB0010000000020E00200206010002064
:1044F8003DB001001FB101003BB101006FB10100E7
:104508009DB101002C9E0100BAB101002DE9F74FC1
:104518000023804689461746DFF810A1DAE8EF4FF6
:10452800CAE8E23F002AF9D1264644B943460121A8
:104538003F4A404803B0BDE8F04F10F005B82046A8
:1045480008F0E8FB4FF00C0B3B4D0BFB0050438889
:1045580043451BD0204608F0DDFB0BFB0050438889
:1045680001210093354A434632480FF007FADAE84A
:10457800EF3FCAE8E26F002AF9D1002B53D01E465C
:10458800304603B0BDE8F04F08F060BCA7420ED03B
:10459800204612F0AAFC012104F10C0840462176BD
:1045A80012F009FD40463A8AF96812F00EFD2046DD
:1045B80008F0B0FB0C2707FB00504368ABB1B9F11A
:1045C800000F12D1204608F0A5FB012107FB00507F
:1045D8004268D2E90003127A03F01F07B9405B0969
:1045E800DAB100EB83000FF0B8FF204608F092FB29
:1045F8000C2707FB00508368002BC1D0204608F029
:1046080089FB784305F80090204608F083FB07FBF8
:104618000055A8680CF03AF9B2E7C94300EB8300EB
:104628000FF0A9FFE1E703B0BDE8F08F40010020DB
:10463800CEB1010020950100781D0020F6B10100DF
:1046480038B5042104460C3012F0F3FC03464088C8
:104658005D7818B122461978FFF758FF25B1BDE8F3
:10466800384002480CF012B938BD00BF28010020BC
:1046780070B5032104460C3012F0DBFC40F63542DD
:104688000578B0F80100E36890421B7806D1BDE8D0
:1046980070400221074A08480FF056BF18B1224659
:1046A8001946FFF733FF25B1BDE8704003480CF009
:1046B800EDB870BD29B20100209501002801002045
:1046C8002DE9F84F0123D0F80C80018A98F80040B2
:1046D80000AF03EB84038B427CD96D468AB06A46EF
:1046E800C2E9073105233E484FF42151C2E90504C8
:1046F8003C4842F8103F0FF03BFFAD46BD46BDE8D1
:10470800F88F5B460121384A36480FF01DFF013506
:1047180098F800309D42F1DA08EB8503B3F801B050
:104728000F215846B3F8036002F046FD04460028FE
:10473800E7D000F1280B16B34FF02003EFF31182F6
:1047480083F31288BFF36F8FE3696BB1013BE361B9
:1047580082F31188BFF36F8F204602F063FA013E9F
:104768000CF094F8B6B2E6E7636963B982F311888E
:10477800BFF36F8F012152461A480FF0E3FE20461F
:1047880002F0C0FBC3E7A16918688B42606108BFEB
:10479800A06182F31188BFF36F8F4FF02002EFF30F
:1047A800118182F31288BFF36F8FDA68E261C3F870
:1047B8000C90C3F80090626A4AB9C4E9083381F3DF
:1047C8001188BFF36F8F58460CF02CFAC4E71360BA
:1047D8006362F4E70025DFF814A0A94698E700BF54
:1047E8005FB201002095010089B20100A5B2010065
:1047F80073B5C5680121B5F80160304602F0DCFCEC
:10480800044640B933460121284A294802B0BDE888
:1048180070400FF099BE2B78061D1A2B19D1C3785A
:10482800012B2AD14FF4806130460FF096FE4205E5
:104838000FD4D4F8A03069460093D4F8A8302046A5
:10484800019303F025FA204602B0BDE8704002F05B
:1048580059BB2B788BB9B5F80330A4F89E30B5F85E
:104868000530A4F8A430B5F80730A4F8A6306FF4E2
:10487800807130460FF07FFE14E0D6E8AF3FDB05CD
:10488800F5D52B78202BF2D194F8AC30002BEED054
:10489800013B84F8AC304FF42032002304F1580077
:1048A8000CF066FA204602F0E1FCCCE7F7AF010015
:1048B8002095010010B5C1E900239DF808300C4689
:1048C8000B7208F027FA0C22024B02FB00335C60E3
:1048D80010BD00BF781D00202DE9F0474FF0FF32D2
:1048E8004FF0FF33064617480F4612F003FB4FF010
:1048F8000008044600F10C0A0121504612F05BFB47
:10490800204684F8188008F005FA4FF00C090E4D7F
:1049180009FB00504680204608F0FCF909FB0050CE
:10492800C0F80880204608F0F5F909FB0055032176
:104938005046C5F8048012F042FB06808770204676
:10494800BDE8F087B4060020781D00202DE9F0416D
:10495800074616460C4688B021B9FFF7BDFF044646
:10496800002852D002AD01220021284613F036FF5C
:10497800204608F0CFF90C23DFF89C8003FB008069
:104988008560204612F0EBFA0146244812F0E5FA59
:104998004FF4A022284600230BF09EFF054688B15D
:1049A80040F24B131E4A1F491F480EF0FEF92A46D3
:1049B80039461E480EF0F9F9404080F311884FF04F
:1049C800030002DF204608F0A5F90C23584318F825
:1049D800005095B102213B46154A16480095093DFD
:1049E8000EF0CCFFEDB2204608F030FA092D0FD8B2
:1049F800114B585708B0BDE8F08116B1346000205B
:104A0800F8E7204608F022FAF9E76FF06800F1E7C6
:104A18006FF00400EEE700BF781D00204C01002075
:104A28003BB10100BCB201009DB10100C5B201005B
:104A3800F1B20100209501008CB7010073B506465C
:104A48000D4642F22F00002101AAFFF77FFF04461E
:104A580038B10121084A09480FF074FD204602B018
:104A680070BD0198C368B3F801203280B3F80330F1
:104A78002B8008F0EBF9F1E70DB301002095010058
:104A8800F7B5144B054693F99B300C46002B1DDAFD
:104A980014B9204603B0F0BD082C4FF0000142F2D3
:104AA800180001AA264628BF0826FFF74FFF00284E
:104AB800F0D1019F3246F9682846013114F012FB03
:104AC800384608F0C3F93544A41BE1E76FF08500C8
:104AD800E0E700BF00000020F0B587B006460DF102
:104AE8000B01002001F0E6F90546002845D11921FF
:104AF80042F20D00FFF7F0FE0746002840D01921CA
:104B08000C3012F05CFA04462946192214F0F7FA20
:104B18009DF80B301C4A237392F8211192F820312A
:104B2800601D994294BF06F1880106F196010FF0C5
:104B38000DFD938938462380D389144A6380B6F8DB
:104B4800A030A4F80D30B6F8A230A4F80F30B6F8AB
:104B5800A430A4F81130B6F8A630A4F81330012315
:104B680000930C230DEB0301FFF7A4FE0022394646
:104B780042F20D00FFF7EAFE0546284607B0F0BDF1
:104B88006FF06805F9E700BF00000020D40000209E
:104B980030B5002187B042F20E00FFF79DFE0025D8
:104BA8000C2304460DEB0301054A0095FFF782FE2E
:104BB8002A46214642F20E00FFF7C8FE07B030BD74
:104BC800D40000202DE9F04788B005460026BC4BEC
:104BD800B0F80180198848F47042914202AF04BFCE
:104BE8001E80012600F0F0FF2C78002C48D03C2CC9
:104BF8001CD101F093FA6FF0800110300FF0BBFC6C
:104C08000020FFF743FB054640B90121AD4AAE48F5
:104C18000FF098FC1837BD46BDE8F08704730021F3
:104C280002F0A2F9284602F06DF9F3E7022C20D130
:104C380000210622084602F087FC054640B90121FA
:104C4800A24AA1480FF07EFC002001F05DFBE1E7DD
:104C58000021047302F088F92B1DD3E8AF3FDE076B
:104C680003D52146284602F07FF9284602F04AF982
:104C7800EAE723460221964A93480FF065FCC9E704
:104C8800EB7805F10409012B08BF924B484608BF91
:104C980093F86F400FF027FC4946002800F0DE80AB
:104CA80007F110000FF014FCD5F81130C7F80930DF
:104CB800B5F81530A7F80D3001233B72E8780028C5
:104CC80040F0DA80062207F1100102F03DFCEB7893
:104CD8000446012B0AD101F021FA82466FF08001C7
:104CE80010300FF048FC50460FF060FEEB7823B907
:104CF8006FF4805178480FF03EFC002C00F0BE8025
:104D080020460022B5F8013007F1100120F8883B51
:104D18000FF01CFCB5F81730A4F89E30B5F8193020
:104D2800A4F8A430B5F81B30A4F8A630EB782273A9
:104D3800012BE37016D107F1080104F18F000FF081
:104D480005FC01F0EBF9217A624AC1EBC10111447B
:104D580004F196000FF0FAFBD2F8E4305D0601D5B5
:104D680001F0E0F9E37873B907F1080104F196005E
:104D78000FF0ECFB217A574BC1EBC101194404F148
:104D88008F000FF0E3FB0721204602F0EDF81EB17B
:104D98000121204602F0E8F820460FF0EAFE637B86
:104DA800072B53D1231DD3E8AF3F13F4005F494EBF
:104DB80020D1E3781BB196F8D83018071AD502210C
:104DC80042F21600FFF788FD0546002875D002213B
:104DD8000C3012F0F4F8238800220380294642F2AE
:104DE8001600FFF7B3FD034620B101213B4A3648C0
:104DF8000FF0AAFB96F8D930D9070DD50223002168
:104E08001A46204600910FF007FC034620B1012105
:104E1800334A2D480FF098FB96F8D8309A0615D5E6
:104E2800D6F864319B689B0710D5B91D381DFFF76C
:104E380005FE58B92046FA88B9880FF0CFFB03461B
:104E480020B10121274A20480FF07EFB204602F0BE
:104E580059F8E378002B7FF4DDAEF5E620460FF035
:104E680016FD014607F110000FF070FB494607F1E7
:104E780008000FF06BFB21E7012819D04846FFF71F
:104E880041F86C4688B002AA174B4FF4E251C2E9C8
:104E980005304FF400739383144B0B4842F8103FCE
:104EA8000FF066FB1321A54640460FF07CFBB1E6E8
:104EB80007F11000FFF7EAF909E76FF0680394E7D4
:104EC800E82100202DB30100209501004EB3010018
:104ED8006CB3010000000020D4000020A1B3010041
:104EE800C2B30100D9B3010085B30100030000017A
:104EF80000B5C16889B00B7801A88DF80030B1F809
:104F080001300431ADF8013011F8013C8DF803305F
:104F1800B1F80730ADF81730B1F80930ADF81930ED
:104F2800B1F80B30ADF81B304B7B8DF81D300FF00E
:104F38000DFB084B68461A689B88CDF80B20ADF826
:104F48000F30CDF81120ADF81530FFF73BFE09B052
:104F58005DF804FB46AF010029289ABF014B185C95
:104F68000920704762B7010070B5C3680F21B3F814
:104F780001601D78304602F01FF9044638B93346FF
:104F8800BDE870400121174A17480FF0DDBA65B136
:104F98002846FFF7E1FF29460246204602F010FAAC
:104FA8002046BDE8704001F0ADBF8678012EEFD1F4
:104FB80007F09EFC20460FF0ACFA0028E8D1052047
:104FC800FFF7CAFF05210246204602F0F9F93146EB
:104FD800064A05480FF0B6FA052120460FF09CFE58
:104FE800DEE700BFD1AF010020950100F5B3010055
:104FF8002DE9F041C6680F21B6F8017035783846BA
:1050080002F0DAF8044638B93B46BDE8F041012120
:105018001B4A1C480FF098BA65B12846FFF79CFF59
:1050280029460246204602F0CBF92046BDE8F04169
:1050380001F068BF8278F378012AC37205D0002096
:10504800FFF78AFF00210246ECE70BB107F050FC9E
:1050580020460FF05EFA0028F1D10520FFF77CFF0B
:1050680005210246204602F0ABF90121064A05480F
:105078000FF068FA052120460FF04EFED5E700BF75
:10508800D1AF010020950100F5B3010070B58EB0D5
:105098006C4606460A4D0D2E0FCD0FC40FCD0FC41A
:1050A8000FCD0FC495E8030084E803009DBF0EAB45
:1050B80003EB860656F8380C02480EB070BD00BFE8
:1050C8004C9601001BB40100024BD3F864315B69B4
:1050D800184700BF0000002038B505460C4619B92E
:1050E800FFF7FAFB0446C8B140F635439D420FD19D
:1050F8002046FFF7E9FF054640B10346012109486C
:10510800094A0FF021FA204607F0A0FE284638BDCC
:105118002146064811F021FF0025F7E76FF06805E2
:10512800F4E700BF2095010023B401004C010020E2
:105138002DE9F0410446458B477E807A07F0E2FD71
:105148006169064649B1637ADA0704D4436A20469E
:105158001B689B689847002363612146304613F01B
:105168002FFB244B93F88A309B0641D5384602F032
:1051780013FC044638B93B46BDE8F04102211E4AFB
:105188001E480FF0E1B9437B073B012B09D91B48A7
:1051980002211B4A0FF0D6F92046BDE8F04101F084
:1051A800B1BE01F0AFFE052140F63540FFF794FB94
:1051B800044630B9BDE8F0410121124A0F480FF00A
:1051C800C1B900F10C070121384611F0F8FE01269B
:1051D80004210670384611F0F2FE0023058086701F
:1051E800C3702146BDE8F04140F63540FFF774BF73
:1051F800BDE8F0810000002045B4010020950100C1
:105208006EB401009AB40100F0B5C56801212F8879
:1052180087B0BCB2204601F0CFFF064640B923460E
:105228000121264A264807B0BDE8F0400FF08CB9A6
:1052380002ACD5F80220D5F80630019469890091AE
:1052480011F0B0FB40B3122142F21A00FFF744FB01
:10525800054648B901211B4A19480FF073F9304631
:1052680001F050FE07B0F0BD12210C3011F0A7FE7E
:105278000346224623F8027B06AF144603CCBC4201
:1052880018605960224603F10803F6D1294642F214
:105298001A00FFF721FFE2E7022142F21B00FFF7A5
:1052A8001BFB04460028D5D002210C3011F087FEE4
:1052B8002146078042F21B00EBE700BFF7AF010071
:1052C80020950100BDB4010073B5C368D9789A78F8
:1052D8001E8842EA0122ADF8002059791A79B4B241
:1052E80042EA0122ADF80220D9799A79204642EAA9
:1052F8000122ADF804201A7A5B7A012142EA0323DD
:10530800ADF8063001F058FF054658B901211C4890
:1053180023461C4A0FF018F9022120460FF0C8F95D
:1053280002B070BD694601F0E3FF38B91E2120467E
:105338000FF0BEF9284601F0E5FDF1E70E2142F233
:105348002000FFF7C9FA04460028F3D00E210C30DC
:1053580011F035FE00230680C0F80A30BDF8003091
:1053680021464380BDF802308380BDF80430C380F5
:10537800BDF80630038142F22000FFF7ADFED9E701
:1053880020950100F7AF01002DE9F84F484FDFF8ED
:10539800248107F11409FB6848466FF39433FB60D6
:1053A80001F068FD451C4FF0FF324FF0FF332946EE
:1053B8003F480BF01DFF60B140F6323342463E498C
:1053C8003E480DF0F2FC404080F311884FF0030096
:1053D80002DF374EDFF8E8B015B90BF0B5F8DAE7B9
:1053E800F368C3F38633022B52D9042B5AD1337B8B
:1053F800002B50D100220023324811F07FFD0446D3
:1054080060B940F6C42342462F492C480DF0CDFC24
:10541800404080F311884FF0030002DFDFF8ACA0B2
:105428004FF0FF324FF0FF3329480BF055FADAF806
:1054380040215AB1274A012121480FF083F8DAF8B0
:10544800400107F003FD0022CAF84021204611F070
:1054580086FDCAF840012046FFF736FE0346B8B17C
:1054680001211D4A16480FF06FF819480BF00EFA83
:10547800204607F04FFC0C22184B02FB00335888DB
:1054880018B122461F21FFF741F8204607F0DEFC3D
:105498001436013DA0E7012BFAD13069383802F003
:1054A800F1F9F5E7022158460D4A0FF04DF8EFE7FC
:1054B800A40200203BB10100BCB201009DB1010073
:1054C800209501004C010020BACA0100000000200C
:1054D80028010020D4B4010023B40100781D002065
:1054E800EFB401002DE9F041044600F10C06304606
:1054F80011F0B7FDB4F810800546B8F1010F0AD8CD
:1055080043460121184A19480FF01EF82046BDE805
:10551800F04107F09BBC3046022111F08AFD074696
:1055280000780EF0E4FFC20706460CD440F6EE639E
:105538000F4A104910480DF038FC404080F311889C
:105548004FF0030002DF052321460C4A3878FEF7A6
:10555800E1FEB307DAD56369A4F8108013FA85F57C
:10556800E560BDE8F08100BF1FB101002095010092
:105578003BB1010010B501009DB10100049E01007E
:1055880038B5037E0446012B05D0032B11D1FEF755
:105598005FFE002038BDC36818780EF0A8FFC20768
:1055A800054602D52046FFF79DFFAB07F1D52046FB
:1055B800EDE70121044A05480EF0C6FF204607F032
:1055C80045FC6FF01500E5E729B5010020950100BD
:1055D800084A0346D2F8640130B9D96839B1596923
:1055E80029B1C2F8643170476FF0770070476FF0E7
:1055F80015007047000000202DE9F84F042100AF86
:105608003E4C3F480EF0A9FF002000F07DFE3D4DC6
:10561800E2793D4B2046012A88BF1D466E46FEF7BB
:1056280071FC8AB06A46394BA346C2E905350125A3
:10563800374BD0611362374B4FF42351364842F849
:10564800103F0EF095FFDFF8D480B546DFF8C8901C
:10565800334EE3790BF1070B9D4238DB94F8705019
:105668006E462846FFF712FD8CB06A46B4F87210F1
:10567800B4F87630C2E907514FF400755362DFF889
:10568800A4C0294BC2E905C015854FF4535142F80F
:10569800103F21480EF06CFFB54694F87160304613
:1056A800FFF7F4FC8AB06A46B4F874301F49C2E9BF
:1056B80007631F4BC2E9051095844FF43351164810
:1056C80042F8103F0EF054FFBD46BDE8F88F58462B
:1056D800FEF718FCEA468AB06A4640F20133C2E98E
:1056E8000565D06113844FF41351484642F8108F72
:1056F8000EF03EFF0135D546ABE700BF00000020A5
:10570800D4000020A6D101003DB5010041B501003B
:1057180000020103040000022095010004000001BA
:1057280050B5010061B50100060000019FB50100F8
:105738000500000110B5FAF78FFE034B1B6813B183
:10574800BDE81040184710BD901D002070B5344DBD
:105758000646D5F8643188B04BB90121314A324840
:105768000EF0F0FE6FF01204204608B070BD6FF026
:10577800020105F1D4000EF0FEFE01210EF0EDFE4F
:1057880010EA010448D1294B1E600A4605F59470B9
:1057980013F024F805F5A67012F0FBFF0022002391
:1057A800CDE906236FF008034FF48062CDE9024388
:1057B800CDE900441E4B1F4904941F480AF0DAFB48
:1057C8001E491D4812F002FE1D4813F0E5F86FF05F
:1057D80007034FF496621B49194800940BF028FA06
:1057E8001949174812F0F2FDD5F86431DB6898477B
:1057F800044630B103460121144A0B480EF0A4FEBA
:10580800B2E726B908B0BDE87040FAF725BE05F141
:10581800C4000BF007FAA7E76FF07704A4E700BF0E
:10582800000000200FB7010020950100901D002006
:1058380091530000182F0020E00F002028B7010026
:1058480060100020183300202EB7010034B7010083
:105858000048704750B70100F8B506460024094DC6
:10586800EF79E3B29F4202D86FF0010007E02946C2
:1058780030460EF044FF0735631C08B12046F8BDDA
:105888001C46EEE70000002037B504460D4671B10E
:10589800284612490EF033FF48B929461048C4EB90
:1058A800C40420440EF033FF002003B030BD684626
:1058B8000EF000FE0028F8D16846FFF7CDFF00285B
:1058C800F5DA074BC4EBC400694618440EF01FFF15
:1058D800002DE9D001462846E4E700BF39AF0100B2
:1058E8000000002070B5144E06223146044613F01D
:1058F800A0FAD8B1062142F20500FEF7EDFF0546F1
:10590800B0B1062221460C3011F05FFB0022294677
:1059180042F20500FFF71AF848B93346226843F8FF
:105928006929A288B280012283F86820002070BD0E
:105938006FF06800FBE700BF690000202DE9F34124
:10594800002104460622084601F0FEFD054688B1FE
:10595800484BD3E8EF1F41F40041C3E8E21F002A97
:10596800F7D1237A43F00103237202B0BDE8F04176
:1059780001F0C8BA3F480EF0D1FE2946C0F38016A0
:105988003D4800F0C5FB16B128460FF01DF83B4D09
:1059980095F821314BB100200EF001FF28B1384AAB
:1059A800022138480EF0EEFE1DE095F8212195F809
:1059B80020319A4225D10221334A32480EF0E2FEC4
:1059C800002242F229001146FEF7C0FF10B12F4A0B
:1059D8000121E6E795F82131013385F82131237A51
:1059E80043F00403237201200EF0D9FE16B1012002
:1059F8000EF0EAFF0021264802B0BDE8F04100F0B1
:105A080087BB224604F10108414612F82A0B0EF022
:105A180088FE074608B11F4ADAE795F821310133B5
:105A280085F82131237A43F00403237295F8A730CF
:105A38005B0701D4184AB3E7414668460EF067FE93
:105A48000123082142F24E008DF80730FEF744FF8B
:105A5800044660B1082269460C3011F0B6FA3A469D
:105A6800214642F24E00FEF771FF0028BBD00B4AD8
:105A7800AEE700BFD4000020674801000000002006
:105A880089B8010040950100AEB80100DFB80100F7
:105A9800D7470100FFB801001FB9010049B901004B
:105AA80000212DE9F84306220446084601F04CFD82
:105AB800054680B13C4BD3E8EF1F41F40041C3E8F1
:105AC800E21F002AF7D1237A43F002032372BDE8CC
