:10000000700F00208D0600002724000079060000F4
:1000100000000000000000000000000000000000E0
:100020000000000000000000000000006D0700005C
:100030000000000000000000FD0600008910000024
:10004000BD080000BD080000BD080000BD0800009C
:10005000BD080000BD080000BD080000BD0800008C
:10006000BD080000BD080000BD080000BD0800007C
:10007000BD080000BD080000BD080000BD0800006C
:10008000BD080000BD080000BD080000BD0800005C
:10009000BD080000BD080000BD080000BD0800004C
:1000A000BD080000BD080000BD080000BD0800003C
:1000B00002B4714649084900095C49008E4402BCFB
:1000C0007047C046002934D00123002210B4884272
:1000D0002CD301242407A14204D2814202D2090177
:1000E0001B01F8E7E400A14204D2814202D2490098
:1000F0005B00F8E7884201D3401A1A434C08A0423B
:1001000002D3001B5C0822438C08A04202D3001BD0
:100110009C082243CC08A04202D3001BDC082243E7
:10012000002803D01B0901D00909E3E7100010BC27
:10013000704701B5002000F00BF802BD0029F8D08F
:1001400003B5FFF7C1FF0EBC4243891A1847C046EA
:100150007047C0461C2101231B04984201D3000CA8
:1001600010391B0A984201D3000A08391B0998422A
:1001700001D30009043902A2105C40187047C04640
:100180000403020201010101000000000000000060
:10019000002B11D1002A0FD1002900D1002802D054
:1001A0000021C943080007B4024802A14018029088
:1001B00003BDC0469DFFFFFF03B4684601B502982A
:1001C00000F02AF8019B9E4602B00CBC7047C04666
:1001D000D0400B00D1409C46203AD34018435242B5
:1001E00063469340184370479140030090409C46FB
:1001F000203A9340194352426346D3401943704713
:1002000010B5002903D1FFF7A5FF203002E0080058
:10021000FFF7A0FF10BDC046F0B506000F001500A7
:100220001C0085B08B4263D801D1824260D8210086
:100230002800FFF7E5FF390000903000FFF7E0FFEE
:10024000009B21001B1A1A0028000393FFF7CCFF24
:1002500000900191B94245D801D1B04242D8009BEB
:10026000019C01200021039AF61AA741FFF7BCFF69
:1002700004000D00039B002B2BD0019B009ADB0791
:1002800050081843019B5908039B9C46B9422CD83F
:1002900001D1B04229D832003B00121A8B4101260D
:1002A00092185B410027B6185F4101235B429C44D2
:1002B0006346002BEAD130003900039AFFF788FF2C
:1002C000039AA4197D4106000F00FFF78DFF241A41
:1002D0008D410A9B002B01D01E605F602000290029
:1002E00005B0F0BD00240025C4E7B6197F41DCE766
:1002F00000240025EDE70000002110B504484C1C47
:1003000002F027F80021034801F08AFA2100F5E7FE
:10031000A42C00001027000010B5024B1B68984762
:1003200010BDC04600000020014B18607047C04659
:100330000000002030B585B004000D00102200211F
:10034000684602F0AFFA6A4602239370044B2A0013
:1003500021006846019301F02BFD05B030BDC04679
:1003600019030000F7B504000D001E00019201F012
:100370009DFA030002F030FB054F32003B5001991B
:100380002800A04702F028FB385800F09BF9C0462F
:100390000800000010B52E4B2E4A196A1140422267
:1003A0000A431A62DA681207FCD500212A4A9160D2
:1003B0005178C909FCD18321490251605178C9099A
:1003C000FCD16F31FF319982D9688907FCD50221B0
:1003D000FF3191605178C909FCD1204951605178B1
:1003E000C909FCD18221C9015180912189009984D8
:1003F0001B481C49006809688005890E8902800D28
:10040000014399621849D962D968C906FCD502210D
:10041000988C01439984D9680906FCD5D9684906A6
:10042000F9D51E21114C606888431A390143616077
:100430008021490091605178C909FCD10C49516073
:100440005178C909FCD11A6A02318A431A6210BD77
:10045000000800400000FFCF000C00400105210013
:100460002860800024608000B805FF7D00400041C6
:100470000007010010B5034A03480021121A01F0D9
:10048000C4FF10BD6C020020300000200648074A5F
:1004900010B5121A064901F0BCFF064A0648074982
:1004A000121A01F0B6FF10BD000000202C00002041
:1004B000002F00000000002000000020002F00009E
:1004C00070B505000C1E13D08B684A680F48096888
:1004D00001F03FFF0E4863692269E16801F039FFCE
:1004E0000C48E16901F035FF0B48A16901F031FFCB
:1004F000012D05D1EFF305810848103901F029FFDE
:100500002800210000F076FE70BDC046B12C00002E
:10051000E12C0000112D0000212D0000502D0000C5
:1005200030BFFDE7F7B50A4B0A4D0600EF18CC1BAC
:100530002A0020000849019302F0ABF9601900215C
:10054000019A02F0AFF93800083C74660830FEBD2D
:1005500004000000000000001C2C0000054B5A693C
:100560009B689A4205D08023034A5B0551680B4380
:10057000536070473C02002000ED00E0F0B52D4BC9
:1005800004005F6889B0FD05ED0D62B6BFF36F8FA3
:10059000130EFF2B06D1F33B1340082B33D1264813
:1005A00001F0D7FE00263400032D32D1234801F09C
:1005B000D0FEA369224A934202D3224A934205D332
:1005C000214A934230D3214A93422DD2023B1A88CA
:1005D0001F4B9A4228D11F48216801F0BAFE2568B6
:1005E00020222100684602F054F9079B002E1DD0FE
:1005F000DA0502D1184A1343079369462800FFF72A
:100600005FFF09B0F0BD01261207CDD50C00002612
:10061000CAE7F8235B0011491F4200D010492A00A5
:100620001048103A01F095FE0025D9E75B0A5B02FD
:10063000E2E7C04600ED00E0922D0000BE2D000074
:10064000B0000000E42900000000002000000020AD
:1006500002DF0000D62D0000FF010000642D000025
:10066000792D0000F32D00000821024A53698B43C5
:100670005361704700ED00E0EFF30880EFF309816C
:1006800001B57246FFF77AFF01BDC0460A4880F304
:100690000888FFF77FFE72B608480949401880F3C2
:1006A0000988EFF314800221084380F31488BFF314
:1006B0006F8F01F0C4FE0000700F00207002002058
:1006C0000008000010B50A4B9B6883420DD1EFF380
:1006D0000583002B09D08022064B520559680A4336
:1006E0005A605A6A04490A405A6201F0E5F810BD9E
:1006F0003C02002000ED00E0FF7FFFFF15498A6803
:1007000015481044EFF3098CF0C043464C4655465B
:100710005E466746F8C072B6104F114E4A698A604D
:100720003E60104C141920680F4C2060906E00231E
:100730009366002800D162B6074C10191030F8C833
:100740009846A146AA46B346BC462438F0C88CF366
:10075000098870473C0200203000000004ED00E0F2
:100760000000000864000000A00100200420714681
:10077000014202D0EFF3098001D1EFF308808169D3
:10078000023909780229FFD001B5724601F045FE11
:1007900001BDC04643B2000605D41F221A40012302
:1007A0009340014A1360704700E100E030B5FF2537
:1007B00003220B00290040B20240D20091409B016D
:1007C0002B40C943934000280ADBC0240A4A800812
:1007D00080008018A40002590A401343035130BD21
:1007E0000F2210400838054A800880008018C2692E
:1007F00011401943C161F2E700E100E000ED00E0C3
:10080000FF22044B9343044A9360BFF34F8FBFF31F
:100810006F8F70470000000000ED00E010B5203A37
:100820001360029B01245360039B06499360049B61
:10083000A143D36080235B04D361002391610265EF
:10084000836610BD6503000070B50B4B1500986002
:10085000426E0A4B0E001A602C1C86F30988002099
:10086000034B9847201C002100220023014C204705
:100870005B240000650300003C020020A001002072
:100880001022014B1A61704700ED00E0F0B5C02462
:1008900000220326FF25A40010002F003040C000D6
:1008A0008740054993089B005B1819590132B943E9
:1008B00019511C2AF0D1F0BD00E100E010B5EFF3B2
:1008C0000583054A103BDB00D118496898588847D2
:1008D000FFF744FE10BDC046CC2A000010B5024B05
:1008E0001B689847002010BDA4010020034B044A58
:1008F0001860022391780B4393707047A401002085
:1009000004000020072310B50449054A994305480F
:10091000521A01F0E2FC002010BDC046770F002003
:1009200000800020A8010020024A5378DB09FCD196
:100930007047C04600180040F8B500250F4A066908
:1009400013699CB2DBB21461AB4201D1240A0835B1
:100950000127002C00D1F8BD3C420CD0380073199F
:100960001A7E53069B0FDB00D206F318D20E90407E
:1009700059681A68904764080135EAE70018004092
:10098000402310B50B4A042091690B4393610A4B35
:100990000A4A5A8000221100FFF708FF0420FFF7DF
:1009A000F9FE0223064A11780B431370FFF7BCFFD0
:1009B000002010BD00040040000C00400540000075
:1009C0000018004010B5094B04009B181B7E002046
:1009D0007F2B09D95A06920F944205D1D806C00E32
:1009E000401A43425841C0B210BDC046B401002075
:1009F000F0B585B003933D4B029242019B185D5CBC
:100A0000FF2D00D16FE0EFF31083019372B6022245
:100A1000374C237893432370364B5B191B7E7F2B17
:100A200016D95A06920F824203D1DB06DB0E8B42A7
:100A30000ED00223227813432370FFF775FF019B2A
:100A4000002B02D162B6BFF36F8F1020404240E00E
:100A5000284B0A9EC700FE500B9EDF197E601F26A2
:100A600003270E408021384049423143072240018C
:100A700008435B1918760F202A40920090401C4BC7
:100A8000E9108900C9188B698343029804280CD89F
:100A9000FFF70EFB030709212300012090400343C9
:100AA00003E00220FAE797403B430398002802D076
:100AB0000820904003438B61022322781343237064
:100AC000FFF732FF0123AB402361019B002B06D0CF
:100AD000002005B0F0BD0420E0E70520DEE762B6A7
:100AE000BFF36F8FF4E78620B0E7C046142E0000F6
:100AF00000180040B4010020F7B51F4B42019B18BD
:100B00005C5C0E000190FF2C33D0EFF3108772B6BF
:100B100002221A4D2B7893432B70FFF705FF22001A
:100B200031000198FFF74EFF002814D07F200122EA
:100B3000134BA2401B19197E014078381976E31037
:100B40000440A4000830A0409B005B1999698143D0
:100B50009961AA602A6102232A7813432B70FFF758
:100B6000E3FE002F01D00020FEBD62B6BFF36F8F01
:100B7000F9E786204042F7E7142E000000180040F5
:100B8000B40100200B4B42019B1810B55C5CFF2C9C
:100B90000BD02200FFF716FF002809D00123A34045
:100BA0000020054A1361D36010BD86204042FBE758
:100BB0001020FBE7142E0000001800400B4B4201F0
:100BC0009B1810B55C5CFF2C0BD02200FFF7FAFEDF
:100BD000002809D00123A3400020054A9360136137
:100BE00010BD86204042FBE71020FBE7142E0000DA
:100BF00000180040F7B50F4B01901D690023180045
:100C00000D4E0E4FF25C7F2A10D9FA18127E019910
:100C10005406A40F8C4209D12C000121DC400C4267
:100C200004D00C00D206D20E944020430133102B86
:100C3000E8D1FEBD00180040CC010020B401002026
:100C400010B5084801F0A0FD002808D0064C20008F
:100C5000FFF74CFE2000FFF767FB002010BD1320BC
:100C60004042FBE7AC2A00006D0C000070B50400A8
:100C7000074D0A2804D1AB680D2128005B6898470E
:100C8000AB6828005B68E1B29847200070BDC046A1
:100C9000AC2A0000F0B585B01700029380234668A7
:100CA000026975680C006918403109785060354850
:100CB000C9B23840DB0398421FD080239B039F4278
:100CC00002D01620404216E0012399430391307A66
:100CD0002100FFF773FF03001022103393430AD162
:100CE0002100307AFFF708FF002804D16B462D1948
:100CF0001B7B40352B7005B0F0BD880740D52868B8
:100D00000123E04018423BD11800084361086918EC
:100D1000039030310F201C4228D00B781840087007
:100D20008021029BC9048B4224D0C021C9048B427C
:100D300024D0802189048B42C3D180230121DB038D
:100D40009F4200D1033193680120E3400340307A91
:100D500001920D4A00920A002100FFF749FE002887
:100D6000C9D12100307AFFF70DFFBDE70B7883432F
:100D70001800D4E780230021DB03E1E70221E2E74A
:100D800086209FE7FFFFFFFE9B250000F0B50400D3
:100D90001F27890085B04518AC4202D1002005B05C
:100DA000F0BD0F2023680D491A0C024092005158E3
:100DB00030301A0D1E013A401840760F012E04D132
:100DC0001B0F1B04034340201843039001A801910B
:100DD0000292043401F0E3FADEE7C046402C000042
:100DE000F0B5456803692A6985B06969019313689C
:100DF0002C680B431360F0223F21AB690090120175
:100E00001B021340AA8B20000A4013438022D20108
:100E100013432A4A5380BF23237501F0EAFBAA68D3
:100E2000274B20001343236001F0E3FB0021686A95
:100E300003AA01F0CBFB00283BDB039B00221979BE
:100E40001868FFF7A3FF002833DB019A1D4B200031
:100E50005360013BFF3B636001F0CBFB69681A48BC
:100E60000B0B0A050021801859410023174AFFF790
:100E70008FF901267642F71702000B00B6185F4182
:100E8000002F18D112498E4215D8524292B220003A
:100E9000A28101F0AEFB6B68019A009813602B6A87
:100EA00098470223226820001343236001F0A1FB2E
:100EB000380005B0F0BD22204042FAE7000C0040A7
:100EC000040000600001030000366E01006CDC02CB
:100ED000FEFF0000F0B5036985B0019343680D0083
:100EE0001C68200001F085FB022223682000934348
:100EF000236001F07EFBEA79002A0DD1019BDA71B3
:100F000021686668B304DB0F02932B79012B06D0AE
:100F1000022B07D0002B03D08620404259E00293D9
:100F20001A0001E002920122019803716B79012BF2
:100F300051D00120032BEFD1039001984371AF7979
:100F4000042FE9D8264B120619401143877120005F
:100F5000216001F04EFB039B07219A013B000B40EF
:100F600005330B401343029A2000520313431D4ADA
:100F700032401343360C9BB236041E43666001F0C8
:100F800038FB2B68184A190B1805002380185941A3
:100F90000023164AFFF7FCF801267642F7170200F5
:100FA0000B00B6185F41002F17D111498E4214D89B
:100FB000524292B22000A28101F01BFB2B68019AE1
:100FC00020001360022322681343236001F011FB09
:100FD000380005B0F0BD0020AEE722209DE7C046F6
:100FE000FFFFFFF0B8DFFFFF00366E01006CDC0290
:100FF000FEFF000070B580251049114B8C681B68FE
:101000000E6810488A686D02002C08D1002A11D1A0
:101010001A002E4209D100681818801A70BD002AE3
:101020000AD02E4201D1A242F5D90468E418046026
:101030000968F0E71C00F4E71A00F2E710E000E0AE
:10104000380200202C0200200A4A0020136A1B02EA
:101050001B0A13629622084B52011A60074B084A7A
:101060001860084B5A600722986019680A431A6092
:101070007047C04600ED00E0380200202C0200203E
:10108000BF12000010E000E070B5FFF7B3FF0C4B9B
:101090000C4A186811680C4C401810609621002208
:1010A00025681A604901401BFFF70CF896235B0185
:1010B00043435B19236000F0F3FDFFF74FFA70BD67
:1010C0002C0200203402002030020020F0B5334D05
:1010D000334E85B0002953D0431C08D101222B6820
:1010E00093432B60FF231B06336005B0F0BD3368CC
:1010F00001930027012848DCEFF31083039372B6B5
:10110000FFF778FF0022AB680293264B1C68264B42
:1011100004191A60254B1B680093E01A90423ADBD1
:1011200096235B015F43224AC01919008018FEF71D
:10113000C9FF96235B015843009B1B1B1818802393
:10114000DB00984200D218001A4B984200D91800D0
:10115000002330600138A9686860AB60029B029888
:101160005B1A1A19884202D2019A9B181A190D4B60
:101170001A60039B002BB8D162B6BFF36F8FB4E740
:1011800033680193431CB4D10B480C4B984200DDEB
:101190001800471EB0E78020C000D9E710E000E04B
:1011A00038020020340200202C02002030020020EF
:1011B000BF12000080E8FF00A60D0000A70D000090
:1011C00070B5EFF3108572B6084A094B14681B68B6
:1011D000E41AFFF70FFF0019002D02D162B6BFF32A
:1011E0006F8F96214901FEF76DFF70BD340200201C
:1011F0003002002070B5EFF3108572B6064B9C6884
:1012000001F0D3FA002D02D162B6BFF36F8F200038
:10121000FFF758FA70BDC0463C020020F8B5012720
:101220000A4E83009D59013084003359AB4200D8E7
:10123000F8BD6868002806D0037F3B4201D101F069
:101240008AFA0835F1E72B689847FAE78C2C0000FA
:10125000012270B5234B032086B01A70FFF7DEFF22
:1012600000F09EFD0420FFF7D9FF1F4C26001F4D04
:10127000AC420ED300F00EFAAE4220D300F01AFAC0
:10128000FFF73AF801211A4A137B8B43137306B018
:1012900070BD636A0593236A0493E3690393A369AA
:1012A00002936369019323690093E368A26861680C
:1012B000206800F0ABF823685C653034D7E7B26A89
:1012C000F36A511C01D1591C05D011003068194333
:1012D00003D100F0CBFA3036CEE70649183000F0E3
:1012E0004FFCF8E768020020AC2B0000AC2B00009C
:1012F000A00000203328000070B5702601250400EE
:1013000046430102114880220918002086B0049546
:101310000E350395053565430D4B05900290019000
:101320000C48F6182D180C4B30000095520000F0B8
:101330006DF80422737B2C74934373730134074B51
:10134000E402E418EE606C6006B070BD700A002024
:10135000300000203C020020B12700007002002075
:10136000F0B5002087B0FFF759FF1F4B83F30888C3
:101370001E491F4B0A6A00251A40C0231B04134351
:101380000B62FFF771F9FFF77BFA1A4800F078F863
:101390000120FFF743FF0220FFF740FF00F0BAF9FA
:1013A000154C164B80225C61154B164E059301239C
:1013B00015490493D200330020000395029501954E
:1013C000009500F023F804220700637B200093437C
:1013D000637301F007FA2800FFF78EFF320039002F
:1013E0002000FFF731FAC046700A002000ED00E04F
:1013F000FFFF00FF10010020A00000203C020020A1
:10140000AE2E000051120000700B0020F0B587B026
:101410000593030058338365C365109B0727037347
:10142000042300250732BA434373D2190F9BBA43F2
:1014300083738B180E0085601900C5738561C561C3
:1014400004000493FFF76EF8049BC019B8431F1AF9
:101450000E9B3A0002930D9B310001930C9B2000E0
:101460000093059BFFF7DAF9044B65659B68AB4277
:1014700000D01B6E3800236607B0F0BD3C02002090
:101480000223FF33838100230366014B986070477A
:101490003C0200200B21084A49429368D9669866AD
:1014A000802306495B05486803434B6062B6BFF37F
:1014B0006F8F9368D86E70473C02002000ED00E00B
:1014C0000D2370B5C356427B002B38DBD30636D1D3
:1014D00080235B4213431B4C4373A3691A49E2699F
:1014E0008B4207D1016042601060E06111E09A42D6
:1014F000F8D01B68002BF5D00E250E2645579E57B9
:10150000B542F4D0AE42F2DD5A680360426010602A
:101510005860A5698D4201D0002D00D1E568A3680F
:101520005A7BD20605D1DA897F2A02D9AA69002A14
:1015300006D0AB4202D0280000F084FA656170BD8D
:101540006361FCE73C020020540200200D2270B5CC
:1015500082560500437B002A04DA7F22134043733E
:1015600001F02DF90D4E0E4AB469B368944201D0D2
:10157000002C00D1F468AB4208D05A7BD20605D1CA
:10158000DA897F2A02D9A269002A05D0A34202D0B3
:10159000200000F057FA2300736170BD3C02002068
:1015A000540200200D2270B582560400437B002AAD
:1015B00004DA7F221340437301F001F98023627B38
:1015C0005B4213431B4D6373AB691B49EA698B4252
:1015D00007D1216062601460EC6111E09A42F8D09A
:1015E0001B68002BF5D00E200E2620569E57B042C9
:1015F000F4D08642F2DD5A682360626014605C6059
:10160000AE69AB688E4201D0002E00D1EE68A342D5
:1016100008D05A7BD20605D1DA897F2A02D9B2696D
:10162000002A05D0B34202D0300000F00BFA33009C
:101630006B6170BD3C0200205402002010B50029EF
:101640000AD1EFF30580002807D1064B9A685B6941
:101650009A4202D0FFF71EFF10BD62B6BFF36F8F34
:10166000FAE7C0463C02002010B500280AD1EFF38B
:101670000580002807D1064B5A699B689A4202D020
:10168000FFF708FF10BD62B6BFF36F8FFAE7C046E1
:101690003C020020EFF3108172B6054B9A68D37BB1
:1016A000013BD373002902D162B6BFF36F8F70473D
:1016B0003C02002070B5EFF3108672B6134DAB6894
:1016C000DA7B0132DA73AC69114A944201D0002C02
:1016D00000D1EC685A7BD20605D1DA897F2A02D97B
:1016E000A269002A05D0A34202D0200000F0AAF986
:1016F00023006B61002E02D162B6BFF36F8FEFF350
:10170000108072B6FFF7B0FF70BDC0463C020020EB
:1017100054020020024B034A9A61DA617047C046C6
:101720003C0200205402002070B5EFF3108572B621
:101730001C4CA168E3690A68CB1A581E83414968AA
:101740005B420A6051601340E169A268002B05D139
:10175000154B516013600A60E2610CE00E200E260A
:1017600010569E57B04218D0864216DD5968136055
:1017700051600A605A60A6690B4B9E4201D0002E50
:1017800000D1E668A3689E4202D0300000F05AF90A
:1017900028006661FFF77EFE70BD8B42D8D01B68C3
:1017A000D4E7C0463C02002054020020F8B50300F4
:1017B00007000C000B4303D1FFF7B6FF0020F8BD74
:1017C000EFF3108672B6134D134BA8681860FFF73D
:1017D000BDFEA86823003A001049183000F0D0F987
:1017E0000423AA680400517B30000B435373FFF7B6
:1017F00051FEAB689A6A002AE0D18022DB6A1206A9
:101800009342DBD101F041F8201AC343DB171840A3
:10181000D5E7C0463C0200205C02002033280000CF
:1018200070B504000D00FFF7C1FF03002000621C2B
:1018300001D1013513D01800D917092200238018CF
:101840005941002901D109280AD904290AD802D10D
:1018500003000B3306D80A220023FEF799FC70BD63
:101860000800FCE70048FAE7FFFFFF7F70B50400BF
:10187000EFF3108572B60426437B33420DD0183047
:1018800000F0DDFF637B2000B3436373FFF718FEB6
:1018900029000548FFF7D2FE70BD002DFCD162B6CD
:1018A000BFF36F8FF8E7C04669020020014B9868CC
:1018B0007047C0463C020020F0B5037B85B00400B1
:1018C0000393EFF31083019372B6019B02930823F5
:1018D000427B1A4207D0019B002B02D162B6BFF3B4
:1018E0006F8F05B0F0BD1900114348B2002857DBD7
:1018F0006173A368002B02D0200000F068FF200075
:101900002600183000F09BFF5836A56DAE4201D07E
:10191000002D4DD1304F0025BB689C4204D1EFF320
:1019200005856A1E9541EDB2BE692C4A964201D0EA
:10193000002E00D1FE68B34202D0300000F082F8E1
:1019400020007E6100F086FD002D02D02448FFF7C4
:1019500097FDBB689C4238D1EFF30583002B34D14F
:10196000237BDB070FD5019B002B02D162B6BFF3AF
:101970006F8F62B6BFF36F8F0423181C02DFEFF383
:10198000108372B602930298FFF784FD039BDB0776
:10199000A7D562B6BFF36F8F0423181C02DFA0E740
:1019A0007F210A4013432000637300F008FFA0E783
:1019B000280000F00CFF2800183000F040FF002342
:1019C0002800EB66FFF77CFD9FE7019B002BDDD134
:1019D00062B6BFF36F8FD9E73C02002054020020AB
:1019E000100100200121044B044AC01A044BC0100E
:1019F0004343D1547047C046800100206902002053
:101A0000ABAAAAAAC289030000207F2A11D80A4AD9
:101A1000106800280DD00E21084A5956126800207F
:101A2000914206DB5A7BD20603D10548181A431EA1
:101A300098410123184070471400002060020020E4
:101A40003000002070B518240C4B05001E7C0C4B98
:101A50007443E418200000F0F2FE0022094B280035
:101A60009A55FFF7CFFF002807D0074B20001A68D0
:101A70000649013AD31700F083F870BD3C020020FC
:101A8000800100206902002014000020E5190000F8
:101A900070B5EFF3108572B6104A114B9468186850
:101AA000A04207D1FFF7CEFF002D02D162B6BFF3EF
:101AB0006F8F70BD00211960127C0A4B9B5C8B42BA
:101AC000F2D02000FFF79EFF0028EDD0637BDB06FD
:101AD00002D12000FFF766FD2000E3E73C02002072
:101AE0005C02002069020020024B1868984200D175
:101AF000002070471800002070B50600FFF7F4FFC3
:101B0000002810D0026943693400F517121BAB415D
:101B1000002B08DC03D1802109068A4203D2D84376
:101B2000C017104070BD0148FCE7C046FFFFFF7FB3
:101B3000002010B5034B1B68834201D1FFF740FB27
:101B400010BDC0466402002030B500280ED00B4BFB
:101B50005B6898420AD00168002907D00A694B697E
:101B60000469456912196B410A614B610368426857
:101B700013605A6000230360436030BD18000020EA
:101B8000F0B5040015001E0085B0531C02D1731C73
:101B900000D17CE0A160EFF31083039372B6002EB6
:101BA00026DBFFF7C5FF002100900120401971419D
:101BB000009AD31712184B413649226163610868B5
:101BC000496812184B411E00150001230293FFF7CC
:101BD0008BFF0700304B9C465B680193002F1DD1A3
:101BE00063462360019B63601C6063465C6027E082
:101BF000284B1868596802225242D317121A8B4197
:101C0000521BB3411100002B04DC01D1002A01D189
:101C100001210023636121610023D7E738697969D5
:101C200022696369994202DC28D1904226D9801A40
:101C300099417B6838617961636027601C607C60D2
:101C4000FFF752FF84420FD1144B1B68002B0BD1BE
:101C5000029B002B02D1FFF76BFF00900098FFF76B
:101C60004BFF0021FFF732FA039B002B02D162B633
:101C7000BFF36F8F2800310005B0F0BD121A8B4101
:101C800022616361019B9F42AAD03F68A6E70025BD
:101C90000026EFE7980100201800002064020020D1
:101CA000F0B587B0EFF3108372B601932F4B186035
:101CB000FFF71AFF2E4F04003A687B6802920393E5
:101CC0002A4B9C461D6800280FD042690669EB1715
:101CD0009A4202DC24D1AE4222D9190022696369FA
:101CE0002800121A8B4122616361029803992A002D
:101CF000EB1712184B4100243A607B6063462000CA
:101D00001C60FFF7F9FE2100FFF7E0F9019BA342F9
:101D100002D162B6BFF36F8FFFF7BAFE07B0F0BD16
:101D2000F31704960593049A059B0298039980186B
:101D30005941002300220E4D2261636128606960D1
:101D40002000FFF701FF019B002B02D162B6BFF319
:101D50006F8F2000A3689847EFF3108372B6034A91
:101D6000019313689B1B1360A2E7C0466402002026
:101D70009801002010B5EFF3108472B6FFF7D8FE7B
:101D800002000649C3170868496880185941002CA9
:101D900002D162B6BFF36F8F10BDC046980100201C
:101DA00010B5024800F0D5FA10BDC046B32E0000B1
:101DB000F0B5436893B003900893837815009B07B0
:101DC00000D4F8E0002301930E78002E6AD0252E6F
:101DD0000DD04B1C0993019B013301930399089B80
:101DE000F0B29847002800DADFE00999ECE74E7876
:101DF0008B1C0993252EEED0002304211C00099A88
:101E00000293079309921F2C2ED8300020381028F7
:101E10000AD8FEF74DF91D0909270909091E090904
:101E2000091B0925090918003300303B092B29D962
:101E30002A2E32D108CD600622D4002B29DB2020A7
:101E40000793044305E001231C4302E002231C43E3
:101E50000C43099B01321E78002ED3D109922DE04C
:101E60000823F1E71023EFE77F2C1ED83300303B27
:101E7000092BDDD8600605D50A20029E7043C318E1
:101E80000293E6E70A20079E7043C31807932023B6
:101E9000DAE75B4207932823D6E72E2E05D14023AD
:101EA0001C42D1D0019813B0F0BD6C2E2DD027D894
:101EB000682E31D06A2E32D04C2E30D0029B002BAF
:101EC00003DA40239C4300230293202333431A0068
:101ED000653A022A01D9612B24D10722EB1D9343D5
:101EE00008331D00AB4F0292240753D5019A029B81
:101EF00016009C18B4424FD1079B029A9E1A82E1A9
:101F0000742EA6D07A2EA4D0D8E780231C429BD072
:101F100080208000044397E780235B00F6E7A0233E
:101F20009B0091E730006338122800D9E3E0FEF708
:101F3000BFF80A46E2E2E2E246E2E2E2E2E2F3DD92
:101F4000E2E211E2AD0004CD0CAB1A7001230CAF3C
:101F50000293C9E780CD002F00D18F4F029963060D
:101F600001D401214942380000F0A4FC0290BBE7F3
:101F700020200399089B9847002816DB013C029B10
:101F8000A342F5D3079A019B944663441B1B01931C
:101F90000794ABE7079CF2E7019B0399FB1A985D56
:101FA000089B984701360028A4DA039B9A780423FB
:101FB0001343039A937001235B42019372E7230654
:101FC0003FD5A30537D50722073595432F000CCF02
:101FD00004920593102325009D43059B002B3ADABC
:101FE0000499059A00244B4294410493059480235C
:101FF000DB001D43ADB20CAC0A2304980599220006
:1020000000F063FC041B6B0665D501232A009A438C
:102010001300029AA24200DCA4E0002E00D19CE052
:102020001022290011400B91154200D09CE0029A29
:102030001D0006921EE02F0008CF0493DB170593C6
:10204000C8E72F0008CFE205F7D5A20501D55BB29E
:10205000F3E71BB2F1E7049B059A1343CBD1630668
:10206000C9D5029B002BC6D111339C43029B25008E
:102070001C0006932A00494B1A400B921D4277D050
:10208000069B0133069300230B9371E010239C43BE
:10209000063B9C46802322001A4006921C4242D0F6
:1020A00021008133FF3319401C4239D00722EB1D38
:1020B00093431F0003CB083703000B4346D1250091
:1020C00016339D43630644D5029B002B41D1173341
:1020D0009C432500029C10232A001A400B921D42AB
:1020E00056D0631C002E42D022003FE010237826F9
:1020F0009C461C43CEE7782B04D110229B1B1A432D
:102100009446C7E725200399089B9847002800DAE2
:102110004BE7019B023360E6082300269C46B9E7A3
:102120002F0001CFC8E72F008022210008CF5200E6
:10213000180011401442BFD08022210092001140AB
:1021400098B21442B8D00699D8B2B5E706239C439A
:1021500025000CAC6346220052E711239D43029BED
:10216000069387E71D00B6E71D00029A931C0693AD
:102170002B072AD4EB0709D5079B069A02949342B2
:1021800004DD9B1A1B190293079B0693069B10E024
:1021900006946FE7F52E0000EE2E00000604000006
:1021A00020200399089B9847002800DAFDE60A9B47
:1021B00001330A930A9A079B9342F1DC069A019B2A
:1021C0009B1A0A9A9B18019306920B9B002B25D011
:1021D00030200399089B9847002800DAE5E6019B28
:1021E000002E12D101330193019E029B019A9B188C
:1021F0009B1BA34220DC2500002D25D13D00079B21
:10220000069AA4199E1A019431E002330193F0B2A8
:102210000399089B98470028E6DAC6E6174B1D424B
:10222000E2D02020AB0700D50B306D0500D52D2066
:10223000019B01330193EBE730200399089B0136A2
:1022400098470028D1DAB0E60CAB013DE85C039971
:10225000089B98470028CFDAA7E6019B202001338E
:1022600001930399089B9847002800DA9DE6019A9C
:10227000A3199B1A002BF0DCB7E5C046060400004A
:102280007047C9004018408840087047F8B50D00F5
:102290000400FFF7F6FFFDF75DFF1F21091A8A0012
:1022A000A218EB0010691F1D0633E719E318AEB240
:1022B000002808D101308840E1680143E1601561E0
:1022C0003E801E80F8BDC1000431625A3A80D200BF
:1022D000A2181880D6806652F4E70723F7B50027C6
:1022E000043ACC1D89189C4399430B1BDE080460FB
:1022F000A660E7603000009301912425FDF72AFFD6
:1023000020222D1A121A200039009200103000F0FD
:10231000C9FA0123AD000735ED086A001A4362804F
:10232000711BEA00A0184B0027804380009BA55238
:10233000E218019B578019800123F600A6197288C4
:102340002900134373802000FFF7A0FFF7BD002092
:1023500070470FB407B504A901C90191FDF7EAFF61
:1023600003B008BC04B01847704770B50F254B0880
:10237000C3182A403033CC070DD51C781601220033
:102380002A4032431A700123401840300278134328
:102390000370002070BD1C78AC432243F2E70300B9
:1023A000002170B500685C689A6804194034217097
:1023B0000D1C01310E005C68A64046600E005C6892
:1023C000A6404661540605D512035968120FFFF75F
:1023D000CCFF70BD940705D00A4202D05C68A140D2
:1023E000816104250124D1082140A1402943D5065B
:1023F00002D55D68AC4084605B689206D20F9201A2
:10240000C018114340300170E3E710B500F04AFAFC
:1024100010BD10B500F03DFA10BD10B50100006808
:10242000FEF74EF810BD10B5FEF77AF8FEF796F8F5
:1024300010BD10B500210120FEF742F810BD10B507
:10244000FEF7DEF9FEF716F8FEF720F8FEF71EFAA3
:10245000FEF786FF862040427047002802D162B610
:10246000BFF36F8F7047BFF34F8F30BF62B6BFF3BC
:102470006F8F704710B5FEF731FA002010BDF0B530
:10248000436806695B68900702D586204042F0BD2C
:102490000120140C0440844030278446251C17403A
:1024A000900319D5002FF0D16046884054030FD512
:1024B000586198600124B0688C40D20519D5AA07EC
:1024C00017D520435B184033B06000201D70DEE755
:1024D0001403EED59861ECE7604688405860002F01
:1024E000E8D004252543D40601D59861E2E7586178
:1024F000E0E7A043E6E7436800205B681B6A0B60E7
:10250000704743685B681869424011404140196157
:1025100000207047436800205B68996170474368FA
:1025200000205B6859617047436800205B68D9618F
:10253000704710B50369D868002821D088421BD1A4
:1025400008681C69D860A14200D1186100200860A9
:10255000824206D0DA680A601A69D960002A00D17E
:102560001961002010E0814206D1086820601869D6
:102570008142EBD11C61E9E7040000680028F2D138
:10258000002AE7D11620404210BD0020704710B548
:102590004368187AFEF72EFB10BD70B50B00C968B2
:1025A0000500002903D05E680C68002900D170BDC9
:1025B0008B681A002A402B4202D030004B689847A3
:1025C000231E00D0236821001C00EEE730B503680D
:1025D000136005790468ED006419A34202D3022058
:1025E000404230BD5C798C4201D00833F0E70020D6
:1025F000F7E70723C2691A42FCD1704743681B689A
:102600001A7E520703D500201B8D0B7070471020D7
:102610004042FBE743681B681A7ED207FCD5198548
:10262000704710B54368022218680123448B418B20
:10263000A4081C40114200D01443428B1A4201D01E
:1026400004231C430723428B13434383FFF7D1FF2B
:10265000200010BD10B502699368002B01D0D1682D
:10266000984710BD10B543681C68237EDB07D80F60
:10267000002B05D00020824202DD0B78013023853B
:1026800010BD032243681B689A7570470322436894
:102690001B681A757047436800201B681A7ED207B2
:1026A00002D5987DC007C00F704702690300002063
:1026B000127C824204D05B681B68987D8007C00F43
:1026C0007047042243681B689A7570470422436868
:1026D0001B681A757047436800201B681A7E5207F2
:1026E00002D5987D4007C00F704710B543680020A1
:1026F0001B681C7E640705D51B8DDBB2824202DDA0
:102700000B70013010BD16204042FBE743681B6888
:102710009A7D187E1040431E9841704708224368F6
:1027200001201B681A76704703699960DA60704768
:10273000030010B508000822196900F0AAF800206B
:1027400010BD002210B511000920FEF72FF8092056
:10275000FEF720F810BD10B543690400002B07D127
:1027600000230122E168487802434A70584210BDB4
:1027700098470028F4D0C21783185340FF2B00DD80
:10278000FF23E2681370ECE7002809D00123C26838
:1027900000205178194202D010784242504118402E
:1027A0007047EFF3108372B6FEE710B5FFF7F9FF3D
:1027B00010B5EFF3108372B6FFF755FEF9E7036823
:1027C000426813605A60002303604360704710B58D
:1027D0000400FFF7F4FF0222637B9343637300233B
:1027E000A36010BD10B5EFF3108472B6FEF768FE5B
:1027F000002C02D162B6BFF36F8F10BD70B504001C
:10280000EFF3108572B62823427B1A420BD18368FE
:10281000002B01D0FFF7DBFF0422637B20009343F2
:102820006373FEF74DFE002D02D162B6BFF36F8FCA
:1028300070BD10B501211838FFF7E0FF10BD70B56D
:102840000400EFF3108572B60368002B1AD0FFF76F
:102850004BF906002000FFF777F9802300221B06C2
:1028600022616361A64206D1FFF762F9FFF744F9DE
:102870000021FEF72BFC0020002D02D162B6BFF331
:102880006F8F70BD16204042F6E710B5FFF772FA61
:1028900010BD002310B59A4200D110BDCC5CC454C9
:1028A0000133F8E703008218934200D17047197092
:1028B0000133F9E7030041188B4202D01A78002A4D
:1028C00001D1181A70470133F6E7F0B50D00372132
:1028D000C91A8FB0C9B20D911F2104000B400C938F
:1028E0000C99E3B2082955D0102900D164E0E9071A
:1028F00060080843690806900791A008A9070843E3
:10290000A90808900991089E099F069807998019BF
:1029100079410E07B446060900966646009F374384
:102920000E0900970196009E019F801979410E06BD
:10293000B4466746060A3E4302960E0A0396029E76
:10294000039F801979410E04B4466746060C3E4346
:1029500004960E0C0596049E059F80197941002669
:102960000A910B960A9E0B9F801979414E07CD085C
:102970000521C4083443614349005B1ADBB2092BCB
:1029800012D9012000210A3B24184D41DBB21DE081
:102990000200A5E707210B4069078C466646E00860
:1029A000E908064334000D00303313702300501C37
:1029B0002B43EDD10FB0F0BD0F210B4029078C4602
:1029C000664620092909064334000D00092BEBD97E
:1029D0000D99CB18DBB2E7E70148006870470000AB
:0429E000A001002032
:0829E40034D8FF7F0100000060
:1029EC00000000008C2A0000000000002C2A0000CF
:1029FC00000000004C2A0000000000006C2A0000BF
:102A0C0000000000AC2A0000410C00000000000097
:102A1C004910000000000000050900000000000043
:102A2C00072E000000000000000000002000002025
:102A3C00B40100208109000000000000000000002B
:102A4C00742E00001C2C0000AC2B00002200002077
:102A5C00DC0100208B2500000000000000000000BD
:102A6C00822E0000282C0000AC2B0000240000203B
:102A7C00F00100208B250000000000000000000089
:102A8C00902E0000342C0000AC2B000026000020FF
:102A9C00040200208B250000000000000000000054
:102AAC009E2E00004C2C0000D02B00002800002093
:102ABC0018020020E10D00000000000000000000E2
:102ACC00000000003324000000000000332400004C
:102ADC00000000003324000000000000332400003C
:102AEC002C2A0000390900000000000033240000EB
:102AFC00000000003324000000000000332400001C
:102B0C000000000033240000AC2A00005526000011
:102B1C0000000000332400000000000033240000FB
:102B2C0000000000332400000000000033240000EB
:102B3C0000000000332400000000000033240000DB
:102B4C0000000000332400000000000033240000CB
:102B5C0000000000332400000000000033240000BB
:102B6C0000000000332400000000000033240000AB
:102B7C00000000003324000000000000332400009B
:102B8C00000000003324000000000000332400008B
:102B9C00000000003324000000000000332400007B
:102BAC007F240000F72400000325000015250000F9
:102BBC001F25000029250000950C0000332500007E
:042BCC008F25000051
:102BD000FD2500001526000023260000D50E00006C
:102BE0003127000065260000EB2600008326000048
:102BF0008D26000097260000C3260000CD26000089
:102C0000AB260000D72600000000000000000000F6
:0C2C10000D2700001D27000029270000F0
:102C1C00FFFFFFFF0045004102000000FFFFFFFF28
:102C2C008044004101000000FFFFFFFF0044004111
:102C3C000000000000440041804400410045004178
:102C4C000008004200C2010000001000000000005B
:102C5C0020040040040000000000000014000000EC
:102C6C0043270000742C00007C2C000001000000A5
:102C7C00842C0000020000000000403200005032A2
:102C8C00EC290000EC2900001C2A0000242A00007A
:102C9C002C2A00002C2A0000636F756E7465723A42
:102CAC002025640A0072302F61313A2020307825BB
:102CBC00303878202072312F61323A20203078253C
:102CCC00303878202072322F61333A20203078252A
:102CDC003038780A0072332F61343A20203078254E
:102CEC00303878207231322F69703A2020307825B4
:102CFC00303878207231342F6C723A20203078259D
:102D0C003038780A0020787073723A202030782599
:102D1C003038780A004661756C74696E6720696E8C
:102D2C00737472756374696F6E2061646472657319
:102D3C007320287231352F7063293A203078253072
:102D4C0038780A00556E68616E646C65642049526F
:102D5C00516E3A2025640A0052657365727665647B
:102D6C0020457863657074696F6E20280053707508
:102D7C0072696F757320696E7465727275707420E8
:102D8C00284952512000535053454C20696E2074F1
:102D9C006872656164206D6F646520646F65732073
:102DAC006E6F7420696E6469636174652050535052
:102DBC000A002A2A2A2A2A204841524420464155F0
:102DCC004C54202A2A2A2A2A0A00415243485F4599
:102DDC005843455054207769746820726561736F4D
:102DEC006E2025780A0A002A2A2A2A2A20257320EE
:102DFC00256429202A2A2A2A2A0A00656963403474
:102E0C0030303031383030000001FFFF0405060748
:102E1C00FF090A0B0C0D0E0F0001020304FF06073D
:102E2C000C0DFF0F08FF0A0B00FF0203FFFFFFFF53
:102E3C000809FFFFFFFF0E0F0001FFFFFFFF060752
:102E4C00FFFFFFFFFFFF0E0FFFFFFFFFFFFFFFFF67
:102E5C00FFFFFFFFFFFFFFFFFFFFFFFFFFFFFFFF76
:102E6C00FFFFFFFFFFFFFFFF6770696F40343130DA
:102E7C003034353030006770696F40343130303465
:102E8C00343830006770696F40343130303434304E
:102E9C003000736572636F6D4034323030303830CF
:102EAC0030006D61696E002A2A2A20426F6F7469A6
:102EBC006E67205A6570687972204F53206275696D
:102ECC006C642076342E322E302D353533322D670E
:102EDC00633964336130316332306562202A2A2AC7
:102EEC000A00286E756C6C29002A666C6F61742A56
:042EFC0000000000D2
:102F00004F230000000000007524000000000000B6
:102F100000000000C8000000180000201800002079
:0C2F2000000000000000000000000000A5
:042F2C0015E015E0B7
:040000030000068D66
:00000001FF
