:1080000040BF0020EDB70000D5AF0100C1B70000B0
:10801000C1B70000C1B70000C1B70000C1B7000080
:1080200000000000000000000000000085B000001B
:10803000C1B700000000000015B00000C1B700008B
:1080400019B1000019B1000019B1000019B1000008
:1080500019B1000019B1000019B1000019B10000F8
:1080600019B1000019B1000019B1000019B10000E8
:1080700019B1000019B1000019B1000019B10000D8
:1080800019B1000019B1000019B1000019B10000C8
:1080900019B1000019B1000019B1000019B10000B8
:1080A00019B1000019B1000019B1000019B10000A8
:1080B00019B1000019B1000019B1000019B1000098
:1080C00019B1000019B1000019B1000019B1000088
:1080D00019B1000019B1000019B1000019B1000078
:1080E00019B1000019B1000019B1000019B1000068
:1080F00019B1000019B1000019B1000019B1000058
:1081000019B1000019B1000019B1000019B1000047
:1081100019B1000019B1000019B1000019B1000037
:1081200019B1000019B1000019B1000019B1000027
:1081300019B1000019B1000019B1000019B1000017
:1081400019B1000019B1000019B1000019B1000007
:0481500019B1000061
:04815400FFFFFFFF2B
:1081580053B94AB9002908BF00281CBF4FF0FF31A6
:108168004FF0FF3000F00CB8ADF1080C6DE904CE0B
:1081780000F008F8DDF804E0DDE9022304B07047F8
:10818800704700BF2DE9F04786468C460846089E92
:10819800154674461946002B40F0C1808542B2FA54
:1081A80082F245D94AB1C2F1200300FA02FC954097
:1081B80094402EFA03F343EA0C0C4FEA154EA8B28A
:1081C800230CBCFBFEF80EFB18CC08FB00F943EAB5
:1081D8000C43994528D9EB1808F1FF3704D2994583
:1081E80002D9A8F102072B44A3EB0903A4B2B3FBFD
:1081F800FEFC0EFB1C330CFB00F044EA0344A042D7
:1082080014D92C190CF1FF3304D2A04202D9ACF1D5
:1082180002032C44241A43EA07401EB1D440002329
:1082280034607360BDE8F0874746DDE76346F1E7F1
:1082380092BB431B01214FEA154EAFB2200CB3FB92
:10824800FEFC0EFB1C330CFB07F840EA0343984581
:1082580061D9EB180CF1FF3004D2984502D9ACF182
:1082680002002B44A3EB0803A4B2B3FBFEFC0EFBF5
:108278001C330CFB07F744EA0344A7424DD92C19D9
:108288000CF1FF3304D2A74202D9ACF102032C440B
:10829800E41B43EA0040C0E7C2F120039540944044
:1082A80020FA03F12EFA03F34FEA154E9040AFB2CD
:1082B8000343B1FBFEFC0EFB1C10190C0CFB07F86A
:1082C80041EA0041884522D969180CF1FF3004D2EF
:1082D800884502D9ACF102002944A1EB08019BB200
:1082E800B1FBFEFC0EFB1C110CFB07F743EA014334
:1082F8009F420ED9EB180CF1FF3104D29F4202D9EC
:10830800ACF102012B44DB1B41EA004193E76046D4
:10831800E3E76146F7E76046A4E76346B8E78342C8
:1083280006D916B9002108467CE7C6E900E0F9E756
:10833800B3FA83F78FB9834201D3724508D8BEEBED
:10834800020460EB030301209C461EB9002169E783
:108358003846FAE7C6E9004CF8E7C7F1200CBB40FD
:108368000EFA07F522FA0CF42EFA0CF1BA401C4367
:1083780020FA0CF3B8404FEA144901431FFA84FE6F
:10838800B3FBF9F809FB18300B0C08FB0EFA43EAAB
:1083980000439A4540D9E31808F1FF3004D29A45C2
:1083A80002D9A8F102002344A3EB0A0389B2B3FB64
:1083B800F9F809FB183308FB0EFE41EA03418E4524
:1083C8002CD9611808F1FF3304D28E4502D9A8F1DF
:1083D8000203214443EA0040A1EB0E01A0FB0298EE
:1083E8004145CE46434602D306D14D4504D2013815
:1083F800B9EB020E68EB0403002EA7D0B5EB0E0212
:1084080061EB030101FA0CFC22FA07F3F9404CEA8C
:108418000303C6E9003199E74046C5E74346D9E773
:1084280010F8012B11F8013B012A28BF9A42F7D016
:10843800D01A7047034611F8012B03F8012B002AC4
:10844800F9D17047034613F8012B002AFBD1181AFB
:108458000138704700000000F0B589B0674D00AFE3
:10846800D5F86431996811F001011AD140F603403A
:108478003A1D04F06DFA0446002840F0BA80786886
:10848800C3681B785BB905F1D403D3E8AF2F02F0BA
:108498000902D3E8EF1FC3E8E42F002CF9D10BF051
:1084A80091FC002141F203003A1D04F051FA044600
:1084B800002840F09E807B68514EDA68D2F80100AF
:1084C800D2F8051003C618460BF07CFC214641F291
:1084D80001003A1D04F03CFA0446002840F0898067
:1084E8007868C3685A7885F870205A88A5F8722089
:1084F8001A7985F87120B3F80720A5F87420B3F825
:108508000530A5F876300BF05DFC214641F20200FB
:108518003A1D04F01DFA044600286AD1D7F804C0B1
:10852800DCF80C20531C413234461868596808336B
:1085380003C493422646F7D160460BF043FC06F08D
:10854800ABF80446002854D195F88A3099061CD413
:108558002C4B4FF48451FB6102232B48BB6107F17C
:10856800180212F04DFE95F87C305A0650D4274B6D
:108578004FF48251FB6102232348BB6107F11802C3
:1085880012F03EFE6FF0120433E0072140F633404C
:1085980004F0A4F90646002800F0478107210C30B2
:1085A80014F097FF452303700623C0F80240847136
:1085B800447004712246C370314640F6334004F0DB
:1085C800C7F90446A8B9012140F6314004F086F9FC
:1085D8000646002800F0298101210C3014F088FF9C
:1085E8002246314640F6314004F0B2F904460028EC
:1085F800B9D020462437BD46F0BD00BF008000201A
:108608007880002034150200BCF7010062150200D2
:10861800002142F2030007F1080204F099F9044628
:108628000028E6D1BB68AC4EDA68D2F80100D2F86F
:10863800051003C618460BF0C5FB214642F202009E
:1086480007F1080204F084F904460028D1D1BC6877
:10865800E368B3F8012091B249B1D97839B1A5F8E6
:108668000421DA78114606F1280016F0D2F82046DF
:108678000BF0A8FB95F87C6016F0200618D10221B3
:1086880040F66D4004F02AF90446002800F0CD8039
:1086980002210C3014F01DFF01232146037046709F
:1086A800324640F66D4004F053F904460028A0D144
:1086B80095F89C301B0713D5002142F21C0007F1E6
:1086C800080204F045F90446002892D1B868C36846
:1086D800D3F80120D3F80530C5E938230BF072FB35
:1086E80095F8D8309E0622D5391DB81C04F0B2F989
:1086F800044600287FF47DAF042142F2240004F0F0
:10870800EDF80646002800F0908004210C3014F0A3
:10871800E0FE7B8822460380BB883146438042F2D4
:10872800240004F015F9044600287FF462AF95F898
:10873800D8305C0611D5002142F22A0007F1080260
:1087480004F006F9044600287FF453AFB868C368FC
:108758005B7885F820310BF035FB082142F20100E7
:1087680004F0BCF8044600285FD008210C3014F04F
:10877800B0FE95F8D81040F2022311F0400F08BF60
:108788000323024688074CBF43F02C0043F00C003B
:108798008B0695F8D93048BF40F0400013F0090F18
:1087A80095F8A23018BF40F4006003F00603CE0726
:1087B80048BF40F01000062B08BF40F4C0700021ED
:1087C80012F029FD2146002242F2010004F0C0F80F
:1087D800044600287FF40DAF95F87C30B5F80411F5
:1087E800980625D4D1B941F2050007F1080204F032
:1087F800AFF8044600287FF4FCAEB5F80431BC6835
:108808004BB9E368B3F80120A5F804219A883348E6
:10881800114615F0FEFF20460BF0D4FA082140F669
:10882800014004F05BF8044690B96FF06804E0E694
:108838000029F3D12A4B4FF48251FB6102232948C6
:10884800BB6107F1180212F0DBFC6FF00404D0E6FC
:1088580008210C3014F03DFE95F8D8300246D907AF
:108868002FD44FF00051204812F0D5FC21460022A9
:1088780040F6014004F06CF8044600287FF4B9AED5
:1088880001463A1D4FF6014004F062F880B3174BD9
:10889800FB6102234FF484511248BB6107F11802AF
:1088A80012F0AEFC05F064FB044600287FF4A1AE8C
:1088B80006F082FF044600287FF49BAE04F068FEB1
:1088C80097E603A1D1E90001CEE700BFAFF300802E
:1088D8009088000200800020D880002008810020B5
:1088E80086150200BCF7010010880002A9150200D5
:1088F8007B686D46DC688AB0B4F80130032B96BFFC
:10890800424A434952F823106A46D3614FF4007330
:1089180040481384404BC2E9050142F8103F4FF428
:1089280013513E4812F06CFCB4F80120AD46022AFF
:10893800B4F8033048D1032B46D8394A52F82310EB
:108948006D468AB06A46D3614FF400733548138484
:10895800314BC2E9050142F8103F4FF413512F483B
:1089680012F04EFCAD466379A679032B98BF2E4AC8
:10897800B4F80750D4F809006C468CB094BF52F88C
:10898800231023496A46C2E907364FF40073DFF81B
:108998009CC09385264BC2E905C1C2E909504FF432
:1089A800735142F8103F1D4812F02AFCA54678681A
:1089B8000BF008FA00214FF602403A1D03F0C8FFF9
:1089C800044618B11B4B63E71149B9E778681A4D9B
:1089D800C368B3F80130A5F8C1300BF0F3F995F886
:1089E800C1305B077FF55EAF21464FF603403A1D65
:1089F80003F0AEFF08B1114B4AE77868C3685B78AB
:108A080085F8C0300BF0DEF94CE700BFBCFE010072
:108A1800810F0200CD15020004000001BCF701001F
:108A2800ACFE0100E61502009CFE0100FE150200E6
:108A3800070000012B1602000080002054160200D7
:108A480008B5034810F08EFD0022024B1A7008BDCD
:108A5800E80402009C9B00200349044B0448002AB8
:108A680018BF194610F07EBD02050200FD04020081
:108A78000A050200F8B5BDF818101446C1F1010541
:108A88009D4228BF1D46A5B10B4B2A4619442046D6
:108A980016F050FC094810F065FD094F661914F8E6
:108AA800011B384610F05EFDA642F8D1054810F0CB
:108AB80059FD2846F8BD00BF408400201905020072
:108AC800370502009F2D020010B5BDF808001146B9
:108AD800C0F101029A4228BF1A467AB1084C2044D4
:108AE80016F028FC074810F03DFD2178064810F0E4
:108AF80039FD064810F036FD012010BD1046FCE790
:108B0800408400203B050200370502009F2D02002B
:108B180002290CBF01220022054B1A7002D1054818
:108B280010F020BD01290CBF03480448F8E700BF36
:108B38009D9B00205D05020082050200A905020038
:108B480038B50B4B1B788BB10A4C207870B90125CE
:108B580009490A4B8D824B60094B8B60094BCB60EE
:108B6800094B0B6108F002FE00B9257038BD00BF43
:108B78009D9B00209C9B0020F896002020FC010073
:108B8800618A0000498A000040840020014810F0F2
:108B9800E9BC00BFE305020010B5044621B1BDE8F9
:108BA8001040044810F0DEBC034810F0DBFC034B17
:108BB8001C6010BD0106020021060200109700206B
:108BC80030B593B012F027FF0378044607AD032BA6
:108BD80024D8DFE803F0021D1F2113492846FFF7B8
:108BE80029FCA379059562781E210492A2780AA827
:108BF8000392E278029222790192627900920B4AFA
:108C08000FF03EFA0A480AA910F0ACFC13B030BDC8
:108C18000849E3E70849E1E70849DFE70A21284668
:108C2800074A0FF02DFADCE72C0602004E06020078
:108C380071060200330602003A06020044060200EA
:108C4800EF26020070B5002088B004F047FD064604
:108C580028BB164D164803AC10F084FC0FCD0FC48A
:108C68002B681449236002223346009603A805F0B6
:108C7800D9FB014678B1104810F074FC0F4806F093
:108C880081FD0F4C00214FF420300EF0BBFE206810
:108C9800FFF756FFF6E70B4810F064FCEEE70146D5
:108CA800094810F05FFC002008B070BD90F8010082
:108CB800A806020048FC0100BF06020094810020BB
:108CC80010970020E5060200880602002DE9F04F03
:108CD80091B0009302F004030293C2F3C20301337C
:108CE800840705460E46DDF868900392059340F028
:108CF800BB81041D30B1072909D86FF01B0011B0E2
:108D0800BDE8F08F01F00706341DC6F10806009B88
:108D18004FF000084FF0040A591E4FF0FF33474642
:108D28000193C3465346CDF810800DB1009A2260D6
:108D38000598002800F3E8809848009A824203D3F7
:108D480097488242C0F0E080039AA4EB050E920790
:108D58004FEA9E0000F103810F2F00F2B180002D31
:108D680000F0058107F140020DEB020C019A0CF8A6
:108D7800200C0CF8102C049801300490E7E07A28B5
:108D88005DD84B280ED8472859D829282DD825280A
:108D980052D054D820287AD02338D0F1000B4BEB8E
:108DA800000B74E04C382E2849D8DFE800F07048F2
:108DB800484848484848484848484B484848484828
:108DC80048484859484B4B595959704B6D48704859
:108DD800184B184848827F4B48484B487F00002072
:108DE8004FF0000B4FF0040A38E001222A38C0B2D5
:108DF80002FA00F010EA0E0F49D110F0625C2FD190
:108E080010EA020B43D06046013C5444B4FBFAF428
:108E18000AFB04F4002D61D0A3EB050CA4446645BD
:108E2800FFF46BAF002868D1042B47D159F8043BF5
:108E38002360042304342AE0019A013A01924FF096
:108E4800000B24E011F8010C6C2834D1002011F833
:108E5800023C83466C2BC5D14FF0080A5346D3E732
:108E680009F1070929F00709073424F00704F9E88C
:108E780002AB35B106982044B0423FF63EAFC4E994
:108E880000AB4FF0000B08344FF0080A534611F8B6
:108E9800010F002878D0BBF1000F7FF470AF2528B0
:108EA800F5D14FF0010B019B013301934FF0040AF8
:108EB800ECE7584694E700208346A5E7082B02D044
:108EC8006FF015001BE709F1070929F00709F9E810
:108ED8000223C4E9002308230834D8E768B9042B1F
:108EE80002D109F10409A4E7082BE9D109F107091E
:108EF80029F0070909F10809EDE7059A013A0592F1
:108F080059F8042B009210E7039A900720D54FF0E8
:108F1800010CA4EB050E4FEA9E00BEF5007FCFD2F0
:108F28000F2FCDD8F5B107F140020DEB020E019AD3
:108F3800C0B20EF8200C0EF8102CBCF1000F3FF454
:108F48001AAF60F07F000EF8200C08F10108013715
:108F5800C5F108024FF6DA7E0434069297E74FF01F
:108F6800000CDAE7BCF1000F01D00136EFE70298F8
:108F780002360028EBD10098CDE90631FFF762FAF6
:108F8800DDE906310644E2E7631BB3F5806F97D24B
:108F980045B9A6F10804E018B1E600BF8CF301005A
:108FA800B02F0200029A9B0828602B709DF81030A1
:108FB800C2B1EB7085F80280B8F1000F05D000222D
:108FC80008A8C5F1010C97420ED14FF0000AC5F16F
:108FD80001030DF1200901930DF1300B574512D112
:108FE800601B8CE66B70E5E710F8013B190608D5A5
:108FF80004EB0C0E764503F07F03FFF47EAE04F815
:10900800013B0132DFE7B8F1000F03D099F90020E6
:10901800002A17DB029BD3B11AF80B2004F8012BA6
:109028000022019B981820448642FFF466AE99F806
:109038000000009904F8010B2046039216F07AF913
:10904800039A14440AF1010A09F10109C6E799F8DB
:10905800002055F822300093029B009845F82230F2
:10906800FFF7F0F9421CDCE76FF00D0047E600BFA0
:109078002DE9F04F95B000AFBB61BB6F0446C3F359
:10908800C0038A4690F802B07A623B6141B94578DC
:1090980000780BEB80002044554517D8A0EB040A54
:1090A800E3787B61BBF1000F02D0BB6FD80716D401
:1090B8007B6953BB7B6A1BB151462046BA69984706
:1090C800554628465437BD46BDE8F08F461C304605
:1090D800FFF7B8F9013030440AF1010ADCE72378D8
:1090E80062683B629B00FB603B6AFA6104EB8309A0
:1090F8007B6A002B40F0FF80C8460026554609EBE6
:109108000B0AD04551D1D94413E0BB6F9907D1D58B
:10911800237899463B629B00FB60636804EB8909EE
:10912800FB617B6A002B7AD15546BBF1000F4FD10A
:109138005E46BB6F13F0050F0CBF4FF0020B4FF0EC
:10914800010B7B6909EB430ABB6F03F002037B62E7
:10915800D145B6D019F8021B19F8013C54F8238000
:10916800AB4B984502D3AB4B984538D33B69002BA2
:1091780042D0F86910F0CDF900283DD0E8468AB011
:109188006A46A54B5361FB69C2E906314FF4007387
:109198001384A24B42F8103F00234FF41251A04809
:1091A80001F0AAF9023DC546D2E718F8013B54F888
:1091B8002300FFF747F9FB6F01303BB1D7F8803048
:1091C8009E423EBFFB6F23F816000136054498E720
:1091D800BB6F13F004061CBF7E6AD944A9E73B693C
:1091E80023B1F86910F095F90028C7D1BB6FDA07E9
:1091F80005D4A5EB0B05ABE77B6A002BA8D040464E
:10920800FFF720F9FB6F43B1D7F880309E423FBF8C
:10921800FA6F431C22F816300136054498E7BBF173
:10922800000F6ED0BB6F13F004066DD0D846002631
:1092380007F140005A46494616F07CF87B69D94444
:109248005B007B607B6909EB4303BB60BB6F03F08A
:1092580002033B60BB684B4558D1B96F6378B86F60
:10926800890748BF002106EB030258BF4FEA58019F
:10927800C507D2B200F19A8010F0040F14BF40461F
:109288000020FB616270A070E1702046BA69F9683D
:109298007B6A9847051EFFF614AF3B6A4146237068
:1092A800FB69BA6963707B6984F802B0E37007F1FF
:1092B80040007B6A9847B0F10008C0F2A480FB68C0
:1092C800AAEB0B01C91A7B684846C91ABA697B6AB6
:1092D80098470028C0F299804FF0000BA84408EB8B
:1092E800000507F1300AB34562D30021BA69084680
:1092F8007B6A9847E5E65E464FF0000807F13000C4
:1093080098E75E46D84699E7B04697E719F8021BF2
:109318003F4B19F8015C54F82500984202D33D4BA5
:1093280098421DD33B6923B1F86910F0F2F8002880
:1093380090D13B68FBB908F1280307F1280208F12E
:10934800010003EB020C07F1500308F1020853FA7D
:1093580080F00CF8101C5FFA88F800F8105C79E7C8
:109368003B692BB1F86910F0D4F800287FF472AF8C
:10937800BB6FDB0709D506F1280307F12802711C2A
:109388009E1806F8205CCEB264E7BB6F58077FF5DD
:1093980061AF08F1280307F1280208F1010103EB86
:1093A800020808F8105C5FFA81F853E7002068E7C4
:1093B8001BF80A3054F8239087F82F30FB6FFBB165
:1093C80033F81B800121BA697B6A07F12F0098479F
:1093D80000281ADB0544B8F1000F06D14846FFF70C
:1093E80031F800F101081FFA88F841464846BA6981
:1093F8007B6A9847002808DB05440BF1010B72E7EC
:10940800D7F87C80DEE745465BE6054659E600BFAF
:109418008CF30100B02F02000707020004000001CE
:10942800FCF70100014B1860704700BFAC810020B9
:1094380080B505460E46174698460EF0FDFA0346D7
:1094480015F096FF0446DFF81890424649F80030B8
:1094580039463046A84754F8090002F03DFA00BFE3
:10946800080000002DE9F047058B044628079046C0
:1094780011D4022905F0070540F0CD80204610F0F0
:109488002BFB78B10138218B042811D8DFE800F0D4
:10949800C3106D85950001290CBF45F0100545F0F6
:1094A8002005258388F31188BFF36F8FBDE8F08707
:1094B80001F0070AAA4500F0A6800027B9463E46F3
:1094C800A368002B00F0BD8041F00801218388F3D8
:1094D8001188BFF36F8FA168002900F0BB800D6869
:1094E800002900F0B780334652462046D1F8048060
:1094F800C047002D76D02B6829461D46F0E701F0BD
:1095080007035A1F012A1BD8002221F00701062B46
:10951800276889B2C4E9002209D13B4603E0628B7F
:10952800013262831B68002BF9D141F00201204609
:10953800218310F0D1FA00287BD041F0200177E098
:10954800042B0AD121F0070189B22046218310F0AB
:10955800C3FA10B141F020012183218B01F0070AE1
:10956800AA4550D00027B946AAE7236921F0070188
:1095780041F00601062DD3F8009021832DD1B9F1D1
:10958800000F40D041F00801218388F31188BFF310
:109598006F8F20463949C84729E021F00701236920
:1095A80041F0040189B2042DD3F804902183E6D058
:1095B80000274FF0040A3E4682E721F0070123699D
:1095C80041F0050189B2052DD3F808902183D6D042
:1095D80000274FF0050A3E4672E700274FF0060ABB
:1095E8003E466DE72B4687E7B9F1000FD1D14FF022
:1095F8002003EFF3118883F31288BFF36F8F238B57
:1096080023F008032383258BEA062ED525F01003C3
:10961800238305F007056669218B002EBFF66FAF1F
:1096280000232768C4E9003321F0070141F0010154
:109638002183218B4FF0000901F0070AAA457FF426
:109648003FAF002F9BD041F00801218388F3118898
:10965800BFF36F8F002FC7D03D6839463346524657
:10966800204610F065FA2F46F4E7AB067FF51AAFEF
:1096780025F02003238305F00705FFE6659B01001D
:1096880007B50DF1070014F078F9114B98421CD179
:109698004FF480620F4B1049C3F8B8254FF40062AD
:1096A800C3F83C259DF8070014F053F90B499DF8C1
:1096B800070014F049F901209DF8073098400BF095
:1096C80037FF002003B05DF804FB6FF00B00F9E7EB
:1096D8000000AD0B00A002402CA0024028A10240CF
:1096E800052370B5144D154E2C780134B4FBF3F3F3
:1096F80003EB8303E41A14F002F9114A137823B137
:1097080056F82430C01A072813D90E4BD3F8141171
:1097180041B10021C3F81411D3F814312C700CB9DD
:10972800012313702C7814F0EAF846F8240001207D
:1097380070BD0020FCE700BF9F9B0020149700200D
:109748009E9B00200050004048B1054B054A1B680D
:10975800B3FBF2F35843044B43F001031847704737
:109768000C83002040420F0060F9010070B5049C92
:10977800C4F3072630460BF0F7FBE5B2014628464E
:1097880014F0F3F800220120074BA40B04F0FC04AA
:109798001A51A8400BF0D2FE30460BF099FD28462E
:1097A800BDE870400CF058B880A00240F0B583B016
:1097B80000AF381D0CF04AF8284B98424BD10BF0FB
:1097C80069FD041E13DA38790CF046F86D4688B046
:1097D8006A46234BC2E90534032342F8103F0023AD
:1097E8004FF4C2511F4800F087FEAD462FE040F607
:1097F80007031D4D7C71AE68FB8074687B6814B9E3
:109808006FF05704E2E708212846184AA047041ECB
:10981800DCDB3369002BF3D0012208212846984766
:10982800041ED3DB01203B7998400BF081FE787948
:109838003D79FE7914F04EF80146284614F089F86F
:109848000B4BB60045F000459D51002CBED120467B
:109858000C37BD46F0BD6FF01204B7E70000AD0B42
:10986800BF0702006CF80100C4F401007D980000F5
:1098780080A102402DE9F341144683681B690BB1AE
:1098880000229847C4F3072630460BF075FB0546BF
:10989800304614F01FF84FF00008E7B2014638468A
:1098A80014F067F8104B220E920043F802803046FD
:1098B8000BF05AFB0D4A4FEA943C0CF0FC0C47F0B5
:1098C800004342F80C300146384614F03DF8084B86
:1098D80005F132020093304643460194520014F0D9
:1098E80002F802B0BDE8F08180A1024080A00240E9
:1098F8007597000014F024B87FB570B9124B13485F
:10990800059302234FF4825104AA049310F056FCE5
:109918006FF0150007B05DF804FB836863B90C4B62
:109928000A48059302234FF4825104AA049310F0C5
:1099380045FC6FF00400EDE71B681BB107B05DF84C
:1099480004EB18471846E5E7F007020014F8010091
:109958000108020030B587B008B101B16AB9134BEC
:109968001348059302234FF4825104AA049310F07C
:1099780025FC6FF0150007B030BD84680CB1E568B0
:1099880065B90C4B0A48059302234FF4825104AA87
:10999800049310F013FC6FF00400ECE741F8040B9B
:1099A800E36807B0BDE83040184700BF1F08020051
:1099B80014F801000108020030B51346044687B0C8
:1099C80068B91A4B1A48059302234FF4825104AA26
:1099D800049310F0F3FB6FF0150007B030BD00687A
:1099E80060B9144B1248059302234FF4825104AA1C
:1099F800049310F0E3FB6FF00100EEE782680AB110
:109A0800956865B90C4B0A48059302234FF48251B7
:109A180004AA049310F0D2FB6FF00400DDE70A46B5
:109A2800AC46616807B0BDE8304060474B080200AB
:109A380014F801005C080200010802000020014B34
:109A4800186070470000072030B50C460E4985B0F5
:109A58000291D0F8AC110546CDE9003100F1E001E2
:109A68004FF0FF3320460CF01DFD50B9012384F858
:109A78006430D5F8A83123B1204605B0BDE83040A0
:109A8800184705B030BD00BFBBA2010038B50C4671
:109A98001146054610F00FFC034638B9284604491C
:109AA80010F009FC03460020236038BD0120FBE7C5
:109AB800A02D02002DE9F04F012381460569466873
:109AC80085B005F55B77D7E8EF2F002A03D1C7E803
:109AD800E13F0029F7D10CBF1A46002240F0B180BF
:109AE800B368B16A05F5E4781C1F104610F068FCED
:109AF80084425FD8013A00F09E80B2FA82F24FF0B9
:109B08000044D44072682046073222F00302C5F8A8
:109B18006022B16A10F054FCC5F86402B36A40468A
:109B28006343033323F0030302EB4302230103EBF4
:109B38004403093323F0030303EBC403C5F8582295
:109B48001A440832C5F854227368C5F85C42C5F84F
:109B580050323D4BC5E9A963316800F0BDF90446B0
:109B680030BBD9F804A0D9F81090DAE9073409F520
:109B7800307B012B584608BF103C14F00BFF002324
:109B8800DAF8240031494FF4806201EB8021009318
:109B9800584623460DF09AFB09F52C702C4914F011
:109BA800BBFEDAF8140083685C682CB96FF05704C0
:109BB800002139E0013298E74B46264ADAF81810B6
:109BC800A04704460028F3D1DAF8140083681B691B
:109BD800002BEBD00122DAF8181098470446002829
:109BE800E6D11D4B2846C5F8A8311C4BC5F8AC3149
:109BF8001B4B0393D5F810320293D5F80832CDE900
:109C08000083D5F86832B26AD5F8681300F02CF9E9
:109C180004460028CCD105F1E0000CF0F1FC002846
:109C2800C5F870030ADB0221384610F079FB20469C
:109C380005B0BDE8F08F6FF00B04B9E76FF01504BD
:109C4800B6E76FF07704F2E711A30100909C0020BB
:109C5800F7A20100EBA201006D9C00009FA4010087
:109C680059A3010013B5044640B100230122CDE9F0
:109C78000032074BD0E909120CF0C8FBA36E1B6831
:109C880023B1E06E02B0BDE81040184702B010BD25
:109C9800A02D020013B504460846216901F55B7141
:109CA800D1E8AF1F022910D193B1A0B10121CDE9AC
:109CB80000311346D0E909120CF0A8FB074B984273
:109CC80008BF6FF00B0002B010BD6FF00F00FAE78D
:109CD8006FF04C00F7E76FF00100F4E72EF8FFFF94
:109CE8002DE9F74388461546066906F55B73D3E800
:109CF800AF3F022B5FD1136823B96FF0150003B093
:109D0800BDE8F0831B78002BF7D0D6F86893B9F13B
:109D1800000F33D106F5D8774FF0FF324FF0FF33FD
:109D280038460DF067F830462A6801A9FFF7AEFEFD
:109D3800019C1CB9384610F0F1FADEE705F108037A
:109D4800A3666B6984F86490E366E46360B138469F
:109D580010F0E4FA21463046236E2A68FFF774FEB5
:109D68000020C8F80040CAE72022296804F1400012
:109D780015F0A6F9384610F0D1FAF1E730460F4948
:109D880010F099FA04460028B7D005F10803836655
:109D98006B69C063C366002380F864302022296899
:109DA800403015F08DF922460121304600F03EF88A
:109DB8000028D5D0A1E76FF00F00A0E7A02D020082
:109DC8002DE9F04F05460E4690460027D0F8B0A082
:109DD80085B0AAF5AE7421463046FEF721FBE0B9FE
:109DE800114BA4F1400B0293DAF810303246CDE95A
:109DF800008329464FF0FF335846AAF5CE790CF078
:109E080051FB60B97023012203FB079383F8642098
:109E1800DAF80C300BB158469847703417B105B0D2
:109E2800BDE8F08F0127D6E701A501001FB514464C
:109E380090B18AB1012912D10A4B00F1E0010293D5
:109E4800D0F8AC31403201934FF0FF3320460093F5
:109E58000CF028FB04B010BD6FF01500FAE70020E5
:109E6800F8E700BF01A501002DE9F04387B00E46D1
:109E7800DDE90E811446DDE910251F4630B329B30C
:109E8800DFF850C000F1E009002D08BF65469EB913
:109E9800CDE9034400F5CE742046059614F02DFB59
:109EA80003ABCDE900432A463B46414648460CF001
:109EB800CDFB07B0BDE8F083002241460E9248462C
:109EC8002A4607B0BDE8F0430CF0EABC6FF0150075
:109ED800EFE700BFC99D0000F0B50E46044689B003
:109EE80000286FD001230246C3630023D0F89810DE
:109EF800364F403040F80C7C42F8301FCDE9013332
:109F08004FF0FF330093C36D13F0B7FD304A06AB33
:109F180092E8030083E8030018460CF089F9054627
:109F2800D8B904F134000CF065F90546A8B93946EA
:109F3800284805AA13F07DFD054670B9059B9A6867
:109F480072B10C33D4F89400C4F8A03010F005FBBB
:109F5800C4F8D40030B96FF00B05284609B0F0BD3D
:109F68000346EFE7D4F8940010F0F7FAC4F8D800E5
:109F78000028F0D0D4F88C30D4F8A010C4F8A83059
:109F88000423C4F8AC30C4F8C4300223A362124BD3
:109F9800B4F89420D4F8D470C4F8B810C4F8D01029
:109FA800D4F89010236204F1A403A4F8B020C4F8F4
:109FB800A470C4F8C010A4F8C820C4F8BC00A661F6
:109FC800E362CAE76FF01505C7E700BF860802001D
:109FD800A4F801009008020084FC01002DE9F04774
:109FE800044607464FF00109DFF8508014B9384697
:109FF800BDE8F08794FAA4F5B5FA85F509FA05F3F2
:10A008002E0108EB05156FEA030A24EA03042B7BEB
:10A01800002BEBD058F806301B694BB946447368DF
:10A0280004222846196807EA0A0700F051FADDE712
:10A03800284698470028D9D1F0E700BF7CF80100EE
:10A0480030B5002289B00F490F4814F07CFE002279
:10A0580000230024CDE906230E230C4DCDE903345B
:10A068004FF440722846CDE90144094B0949009450
:10A078000CF038FE0849284614F012FB204609B0B7
:10A0880030BD00BFA5A00000D08E0020408A00206F
:10A098007DA3000090A000209808020001480CF061
:10A0A80093BF00BF308500202DE9F04780461F4848
:10A0B8000F4610F0A4FA0646002830D0002528469E
:10A0C800BDE8F087237B73B12368DB680BB12046BA
:10A0D800984723681B69D3B9636804222046196826
:10A0E80000F0F6F9013610344C45EBD3B8F1000F07
:10A0F800E5D0002DE2D02846FFF770FF0546002F77
:10A10800F7D000214FF4A4700DF07CFCF1E7204655
:10A1180098470028E0D00AFA06F31D43E2E705460F
:10A128004FF0010A024CDFF80C90DDE73897002069
:10A138007CF801008CF80100014B53F820007047AF
:10A14800C4FC010008B5034608462BB1044A136055
:10A1580000F074FC002008BD6FF01500FBE700BF9D
:10A16800DC81002010B5044C237813B903480CF0A7
:10A178002BFF0123237010BDA09B002030850020F9
:10A1880010B50446064810F03AFA3CB1054BD3E83E
:10A19800EF1F0139C3E8E21F002AF8D110BD00BF44
:10A1A800309700203497002000200146034BD3E865
:10A1B800EF0FC3E8E21F002AF9D17047309700205B
:10A1C80070B5FFF7F1FF0546074C084EB44200D3BF
:10A1D80070BD63685B792BB123685B6813B129464E
:10A1E800204698471034F1E77CF801008CF801000C
:10A1F80010B5044C044920460FF05FFE034B1C6069
:10A2080010BD00BF58840020B0FC01002897002032
:10A2180008B50023074A4FF400411370064A07485F
:10A228001360074A1360FFF78DFFBDE80840FFF78A
:10A23800DFBF00BFA19B00203097002003A60100CC
:10A248003497002001460022002301480FF056BE33
:10A258005884002001480FF0EFBE00BF588400204A
:10A26800024B014618680FF039BF00BF289700203D
:10A2780001480FF06FBF00BF5884002070B5264B0F
:10A288001878002847D0FFF7E5FF054670B1234B43
:10A29800D3E8EF1F0139C3E8E21F002AF8D1204CA8
:10A2A800204EB4422DD32846FFF7DAFF1E4B1F4C31
:10A2B8001B68002B19DD14F0FFFC4FF47A72A0FB29
:10A2C800020302FB0131C30B43EA4143D4E90020F6
:10A2D8009B1A40F2E9324FEAD13161EB0001934217
:10A2E80071F1000101D3FFF76BFFD4E9003213F5D8
:10A2F8007A7342F10002C4E90032BDE87040FFF70A
:10A30800B7BF63685B7923B12368294620461B6879
:10A3180098471034C5E770BDA09B002034970020F3
:10A328007CF801008CF8010030970020C88E0020CE
:10A3380070B50D4D297861B90120FFF7B5FE0B4CBA
:10A348000B4EB44206D3FFF799FF0028FBD1012337
:10A358002B7070BD63685B791BB1236820469B68CE
:10A3680098471034EDE700BFA19B00207CF801005E
:10A378008CF8010000212DE9F0470846FFF794FE0C
:10A38800044658B340F267684FF0000914F0F0FF34
:10A398001B4B1C4A1B58136033B11B4B1B68092B02
:10A3A80002DD1A480CF010FE0025194FDFF85CA0FA
:10A3B80044B12046FFF712FE044618B94FF0FF38A3
:10A3C8004FF0FF39FFF75AFF064628B9B5B942469C
:10A3D8004B4650460CF01EFE3546E9E74FF0FF3875
:10A3E8004FF0FF39D2E72B689B691BB10022284642
:10A3F800114698471035BD42F5D3E8E7054DFAE711
:10A40800080000002C970020349700203085002099
:10A418008CF801007CF8010013B5184810F0EFF82B
:10A42800174B1B787BB14FF02003EFF3118483F3B4
:10A438001288BFF36F8FFFF721FF84F31188BFF3F2
:10A448006F8F02B010BD0F4B1B68002BF9D050B9AD
:10A45800002200230C48CDE900234FF400420023DA
:10A468000DF02EFDEDE70928EBD1074814F077FC35
:10A47800064802B0BDE810400CF0A6BD3497002095
:10A48800A19B00202C970020D08E00203085002032
:10A4980010B5064B04461B6898472146A06004483F
:10A4A8000FF0AAFDBDE81040FFF7B6BFDC81002021
:10A4B80058840020044A054B9B1AB1EBD30F34BFD4
:10A4C80052F83100002070476CF701007CF8010059
:10A4D800084B10B4C31A44681B1101332371436835
:10A4E8009A7101224368196043685A7110BCFFF7DA
:10A4F80039BE00BF7CF801002DE9F04F8FB0C1F3E1
:10A508004A2804AF0D469146B8607B600C0DB8F13F
:10A51800000F63D000264FF0040B4FF00A0A07F132
:10A528001403C7F80C80C7E907667E620193CDF86B
:10A5380008B0CDF800A007F11C0332464846F96878
:10A54800FEF796FDB0F5006F03461CD36C468AB043
:10A55800D9F8041004AB26481A46C3E9050140F2AD
:10A56800FF71D9614FF400711984224B42F8103FF2
:10A578004FF4125133462048FFF7BEFFA5462C374B
:10A58800BD46BDE8F08FC0F30A0804F1170018446F
:10A5980020F0070080083B60FFF754FE68F353255E
:10A5A800044690B13B6800F11001C7E9083607F18D
:10A5B8001403F961CDE900A3CDF808B048460F4A65
:10A5C800F96807F11C03FEF753FD68F353252A4683
:10A5D80020467B68B96810F044F8D0E704F117000A
:10A5E80020F007008008FFF72DFE0446EDE700BFC6
:10A5F800AD080200040000011CF801003FA601009C
:10A608002DE9F04F87B00446DDE9105ADDE91269FB
:10A618000F4693469846A6B310213346524600206B
:10A62800CDF80090CDF81490FEF750FB014605F1E7
:10A6380017000844144B04F007040BF0070BE40060
:10A6480020F0070003EA412344EA8B1480081C43E6
:10A658000391FFF7F7FD44EA0554054640B13EB1C2
:10A66800334652460399CDF800901030FEF72EFB82
:10A67800434622463946284607B0BDE8F04F0FF05A
:10A68800F0BF3146D3E700BF00FE0F000EB403B59C
:10A6980003AB53F8042B01460448019301F004FB73
:10A6A80002B05DF804EB03B0704700BFD1A601000B
:10A6B800CA0605D48B064CBF02490349FFF7E6BF1B
:10A6C800704700BF9F2D02009E2D02002DE9F04F1C
:10A6D80089B09A46DDE914739DF84CB00593169B32
:10A6E80004460D46179E06920493BBF1000F00F036
:10A6F800858006F0080307930FF09BFF06F0020918
:10A708000246002849D020468549FFF7BFFF80460A
:10A71800B9F1000F08D016F0440F40D12A46204660
:10A728008049FFF7B3FF804406F0010353B17E4B25
:10A73800204653F82B207D4B7D49002A08BF1A4636
:10A74800FFF7A4FF06F00803002B54D0794B2046EE
:10A7580053F82B207849FFF799FF0546069B2BB144
:10A768001A4620467549FFF791FF0544BAF1000FD4
:10A7780005D0524620467249FFF788FF05444544F4
:10A78800002F49D1049B002B4FD1F30700F1C18062
:10A7980031462046FFF78CFFB5E08046B8E7694BA5
:10A7A80018680028BFD0684B4FF47A791B684FF4BB
:10A7B8006161B5FBF3F5B5FBF0F300FB135509FB3D
:10A7C80005F5B3FBF1F2B5FBF0FE4FF03C0C01FBD5
:10A7D800123100FB1E55B1FBFCF309FB05F5B5FB77
:10A7E800F0F50CFB131120460091CDE901E557491E
:10A7F800FFF74CFF97E706F00805AFE7BAF1010F3E
:10A8080006D1002F65D1049B002B7CD000250CE0DD
:10A81800002FF8D04E485DE04E483B4622464E4950
:10A828000EF046FE049B002B69D0DFF83081DFF87C
:10A838003091049F3146102F204628BF10274FF033
:10A84800000AFFF735FF554546DC059B494620467B
:10A858001A78FFF71BFF4FF0010A1AF0070F03D110
:10A8680041462046FFF712FF57453CD9059B49460C
:10A87800204613F80A20FFF709FF0AF1010ABAF186
:10A88800100FEAD14FF0000A20463649FFF7FEFEC6
:10A898005246059B20469A5C334B995C11F0970F02
:10A8A80008BF2E223149FFF7F1FE0AF1010ABAF179
:10A8B800100F1DD01AF0070F03D141462046FFF7AD
:10A8C800E5FE57455246E4D841462046FFF7DEFEEE
:10A8D800EBE720485D46A0E741462046FFF7D6FE55
:10A8E8000AF1010AAFE720462149FFF7CFFEC4E786
:10A8F800059B3B440593049BDB1B049399D1BBF157
:10A90800000F7FF442AF204609B0BDE8F04F0FF0CA
:10A91800CEBE2046054A0649FFF7B8FE38E700BF15
:10A92800F1080200F5080200D4FC0100EC0802005E
:10A93800CC140200E8FC01001A09020020090200F8
:10A9480024090200409700203C970020FE080200DE
:10A95800FFA60100D1A60100B1BC00006A2D0200CB
:10A96800290902002F090200A32E02003109020062
:10A97800682D02002DE9F0410F884B6805460C460A
:10A9880090468E6886B0C7F382175BB1144A9B1A4B
:10A9980043F3CF01002920DB2078C0F3C200FFF782
:10A9A80089FD0346214651F8102B6088C2F34A22DC
:10A9B800002A01EB020408BF00210022C0F30B109B
:10A9C800CDE90408CDE902142846314601970092E2
:10A9D800FFF77CFE06B0BDE8F0810023E2E700BF88
:10A9E8006CF7010042F20F7373B58B4228BF0B4618
:10A9F80005680446052168460D4A0DF041FB0646E8
:10AA0800636828460B225B680A490FF043FE6368B7
:10AA18003246694628465B680FF03CFE63681B2295
:10AA280028465B6804490FF035FE02B070BD00BFD0
:10AA380029100200500902003409020000210123F4
:10AA4800064A904206D8064A01B901231360054B0D
:10AA580018607047012140085B00F2E740420F0090
:10AA68003C97002040970020014B00201960704758
:10AA7800589700200122024B02481A700FF017BEA7
:10AA8800A39B002018FD01000148FFF7ABBF00BFE2
:10AA980018FD010010B5064B0C461868FFF74CFB73
:10AAA8002146BDE8104003460F220248184700BF60
:10AAB8005897002018FD0100F8B50D460446064FCA
:10AAC8004618B44201D12846F8BD14F8011BBB68EA
:10AAD80001485B689847F4E7B0F401000449431E55
:10AAE8000F3013F8012F8A5C83421A70F9D170472E
:10AAF80096090200F0B50746264E8DB001AD0C460A
:10AB08000FCE0FC50FCE0FC596E8070085E80700E2
:10AB18003846002F39D0002C39D0381F024621463C
:10AB280010344B780D781B0443EA0563CD78043163
:10AB38002B4311F8025C8C4243EA052342F8043F98
:10AB4800EFD10421144C8A07036916D1C3F30742D5
:10AB5800A55C1A0EA25C42EA0562C3F30725655D8F
:10AB6800DBB2E35C42EA054242EA032221F0030336
:10AB780030336B4453F82C3C534050F8042F0131C8
:10AB880053402C290361DED101200DB0F0BD2046D1
:10AB9800FBE700BFACF80100960902002DE9F04F71
:10ABA800002703689DB002934368DFF8BCA10393B4
:10ABB8008368DDE902460493C36805930369DDE908
:10ABC80004BE0693436907938369DDE9062C08935D
:10ABD800C36998460993089B0093CD590CAB2DBACD
:10ABE8005AF8049BDD514FEAF223A94483EAB213D1
:10ABF800009D83EA72634B4425EA020502EA0C09C8
:10AC080085EA09052B44434486EA0B054FEA743864
:10AC180088EAB408254006EA0B0985EA090588EAA6
:10AC2800B4580437A844402F03EB0E054344DE46CE
:10AC3800DDF8008040F088804FF0100A4B490A91F7
:10AC480051460AF1010A0DF1700E0AF00F070EEBDA
:10AC5800870757F8407C01F00F094FEAB74801977A
:10AC680088EAF71801F10E0707F00F070EEB8707C0
:10AC780057F8407C09314FEAF74E8EEA774ECDF807
:10AC88002CE001F00F010DF1700E0EEB81010EEBBF
:10AC9800890959F840EC51F8401CBAF1400F714449
:10ACA800DDF804E088EADE08DDF82CE041448EEAAD
:10ACB800972E714405EA02084FEAF52E2CEA05079B
:10ACC80087EA08078EEAB51EDDF828808EEA756ED9
:10ACD800774458F804EF49F8401C77440F4400992A
:10ACE8004FEA733E394484EA0607CDF828808EEA95
:10ACF800B30E07EA030704EA06088EEAB35E87EA9A
:10AD0800080777440F4401EB0B0ECDF800C0B3469B
:10AD180022D102993944016003991944049B416086
:10AD280023448360059B3344C360069B73440361DB
:10AD3800079B2B444361089B13448361099B63442D
:10AD4800C3611DB0BDE8F08FB346CDF800C02646FC
:10AD580094461C462A4640E7944626462A461C4600
:10AD680075463B466CE700BF28FD010064FD010005
:10AD780010B50446C8B1702200210FF0D8FC0B4B67
:10AD88000B4A0C49C4E900230B4B0C48C4E90213D5
:10AD98000B4BC4E9040301200A4BA36103F174536C
:10ADA800A3F52303A3F69243E36110BD85AE67BB09
:10ADB80067E6096A72F36E3C3AF54FA57F520E5169
:10ADC8008C68059BABD9831F014910220A60704724
:10ADD80010ED00E072B6404080F31188BFF36F8F2A
:10ADE80001B5FEF77DFC00280AD0BFF34F8F30BFB6
:10ADF80000BF00BF00BF00BF00BF00BF00BF00BF53
:10AE0800BDE8014062B6BFF36F8F704772B6494024
:10AE180081F3118801B5FEF763FC00280AD0BFF35F
:10AE28004F8F20BF00BF00BF00BF00BF00BF00BFE3
:10AE380000BF00BFBDE8014080F3118862B67047CB
:10AE48002DE9F04781460C4600AF00294CD0D1E9E6
:10AE580000126E468AB0A3686D464FF0050AA846F0
:10AE68002548C5E90723C5E9050148F810AF0023BF
:10AE780042464FF421512148FFF73EFBD4E9031223
:10AE8800B5466369AD461E48C5E90723C5E905010E
:10AE9800C5F810A0002342464FF421511748FFF788
:10AEA8002BFBB54688B0E3696D464FF0030AA84608
:10AEB800144AC5E9052348F810AF002342464FF469
:10AEC800C2510E48FFF718FBB546A369AD460E4AB6
:10AED800C5F810A0C5E90523002342464FF4C25126
:10AEE8000648FFF709FBB546214648460BF0EEFC3D
:10AEF800BD46BDE8F08700BF960A02005CF8010075
:10AF0800C50A0200F40A0200030B020040B200283E
:10AF180007DB01234109034A00F01F00834042F880
:10AF28002130704700E100E040B200280CDB01222C
:10AF38000649430900F01F008240203341F82320CE
:10AF4800BFF34F8FBFF36F8F704700BF00E100E082
:10AF5800054B420953F82220012300F01F0003FA91
:10AF680000F01040704700BF00E100E040B2002848
:10AF780001F10101ACBF00F16040064B4FEA4111FD
:10AF8800C9B2ABBF00F5614000F00F0080F80013B4
:10AF98001954704714ED00E030BFFFF7FDBF00BF44
:10AFA8000B4A08B50B4B22F07F029A60BFF34F8F14
:10AFB800BFF36F8FD3F8882022F47002C3F888207B
:10AFC8000BF044FD0CF0B0FD00F000FC0BF088FD28
:10AFD8000080000000ED00E0094A0A49936809680A
:10AFE8009867D96708494B6843F080534B60002342
:10AFF80083F31188BFF36F8F9368D86F704700BFD2
:10B00800389B00201004020000ED00E018498A680F
:10B0180082F881E04FF030001044EFF3098C80E8AB
:10B02800F01F202080F31288BFF36F8F114F4FF06D
:10B0380000664A698A603E604FF0740414192068FB
:10B048000D4C206092F981E0906F0023936780F3A4
:10B05800118802F1300090E8F01F8CF3098802F1A2
:10B06800000004B50FF0B9FFBDE8044070470000C8
:10B07800389B002004ED00E05C9700201EF0040FD0
:10B088000CBFEFF30880EFF30980816911F8021C07
:10B098000229FFD001B50FF091FF01BD42F8203C15
:10B0A800009B0D4942F81C3C019B21F0010142F82C
:10B0B800183C029B42F8081C42F8143C4FF080737D
:10B0C80042F8043C002383674FF43C43203A02656E
:10B0D800C0F88030704700BF399400000A4B446FB5
:10B0E80098600A4B1C60436E83F30B88104681F30B
:10B0F8000988002163B681F31188BFF36F8F00229E
:10B108000023FEF795F900BF389B00205C970020CC
:10B1180001B5EFF30580A0F110004FEAC000044923
:10B12800014409C99847BDE80140024908470000A1
:10B13800ECF401009DB10000114B124A2DE9F041D9
:10B14800D518013DB5FBF3F5DFF83C805D430F4BA7
:10B15800074608EB0304013CB4FBF3F403FB045477
:10B168000E1B30460A4914F0E5F8701942460021D2
:10B17800083E14F0ECF87E6704F10800BDE8F081A1
:10B1880001000000000000000400000004000000AE
:10B198008CF80100044B99685869884203D0034928
:10B1A8004FF080520A607047389B002004ED00E0A1
:10B1B8002DE9F04186B006460D4600AF0224444B07
:10B1C8004FF482517B6143483C6107F110020FF054
:10B1D80008FF414B9B6ADB0678D5404B3D484FF44E
:10B1E8008251C7E9044307F110020FF0FAFE11205B
:10B1F800394B9B6A1C070BD5394B36487B610223B8
:10B208004FF482513B6107F110020FF0EAFE122061
:10B21800314CA36A990723D5E846324B07F110024F
:10B228007B6102234FF482513B612A480FF0D9FE1B
:10B23800636BA26A120612D588B06A462A49254865
:10B24800C2E9051303234FF4C25142F8103F0FF02F
:10B25800C8FEC5461EB1A36A23F08003A36213206B
:10B268001D4B9B6ADE070BD5204B1A487B610223D6
:10B278004FF482513B6107F110020FF0B2FE142027
:10B28800154B9B6A9C060BD5194B12487B61022310
:10B298004FF482513B6107F110020FF0A2FE152016
:10B2A8000D4B18379A6AD10658BF9A6A9A6A92065D
:10B2B80042BF5A6A22F400525A629A6A42F0FF0266
:10B2C8009A6200232B70BD46BDE8F08110208FE7FD
:10B2D800310B02005CF8010000ED00E0470B0200B2
:10B2E8007A0B02008D0B0200A50B0200BB0B0200BB
:10B2F800DA0B02002DE9F04186B006460D4600AF94
:10B308000224474B4FF482517B6146483C6107F168
:10B3180010020FF066FE444B9B6AD9046DD5434B6F
:10B3280040484FF48251C7E9044307F110020FF077
:10B3380058FE17203C4B9B6A1A050BD53C4B3948E5
:10B348007B6102234FF482513B6107F110020FF039
:10B3580048FE1820344CA36A9B0523D5E846354B94
:10B3680030487B61022307F110023B614FF48251A0
:10B378000FF037FEA36BA26A100412D588B06A4694
:10B388002D492848C2E9051303234FF4C25142F856
:10B39800103F0FF026FEC5461EB1A36A23F40043F2
:10B3A800A3621920204B9B6A59050BD5234B1D48D6
:10B3B8007B6102234FF482513B6107F110020FF0C9
:10B3C80010FE1A20184B9A6AD20518D51C4B15483E
:10B3D8007B6102234FF482513B6107F110020FF0A9
:10B3E80000FE1B20104A1837936A43F47F43936288
:10B3F80000232B70BD46BDE8F08116209AE79B6AB2
:10B408009B04EFD50F4B07487B6102234FF4825111
:10B418003B6107F110020FF0E4FD1C20E2E700BFDA
:10B42800090C02005CF8010000ED00E01F0C0200AE
:10B438007A0B0200300C0200490C02005E0C02007C
:10B44800790C0200DA0B020010B586B002243E4BDC
:10B458004FF482513D4804AA059304940FF0C1FDAE
:10B468003B4B9B6A99016CD53A4B38484FF4825153
:10B4780004AACDE904430FF0B4FD1E20344B9B6AA7
:10B48800DA010AD5344B3148059302234FF482512F
:10B4980004AA04930FF0A5FD1F202D4B9B6ADB0225
:10B4A8000AD502242D4B29484FF4825104AA05934A
:10B4B80004940FF096FD2046254B9B6A1C030AD581
:10B4C800274B2248059302234FF4825104AA049380
:10B4D8000FF087FD21201E4B9B6A59030AD5214B8B
:10B4E8001A48059302234FF4825104AA04930FF0DB
:10B4F80078FD2220164B9B6A9A030AD51A4B1348EB
:10B50800059302234FF4825104AA04930FF069FDB6
:10B5180023200F4B9B6ADB030AD5144B0B4805937A
:10B5280002234FF4825104AA04930FF05AFD2420F9
:10B53800074A936A6FEA03436FEA1343936206B0BC
:10B5480010BD1D209AE700BF910C02005CF80100B5
:10B5580000ED00E0A90C0200BC0C0200D60C0200B1
:10B56800000D02001E0D0200430D02005D0D0200D9
:10B578002DE9F0478AB07D4B0446D3F804908A46FB
:10B588001646002500AFC9F3080885F31188BFF3F4
:10B598006F8F02F07F43B3F17F4F25D1D30723D4B8
:10B5A800500603D411070FD401250FE0704B4FF458
:10B5B8008251FB6102236F48BB6107F118020FF04B
:10B5C80010FD16F0040600D0544600250023FB7138
:10B5D800A8F10303092B00F2A880DFE803F0079B1A
:10B5E8009E97A6A6A6A6A6A12C46EFE7E9464FF089
:10B5F8000208614B07F11802FB614FF482515D4864
:10B60800C7F818800FF0EDFC0023584EFB71F36A61
:10B618009A070BD5594BC7E906834FF48251554811
:10B6280007F118020FF0DDFC002338E0F36A002B65
:10B6380001DA534BEFE7F36A5B00F5D5514B07F19D
:10B648001802C7E906834FF482514A480FF0C9FC33
:10B658007369A26943F480737361BFF34F8FBFF3BB
:10B668006F8F736932F8022C23F480737361BFF310
:10B678004F8FBFF36F8F4DF602739A4231D188B066
:10B6880023686A4640493B48C2E9051303234FF43F
:10B69800C25142F8103F0FF0A4FCCD462368FA7956
:10B6A800DAB907F1080604F1200C3246206861680F
:10B6B800083403C264451646F7D17A6A002D50D083
:10B6C800C2F3080121B96FEA52226FEA42227A6274
:10B6D800184607F10801FFF7B3FB2837BD46BDE858
:10B6E800F087B36ADBB223B10120F91DFFF760FDD3
:10B6F8000EE0B36A13F47F4F04D00120F91DFFF761
:10B70800F9FD05E0B36AB3F5803F8DD3FFF79CFEE2
:10B718000346C4E70020F91DE8E70020F91DEEE71D
:10B728001A4BFB610223BB6177E7194A6E4619F48D
:10B73800F87F8AB0174B18BF13466A4616490D485A
:10B74800C2E90513A8F11003D3614FF40073138401
:10B75800124B4FF4115142F8103F0FF042FCB5461E
:10B7680062E722F4FF7222F00102B0E700ED00E088
:10B77800B60D02005CF80100D90D0200F00D0200C0
:10B78800110E02001F0E02003E0E02005A0E0200A9
:10B798009D0D0200880D02007E0E020004000001CB
:10B7A800044B5A6942F010025A615A6942F48062A5
:10B7B8005A61704700ED00E0EFF30880EFF309816C
:10B7C80001B57246FFF7D4FE01BD00BF002320215A
:10B7D8000348C2180133452B82F80013F9D170478A
:10B7E80000E100E0002080F31488BFF36F8F002091
:10B7F80080F30A8880F30B88FEF77CF800200E4956
:10B808000860BFF34F8F0D4880F3088800F03EF8BA
:10B81800202080F311880A484FF40061401880F313
:10B828000988EFF314800221084380F31488BFF3DA
:10B838006F8FFFF7B5FB000094ED00E040BF0020DC
:10B8480000B20020BFF34F8F0549064BCA6802F4C7
:10B85800E0621343CB60BFF34F8F00BFFDE700BF2B
:10B8680000ED00E00400FA05002318460649D1F867
:10B878009020C2F30722934200DB7047C1F898304A
:10B88800C1F8A0000133F6E700ED00E010B572B68C
:10B89800002484F31388FFF7E7FF23464FF0FF30B7
:10B8A8000C4A03F120010133102B42F82100F8D192
:10B8B80000234FF0FF30074A03F160010133102BDA
:10B8C80042F82100F8D162B6BFF34F8FBFF36F8FF4
:10B8D80010BD00BF00E100E0084B9B6883420BD11C
:10B8E800EFF3058343B1064B5A6842F080525A6021
:10B8F8005A6A22F400425A620CF0A4B8389B00201D
:10B9080000ED00E01FB5094C094A2346012109480A
:10B9180000F02AF900230393074B0121E41A01A838
:10B928000193029400F02AF904B010BD000007202A
:10B938000080002028FE0100C886002010B50C7A7F
:10B948000B6804F01F0223F01F031A43CB68640935
:10B9580023F01F03054943EA440343F00103C1F8F8
:10B968009800C1F89C20C1F8A03010BD00ED00E09F
:10B9780080B500AF88B06A46074BC2E9053003239B
:10B9880042F8103F00234FF4C2510448FEF7B4FDBB
:10B998006FF01500BD4680BD950E02003CF8010011
:10B9A8002DE9F04F144606464FF0000987B05F4D69
:10B9B80000AF79607B68994535DAD6F80480B8F12C
:10B9C800000F54D0B8F11F0F1BD918F01F0F18D152
:10B9D800D6F800B01BF01F0F13D158460FF006FB26
:10B9E800824608EB0B0001380FF000FB82451FD0A0
:10B9F8006FF0150A6C4688B06A464D49C2E9051AC7
:10BA080005E06C4688B06A464A4BC2E9053903230B
:10BA180042F8103F00234FF4C2514748FEF76CFD2F
:10BA2800A5466FF0150420461C37BD46BDE8F08FCB
:10BA38001AF1160FDED05445DCDDC5F898A0D5F80C
:10BA48009C00C5F898A0D5F8A02020F01F0042F06F
:10BA58001F08D6E900211144904201F1FF3B1ED195
:10BA6800D84508D131465FFA8AF00FF0C8FA09F1D3
:10BA780001090C369EE7C5F898A0D5F89C3021F04E
:10BA88001F0103F01F030B433146C5F89C30E0B299
:10BA98000FF0B5FA10F1160FC3D0441CE7E7013ACE
:10BAA800D845E0B222F01F02C5F898A008D1D5F811
:10BAB800A030314603F01F031343C5F8A030E7E771
:10BAC800D5F8A01001F01F010A43C5F8A02031469F
:10BAD8000FF095FA10F1160FA3D0C5F898A0D5F875
:10BAE8009C203B7C08F1FF3862F304033B74D5F8D3
:10BAF800A0303A7C5B0863F347123A74D6E9003207
:10BB08001344BB6023F01F03441C4344A3EB0B0303
:10BB1800E0B223F01F0307287B6102D9FFF728FF53
:10BB2800B8E707F10801FFF709FFB6E700ED00E005
:10BB3800DE0E0200BB0E02003CF801000522044B99
:10BB4800C3F89420BFF34F8FBFF36F8F704700BFC8
:10BB580000ED00E0BFF35F8F0022024BC3F8942092
:10BB6800704700BF00ED00E010B5034C2278FFF7E6
:10BB780017FF207010BD00BFA49B00202DE9F74FD0
:10BB8800294D8A4606464FF00008AB46274FD04558
:10BB98001BDAD6F80490B9F1000F3FD03168084697
:10BBA80001910FF023FA0199044609EB01000138CD
:10BBB8000FF01CFA84424FF014021D4B08D002FB10
:10BBC80008F36FF015024BF8032003B0BDE8F08FBF
:10BBD80014F1160F2C60F8D01978A142F5DD02FB9C
:10BBE80008B0C7F89840C7F89840D7F89C4000F1CB
:10BBF8000801007B64F304000871D7F8A0000C79F1
:10BC0800400860F347140C71D7F89C1021F01F010D
:10BC18006960D7F8A01021F01F01296108F1010817
:10BC280014350C36B3E700BF6097002000ED00E044
:10BC3800A49B002038B50E4D2C68082C15D8002080
:10BC4800FFF788FF0B4B0C4AC3F8C020844205D18C
:10BC58000A4B00201C70FFF771FF38BD696801EBC3
:10BC68000011FFF76BFE0130F0E74FF0FF30F4E70B
:10BC780034FE010000ED00E0AAFF4400A49B002070
:10BC880008B5024B1B689847002008BD7497002030
:10BC9800034B044A1860937843F00203937070478B
:10BCA80074970020E0810020F0B587B007460E4663
:10BCB80014460021102268461D4613F048FB022353
:10BCC8008DF80230054B2A4621466846CDE90476B0
:10BCD80001930CF09BFA07B0F0BD00BF47B001001C
:10BCE80008B50649064821F00701C1F1005202F5DE
:10BCF800E0220DF099FE002008BD00BF33E10020CE
:10BD080040D30020F8B5144BD3F83021D3F83431A0
:10BD1800072A1CD1023B032B02D8104AD35CB3B1CB
:10BD2800012600244FF050270D4D0520C7F818664E
:10BD3800C5F8144611F006FE3046C5F8146611F031
:10BD480001FEC5F81446C7F818460020F8BD0022C1
:10BD5800034BC3F81426F8E700F00720100F020081
:10BD68000050004008B5044812F0E1FB00280CBF61
:10BD78006FF01200002008BD9CF401000E4B402912
:10BD880028BF402170B51D460C4C4618B04203F13F
:10BD9800020304D1002305F81130074870BD02786A
:10BDA8001209A25C03F8022C10F8012B02F00F0212
:10BDB800A25C03F8012CE9E7C39B0020470F0200AF
:10BDC80030B503788BB0044607AD032B21D8DFE8E4
:10BDD80003F0021A1C1E12492846FCF72BFB059596
:10BDE80063781E210493A3780E4A0393E3780E48E0
:10BDF80002932379019363790093A3790CF040F9B6
:10BE080009480BB030BD0949E6E70949E4E70949A3
:10BE1800E2E70A212846084A0CF032F9DFE700BFBA
:10BE28002C0602004E060200A59B002033060200E5
:10BE38003A06020044060200EF26020030B500244C
:10BE4800094D0A4B85B028460293039412F0A2FDCF
:10BE580002AB284600934FF4A3620A2304490BF06F
:10BE680035FA204605B030BD088F00205F0F02006C
:10BE780090A30020014601480BF09EBA088F0020CD
:10BE8800037830B5012B13D0022B27D07BB90A4693
:10BE9800184B03F1100453F8045BA34242F8045B07
:10BEA800F9D11B78137043884B731B0A8B7330BD11
:10BEB8000A46104B03F1100453F8045BA34242F8FE
:10BEC800045BF9D11B7813704368C3F307224B73E3
:10BED8001B0CCB731B0A8A730B74E8E700F1100381
:10BEE80050F8042B984241F8042BF9D103780B70D1
:10BEF800DDE700BF680F0200012838B505460CBF12
:10BF08000648074811F07FFA044620B101210C3099
:10BF180011F0DBFA2576204638BD00BF14860020D4
:10BF2800908500200246002070B50B460A49D1E8EA
:10BF3800EF4FC1E8E50F002DF9D124B9BDE87040F5
:10BF48000120FFF7D9BF01212082217604F10C00DE
:10BF580011F0BBFA204670BD4081002070B5044640
:10BF68000F2C0D461046194605D80D2C0DD9BDE8E5
:10BF78007040FFF7D7BF132C07D10C4811F043FAD4
:10BF8800044638B90024204670BD02460B4645B128
:10BF98000748F3E701210C3011F097FA01232376C3
:10BFA800F1E70120BDE87040FFF7A6BF98860020A2
:10BFB800E885002070B58EB06C4606460A4D0D2EF9
:10BFC8000FCD0FC40FCD0FC40FCD0FC495E80300DC
:10BFD80084E803009DBF0EAB03EB860656F8380CC9
:10BFE80002480EB070BD00BFD8F80100810F0200F2
:10BFF80038B5C368B3F801401B786BB90F212046E8
:10C0080003F0B8F8054640B9084B1A8822B96FEA18
:10C0180004506FEA1050188038BD012102F0A8FFC3
:10C028002846BDE838400FF032BC00BF709B0020A6
:10C0380010B5084C0146052294F86F0003F036FA53
:10C0480038B994F86F000422BDE81040024903F0A3
:10C058002DBA10BD008000202D0F020080B5C368E6
:10C0680000AF88B06A461B7806490748C2E905133D
:10C0780003234FF4C45142F8103F0FF0C1F8BD46F6
:10C0880080BD00BF890F0200BCF701007FB5064BD9
:10C098004FF4825105930223044804AA04930FF035
:10C0A800AFF807B05DF804FBB10F0200BCF7010060
:10C0B80098B5014600AF0D4811F0ACF90C490D4890
:10C0C80012F057FC00280EDA6C4688B06A460A4B14
:10C0D8004FF4C251C2E905300323084842F8103F23
:10C0E8000FF08EF8A546BD4698BD00BF44810020DC
:10C0F8002C82002038900020CB0F0200BCF70100F2
:10C108000B46B0B50D8A00AF04462946D868FFF73C
:10C1180035FE8AB06A46094BC2E90750C2E90534C0
:10C1280040F202439384064B4FF43251054842F8DB
:10C13800103F0FF065F8BD46B0BD00BFE80F020024
:10C1480005000001BCF7010080B5012100AF0C30EB
:10C1580011F0F9F988B06A46037806490648C2E939
:10C16800051303234FF4C25142F8103F0FF048F86B
:10C17800BD4680BD0A100200BCF701002DE9F04160
:10C18800C56800AF2E78B6B9B5F801800F214046D2
:10C1980002F0F0FF044688B96C4688B06A460C4B3A
:10C1A8004FF4C251C2E9053803230A4842F8103F48
:10C1B8000FF026F8A546BD46BDE8F081EB7831467C
:10C1C800037302F0D5FE20460FF061FBF3E700BFD2
:10C1D8002C100200BCF70100B0B5C36800AF1C8882
:10C1E8000121204602F0C6FF80B96D4688B06A4634
:10C1F800084B4FF4C251C2E905340323064842F8FC
:10C20800103F0EF0FDFFAD46BD46B0BD0FF03FFB41
:10C21800FAE700BF52100200BCF70100B0B5C368CE
:10C2280000AFB3F801400121204602F0A3FF80B916
:10C238006D4688B06A46084B4FF4C251C2E90534CE
:10C248000323064842F8103F0EF0DAFFAD46BD461C
:10C25800B0BD0FF01CFBFAE752100200BCF701005A
:10C26800B0B5044600AF02EBC303934203D12046A6
:10C27800FFF746FF18E0104610F8085BA54219D1F1
:10C288000B8A5078984211D96D4688B06A460A4997
:10C29800D461C2E9051304234FF40151074842F859
:10C2A800103F0EF0ADFFAD46BD46B0BD0846536821
:10C2B8009847F9E70246D8E776100200BCF7010074
:10C2C8002DE9F0415D4800AF11F0BAF804460028A6
:10C2D8007CD0037E012B7CD0032B40F0A980038AFD
:10C2E800032B0CD84FF40073554A564956480DF0A5
:10C2F800DBFC404080F311884FF0030002DF04218B
:10C3080004F10C0011F01FF94588B0F800802046B0
:10C3180007F0B2FC4D4EC8F30B0326F81030238A01
:10C328009D4213D06E4688B06A464949D561C2E934
:10C33800051304234FF40151464842F8103F0EF00C
:10C348005FFFB546204607F03DFD26E0204607F092
:10C3580093FC0F2136F8100002F00CFF0546A0B937
:10C36800204607F089FC6D4688B036F810306A46DA
:10C378003949C2E9051303234FF4C251354842F83D
:10C38800103F0EF03DFFAD46DCE721464FEA18327C
:10C3980002F08AFC28460FF07AFA304BD3F8443181
:10C3A800A3B12F492F4812F0E4FA00280EDA6C46A0
:10C3B80088B06A462C4B4FF4C251C2E905300323BA
:10C3C800244842F8103F0EF01BFFA546BD46BDE8C5
:10C3D800F081038A012B0CD840F65D23184A1949CD
:10C3E80019480DF061FC404080F311884FF00300BC
:10C3F80002DF022104F10C0011F0A5F805460078CF
:10C408000EF0BCFE83070CD440F661230C4A174992
:10C418000D480DF049FC404080F311884FF00300AF
:10C4280002DF06232146124A2878FFF719FF89E719
:10C438006D4688B06A460F499BE700BF44810020DB
:10C4480098100200CC100200E5100200729B002038
:10C4580002110200BCF70100261102000080002032
:10C468002C82002038900020CB0F020048110200D7
:10C47800F4FE01007611020010B5012104460C30CB
:10C4880011F061F82146BDE810400A23014A0078FE
:10C49800FFF7E6BE24FF0100F8B5C5680121B5F82D
:10C4A800016000AF304602F065FE044680B96C4674
:10C4B80088B06A46104B4FF4C251C2E905360323CF
:10C4C8000E4842F8103F0EF09BFEA546BD46F8BD4B
:10C4D8002B783BB9D5F80330C0F8AD30D5F8073024
:10C4E800C0F8B1304FF40051201D0EF072FE204606
:10C4F8000FF0CDF9EAE700BF52100200BCF70100C7
:10C508002DE9F843064600AF907A8846144607F0AE
:10C51800ABFB414D854218D0A47AE846204607F087
:10C52800A3FB8AB06A463D4BC2E90740C2E905361B
:10C53800062355624FF44251394842F8103F0EF035
:10C548005FFEC546BD46BDE8F883204607F094FB6C
:10C558004FF00C09334D09FB00504388B34216D005
:10C56800204607F089FB09FB00506C4688B06A46F4
:10C578004388D36104232C492948C2E905164FF49E
:10C58800025142F8103F0EF03BFEA546DAE7274E6F
:10C59800D6F8400120B107F015FC0023C6F8403159
:10C5A800204607F069FB0C2606FB00504368ABB138
:10C5B800B8F1000F12D1204607F05EFB012106FBFF
:10C5C80000504268D2E90003127A03F01F06B14016
:10C5D8005B09DAB100EB83000EF0FBFD204607F0A3
:10C5E8004BFB0C2606FB00508368002BAAD0204684
:10C5F80007F042FB704305F80080204607F03CFB3B
:10C6080006FB0055A8680AF0DFFC9BE7C94300EB6E
:10C6180083000EF0F8FDE1E76C8600208A11020025
:10C62800BCF7010078970020BF11020000800020AD
:10C6380038B5042104460C3010F085FF45780178A0
:10C6480022464088FFF75CFF25B1BDE83840024824
:10C658000AF0BABC38BD00BF2881002038B50321D4
:10C6680004460C3010F06FFFE3680578224619780D
:10C67800B0F80100FFF744FF25B1BDE83840024893
:10C688000AF0A2BC38BD00BF288100202DE9F04F78
:10C6980087B00123D0F80C80018A98F8004000AFD9
:10C6A80003EB84038B4240F28D806D468AB06A4664
:10C6B800C2E90731052346484FF42151C2E9050470
:10C6C800444842F8103F0EF09BFDAD461C37BD466E
:10C6D800BDE8F08F6C4688B06A463F4B4FF4C251B4
:10C6E800C2E9053B03233B4842F8103F0EF088FDA2
:10C6F800A546013598F800309D42E7DA08EB850336
:10C70800B3F801B00F215846B3F8036002F032FDC8
:10C7180004460028DED000F1280B46B34FF0200372
:10C72800EFF3118283F31288BFF36F8FE3696BB164
:10C73800013BE36182F31188BFF36F8F204602F05B
:10C7480079FA013E0AF040FCB6B2E6E7636993B9AC
:10C7580082F31188BFF36F8F02234FF482511D4873
:10C7680007F11002C7F814A03B610EF049FD2046FE
:10C778000FF08DF8BDE7A16918688B42606108BFAA
:10C78800A06182F31188BFF36F8F4FF02002EFF39F
:10C79800118182F31288BFF36F8FDA68E261C3F800
:10C7A8000C90C3F80090626A4AB9C4E9083381F36F
:10C7B8001188BFF36F8F58460AF082FDBEE71360F9
:10C7C8006362F4E70025DFF814A0A94692E700BFEA
:10C7D800F2110200BCF701001C120200381202001C
:10C7E800F0B583B0C5680121B5F8016000AF3046E7
:10C7F80002F0C0FC044688B96C4688B06A462C4BE7
:10C808004FF4C251C2E9053603232A4842F8103FC3
:10C818000EF0F6FCA5460C37BD46F0BD2B78061D7C
:10C828001A2B17D1C378012B28D14FF480613046D9
:10C838000EF0CFFC42050DD4D4F8A03039463B6049
:10C84800D4F8A83020467B6003F00EF920460FF09C
:10C858001EF8E0E72B788BB9B5F80330A4F89E30C2
:10C86800B5F80530A4F8A430B5F80730A4F8A63018
:10C878006FF4807130460EF0C6FC14E0D6E8AF3F86
:10C88800DB05F5D52B78202BF2D194F8AC30002BB2
:10C89800EED0013B84F8AC304FF42032002304F191
:10C8A80058000AF0B3FD204602F0CAFCCEE700BFEC
:10C8B80052100200BCF7010010B5C1E900239DF831
:10C8C80008300C460B7207F0D7F90C22024B02FB1A
:10C8D80000335C6010BD00BF789700202DE9F04759
:10C8E8004FF0FF324FF0FF33064617480F4610F05F
:10C8F8008AFD4FF00008044600F10C0A0121504659
:10C9080010F0E3FD204684F8188007F0B5F94FF0E1
:10C918000C090E4D09FB00504680204607F0ACF983
:10C9280009FB0050C0F80880204607F0A5F909FB6C
:10C93800005503215046C5F8048010F0CAFD068052
:10C9480087702046BDE8F0876C8600207897002025
:10C958002DE9F04387B0804615460C4600AF21B953
:10C96800FFF7BCFF044600285DD0012200213846AD
:10C9780011F04FFF204607F07FF90C23DFF8B49041
:10C9880003FB00908760204610F073FD01462A489B
:10C9980010F06DFD4FF4A022002338460AF03AFB50
:10C9A800064688B14FF4A973244A254925480DF055
:10C9B8007BF93246414624480DF076F9404080F331
:10C9C80011884FF0030002DF204607F055F90C23C9
:10C9D800584319F80060F6B16D4688B06A461B4B9B
:10C9E800D661C2E9053804234FF40251184842F8C9
:10C9F800103F0EF005FC2046AD4607F0E3F9092E7E
:10CA080014D00D2E0CBF6FF00B006FF004001C3714
:10CA1800BD46BDE8F08315B12C600020F7E720463D
:10CA280007F0D0F9F9E76FF06800F0E76FF06E00F3
:10CA3800EDE700BF789700204C8100209810020095
:10CA48004F120200E5100200581202008412020080
:10CA5800BCF7010070B588B006460D4642F22F00BB
:10CA6800002101AAFFF774FF044660B10B4B4FF495
:10CA78008251079302230A4806AA06930EF0C0FBC8
:10CA8800204608B070BD0198C368B3F80120328011
:10CA9800B3F803302B8007F095F9F1E7A0120200F4
:10CAA800BCF70100F7B5144B054693F99B300C46CB
:10CAB800002B1DDA14B9204603B0F0BD082C4FF046
:10CAC800000142F2180001AA264628BF0826FFF7EF
:10CAD8003FFF0028F0D1019F3246F968284601310E
:10CAE80012F028FC384607F06DF93544A41BE1E73D
:10CAF8006FF08500E0E700BF008000202DE9F047D7
:10CB08008CB005460026A94BB0F80180198848F476
:10CB18007042914202AF04BF1E80012601F034F832
:10CB28002C78A4B33C2C22D101F046FB6FF0800195
:10CB380010300EF068FB0020FFF77AFA054670B94E
:10CB48009B4B4FF482517B6202239A483B6207F168
:10CB580020020EF055FB2837BD46BDE8F087047368
:10CB6800002102F005FA28460EF091FEF3E76D4623
:10CB780088B002AA904B4FF4C451C2E9053403238C
:10CB88008C4842F8103F0EF03BFBAD46E3E7EB78EC
:10CB980005F10409012B08BF884B484608BF93F8E4
:10CBA8006F400EF0E7FA494640B307F110000EF067
:10CBB800D6FA05F1110107F109000EF015FB012362
:10CBC8003B72EB78012B27D04846FFF7F9F86C4603
:10CBD80088B002AA7A4B4FF4E251C2E905304FF40B
:10CBE80000739383774B734842F8103F0EF008FBAD
:10CBF8001321A54640460EF01EFBACE720460EF07A
:10CC080081FC014607F110000EF0F3FA494607F1DE
:10CC180008000EF0EEFAD4E707F11000FFF708FA63
:10CC2800EB780446012B0AD101F0C6FA82466FF070
:10CC3800800110300EF0E7FA50460EF082FD002C0D
:10CC4800C2D020460022B5F8013007F1100120F8C3
:10CC5800883B0EF0CEFAB5F81730A4F89E30B5F838
:10CC68001930A4F8A430B5F81B30A4F8A630EB7836
:10CC78002273012BE37016D107F1080104F18F002C
:10CC88000EF0B7FA01F098FA217A4C4AC1EBC101CB
:10CC9800114404F196000EF0ACFAD2F8E4305D06C7
:10CCA80001D501F049FC0721204602F061F91EB1C7
:10CCB8000121204602F05CF920460EF01EFE637B3F
:10CCC800072B6ED1231DD3E8AF3F13F4005F3B4D14
:10CCD80029D1E3781BB195F8D830180723D502215C
:10CCE80042F21600FFF7FAFD064600285BD0022143
:10CCF8000C3010F0EEFB238800220380314642F20C
:10CD08001600FFF725FE70B16E4688B002AA2E4BBA
:10CD18004FF4C251C2E905300323264842F8103FB8
:10CD28000EF06EFAB54695F8D930D90716D5002118
:10CD3800022320461A4600910EF0B6FA70B16E46EC
:10CD480088B002AA214B4FF4C251C2E9053003232F
:10CD5800184842F8103F0EF053FAB54695F8D83007
:10CD68009A061ED5D5F864319B689B0719D5B91D5D
:10CD7800381DFFF76FFEA0B92046FA88B9880EF073
:10CD880075FA70B16D4688B002AA114B4FF4C251C2
:10CD9800C2E905300323074842F8103F0EF030FA85
:10CDA800AD462046E0E66FF06800ADE7709B0020D6
:10CDB800C0120200BCF70100E1120200008000204E
:10CDC800FA120200030000011613020037130200D2
:10CDD8004E13020000B5C16889B00B7801A88DF820
:10CDE8000030B1F801300431ADF8013011F8013CE0
:10CDF8008DF80330B1F80730ADF81730B1F80930C5
:10CE0800ADF81930B1F80B30ADF81B304B7B8DF80D
:10CE18001D300EF0EEF907490DF10B000EF0E4F9A4
:10CE28000DF111000EF0E0F96846FFF767FE09B052
:10CE38005DF804FB410F020029289ABF014B185CDA
:10CE480009207047D3160200F0B587B0C3680F21D8
:10CE5800B3F8016000AF30461D7802F08BF9044644
:10CE680088B96C4688B06A461E4B4FF4C251C2E975
:10CE7800053603231C4842F8103F0EF0C1F9A546B9
:10CE88001C37BD46F0BD5DB12846FFF7D5FF2946E2
:10CE98000246204602F07CFA20460EF0F8FCEFE746
:10CEA8008378012BF0D106F0F3FC20460EF078F9D8
:10CEB8000028E9D10520FFF7BFFF052102462046DB
:10CEC80002F066FA094B4FF482517B61022306484F
:10CED80007F110023B610EF093F9052120460EF090
:10CEE80015FDD9E72C100200BCF701006A130200F7
:10CEF8002DE9F04186B0C6680F21B6F8018000AF71
:10CF08004046357802F036F9044690B96C4688B048
:10CF18006A46244B4FF4C251C2E90538032322481C
:10CF280042F8103F0EF06CF9A5461837BD46BDE82B
:10CF3800F0815DB12846FFF77FFF2946024620466B
:10CF480002F026FA20460EF0A2FCEEE78278F3788B
:10CF5800012AC37205D00020FFF76EFF00210246A8
:10CF6800EDE70BB106F094FC20460EF019F9002805
:10CF7800F1D10520FFF760FF05210246204602F0A7
:10CF880007FA0A4B4FF482517B610223064807F1E6
:10CF980010023B610EF034F9052120460EF0B6FC74
:10CFA800D0E700BF2C100200BCF701006A13020092
:10CFB800024BD3F864315B69184700BF008000203A
:10CFC800F8B505460C4600AF19B9FFF787FC0446CB
:10CFD80018B340F635439D4219D12046FFF7E8FFC4
:10CFE800054688B16E4688B06A460D4B4FF4C2516B
:10CFF800C2E9053003230B4842F8103F0EF000F950
:10D008002046B54606F0DEFE2846BD46F8BD214658
:10D01800054810F02CFA0025F6E76FF06805F3E7ED
:10D0280090130200BCF701004C8100202DE9F0416B
:10D0380086B000AF044606F01FFE324B33F810509E
:10D04800A07A06F011FE214611F0D5FB2E4B93F87D
:10D058008A309B0614D50F21284602F08BF8044627
:10D0680090B96C4688B06A46284B4FF4C451C2E95F
:10D0780005350323264842F8103F0EF0C1F8A546AF
:10D088001837BD46BDE8F081437B073B012B0ED91D
:10D09800204B4FF484517B6102231D483B6107F10B
:10D0A80010020EF0ADF820460EF0F1FBE8E70EF0A6
:10D0B800EEFB052140F63540FFF710FC044658B951
:10D0C800154B4FF482517B61022311483B6107F1F4
:10D0D80010020EF095F8D3E700F10C080121404644
:10D0E80010F0F7F9012604210670404610F0F1F916
:10D0F800002305808670C370214640F63540FFF74F
:10D108005FFFBDE7729B002000800020B213020081
:10D11800BCF70100DC130200081402002DE9F041FD
:10D128008CB0C4680121268802AF1FFA86F84046F1
:10D1380002F020F8054690B96C4688B002AA2D4B3B
:10D148004FF4C251C2E9053803232B4842F8103F77
:10D158000EF056F8A5462837BD46BDE8F081D4F84C
:10D168000220D4F806300197618900910FF051FF31
:10D1780070B3122142F21A00FFF7B0FB044670B9EF
:10D188001E4B4FF482517B6202231B483B6207F11E
:10D1980020020EF035F828460EF079FBDBE7122165
:10D1A8000C3010F096F903463A4623F8026B07F163
:10D1B800100C164603CE664518605960324603F1D6
:10D1C8000803F6D1214642F21A00FFF7F9FEE2E71A
:10D1D800022142F21B00FFF781FB04460028CFD052
:10D1E80002210C3010F075F92146068042F21B002E
:10D1F800EBE700BF52100200BCF701002B1402003D
:10D20800F0B583B0C36800AFD9789A781E8842EA2F
:10D2180001223A8059791A79B4B242EA01227A8015
:10D22800D9799A79204642EA0122BA801A7A5B7A39
:10D23800012142EA0323FB8001F09CFF0546A8B9BF
:10D248006D4688B06A461E4B4FF4C251C2E9053498
:10D2580003231C4842F8103F0DF0D2FF0221AD46CF
:10D2680020460EF06DF80C37BD46F0BD394602F089
:10D2780027F838B91E2120460EF062F828460EF02D
:10D2880006FBF0E70E2142F22000FFF727FB0446D9
:10D298000028F3D00E210C3010F01BF90023068073
:10D2A800C0F80A303B88214643807B888380BB884E
:10D2B800C380FB88038142F22000FFF781FEDDE78F
:10D2C80052100200BCF701002DE9F04FDFF854813D
:10D2D80087B0DFF8549100AFD8F80C3053486FF39B
:10D2E8009433C8F80C3001F0FBFD451C4FF0FF32B9
:10D2F8004FF0FF3329464B480AF012FE60B140F662
:10D30800DE234A464A494B480CF0CEFC404080F3A5
:10D3180011884FF0030002DF4FF0030A414E15B9A0
:10D328000AF0EEFAD8E7F368C3F38633022B60D924
:10D33800042B68D1337B002B5ED1002200233E48AA
:10D3480010F066F8044660B94FF427634A463B4933
:10D3580038480CF0A9FC404080F311884FF00300D6
:10D3680002DFDFF8DCB04FF0FF334FF0FF32354813
:10D3780009F050FEDBF840318BB1334B4FF482514A
:10D388007B610223314807F110023B610DF038FF41
:10D39800DBF8400106F016FD0023CBF840312046AB
:10D3A80010F067F8CBF840012046FFF701FE00B304
:10D3B800EB4688B06A46264B4FF4C251C2E90530A5
:10D3C8000323224842F8103F0DF01AFFDD461D489E
:10D3D80009F0FAFD204606F04FFC0C221D4B1F21D8
:10D3E80002FB003022464088FFF78AF8204606F004
:10D3F800E9FC1436013D92E7012BFAD1306938383F
:10D4080002F036F9F5E76C4688B06A4612490F48CB
:10D41800C2E905134FF4C45142F810AF0DF0F0FE05
:10D42800A546E6E7F081002098100200048200205B
:10D438004F120200E51002004C8100208C280200E7
:10D44800008000202881002042140200BCF701005F
:10D4580090130200789700205D1402002DE9F04136
:10D46800044600F10C06304610F07DF8B4F8108040
:10D478000546B8F1010F0CD840F685631B4A1C49D4
:10D488001C480CF011FC404080F311884FF0030059
:10D4980002DF3046022110F056F8074600780DF0FA
:10D4A8006DFEC20706460CD440F689630F4A12493E
:10D4B80010480CF0F9FB404080F311884FF003004E
:10D4C80002DF052321460D4A3878FEF7C9FEB30767
:10D4D80007D56369A4F8108013FA85F5E560BDE8FF
:10D4E800F0812046BDE8F04106F06CBC98100200BF
:10D4F800CC100200E51002007E140200CCFE0100F0
:10D50800B0B5037E0446012B00AF06D0032B12D121
:10D51800FEF7CEFD0020BD46B0BDC36818780DF0FB
:10D528002DFEC207054602D52046FFF797FFAB0739
:10D53800F0D52046ECE76D4688B06A4608490948A8
:10D54800C2E9051303234FF4C25142F8103F0DF00E
:10D5580057FE2046AD4606F035FC6FF01500DAE7B9
:10D5680097140200BCF70100084A0346D2F8640188
:10D5780030B9D96839B1596929B1C2F864317047ED
:10D588006FF0770070476FF015007047008000203B
:10D598002DE9F84F3D4C00AF04213D480DF019FE30
:10D5A8003C4DE2793C4B2046012A88BF1D466E4619
:10D5B800FEF706FC8AB06A46384BA346C2E9053531
:10D5C8000125374BD0611362364B4FF4235136484F
:10D5D80042F8103F0DF014FEDFF8D080B546DFF8B2
:10D5E800C890334EE3790BF1070B9D4238DB94F872
:10D5F80070506E462846FEF7DDFC8CB06A46B4F8DB
:10D608007210B4F87630C2E907514FF400755362CE
:10D61800DFF8A0C0284BC2E905C015854FF4535167
:10D6280042F8103F20480DF0EBFDB54694F87160C4
:10D638003046FEF7BFFC8AB06A46B4F874301F491A
:10D64800C2E907631E4BC2E9051095844FF43351B4
:10D65800154842F8103F0DF0D3FDBD46BDE8F88FE0
:10D668005846FEF7ADFBEA468AB06A4640F20133F7
:10D67800C2E90565D06113844FF41351484642F856
:10D68800108F0DF0BDFD0135D546ABE700800020B9
:10D69800D4800020A02D0200AB140200AF140200B9
:10D6A8000002010304000002BCF7010004000001AD
:10D6B800BE140200CF140200060000010D1502007E
:10D6C8000500000110B5FAF7C7FE034B1B6813B13C
:10D6D800BDE81040184710BDF0970020F0B58FB096
:10D6E8003B4D0646D5F8643108AF83B9394B6FF026
:10D6F80012047B6102234FF48251374807F110026C
:10D708003B610DF07DFD20461C37BD46F0BD6FF036
:10D71800020105F1D4000DF076FD01210DF059FD4F
:10D7280010EA010450D12D4B1E600A4605F594708D
:10D7380011F06FF805F5A67011F046F800220023E5
:10D74800CDE906236FF008034FF48062CDE9024368
:10D75800CDE90044224B23490494234809F0C2FA36
:10D768002249214810F09CFF214811F013F96FF06D
:10D7780007034FF496621F491D48009409F0A6FD5F
:10D788001D491B4810F08CFFD5F86431DB689847B9
:10D79800044678B16D4688B02A46184B4FF4C251FA
:10D7A800C5E9053003230C4842F8103F0DF028FD69
:10D7B800AD46A8E71EB9FAF74FFE0446A3E705F100
:10D7C800C40009F07DFD9EE76FF077049BE700BF7A
:10D7D800008000207D160200BCF70100F0970020B1
:10D7E800D1D20000A8A80020B08F00209616020011
:10D7F80038900020A8AC00209C160200A216020057
:10D80800024BD3E8AF0FC0F380007047D4800020EC
:10D8180000487047BE160200F8B506460024094DB8
:10D82800EF79E3B29F4202D86FF0010007E0294682
:10D8380030460DF0ACFD0735631C08B12046F8BD35
:10D848001C46EEE70080002037B504460D4671B14E
:10D85800284612490DF09BFD48B929461048C4EBEB
:10D86800C40420440DF0A0FD002003B030BD68467C
:10D878000DF067FC0028F8D16846FFF7CDFF0028B7
:10D88800F5DA074BC4EBC400694618440DF08CFD6B
:10D89800002DE9D001462846E4E700BF340F020016
:10D8A800008000200021F0B50622044687B0084613
:10D8B80001F0FCFD064688B1494BD3E8EF1F41F45F
:10D8C8000041C3E8E21F002AF7D1237A43F001039D
:10D8D800237207B0BDE8F0400DF0D9BF414D0146B5
:10D8E800414800F063FC95F8213173B130460DF0E2
:10D8F800A1FD50B13D4B059302234FF4845104938D
:10D9080004AA3B480DF093FD26E095F8212195F8EF
:10D9180020319A422AD10226364B4FF4845134489A
:10D9280004AA059304960DF082FD002242F2290014
:10D938001146FFF70DF830B12F4BCDE904634FF4D2
:10D94800825104AADDE795F82131013385F82131A8
:10D95800237A43F00403237201200DF06BFD0021AC
:10D96800264807B0BDE8F04000F020BC2246671CFE
:10D97800394612F82A0B0DF01EFD064620B1204B41
:10D98800059302230493DAE795F82131013385F8EA
:10D998002131237A43F00403237295F8A7305B07FB
:10D9A80001D4184BA7E7394668460DF0FDFC012362
:10D9B800082142F24E008DF80730FEF78FFF04462B
:10D9C80060B1082269460C300FF089FD32462146C5
:10D9D80042F24E00FEF7BCFF0028BDD00A4BCFE74D
:10D9E800D480002000800020E9B40100F017020074
:10D9F800D4F7010015180200461802006DB40100A2
:10DA08006618020086180200B018020038B506220F
:10DA18001149054611F032FBC8B1062142F2050052
:10DA2800FEF75CFF0446A0B1062229460C300FF031
:10DA380056FD0022214642F20500FEF789FF38B95B
:10DA4800054829460DF0ABFC012300F8013C0020F5
:10DA580038BD6FF06800FBE76980002000212DE9E0
:10DA6800F04387B004460622084600AF01F01EFDC9
:10DA7800054690B13C4BD3E8EF1F41F40041C3E8A1
:10DA8800E21F002AF7D1237A43F0020323720DF034
:10DA9800FEFE1C37BD46BDE8F0830146334800F062
:10DAA80085FB28460DF0C6FC314D0646D0B16C46C4
:10DAB80088B06B462F4A4FF4C251C3E905201A4675
:10DAC80003232D4842F8103F0DF0B1FCA54695F808
