:1080000048BF002035BA0000B1BE010009BA000027
:1080100009BA000009BA000009BA000009BA000054
:10802000000000000000000000000000CDB20000D1
:1080300009BA0000000000005DB2000009BA0000AB
:1080400061B3000061B3000061B3000061B30000E0
:1080500061B3000061B3000061B3000061B30000D0
:1080600061B3000061B3000061B3000061B30000C0
:1080700061B3000061B3000061B3000061B30000B0
:1080800061B3000061B3000061B3000061B30000A0
:1080900061B3000061B3000061B3000061B3000090
:1080A00061B3000061B3000061B3000061B3000080
:1080B00061B3000061B3000061B3000061B3000070
:1080C00061B3000061B3000061B3000061B3000060
:1080D00061B3000061B3000061B3000061B3000050
:1080E00061B3000061B3000061B3000061B3000040
:1080F00061B3000061B3000061B3000061B3000030
:1081000061B3000061B3000061B3000061B300001F
:1081100061B3000061B3000061B3000061B300000F
:1081200061B3000061B3000061B3000061B30000FF
:1081300061B3000061B3000061B3000061B30000EF
:1081400061B3000061B3000061B3000061B30000DF
:0481500061B3000017
:04815400FFFFFFFF2B
:1081580053B94AB9002908BF00281CBF4FF0FF31A6
:108168004FF0FF3000F00CB8ADF1080C6DE904CE0B
:1081780000F008F8DDF804E0DDE9022304B07047F8
:10818800704700BF2DE9F04786468C460846089E92
:10819800154674461946002B40F0C1808542B2FA54
:1081A80082F245D94AB1C2F1200300FA02FC954097
:1081B80094402EFA03F343EA0C0C4FEA154EA8B28A
:1081C800230CBCFBFEF80EFB18CC08FB00F943EAB5
:1081D8000C43994528D9EB1808F1FF3704D2994583
:1081E80002D9A8F102072B44A3EB0903A4B2B3FBFD
:1081F800FEFC0EFB1C330CFB00F044EA0344A042D7
:1082080014D92C190CF1FF3304D2A04202D9ACF1D5
:1082180002032C44241A43EA07401EB1D440002329
:1082280034607360BDE8F0874746DDE76346F1E7F1
:1082380092BB431B01214FEA154EAFB2200CB3FB92
:10824800FEFC0EFB1C330CFB07F840EA0343984581
:1082580061D9EB180CF1FF3004D2984502D9ACF182
:1082680002002B44A3EB0803A4B2B3FBFEFC0EFBF5
:108278001C330CFB07F744EA0344A7424DD92C19D9
:108288000CF1FF3304D2A74202D9ACF102032C440B
:10829800E41B43EA0040C0E7C2F120039540944044
:1082A80020FA03F12EFA03F34FEA154E9040AFB2CD
:1082B8000343B1FBFEFC0EFB1C10190C0CFB07F86A
:1082C80041EA0041884522D969180CF1FF3004D2EF
:1082D800884502D9ACF102002944A1EB08019BB200
:1082E800B1FBFEFC0EFB1C110CFB07F743EA014334
:1082F8009F420ED9EB180CF1FF3104D29F4202D9EC
:10830800ACF102012B44DB1B41EA004193E76046D4
:10831800E3E76146F7E76046A4E76346B8E78342C8
:1083280006D916B9002108467CE7C6E900E0F9E756
:10833800B3FA83F78FB9834201D3724508D8BEEBED
:10834800020460EB030301209C461EB9002169E783
:108358003846FAE7C6E9004CF8E7C7F1200CBB40FD
:108368000EFA07F522FA0CF42EFA0CF1BA401C4367
:1083780020FA0CF3B8404FEA144901431FFA84FE6F
:10838800B3FBF9F809FB18300B0C08FB0EFA43EAAB
:1083980000439A4540D9E31808F1FF3004D29A45C2
:1083A80002D9A8F102002344A3EB0A0389B2B3FB64
:1083B800F9F809FB183308FB0EFE41EA03418E4524
:1083C8002CD9611808F1FF3304D28E4502D9A8F1DF
:1083D8000203214443EA0040A1EB0E01A0FB0298EE
:1083E8004145CE46434602D306D14D4504D2013815
:1083F800B9EB020E68EB0403002EA7D0B5EB0E0212
:1084080061EB030101FA0CFC22FA07F3F9404CEA8C
:108418000303C6E9003199E74046C5E74346D9E773
:1084280010F8012B11F8013B012A28BF9A42F7D016
:10843800D01A7047034611F8012B03F8012B002AC4
:10844800F9D17047034613F8012B002AFBD1181AFB
:108458000138704700000000F0B589B0684D00AFE2
:10846800D5F86431996811F001011DD140F6034037
:108478003A1D04F0ADFB0446002840F0BD807C683E
:10848800E3681B786BB905F09FFF05F1D403D3E8C7
:10849800AF2F02F00902D3E8EF1FC3E8E02F00284E
:1084A800F9D120460CF0BAFB002141F203003A1D35
:1084B80004F08EFB0446002840F09E807B68514EF5
:1084C800DA68D2F80100D2F8051003C618460CF095
:1084D800A5FB214641F201003A1D04F079FB044650
:1084E800002840F089807868C3685A7885F8702039
:1084F8005A88A5F872201A7985F87120B3F80720F0
:10850800A5F87420B3F80530A5F876300CF086FB92
:10851800214641F202003A1D04F05AFB04460028A5
:108528006AD1D7F804C0DCF80C20531C4132344619
:1085380018685968083303C493422646F7D1604641
:108548000CF06CFB06F042F90446002854D195F86B
:108558008A3099061CD42C4B4FF48451FB610223BA
:108568002A48BB6107F1180213F0B8FD95F87C3072
:108578005A064FD4264B4FF48251FB6102232348FD
:10858800BB6107F1180213F0A9FD6FF0120433E084
:10859800072140F6334004F0E1FA0646002800F0CF
:1085A800468107210C3016F040F845230370062356
:1085B800C0F802408471447004712246C370314689
:1085C80040F6334004F004FB0446A8B9012140F604
:1085D800314004F0C3FA0646002800F02881012142
:1085E8000C3016F031F82246314640F6314004F09E
:1085F800EFFA04460028B9D020462437BD46F0BD1E
:1086080000800020788000208C2702001C090200CE
:10861800BA270200002142F2030007F1080204F021
:10862800D7FA04460028E7D1BB68AB4EDA68D2F81F
:108638000100D2F8051003C618460CF0EFFA2146DF
:1086480042F2020007F1080204F0C2FA04460028C8
:10865800D2D1BC68E368B3F8012091B249B1D978A6
:1086680039B1A5F80421DA78114606F1280017F087
:1086780084F920460CF0D2FA95F87C6016F02006B2
:1086880018D1022140F66D4004F068FA044600282B
:1086980000F0CD8002210C3015F0C7FF01232146E0
:1086A80003704670324640F66D4004F091FA044675
:1086B8000028A1D195F89C301B0713D5002142F260
:1086C8001C0007F1080204F083FA0446002893D13D
:1086D800B868C368D3F80120D3F80530C5E9382352
:1086E8000CF09CFA95F8D8309E0622D5391DB81C96
:1086F80004F0F0FA044600287FF47EAF042142F229
:10870800240004F02BFA0646002800F0908004218B
:108718000C3015F08AFF7B8822460380BB883146DF
:10872800438042F2240004F053FA044600287FF400
:1087380063AF95F8D8305C0611D5002142F22A00C3
:1087480007F1080204F044FA044600287FF454AF05
:10875800B868C3685B7885F820310CF05FFA0821A7
:1087680042F2010004F0FAF9044600285FD008211B
:108778000C3015F05AFF95F8D81040F2022311F08A
:10878800400F08BF0323024688074CBF43F02C0064
:1087980043F00C008B0695F8D93048BF40F04000F4
:1087A80013F0090F95F8A23018BF40F4006003F0E9
:1087B8000603CE0748BF40F01000062B08BF40F460
:1087C800C070002113F095FC2146002242F20100FE
:1087D80004F0FEF9044600287FF40EAF95F87C30CB
:1087E800B5F80411980625D4D1B941F2050007F16E
:1087F800080204F0EDF9044600287FF4FDAEB5F850
:108808000431BC684BB9E368B3F80120A5F804212A
:108818009A883248114617F0B0F820460CF0FEF955
:10882800082140F6014004F099F9044690B96FF028
:108838006804E1E60029F3D1294B4FF48251FB612A
:1088480002232848BB6107F1180213F047FC6FF0B8
:108858000404D1E608210C3015F0E7FE95F8D8306D
:108868000246D9072FD44FF000511F4813F041FC9E
:108878002146002240F6014004F0AAF904460028E7
:108888007FF4BAAE01463A1D4FF6014004F0A0F954
:1088980070B3164BFB6102234FF484511148BB613E
:1088A80007F1180213F01AFC05F0E2FC0446002850
:1088B8007FF4A2AE07F00AF9044600287FF49CAEC4
:1088C80005F01CF898E602A1D1E90001CEE700BF47
:1088D8009088000200800020D880002008810020B5
:1088E800DE2702001C09020010880002012802008D
:1088F8007B686D46DC688AB0B4F80130032B96BFFC
:10890800424A434952F823106A46D3614FF4007330
:1089180040481384404BC2E9050142F8103F4FF428
:1089280013513E4813F0DAFBB4F80120AD46022A91
:10893800B4F8033048D1032B46D8394A52F82310EB
:108948006D468AB06A46D3614FF400733548138484
:10895800314BC2E9050142F8103F4FF413512F483B
:1089680013F0BCFBAD466379A679032B98BF2E4A5A
:10897800B4F80750D4F809006C468CB094BF52F88C
:10898800231023496A46C2E907364FF40073DFF81B
:108998009CC09385264BC2E905C1C2E909504FF432
:1089A800735142F8103F1D4813F098FBA5467868AC
:1089B8000CF034F900214FF602403A1D04F008F992
:1089C800044618B11B4B65E71149B9E778681A4D99
:1089D800C368B3F80130A5F8C1300CF01FF995F859
:1089E800C1305B077FF560AF21464FF603403A1D63
:1089F80004F0EEF808B1114B4CE77868C3685B786F
:108A080085F8C0300CF00AF94EE700BF1C100200D0
:108A1800DC21020025280200040000011C090200D4
:108A28000C1002003E280200FC0F0200562802002B
:108A3800070000018328020000800020AC28020003
:108A480093680248197811F0FBBC00BF2816020091
:108A58007FB51422002101A817F02DFD01238DF800
:108A68000430044B044901A8039305F0EFFD07B057
:108A78005DF804FB60003000958D00002DE9F0439F
:108A8800054642780F4689B00178254811F0D8FC90
:108A98002B78023B012B06D86C7814F0010439D0EE
:108AA800204811F0CDFC012031E06B6831461B5B9A
:108AB80001A88DF80480ADF806308DF81080ADF867
:108AC800129013F05EFA30B905F034FE014638B161
:108AD800154811F0B5FC02346B789C42E5DBE2E7FF
:108AE800124C94E80F0086E80F002069616902AB18
:108AF80003C302AA314638460D4B06F0E1FD014694
:108B080020B10C4811F09CFCFFF7A2FF002009B02F
:108B1800BDE8F083A04641F61C0904AEDCE700BFBF
:108B28003A160200501602005E160200000A020001
:108B38000C9700207C160200022902D1034811F08C
:108B48007FBC01290CBF02480248F8E79F160200C3
:108B5800C5160200ED1602002DE9F0410D461E462D
:108B6800144632B90E4811F06BFC2046AC81BDE8C2
:108B7800F0810C4811F064FC00250B4FDFF82C80C5
:108B8800B54204DB0A4811F05BFC0120EFE7615DA8
:108B9800404607F8011B11F053FC0135F0E700BF10
:108BA8002817020038170200148400204917020011
:108BB8003F400200F0B5064615460C4685B051B94F
:108BC800374811F03DFC14222146284617F073FC63
:108BD800002005B0F0BD098A324811F031FC0027A9
:108BE80041F61C03304D01A92868ADF806308DF810
:108BF800047013F0C6F942F65723B8B9ADF80E3031
:108C08008DF80C00294B039A2B601A60238A0133D4
:108C18002B8103232B742946304609F0BFF90146FE
:108C28000028D5D0224811F00BFCD1E7286802A90A
:108C38008DF80870ADF80A3013F0A3F91D4FD0B9BC
:108C480042F602138DF80C00ADF80E30039A174B5C
:108C580020461A602B60238A02332B8104232B744D
:108C680014F070FEB881204614F06CFE01461248DC
:108C780011F0E6FBCFE7114B39463B6002233B82FC
:108C8800238A3046FB8109F0FDFD014620B110F131
:108C9800780F01D00A48C6E70A4811F0D1FB97E7D8
:108CA8004D17020060170200F8960020789B0020FC
:108CB80077170200DC96002091170200618B0000F4
:108CC800A0170200BB17020070B503788AB00446EB
:108CD8000E4607AD032B20D8DFE803F002191B1D51
:108CE80011492846FFF7A6FB059563781E210493D2
:108CF800A37830460393E3780C4A029323790193CF
:108D080063790093A37910F029F90AB070BD084976
:108D1800E7E70849E5E70849E3E70A212846074A5B
:108D280010F01CF9E0E700BFC9170200EB170200BA
:108D3800D0170200D7170200E1170200F539020028
:108D480030B50D46044689B013F016FD6946FFF7A5
:108D5800BBFF2A460A4D0B48694611F071FB28688B
:108D6800A0420AD113F02FFC00232B60FFF770FEFE
:108D7800014610B1044811F063FB09B030BD00BFD3
:108D88000C9700200E18020030180200F0B511F1FF
:108D9800270F07460E4615461C468BB010DB02A966
:108DA800FFF792FF00962A46A388064802A911F009
:108DB80047FB012D04D83A462046034903F01EFA22
:108DC8000BB0F0BD53180200858A000070B50C4640
:108DD8008AB0054613F0D0FC02A9FFF775FF1A4EBA
:108DE8006CB12246194802A911F02AFB306813F029
:108DF800EAFB00233360FFF72BFE0AB070BD14486E
:108E080002A911F01DFB3068124BA8421D60F4D175
:108E180041F61C038DF80440ADF806300E490F4B9F
:108E2800019A0B601A600E4B0C744B6001230B8186
:108E38004FF6FF73CB8109F0B1F801460028DCD06A
:108E4800084811F0FDFAD8E70C9700208A180200AC
:108E5800A8180200C8960020F8960020789B0020E9
:108E6800BD8B0000B7180200002038B504F0F0FDF3
:108E7800014620B11B4811F0E3FA002038BD1A481A
:108E880011F0DEFAFFF7E4FD014608B11748F2E7F2
:108E9800174811F0D5FA174C174D2068D0B113F0C8
:108EA8005BFB2B78154901332B70154B20680B6041
:108EB800144B9B898B800023CB80134B8B60012341
:108EC8008B8109F04DFC58B9104811F0B9FA2068A7
:108ED80013F079FB00214FF420300FF001FDDCE79F
:108EE8000B48F2E7D0180200F01802003018020010
:108EF80007190200C896002015840020CC9600208F
:108F0800498A0000DC9600201484002026190200FB
:108F1800381902002DE9F04F91B0009302F00403D4
:108F28000293C2F3C2030133840705460E46DDF8F7
:108F380068900392059340F0BB81041D30B1072966
:108F480009D86FF01B0011B0BDE8F08F01F00706DB
:108F5800341DC6F10806009B4FF000084FF0040AC4
:108F6800591E4FF0FF3347460193C3465346CDF889
:108F780010800DB1009A22600598002800F3E8805F
:108F88009848009A824203D397488242C0F0E08012
:108F9800039AA4EB050E92074FEA9E0000F10381A5
:108FA8000F2F00F2B180002D00F0058107F140027B
:108FB8000DEB020C019A0CF8200C0CF8102C0498FC
:108FC80001300490E7E07A285DD84B280ED847286E
:108FD80059D829282DD8252852D054D820287AD0D5
:108FE8002338D0F1000B4BEB000B74E04C382E28E3
:108FF80049D8DFE800F07048484848484848484899
:1090080048484B484848484848484859484B4B59AD
:109018005959704B6D487048184B184848827F4B17
:1090280048484B487F0000204FF0000B4FF0040ADF
:1090380038E001222A38C0B202FA00F010EA0E0F16
:1090480049D110F0625C2FD110EA020B43D0604680
:10905800013C5444B4FBFAF40AFB04F4002D61D03B
:10906800A3EB050CA4446645FFF46BAF002868D158
:10907800042B47D159F8043B2360042304342AE025
:10908800019A013A01924FF0000B24E011F8010C0B
:109098006C2834D1002011F8023C83466C2BC5D1D2
:1090A8004FF0080A5346D3E709F1070929F00709E1
:1090B800073424F00704F9E802AB35B106982044D8
:1090C800B0423FF63EAFC4E900AB4FF0000B0834A6
:1090D8004FF0080A534611F8010F002878D0BBF169
:1090E800000F7FF470AF2528F5D14FF0010B019BDD
:1090F800013301934FF0040AECE7584694E7002047
:109108008346A5E7082B02D06FF015001BE709F18D
:10911800070929F00709F9E80223C4E9002308230D
:109128000834D8E768B9042B02D109F10409A4E787
:10913800082BE9D109F1070929F0070909F10809FC
:10914800EDE7059A013A059259F8042B009210E7C9
:10915800039A900720D54FF0010CA4EB050E4FEAB7
:109168009E00BEF5007FCFD20F2FCDD8F5B107F105
:1091780040020DEB020E019AC0B20EF8200C0EF858
:10918800102CBCF1000F3FF41AAF60F07F000EF80E
:10919800200C08F101080137C5F108024FF6DA7E04
:1091A8000434069297E74FF0000CDAE7BCF1000FA1
:1091B80001D00136EFE7029802360028EBD100987B
:1091C800CDE90631FFF73EF9DDE906310644E2E76D
:1091D800631BB3F5806F97D245B9A6F10804E01870
:1091E800B1E600BFF404020050420200029A9B0854
:1091F80028602B709DF81030C2B1EB7085F80280A2
:10920800B8F1000F05D0002208A8C5F1010C97425B
:109218000ED14FF0000AC5F101030DF120090193A9
:109228000DF1300B574512D1601B8CE66B70E5E7EA
:1092380010F8013B190608D504EB0C0E764503F02F
:109248007F03FFF47EAE04F8013B0132DFE7B8F19B
:10925800000F03D099F90020002A17DB029BD3B135
:109268001AF80B2004F8012B0022019B98182044BF
:109278008642FFF466AE99F80000009904F8010BE5
:109288002046039217F00AF9039A14440AF1010AD6
:1092980009F10109C6E799F8002055F82230009332
:1092A800029B009845F82230FFF7CCF8421CDCE717
:1092B8006FF00D0047E600BF2DE9F04F95B000AF05
:1092C800BB61BB6F0446C3F3C0038A4690F802B083
:1092D8007A623B6141B9457800780BEB8000204405
:1092E800554517D8A0EB040AE3787B61BBF1000F62
:1092F80002D0BB6FD80716D47B6953BB7B6A1BB1FE
:1093080051462046BA699847554628465437BD46BF
:10931800BDE8F08F461C3046FFF794F80130304422
:109328000AF1010ADCE7237862683B629B00FB6074
:109338003B6AFA6104EB83097B6A002B40F0FF80EB
:10934800C8460026554609EB0B0AD04551D1D944E9
:1093580013E0BB6F9907D1D5237899463B629B00F0
:10936800FB60636804EB8909FB617B6A002B7AD197
:109378005546BBF1000F4FD15E46BB6F13F0050F8A
:109388000CBF4FF0020B4FF0010B7B6909EB430A4E
:10939800BB6F03F002037B62D145B6D019F8021BFC
:1093A80019F8013C54F82380AB4B984502D3AB4BDA
:1093B800984538D33B69002B42D0F86911F017F86B
:1093C80000283DD0E8468AB06A46A54B5361FB6940
:1093D800C2E906314FF400731384A24B42F8103FE0
:1093E80000234FF41251A04801F0AAF9023DC546E6
:1093F800D2E718F8013B54F82300FFF723F8FB6F76
:1094080001303BB1D7F880309E423EBFFB6F23F856
:1094180016000136054498E7BB6F13F004061CBF1D
:109428007E6AD944A9E73B6923B1F86910F0DFFFE8
:109438000028C7D1BB6FDA0705D4A5EB0B05ABE74E
:109448007B6A002BA8D04046FEF7FCFFFB6F43B1B8
:10945800D7F880309E423FBFFA6F431C22F816307F
:109468000136054498E7BBF1000F6ED0BB6F13F0CF
:1094780004066DD0D846002607F140005A464946F2
:1094880017F00CF87B69D9445B007B607B6909EBBA
:109498004303BB60BB6F03F002033B60BB684B45F3
:1094A80058D1B96F6378B86F890748BF002106EBB8
:1094B800030258BF4FEA5801C507D2B200F19A809B
:1094C80010F0040F14BF40460020FB616270A070CA
:1094D800E1702046BA69F9687B6A9847051EFFF66D
:1094E80014AF3B6A41462370FB69BA6963707B69B4
:1094F80084F802B0E37007F140007B6A9847B0F146
:109508000008C0F2A480FB68AAEB0B01C91A7B68AB
:109518004846C91ABA697B6A98470028C0F29980F8
:109528004FF0000BA84408EB000507F1300AB345DB
:1095380062D30021BA6908467B6A9847E5E65E4629
:109548004FF0000807F1300098E75E46D84699E7E3
:10955800B04697E719F8021B3F4B19F8015C54F81D
:109568002500984202D33D4B98421DD33B6923B155
:10957800F86910F03CFF002890D13B68FBB908F16E
:10958800280307F1280208F1010003EB020C07F198
:10959800500308F1020853FA80F00CF8101C5FFA27
:1095A80088F800F8105C79E73B692BB1F86910F08E
:1095B8001EFF00287FF472AFBB6FDB0709D506F1E9
:1095C800280307F12802711C9E1806F8205CCEB209
:1095D80064E7BB6F58077FF561AF08F1280307F10F
:1095E800280208F1010103EB020808F8105C5FFA91
:1095F80081F853E7002068E71BF80A3054F82390F5
:1096080087F82F30FB6FFBB133F81B800121BA6953
:109618007B6A07F12F00984700281ADB0544B8F148
:10962800000F06D14846FEF70DFF00F101081FFAAA
:1096380088F841464846BA697B6A9847002808DB9B
:1096480005440BF1010B72E7D7F87C80DEE745464D
:109658005BE6054659E600BFF404020050420200EA
:10966800461902000400000164090200014B186059
:10967800704700BF9481002080B505460E46174606
:1096880098460FF047F9034616F026FF0446DFF820
:109698001890424649F8003039463046A84754F8F1
:1096A800090002F03DFA00BF080000002DE9F0476C
:1096B800058B04462807904611D4022905F00705B2
:1096C80040F0CD80204611F075F978B10138218B32
:1096D800042811D8DFE800F0C3106D859500012932
:1096E8000CBF45F0100545F02005258388F3118847
:1096F800BFF36F8FBDE8F08701F0070AAA4500F0B5
:10970800A6800027B9463E46A368002B00F0BD801E
:1097180041F00801218388F31188BFF36F8FA16896
:10972800002900F0BB800D68002900F0B78033469F
:1097380052462046D1F80480C047002D76D02B68C9
:1097480029461D46F0E701F007035A1F012A1BD8D6
:10975800002221F00701062B276889B2C4E90022FC
:1097680009D13B4603E0628B013262831B68002B00
:10977800F9D141F002012046218311F01BF900289C
:109788007BD041F0200177E0042B0AD121F00701BA
:1097980089B22046218311F00DF910B141F0200162
:1097A8002183218B01F0070AAA4550D00027B9462A
:1097B800AAE7236921F0070141F00601062DD3F835
:1097C800009021832DD1B9F1000F40D041F008015C
:1097D800218388F31188BFF36F8F20463949C84722
:1097E80029E021F00701236941F0040189B2042D21
:1097F800D3F804902183E6D000274FF0040A3E46B0
:1098080082E721F00701236941F0050189B2052D9E
:10981800D3F808902183D6D000274FF0050A3E469A
:1098280072E700274FF0060A3E466DE72B4687E7AA
:10983800B9F1000FD1D14FF02003EFF3118883F372
:109848001288BFF36F8F238B23F008032383258BA4
:10985800EA062ED525F01003238305F0070566696F
:10986800218B002EBFF66FAF00232768C4E90033B1
:1098780021F0070141F001012183218B4FF00009FC
:1098880001F0070AAA457FF43FAF002F9BD041F0B3
:109898000801218388F31188BFF36F8F002FC7D089
:1098A8003D68394633465246204611F0AFF82F46F8
:1098B800F4E7AB067FF51AAF25F02003238305F004
:1098C8000705FFE641AA010007B50DF1070015F0ED
:1098D80008F9114B98421CD14FF480620F4B104984
:1098E800C3F8B8254FF40062C3F83C259DF807007B
:1098F80015F0E3F80B499DF8070015F0D9F8012099
:109908009DF8073098400CF081FD002003B05DF809
:1099180004FB6FF00B00F9E70000AD0B00A002405C
:109928002CA0024028A10240052370B5144D154E05
:109938002C780134B4FBF3F303EB8303E41A15F03A
:1099480092F8114A137823B156F82430C01A072820
:1099580013D90E4BD3F8141141B10021C3F81411D7
:10996800D3F814312C700CB9012313702C7815F02E
:109978007AF846F82400012070BD0020FCE700BFFB
:10998800A99B002010970020A89B002000500040B1
:1099980048B1054B054A1B68B3FBF2F35843044B27
:1099A80043F0010318477047EC82002040420F0043
:1099B800D00A020070B5049CC4F3072630460CF0A8
:1099C80041FAE5B20146284615F083F80022012045
:1099D800074BA40B04F0FC041A51A8400CF01CFD22
:1099E80030460CF0E3FB2846BDE870400CF0A2BE00
:1099F80080A00240F0B583B000AF381D0CF094FE93
:109A0800284B98424BD10CF0B3FB041E13DA38797B
:109A18000CF090FE6D4688B06A46234BC2E90534C7
:109A2800032342F8103F00234FF4C2511F4800F0AF
:109A380087FEAD462FE040F607031D4D7C71AE68EA
:109A4800FB8074687B6814B96FF05704E2E708215B
:109A58002846184AA047041EDCDB3369002BF3D0E4
:109A68000122082128469847041ED3DB01203B79B0
:109A780098400CF0CBFC78793D79FE7914F0DEFF44
:109A88000146284615F019F80B4BB60045F000457D
:109A98009D51002CBED120460C37BD46F0BD6FF05D
:109AA8001204B7E70000AD0BFE190200D40902004A
:109AB8002C060200C59A000080A102402DE9F3415E
:109AC800144683681B690BB100229847C4F3072624
:109AD80030460CF0BFF90546304614F0AFFF4FF0A2
:109AE8000008E7B20146384614F0F7FF104B220E83
:109AF800920043F8028030460CF0A4F90D4A4FEA70
:109B0800943C0CF0FC0C47F0004342F80C30014642
:109B1800384614F0CDFF084B05F132020093304669
:109B280043460194520014F092FF02B0BDE8F08160
:109B380080A1024080A00240BD99000014F0B4BF8B
:109B48007FB570B9124B1348059302234FF4825125
:109B580004AA049311F0A0FA6FF0150007B05DF89D
:109B680004FB836863B90C4B0A48059302234FF43E
:109B7800825104AA049311F08FFA6FF00400EDE704
:109B88001B681BB107B05DF804EB18471846E5E7FA
:109B98002F1A02007C090200401A020030B587B073
:109BA80008B101B16AB9134B1348059302234FF466
:109BB800825104AA049311F06FFA6FF0150007B0F0
:109BC80030BD84680CB1E56865B90C4B0A4805934B
:109BD80002234FF4825104AA049311F05DFA6FF046
:109BE8000400ECE741F8040BE36807B0BDE8304037
:109BF800184700BF5E1A02007C090200401A0200E2
:109C080030B51346044687B068B91A4B1A4805930D
:109C180002234FF4825104AA049311F03DFA6FF025
:109C2800150007B030BD006860B9144B12480593A1
:109C380002234FF4825104AA049311F02DFA6FF015
:109C48000100EEE782680AB1956865B90C4B0A48CD
:109C5800059302234FF4825104AA049311F01CFACD
:109C68006FF00400DDE70A46AC46616807B0BDE85E
:109C7800304060478A1A02007C0902009B1A0200E1
:109C8800401A02000020014B1860704700000720AE
:109C980030B50C460E4985B00291D0F8AC11054696
:109CA800CDE9003100F1E0014FF0FF3320460DF01F
:109CB80067FB50B9012384F86430D5F8A83123B183
:109CC800204605B0BDE83040184705B030BD00BF9C
:109CD80097B1010038B50C461146054611F059FAFE
:109CE800034638B92846044911F053FA03460020C0
:109CF800236038BD0120FBE7404002002DE9F04F0A
:109D0800012381460569466885B005F55B77D7E884
:109D1800EF2F002A03D1C7E8E13F0029F7D10CBF94
:109D28001A46002240F0B180B368B16A05F5E478BC
:109D38001C1F104611F0B2FA84425FD8013A00F0B5
:109D48009E80B2FA82F24FF00044D44072682046F6
:109D5800073222F00302C5F86022B16A11F09EFAB8
:109D6800C5F86402B36A40466343033323F0030330
:109D780002EB4302230103EB4403093323F00303FB
:109D880003EBC403C5F858221A440832C5F8542214
:109D98007368C5F85C42C5F850323D4BC5E9A96304
:109DA800316800F0BDF9044630BBD9F804A0D9F8F1
:109DB8001090DAE9073409F5307B012B584608BFC3
:109DC800103C15F09BFE0023DAF8240031494FF4CB
:109DD800806201EB80210093584623460EF0E4F997
:109DE80009F52C702C4915F04BFEDAF8140083683D
:109DF8005C682CB96FF05704002139E0013298E70C
:109E08004B46264ADAF81810A04704460028F3D132
:109E1800DAF8140083681B69002BEBD00122DAF80A
:109E28001810984704460028E6D11D4B2846C5F867
:109E3800A8311C4BC5F8AC311B4B0393D5F8103235
:109E48000293D5F80832CDE90083D5F86832B26AB2
:109E5800D5F8681300F02CF904460028CCD105F198
:109E6800E0000DF03BFB0028C5F870030ADB022177
:109E7800384611F0C3F9204605B0BDE8F08F6FF001
:109E88000B04B9E76FF01504B6E76FF07704F2E753
:109E9800EDB10100989C0020D3B10100C7B10100C9
:109EA800B59E00007BB3010035B2010013B504462E
:109EB80040B100230122CDE90032074BD0E9091255
:109EC8000DF012FAA36E1B6823B1E06E02B0BDE874
:109ED8001040184702B010BD4040020013B50446B8
:109EE8000846216901F55B71D1E8AF1F022910D13D
:109EF80093B1A0B10121CDE900311346D0E909128F
:109F08000DF0F2F9074B984208BF6FF00B0002B052
:109F180010BD6FF00F00FAE76FF04C00F7E76FF035
:109F28000100F4E72EF8FFFF2DE9F74388461546B0
:109F3800066906F55B73D3E8AF3F022B5FD1136860
:109F480023B96FF0150003B0BDE8F0831B78002B30
:109F5800F7D0D6F86893B9F1000F33D106F5D87762
:109F68004FF0FF324FF0FF3338460DF0B1FE304668
:109F78002A6801A9FFF7AEFE019C1CB9384611F00A
:109F88003BF9DEE705F10803A3666B6984F8649082
:109F9800E366E46360B1384611F02EF92146304695
:109FA800236E2A68FFF774FE0020C8F80040CAE74D
:109FB8002022296804F1400016F036F9384611F0DD
:109FC8001BF9F1E730460F4911F0E3F80446002881
:109FD800B7D005F1080383666B69C063C3660023C5
:109FE80080F8643020222968403016F01DF9224696
:109FF8000121304600F03EF80028D5D0A1E76FF0E7
:10A008000F00A0E7404002002DE9F04F05460E463C
:10A0180090460027D0F8B0A085B0AAF5AE742146C6
:10A028003046FEF7FDF9E0B9114BA4F1400B02935D
:10A03800DAF810303246CDE9008329464FF0FF3375
:10A048005846AAF5CE790DF09BF960B97023012224
:10A0580003FB079383F86420DAF80C300BB15846F9
:10A068009847703417B105B0BDE8F08F0127D6E7DF
:10A07800DDB301001FB5144690B18AB1012912D190
:10A088000A4B00F1E0010293D0F8AC314032019361
:10A098004FF0FF33204600930DF072F904B010BD65
:10A0A8006FF01500FAE70020F8E700BFDDB3010004
:10A0B8002DE9F04387B00E46DDE90E811446DDE94F
:10A0C80010251F4630B329B3DFF850C000F1E0096E
:10A0D800002D08BF65469EB9CDE9034400F5CE744E
:10A0E8002046059615F0BDFA03ABCDE900432A4694
:10A0F8003B46414648460DF017FA07B0BDE8F083E5
:10A10800002241460E9248462A4607B0BDE8F04371
:10A118000DF034BB6FF01500EFE700BF11A0000091
:10A12800F0B50E46044689B000286FD001230246D8
:10A13800C3630023D0F89810364F403040F80C7CA9
:10A1480042F8301FCDE901334FF0FF330093C36D60
:10A1580014F047FD304A06AB92E8030083E8030099
:10A1680018460CF0D3FF0546D8B904F134000CF0BA
:10A17800AFFF0546A8B93946284805AA14F00DFDD1
:10A18800054670B9059B9A6872B10C33D4F89400EF
:10A19800C4F8A03011F04FF9C4F8D40030B96FF00A
:10A1A8000B05284609B0F0BD0346EFE7D4F8940044
:10A1B80011F041F9C4F8D8000028F0D0D4F88C3058
:10A1C800D4F8A010C4F8A8300423C4F8AC30C4F8FC
:10A1D800C4300223A362124BB4F89420D4F8D4708C
:10A1E800C4F8B810C4F8D010D4F89010236204F161
:10A1F800A403A4F8B020C4F8A470C4F8C010A4F84C
:10A20800C820C4F8BC00A661E362CAE76FF0150570
:10A21800C7E700BFC51A0200180A0200CF1A0200D9
:10A22800E40D02002DE9F047044607464FF0010906
:10A23800DFF8508014B93846BDE8F08794FAA4F5E1
:10A24800B5FA85F509FA05F32E0108EB05156FEA4D
:10A25800030A24EA03042B7B002BEBD058F80630C2
:10A268001B694BB94644736804222846196807EAF3
:10A278000A0700F051FADDE7284698470028D9D1A7
:10A28800F0E700BFE409020030B5002289B00F49A9
:10A298000F4815F00CFE002200230024CDE9062308
:10A2A8000E230C4DCDE903344FF440722846CDE916
:10A2B8000144094B094900940DF082FC08492846DD
:10A2C80015F0A2FA204609B030BD00BFEDA200008B
:10A2D800A08E0020108A0020C5A5000098A00020AC
:10A2E800D71A020001480DF0DDBD00BF008500202F
:10A2F8002DE9F04780461F480F4611F0EEF8064654
:10A30800002830D000252846BDE8F087237B73B1AC
:10A318002368DB680BB12046984723681B69D3B9CB
:10A32800636804222046196800F0F6F901361034F3
:10A338004C45EBD3B8F1000FE5D0002DE2D028460C
:10A34800FFF770FF0546002FF7D000214FF4A470E7
:10A358000EF0C6FAF1E7204698470028E0D00AFA3E
:10A3680006F31D43E2E705464FF0010A024CDFF809
:10A378000C90DDE734970020E4090200F40902009C
:10A38800014B53F820007047240E020008B503461D
:10A3980008462BB1044A136000F074FC002008BD85
:10A3A8006FF01500FBE700BFC481002010B5044C16
:10A3B800237813B903480DF075FD0123237010BDF0
:10A3C800AA9B00200085002010B50446064811F01D
:10A3D80084F83CB1054BD3E8EF1F0139C3E8E21F0D
:10A3E800002AF8D110BD00BF2C970020309700201C
:10A3F80000200146034BD3E8EF0FC3E8E21F002A11
:10A40800F9D170472C97002070B5FFF7F1FF05468A
:10A41800074C084EB44200D370BD63685B792BB11A
:10A4280023685B6813B12946204698471034F1E742
:10A43800E4090200F409020010B5044C044920465E
:10A4480010F0A9FC034B1C6010BD00BF288400203D
:10A45800100E02002497002008B50023074A4FF485
:10A4680000411370064A07481360074A1360FFF754
:10A478008DFFBDE80840FFF7DFBF00BFAB9B0020A2
:10A488002C970020DFB401003097002001460022FD
:10A498000023014810F0A0BC28840020014810F0D7
:10A4A80039BD00BF28840020024B0146186810F00F
:10A4B80083BD00BF24970020014810F0B9BD00BF3C
:10A4C8002884002070B5264B1878002847D0FFF75D
:10A4D800E5FF054670B1234BD3E8EF1F0139C3E808
:10A4E800E21F002AF8D1204C204EB4422DD3284632
:10A4F800FFF7DAFF1E4B1F4C1B68002B19DD15F008
:10A508008FFC4FF47A72A0FB020302FB0131C30BEC
:10A5180043EA4143D4E900209B1A40F2E9324FEA6A
:10A52800D13161EB0001934271F1000101D3FFF7D2
:10A538006BFFD4E9003213F57A7342F10002C4E9E3
:10A548000032BDE87040FFF7B7BF63685B7923B19D
:10A558002368294620461B6898471034C5E770BD14
:10A56800AA9B002030970020E4090200F4090200A9
:10A578002C970020988E002070B50D4D297861B970
:10A588000120FFF7B5FE0B4C0B4EB44206D3FFF784
:10A5980099FF0028FBD101232B7070BD63685B799C
:10A5A8001BB1236820469B6898471034EDE700BF2D
:10A5B800AB9B0020E4090200F409020000212DE908
:10A5C800F0470846FFF794FE044658B340F2676820
:10A5D8004FF0000915F080FF1B4B1C4A1B581360F5
:10A5E80033B11B4B1B68092B02DD1A480DF05AFCCE
:10A5F8000025194FDFF85CA044B12046FFF712FE92
:10A60800044618B94FF0FF384FF0FF39FFF75AFFEB
:10A61800064628B9B5B942464B4650460DF068FC87
:10A628003546E9E74FF0FF384FF0FF39D2E72B689E
:10A638009B691BB100222846114698471035BD4238
:10A64800F5D3E8E7054DFAE7080000002897002051
:10A658003097002000850020F4090200E409020078
:10A6680013B5184810F039FF174B1B787BB14FF022
:10A678002003EFF3118483F31288BFF36F8FFFF782
:10A6880021FF84F31188BFF36F8F02B010BD0F4B09
:10A698001B68002BF9D050B9002200230C48CDE9E3
:10A6A80000234FF4004200230EF078FBEDE7092861
:10A6B800EBD1074815F007FC064802B0BDE810408A
:10A6C8000DF0F0BB30970020AB9B002028970020AE
:10A6D800A08E00200085002010B5064B04461B689C
:10A6E80098472146A060044810F0F4FBBDE81040EC
:10A6F800FFF7B6BFC481002028840020044A054B18
:10A708009B1AB1EBD30F34BF52F8310000207047C9
:10A71800D4080200E4090200084B10B4C31A4468C4
:10A728001B110133237143689A7101224368196030
:10A7380043685A7110BCFFF739BE00BFE409020034
:10A748002DE9F04F8FB0C1F34A2804AF0D4691466A
:10A75800B8607B600C0DB8F1000F63D000264FF095
:10A76800040B4FF00A0A07F11403C7F80C80C7E975
:10A7780007667E620193CDF808B0CDF800A007F116
:10A788001C0332464846F968FEF796FDB0F5006F9F
:10A7980003461CD36C468AB0D9F8041004AB26488B
:10A7A8001A46C3E9050140F2FF71D9614FF40071FF
:10A7B8001984224B42F8103F4FF412513346204877
:10A7C800FFF7BEFFA5462C37BD46BDE8F08FC0F3A6
:10A7D8000A0804F11700184420F0070080083B60BD
:10A7E800FFF754FE68F35325044690B13B6800F127
:10A7F8001001C7E9083607F11403F961CDE900A390
:10A80800CDF808B048460F4AF96807F11C03FEF76F
:10A8180053FD68F353252A4620467B68B96810F033
:10A828008EFED0E704F1170020F007008008FFF73C
:10A838002DFE0446EDE700BFEC1A020004000001FB
:10A84800840902001BB501002DE9F04F87B00446CA
:10A85800DDE9105ADDE912690F4693469846A6B31A
:10A868001021334652460020CDF80090CDF81490C0
:10A87800FEF750FB014605F117000844144B04F09D
:10A8880007040BF0070BE40020F0070003EA41235C
:10A8980044EA8B1480081C430391FFF7F7FD44EA50
:10A8A8000554054640B13EB1334652460399CDF8AA
:10A8B80000901030FEF72EFB4346224639462846C4
:10A8C80007B0BDE8F04F10F03ABE3146D3E700BFFD
:10A8D80000FE0F000EB403B503AB53F8042B01467A
:10A8E8000448019301F004FB02B05DF804EB03B0E7
:10A8F800704700BFADB50100CA0605D48B064CBF32
:10A9080002490349FFF7E6BF704700BF3F40020016
:10A918003E4002002DE9F04F89B09A46DDE91473F4
:10A928009DF84CB00593169B04460D46179E06925B
:10A938000493BBF1000F00F0858006F0080307932D
:10A9480010F0E5FD06F002090246002849D020462D
:10A958008549FFF7BFFF8046B9F1000F08D016F010
:10A96800440F40D12A4620468049FFF7B3FF804470
:10A9780006F0010353B17E4B204653F82B207D4B44
:10A988007D49002A08BF1A46FFF7A4FF06F008030E
:10A99800002B54D0794B204653F82B207849FFF7E9
:10A9A80099FF0546069B2BB11A4620467549FFF7C5
:10A9B80091FF0544BAF1000F05D05246204672496E
:10A9C800FFF788FF05444544002F49D1049B002B1D
:10A9D8004FD1F30700F1C18031462046FFF78CFFC5
:10A9E800B5E08046B8E7694B18680028BFD0684BC7
:10A9F8004FF47A791B684FF46161B5FBF3F5B5FB49
:10AA0800F0F300FB135509FB05F5B3FBF1F2B5FBB9
:10AA1800F0FE4FF03C0C01FB123100FB1E55B1FB60
:10AA2800FCF309FB05F5B5FBF0F50CFB131120460B
:10AA38000091CDE901E55749FFF74CFF97E706F08C
:10AA48000805AFE7BAF1010F06D1002F65D1049BC5
:10AA5800002B7CD000250CE0002FF8D04E485DE09C
:10AA68004E483B4622464E490FF090FC049B002B73
:10AA780069D0DFF83081DFF83091049F3146102F1C
:10AA8800204628BF10274FF0000AFFF735FF55452D
:10AA980046DC059B494620461A78FFF71BFF4FF016
:10AAA800010A1AF0070F03D141462046FFF712FFAB
:10AAB80057453CD9059B4946204613F80A20FFF71D
:10AAC80009FF0AF1010ABAF1100FEAD14FF0000AA2
:10AAD80020463649FFF7FEFE5246059B20469A5C03
:10AAE800334B995C11F0970F08BF2E223149FFF7BD
:10AAF800F1FE0AF1010ABAF1100F1DD01AF0070F82
:10AB080003D141462046FFF7E5FE57455246E4D8B3
:10AB180041462046FFF7DEFEEBE720485D46A0E70A
:10AB280041462046FFF7D6FE0AF1010AAFE7204664
:10AB38002149FFF7CFFEC4E7059B3B440593049BDF
:10AB4800DB1B049399D1BBF1000F7FF442AF204681
:10AB580009B0BDE8F04F10F018BD2046054A064977
:10AB6800FFF7B8FE38E700BF301B0200341B0200B5
:10AB7800340E02002B1B020024270200480E02009C
:10AB8800591B02005F1B0200631B02003C97002058
:10AB9800389700203D1B0200DBB50100ADB5010070
:10ABA800F9BE00000A400200681B02006E1B02008A
:10ABB80043410200701B0200084002002DE9F041E9
:10ABC8000F884B6805460C4690468E6886B0C7F3DA
:10ABD80082175BB1144A9B1A43F3CF01002920DB8B
:10ABE8002078C0F3C200FFF789FD0346214651F8DB
:10ABF800102B6088C2F34A22002A01EB020408BF26
:10AC080000210022C0F30B10CDE90408CDE902149D
:10AC18002846314601970092FFF77CFE06B0BDE852
:10AC2800F0810023E2E700BFD408020042F20F736C
:10AC380073B58B4228BF0B46056804460521684654
:10AC48000D4A0EF08BF90646636828460B225B68AE
:10AC58000A4910F08DFC63683246694628465B68ED
:10AC680010F086FC63681B2228465B68044910F0D4
:10AC78007FFC02B070BD00BF942302008F1B02004E
:10AC8800731B020000210123064A904206D8064A97
:10AC980001B901231360054B186070470121400872
:10ACA8005B00F2E740420F00389700203C970020F5
:10ACB800014B002019607047549700200122024B75
:10ACC80002481A7010F061BCAD9B0020780E02009B
:10ACD8000148FFF7ABBF00BF780E020010B5064B66
:10ACE8000C461868FFF74CFB2146BDE810400346A8
:10ACF8000F220248184700BF54970020780E020020
:10AD0800F8B50D460446064F4618B44201D1284608
:10AD1800F8BD14F8011BBB6801485B689847F4E765
:10AD2800180602000449431E0F3013F8012F8A5CED
:10AD380083421A70F9D17047D51B0200F0B5074657
:10AD4800264E8DB001AD0C460FCE0FC50FCE0FC5E8
:10AD580096E8070085E807003846002F39D0002C10
:10AD680039D0381F0246214610344B780D781B0421
:10AD780043EA0563CD7804312B4311F8025C8C4219
:10AD880043EA052342F8043FEFD10421144C8A0713
:10AD9800036916D1C3F30742A55C1A0EA25C42EA06
:10ADA8000562C3F30725655DDBB2E35C42EA054251
:10ADB80042EA032221F0030330336B4453F82C3C5E
:10ADC800534050F8042F013153402C290361DED140
:10ADD80001200DB0F0BD2046FBE700BF200A0200AD
:10ADE800D51B02002DE9F04F002703689DB00293A0
:10ADF8004368DFF8BCA103938368DDE90246049346
:10AE0800C36805930369DDE904BE069343690793A4
:10AE18008369DDE9062C0893C36998460993089B62
:10AE28000093CD590CAB2DBA5AF8049BDD514FEA6B
:10AE3800F223A94483EAB213009D83EA72634B4468
:10AE480025EA020502EA0C0985EA09052B44434470
:10AE580086EA0B054FEA743888EAB408254006EA02
:10AE68000B0985EA090588EAB4580437A844402F35
:10AE780003EB0E054344DE46DDF8008040F0888091
:10AE88004FF0100A4B490A9151460AF1010A0DF197
:10AE9800700E0AF00F070EEB870757F8407C01F099
:10AEA8000F094FEAB748019788EAF71801F10E072A
:10AEB80007F00F070EEB870757F8407C09314FEA78
:10AEC800F74E8EEA774ECDF82CE001F00F010DF128
:10AED800700E0EEB81010EEB890959F840EC51F820
:10AEE800401CBAF1400F7144DDF804E088EADE083E
:10AEF800DDF82CE041448EEA972E714405EA0208F9
:10AF08004FEAF52E2CEA050787EA08078EEAB51EF0
:10AF1800DDF828808EEA756E774458F804EF49F812
:10AF2800401C77440F4400994FEA733E394484EA41
:10AF38000607CDF828808EEAB30E07EA030704EA6D
:10AF480006088EEAB35E87EA080777440F4401EBE8
:10AF58000B0ECDF800C0B34622D1029939440160E6
:10AF680003991944049B416023448360059B33443F
:10AF7800C360069B73440361079B2B444361089B92
:10AF880013448361099B6344C3611DB0BDE8F08F1E
:10AF9800B346CDF800C0264694461C462A4640E7EC
:10AFA800944626462A461C4675463B466CE700BF33
:10AFB800880E0200C40E020010B50446C8B1702203
:10AFC800002110F022FB0B4B0B4A0C49C4E900236B
:10AFD8000B4B0C48C4E902130B4BC4E904030120D2
:10AFE8000A4BA36103F17453A3F52303A3F6924319
:10AFF800E36110BD85AE67BB67E6096A72F36E3C14
:10B008003AF54FA57F520E518C68059BABD9831F2B
:10B01800014910220A60704710ED00E072B6404006
:10B0280080F31188BFF36F8F01B5FEF77DFC002810
:10B038000AD0BFF34F8F30BF00BF00BF00BF00BFB3
:10B0480000BF00BF00BF00BFBDE8014062B6BFF34C
:10B058006F8F704772B6494081F3118801B5FEF7CA
:10B0680063FC00280AD0BFF34F8F20BF00BF00BF8A
:10B0780000BF00BF00BF00BF00BF00BFBDE8014068
:10B0880080F3118862B670472DE9F04781460C4677
:10B0980000AF00294CD0D1E900126E468AB0A368EF
:10B0A8006D464FF0050AA8462548C5E90723C5E9B6
:10B0B800050148F810AF002342464FF421512148BA
:10B0C800FFF73EFBD4E90312B5466369AD461E4857
:10B0D800C5E90723C5E90501C5F810A000234246C4
:10B0E8004FF421511748FFF72BFBB54688B0E369A9
:10B0F8006D464FF0030AA846144AC5E9052348F8E7
:10B1080010AF002342464FF4C2510E48FFF718FB18
:10B11800B546A369AD460E4AC5F810A0C5E9052392
:10B12800002342464FF4C2510648FFF709FBB546D3
:10B13800214648460CF038FBBD46BDE8F08700BF05
:10B14800D51C0200C4090200041D0200331D0200C0
:10B15800421D020040B2002807DB01234109034ACF
:10B1680000F01F00834042F82130704700E100E002
:10B1780040B200280CDB01220649430900F01F00F9
:10B188008240203341F82320BFF34F8FBFF36F8FE6
:10B19800704700BF00E100E0054B420953F8222048
:10B1A800012300F01F0003FA00F01040704700BFB1
:10B1B80000E100E040B2002801F10101ACBF00F15C
:10B1C8006040064B4FEA4111C9B2ABBF00F5614080
:10B1D80000F00F0080F800131954704714ED00E0D8
:10B1E80030BFFFF7FDBF00BF0B4A08B50B4B22F07D
:10B1F8007F029A60BFF34F8FBFF36F8FD3F8882019
:10B2080022F47002C3F888200CF08EFB0DF0FAFBD4
:10B2180000F000FC0CF0D2FB0080000000ED00E024
:10B22800094A0A49936809689867D96708494B68C1
:10B2380043F080534B60002383F31188BFF36F8F73
:10B248009368D86F704700BF409B002050150200DC
:10B2580000ED00E018498A6882F881E04FF030007C
:10B268001044EFF3098C80E8F01F202080F3128847
:10B27800BFF36F8F114F4FF000664A698A603E60D6
:10B288004FF07404141920680D4C206092F981E085
:10B29800906F0023936780F3118802F1300090E8E3
:10B2A800F01F8CF3098802F1000004B510F003FECA
:10B2B800BDE8044070470000409B002004ED00E01A
:10B2C800589700201EF0040F0CBFEFF30880EFF32F
:10B2D8000980816911F8021C0229FFD001B510F01C
:10B2E800DBFD01BD42F8203C009B0D4942F81C3CA7
:10B2F800019B21F0010142F8183C029B42F8081C0E
:10B3080042F8143C4FF0807342F8043C00238367F2
:10B318004FF43C43203A0265C0F88030704700BFC4
:10B32800819600000A4B446F98600A4B1C60436E7C
:10B3380083F30B88104681F30988002163B681F3F3
:10B348001188BFF36F8F00220023FEF795F900BF25
:10B35800409B00205897002001B5EFF30580A0F12D
:10B3680010004FEAC0000449014409C99847BDE8E4
:10B37800014002490847000054060200E5B30000F6
:10B38800114B124A2DE9F041D518013DB5FBF3F5F3
:10B39800DFF83C805D430F4B074608EB0304013C94
:10B3A800B4FBF3F403FB04540E1B30460A4915F0B2
:10B3B80075F8701942460021083E15F07CF87E6742
:10B3C80004F10800BDE8F081010000000000000061
:10B3D8000400000004000000F4090200044B99680E
:10B3E8005869884203D003494FF080520A60704779
:10B3F800409B002004ED00E02DE9F04186B00646B0
:10B408000D4600AF0224444B4FF482517B61434800
:10B418003C6107F1100210F052FD414B9B6ADB06BC
:10B4280078D5404B3D484FF48251C7E9044307F1B2
:10B43800100210F044FD1120394B9B6A1C070BD5F4
:10B44800394B36487B6102234FF482513B6107F147
:10B45800100210F034FD1220314CA36A990723D54D
:10B46800E846324B07F110027B6102234FF4825108
:10B478003B612A4810F023FD636BA26A120612D5BD
:10B4880088B06A462A492548C2E9051303234FF4C0
:10B49800C25142F8103F10F012FDC5461EB1A36A12
:10B4A80023F08003A36213201D4B9B6ADE070BD594
:10B4B800204B1A487B6102234FF482513B6107F10C
:10B4C800100210F0FCFC1420154B9B6A9C060BD54F
:10B4D800194B12487B6102234FF482513B6107F1FB
:10B4E800100210F0ECFC15200D4B18379A6AD106A3
:10B4F80058BF9A6A9A6A920642BF5A6A22F4005260
:10B508005A629A6A42F0FF029A6200232B70BD4683
:10B51800BDE8F08110208FE7701D0200C409020009
:10B5280000ED00E0861D0200B91D0200CC1D0200DE
:10B53800E41D0200FA1D0200191E02002DE9F04167
:10B5480086B006460D4600AF0224474B4FF48251A1
:10B558007B6146483C6107F1100210F0B0FC444B97
:10B568009B6AD9046DD5434B40484FF48251C7E9D3
:10B57800044307F1100210F0A2FC17203C4B9B6A11
:10B588001A050BD53C4B39487B6102234FF4825195
:10B598003B6107F1100210F092FC1820344CA36AAA
:10B5A8009B0523D5E846354B30487B61022307F1DC
:10B5B80010023B614FF4825110F081FCA36BA26A28
:10B5C800100412D588B06A462D492848C2E90513E7
:10B5D80003234FF4C25142F8103F10F070FCC546E7
:10B5E8001EB1A36A23F40043A3621920204B9B6A6F
:10B5F80059050BD5234B1D487B6102234FF482511B
:10B608003B6107F1100210F05AFC1A20184B9A6A95
:10B61800D20518D51C4B15487B6102234FF4825183
:10B628003B6107F1100210F04AFC1B20104A183742
:10B63800936A43F47F43936200232B70BD46BDE8B1
:10B64800F08116209AE79B6A9B04EFD50F4B0748B9
:10B658007B6102234FF482513B6107F1100210F025
:10B668002EFC1C20E2E700BF481E0200C4090200AD
:10B6780000ED00E05E1E0200B91D02006F1E020010
:10B68800881E02009D1E0200B81E0200191E02003C
:10B6980010B586B002243E4B4FF482513D4804AAAF
:10B6A8000593049410F00BFC3B4B9B6A99016CD5F5
:10B6B8003A4B38484FF4825104AACDE9044310F0BC
:10B6C800FEFB1E20344B9B6ADA010AD5344B314805
:10B6D800059302234FF4825104AA049310F0EFFB60
:10B6E8001F202D4B9B6ADB020AD502242D4B2948CB
:10B6F8004FF4825104AA0593049410F0E0FB20460D
:10B70800254B9B6A1C030AD5274B22480593022325
:10B718004FF4825104AA049310F0D1FB21201E4B50
:10B728009B6A59030AD5214B1A48059302234FF403
:10B73800825104AA049310F0C2FB2220164B9B6A84
:10B748009A030AD51A4B1348059302234FF48251E2
:10B7580004AA049310F0B3FB23200F4B9B6ADB036E
:10B768000AD5144B0B48059302234FF4825104AABF
:10B77800049310F0A4FB2420074A936A6FEA03435A
:10B788006FEA1343936206B010BD1D209AE700BF0D
:10B79800D01E0200C409020000ED00E0E81E02000D
:10B7A800FB1E0200151F02003F1F02005D1F020062
:10B7B800821F02009C1F02002DE9F0478AB07D4BD2
:10B7C8000446D3F804908A461646002500AFC9F30C
:10B7D800080885F31188BFF36F8F02F07F43B3F138
:10B7E8007F4F25D1D30723D4500603D411070FD494
:10B7F80001250FE0704B4FF48251FB6102236F4823
:10B80800BB6107F1180210F05AFB16F0040600D0CD
:10B81800544600250023FB71A8F10303092B00F20D
:10B82800A880DFE803F0079B9E97A6A6A6A6A6A178
:10B838002C46EFE7E9464FF00208614B07F1180282
:10B84800FB614FF482515D48C7F8188010F037FB50
:10B858000023584EFB71F36A9A070BD5594BC7E979
:10B8680006834FF48251554807F1180210F027FB60
:10B87800002338E0F36A002B01DA534BEFE7F36A51
:10B888005B00F5D5514B07F11802C7E906834FF461
:10B8980082514A4810F013FB7369A26943F480731C
:10B8A8007361BFF34F8FBFF36F8F736932F8022C48
:10B8B80023F480737361BFF34F8FBFF36F8F4DF61F
:10B8C80002739A4231D188B023686A4640493B489E
:10B8D800C2E9051303234FF4C25142F8103F10F098
:10B8E800EEFACD462368FA79DAB907F1080604F1C9
:10B8F800200C324620686168083403C26445164645
:10B90800F7D17A6A002D50D0C2F3080121B96FEA45
:10B9180052226FEA42227A62184607F10801FFF7BD
:10B92800B3FB2837BD46BDE8F087B36ADBB223B165
:10B938000120F91DFFF760FD0EE0B36A13F47F4F95
:10B9480004D00120F91DFFF7F9FD05E0B36AB3F54E
:10B95800803F8DD3FFF79CFE0346C4E70020F91D06
:10B96800E8E70020F91DEEE71A4BFB610223BB61F3
:10B9780077E7194A6E4619F4F87F8AB0174B18BF53
:10B9880013466A4616490D48C2E90513A8F1100383
:10B99800D3614FF400731384124B4FF4115142F8E2
:10B9A800103F10F08CFAB54662E722F4FF7222F0DD
:10B9B8000102B0E700ED00E0F51F0200C409020033
:10B9C800182002002F200200502002005E200200F2
:10B9D8007D20020099200200DC1F0200C71F020020
:10B9E800BD20020004000001044B5A6942F0100215
:10B9F8005A615A6942F480625A61704700ED00E06A
:10BA0800EFF30880EFF3098101B57246FFF7D4FE22
:10BA180001BD00BF002320210348C2180133452B74
:10BA280082F80013F9D1704700E100E0002080F3AC
:10BA38001488BFF36F8F002080F30A8880F30B8887
:10BA4800FEF77CF800200E490860BFF34F8F0D48C1
:10BA580080F3088800F03EF8202080F311880A4817
:10BA68004FF40061401880F30988EFF31480022135
:10BA7800084380F31488BFF36F8FFFF7B5FB00000E
:10BA880094ED00E048BF002008B20020BFF34F8FBC
:10BA98000549064BCA6802F4E0621343CB60BFF362
:10BAA8004F8F00BFFDE700BF00ED00E00400FA057E
:10BAB800002318460649D1F89020C2F30722934282
:10BAC80000DB7047C1F89830C1F8A0000133F6E7F1
:10BAD80000ED00E010B572B6002484F31388FFF778
:10BAE800E7FF23464FF0FF300C4A03F120010133F2
:10BAF800102B42F82100F8D100234FF0FF30074AFD
:10BB080003F160010133102B42F82100F8D162B62D
:10BB1800BFF34F8FBFF36F8F10BD00BF00E100E090
:10BB2800084B9B6883420BD1EFF3058343B1064B67
:10BB38005A6842F080525A605A6A22F400425A62A5
:10BB48000CF0EEBE409B002000ED00E01FB5094C54
:10BB5800094A23460121094800F02AF900230393E2
:10BB6800074B0121E41A01A80193029400F02AF975
:10BB780004B010BD0000072000800020880F0200DC
:10BB88009886002010B50C7A0B6804F01F0223F089
:10BB98001F031A43CB68640923F01F03054943EACE
:10BBA800440343F00103C1F89800C1F89C20C1F890
:10BBB800A03010BD00ED00E080B500AF88B06A4647
:10BBC800074BC2E90530032342F8103F00234FF426
:10BBD800C2510448FEF7B4FD6FF01500BD4680BDA4
:10BBE800D4200200A40902002DE9F04F14460646AD
:10BBF8004FF0000987B05F4D00AF79607B689945C9
:10BC080035DAD6F80480B8F1000F54D0B8F11F0F18
:10BC18001BD918F01F0F18D1D6F800B01BF01F0F52
:10BC280013D1584610F050F9824608EB0B00013842
:10BC380010F04AF982451FD06FF0150A6C4688B09B
:10BC48006A464D49C2E9051A05E06C4688B06A465D
:10BC58004A4BC2E90539032342F8103F00234FF449
:10BC6800C2514748FEF76CFDA5466FF01504204603
:10BC78001C37BD46BDE8F08F1AF1160FDED05445CB
:10BC8800DCDDC5F898A0D5F89C00C5F898A0D5F8D3
:10BC9800A02020F01F0042F01F08D6E9002111441F
:10BCA800904201F1FF3B1ED1D84508D131465FFAD9
:10BCB8008AF010F012F909F101090C369EE7C5F86F
:10BCC80098A0D5F89C3021F01F0103F01F030B4307
:10BCD8003146C5F89C30E0B210F0FFF810F1160FAD
:10BCE800C3D0441CE7E7013AD845E0B222F01F026E
:10BCF800C5F898A008D1D5F8A030314603F01F0345
:10BD08001343C5F8A030E7E7D5F8A01001F01F01EC
:10BD18000A43C5F8A020314610F0DFF810F1160FDD
:10BD2800A3D0C5F898A0D5F89C203B7C08F1FF3833
:10BD380062F304033B74D5F8A0303A7C5B0863F3E4
:10BD480047123A74D6E900321344BB6023F01F034C
:10BD5800441C4344A3EB0B03E0B223F01F03072862
:10BD68007B6102D9FFF728FFB8E707F10801FFF761
:10BD780009FFB6E700ED00E01D210200FA200200ED
:10BD8800A40902000522044BC3F89420BFF34F8F87
:10BD9800BFF36F8F704700BF00ED00E0BFF35F8F08
:10BDA8000022024BC3F89420704700BF00ED00E06A
:10BDB80010B5034C2278FFF717FF207010BD00BFA5
:10BDC800AE9B00202DE9F74F294D8A4606464FF0D5
:10BDD8000008AB46274FD0451BDAD6F80490B9F1D6
:10BDE800000F3FD031680846019110F06DF80199B5
:10BDF800044609EB0100013810F066F884424FF060
:10BE080014021D4B08D002FB08F36FF015024BF823
:10BE1800032003B0BDE8F08F14F1160F2C60F8D0A2
:10BE28001978A142F5DD02FB08B0C7F89840C7F8B9
:10BE38009840D7F89C4000F10801007B64F30400A7
:10BE48000871D7F8A0000C79400860F347140C710A
:10BE5800D7F89C1021F01F016960D7F8A01021F0D5
:10BE68001F01296108F1010814350C36B3E700BF3A
:10BE78005C97002000ED00E0AE9B002038B50E4D29
:10BE88002C68082C15D80020FFF788FF0B4B0C4AAC
:10BE9800C3F8C020844205D10A4B00201C70FFF76C
:10BEA80071FF38BD696801EB0011FFF76BFE0130C7
:10BEB800F0E74FF0FF30F4E7940F020000ED00E0E8
:10BEC800AAFF4400AE9B002008B5024B1B689847A8
:10BED800002008BD70970020034B044A186093782F
:10BEE80043F002039370704770970020C8810020C8
:10BEF800F0B587B007460E46144600211022684662
:10BF08001D4614F0D8FA02238DF80230054B2A4654
:10BF180021466846CDE9047601930DF0E5F807B0AF
:10BF2800F0BD00BF23BF010008B50649064821F04F
:10BF38000701C1F1005202F5E0220EF0E3FC0020F7
:10BF480008BD00BF3B11012048030120F8B5144B80
:10BF5800D3F83021D3F83431072A1CD1023B032B04
:10BF680002D8104AD35CB3B1012600244FF0502701
:10BF78000D4D0520C7F81866C5F8144612F096FD51
:10BF88003046C5F8146612F091FDC5F81446C7F896
:10BF980018460020F8BD0022034BC3F81426F8E722
:10BFA80000F007204F2102000050004008B5044867
:10BFB80013F071FB00280CBF6FF01200002008BDC1
:10BFC800040602000E4B402928BF402170B51D46CB
:10BFD8000C4C4618B04203F1020304D1002305F8C3
:10BFE8001130074870BD02781209A25C03F8022CD0
:10BFF80010F8012B02F00F02A25C03F8012CE9E70C
:10C00800CD9B00207F21020030B503788BB0044619
:10C0180007AD032B21D8DFE803F0021A1C1E1249D2
:10C028002846FCF707FA059563781E210493A37840
:10C038000E4A0393E3780E480293237901936379B8
:10C048000093A3790CF08AFF09480BB030BD094969
:10C05800E6E70949E4E70949E2E70A212846084AE8
:10C068000CF07CFFDFE700BFC9170200EB170200E6
:10C07800AF9B0020D0170200D7170200E11702007B
:10C08800F539020030B50024094D0A4B85B0284621
:10C098000293039413F032FD02AB284600934FF449
:10C0A800A3620A2304490CF07FF8204605B030BD8E
:10C0B800D88E00209721020098A30020014601484D
:10C0C8000CF0E8B8D88E0020037830B5012B13D0D7
:10C0D800022B27D07BB90A46184B03F1100453F8FA
:10C0E800045BA34242F8045BF9D11B7813704388C0
:10C0F8004B731B0A8B7330BD0A46104B03F11004B7
:10C1080053F8045BA34242F8045BF9D11B7813701F
:10C118004368C3F307224B731B0CCB731B0A8A7348
:10C128000B74E8E700F1100350F8042B984241F82B
:10C13800042BF9D103780B70DDE700BFA0210200C2
:10C14800012838B505460CBF0648074812F007FA1B
:10C15800044620B101210C3012F063FA25762046FE
:10C1680038BD00BFE485002060850020024600201D
:10C1780070B50B460A49D1E8EF4FC1E8E50F002D2D
:10C18800F9D124B9BDE870400120FFF7D9BF0121DA
:10C198002082217604F10C0012F043FA204670BD8B
:10C1A8004081002070B504460F2C0D4610461946F4
:10C1B80005D80D2C0DD9BDE87040FFF7D7BF132C5B
:10C1C80007D10C4812F0CBF9044638B900242046B0
:10C1D80070BD02460B4645B10748F3E701210C3014
:10C1E80012F01FFA01232376F1E70120BDE8704021
:10C1F800FFF7A6BF68860020B88500202DE9F0412A
:10C2080005460E46904682B000AFAB88012B18D980
:10C21800284612F04CFA044698B1AB88984214D9D3
:10C228006D4688B06A46D36104231149C2E90510F6
:10C2380042F8103F00234FF402510E48FEF780FAEF
:10C24800AD460837BD46BDE8F081284612F02FFA02
:10C258002B683870013C414638467C707B60B0479B
:10C268000028EED02146284612F011FACDE700BF8B
:10C27800B12102000409020070B58EB06C46064672
:10C288000A4D0D2E0FCD0FC40FCD0FC40FCD0FC407
:10C2980095E8030084E803009DBF0EAB03EB860618
:10C2A80056F8380C02480EB070BD00BF4C0A0200A8
:10C2B800DC21020038B5C368B3F801401B786BB9BC
:10C2C8000F21204602F0EEFE054640B9084B1A88B9
:10C2D80022B96FEA04506FEA1050188038BD012166
:10C2E80002F00EFF2846BDE8384010F06CB900BFD8
:10C2F8007C9B00207FB5064B4FF4825105930223A7
:10C30800044804AA04930FF0E9FE07B05DF804FBA3
:10C31800E42102001C090200F0B583B0C5680121C0
:10C32800B5F8016000AF304602F0BCFE044688B99B
:10C338006C4688B06A461E4B4FF4C251C2E90536B6
:10C3480003231C4842F8103F0FF0C8FEA5460C37DF
:10C35800BD46F0BD2B781A2B17D1C378012B22D1FB
:10C368004FF4806104300FF0A2FE43050DD4D4F8D9
:10C37800A03039463B60D4F8A83020467B6003F0F3
:10C388004DFD204610F01FF9E1E72B785BB9B5F8B1
:10C398000330A4F89E30B5F80530A4F8A430B5F8F9
:10C3A8000730A4F8A630204602F0FCFFE9E700BFFA
:10C3B800FE2102001C09020098B5014600AF0D4895
:10C3C80012F0D4F80C490D4813F087FB00280EDA58
:10C3D8006C4688B06A460A4B4FF4C251C2E9053030
:10C3E8000323084842F8103F0FF078FEA546BD46E3
:10C3F80098BD00BF448100201482002008900020CE
:10C40800222202001C0902000B46B0B50D8A00AFBB
:10C4180004462946D868FFF7D5FD8AB06A46094B15
:10C42800C2E90750C2E9053440F202439384064B3F
:10C438004FF43251054842F8103F0FF04FFEBD4609
:10C44800B0BD00BF3F220200050000011C09020028
:10C45800B0B5044600AF02EBC303934203D12046B4
:10C46800FFF7D2FF18E0104610F8085BA54219D173
:10C478000B8A5078984211D96D4688B06A460A49A5
:10C48800D461C2E9051304234FF40151074842F867
:10C49800103F0FF023FEAD46BD46B0BD08465368B9
:10C4A8009847F9E70246D8E7612202001C09020012
:10C4B8002DE9F0415D4800AF12F06EF804460028FF
:10C4C8007CD0037E012B7CD0032B40F0A980038A0B
:10C4D800032B0CD84FF40073554A564956480EF0B2
:10C4E80051FB404080F311884FF0030002DF042124
:10C4F80004F10C0012F0D3F84588B0F8008020460B
:10C5080008F0E6FA4D4EC8F30B0326F81030238ADC
:10C518009D4213D06E4688B06A464949D561C2E942
:10C52800051304234FF40151464842F8103F0FF019
:10C53800D5FDB546204608F071FB26E0204608F0F8
:10C54800C7FA0F2136F8100002F0ACFD0546A0B975
:10C55800204608F0BDFA6D4688B036F810306A46B5
:10C568003949C2E9051303234FF4C251354842F84B
:10C57800103F0FF0B3FDAD46DCE721464FEA183215
:10C5880002F02CFC284610F01EF8304BD3F844314A
:10C59800A3B12F492F4813F0A0FA00280EDA6C46F1
:10C5A80088B06A462C4B4FF4C251C2E905300323C8
:10C5B800244842F8103F0FF091FDA546BD46BDE85E
:10C5C800F081038A012B0CD840F65D23184A1949DB
:10C5D80019480EF0D7FA404080F311884FF0030055
:10C5E80002DF022104F10C0012F059F80546007828
:10C5F8000FF032FD83070CD440F661230C4A17492B
:10C608000D480EF0BFFA404080F311884FF0030048
:10C6180002DF06232146124A2878FFF719FF89E727
:10C628006D4688B06A460F499BE700BF44810020E9
:10C6380083220200B7220200D02202007E9B002043
:10C64800ED2202001C0902001123020000800020D4
:10C6580014820020089000202222020033230200C6
:10C66800541002006123020010B5012104460C3069
:10C6780012F015F82146BDE810400B23014A007856
:10C68800FFF7E6BE8410020080B5012100AF0C3030
:10C6980012F005F888B06A46037806490648C2E9E8
:10C6A800051303234FF4C25142F8103F0FF016FD53
:10C6B800BD4680BD752302001C09020080B5C36811
:10C6C80000AF88B06A461B7806490748C2E90513D7
:10C6D80003234FF4C45142F8103F0FF0FFFCBD464E
:10C6E80080BD00BF972302001C090200B0B5C368D3
:10C6F80000AF1C880121204602F0D4FC80B96D46A9
:10C7080088B06A46084B4FF4C251C2E90534032386
:10C71800064842F8103F0FF0E1FCAD46BD46B0BDFB
:10C728000FF051FFFAE700BFFE2102001C090200CA
:10C73800B0B5C36800AFB3F801400121204602F04C
:10C74800B1FC80B96D4688B06A46084B4FF4C251B7
:10C75800C2E905340323064842F8103F0FF0BEFC37
:10C76800AD46BD46B0BD0FF02EFFFAE7FE21020030
:10C778001C090200F8B5C5680121B5F8016000AFD1
:10C78800304602F08FFC044680B96C4688B06A4691
:10C79800104B4FF4C251C2E9053603230E4842F844
:10C7A800103F0FF09BFCA546BD46F8BD2B783BB962
:10C7B800D5F80330C0F8AC30D5F80730C0F8B03041
:10C7C8004FF40051201D0FF072FC20460FF0FBFEC5
:10C7D800EAE700BFFE2102001C0902002DE9F84328
:10C7E800064600AF907A8846144608F069F9414D2C
:10C7F800854218D0A47AE846204608F061F98AB044
:10C808006A463D4BC2E90740C2E905360623556230
:10C818004FF44251394842F8103F0FF05FFCC546CB
:10C82800BD46BDE8F883204608F052F94FF00C09E0
:10C83800334D09FB00504388B34216D0204608F018
:10C8480047F909FB00506C4688B06A464388D361B3
:10C8580004232C492948C2E905164FF4025142F82D
:10C86800103F0FF03BFCA546DAE7274ED6F840010B
:10C8780020B108F0D3F90023C6F84031204608F06B
:10C8880027F90C2606FB00504368ABB1B8F1000F3E
:10C8980012D1204608F01CF9012106FB005042681D
:10C8A800D2E90003127A03F01F06B1405B09DAB13E
:10C8B80000EB83000FF0FBFB204608F009F90C267B
:10C8C80006FB00508368002BAAD0204608F000F928
:10C8D800704305F80080204608F0FAF806FB00557A
:10C8E800A8680BF0DFFA9BE7C94300EB83000FF061
:10C8F800F8FBE1E73C860020BF2302001C09020088
:10C9080074970020F42302000080002038B5042129
:10C9180004460C3011F0C3FE457801782246408861
:10C92800FFF75CFF25B1BDE8384002480BF0BABA02
:10C9380038BD00BF2881002038B5032104460C30DB
:10C9480011F0ADFEE368057822461978B0F80100C9
:10C95800FFF744FF25B1BDE8384002480BF0A2BA02
:10C9680038BD00BF288100202DE9F04F87B0012392
:10C97800D0F80C80018A98F8004000AF03EB8403DC
:10C988008B4240F28D806D468AB06A46C2E9073113
:10C99800052346484FF42151C2E90504444842F8AA
:10C9A800103F0FF09BFBAD461C37BD46BDE8F08F2E
:10C9B8006C4688B06A463F4B4FF4C251C2E9053B0A
:10C9C80003233B4842F8103F0FF088FBA54601358A
:10C9D80098F800309D42E7DA08EB8503B3F801B018
:10C9E8000F215846B3F8036002F05CFB04460028A8
:10C9F800DED000F1280B46B34FF02003EFF311828D
:10CA080083F31288BFF36F8FE3696BB1013BE36176
:10CA180082F31188BFF36F8F204602F0A5F9013E1B
:10CA28000BF040FAB6B2E6E7636993B982F311886E
:10CA3800BFF36F8F02234FF482511D4807F1100294
:10CA4800C7F814A03B610FF049FB20460FF0BBFD6F
:10CA5800BDE7A16918688B42606108BFA06182F3D5
:10CA68001188BFF36F8F4FF02002EFF3118182F32B
:10CA78001288BFF36F8FDA68E261C3F80C90C3F8CD
:10CA88000090626A4AB9C4E9083381F31188BFF398
:10CA98006F8F58460BF082FBBEE713606362F4E7C2
:10CAA8000025DFF814A0A94692E700BF272402005A
:10CAB8001C090200512402006D2402002DE9F041F6
:10CAC800C66800AF3578B5B9B6F801800F21404681
:10CAD80002F0E8FA044688B96C4688B06A46144BF6
:10CAE8004FF4C251C2E905380323124842F8103FF7
:10CAF8000FF0F4FAA546BD46BDE8F081F378294663
:10CB0800037302F0FDFAA378012B03D020460FF03F
:10CB18005AFDF0E7231DD3E8AF3FDB07F6D52046E3
:10CB2800022102F0EDFA284601F054FCEEE700BFBE
:10CB3800842402001C09020010B5C1E900239DF8F5
:10CB480008300C460B7207F0C3FF0C22024B02FBA5
:10CB580000335C6010BD00BF749700202DE9F047DA
:10CB68004FF0FF324FF0FF33064617480F4611F0DB
:10CB7800F6FC4FF00008044600F10C0A012150466B
:10CB880011F04FFD204684F8188007F0A1FF4FF000
:10CB98000C090E4D09FB00504680204607F098FF0F
:10CBA80009FB0050C0F80880204607F091FF09FBF8
:10CBB800005503215046C5F8048011F036FD068063
:10CBC80087702046BDE8F0873C86002074970020D7
:10CBD8002DE9F04387B0804615460C4600AF21B9D1
:10CBE800FFF7BCFF044600285DD00122002138462B
:10CBF80012F0C3FE204607F06BFF0C23DFF8B49059
:10CC080003FB00908760204611F0DFFC01462A48AC
:10CC180011F0D9FC4FF4A022002338460BF068F934
:10CC2800064688B14FF4A973244A254925480DF0D2
:10CC3800A9FF3246414624480DF0A4FF404080F346
:10CC480011884FF0030002DF204607F041FF0C2354
:10CC5800584319F80060F6B16D4688B06A461B4B18
:10CC6800D661C2E9053804234FF40251184842F846
:10CC7800103F0FF033FA2046AD4607F0CFFF092EDC
:10CC880014D00D2E0CBF6FF00B006FF004001C3792
:10CC9800BD46BDE8F08315B12C600020F7E72046BB
:10CCA80007F0BCFFF9E76FF06800F0E76FF06E007F
:10CCB800EDE700BF749700204C810020832202001A
:10CCC800AA240200D0220200B3240200DF240200BA
:10CCD8001C09020070B588B006460D4642F22F00C6
:10CCE800002101AAFFF774FF044660B10B4B4FF413
:10CCF8008251079302230A4806AA06930FF0EEF919
:10CD0800204608B070BD0198C368B3F8012032808E
:10CD1800B3F803302B8007F081FFF1E7FB24020012
:10CD28001C090200F7B5144B054693F99B300C46D5
:10CD3800002B1DDA14B9204603B0F0BD082C4FF0C3
:10CD4800000142F2180001AA264628BF0826FFF76C
:10CD58003FFF0028F0D1019F3246F968284601318B
:10CD680013F09CFB384607F059FF3544A41BE1E754
:10CD78006FF08500E0E700BF00800020F0B587B0C5
:10CD880006460DF10B01002001F04AFA054600287D
:10CD980045D1192142F20D00FFF7E0FE07460028B1
:10CDA80040D019210C3011F040FC044629461922C4
:10CDB80013F081FB9DF80B301C4A237392F8211164
:10CDC80092F82031601D994294BF06F1880106F15E
:10CDD80096010FF077F9938938462380D389144A4E
:10CDE8006380B6F8A030A4F80D30B6F8A230A4F8E5
:10CDF8000F30B6F8A430A4F81130B6F8A630A4F86D
:10CE08001330012300930C230DEB0301FFF794FE6D
:10CE18000022394642F20D00FFF7DAFE05462846A1
:10CE280007B0F0BD6FF06805F9E700BF008000208B
:10CE3800D480002030B5002187B042F20E00FFF701
:10CE48008DFE00250C2304460DEB0301054A0095D1
:10CE5800FFF772FE2A46214642F20E00FFF7B8FE9F
:10CE680007B030BDD48000202DE9F0438DB00546D1
:10CE78000026A84BB0F80180198848F47042914206
:10CE880002AF04BF1E80012601F048F82C78002C60
:10CE98003AD0022C28D100210622084602F0ECFBE9
:10CEA800054680B99C4B4FF48251C7E908439B481B
:10CEB80007F120020FF012F9002001F08BFA2C374D
:10CEC800BD46BDE8F0830021047302F019F92B1D5B
:10CED800D3E8AF3FDE0703D52146284602F010F914
:10CEE80028460FF070FBE7E76D4688B002AA8C4B26
:10CEF8004FF4C451C2E905340323884842F8103F6F
:10CF08000FF0ECF8AD46DAE7EB7805F10409012BF0
:10CF180008BF844B484608BF93F86F400FF098F855
:10CF2800494638B307F110000FF087F805F11101F1
:10CF380007F109000FF0CDF801233B72E87838B308
:10CF48004846FFF761F86C4688B002AA764B4FF462
:10CF5800E251C2E905304FF400739383734B6F4875
:10CF680042F8103F0FF0BAF81321A54640460FF0DB
:10CF7800D0F8A4E720460FF00DFA014607F110009B
:10CF88000FF0A0F8494607F108000FF09BF8D5E725
:10CF9800062207F1100102F06FFBEB78044623B973
:10CFA8006FF4805162480FF09CF8002CC8D02046DE
:10CFB8000022B5F8013007F1100120F8883B0FF086
:10CFC80081F8B5F81730A4F89E30B5F81930A4F8F0
:10CFD800A430B5F81B30A4F8A630EB782273E370C0
:10CFE80073B907F1080104F196000FF06BF8217A84
:10CFF8004C4BC1EBC101194404F18F000FF062F8EA
:10D008000721204602F07CF81EB10121204602F0DB
:10D0180077F820460FF0DAFA637B072B6ED1231DD1
:10D02800D3E8AF3F13F4005F3E4D29D1E3781BB13D
:10D0380095F8D830180723D5022142F21600FFF7D9
:10D048008DFD0646002861D002210C3011F0EDFA62
:10D05800238800220380314642F21600FFF7B8FD0C
:10D0680070B16E4688B002AA324B4FF4C251C2E981
:10D0780005300323294842F8103F0FF02FF8B54632
:10D0880095F8D930D90716D50021022320461A462B
:10D0980000910FF077F870B16E4688B002AA264B5F
:10D0A8004FF4C251C2E9053003231C4842F8103F2F
:10D0B8000FF014F8B54695F8D8309A061ED5D5F86D
:10D0C80064319B689B0719D5B91D381DFFF702FE0F
:10D0D800A0B92046FA88B9880FF036F870B16D46C5
:10D0E80088B002AA154B4FF4C251C2E90530032398
:10D0F8000A4842F8103F0EF0F1FFAD4620460FF007
:10D1080062FAE378002B7FF4DAAED5E66FF06800B8
:10D11800A7E700BF7C9B00201B2502001C0902001A
:10D12800392502000080002052250200030000017A
:10D13800D48000206E2502008F250200A62502005B
:10D1480000B5C16889B00B7801A88DF80030B1F836
:10D1580001300431ADF8013011F8013C8DF803308D
:10D16800B1F80730ADF81730B1F80930ADF819301B
:10D17800B1F80B30ADF81B304B7B8DF81D300EF03D
:10D18800A1FF07490DF10B000EF0A3FF0DF11100EF
:10D198000EF09FFF6846FFF767FE09B05DF804FBD5
:10D1A8007921020029289ABF014B185C0920704791
:10D1B8001D290200F0B587B0C3680F21B3F80160DC
:10D1C80000AF30461D7801F06DFF044688B96C4603
:10D1D80088B06A461E4B4FF4C251C2E90536032394
:10D1E8001C4842F8103F0EF079FFA5461C37BD4693
:10D1F800F0BD5DB12846FFF7D5FF29460246204617
:10D2080002F07AF920460FF0DEF9EFE78378012B78
:10D21800F0D107F069FA20460EF030FF0028E9D176
:10D228000520FFF7BFFF05210246204602F064F9FA
:10D23800094B4FF482517B610223064807F1100223
:10D248003B610EF04BFF052120460FF097FAD9E716
:10D25800842402001C090200C22502002DE9F041C5
:10D2680086B0C6680F21B6F8018000AF4046357811
:10D2780001F018FF044690B96C4688B06A46244B02
:10D288004FF4C251C2E905380323224842F8103F3F
:10D298000EF024FFA5461837BD46BDE8F0815DB104
:10D2A8002846FFF77FFF29460246204602F024F968
:10D2B80020460FF088F9EEE78278F378012AC372E6
:10D2C80005D00020FFF76EFF00210246EDE70BB105
:10D2D80007F00AFA20460EF0D1FE0028F1D1052009
:10D2E800FFF760FF05210246204602F005F90A4BC8
:10D2F8004FF482517B610223064807F110023B611B
:10D308000EF0ECFE052120460FF038FAD0E700BFFA
:10D31800842402001C090200C2250200024BD3F833
:10D3280064315B69184700BF00800020F8B50546E6
:10D338000C4600AF19B9FFF711FC044618B340F6C4
:10D3480035439D4219D12046FFF7E8FF054688B1CD
:10D358006E4688B06A460D4B4FF4C251C2E905309B
:10D3680003230B4842F8103F0EF0B8FE2046B5469E
:10D3780007F054FC2846BD46F8BD2146054811F083
:10D3880022F90025F6E76FF06805F3E7E8250200C3
:10D398001C0902004C8100202DE9F04186B000AF45
:10D3A800044607F095FB324B33F81050A07A07F08B
:10D3B80087FB214612F0D3FA2E4B93F88A309B064E
:10D3C80014D50F21284601F06DFE044690B96C462D
:10D3D80088B06A46284B4FF4C451C2E90535032387
:10D3E800264842F8103F0EF079FEA5461837BD468C
:10D3F800BDE8F081437B073B012B0ED9204B4FF44E
:10D4080084517B6102231D483B6107F110020EF035
:10D4180065FE20460FF0D7F8E8E70FF0D4F80521AD
:10D4280040F63540FFF79AFB044658B9154B4FF4C0
:10D4380082517B61022311483B6107F110020EF013
:10D448004DFED3E700F10C080121404611F0EDF83C
:10D45800012604210670404611F0E7F800230580F4
:10D468008670C370214640F63540FFF75FFFBDE781
:10D478007E9B0020008000200A2602001C09020072
:10D4880034260200602602002DE9F0418CB0C46801
:10D498000121268802AF1FFA86F8404601F002FEF5
:10D4A800054690B96C4688B002AA2D4B4FF4C2517C
:10D4B800C2E9053803232B4842F8103F0EF00EFE50
:10D4C800A5462837BD46BDE8F081D4F80220D4F837
:10D4D800063001976189009110F0D6FD70B31221D2
:10D4E80042F21A00FFF73AFB044670B91E4B4FF49C
:10D4F80082517B6202231B483B6207F120020EF037
:10D50800EDFD28460FF05FF8DBE712210C3011F033
:10D518008CF803463A4623F8026B07F1100C1646BE
:10D5280003CE664518605960324603F10803F6D108
:10D53800214642F21A00FFF7F9FEE2E7022142F221
:10D548001B00FFF70BFB04460028CFD002210C304C
:10D5580011F06BF82146068042F21B00EBE700BF92
:10D56800FE2102001C09020083260200F0B583B0E8
:10D57800C36800AFD9789A781E8842EA01223A80B7
:10D5880059791A79B4B242EA01227A80D9799A791A
:10D59800204642EA0122BA801A7A5B7A012142EADD
:10D5A8000323FB8001F07EFD0546A8B96D4688B0CF
:10D5B8006A461E4B4FF4C251C2E9053403231C4886
:10D5C80042F8103F0EF08AFD0221AD4620460EF0CB
:10D5D80025FE0C37BD46F0BD394601F025FF38B9A8
:10D5E8001E2120460EF01AFE28460EF0ECFFF0E74A
:10D5F8000E2142F22000FFF7B1FA04460028F3D0CA
:10D608000E210C3011F011F800230680C0F80A3002
:10D618003B88214643807B888380BB88C380FB8806
:10D62800038142F22000FFF781FEDDE7FE210200C0
:10D638001C0902002DE9F04FDFF8548187B0DFF8AC
:10D64800549100AFD8F80C3053486FF39433C8F8AE
:10D658000C3001F0DFFC451C4FF0FF324FF0FF3378
:10D6680029464B480BF0CAFB60B140F6DE234A4618
:10D678004A494B480DF086FA404080F311884FF034
:10D68800030002DF4FF0030A414E15B90BF0A6F86C
:10D69800D8E7F368C3F38633022B60D9042B68D12B
:10D6A800337B002B5ED1002200233E4810F05CFF44
:10D6B800044660B94FF427634A463B4938480DF0A1
:10D6C80061FA404080F311884FF0030002DFDFF871
:10D6D800DCB04FF0FF334FF0FF3235480AF008FC5A
:10D6E800DBF840318BB1334B4FF482517B6102231D
:10D6F800314807F110023B610EF0F0FCDBF8400105
:10D7080007F08CFA0023CBF84031204610F05DFF7B
:10D71800CBF840012046FFF701FE00B3EB4688B086
:10D728006A46264B4FF4C251C2E90530032322480A
:10D7380042F8103F0EF0D2FCDD461D480AF0B2FB5D
:10D74800204607F0C5F90C221D4B1F2102FB0030B3
:10D7580022464088FFF742F8204607F05FFA143661
:10D76800013D92E7012BFAD13069383802F024F9EB
:10D77800F5E76C4688B06A4612490F48C2E90513B6
:10D788004FF4C45142F810AF0EF0A8FCA546E6E7E6
:10D79800D881002083220200EC810020AA24020004
:10D7A800D02202004C8100202C3B02000080002087
:10D7B800288100209A2602001C090200E8250200A0
:10D7C80074970020B52602002DE9F041044600F1C7
:10D7D8000C06304610F07BFFB4F810800546B8F10F
:10D7E800010F0CD840F685631B4A1C491C480DF0F4
:10D7F800C9F9404080F311884FF0030002DF30463A
:10D80800022110F04CFF074600780EF025FCC207F5
:10D8180006460CD440F689630F4A124910480DF0A9
:10D82800B1F9404080F311884FF0030002DF05236F
:10D8380021460D4A3878FEF70BFEB30707D5636912
:10D84800A4F8108013FA85F5E560BDE8F08120465C
:10D85800BDE8F04107F0E2B983220200B7220200D6
:10D86800D0220200D62602002C100200B0B5037E9A
:10D878000446012B00AF06D0032B12D1FEF79CFD06
:10D888000020BD46B0BDC36818780EF0E5FBC2079E
:10D89800054602D52046FFF797FFAB07F0D520468F
:10D8A800ECE76D4688B06A4608490948C2E905139D
:10D8B80003234FF4C25142F8103F0EF00FFC2046EC
:10D8C800AD4607F0ABF96FF01500DAE7EF26020076
:10D8D8001C090200084A0346D2F8640130B9D96825
:10D8E80039B1596929B1C2F8643170476FF07700CE
:10D8F80070476FF015007047008000202DE9F84F41
:10D90800042100AF3E4C3F480EF0D1FB002000F050
:10D9180061FD3D4DE2793D4B2046012A88BF1D46F9
:10D928006E46FEF771FB8AB06A46394BA346C2E9D8
:10D9380005350125374BD0611362374B4FF423511E
:10D94800364842F8103F0EF0C9FBDFF8D480B546E0
:10D95800DFF8C890334EE3790BF1070B9D4238DBB3
:10D9680094F870506E462846FEF786FC8CB06A46DE
:10D97800B4F87210B4F87630C2E907514FF4007564
:10D988005362DFF8A4C0294BC2E905C015854FF4DE
:10D99800535142F8103F21480EF0A0FBB54694F8C9
:10D9A80071603046FEF768FC8AB06A46B4F8743095
:10D9B8001F49C2E907631F4BC2E9051095844FF45C
:10D9C8003351164842F8103F0EF088FBBD46BDE8BB
:10D9D800F88F5846FEF718FBEA468AB06A4640F2C6
:10D9E8000133C2E90565D06113844FF413514846E9
:10D9F80042F8108F0EF072FB0135D546ABE700BF39
:10DA080000800020D480002040400200032702004C
:10DA18000727020000020103040000021C0902009B
:10DA28000400000116270200272702000600000153
:10DA3800652702000500000110B5FAF70DFD034B3C
:10DA48001B6813B1BDE81040184710BDEC970020C3
:10DA5800F0B58FB03B4D0646D5F8643108AF83B9B1
:10DA6800394B6FF012047B6102234FF4825137481F
:10DA780007F110023B610EF031FB20461C37BD4612
:10DA8800F0BD6FF0020105F1D4000EF02AFB012170
:10DA98000EF00DFB10EA010450D12D4B1E600A4612
:10DAA80005F5947011F069FF05F5A67011F040FFB7
:10DAB80000220023CDE906236FF008034FF48062AB
:10DAC800CDE90243CDE90044224B2349049423487D
