:020000040800F2
:1000000000110020D108000891050008BD08000873
:10001000BD080008BD080008BD0800080000000079
:10002000000000000000000000000000BD09000802
:10003000BD08000800000000590900082517000845
:100040004D0B00084D0B00084D0B00084D0B000830
:100050004D0B00084D0B00084D0B00084D0B000820
:100060004D0B00084D0B00084D0B00084D0B000810
:100070004D0B00084D0B00084D0B00084D0B000800
:100080004D0B00084D0B00084D0B00084D0B0008F0
:100090004D0B00084D0B00084D0B00084D0B0008E0
:1000A0004D0B00084D0B00084D0B00084D0B0008D0
:1000B0004D0B00084D0B00084D0B00084D0B0008C0
:1000C0004D0B00084D0B00084D0B00084D0B0008B0
:1000D0004D0B00084D0B00084D0B00084D0B0008A0
:1000E0004D0B00084D0B00084D0B00084D0B000890
:1000F0004D0B00084D0B00084D0B00084D0B000880
:100100004D0B00084D0B00084D0B00084D0B00086F
:100110004D0B00084D0B00084D0B00084D0B00085F
:100120004D0B00084D0B00084D0B00084D0B00084F
:100130004D0B00084D0B00084D0B00084D0B00083F
:100140004D0B00084D0B00084D0B00084D0B00082F
:100150004D0B00084D0B00084D0B00084D0B00081F
:100160004D0B00084D0B00084D0B00084D0B00080F
:100170004D0B00084D0B00084D0B00084D0B0008FF
:100180004D0B00084D0B00084D0B00084D0B0008EF
:100190004D0B00084D0B00084D0B00084D0B0008DF
:1001A0004D0B00084D0B00084D0B00084D0B0008CF
:1001B0004D0B00084D0B00084D0B00084D0B0008BF
:0401C0004D0B0008DB
:1001C40053B94AB9002908BF00281CBF4FF0FF31BA
:1001D4004FF0FF3000F00CB8ADF1080C6DE904CE1F
:1001E40000F008F8DDF804E0DDE9022304B070470C
:1001F400704700BF2DE9F04786468C460846089EA6
:10020400154674461946002B40F0C2808542B2FA66
:1002140082F245D94AB1C2F1200300FA02FC2EFA57
:1002240003F3954043EA0C0C94404FEA154EA8B2F0
:10023400BCFBFEF8230C0EFB18CC08FB00F943EAC8
:100244000C43994528D9EB1808F1FF3704D2994596
:1002540002D9A8F102072B44A3EB0903A4B2B3FB10
:10026400FEFC0EFB1C330CFB00F044EA0344A042EA
:1002740014D92C190CF1FF3304D2A04202D9ACF1E9
:1002840002032C44241A43EA07401EB1D44000233D
:1002940034607360BDE8F0874746DDE76346F1E705
:1002A40092BB431B01214FEA154EAFB2B3FBFEFCD8
:1002B400200C0EFB1C330CFB07F840EA0343984563
:1002C40062D9EB180CF1FF3004D2984502D9ACF195
:1002D40002002B44A3EB0803A4B2B3FBFEFC0EFB09
:1002E4001C330CFB07F744EA0344A7424ED92C19EC
:1002F4000CF1FF3304D2A74202D9ACF102032C441F
:10030400E41B43EA0040C0E7C2F1200320FA03F1F2
:10031400954090402EFA03F303434FEA154EAFB2D3
:10032400B1FBFEFC0EFB1C10190C0CFB07F841EA98
:100334000041884504FA02F422D969180CF1FF300F
:1003440004D2884502D9ACF102002944A1EB08018A
:100354009BB2B1FBFEFC0EFB1C110CFB07F743EA3E
:1003640001439F420ED9EB180CF1FF3104D29F4296
:1003740002D9ACF102012B44DB1B41EA004192E7B4
:100384006046E3E76146F7E76046A3E76346B7E7FD
:10039400834206D916B9002108467BE7C6E900E086
:1003A400F9E7B3FA83F78FB9834201D3724508D8CA
:1003B400BEEB020460EB030301209C461EB900213E
:1003C40068E73846FAE7C6E9004CF8E7C7F1200CBD
:1003D400BB4022FA0CF41C432EFA0CF120FA0CF365
:1003E400B84001434FEA14490EFA07F5B3FBF9F894
:1003F4001FFA84FE09FB18300B0C08FB0EFA43EAC3
:1004040000439A4502FA07F240D9E31808F1FF3095
:1004140004D29A4502D9A8F102002344A3EB0A03AB
:1004240089B2B3FBF9F809FB183308FB0EFE41EA65
:1004340003418E452CD9611808F1FF3304D28E454F
:1004440002D9A8F10203214443EA0040A0FB029828
:10045400A1EB0E014145CE46434602D306D14D459C
:1004640004D2B9EB020E68EB04030138002EA6D0C7
:10047400B5EB0E0261EB030101FA0CFC22FA07F35F
:100484004CEA0303F940C6E9003198E74046C5E762
:100494004346D9E708B50A48094D0A4C01F038FA31
:1004A400084801F019FA284603F047FE18B9204617
:1004B40003F033FEF7E7204603F037FEF3E700BF0F
:1004C400A84C0008A04C0008014B1B68184700BF4B
:1004D4000000002030B585B004460D4610220021EE
:1004E400684604F02EF802238DF802302A46044BA5
:1004F40001932146684602F0F5F805B030BD00BF0F
:10050400CD040008014B1860704700BF00000020B4
:1005140080B505460E461746984601F0FBFE034695
:1005240004F018F8DFF81890044649F80030424601
:1005340030463946A84754F8090000F0DDF900BFF9
:1005440008000000064B1A6842F400721A601A6828
:1005540042F480621A60034B034A1A600020704719
:10056400003C0240540000200024F400034A536875
:1005740023F0020353600020704700BF002004E012
:10058400014B036000207047B04C000808B5034BD2
:100594001B689847BDE8084000F034B80400002008
:1005A40030BFFFF7FDBF00BF114B124A2DE9F041E8
:1005B400D518DFF84480013DB5FBF3F55D430F4BDF
:1005C40008EB0304013CB4FBF3F403FB04540E1BDB
:1005D40007460B49304603F0A6FF70194246002136
:1005E400083E03F0AEFF3E6704F10800BDE8F08169
:1005F40001000000000000000400000004000000EE
:10060400084A0008044B99685869884203D0034992
:100614004FF080520A607047F802002004ED00E0B9
:1006240070B5264B15469A6A12F0100F9A6A14BFD9
:100634001124102412F0080F9A6A18BF122492078A
:1006440006460AD5586B9A6A140634D519B19A6AC3
:1006540022F080029A62132401E06FF01500174B18
:100664009A6A12F0010F9A6A18BF142412F0200F2C
:100674009A6A18BF1524D20602D49B6A9B070AD52E
:100684000E4B5B68190506D5314600F00BFA10B124
:1006940080F309880224094B9A6A920642BF5A6A77
:1006A40022F400525A629A6A42F0FF029A620023CC
:1006B4002B70204670BD6FF01500CCE700ED00E014
:1006C400134B9A6A12F0007F9A6A14BF1E201D20F1
:1006D40012F0807F9A6A18BF1F2012F4002F9A6AC2
:1006E40018BF212012F4802F9A6A18BF222012F416
:1006F400003F9A6A18BF232012F4803F9A6A6FEA77
:1007040002426FEA12429A6218BF2420704700BF67
:1007140000ED00E010B5194B0246986A9C6A10F48B
:10072400805F14BF1720162014F4006F9C6A18BF52
:100734001820A40509D5986B986A000404D51AB149
:100744009A6A22F400429A6219200C4B9A6A12F4B3
:10075400806F9A6A18BF1A20D2050CD49B6A13F4CE
:10076400005F18BF1C20054A936A43F47F439362D9
:1007740000230B7010BD1B20F5E700BF00ED00E067
:10078400F0B5484B5B688BB00446C3F308030025FF
:1007940085F31188BFF36F8F02F07F40B0F17F4F74
:1007A40011D102F00C0008280DD010074CBF0C46E4
:1007B40001250022033B8DF80720032B05D8DFE831
:1007C40003F0246367602C46F3E700239DF80720B9
:1007D400CAB902AE04F1200720686168324603C238
:1007E4000834BC421646F7D1099A002D54D0C2F3FE
:1007F400080121B96FEA52226FEA4222099202A942
:10080400184603F040F90BB0F0BD264BDA6A9107A5
:10081400DBD4DA6A002AD8DBDA6A5200D5D55A6901
:10082400A16942F480725A61BFF34F8FBFF36F8F97
:100834005A6931F8021C22F480725A61BFF34F8F57
:10084400BFF36F8F4DF6027291420AD09A6AD2B208
:100854004AB10DF1070201212046FFF7E1FE0346EC
:10086400B4E72368B2E79A6A12F47F4F05D00DF11A
:1008740007010120FFF74EFFF1E79B6AB3F5803FC4
:10088400A3D3FFF71DFFEAE70DF107020021E3E719
:100894000DF107010020EDE722F4FF7222F00102BE
:1008A400ACE700BF00ED00E0024A536943F01003D7
:1008B4005361704700ED00E0EFF30880EFF3098126
:1008C40001B57246FFF75CFF01BD00BF102080F345
:1008D400118808484FF40461401880F30988EFF345
:1008E40014800221084380F31488BFF36F8F00F053
:1008F40099F8000040030020084B9B6883420BD109
:10090400EFF3058343B1064B5A6842F080525A60B4
:100914005A6A22F400425A6203F094BCF80200209E
:1009240000ED00E0094A93686FF00A0199670849ED
:1009340058674B6843F080534B60002383F311885E
:10094400BFF36F8F9368986F704700BFF802002061
:1009540000ED00E015498A684FF030001044EFF3D1
:10096400098C80E8F01F102080F31288BFF36F8F8A
:100974000F4F4FF000664A698A603E604FF0700482
:10098400141920680B4C2060506F0023536780F3C8
:10099400118804B5104600F0F7F8BDE8044002F1F0
:1009A400300090E8F01F8CF309887047F8020020AB
:1009B40004ED00E0C00100201EF0040F0CBFEFF3B3
:1009C4000880EFF30980816911F8021C0229FFD025
:1009D40001B503F05AF801BD40B2002807DB044A10
:1009E4004109012300F01F00834042F82130704781
:1009F40000E100E040B20028A8BF00F1604001F12E
:100A04000101B8BF064B4FEA0111ACBF00F56140CC
:100A140000F00F00C9B2B4BF195480F80013704736
:100A240014ED00E00F4A08B50F4B22F07F029A60E4
:100A3400BFF34F8FBFF36F8FD3F8882022F4700277
:100A4400C3F88820EFF3148323F0040383F314889A
:100A5400BFF36F8F01F036F901F062FC00F068F823
:100A640001F082F90000000800ED00E042F8203CAB
:100A7400009B42F81C3C0A49019B42F8183C029B2B
:100A840042F8143C21F001014FF0807342F8043C19
:100A940042F8081C0023203A02654367704700BFF0
:100AA40015050008094A0346906870B113F1160F42
:100AB400006E05D0A0F140029A4205D8834203D2C9
:100AC400814228BF0020704700207047F8020020B0
:100AD40008B514460A4A0B4B9060026F1A600D4623
:100AE40000F052F8204685F30988002163B681F3AB
:100AF4001188BFF36F8F00220023FFF709FD00BFA9
:100B0400F8020020C0010020014910220A60704749
:100B140010ED00E072B6404080F31188BFF36F8F90
:100B2400BFF34F8F30BF62B6BFF36F8F704700BF04
:100B3400044800231021C2180133612B82F80013EA
:100B4400F9D1704700E100E001B5EFF30580A0F1B1
:100B540010004FEAC0000449014409C99847BDE8A0
:100B64000140024908470000004700080906000840
:100B7400024B034A0348012100F076B8000002202A
:100B840000000020B04C0008026E054B403A1A6089
:100B9400044A4021C3E901121846012100F06EB84D
:100BA400C401002000000B15084AC2F898000B6825
:100BB40023F01F03034343F01003C2F89C308B68F7
:100BC40043F00103C2F8A030704700BF00ED00E01D
:100BD4002DE9F043DFF8608085B00E461F460446D9
:100BE4004FF00009B14523DA6068D8B13FB1411E26
:100BF40008421BD11F2819D92368194216D123682A
:100C0400019302F04AFFA36803430393D8F890507A
:100C1400C5F30725D0B2013DA84207D801A9FFF7C3
:100C2400C3FF421C09F101090C34DBE76FF0150224
:100C3400104605B0BDE8F08300ED00E0044B05224A
:100C4400C3F89420BFF34F8FBFF36F8F704700BF7B
:100C540000ED00E0BFF35F8F024B0022C3F8942045
:100C6400704700BF00ED00E010B5034C012322786B
:100C7400FFF7AEFF207010BD2803002008B50B4A13
:100C840000231278FFF7A4FF10F1160F07D0084ACB
:100C94000021D2F89030C3F30723984200DB08BD4B
:100CA400C2F89800C2F8A0100130F2E7280300202F
:100CB40000ED00E02DE9FF41524B534CD3F8903046
:100CC4002568C3F307239D4200F29980FFF7C2FF12
:100CD40000200C26854218D14C4C4D4F2570684697
:100CE400FFF74EFCDFF81C8106460025AE4213D107
:100CF400237844490020D1F89020C2F3072293427C
:100D040077DBFFF79BFF00201CE0616806FB001106
:100D1400FFF74AFF0130DDE7009800EB05114FEAC9
:100D2400051CCB683B40B3F5000F50D00DD8B3F58C
:100D3400001F36D0B3F5800F3ED0B3F5801F13D01B
:100D44006FF0150004B0BDE8F081B3F1807F47D0A7
:100D5400B3F1007FF4D150F80C3088684A6802F08F
:100D64009CFE40F4802009E050F80C3088684A6802
:100D740002F093FE40F0885040F43020CDE9012386
:100D84000390D8F890302078C3F30723013B9842AE
:100D9400D6D801A9FFF708FF237801332370013562
:100DA400A4E750F80C3088684A6802F076FE40F0F8
:100DB400885040F40020E1E750F80C3088684A6815
:100DC40002F06BFE40F0E06040F40030D6E750F8EB
:100DD4000C3088684A6802F060FE40F08270CDE70B
:100DE40050F80C3088684A6802F057FE40F088706A
:100DF400C4E7C1F89830C1F8A00001337BE74FF095
:100E0400FF309FE700ED00E0BC4C00082803002001
:100E14000000F0FF08B5024B1B689847002008BD8E
:100E2400D0010020034B044A1860937843F0020376
:100E340093707047D00100200800002008B50649CF
:100E4400064821F00701C1F1005202F5003202F018
:100E5400CDFD002008BD00BF47110020D4010020B3
:100E64002DE9F0410F4E104F054600244FF00108C4
:100E74002B7853FA84F01F280DDC726908FA00F30A
:100E840033EA020207D1736157F830301BB107EB24
:100E9400C002516898476A780134E3B29A42E7D2B3
:100EA400BDE8F081003C0140E0010020044B1844FF
:100EB40000230133994200F8012BFADC704700BF8C
:100EC4006000002010B4064B064902460C68185610
:100ED4000123934023430B6010BCFFF77DBD00BF8B
:100EE40060000020003C01401F2806DC0349012269
:100EF4000B68824023EA02030B607047003C014008
:100F040003292AD8DFE801F0020E141F134B012233
:100F14009968824021EA02019960D96821EA0202B3
:100F2400DA6070470D4B0122996882401143F3E760
:100F34000A4B0122D96882401143D960996821EA99
:100F440002029A607047012303FA00F0034B9A6887
:100F540002439A60DA681043D8607047003C01404D
:100F640030B50A4B53F830408C4204D103EBC00532
:100F74006D68954205D034B943F8301003EBC003D3
:100F84005A60002030BD6FF00F00FBE7E001002045
:100F9400034B002243F8302003EBC0035A60704730
:100FA400E001002010B51D4B18680B68442B144653
:100FB4001DD82F2B05D85A1E042A0DD96FF0850091
:100FC40014E0A3F1300101228A4015490A420BD1F1
:100FD400402BF3D1400807E0023B032B04D8DFE8A1
:100FE40003F00219091100202060002010BDA82B75
:100FF400FAD0E3E700F0A2F84FF4C073C0085843F6
:101004008008F1E700F09AF84FF4C073C008584321
:10101400C008E9E74FF4FA40E6E700BF54000020B7
:101024001101100070B5414C414D00F0A5F800F0DD
:10103400D7FCA3683F4AC3F30313D35C20FA03F637
:1010440013781D41AE4202D2284600F011FD2368F8
:1010540043F480232360236843F480332360334BB9
:101064001A689203FCD55A6F42F001025A675A6F0C
:101074009407FCD59A6802F00C02082A17D11A6862
:10108400900707D41A6842F001021A60274A1368CD
:101094009907FCD5254B9A6822F003029A609A6856
:1010A40012F00C0FFBD19A6822F0F0029A601F4CE8
:1010B400236823F080732360636823F4403343F48C
:1010C40080336360636823F0706343F0006363609C
:1010D40000F038F8236843F08073236023689B0191
:1010E400FCD5A36823F0F003A360A36823F00303F3
:1010F40043F00203A3600D4CA36803F00C03082B18
:10110400FAD1AE4202D3284600F0B2FC0A4B084A98
:101114001A60A36823F4E05343F48053A360A368E4
:1011240023F46043A360002070BD00BF0038024078
:1011340000D8B80509510008540000200048704741
:1011440000127A00094B0A495A681140094A0A43B5
:101154005A605A6822F4403242F480325A605A6823
:1011640022F0E04242F480325A6070470038024074
:101174000080BFFF08604000064B1A6C42F08052AA
:101184001A641B6C82B003F080530193019B02B07C
:10119400704700BF0038024008B5074802F0E5FF79
:1011A40038B10648FFF73EFE0448FFF7ABF90020CC
:1011B40008BD6FF01200FBE7D8460008C51100080F
:1011C4000A2838B5074D044604D1AB680D215B6885
:1011D40028469847AB6803485B68E1B298472046C5
:1011E40038BD00BFD846000838B5036904465860C6
:1011F400084D284602F0B9FF40B16168AB680C3174
:101204001B682846984700EAE07038BD6FF012006A
:10121400FBE700BFFC450008F7B51746B7F5001F0C
:10122400466802690C461D4624D101F003020432CB
:1012340092000F23934043EA9103DAB23349023216
:1012440051F82220190C02EA134391FAA1F2B2FADE
:1012540082F2D340B2689A4209D12046FFF744FE95
:101264002046FFF795FE00212046FFF749FE0020A7
:1012740003B0F0BDB7F5800F41D025492046FFF7F4
:101284006FFE00283ED1234AB66892E803006B46FD
:1012940083E8030020488268194612689047C0B961
:1012A40004F0030304339B000F229A4042EA9402A1
:1012B400D3B29B0003F1804303F59C33110C98686F
:1012C40020EA124091FAA1F2B2FA82F29640064361
:1012D4009E60B5F1806F0ED0B5F1C06F0DD005F1F1
:1012E4007E435942594149002046FFF709FE2046F2
:1012F400FFF7E8FDBBE70121F6E70321F4E76FF010
:101304008500B5E76FF00F00B2E700BF0038014079
:10131400413E0008084A0008FC4500082DE9F04752
:101324001E4F044600EBC1060025B44201D1002043
:1013340014E02068C30600F01F0911D4656845F065
:101344002005C0F3471AC0F343200A2823D857F8CE
:101354002080B8F1000F0DD16FF01200BDE8F087C6
:10136400B9F1100F04D0B9F1110FEAD16568E8E7BB
:101374003025E6E7404602F0F8FE0028ECD04B4664
:101384002A460AF00F01404602F06FFD002804F1DE
:101394000804CADAE2E76FF01500DFE7A04D0008A1
:1013A400F8B503690C465E6823794168012B34D093
:1013B4009A1E55425541AD026279022A9CBF354FAF
:1013C40037F812C0A27988BF4FF4005C042A27D0F2
:1013D400003B18BF01231B03E279012A0A680CBFF2
:1013E4004FF440770027A642D1681CD121F4B051B4
:1013F40029430B43D360136923F4405343EA0C039A
:10140400136143681A68536923F440733B4353617F
:101414003168BDE8F84002F0C7BD4FF4C065CBE7C2
:101424004FF48053D8E701F4C0618D421FBFD168E7
:1014340021F4C0612943D160426811680A6902F449
:10144400405294451FBF0A6922F4405242EA0C02FA
:101454000A6142681168CA6802F4805293421FBF4D
:10146400CA6822F480521343CB6043681A685369F4
:1014740003F440739F421FBF536923F440733B43FB
:10148400536121683368994203D002F08DFD2368CB
:101494003360F8BD4C4F0008F8B5036946685F68CF
:1014A4000B790C46012B4979A57943D102295CD9E2
:1014B400042D57D04FF4805C4FF4C06203238B4259
:1014C40050D1BCF1000F00F08880002A14BF032221
:1014D4000422AA4246D1E379CBB1012B42D133682D
:1014E400404A934213D0A2F54C4293420FD002F5E6
:1014F400806293420BD002F58062934207D002F5DA
:101504008062934203D002F5444293422AD1326866
:10151400D36823F40053D3602146FFF741FF3268B8
:10152400D36843F40053D36094E8030087E80300CE
:101534000020F8BD022B08D1022921D9042D11D095
:101544004FF480624FF4805CB8E702290A461FD941
:10155400042D04D133B94FF4805C1A46AEE763BB63
:101564000329B6D06FF08500E3E71F4A042D32F853
:1015740011E0F7D04FF4C062033B012B10D8F1E720
:10158400194A042D32F811E0ECD04FF48062F3E7ED
:10159400154A042D32F811E016D1002BE2D11A4677
:1015A4004FF4805CBEF5805F13D0BEF5405F12D06F
:1015B400BEF1000F82D1012381E7033B012BD1D976
:1015C4000022BFE70022D7E7002BFBD11A469C4636
:1015D400E8E7002373E7022371E7002A14BF02221D
:1015E400032276E7001001404C4F000873B50669EA
:1015F400446805462848306002F0B7FD18B96FF01A
:10160400120002B070BD3068E16883681B689847B7
:101614000028F6DB206A01AA002102F03EFC002823
:10162400EFDB019B002219791868FFF777FE002889
:10163400E7DB6C682B6922685E68D36823F4005387
:10164400D360606802F091FD0028D8D0D4E901018C
:101654008368DB6803B19847226802F10C0353E8FE
:10166400003F43F00C0302F10C0040E80031002974
:10167400F3D131462846FFF793FE237D23B1226838
:10168400536943F0080353612268D36843F4005359
:10169400D3600020B5E700BFFC45000810B54FF04B
:1016A400E0230F499C691A6908689B690D4902F493
:1016B400803234B993B903464AB90A681044C01A4F
:1016C40010BD002B08BF03460AB9A342F5D90A6826
:1016D40002440A604FF0E0221269EEE70446F3E7A1
:1016E400E4020020E00200200A4B102283F82320A9
:1016F400094B4FF416521A60084B002018604FF043
:10170400E02342F27F525A6198611A6942F007025B
:101714001A61704700ED00E0E4020020E0020020BE
:1017240010B5FFF7BBFF104B1049D3E9004208681E
:10173400001942F10002C3E900020D4A00230B60C4
:10174400D2E900414FF41653001BB0FBF3F04343BE
:101754001B1941F10001C2E9003100F0B7FEBDE8F8
:101764001040FEF74FBF00BF98000020E0020020A9
:10177400900000202DE9F041DFF8E08099B1421C8F
:101784000BD14FF0E022136923F0010313614FF0F2
:101794007F43C8F80030BDE8F081D8F80060012824
:1017A40007DC00270BE0431CD8F80060F7D140F2B7
:1017B400D26040F2D3639842A8BF1846471E4FF048
:1017C4001003EFF3118583F31288BFF36F8FFFF7D4
:1017D40065FF234C4FF0E0239969D4E90023801876
:1017E40043F10003C4E900031E4B00221A601E4BA0
:1017F4001A68831A2ED44FF4165C0CFB073303F5D6
:1018040015533F33B3FBFCF7131A0CFB0733B3F543
:10181400806F164A38BF4FF48063934228BF134643
:101824004FF0E022C8F80030013B90695361002377
:1018340093618142A1EB0003D4E9001238BF9B19E4
:101844005B1842F10002C4E9003285F31188BFF34A
:101854006F8FA0E74FF48063E2E700BFE40200204B
:1018640098000020E00200209000002000C3FF0048
:1018740038B54FF01003EFF3118583F31288BFF3EB
:101884006F8F084B1C68084B1B68E41AFFF706FFB0
:1018940085F31188BFF36F8F4FF416532044B0FBC8
:1018A400F3F038BD980000209000002038B54FF0C8
:1018B4001003EFF3118583F31288BFF36F8F054B89
:1018C4001C68FFF7EBFE85F31188BFF36F8F20448C
:1018D40038BD00BF9800002010B5006802F045FC38
:1018E400044620B9034802F0C0F8204610BD012088
:1018F400FCE700BF3B50000808B5FFF7D7FFBDE881
:1019040008400146014802F0B0B800BF5250000838
:10191400F8B50446006802F028FC034620682BB999
:101924000168294802F0A1F80020F8BDE388217974
:1019340043F480320669876813F0010F4FF0010504
:10194400336805FA01F514BF2B43AB4333603B689E
:10195400984701462679206829B102681B48334616
:1019640002F083F8E0E7826803699769A7B11B680E
:10197400012505FA06F21A42314614BF4FF00073EE
:101984004FF080634FF0A072B847014638B1226827
:10199400237912680E48E3E76FF05701F7E72379DC
:1019A4000C490D4A05FA03F3C1E901232068836851
:1019B400DB690BB12A4698472368084822791968DD
:1019C40002F053F80120B0E7685000088E50000878
:1019D400B7500008E8020020FD180008ED50000888
:1019E40008B520498B6803F00C03082B07D00C2B97
:1019F40020D01D481D4A042B18BF104608BD4A6854
:101A04004B68496813F4800314BF17481748C1F39F
:101A1400881118BF002302F03F02A1FB0001FEF76A
:101A2400CFFB104B5B68C3F3014301335B00B0FB96
:101A3400F3F0E3E74A684B68496813F4800314BF82
:101A440009480A48C1F3881118BF002302F03F0275
:101A5400A1FB0001FEF7B4FB024B5B68C3F3027306
:101A6400E5E700BF0038024000127A000024F400C9
:101A7400002800F0C180614B1A6802F44042B2F5BC
:101A8400404F4FD102F10F6202F58C52904208D9B7
:101A94001A681B6803F44043B3F5804F4FF0050305
:101AA4003EE0574A90421ED8564A904223D8564A9E
:101AB400904228D8554A90421A6802F4404243D9C9
:101AC400B2F5004F40F08C8001234C4A126802F4B6
:101AD4004042B2F5804F40D14B4A904264D9012B29
:101AE40038BF012339E01A6802F44042B2F5004FCE
:101AF40066D104230EE01A6802F44042B2F5004FA6
:101B040066D1032306E01A6802F44042B2F5004F9E
:101B14004ED10223394A126802F44042B2F5804F92
:101B24001BD1DCE71A6802F44042B2F5004F2ED113
:101B340002F10F6202F5A3429042AAD8344A9042BD
:101B44001DD81B68002308E0B2F5004FF9D1304AD4
:101B54009042F6D9294B1B6804232E490A6822F0C7
:101B64000F021A430A600A6802F00F0293421CBF74
:101B74000A6802F00F02981A18BF01207047224A1F
:101B840090421DD8214B9842E4D904239DE71B6859
:101B940003F44043B3F5804FD4D11A4B984227D86D
:101BA400194B984226D80023184A9042D5D996E773
:101BB4001B6803F44043B3F5804F4FF00203AFE7D3
:101BC4001B6803F44043B3F5804F4FF00403A7E7C9
:101BD4001B6803F44043B3F5804F4FF003039FE7C2
:101BE4001B6803F44043B3F5804F4FF0010397E7BC
:101BF400032374E70223B0E701207047007000401C
:101C0400000E2707804A5D050087930380C3C9013E
:101C1400001BB700003C024038B54FF01003EFF34F
:101C2400118583F31288BFF36F8F064B9C6802F013
:101C3400B0FA85F31188BFF36F8F2046BDE83840B2
:101C4400FEF75ABEF8020020104B70B553F820403E
:101C5400013053F82060A64200D870BDD4E90035A5
:101C640095B153B12846984738B10028B8BF4042CF
:101C7400EB68FF28A8BFFF201870EA68537843F088
:101C8400010353700834E6E79847FBE78C4E0008DD
:101C940008B50A4B012203201A70FFF7D5FF00F0A4
:101CA4007FFC0420FFF7D0FF00F00AF9FEF7F2FBF7
:101CB400034A137B23F00103137308BD2903002097
:101CC4002001002008B50348034A0021121A02F03B
:101CD40063FA08BD900000202C03002070B5002397
:101CE40086B00122CDE90423194E1A4D01930F2227
:101CF400CDE902321849142303FB005506EBC01644
:101D040004464FF4C070154B00954FF4A07200FBCD
:101D14000411304600F094F8737B114AEE6023F00E
:101D2400040373734FF4046304FB033313446B60C1
:101D34000C4B2C74BFF35B8F53E8001F013143E855
:101D44000012002AF8D1BFF35B8F06B070BD00BF4C
:101D5400A0000020F8020020800B00208B42000825
:101D640040030020F402002080B50020A6B0FFF755
:101D74006BFF2C4B83F308882B4D2C4E6B692C4F37
:101D840043F400736B610024F02385F82230EC7770
:101D94002C766C76AC7685F820406B6A43F4E023AD
:101DA4006B62FEF781FDFEF7AFFE4FF0FF33AB62CF
:101DB400EB62FEF77FFFFEF7DBFE40F20113ADF8A6
:101DC400243006ABB360CDE91E44219402F0CCF973
:101DD4000120FFF739FF0220164DFFF735FF00F011
:101DE40091FA154B75610593012314490094CDE9CB
:101DF40003434FF480623B46CDE90144284600F09A
:101E04001FF86A7B064622F0040228466A7302F031
:101E1400D9F92046FFF762FF3A4631462846FEF7D5
:101E240057FE00BF800B002000ED00E0F802002008
:101E3400951C00082001002019510008000D002005
:101E44002DE9F04385B00732994600F1580322F09A
:101E54000706C0E91633109B037306F140050423FB
:101E6400002743730D440F9B83738846C0E90677AC
:101E740029468760C7730446FEF796FB08F14003C2
:101E84000730C4E9183620F007000E9BA0660293C1
:101E94000D9B01932D1A0C9B00932A464B464146F9
:101EA4002046FEF7E3FD054B67659B6803B1DB6ED7
:101EB400E366284605B0BDE8F08300BFF8020020C1
:101EC40070B5224C224D86B02646AE4204F1300451
:101ED4000AD300F0E7F91D4C1E4EAC4220D306B0E5
:101EE400BDE8704000F0F2B954F80C3C059354F886
:101EF400103C049354F8143C039354F8183C029394
:101F040054F81C3C019354F8203C009354E90A23F0
:101F140054E90C01FFF794FF54F8303C5E65D3E7B5
:101F2400D4E90A23B3F1FF3F08BFB2F1FF3F05D064
:101F340052EA0301206803D100F082F93034CCE77F
:101F44003146183000F04CFAF8E700BF084A0008A0
:101F5400084A00082D420008C3897F2B12D80A4B77
:101F64001B6863B1094B90F90E201B689A4209DB88
:101F7400437BDB0606D1064BC31A18BF012303F0CB
:101F8400010070470023FAE7200300201C0300200F
:101F9400A0000020044BC01A044BC0105843044B4B
:101FA40001221A54704700BFA0010020ABAAAAAABC
:101FB4002A03002070B50E4B0E4C1E7C06EB460324
:101FC40004EBC3040546204602F069F90A4B0022DB
:101FD40028469A55FFF7C0FF48B1084B08491A68CC
:101FE400013A2046D317BDE8704000F0F9B970BD3E
:101FF400F8020020A00100202A0300202003002072
:10200400991F000838B50D4D2B4653F8184F9C42C4
:1020140000D004B9EC68AB6838B95A7BD20604D155
:10202400A26912B9DA897F2A05D89C4202D02046D7
:10203400FFF7C0FF23466B6138BD00BFF8020020E4
:1020440070B590F90D20437B002A014604DA03F0B1
:102054007F03437302F0A4F84B7B154A63F07F03BC
:1020640010464B7350F8183FD469834208BF0023CD
:1020740023B9C1E900042160D1610CE091F90E504B
:1020840093F90E60B5420ED0AE420CDD5868C1E93A
:102094000030016059609068431A5842BDE87040AE
:1020A4005841FFF7AFBF9C42E3D01B68E0E700BF95
:1020B400F802002070B490F90D30427B002B29DB2C
:1020C400D30627D183692BBB134962F07F02427385
:1020D4000A4652F8184F944218BF2346CC6923B9D4
:1020E400C0E900242060C8610CE090F90E5093F917
:1020F4000E60B5420AD0AE4208DD5A68C0E900322B
:102104001060586070BC0020FFF77CBFA342E7D08A
:102114001B68E4E770BC7047F80200202DE9F04129
:10212400002A437B0E460CBF1021082119420446A5
:102134000AD10B43DD0903F09F0211D14273082930
:1021440014D00120FFF75EFF1B4B9B68A3422CD1E8
:10215400EFF305834BBB3046BDE8F041FEF7E2BB2D
:1021640003F01F03437302F01BF8E8E7A36813B1FD
:10217400204602F01DF804F1180002F090F804F172
:1021840058074FF00008A56DBD42DAD0002DD8D015
:10219400284602F00DF805F1180002F080F8C5F8A1
:1021A40078802846FFF786FFEDE786F31188BFF3B2
:1021B4006F8FBDE8F08100BFF802002038B54FF002
:1021C4001003EFF3118583F31288BFF36F8F104B65
:1021D400104A9C681068A04206D1FFF7EBFE85F315
:1021E4001188BFF36F8F38BD00211B7C11600A4A30
:1021F400D35C002BF3D02046FFF7AEFE0028EED0D0
:10220400637BDB0602D12046FFF71AFF2046E4E792
:10221400F8020020180300202A03002049B9EFF334
:10222400058030B9054B5A699B689A4201D0FEF784
:1022340079BB81F31188BFF36F8F7047F8020020D8
:1022440010B54FF01002EFF3118482F31288BFF33C
:102254006F8F427B510704D484F31188BFF36F8FCF
:1022640010BD22F004024273FFF724FF2146024806
:10227400BDE81040FFF7D2BF2B030020034648B946
:10228400EFF3058232B9064A51699268914201D04E
:10229400FEF748BB83F31188BFF36F8F704700BF0D
:1022A400F80200204FF01003EFF3118183F312883A
:1022B400BFF36F8F044B9A68D37B013BD37381F3D5
:1022C4001188BFF36F8F7047F802002010B54FF0EC
:1022D4001003EFF3118483F31288BFF36F8F084B5D
:1022E4009A68D37B0133D3730020FFF78BFE84F30A
:1022F4001188BFF36F8FBDE8104001F099BF00BF94
:10230400F8020020024B03F11802C3E906227047C9
:10231400F8020020014B9868704700BFF8020020C3
:1023240008B50648064A0749121A01F037FFBDE806
:102334000840054A0549064801F030BF0000002066
:102344008A0000207051000800000000705100084D
:1023540000000020034B1B680BB9FFF789BA00206B
:10236400704700BF2403002010B50E4B1C689C422C
:1023740004D1FFF7EFFF6FF0004010BDFFF7EAFF55
:10238400002CF8D0D4E904321B1A62EBE072B3F1EA
:10239400004F72F10001EEDA002AACBF18460020AB
:1023A400EBE700BF5800002030B570B10B4B5B6801
:1023B40098420AD0036843B1D3E90421D0E9044523
:1023C400121941EB0501C3E90421D0E9003213607D
:1023D4005A600023C0E9003330BD00BF580000201C
:1023E400B3F1FF3F08BFB2F1FF3FF8B504461D4605
:1023F40016465CD081604FF01003EFF3118783F32E
:102404001288BFF36F8F013275F1FF3324DA2D493F
:10241400D1E900206FF001039B1A4FF0FF3262EB09
:1024240000009E1B60EB0500012E70F1000301DA31
:1024340001260020C4E90460234ED6F800C0756864
:10244400B44508BF4FF0000CBCF1000F0DD1C4E936
:1024540000652C6074601CE0FFF77CFF013645F1D9
:102464000005361845EBE070E4E7DCE90420D4E924
:102474000431934271EB000E1ADAD21ADCF80430FC
:1024840060EB0100CCE90420C4E900C31C60CCF873
:1024940004403368B34206D09C4204D1FFF764FF82
:1024A4000021FFF767F987F31188BFF36F8FF8BD39
:1024B4009B1A61EB0001AC45C4E90431C7D0DCF8D8
:1024C40000C0C1E7B8010020580000202DE9F84FF2
:1024D4004FF01003EFF3118C83F31288BFF36F8F67
:1024E400DFF8B0A0DFF8B0902C4FC9F80000DAF89C
:1024F40000000024504508BF00200025D7E9002132
:10250400D9F80030E04680B3D0E9046C4FEAE37EAA
:10251400B3427EEB0C0B05DAF61A6CEB0E04C0E941
:10252400046422E0B21841EBE671C0E90445C7E94E
:102534000021FFF739FF88F31188BFF36F8F836899
:1025440098474FF01003EFF3118883F31288BFF319
:102554006F8FD9F80030DAF800009B1B5045C44651
:10256400C9F80030CAD1D7E900219A1841EBE373C6
:102574000024C7E90023C9F80040FFF7F5FE21460F
:10258400FFF7F8F888F31188BFF36F8FBDE8F84FB1
:10259400FFF714BE5800002024030020B8010020D7
:1025A400014801F062BA00BF1E5100082DE9F04154
:1025B40001260746B24201DCBDE8F0813B461F46D6
:1025C40013F8014B002CF7D0252CF8D11C78252CBE
:1025D40007F10207F2D00023DFF804819C461D4670
:1025E4001F2D18D8A4F1200EBEF1100F09D9A4F1A3
:1025F400300EBEF1090F1ED80A2404FB03E3202584
:1026040004E028FA0EFE1EF0010F06D017F8014B65
:10261400002CE5D128E07F2D1CD8A4F1300EBEF1AA
:10262400090FE9D9242C10D1BCF1000F46D0B342D4
:1026340046D00023EAE724F0040EBEF12A0FF8D0B6
:102644006C2C09D145F08005E0E724F0040EBEF1BE
:102654002A0FEED06C2C22D06C2C1BD8682C23D0E3
:102664006A2C28D04C2C26D0BCF1000FA4D0B44541
:10267400A0D144F02007A7F1650CBCF1020F0B6850
:1026840001D9612F1ED1073323F0070308330B60F0
:1026940001368EE7742CB9D07A2CB7D0E4E72C0637
:1026A40048BF45F40075CDE7EC0548BF45F4007517
:1026B40045F48075AAE745F42075A7E79C46B8E77A
:1026C4006324D6E7692C02D007D8632C03D02F06E5
:1026D40001D5AC05D7D40433D9E7732CF6E700BF92
:1026E400892801002DE9F04F95B04368039383785E
:1026F4009B07CDE90A12804611D50D920B460026A0
:102704001F7877B1252F10D001330993039B4146DD
:1027140038469847002806F1010680F22E854FF0CE
:10272400FF36304615B0BDE8F08F5F789A1C252F30
:102734000992EBD000242546A246A346BBF11F0F05
:1027440032D8A7F12003102B0AD8DFE803F02409BC
:10275400092A0909091B0909092209270909190074
:10276400A7F13003092B2DD92A2F39D154B90D9B48
:102774001BF0400F53F8042B0D9329D0154601E0AC
:102784004BF0010B099B13F8017B0993002FD5D162
:1027940056E04BF0020B4BF0040BF3E74BF0080B45
:1027A400F0E74BF0100BEDE7BBF17F0F3FD8A7F13B
:1027B4003003092BD8D81BF0400F03D00A2202FBA8
:1027C4000535DFE70A2202FB0A3A4BF0200BD9E772
:1027D400B2F1000AF9DACAF1000A4BF0280BD1E78A
:1027E4002E2F05D11BF0400F9BD14BF0400BC9E7B6
:1027F400242F1CD1002C00F08A800B9B0D931BF01E
:10280400400F0AD152460A980DA9FFF7CFFE0D9B3F
:102814001A1DD3F800A00D92B4E72A460A980DA910
:10282400FFF7C4FE0D9B1A1D1D680D92AAE76C2FBD
:102834005AD052D8682F5FD06A2F65D04C2F63D0FE
:1028440034B10B9B0A980D9322460DA9FFF7AEFEF7
:10285400002D47F02003B8BF2BF0400B0793A3F1E2
:102864006503BCBF1FFA8BFB0025022B54D947F02C
:102874002003612B40F06383FF4307F02003089398
:102884000D9B073323F0070303F108020D924BF469
:10289400C05204921A6805925A68DDF814C0C2F353
:1028A4000A57C2F3130047EA0C0353EA0004014633
:1028B4000BF040044FEAD27259D13027D2B28DF8CE
:1028C4003D708DF83C20A7B2002C00F0BF810C2D88
:1028D4004FF000075DDD0D25B2E0742F3FF452AFD9
:1028E4007A2F3FF44FAFABE71BF0800F18BF4BF4C8
:1028F400007B4BF0800B45E71BF4807F18BF4BF443
:10290400007B4BF4807B3DE74BF4207B3AE7254684
:10291400AB465446AA4635E7FF4307F02003089325
:102924000D9B073323F0070303F10802D3E90001E9
:10293400079B0D921BF0400F08BF0625652B40F046
:1029440099816B1C0022DBB24BF4805B1446112B83
:10295400CDE9002428BF11230EAA00F0ADFCC3B2B8
:10296400059302230E9FCDF810B0069380E0002F4C
:1029740000F03B813123D2B28DF83D30A7F2FF370E
:102984008DF83C20A3B2002C00F057810C2D00F3ED
:102994005681C5F10D018900012301F1FF39A1F12F
:1029A4002104C1F1210E23FA0EFE03FA04F403FA02
:1029B40009F344EA0E0413EB030E44EB0409DEF1BD
:1029C400000BCDF818B069EB490BCDF81CB0DDF85D
:1029D40014B01EF1FF3E49F1FF390EEA0B0E09EA6D
:1029E4000009734574EB090912DBC1F12009B1F147
:1029F400200E00FA09F92BFA01F141EA09015CBF42
:102A040040FA0EFE41EA0E0111F0010F00F0F080D1
:102A14000599CB1840EB0400B0F5801F9C46C0F22A
:102A2400E7809DF83D10B7F5806F01F101018DF845
:102A34003D1000F0E980069A07991A4013460140B8
:102A4400089A0D20C2F1570403F00F021B0943EA50
:102A540001730911002A40F0FE80854280F2FD8056
:102A64000138F1D10E230120CDE9053070230793FD
:102A740007F10902122A3B4600F2D1809DF83CB0CE
:102A84000BF00C091BF0010B40F02D81049B9A07FD
:102A940000F1238113F0040400F00281B9F1000F66
:102AA40040F027814FF02009049B13F4405F23D1A9
:102AB400059B5033002D6B4408BF0125133B059A39
:102AC40022B113F8012D302A00F04781049B13F042
:102AD400100F059B18BF2B46381DC0F24381BD4221
:102AE40040F34081049A42F4005292B2BB420492F1
:102AF40040F33A817D1C5D1B049B13F4005B00F0E2
:102B0400358127EAE7740134B9F1000F00D00134AC
:102B1400002D00F034816B1C1C44049BA245CCBFE7
:102B2400AAEB0404002413F0090F04D13444A64290
:102B340040F02A810024B9F1000F08D0039B4146DC
:102B440048469847002806F10106FFF6E8AD049BC5
:102B54001A0513D5039B4146302098470028FFF6F9
:102B6400DEAD089BC3F178004146039B00F0F800FA
:102B74009847002806F10206FFF6D1AD049B1B0717
:102B840005D43444B44240F0098126460024BBF104
:102B9400000F00F0348127EAE77AA7EB0A0B6D42B5
:102BA400059B5B4584BF0EAB5B440AF1FF3A8CBFC7
:102BB40058793020554506F1010900F3F980039B4B
:102BC4004146984700280BF1010BFFF6A8ADBAF176
:102BD400FF3F08D1039B41462E2098470028FFF66B
:102BE4009EAD06F102094E46DAE730230127C2E61C
:102BF400069B03EA0C0C079B03401846B7F5806F4D
:102C040026D15CEA00001CD042F008028DF83C207A
:102C14004FF480670E230593702307933B4603F11B
:102C24006302C62A3AD903F2E73340F2CE729342E2
:102C34008CBF04230323069320E71D46DEE70D25FE
:102C4400DCE742F004028DF83C20E3E73D46F7E67A
:102C540063460146F4E6092A09D830320DF1380CEE
:102C6400844485428CF80520B8BF0546F8E6224422
:102C7400D2B2F3E7079B662B05D14BF4005B2C46DD
:102C84000122112363E6EBB2012B4FF000024FF057
:102C9400650738BF01231446079758E60223CAE79D
:102CA400B9F1000F3FF400AFBAF1030F34DD049B18
:102CB4001F07AAF103042FD43444039B4146202068
:102CC4009847002806F10106FFF629ADA642F4D183
:102CD400BBF1000F36D0002415E0B9F1000F2BD161
:102CE4004FF02B09E0E6B9F1000F28D14FF02D0980
:102CF400DAE64FF0200BBAF1040FECDD049B1D075C
:102D0400AAF10404D8D5039B4146584698470028A5
:102D140006F10106FFF603AD9DF83C309F4D13F01C
:102D2400080F9F4B08BF1D462F46B94617F8010BE5
:102D340050B9751BA9445DE04FF02B0BDBE74FF056
:102D44002D0BD8E75C46E7E7089BC01A4146039B76
:102D5400C0B298470028E8DAE1E4059A013AD2B211
:102D64000592ACE65D1EC7E60025C5E6049B13F498
:102D7400006F069B0CBF032405241C44C4E6049B7B
:102D8400D90648BF0134C8E6039B41462020984732
:102D9400002806F10106BFF6CAAEC0E4039B414613
:102DA40030209847002806F10106BFF6EBAEB6E4E2
:102DB400BA450AD19DF83D30352B1ED805D19DF872
:102DC4003C3013F0100F08BF3120039B4146984755
:102DD4000028FFF6A4AC049BD8060BD5BAF1FF3F3C
:102DE40008D106F1020941462E20039B984700288A
:102DF400FFF695AC4E464C4446E23120E5E79DF89B
:102E04003D0031281EBF9DF83C3023F010038DF89F
:102E14003C304146039B98470028FFF680AC002DC8
:102E24006DDD039B41462E209847002806F10209D8
:102E3400FFF675AC01263346059A96423BBF5033E4
:102E44006B44302013F8130C039B41469847002829
:102E540009F10109FFF663AC0136F6B2AE4233461E
:102E6400EADDDDE90732981A4146039BC0B2984770
:102E74000028FFF654AC002F04DB4FD19DF83C3002
:102E8400DB064BD57F422D20039B41469847002803
:102E9400FFF645AC069B042B42D14FF47A7697FBA0
:102EA400F6F505F13000039B4146C0B2984700286F
:102EB40009F10309FFF633AC06FB1577642697FB8B
:102EC400F6F505F13000039B4146C0B2984700284F
:102ED40009F10109FFF623AC06FB15770A2697FBD7
:102EE400F6F505F13000039B4146C0B2984700282F
:102EF40009F10109FFF613AC06FB157718E0049BF2
:102F0400DA0602D406F10109ABE7039B41462E2001
:102F14009847002806F10209A3DA00E42B20B3E75E
:102F2400069B032B09F10209C8D0069B012BD5D1BE
:102F340007F1300009F101094146C0B255E7A7F194
:102F44006303122B00F20081DFE813F01300580032
:102F5400FE00FE00FE00FE005800FE00FE00FE0023
:102F6400FE00FE001A01F900FE00FE002C00FE0027
:102F7400BA000D9B1A1D1B680D928DF83830012480
:102F84000EAF1BF0080F2ED007EB04093D46A945F0
:102F94002BD1F71BB944AAEB04042BE764510008B6
:102FA400605100080D9B1A1D0D921F68AC4B002F39
:102FB40008BF1F461BF0400F14BF29464FF0FF31D6
:102FC400384601F083F90446DBE7039B41462020A1
:102FD40098470028FFF6A3AB013DA542F5D8564417
:102FE400761BAA46D0E75546F7E715F8010B039B75
:102FF400414698470028CADAFFF791BB1BF0800FBF
:103004000D9B3CD01BF4007F34D0073323F007031F
:10301400D3E9000103F108020D922BF010090029F5
:103024001FFA89F93DDA404261EB410149F48069B4
:103034000DF1380B0A235A4601F054F919F0400FE8
:10304400A0EB0B0B65D029F001025D4592B240F371
:10305400B380002F00F0AB8019F010032C4691468A
:1030640040F0AD8040F2064319EA03031CBF01346B
:10307400002355E01A1D18680D92C117CDE71A1DDB
:103084001BF4807F19680D9201D10846F5E71BF403
:10309400007F15BF48B208B241F3C01141F3C031FB
:1030A400BBE750EA0103C3D11BF0400FC0D0002D91
:1030B400BED12BF0110B1FFA8BF9AB462C46D1E78E
:1030C4002BF0100B1FFA8BFB0A231BF080040D9AC4
:1030D40059D01BF400711DBF073222F0070202F120
:1030E4000801101D19BF0D91D2E900010D9010685F
:1030F40050EA010254D12BF016091BF0400F1FFABD
:1031040089F951D0002D4FD12BF0170B1FFA8BF9F1
:10311400AB4619F0100354D0002F4FD10BF101042A
:1031240019F0080F60D119F0010F06D0A2456FDD28
:10313400AAEB040404EB0B05544622464FE04BF083
:10314400100B10237827C0E747F02003782B05D114
:10315400582F14BF10234FF40473B6E7039B414662
:10316400252098470028FFF6DAAA039B41463846F3
:1031740098470028FFF6D3AA0236099BFFF7C0BA86
:1031840008230027A1E7111D0D911BF4807110681D
:10319400AED01BF400711ABFC0B2214680B2A7E7BB
:1031A4002BF0060B1FFA8BF90DF1380B43E729F0CE
:1031B40011091FFA89F981E79146AAE75C460234AE
:1031C400AEE75C464EE7CDE904234146039B20204D
:1031D40098470028FFF6A3AA049A059B013292455A
:1031E400F1DC341BA6181446A3B1039B41463020DE
:1031F40098470028FFF693AA87B30236414638461B
:10320400039B98470028FFF68AAAB14635441CE080
:103214005D4692E740F2064319EA030FF5D019F030
:10322400020F14BF2B20202019F4806F06F1010631
:10323400414618BF2D20E3E7039B414630209847C1
:10324400002809F10109FFF66AAAA5EB09035B4509
:10325400F2DC5D460EAE2DB9D9449CE60136D4E7C6
:1032640068510008013D039B705D41469847002862
:10327400F1DAFFF754BA039B41462020984700280F
:1032840006F10106FFF64BAAA31B002BF3DC74E73F
:103294001FB502AB0093074A4FF0CC3301F009F994
:1032A400DDE90201C00840EA4170C90805B05DF8D3
:1032B40004FB00BFCDCCCCCC2DE9F04F9BB0044631
:1032C40005920A460A93C2F30A559DF890300B936F
:1032D400D20FC1F313030992090D85B950EA030211
:1032E4001CD1059A30235371099B957143F0020355
:1032F40013711560012738461BB0BDE8F08F40F20A
:10330400FF7295424AD10343099B059A14BF43F0C7
:10331400080343F0040313710027ECE700F00102F3
:1033240008924FEA83080122AB4D48EA907887005F
:103334009A461646C5F1000B5846069200F01CFB4F
:10334400B5F1FF3FACBF8146A0F10109ABEB090B1E
:1033540009EB05035846049300F014FB16A9A0F1E9
:103364007D05584600F012FA12AB069A0193A9EBB8
:10337400050510AB0292009320462B4616AA51462F
:1033840000F0DCFFB9F1010F04460D4600F2D280D3
:10339400089B002B40F0C58001276BE043F4801AA2
:1033A40000F001024FEA8A080343A5F2354508926A
:1033B40048EA90784FEA800749D140F2FE731942F7
:1033C4000CBF01260026002D3246B3DB284600F050
:1033D400CDFA032DC8BF0138049000F0D3FA049B42
:1033E4007C305D1B054416A9184600F043FA12AB65
:1033F400019310AB009320462B46029616AA514621
:1034040000F09CFF049B152B04460D4600F28680B9
:1034140014AB724A009338464FF0CC33414601F066
:1034240048F8149B159A9B0843EA827303EB8303C1
:10343400BB42DDE9109A0CD13846414600F08EF9C2
:10344400049B83428CBF00270127002612E001263B
:10345400B9E7089B002B51D1013F48F1FF31B81B5C
:1034640061F1000100F07AF9049B089F83428CBF4C
:10347400002601260B9B002B40F09080DDF828B03D
:103484004FF00008CDE906884FF00A0ADDE9100183
:10349400FFF7FEFE129B0E93CDE90C01184613991B
:1034A400FFF7F6FE0C9B0D9A0F9198420B46934141
:1034B400814680F08D8020462946FFF7E9FE0E9A6A
:1034C4000AFB09F3934214BF002606F001060C9B85
:1034D40010930D9BCDE911390F9B1393079BB8F102
:1034E400000F14BF002707F0010701330AFB10483F
:1034F4005FFA88F8079304460D46C7E7B81C48F1FD
:10350400000100F02BF9049B83428CBF00200120B2
:10351400B9EB00006AF10002CDE9100200273E4633
:10352400A8E7109B119A013B42F1FF32CDE910321A
:1035340001278AE7B9F13E0FF0D84FF0FF33A9F124
:10354400200003FA09F203FA00F0C9F1200123FA7A
:1035540001F102430A4303FA09F327EA030728EABD
:10356400020857EA08070CBF012700276DE700FB94
:1035740002FCA1FB0012013362448C4275EB020C85
:10358400F5D2049ADDF828B01344259A1344012B8C
:10359400B8BF01239B45A8BF9B4671E70A210022BF
:1035A40001230846E9E70AFB03F0A2FB0A230131E1
:1035B4000344944275EB0300F5D2594510DDBBF189
:1035C400000F02D154EA05030AD00123069372E7DF
:1035D4000A2200230121ECE7CCFBFFFFCDCCCCCCAD
:1035E400002E2FD04FF00A0A129B13990D93184600
:1035F400FFF74EFE0D9B0C910AFB00F29A428146A6
:1036040020D1DDE91001FFF743FE0E900D91204615
:103614002946FFF73DFE0D9B0E9A1092CDE9113914
:103624000C9B1393079BB8F1000F14BF002707F0FE
:10363400010701330AFB10485FFA88F80793044630
:103644000D46D1E7DDF81090079B9944002F5DD01B
:10365400B8F1050F5AD114F001034DD1069A32B9CD
:10366400DDE912239D4208BF944262D0069B1819DB
:103674004FF00A0445F10001002201262546A0422C
:1036840071EB020758D2E3B1B3451ADA0B9B63B16D
:10369400259ADDF828B006EB0903134423EAE37303
:1036A4009B45A8BF9B465E450BDD05304FF00A02E3
:1036B4004FF0000341F10001FCF782FD09F101091B
:1036C400013E5E45A8BF5E4637B20FFA89F9059BF5
:1036D40009FA86F607F10508013E98444FF00009FF
:1036E400B94530DB059B3B4400225A71059B1A46C1
:1036F4001E60099B1371FEE5069B2BB9DDE91223BD
:103704009D4208BF944209D00123B0E7069B53B9F8
:10371400DDE912239D4208BF944204D1089B002B8B
:10372400F2D1002EF0D0B8F1040F94BF002301238E
:103734009DE74FF00408F1E705FB02F7A4FB0542FF
:1037440001363A449BE70A220023FCF739FD303264
:1037540008F8012D09F10109C2E700BF0A4A70B552
:1037640003464FF0CC3600204FF0333506FB03F40C
:1037740002FB0144A3FB023121449D4275EB010489
:1037840001D30130F2E770BDCDCCCCCC2DE9F04FA4
:103794001A23354EB0FBF3FA03FB1A0389B004462F
:1037A4000D4606EB0A1653B9D6E90023C1E90023F6
:1037B400D6E90201C5E9020109B0BDE8F08F2B4A40
:1037C40002EBC303D3E9008904AB0093D6E90223D7
:1037D4004046494600F06DFE06AB0093D6E900234F
:1037E40083460F464046494600F063FEDDE9066223
:1037F40016EB0B0652EB07084FF0000328BF01231A
:10380400814633B1049B059A013342F10002CDE9AC
:1038140004322046039100F0B5F807461A2000FB55
:103824000AF000F0AFF83F1A324643460399009776
:10383400484600F059FE4FEA141C0D4A640004F097
:103844001E0352F82C40DC4004F00304241841F118
:103854000001C5E90041DDE90423009730464146F3
:1038640000F042FEA6E700BFE04A0008104A000844
:10387400A44E00082DE9F04F1A27DFF8E4A000F168
:103884001905B5FBF7F56F433A1A4FEA051B89B0E2
:1038940004460E460AEB05150AD1D5E90023C1E911
:1038A4000023D5E90201C6E9020109B0BDE8F08FA1
:1038B4002C4B03EBC203D3E9008904AB0093D5E995
:1038C40002234046494600F0F4FD5AF80B206B6889
:1038D400013ACDE9020106A963F1000300914046D3
:1038E400494600F0E6FDDDE906528A4602996D1864
:1038F400039952EB01084FF0000328BF01238146CE
:1039040033B1049B059A013342F10002CDE904323C
:10391400384600F037F80746204600F033F83F1ADF
:103924002A46434600974846514600F0DDFD4FEADB
:10393400141C0D4A640004F01E0352F82C40DC40B1
:1039440004F003040134241841F10001C6E90041E4
:10395400DDE9042300972846414600F0C5FDA2E7AF
:10396400B04B0008104A0008F84E0008014B5843B9
:10397400800C704741340100014B5843000D7047DF
:10398400FB2E0B00024B5843C00C0130704700BFA4
:103994004F93120000EBC100408840087047F8B50F
:1039A4000346FFF7F7FFB0FA80F0C0F11F0003EB06
:1039B400800CCA00DCF81060171D0C4606328DB26C
:1039C40056B9012101FA00F0D9680143D960CCF855
:1039D4001040DD539D52F8BDF1000431585AD853BC
:1039E40003EBC0009E52C5805D52F4E7043A2DE912
:1039F400F041CC1D114424F0070421F007010E1BF3
:103A0400F708B7FA87F2C2F12405AD004FF00008B9
:103A14000735C2F12002ED0804604146A760C4F8EE
:103A24000C80920004F1100000F08BFD6B0043F059
:103A34000103638004EBC5027B1B5900A4F80080DA
:103A44005180A21924F83550A2F80280A35304EB44
:103A5400C70329465A8842F001025A802046BDE82D
:103A6400F041FFF79CBF002070470FB407B504A9CD
:103A740051F8040B0191FCF72DFD03B05DF804EB44
:103A840004B070477047FEF7C7B801460068FEF7F8
:103A9400C3B800210120FFF7F6BF202809D9B0F1EF
:103AA400004F08D80138B0FA80F0C0F11F00400080
:103AB4007047082070473E20704708B5FDF7AAF903
:103AC400002008BD08B5062201210020FDF7EEF90B
:103AD400002211460620FCF78DFF0121084607222B
:103AE400FDF7E4F9002211460720FCF783FF0822C2
:103AF40001210220FDF7DAF9002211460820FCF723
:103B040079FF092201210320FDF7D0F90022114693
:103B14000920FCF76FFF0A2201210420FDF7C6F9F2
:103B2400002211460A20FCF765FF052108461722EA
:103B3400FDF7BCF9002211461720FCF75BFF282291
:103B440006210A20FDF7B2F9002211462820FCF7CD
:103B540051FF002008BD0B68A3F13002782A9FBFF3
:103B640003F1804303F50E3349681A689DBF0A4385
:103B740000201A606FF0850070470B68A3F13002D3
:103B8400782A9FBF03F1804303F50E3349681A680E
:103B94009DBF8A4300201A606FF0850070470B6850
:103BA400A3F13002782A0AD803F1804303F50E33D7
:103BB4001A684B68934314BF012002207047012BFD
:103BC40005D0033B022B8CBF01200220704702204A
:103BD400704710B50B68012B02D0033B022B21D890
:103BE4004A68FF2A1CD0D3B203F1804303F50E3395
:103BF400C2F342341868C2F3042204FA02F220EA3F
:103C040002021A604968CBB203F1804303F50E3314
:103C1400C1F302421868C1F304218A4002431A60C6
:103C2400002010BD6FF08500FBE743685B681B69EB
:103C34000B600020704743685B68586942400A4043
:103C440042405A610020704743685B6800209961D4
:103C5400704743685B6809049961002070474368B2
:103C64005A6853694B4053610020704710B503698B
:103C74009868F8B1884219D1DC6808689860A14254
:103C840000D1D860002008602AB19A680A60DA6816
:103C9400996002B9D960002010E0814206D1086819
:103CA4002060D8688142EDD1DC60EBE7044600680F
:103CB4000028F2D1002AE8D16FF0150010BDF0B54C
:103CC40044680120676888401E46C2F3801327EACF
:103CD40000078B403B43636090FAA0F7B7FA87F77D
:103CE400D4F808C04FF0030E7F000EFA07F72CEA51
:103CF400070C90FAA0F7B7FA87F7C2F3C1137F0055
:103D0400BB4043EA0C03A36090FAA0F3B3FA83F335
:103D1400E7685B000EFA03F327EA030790FAA0F3BF
:103D2400B3FA83F302F030055B00C2F341229A40F8
:103D34003A43202DE26016D107292BDC90FAA0F338
:103D4400226A2BB3B3FA83F39B000F2101FA03F326
:103D540022EA030290FAA0F3B3FA83F39B0006FA73
:103D640003F31343236290FAA0F3B3FA83F32268B4
:103D740090FAA0F05B000321B0FA80F02D0901FA5B
:103D840003F3400022EA030385401D432560F0BD90
:103D94002B46D9E7030A616A93FAA3F282B1B2FA15
:103DA40082F292000F2793FAA3F3B3FA83F307FA8C
:103DB40002F29B0021EA02029E4016436662D2E7A9
:103DC4002A46EEE738B5044690030D46134617D548
:103DD40091070ED55A072ED55022D8060BD542F49A
:103DE400007219031AD5616801234968AB408B61DD
:103DF4000DE01022F1E79906F3D542F48062F0E772
:103E0400DA0313D5D80613D4C3F340139A026068B7
:103E140000232946FFF753FF002038BD5B03F6D586
:103E24000121A9402046FFF714FFF0E73022EEE716
:103E34004FF40072EBE76FF08500EEE770B50B46C8
:103E4400896821B101255E680C68854001B970BD9F
:103E54008A682A4002D04B68304698471CB12368D0
:103E640021461C46F2E72346FAE7F8B51F46044606
:103E740040680E461546FFF722FF112F07D1012196
:103E84002B0501FA06F104D563685B68996100208B
:103E9400F8BD2046FFF7DDFEF9E730B5036813608F
:103EA4000579046804EBC504A34202D36FF0010052
:103EB40030BD5C798C4201D00833F0E70020F7E78D
:103EC4004368C1F34B101B6801F01F01C058012364
:103ED4008B40034214BF012300231370002070475A
:103EE40010B54368C1F34B101A6801F01F018458E0
:103EF40001238B4023438350002010BD10B5436839
:103F0400C1F34B14186801F01F01235801228A40A1
:103F140023EA02032350002010BD38B504460D46A1
:103F2400FFF7DEFF29462046FFF7E8FF002038BDF3
:103F340082B003680193019B43680193019B02B023
:103F4400704708B541680B681A681868C007186894
:103F5400C2F3C00248BF42F002028007186848BF9B
:103F640042F004024007186848BF42F02002C0052E
:103F740042BF6FF4807042F008021860D00702D587
:103F84000868FFF7D5FF930702D50868FFF7D0FF4D
:103F9400500702D50868FFF7CBFF930602D50868DF
:103FA400FFF7C6FF104608BD37B5036944681868B3
:103FB4008368DB680D46E168F3B101AA98470028DD
:103FC4001ADB22680198D368192123F40043D360D3
:103FD400A0FB0101AA00AB0FFCF7F2F86422B0FBCE
:103FE400F2F102FB11031B0124683233B3FBF2F339
:103FF40003EB01139BB2A36003B030BD10B540685E
:10400400026813681B06FCD54FF01002EFF311830E
:1040140082F31288BFF36F8F02681468240604D4F5
:1040240083F31188BFF36F8FEAE7516083F311883C
:10403400BFF36F8F10BD08B54368186803681A078B
:1040440001D5FFF775FF03689B0643BF43680B70F8
:1040540000204FF0FF3008BD03695B681B680B60EC
:1040640043681B68DB6803F4C063B3F5806F2FD02B
:10407400A3F5C06CDCF1000343EB0C030B71436844
:104084001B681B6903F44053B3F5805F22D0B3F57A
:10409400405F21D0002B0CBF012303234B714368E5
:1040A4001B68DA68DB68D20403F4C06316D5002BFE
:1040B40014BF032304238B7143681B685B6903F4F7
:1040C4004073A3F5407253425341CB7100207047B3
:1040D4000223D3E70023E1E70223DFE7002B14BF29
:1040E40002230323E7E7F0B403460A461979DB8881
:1040F40000681343066987683468DA0748BF83F4A5
:10410400402301258D4023F48012DB074CBF2C4350
:10411400AC4334603B68F0BC184708B54FF4D01189
:10412400FFF7E1FFC043C00F08BD08B54FF4B0115D
:10413400FFF7D9FFC043C00F08BD37B50346006879
:104144001C790569836801A95B68984740B9019B9C
:104154002A685A400123A3401A4214BF01200020B8
:1041640040EAE07003B030BD704740B1C36858788E
:1041740010F001001EBF1878B0FA80F040097047B3
:104184004FF01002EFF3118382F31288BFF36F8FA5
:10419400FEE708B5FFF7F4FF00F0D3B900F0C3B9A8
:1041A400D0E9003213605A600023C0E9003370473D
:1041B40008B5FFF7F5FF437B23F0020343730023A5
:1041C400836008BD10B54FF01003EFF3118483F33F
:1041D4001288BFF36F8FFDF76DFF84F31188BFF36F
:1041E4006F8F10BD38B504464FF01003EFF31185FF
:1041F40083F31288BFF36F8F437B13F0280F0BD127
:1042040083680BB1FFF7D4FF637B51B903F0FB0361
:1042140063732046FDF74EFF85F31188BFF36F8F5C
:1042240038BD03F0EB03F3E701211838FFF7DABFD9
:104234004FF01003EFF3118083F31288BFF36F8FF5
:10424400FEF71CB84FF01002EFF3118182F31288CD
:10425400BFF36F8F027BD2070AD581F31188BFF3B6
:104264006F8F404080F311884FF0040002DF7047E5
:10427400437B1B0704D581F31188BFF36F8F70470D
:104284000122FDF74BBF08B54FF01002EFF3118385
:1042940082F31288BFF36F8FFCF73CFCF4E710B590
:1042A4004FF01002EFF3118482F31288BFF36F8F83
:1042B40003683BB1FEF778F8002084F31188BFF35C
:1042C4006F8F10BD6FF01500F7E7704710B5024609
:1042D40001448A42134603D01C780132002CF8D1E1
:1042E400181A10BD2DE9F0471D46AB0548BF25F44B
:1042F40000750746884616464CBF4FF0070A4FF034
:10430400270A4FEAE579384641462A464B46FBF7E9
:1043140057FFD4B2092C88BF54443A46434688BF59
:10432400E4B2AA4204F1300473EB090306F8014B2A
:1043340007468846E7D23046BDE8F0872DE9F04FBE
:1043440087B00618994602AB41EB01040093154669
:104354003046D2E900232146DDF844B000F0A9F844
:1043640004AB0093D5E9022307468846304621462C
:1043740000F09FF8DDE90263841951EB0306049B06
:10438400D5E900014FF0000228BF0122D218059B95
:1043940043F10003381848EB0101B84271EB0801FE
:1043A400D5E902C134BF0120002014EB0C0C46EB0C
:1043B400010110EB0C0041F10001A04271EB060C6D
:1043C40034BF4FF0010C4FF0000CCDE90423A9F1E8
:1043D400410A1CEB020243F10003CDF800A000F0F7
:1043E40083F8109BC3E90001129B012BDDE9042330
:1043F40029D1D5E90201D5E900C5201A66EB0101EE
:10440400674578EB050534BF01250025401B61F1A4
:104414000001844276EB010534BF01250025521BBF
:10442400CDF800A063F1000300F05EF8DDE9042399
:10443400CBE90001CDF800A02046314600F054F845
:1044440007B0BDE8F08F17EB070E48EB080C2019F6
:1044540046EB0601BE457CEB080834BF0127002764
:10446400C71941F10008D5E9000186457CEB010C30
:10447400D5E9021534BF01200020381A68F1000C78
:10448400401A6CEB050192185B41A74278EB0605D4
:1044940034BF01250025521943F10003874278EB0C
:1044A400010834BF01250025521BA9F140050095E0
:1044B400B8E7F0B50F460446A0FB0201A7FB025281
:1044C4004919A3FB044542F10002A7FB03736118D9
:1044D40045F10004D219059E43F10003121943F17A
:1044E4000003C6E90023F0BDF0B5059CC4F1400704
:1044F400C4F1200602FA06F6A4F12005BB4022FA14
:1045040005F53343C4F120062B4301FA06F6A4F162
:104514002005E04021FA05F53043BA402843E14044
:1045240010431943F0BD0A44914200F1FF3300D116
:10453400704710B511F8014B03F8014F9142F9D1BE
:1045440010BD02440346934200D1704703F8011B97
:10455400F9E700000148006870470000C00100202E
:0845640094BCFF7F0100000080
:10456C00490500080000000029100008FC4500085F
:10457C007105000800000000000000001046000853
:10458C00ED1100089C460008ED110008C446000817
:10459C00C93A000824460008ED110008B04600088E
:1045AC00ED11000888460008ED110008744600085B
:1045BC00ED11000860460008ED1100084C4600089B
:1045CC00ED11000838460008F1150008D84600081F
:1045DC00F1150008EC4600089D11000800000000D1
:1045EC00ED16000800000000410E0008000000005D
:1045FC008D4F000800000000180000207200002001
:10460C00000000000A500008CC4D0008D04D0008F6
:10461C0084000020000000006F4F00080000000024
:10462C000000000070000020E00100209A4F0008FC
:10463C00DC4C00087C4D0008740000206002002057
:10464C00A84F0008F04C00087C4D000876000020B4
:10465C0070020020B64F0008044D00087C4D000885
:10466C007800002080020020C44F0008184D00087C
:10467C007C4D00087A00002090020020D24F0008E8
:10468C002C4D00087C4D00087C000020A00200206E
:10469C00E04F0008404D00087C4D00087E000020D3
:1046AC00B0020020EE4F0008544D00087C4D00086D
:1046BC0080000020C0020020FC4F0008684D00085C
:1046CC007C4D000882000020D00200201B50000806
:1046DC00E04D0008784E00088600002034000020D1
:1046EC002B5000082C4E0008784E00088800002043
:0446FC004400002056
:1047000000000000973A000800000000973A0008F7
:1047100000000000973A000800000000973A0008E7
:1047200000000000973A000800000000973A0008D7
:104730006D4F0008650E00086B4F0008650E0008FD
:10474000694F0008650E0008674F0008650E0008F5
:10475000654F0008650E000800000000973A000849
:1047600000000000973A000800000000973A000897
:1047700000000000973A000800000000973A000887
:1047800000000000973A000800000000973A000877
:1047900000000000973A000800000000973A000867
:1047A00000000000973A000800000000973A000857
:1047B00000000000973A0008634F0008650E0008EB
:1047C00000000000973A000800000000973A000837
:1047D00000000000973A000800000000973A000827
:1047E00000000000973A000800000000973A000817
:1047F00000000000973A000800000000973A000807
:1048000000000000973A000800000000973A0008F6
:1048100000000000973A000800000000973A0008E6
:1048200000000000973A000800000000973A0008D6
:1048300000000000973A000800000000973A0008C6
:10484000614F0008650E000800000000973A00085C
:1048500000000000973A000800000000973A0008A6
:1048600000000000973A000800000000973A000896
:1048700000000000973A000800000000973A000886
:1048800000000000973A000800000000973A000876
:1048900000000000973A000800000000973A000866
:1048A00000000000973A000800000000973A000856
:1048B00000000000973A000800000000973A000846
:1048C00000000000973A000800000000973A000836
:1048D00000000000973A000800000000973A000826
:1048E00000000000973A000800000000973A000816
:1048F00000000000973A000800000000973A000806
:1049000000000000973A000800000000973A0008F5
:1049100000000000973A000800000000973A0008E5
:1049200000000000973A000800000000973A0008D5
:1049300000000000973A000800000000973A0008C5
:1049400000000000973A000800000000973A0008B5
:1049500000000000973A000800000000973A0008A5
:1049600000000000973A000800000000973A000895
:1049700000000000973A000800000000973A000885
:1049800000000000973A000800000000973A000875
:1049900000000000973A000800000000973A000865
:1049A00000000000973A000800000000973A000855
:1049B00000000000973A000800000000973A000845
:1049C00000000000973A000800000000973A000835
:1049D00000000000973A000800000000973A000825
:1049E00000000000973A000800000000973A000815
:1049F00000000000973A000800000000973A000805
:084A000000000000973A0008D5
:104A08004400000000400000010000000000000019
:104A18000500000000000000190000000000000070
:104A28007D0000000000000071020000000000008E
:104A3800350C000000000000093D000000000000E7
:104A48002D31010000000000E1F505000000000024
:104A580065CD1D0000000000F9029500000000006F
:104A6800DD0EE90200000000514A8D0E0000000032
:104A78009573C24800000000E941CC6B01000000BA
:104A88008D49FD1A07000000C16FF286230000005F
:104A9800C52EBCA2B1000000D9E9AC2D78030000F6
:104AA8003D9160E45811000031D6E275BC56000013
:104AB800F52E6E4DAEB10100C9EA2683677808006D
:104AC800ED95C28F055A2A00A1EDCCCE1BC2D300AA
:104AD80025A4000A8BCA2204000000000000000080
:104AE80000000000000000100000000000000000AE
:104AF800B9340332B7F4AD1410DB1AB30892540E6C
:104B08000D307D951447BA1A66088F4D26ADC66DCF
:104B1800F598BF85E2B74511CA96853D92BD1DEB54
:104B2800FCA11860DCEF52163C92AE220BB8C1B45F
:104B3800839D2D5B0562DA1C304C7E8F4E8BB25BF9
:104B480016F4529F8B56A512FBD4827643ED8AF059
:104B58008FE7F9311565191850F19BD94A13EEB44E
:104B6800284CF0A686C1251F035FC270CB9E49164C
:104B7800E642889C44EB2014B0650836AD6EA585E6
:104B880085F0CA14E2FD031A0B899979D5B13D095C
:104B9800D8DA973A35EBCF10AC363F5E73BB38CFD7
:104BA8003E6752FA44AFBA15010000000000000049
:104BB8000000000000000020345065C05FC9A65204
:104BC800BB13CBAEC440C21806C8DF7100D5A87CA1
:104BD800F56F0FDA58FC27136E4756357D2420658C
:104BE80002C7E768E48CA41DE9E60268D7CD3961FD
:104BF8007977FCC2405BEF16798CDE43FFA751F949
:104C080091F3B278F5BDBE11E857E9D6E8BEE87B66
:104C1800B054AC8F848D751BEA23A499E9F9D38B22
:104C2800B7A3714061DA3E15CEE33ECB73F948086D
:104C38008C97B427D51B7010A2BFEFB9EB8532153E
:104C48004DB44DB49BBB6F1996B6076CF8E7EEAD43
:104C580036D9B4F59135AE13222218AF4E6A684D95
:104C680091DAAA3D4F40741E9FBD9EE006A1C098F0
:104C780057C2A7FDA40E90170E7D497173E3208FCC
:104C8800B220D87605143B12853D7434811343B0A5
:104C9800AD297A5F27F4351CC446000805000000DA
:104CA8009C4600080D0001000000002000000000E4
:104CB80000000B0602000000C44C000800000008B9
:104CC800524F000824000207000000205A4F000835
:104CD80020000B11FFFF0000001C0240070000002D
:104CE8003000000080000000FFFF000000180240B4
:104CF800060000003000000040000000FFFF000038
:104D080000140240050000003000000020000000F0
:104D1800FFFF000000100240040000003000000007
:104D280010000000FFFF0000000C0240030000001C
:104D38003000000008000000FFFF000000080240EB
:104D4800020000003000000004000000FFFF000027
:104D580000040240010000003000000002000000D2
:104D6800FFFF0000000002400000000030000000CB
:104D780001000000C93D00082F3C00083B3C00082A
:104D88004D3C0008573C0008633C00081D12000811
:104D9800713C000800000000C4460008B046000846
:104DA8009C460008884600087446000860460008CB
:104DB8004C460008384600080000000000000000CB
:104DC8000000000000380240C53E0008E53E00082B
:104DD800013F00081F3F000800440040104600083B
:104DE80011040000044E000801000000000000004B
:104DF80000000000000000000C4E00084000000009
:104E080000000200144E0008010000001C4E0008BB
:104E180002000000470000000002000067000000D8
:104E28000000000000100140104600088404000043
:104E3800504E0008010000000000000000000000C3
:104E480000000000584E0008440000001000000058
:104E5800604E000801000000684E000802000000D3
:104E6800C702000000020000E70200000000000086
:104E78003B40000801400008473F00089D14000817
:104E88005D4000086C4500086C450008EC450008CA
:104E9800F4450008FC450008FC4500080000000037
:104EA80000000000000000000000000000000040BA
:104EB8009559695955555455155555560405154173
:104EC800105455404551554440455044505555455A
:104ED80000400040400444966555565545404554A9
:104EE8005141154055915555555540510501000002
:104EF800544554544555050400100410140440004A
:104F080000000140555515415404000044000100BB
:104F1800000000404100004450444550540055559D
:104F28005455655100400040010000010005010092
:104F3800115451515455550500000000000000005F
:104F480000000000001000000030464C4153485F4C
:104F580030005352414D5F30000A06050504010335
:104F680001020101010001696E7465727275707445
:104F78002D636F6E74726F6C6C65724034303031B3
:104F8800336330300072636340343030323338304A
:104F980030006770696F4034303032316330300030
:104FA8006770696F403430303231383030006770A4
:104FB800696F403430303231343030006770696F97
:104FC800403430303231303030006770696F4034EF
:104FD80030303230633030006770696F40343030C1
:104FE8003230383030006770696F403430303230DA
:104FF800343030006770696F4034303032303030D0
:10500800300072657365742D636F6E74726F6C6CAB
:1050180065720073657269616C40343030303434C5
:1050280030300073657269616C4034303031313032
:105038003030000A2045727265757220696E697495
:105048002020206C656473202100427574746F6E93
:1050580020707265737365642061742025750A0079
:105068004572726F723A20627574746F6E2064654F
:1050780076696365202573206973206E6F742072CA
:10508800656164790A004572726F722025643A205E
:105098006661696C656420746F20636F6E6669670A
:1050A8007572652025732070696E2025640A004595
:1050B80072726F722025643A206661696C6564209B
:1050C800746F20636F6E66696775726520696E74A8
:1050D800657272757074206F6E2025732070696E0A
:1050E8002025640A005365742075702062757474F5
:1050F8006F6E2061742025732070696E2025640A04
:105108000000000000000000000102030406070878
:10511800096D61696E002A2A2A20426F6F74696ED0
:1051280067205A6570687972204F53206275696CE0
:1051380064207A65706879722D76332E352E302D7D
:10514800353038372D673532373361663662613826
:105158003061202A2A2A0A00696E66006E616E0094
:08516800286E756C6C29000033
:105170006B3A0008A505000800000000BF3A0008CF
:1051800000000000000000005B3B00087F3B0008BF
:1051900000000000A90F0008A33B00080000000069
:1051A000D73B0008000000003C00002000C20100C6
:1051B00000010300000000004C00002000C20100BC
:1051C000000103000024F4005800002058000020D3
:1051D000FFFFFFFFFFFFFFFFFFFFFFFFFFFFFFFFDF
:1051E00000000000000000000000000000000000BF
:0A51F00000000000000000000000B5
:0451FA0015E015E0C7
:04000005080008D116
:00000001FF
