:10000000A83E002065330000073601005133000090
:1000100051330000513300005133000051330000D0
:100020000000000000000000000000005934000043
:100030005133000000000000F13300005133000094
:1000400049360000493600004936000049360000B4
:1000500049360000493600004936000049360000A4
:100060004936000049360000493600004936000094
:100070004936000049360000493600004936000084
:100080004936000049360000493600004936000074
:100090004936000049360000493600004936000064
:1000A0004936000049360000493600004936000054
:1000B0004936000049360000493600004936000044
:1000C0004936000049360000493600004936000034
:1000D0004936000049360000493600004936000024
:1000E0004936000049360000493600004936000014
:1000F0004936000049360000493600004936000004
:1001000049360000493600004936000049360000F3
:1001100049360000493600004936000049360000E3
:1001200049360000493600004936000049360000D3
:1001300049360000493600004936000049360000C3
:1001400049360000493600004936000049360000B3
:04015000493600002C
:04015400FFFFFFFFAB
:1001580053B94AB9002908BF00281CBF4FF0FF3126
:100168004FF0FF3000F00CB8ADF1080C6DE904CE8B
:1001780000F008F8DDF804E0DDE9022304B0704778
:10018800704700BF2DE9F04786468C460846089E12
:10019800154674461946002B40F0C1808542B2FAD4
:1001A80082F245D94AB1C2F1200300FA02FC954017
:1001B80094402EFA03F343EA0C0C4FEA154EA8B20A
:1001C800230CBCFBFEF80EFB18CC08FB00F943EA35
:1001D8000C43994528D9EB1808F1FF3704D2994503
:1001E80002D9A8F102072B44A3EB0903A4B2B3FB7D
:1001F800FEFC0EFB1C330CFB00F044EA0344A04257
:1002080014D92C190CF1FF3304D2A04202D9ACF155
:1002180002032C44241A43EA07401EB1D4400023A9
:1002280034607360BDE8F0874746DDE76346F1E771
:1002380092BB431B01214FEA154EAFB2200CB3FB12
:10024800FEFC0EFB1C330CFB07F840EA0343984501
:1002580061D9EB180CF1FF3004D2984502D9ACF102
:1002680002002B44A3EB0803A4B2B3FBFEFC0EFB75
:100278001C330CFB07F744EA0344A7424DD92C1959
:100288000CF1FF3304D2A74202D9ACF102032C448B
:10029800E41B43EA0040C0E7C2F1200395409440C4
:1002A80020FA03F12EFA03F34FEA154E9040AFB24D
:1002B8000343B1FBFEFC0EFB1C10190C0CFB07F8EA
:1002C80041EA0041884522D969180CF1FF3004D26F
:1002D800884502D9ACF102002944A1EB08019BB280
:1002E800B1FBFEFC0EFB1C110CFB07F743EA0143B4
:1002F8009F420ED9EB180CF1FF3104D29F4202D96C
:10030800ACF102012B44DB1B41EA004193E7604654
:10031800E3E76146F7E76046A4E76346B8E7834248
:1003280006D916B9002108467CE7C6E900E0F9E7D6
:10033800B3FA83F78FB9834201D3724508D8BEEB6D
:10034800020460EB030301209C461EB9002169E703
:100358003846FAE7C6E9004CF8E7C7F1200CBB407D
:100368000EFA07F522FA0CF42EFA0CF1BA401C43E7
:1003780020FA0CF3B8404FEA144901431FFA84FEEF
:10038800B3FBF9F809FB18300B0C08FB0EFA43EA2B
:1003980000439A4540D9E31808F1FF3004D29A4542
:1003A80002D9A8F102002344A3EB0A0389B2B3FBE4
:1003B800F9F809FB183308FB0EFE41EA03418E45A4
:1003C8002CD9611808F1FF3304D28E4502D9A8F15F
:1003D8000203214443EA0040A1EB0E01A0FB02986E
:1003E8004145CE46434602D306D14D4504D2013895
:1003F800B9EB020E68EB0403002EA7D0B5EB0E0292
:1004080061EB030101FA0CFC22FA07F3F9404CEA0C
:100418000303C6E9003199E74046C5E74346D9E7F3
:1004280010F8012B11F8013B012A28BF9A42F7D096
:10043800D01A7047034611F8012B03F8012B002A44
:10044800F9D17047034613F8012B002AFBD1181A7B
:100458000138704700000000F0B583B0624D00AF6E
:10046800D5F86431996811F001011DD140F60340B7
:100478003A1D04F01BFA0446002840F0B0807C685E
:10048800E3681B786BB905F039FD05F1D403D3E8AF
:10049800AF2F02F00902D3E8EF1FC3E8E02F0028CE
:1004A800F9D120460BF0E8FE002141F203003A1D85
:1004B80004F0FCF90446002840F091807B684B4E1C
:1004C800DA68D2F80100D2F8051003C618460BF016
:1004D800D3FE214641F201003A1D04F0E7F9044633
:1004E80000287CD17868C3685A7885F870205A88C3
:1004F800A5F872201A7985F87120B3F80720A5F8B5
:100508007420B3F80530A5F876300BF0B5FE214617
:1005180041F202003A1D04F0C9F9044600285ED1F0
:10052800D7F804C0DCF80C20531C41323446186854
:100538005968083303C493422646F7D160460BF046
:100548009BFE05F0E1FE0446002848D195F88A3064
:10055800990610D40221264A264813F04FF995F837
:100568007C305A064AD40121234A224813F046F91E
:100578006FF0120433E0072140F6334004F05CF9D1
:100588000646002800F0418107210C3015F027FCB1
:10059800452303700623C0F8024084714470047137
:1005A8002246C370314640F6334004F07FF90446D2
:1005B800A8B9012140F6314004F03EF9064600286A
:1005C80000F0238101210C3015F018FC2246314639
:1005D80040F6314004F06AF904460028BFD02046AE
:1005E8000C37BD46F0BD00BF000000207800002099
:1005F80044A20100AC82010072A20100002142F273
:1006080003003A1D04F052F904460028E7D17B683C
:10061800A34EDA68D2F80100D2F8051003C61846CE
:100628000BF02AFE214642F202003A1D04F03EF980
:1006380004460028D3D17C68E368B3F8012091B25E
:1006480049B1D97839B1A5F80421DA78114606F10B
:10065800280016F08DFF20460BF00EFE95F87C6002
:1006680016F0200618D1022140F66D4004F0E4F897
:100678000446002800F0C98002210C3015F0AFFBB9
:100688000123214603704670324640F66D4004F05F
:100698000DF904460028A2D195F89C301B0712D505
:1006A800002142F21C003A1D04F000F9044600281B
:1006B80095D17868C368D3F80120D3F80530C5E927
:1006C80038230BF0D9FD95F8D8309E0621D5384649
:1006D800B91C04F063F90446002880D1042142F2D1
:1006E800240004F0A9F80646002800F08E800421B2
:1006F8000C3015F074FB3B88224603807B8831461A
:10070800438042F2240004F0D1F8044600287FF424
:1007180066AF95F8D8305C0610D5002142F22A0061
:100728003A1D04F0C3F8044600287FF458AF7868EF
:10073800C3685B7885F820310BF09EFD082142F2F2
:10074800010004F079F8044600285ED008210C3036
:1007580015F045FB95F8D81040F2022311F0400F30
:1007680008BF0323024688074CBF43F02C0043F020
:100778000C008B0695F8D93048BF40F0400013F0C4
:10078800090F95F8A23018BF40F4006003F0060383
:10079800CE0748BF40F01000062B08BF40F4C070D9
:1007A800002113F04CF82146002242F2010004F027
:1007B8007DF8044600287FF412AF95F87C30B5F830
:1007C8000411980624D4C9B941F205003A1D04F071
:1007D8006DF8044600287FF402AFB5F804317C6850
:1007E8004BB9E368B3F80120A5F804219A882D488D
:1007F800114616F0BDFE20460BF03EFD082140F6DE
:10080800014004F019F8044660B96FF06804E6E6A0
:100818000029F3D10121244A244812F0EFFF6FF098
:100828000404DCE608210C3015F0D9FA95F8D83024
:100838000246D90729D44FF000511D4812F0FFFF96
:100848002146002240F6014004F030F80446002812
:100858007FF4C5AE01463A1D4FF6014004F026F874
:1008680050B3144A0221114812F0C8FF05F0A0FA4B
:10087800044600287FF4B3AE06F076FE044600284E
:100888007FF4ADAE04F016FEA9E603A1D1E900019C
:10089800D4E700BFAFF300809088000200800020FA
:1008A800D80000200801002096A20100AC820100B7
:1008B80010880002B9A201007B686D46DC688AB026
:1008C800B4F80130032B96BF424A434952F823102B
:1008D8006A46D3614FF4007340481384404BC2E921
:1008E800050142F8103F4FF413513E4812F09CFFA7
:1008F800B4F80120AD46022AB4F8033048D1032BDE
:1009080046D8394A52F823106D468AB06A46D361F0
:100918004FF4007335481384314BC2E9050142F89E
:10092800103F4FF413512F4812F07EFFAD46637904
:10093800A679032B98BF2E4AB4F80750D4F80900BB
:100948006C468CB094BF52F8231023496A46C2E91A
:1009580007364FF40073DFF89CC09385264BC2E935
:1009680005C1C2E909504FF4735142F8103F1D48C0
:1009780012F05AFFA54678680BF07EFC00214FF66E
:1009880002403A1D03F092FF044618B11B4A69E77A
:100998001149B9E778681A4DC368B3F80130A5F86A
:1009A800C1300BF069FC95F8C1305B077FF55EAF8D
:1009B80021464FF603403A1D03F078FF08B1114A6B
:1009C80050E77868C3685B7885F8C0300BF054FC52
:1009D8004CE700BF388A010099A00100DDA20100A0
:1009E80004000001AC820100288A0100F6A201007F
:1009F800188A01000EA30100070000013BA30100B3
:100A08000000002064A30100014811F01DBB00BFD5
:100A1800B8900100014811F017BB00BFCD9001004C
:100A2800014811F011BB00BFE2900100014811F02C
:100A38000BBB00BFF79001007FB51422002101A86D
:100A480017F027FA01238DF80430044B044901A854
:100A5800039305F09FFB07B05DF804FB60003000CE
:100A68004D0D00002DE9F043054642780F4689B048
:100A78000178254811F0E8FA2B78023B012B06D8BB
:100A88006C7814F0010439D0204811F0DDFA012007
:100A980031E06B6831461B5B01A88DF80480ADF826
:100AA80006308DF81080ADF8129012F011FE30B9B2
:100AB80005F0E4FB014638B1154811F0C5FA0234D7
:100AC8006B78A342E5DCE2E7124C94E80F0086E875
:100AD8000F002069616902AB03C302AA3146384698
:100AE8000D4B06F043FB014620B10C4811F0ACFA5F
:100AF800FFF7A2FF002009B0BDE8F083A04641F649
:100B08001C0904AEDCE700BF0C9101002291010032
:100B18003091010090830100681600204E91010079
:100B2800F0B5064614460D4685B051B9344811F063
:100B38008BFA14222946204617F0ABF9002005B09D
:100B4800F0BD098A2F4811F07FFA002741F61C03EF
:100B58002D4C01A92068ADF806308DF8047012F00C
:100B6800B7FD42F65723B8B9ADF80E308DF80C0032
:100B7800264B039A23601A602B8A013323810323AF
:100B880023742146304608F009FE01460028D5D0D6
:100B98001F4811F059FAD1E7206802A98DF80870AA
:100BA800ADF80A3012F094FD1A4F98B942F60213C4
:100BB8008DF80C00ADF80E30039A144B28461A60D5
:100BC80023602B8A023323810423237414F053FAFD
:100BD800B881D6E7104B39463B6002233B822B8A0B
:100BE8003046FB8109F044FA014620B110F1780F34
:100BF80001D00A48CDE70A4811F026FA9EE700BF5F
:100C0800719101008491010054160020FC1A002003
:100C18009B910100381600202D0C0000B5910100B1
:100C2800D09101002DE9F0410D461E46144632B917
:100C38000E4811F009FA2046AC81BDE8F0810C4855
:100C480011F002FA00250B4FDFF82C80B54204DBC7
:100C58000A4811F0F9F90120EFE7615D404607F80D
:100C6800011B11F0F1F90135F0E700BFDE91010039
:100C7800EE910100201B0020FF9101005CBC0100E7
:100C880070B503788AB004460E4607AD032B20D80A
:100C9800DFE803F002191B1D11492846FFF7CAFBBC
:100CA800059563781E210493A37830460393E3786F
:100CB8000C4A02932379019363790093A3790FF087
:100CC800A3FC0AB070BD0849E7E70849E5E7084909
:100CD800E3E70A212846074A0FF096FCE0E700BF41
:100CE80003920100259201000A920100119201006D
:100CF8001B920100A9B4010030B50D46044689B025
:100D080013F0C6F86946FFF7BBFF2A460A4D0B48A1
:100D1800694611F099F92868A0420AD105F0F2FE57
:100D280000232B60FFF788FE014610B1044811F03C
:100D38008BF909B030BD00BF681600204892010049
:100D48006A920100F0B511F1270F07460E461546C5
:100D58001C468BB010DB02A9FFF792FF00962A46CB
:100D6800A388064802A911F06FF9012D04D83A4664
:100D78002046034903F076F90BB0F0BD8D920100CF
:100D88006D0A000070B50C468AB0054613F080F86D
:100D980002A9FFF775FF194E6CB12246184802A93F
:100DA80011F052F9306805F0ADFE00233360FFF70B
:100DB80043FE0AB070BD134802A911F045F9306826
:100DC800A842F6D141F61C038DF80440ADF8063070
:100DD8000D490E4B019A0B601A600D4B0C744B6059
:100DE80001230B814FF6FF73CB8108F0D7FC014636
:100DF8000028DED0074811F027F9DAE76816002046
:100E0800C4920100E292010054160020FC1A00204E
:100E1800290B0000F192010008B51F480CF01CFDD9
:100E28001E480CF019FD1E480CF016FD1D480CF06C
:100E380013FD4FF0A8631C4A1C49174815F0D2F956
:100E48004FF0A8631A4A1B49144815F0CBF94FF024
:100E5800A863194A1949124815F0C4F918494FF0FE
:100E6800A863184A0F4815F0BDF9002004F0CCFB20
:100E7800014620B1144811F0E7F8002008BD1348D6
:100E880011F0E2F8FFF7D8FD014608B11048F2E783
:100E9800104811F0D9F8F0E7608701005887010081
:100EA800508701004887010090160020110A0000B1
:100EB800841600201D0A000078160020290A000068
:100EC800350A00006C1600200A9301002A930100DD
:100ED8006A920100419301002DE9F04F91B000930F
:100EE80002F004030293C2F3C203013384070546E8
:100EF8000E46DDF868900392059340F0BB81041D0F
:100F080030B1072909D86FF01B0011B0BDE8F08F88
:100F180001F00706341DC6F10806009B4FF00008D3
:100F28004FF0040A591E4FF0FF3347460193C3465A
:100F38005346CDF810800DB1009A2260059800281C
:100F480000F3E8809848009A824203D39748824287
:100F5800C0F0E080039AA4EB050E92074FEA9E00CA
:100F680000F103810F2F00F2B180002D00F0058100
:100F780007F140020DEB020C019A0CF8200C0CF85A
:100F8800102C049801300490E7E07A285DD84B28AB
:100F98000ED8472859D829282DD8252852D054D8D2
:100FA80020287AD02338D0F1000B4BEB000B74E0EB
:100FB8004C382E2849D8DFE800F07048484848489F
:100FC8004848484848484B48484848484848485985
:100FD800484B4B595959704B6D487048184B184835
:100FE80048827F4B48484B487F0000204FF0000B59
:100FF8004FF0040A38E001222A38C0B202FA00F0A1
:1010080010EA0E0F49D110F0625C2FD110EA020BE2
:1010180043D06046013C5444B4FBFAF40AFB04F4A0
:10102800002D61D0A3EB050CA444B4453FF66BAF8B
:10103800002868D1042B47D159F8043B23600423C6
:1010480004342AE0019A013A01924FF0000B24E09F
:1010580011F8010C6C2834D1002011F8023C8346A9
:101068006C2BC5D14FF0080A5346D3E709F107099D
:1010780029F00709073424F00704F9E802AB35B171
:1010880006982044B0423FF63EAFC4E900AB4FF0AB
:10109800000B08344FF0080A534611F8010F0028D6
:1010A80078D0BBF1000F7FF470AF2528F5D14FF051
:1010B800010B019B013301934FF0040AECE75846FA
:1010C80094E700208346A5E7082B02D06FF01500AF
:1010D8001BE709F1070929F00709F9E80223C4E920
:1010E800002308230834D8E768B9042B02D109F192
:1010F8000409A4E7082BE9D109F1070929F0070930
:1011080009F10809EDE7059A013A059259F8042B07
:10111800009210E7039A900720D54FF0010CA4EB3A
:10112800050E4FEA9E00BEF5007FCFD20F2FCDD817
:10113800F5B107F140020DEB020E019AC0B20EF8AC
:10114800200C0EF8102CBCF1000F3FF41AAF60F021
:101158007F000EF8200C08F101080137C5F10802DC
:101168004FF6DA7E0434069297E74FF0000CDAE780
:10117800BCF1000F01D00136EFE7029802360028D3
:10118800EBD10098CDE90631FFF75CF9DDE90631CE
:101198000644E2E7631BB3F5806F97D245B9A6F121
:1011A8000804E018B1E600BFD07E010090BE01003F
:1011B800029A9B0828602B709DF81030C2B1EB7022
:1011C80085F80280B8F1000F05D0002208A8C5F103
:1011D800010C97420ED14FF0000AC5F101030DF141
:1011E800200901930DF1300B574512D1601B8CE695
:1011F8006B70E5E710F8013B190608D504EB0C0EF7
:10120800B64503F07F033FF67EAE04F8013B01329A
:10121800DFE7B8F1000F03D099F90020002A17DBA7
:10122800029BD3B11AF80B2004F8012B0022019B72
:1012380098182044B0423FF666AE99F8000000992D
:1012480004F8010B2046039216F016FE039A144484
:101258000AF1010A09F10109C6E799F8002055F8D1
:1012680022300093029B009845F82230FFF7EAF8F5
:10127800421CDCE76FF00D0047E600BF2DE9F04F98
:1012880097B000AFD7F880B03B62CBF3C0030446F9
:10129800894690F802A0FA62BB6141B945780078A6
:1012A8000AEB800020444D4517D8A0EB0409E378E9
:1012B800FB61BAF1000F02D01BF0010F16D1FB69D8
:1012C80053BBFB6A1BB1494620463A6A98474D46CC
:1012D80028465C37BD46BDE8F08F461C3046FFF710
:1012E800B1F80130304409F10109DCE7626823787C
:1012F8007A62FA6A9900796104EB8301002A40F066
:1013080001810E464FF000084D4601EB0A094E4593
:101318004CD101EB0A0610E01BF0020FD1D0237864
:101328009A007A61626804EB83017A62FA6A002A99
:1013380077D14D46904601EB0A061BF0050F0CBF0E
:1013480002230123FB62FB6906EB430A0BF002034D
:10135800BB625645BCD016F8021B16F8013C54F87F
:101368002390AF4B994502D3AE4B994536D3BB6911
:10137800002B40D0786A10F03EFE00283BD0E946AA
:101388008AB06A46A84B53617B6AC2E906314FF4BA
:1013980000731384A54B42F8103F00234FF41251F9
:1013A800A34801F0BFF8023DCD46D2E716F8013B4D
:1013B800F96254F82300FFF745F8D7F88430F96A42
:1013C80001304BB1D7F8883098453EBFD7F8843004
:1013D80023F8180008F10108054498E7BB6923B110
:1013E800786A10F008FE0028C9D11BF0010F05D15A
:1013F800FB6AED1AADE7BB6A002BAAD04846FFF797
:1014080021F8D7F8843053B1D7F8883098453FBFD2
:10141800D7F88420431C22F8183008F10108054445
:1014280097E7BAF1000F73D01BF0040673D0D046CB
:10143800002607F1480052463B61B96216F01CFDD0
:10144800B96A3B6901EB0A02BA62FA69F9695200A2
:10145800FA60BA6A02EB41023A610BF00202BA6022
:101468003A69B96A8A4258D162781BF0020F18BFEC
:1014780000217A6208BF4FEA5801B2181BF0010F29
:10148800D2B240F09F801BF0040F14BF40460020EA
:10149800BB616270A070E17020463A6A7969FB6AA4
:1014A8009847051EFFF614AFBB69414623707B6A57
:1014B8003A6A6370FB6984F802A0E37007F1480098
:1014C800FB6A9847B0F10008C0F2B4807B69A9EBC9
:1014D8000A01C91AFB683A6AC91AD7E90A03984780
:1014E8000028C0F2A9804FF0000BA84408EB0005C3
:1014F80007F1380AB34567D300213A6A0846FB6A00
:101508009847E5E656464FF0000807F1380092E79D
:101518005646D04696E7B04694E7BA6A12F8021BD8
:1015280012F8015CBA6254F825003D4A904202D391
:101538003C4A90421ED3BA6932B1786A7B6010F097
:101548005AFD7B6800288BD1BA6802BB08F12802D3
:1015580007F1300C08F10100944407F1580208F132
:10156800020852FA80F00CF8101C5FFA88F800F8AC
:10157800105C75E7BA693AB1786A7B6010F03BFD98
:101588007B6800287FF46CAF1BF0010F09D006F1CF
:10159800280207F13000711C161806F8205CCEB23C
:1015A8005EE71BF0040F3FF45BAF08F1280207F178
:1015B800300008F1010102EB000808F8105C5FFA3E
:1015C80081F84DE7002063E71BF80A3054F82390B0
:1015D80087F83730D7F88430FBB133F81B80012106
:1015E8003A6AFB6A07F137009847002824DB05446C
:1015F800B8F1000F06D14846FEF724FF00F10108B4
:101608001FFA88F8414648463A6AFB6A9847002814
:1016180012DB05440BF1010B6CE7D7F88480DEE799
:10162800D07E010090BE010060930100040000011B
:10163800FC82010045464BE6054649E6014B186029
:10164800704700BF9401002080B505460E46174636
:1016580098460EF075F9034616F02CFC0446DFF8A0
:101668001890424649F8003039463046A84754F8A1
:10167800090001F08BFE00BF080000002DE9F047CB
:10168800058B04462807904611D4022905F0070562
:1016980040F0CD80204610F047FF78B10138218B0B
:1016A800042811D8DFE800F0C3106D8595000129E2
:1016B8000CBF45F0100545F02005258388F31188F7
:1016C800BFF36F8FBDE8F08701F0070AAA4500F065
:1016D800A6800027B9463E46A368002B00F0BD80CF
:1016E80041F00801218388F31188BFF36F8FA16847
:1016F800002900F0BB800D68002900F0B780334650
:1017080052462046D1F80480C047002D76D02B6879
:1017180029461D46F0E701F007035A1F012A1BD886
:10172800002221F00701062B276889B2C4E90022AC
:1017380009D13B4603E0628B013262831B68002BB0
:10174800F9D141F002012046218310F0EDFE002876
:101758007BD041F0200177E0042B0AD121F007016A
:1017680089B22046218310F0DFFE10B141F020013C
:101778002183218B01F0070AAA4550D00027B946DA
:10178800AAE7236921F0070141F00601062DD3F8E5
:10179800009021832DD1B9F1000F40D041F008010C
:1017A800218388F31188BFF36F8F20463949C847D2
:1017B80029E021F00701236941F0040189B2042DD1
:1017C800D3F804902183E6D000274FF0040A3E4660
:1017D80082E721F00701236941F0050189B2052D4F
:1017E800D3F808902183D6D000274FF0050A3E464B
:1017F80072E700274FF0060A3E466DE72B4687E75B
:10180800B9F1000FD1D14FF02003EFF3118883F322
:101818001288BFF36F8F238B23F008032383258B54
:10182800EA062ED525F01003238305F0070566691F
:10183800218B002EBFF66FAF00232768C4E9003361
:1018480021F0070141F001012183218B4FF00009AC
:1018580001F0070AAA457FF43FAF002F9BD041F063
:101868000801218388F31188BFF36F8F002FC7D039
:101878003D68394633465246204610F081FE2F46D1
:10188800F4E7AB067FF51AAF25F02003238305F0B4
:101898000705FFE6B525010010B530B90B480C491E
:1018A80010F02BFF6FF0150010BD836833B907489F
:1018B800084910F022FF6FF00400F5E71B6813B128
:1018C800BDE8104018471846EEE700BF0C8301003A
:1018D800149401002594010010B530B90B480C4947
:1018E80010F00BFF6FF0150010BD836833B907487F
:1018F800084910F002FF6FF00400F5E75B6813B1C8
:10190800BDE8104018471846EEE700BF0C830100F9
:10191800149401002594010070B508B101B132B9E1
:101928000B480C4910F0E9FE6FF0150070BD846893
:101938000CB1E56835B90648074910F0DEFE6FF0CE
:101948000400F3E741F8040BE368BDE8704018476A
:101958000C830100439401002594010010B504464E
:1019680030B91048104910F0C8FE6FF0150010BDCE
:10197800006830B90B480D4910F0BFFE6FF0010048
:10198800F5E783680BB11B6933B90648084910F0BD
:10199800B4FE6FF00400EAE7616898470028E6D1D2
:1019A8002060E4E70C8301006F940100809401003B
:1019B8002594010070B51346044630B91048114902
:1019C80010F09BFE6FF0150070BD006830B90C4830
:1019D8000D4910F092FE6FF00100F5E782680AB138
:1019E800956835B90648094910F087FE6FF004007C
:1019F800EAE70A46AC466168BDE87040604700BF48
:101A08000C8301006F94010080940100259401006B
:101A1800034A13680BB9526813600020704700BF6F
:101A28009801002030B50C460E4985B00291D0F8D7
:101A3800AC110546CDE9003100F1E0014FF0FF336C
:101A480020460CF0CBFF50B9012384F86430D5F858
:101A5800A83123B1204605B0BDE83040184705B08D
:101A680030BD00BFFB27010038B50C4611460546BE
:101A780010F0C1FE034638B92846044910F0BBFEF1
:101A880003460020236038BD0120FBE75DBC010050
:101A98002DE9F04F012381460569466885B005F5B3
:101AA8005977D7E8EF2F002A03D1C7E8E13F00298B
:101AB800F7D10CBF1A46002240F0B580B368B16A6E
:101AC80005F5E4781C1F104610F01AFF844263D80D
:101AD800013A00F0A280B2FA82F24FF00044D440FA
:101AE80072682046073222F00302C5F86022B16A04
:101AF80010F006FFC5F86402B36A40466343033337
:101B080023F0030302EB4302230103EB44030933ED
:101B180023F0030303EBC403C5F858221A44083220
:101B2800C5F854227368C5F85C42C5F850323F4B7B
:101B3800C5E9A963D9F80030C5F8FC31316800F06F
:101B4800DFF9044630BBD9F804A0D9F81090DAE9D7
:101B5800073409F5307B012B584608BF103C15F0B7
:101B6800E5FD0023DAF8240031494FF4806201EBE7
:101B780080210093584623460EF0B6F909F52C70DB
:101B88002C4915F079FDDAF8140083685C682CB9E3
:101B98006FF05704002139E0013294E74B46264A9A
:101BA800DAF81810A04704460028F3D1DAF8140030
:101BB80083681B69002BEBD00122DAF818109847CC
:101BC80004460028E6D11D4B2846C5F8A8311C4B11
:101BD800C5F8AC311B4B0393D5F810320293D5F8F6
:101BE8000832CDE90083D5F86832B26AD5F86013B7
:101BF80000F04EF904460028CCD105F1E0000CF0C5
:101C08009DFF0028C5F868030ADB0221384610F05A
:101C180027FE204605B0BDE8F08F6FF00B04B9E74A
:101C28006FF01504B6E76FF07704F2E7512801006A
:101C3800101C0020372801002B280100511C00002F
:101C4800DF2901009928010013B5044640B100239B
:101C58000122CDE90032074BD0E909120CF072FEDF
:101C6800A36E1B6823B1E06E02B0BDE810401847B0
:101C780002B010BD5DBC010013B5044608462169D9
:101C880001F55971D1E8AF1F022910D193B1A0B164
:101C98000121CDE900311346D0E909120CF052FEBA
:101CA800074B984208BF6FF00B0002B010BD6FF0F1
:101CB8000F00FAE76FF04C00F7E76FF00100F4E768
:101CC8002EF8FFFF2DE9F74388461546066906F505
:101CD8005973D3E8AF3F022B5FD1136823B96FF074
:101CE800150003B0BDE8F0831B78002BF7D0D6F8B9
:101CF8006093B9F1000F33D106F5D8774FF0FF3272
:101D08004FF0FF3338460DF06FFE30462A6801A9C0
:101D1800FFF7AAFE019C1CB9384610F09FFDDEE7CC
:101D280005F10803A3666B6984F86490E366E463CD
:101D380060B1384610F092FD21463046236E2A687D
:101D4800FFF770FE0020C8F80040CAE72022296883
:101D580004F1400015F059FF384610F07FFDF1E717
:101D680030460F4910F047FD04460028B7D005F16A
:101D7800080383666B69C063C366002380F8643018
:101D880020222968403015F040FF224601213046C4
:101D980000F060F80028D5D0A1E76FF00F00A0E7A9
:101DA8005DBC010010B50C46006900F55973D3E815
:101DB800AF3F022B0FD189B10A4900F52C7015F0FD
:101DC80099FC204614F0CBFE70220021204616F024
:101DD80060F8002010BD6FF00F00FBE76FF0010006
:101DE800F8E700BF9C1600202DE9F04F05460E4687
:101DF80090460027D0F8B0A085B0AAF5AE74214669
:101E08003046FEF70DFBE0B9114BA4F1400B0293ED
:101E1800DAF810303246CDE9008329464FF0FF3317
:101E28005846AAF5CE790CF0D9FD60B97023012285
:101E380003FB079383F86420DAF80C300BB158469B
:101E48009847703417B105B0BDE8F08F0127D6E781
:101E58000D2A01001FB5144690B18AB1012912D18B
:101E68000A4B00F1E0010293D0F8AC314032019303
:101E78004FF0FF33204600930CF0B0FD04B010BDC6
:101E88006FF01500FAE70020F8E700BF0D2A0100FF
:101E98002DE9F04387B00E46DDE90E811446DDE9F1
:101EA80010251F4630B329B3DFF850C000F1E00910
:101EB800002D08BF65469EB9CDE9034400F5CE74F0
:101EC8002046059615F070F803ABCDE900432A4685
:101ED8003B46414648460CF057FE07B0BDE8F08344
:101EE800002241460E9248462A4607B0BDE8F04314
:101EF8000CF076BF6FF01500EFE700BFF11D000092
:101F0800F0B50E46044689B0002872D0436B0BB971
:101F1800394B436301232246E3630023D4F8981026
:101F280004F1400042F8301FCDE901334FF0FF3390
:101F38000093D4F89C3014F0F7FA304A06AB92E8D4
:101F4800030083E8030018460CF002FC0546D8B9E4
:101F580004F134000CF0DEFB0546A8B9616B284893
:101F680005AA14F0BDFA054670B9059B9A6872B1C6
:101F78000C33D4F89400C4F8A03010F074FDC4F801
:101F8800D40030B96FF00B05284609B0F0BD034600
:101F9800EFE7D4F8940010F066FDC4F8D8000028E4
:101FA800F0D0D4F88C30D4F8A010C4F8A8300423AA
:101FB800C4F8AC30C4F8C4300223A362114BB4F89F
:101FC8009420D4F8D470C4F8B810C4F8D010D4F859
:101FD8009010236204F1A403A4F8B020C4F8A470FC
:101FE800C4F8C010A4F8C820C4F8BC00A661E36215
:101FF800CAE76FF01505C7E7AA940100A883010096
:10200800B4940100948701002DE9F047044607467F
:102018004FF00109DFF8508014B93846BDE8F08761
:1020280094FAA4F5B5FA85F509FA05F32E0108EB3B
:1020380005156FEA030A24EA03042B7B002BEBD077
:1020480058F806301B694BB9464473680422284681
:10205800196807EA0A0700F051FADDE728469847A9
:102068000028D9D1F0E700BF7483010030B5002201
:1020780089B00F490F4815F013FC002200230024F3
:10208800CDE906230E230C4DCDE903344FF44072FD
:102098002846CDE90144094B094900940DF0C6F8DA
:1020A8000849284615F05CF8204609B030BD00BF45
:1020B800D1200000400E0020B8090020A92300000C
:1020C80010200020BC94010001480DF03BBD00BF6A
:1020D800A00400202DE9F04780461F480F4610F065
:1020E80014FD0646002830D000252846BDE8F087B4
:1020F800237B73B12368DB680BB1204698472368BC
:102108001B69D3B9636804222046196800F0F6F900
:10211800013610344C45EBD3B8F1000FE5D0002D53
:10212800E2D02846FFF770FF0546002FF7D00021C0
:102138004FF4A4700DF0E6FBF1E72046984700281D
:10214800E0D00AFA06F31D43E2E705464FF0010A1C
:10215800024CDFF80C90DDE7D416002074830100F0
:1021680084830100014B53F820007047D487010095
:1021780008B5034608462BB1044A136000F08EFCEC
:10218800002008BD6FF01500FBE700BFC401002068
:1021980010B5044C237813B903480DF0D3FC012380
:1021A800237010BD211B0020A004002010B5044698
:1021B800064810F0AAFC3CB1054BD3E8EF1F0139E3
:1021C800C3E8E21F002AF8D110BD00BFCC160020DA
:1021D800D016002000200146034BD3E8EF0FC3E8D8
:1021E800E21F002AF9D17047CC16002070B5FFF71E
:1021F800F1FF0546074C084EB44200D370BD636832
:102208005B792BB123685B6813B129462046984750
:102218001034F1E7748301008483010010B5044C85
:102228000449204610F026F8034B1C6010BD00BF7F
:10223800DC030020C0870100C416002008B5002375
:10224800074A4FF400411370064A07481360074ACB
:102258001360FFF78DFFBDE80840FFF7DFBF00BF41
:10226800221B0020CC1600200F2B0100D0160020C6
:10227800014600220023014810F01DB8DC030020AD
:10228800014810F0B6B800BFDC030020024B01463D
:10229800186810F000B900BFC4160020014810F0FB
:1022A80036B900BFDC03002070B5264B187800282B
:1022B80047D0FFF7E5FF054670B1234BD3E8EF1F82
:1022C8000139C3E8E21F002AF8D1204C204EB4425D
:1022D8002DD32846FFF7DAFF1E4B1F4C1B68002B37
:1022E80019DD15F096FA4FF47A72A0FB020302FB8F
:1022F8000131C30B43EA4143D4E900209B1A40F261
:10230800E9324FEAD13161EB0001934271F10001EA
:1023180001D3FFF76BFFD4E9003213F57A7342F16A
:102328000002C4E90032BDE87040FFF7B7BF636838
:102338005B7923B12368294620461B6898471034E7
:10234800C5E770BD211B0020D01600207483010052
:1023580084830100CC160020380E002070B50D4D86
:10236800297861B90120FFF7B5FE0B4C0B4EB4423A
:1023780006D3FFF799FF0028FBD101232B7070BD0E
:1023880063685B791BB1236820469B6898471034C3
:10239800EDE700BF221B0020748301008483010045
:1023A80000212DE9F0470846FFF794FE044658B38C
:1023B80040F267684FF0000915F07CFD1B4B1C4A82
:1023C8001B58136033B11B4B1B68092B02DD1A48DD
:1023D8000DF0B8FB0025194FDFF85CA044B120468A
:1023E800FFF712FE044618B94FF0FF384FF0FF39D7
:1023F800FFF75AFF064628B9B5B942464B4650463C
:102408000DF0C6FB3546E9E74FF0FF384FF0FF39CE
:10241800D2E72B689B691BB10022284611469847D2
:102428001035BD42F5D3E8E7054DFAE7080000008E
:10243800C8160020D0160020A004002084830100C4
:102448007483010013B5184810F05FFB174B1B7815
:102458007BB14FF02003EFF3118483F31288BFF3AD
:102468006F8FFFF721FF84F31188BFF36F8F02B0DE
:1024780010BD0F4B1B68002BF9D050B90022002368
:102488000C48CDE900234FF4004200230DF0D2FFA1
:10249800EDE70928EBD1074815F00EFA064802B017
:1024A800BDE810400DF04EBBD0160020221B0020C6
:1024B800C8160020400E0020A004002010B5064BCE
:1024C80004461B6898472146A06004480FF071FF36
:1024D800BDE81040FFF7B6BFC4010020DC030020B0
:1024E800044A054B9B1AB1EBD30F34BF52F83100A5
:1024F800002070477482010074830100084B10B4F7
:10250800C31A44681B110133237143689A7101226D
:102518004368196043685A7110BCFFF739BE00BFA1
:10252800748301002DE9F04F8FB0C1F34A2804AF3E
:102538000D469146B8607B600C0DB8F1000F63D072
:1025480000264FF0040B4FF00A0A07F11403C7F8EE
:102558000C80C7E907667E620193CDF808B0CDF814
:1025680000A007F11C0332464846F968FEF786FECC
:10257800B0F5006F03461CD36C468AB0D9F8041036
:1025880004AB26481A46C3E9050140F2FF71D96138
:102598004FF400711984224B42F8103F4FF4125146
:1025A80033462048FFF7BEFFA5462C37BD46BDE899
:1025B800F08FC0F30A0804F11700184420F0070050
:1025C80080083B60FFF754FE68F35325044690B13A
:1025D8003B6800F11001C7E9083607F11403F961F7
:1025E800CDE900A3CDF808B048460F4AF96807F1CD
:1025F8001C03FEF743FE68F353252A4620467B68F2
:10260800B96810F0B4FAD0E704F1170020F0070019
:102618008008FFF72DFE0446EDE700BFD1940100C6
:1026280004000001148301004B2B01002DE9F04F39
:1026380087B00446DDE9105ADDE912690F46934672
:102648009846A6B31021334652460020CDF8009094
:10265800CDF81490FEF740FC014605F11700084438
:10266800144B04F007040BF0070BE40020F00700FC
:1026780003EA412344EA8B1480081C430391FFF7C3
:10268800F7FD44EA0554054640B13EB1334652468B
:102698000399CDF800901030FEF71EFC4346224601
:1026A8003946284607B0BDE8F04F10F060BA314609
:1026B800D3E700BF00FE0F000EB403B503AB53F819
:1026C800042B01460448019301F0FAF902B05DF8C1
:1026D80004EB03B0704700BF892C0100CA0605D47B
:1026E8008B064CBF02490349FFF7E6BF704700BF9E
:1026F8005CBC01005BBC01002DE9F04F89B09A4633
:10270800149B9DF84CB00693159B04460593169BA5
:102718000D469046179E0493BBF1000F00F09D8074
:1027280006F48073079310F00AFA06F002090246CD
:1027380000283ED020469249FFF7BEFF0746B9F170
:10274800000F08D016F0440F35D12A4620468D498F
:10275800FFF7B2FF074406F0010353B18A4B204646
:1027680053F82B20894B8A49002A08BF1A46FFF7DD
:10277800A3FF06F48073002B49D006F00803002B52
:1027880063D1B8F1000F66D0424620468149FFF771
:1027980093FF0546069B3D44002B6DD1049B002BFF
:1027A80073D1F30700F1E58031462046FFF796FF25
:1027B800D9E00746C3E7784B18680028CAD0774B9A
:1027C8004FF47A791B684FF46161B5FBF3F5B5FBFB
:1027D800F0F300FB135509FB05F5B3FBF1F2B5FB6C
:1027E800F0FE4FF03C0C01FB123100FB1E55B1FB13
:1027F800FCF309FB05F5B5FBF0F50CFB13112046BE
:102808000091CDE901E56649FFF756FFA2E706F01A
:102818000803EBB1634B204653F82B206249FFF7BE
:102828004BFF0546B8F1000F05D0424620465949EE
:10283800FFF742FF0544BAF1000FABD052462046DD
:102848005A49FFF739FF0544A4E74FF0000AE1E7CA
:1028580006F00805E6E745469CE7BAF1010F069B36
:1028680006D1002B65D1049B002B7CD000250CE001
:10287800002BF8D04E485DE04E48069B22464E4954
:102888000FF088FB049B002B69D0DFF83081DFF85C
:102898003091049F3146102F204628BF10274FF053
:1028A800000AFFF71BFF554546DC059B49462046B5
:1028B8001A78FFF701FF4FF0010A1AF0070F03D14A
:1028C80041462046FFF7F8FE57453CD9059B494647
:1028D800204613F80A20FFF7EFFE0AF1010ABAF1C1
:1028E800100FEAD14FF0000A20463649FFF7E4FE00
:1028F8005246059B20469A5C334B995C11F0970F22
:1029080008BF2E223149FFF7D7FE0AF1010ABAF1B2
:10291800100F1DD01AF0070F03D141462046FFF7CC
:10292800CBFE57455246E4D841462046FFF7C4FE41
:10293800EBE720485D46A0E741462046FFF7BCFE8E
:102948000AF1010AAFE720462149FFF7B5FEC4E7BF
:10295800059B3B440593049BDB1B049399D1BBF176
:10296800000F7FF41EAF204609B0BDE8F04F10F00D
:102978007AB92046054A0649FFF79EFE14E700BFCC
:102988001595010019950100E487010010950100D3
:10299800DCA101003E950100DC160020D8160020BD
:1029A80022950100F8870100429501004895010031
:1029B800B72C0100892C0100C93A000027BC01008E
:1029C8004D9501005395010084BD01005595010006
:1029D80025BC01002DE9F0410F884B6805460C46DF
:1029E80090468E6886B0C7F382175BB1144A9B1A6B
:1029F80043F3CF01002920DB2078C0F3C200FFF7A2
:102A08006FFD0346214651F8102B6088C2F34A2215
:102A1800002A01EB020408BF00210022C0F30B10BA
:102A2800CDE90408CDE90214284631460197009201
:102A3800FFF762FE06B0BDE8F0810023E2E700BFC1
:102A48007482010042F20F7373B58B4228BF0B46A4
:102A580005680446052168460D4A0DF0D5FD064671
:102A6800636828460B225B680A4910F0EFF8636830
:102A78003246694628465B6810F0E8F863681B220E
:102A880028465B68044910F0E1F802B070BD00BF49
:102A9800B39C0100749501005895010000210123A1
:102AA800064A904206D8064A01B901231360054B2D
:102AB80018607047012140085B00F2E740420F00B0
:102AC800D8160020DC160020F8B50D460446064F3F
:102AD8004618B44201D12846F8BD14F8011BBB685A
:102AE80001485B689847F4E7AC7F0100014B03603D
:102AF80000207047408801000449431E0F3013F836
:102B0800012F8A5C83421A70F9D17047E29501005F
:102B1800F0B50746264E8DB001AD0C460FCE0FC559
:102B28000FCE0FC596E8070085E807003846002F46
:102B380039D0002C39D0381F0246214610344B7842
:102B48000D781B0443EA0563CD7804312B4311F853
:102B5800025C8C4243EA052342F8043FEFD104218A
:102B6800144C8A07036916D1C3F30742A55C1A0EF1
:102B7800A25C42EA0562C3F30725655DDBB2E35C4C
:102B880042EA054242EA032221F0030330336B4450
:102B980053F82C3C534050F8042F013153402C2952
:102BA8000361DED101200DB0F0BD2046FBE700BF78
:102BB800B0830100E29501002DE9F04F002703687A
:102BC8009DB002934368DFF8BCA103938368DDE9F5
:102BD80002460493C36805930369DDE904BE0693BE
:102BE800436907938369DDE9062C0893C36998460E
:102BF8000993089B0093CD590CAB2DBA5AF8049B46
:102C0800DD514FEAF223A94483EAB213009D83EA17
:102C180072634B4425EA020502EA0C0985EA0905B4
:102C28002B44434486EA0B054FEA743888EAB40813
:102C3800254006EA0B0985EA090588EAB4580437ED
:102C4800A844402F03EB0E054344DE46DDF8008020
:102C580040F088804FF0100A4B490A9151460AF11A
:102C6800010A0DF1700E0AF00F070EEB870757F8EF
:102C7800407C01F00F094FEAB748019788EAF71836
:102C880001F10E0707F00F070EEB870757F8407C96
:102C980009314FEAF74E8EEA774ECDF82CE001F075
:102CA8000F010DF1700E0EEB81010EEB890959F839
:102CB80040EC51F8401CBAF1400F7144DDF804E0D3
:102CC80088EADE08DDF82CE041448EEA972E71444C
:102CD80005EA02084FEAF52E2CEA050787EA0807F5
:102CE8008EEAB51EDDF828808EEA756E774458F8AE
:102CF80004EF49F8401C77440F4400994FEA733EAB
:102D0800394484EA0607CDF828808EEAB30E07EA2C
:102D1800030704EA06088EEAB35E87EA08077744E1
:102D28000F4401EB0B0ECDF800C0B34622D1029937
:102D38003944016003991944049B4160234483602A
:102D4800059B3344C360069B73440361079B2B4474
:102D58004361089B13448361099B6344C3611DB0AD
:102D6800BDE8F08FB346CDF800C0264694461C4611
:102D78002A4640E7944626462A461C4675463B4660
:102D88006CE700BFA4880100E088010010B5044684
:102D9800C8B1702200210FF0E7FF0B4B0B4A0C491A
:102DA800C4E900230B4B0C48C4E902130B4BC4E9DC
:102DB800040301200A4BA36103F17453A3F5230311
:102DC800A3F69243E36110BD85AE67BB67E6096A67
:102DD80072F36E3C3AF54FA57F520E518C68059BF5
:102DE800ABD9831F2DE9F04780460C4600AF002978
:102DF80036D0D1E90012E9468AB06D46A3684FF093
:102E0800050A2E461A48C5E90723C5E9050146F80B
:102E180010AF002332464FF421511648FFF782FBCA
:102E2800D4E90312CD466369AD461348C5E90723C3
:102E3800C5E90501C5F810A0002332464FF4215119
:102E48000C48FFF76FFBCD46E36901210B4A09489F
:102E58000FF0E6FEA3690121094A06480FF0E0FEDB
:102E6800214640460BF0E2FFBD46BDE8F08700BFB3
:102E7800E296010054830100119701004097010078
:102E88004F97010030BFFFF7FDBF00BF114B124A3B
:102E98002DE9F041D518013DB5FBF3F5DFF83C808D
:102EA8005D430F4B074608EB0304013CB4FBF3F406
:102EB80003FB04540E1B30460A4914F0DDFF701959
:102EC80042460021083E14F0E4FF7E6704F1080042
:102ED800BDE8F081010000000000000004000000CF
:102EE8000400000084830100044B996858698842F3
:102EF80003D003494FF080520A607047C41A00207B
:102F080004ED00E070B52A4C06460D4629482A49CA
:102F180010F07CFBA36ADB0647D52648274910F04A
:102F280075FB1120A36A1C0704D52248244910F018
:102F38006DFB12201E4CA36A990712D521491D4822
:102F480010F064FB636BA26A120609D501211E4AC0
:102F580018480FF065FE1EB1A36A23F08003A36230
:102F68001320134CA36ADE0704D51248174910F042
:102F78004DFB1420A36A9C0604D50E48144910F092
:102F880045FB15200A4B9A6AD10658BF9A6A9A6A75
:102F9800920642BF5A6A22F400525A629A6A42F072
:102FA800FF029A6200232B7070BD1020BAE700BFA1
:102FB80000ED00E0548301007D9701009397010024
:102FC800C6970100D9970100F19701000798010001
:102FD8002698010010B5244C2449254810F016FB0A
:102FE800A36A99013ED52248224910F00FFB1E2002
:102FF800A36ADA0104D51E481F4910F007FB1F20F9
:10300800194CA36ADB0204D519481C4910F0FEFAD2
:103018000220A36A1C0304D51548194910F0F6FAD2
:103028002120114CA36A590304D51148154910F001
:10303800EDFA2220A36A9A0304D50D48124910F02C
:10304800E5FA2320084CA36ADB0304D508480F4996
:1030580010F0DCFA2420A36A6FEA03436FEA1343F3
:10306800A36210BD1D20C3E700ED00E055980100E4
:10307800548301006D980100809801009A9801001E
:10308800C4980100E2980100079901002199010004
:1030980070B5294C06460D462848294910F0B6FA5D
:1030A800A36AD9043CD52548264910F0AFFA172061
:1030B800A36A1A0504D52148234910F0A7FA182055
:1030C8001D4CA36A9B0512D51C48204910F09EFA96
:1030D800A36BA26A100409D501211D4A17480FF0F5
:1030E8009FFD1EB1A36A23F40043A3621920124C6A
:1030F800A36A590504D51148164910F087FA1A2011
:10310800A36ADA050ED50D48134910F07FFA1B2083
:10311800094A936A43F47F43936200232B7070BD7E
:103128001620C5E7A36A9B04F2D504480B4910F0A2
:103138006DFA1C20ECE700BF00ED00E054830100AD
:103148004C99010062990100C6970100739901002A
:103158008C990100A1990100BC99010026980100F1
:103168002DE9F0418AB0654B0446D3F80480002667
:1031780000AFC8F3080586F31188BFF36F8F02F01C
:103188007F43B3F17F4F07D102F00C03082B12D114
:103198005B495C4810F03AFA002634460023FB717C
:1031A800EB1E092B00F28980DFE803F00A7F827C9E
:1031B80087878787878510074CBF0C460126EDE770
:1031C8005149504810F022FA00234C4DFB71EB6A2C
:1031D8009A0705D54D494B4810F018FA002332E0FC
:1031E800EB6A002B01DA4A49F5E7EB6A5B00F5D593
:1031F8004849444810F00AFA6B69A26943F480739D
:103208006B61BFF34F8FBFF36F8F6B6932F8022C7E
:1032180023F480736B61BFF34F8FBFF36F8F4DF64D
:1032280002739A4208D0AB6ADBB273B30120F91D6E
:10323800FFF768FE034606E023680121364A314855
:103248000FF0EEFC2368FA79DAB907F1080504F102
:10325800200C2A4620686168083403C26445154674
:10326800F7D17A6A002E44D0C2F3080121B96FEA77
:1032780052226FEA42227A62184607F10801FFF7E4
:10328800B1FD2837BD46BDE8F081AB6A13F47F4F26
:1032980004D00120F91DFFF7FBFECBE7AB6AB3F5BD
:1032A800803F9BD3FFF796FEC4E70020F91DBFE7D8
:1032B8000020F91DEFE719498DE7194A18F4F87F3E
:1032C800E8468AB0174B18BF13466A461649103DA0
:1032D800C2E905134FF400731384144BD56142F807
:1032E800103F00234FF411510648FFF71BF9C5465C
:1032F80074E722F4FF7222F00102BCE700ED00E05F
:10330800029A0100548301002D9A0100449A010099
:10331800659A0100739A0100929A0100AE9A010021
:10332800E9990100D4990100D29A01000400000132
:10333800044B5A6942F010025A615A6942F4806299
:103348005A61704700ED00E0EFF30880EFF3098160
:1033580001B57246FFF704FF01BD00BF00F05CFD38
:10336800202080F3118808484FF40061401880F34A
:103378000988EFF314800221084380F31488BFF30F
:103388006F8F00F0BBF8000068310020084B9B6885
:1033980083420BD1EFF3058343B1064B5A6842F0E1
:1033A80080525A605A6A22F400425A6213F0EABF05
:1033B800C41A002000ED00E06FF00A01084A936883
:1033C800D967084998674B6843F080534B600023DE
:1033D80083F31188BFF36F8F9368D86F704700BF6E
:1033E800C41A002000ED00E016498A684FF030004A
:1033F8001044EFF3098C80E8F01F202080F3128836
:10340800BFF36F8F104F4FF000664A698A603E60C5
:103418004FF07404141920680C4C2060906F00233E
:10342800936780F3118802F1300090E8F01F8CF365
:10343800098802F1000004B510F0F0F8BDE8044076
:1034480070470000C41A002004ED00E00C170020AB
:103458001EF0040F0CBFEFF30880EFF309808169B9
:1034680011F8021C0229FFD001B510F0C4F801BD03
:1034780040B2002807DB01234109034A00F01F007E
:10348800834042F82130704700E100E040B2002854
:103498000CDB01220649430900F01F00824020335B
:1034A80041F82320BFF34F8FBFF36F8F704700BFE2
:1034B80000E100E0054B420953F82220012300F007
:1034C8001F0003FA00F01040704700BF00E100E061
:1034D80040B2002801F10101ACBF00F16040064B89
:1034E8004FEA4111C9B2ABBF00F5614000F00F00CF
:1034F80080F800131954704714ED00E00F4A08B51E
:103508000F4B22F07F029A60BFF34F8FBFF36F8F8C
:10351800D3F8882022F47002C3F88820EFF31483CC
:1035280023F0040383F31488BFF36F8F0BF032FD8D
:103538000CF0B4FD00F078F80BF076FD0000000008
:1035480000ED00E042F8203C009B0B4942F81C3C8F
:10355800019B21F0010142F8183C029B42F8081C2B
:1035680042F8143C4FF0807342F8043C0023203AA0
:1035780002658367704700BF511600000A4B446F0D
:1035880098600A4B1C60436E83F30B88104681F3E6
:103598000988002163B681F31188BFF36F8F002279
:1035A8000023FEF751F800BFC41A00200C170020B2
:1035B800014910220A60704710ED00E072B64040E1
:1035C80080F31188BFF36F8F01B500F023FB00284B
:1035D8000AD0BFF34F8F30BF00BF00BF00BF00BF8E
:1035E80000BF00BF00BF00BFBDE8014062B6BFF327
:1035F8006F8F704772B6494081F3118801B500F0AA
:1036080009FB00280AD0BFF34F8F20BF00BF00BFBF
:1036180000BF00BF00BF00BF00BF00BFBDE8014042
:1036280080F3118862B67047002320210348C2182E
:103638000133452B82F80013F9D1704700E100E00F
:1036480001B5EFF30580A0F110004FEAC00004496E
:10365800014409C99847BDE80140024908470000EC
:10366800E87F0100F12E00001FB5094C094A2346E6
:103678000121094800F012F900230393074B0121A7
:10368800E41A01A80193029400F012F904B010BDE5
:103698000000072000000020A4890100480600203F
:1036A80010B50C7A0B6804F01F0223F01F031A43AD
:1036B800CB68640923F01F03054943EA440343F038
:1036C8000103C1F89800C1F89C20C1F8A03010BDD2
:1036D80000ED00E010B50A4BD3F89030C3F3072390
:1036E800013B984208D901210346064A06480FF0D3
:1036F80097FA6FF0150010BDFFF7D2FFFBE700BF88
:1037080000ED00E0E99A0100348301002DE9F04F53
:103718008946144606464FF00008514D85B0C84505
:1037280027DAD6F804A0BAF1000F44D0BAF11F0F77
:1037380017D91AF01F0F14D1D6F800B01BF01F0FBD
:103748000FD158460FF06EFF07460AEB0B00013801
:103758000FF068FF874210D06FF01507414A3B46CB
:1037680001E04346404A012140480FF059FA6FF002
:103778001504204605B0BDE8F08F17F1160FEDD0FF
:10378800BC42EBDDC5F89870D5F89C10C5F8987068
:10379800D5F8A03021F01F0143F01F0BD6E9003205
:1037A8001A44994202F1FF3A1DD1D34507D1314657
:1037B800F8B20FF040FF08F101080C36AFE73146C8
:1037C800C5F89870D5F89C3022F01F0203F01F034B
:1037D8001343C5F89C30E0B20FF02DFF10F1160F1F
:1037E800C5D0441CE7E7C5F89870D5F8A020013B80
:1037F80023F01F0302F01F021343D3453146E0B202
:10380800C5F8A030E8D00FF016FF10F1160FAED0B3
:10381800C5F89870D5F89C209DF808300BF1FF3B4F
:1038280062F304038DF80830D5F8A0309DF808201D
:103838005B0863F347128DF80820D6E90032134479
:10384800009323F01F035B44A3EB0A03013023F02A
:103858001F036946C0B20393FFF73CFFBEE700BFF2
:1038680000ED00E0329B01000F9B01003483010052
:103878000522044BC3F89420BFF34F8FBFF36F8F1B
:10388800704700BF00ED00E0BFF35F8F0022024BDE
:10389800C3F89420704700BF00ED00E010B5034C5A
:1038A8002278FFF733FF207010BD00BF241B0020D3
:1038B8002DE9F74F294D8A4606464FF00008AB46DA
:1038C800274FD0451BDAD6F80490B9F1000F3FD046
:1038D8003168084601910FF0A5FE0199044609EBED
:1038E800010001380FF09EFE84424FF014021D4B78
:1038F80008D002FB08F36FF015024BF8032003B061
:10390800BDE8F08F14F1160F2C60F8D01978A14299
:10391800F5DD02FB08B0C7F89840C7F89840D7F81B
:103928009C4000F10801007B64F304000871D7F89B
:10393800A0000C79400860F347140C71D7F89C106C
:1039480021F01F016960D7F8A01021F01F0129613B
:1039580008F1010814350C36B3E700BF1017002032
:1039680000ED00E0241B0020F0B54449444CD1F898
:1039780090302568C3F307239D4287B07AD800208A
:10398800FFF782FF3F4BC1F8C030854216D13E4C4D
:1039980001A82570FFF7AAF8002506463B4FAE425E
:1039A80013D1002023783549D1F89020C2F307229B
:1039B800934259DBFFF75CFF002053E0616801EB9D
:1039C8000011FFF76DFE0130DFE70199280101EBD7
:1039D8000513DA683A40B2F5001F22D0B2F5800F1D
:1039E8002CD0B2F5801F36D15A689B680958013B24
:1039F80022F01F0003440120844623F01F0340EAFD
:103A08004C10CDE902218DF8100002A92078059309
:103A1800FFF760FE002823DB23780135013323708C
:103A2800BDE75A689B680958013B22F01F00034410
:103A38004FF0020C012023F01F03E0E75A689B684F
:103A48000958013B22F01F0003444FF0000C0620E8
:103A580023F01F03D3E701210D4A0E480FF0D7F8D2
:103A68006FF0150007B0F0BDC1F89830C1F8A0009C
:103A7800013399E74FF0FF30F4E700BF00ED00E0B5
:103A8800B0890100AAFF4400241B00200000F0FFB9
:103A9800559B01003483010008B5024B1B68984709
:103AA800002008BD24170020034B044A18609378AF
:103AB80043F002039370704724170020E0010020B0
:103AC800F0B587B007460E46144600211022684616
:103AD8001D4614F0DEF902238DF80230054B2A4604
:103AE80021466846CDE9047601930CF053FE07B0F1
:103AF800F0BD00BF7136010008B50649064821F03F
:103B08000701C1F1005202F5E0220EF0EBF90020A6
:103B180008BD00BF438E00202817002000F01F02B8
:103B280040090DD001280DD1094B03EB8203D3F8CE
:103B3800002222F0E04242EA0171C3F80012704705
:103B4800044BF2E70023803253F82230FFDE00BF37
:103B5800002884500025845038B50124134B144D97
:103B6800C3F8004502230321C5F8D0360020FFF72B
:103B7800D5FF20460321FFF7D1FFC5F804472146AA
:103B8800C5F804492120C5F8004BFFF7C7FF2146B7
:103B98002020FFF7C3FF21460B20FFF7BFFF214678
:103BA8000A20FFF7BBFF002038BD00BF00100050FF
:103BB8000040005007B50DF1070012F05CFB114BF7
:103BC80098421CD14FF480620F4B1049C3F8B825B6
:103BD8004FF40062C3F83C259DF8070012F037FB4C
:103BE8000B499DF8070012F02DFB01209DF80730C6
:103BF800984009F0A9FF002003B05DF804FB6FF0BE
:103C08000B00F9E70000AD0B00A002502CA00250F9
:103C180028A10250052370B5144D154E2C78013497
:103C2800B4FBF3F303EB8303E41A12F0D7FA114A57
:103C3800137823B156F82430C01A072814D94FF046
:103C48005023D3F8141141B10021C3F81411D3F84B
:103C580014312C700CB9012313702C7812F0BEFAB1
:103C680046F82400012070BD0020FCE7261B002038
:103C780034170020251B002048B1054B054A1B6856
:103C8800B3FBF2F35843044B43F001031847704762
:103C98000403002040420F006084010070B5049CBA
:103CA800C4F30726304609F0DDFBE5B20146284695
:103CB80012F0D9FA00220120074BA40B04F0FC04EF
:103CC8001A51A84009F046FF304609F07FFD284602
:103CD800BDE870400AF032B880A0025073B501A860
:103CE8000AF026F8264B984247D109F051FD041EE8
:103CF8000ADA9DF804000AF021F801212346214A36
:103D080021480EF08DFF35E040F607031F4D8DF872
:103D18000540AE68ADF806307468019B14B96FF0C1
:103D28005704EAE708212846194AA047041EE4DB9D
:103D38003369002BF3D00122082128469847041E36
:103D4800DBDB01209DF80430984009F0FDFE9DF86A
:103D580005009DF804509DF8076012F029FA014605
:103D6800284612F074FA0B4BB60045F000459D51F9
:103D7800002CC2D1204602B070BD6FF01204BCE71F
:103D88000000AD0B8A9B010064830100C07F010025
:103D9800A13D000080A102502DE9F341144683683B
:103DA8001B690BB100229847C4F30726304609F077
:103DB80061FB0546304612F0FBF94FF00008E7B208
:103DC8000146384612F053FA104B220E920043F87F
:103DD8000280304609F046FB0D4A4FEA943C0CF04D
:103DE800FC0C47F0004342F80C300146384612F00C
:103DF80029FA084B05F132020093304643460194F4
:103E0800520012F0DFF902B0BDE8F08180A1025043
:103E180080A00250A53C000009F078BD1022174B85
:103E280070B5C3F840244FF47F03D3F83021D3F89A
:103E38003431072A1BD1023B032B02D8104AD35C2A
:103E4800ABB14FF05024012600250520C4F81866B0
:103E5800C4F8145612F0F4F93046C4F8146612F097
:103E6800EFF9C4F81456C4F81856002070BD4FF086
:103E780050230022C3F81426F7E700BF0030005093
:103E8800BB9B01000E4B402928BF402170B51D4641
:103E98000C4C4618B04203F1020304D1002305F884
:103EA8001130074870BD02781209A25C03F8022C91
:103EB80010F8012B02F00F02A25C03F8012CE9E7CD
:103EC800451B0020EB9B010030B503788BB00446FE
:103ED80007AD032B21D8DFE803F0021A1C1E124994
:103EE8002846FCF7A7FA059563781E210493A37862
:103EF8000E4A0393E3780E4802932379019363797A
:103F08000093A3790CF080FB09480BB030BD094938
:103F1800E6E70949E4E70949E2E70A212846084AA9
:103F28000CF072FBDFE700BF03920100259201004D
:103F3800271B00200A920100119201001B92010028
:103F4800A9B4010030B50024094D0A4B85B02846B4
:103F58000293039413F0EAFB02AB284600934FF454
:103F6800A3620A2304490BF0BFFF204605B030BD09
:103F7800780E0020039C0100102300200146014810
:103F88000CF028B8780E0020037830B5012B13D038
:103F9800022B27D07BB90A46184B03F1100453F8BB
:103FA800045BA34242F8045BF9D11B781370438881
:103FB8004B731B0A8B7330BD0A46104B03F1100478
:103FC80053F8045BA34242F8045BF9D11B781370E1
:103FD8004368C3F307224B731B0CCB731B0A8A730A
:103FE8000B74E8E700F1100350F8042B984241F8ED
:103FF800042BF9D103780B70DDE700BF0C9C01009E
:10400800012838B505460CBF0648074811F082FE5E
:10401800044620B101210C3011F0DDFE2576204642
:1040280038BD00BF98050020E8040020132810B50B
:104038000CD10A4811F06EFE044628B101210C305B
:1040480011F0C9FE01232376204610BD09B10448AA
:10405800F0E70120BDE81040FFF7D2BF1C060020A2
:104068006C050020F0B505460E46174685B0AB88AE
:10407800012B0ED9284611F0F4FE044648B1AB884E
:10408800984208D9022100930D4A03460D480EF0C4
:10409800D1FD05B0F0BD284611F0E3FE2B688DF880
:1040A8000800013C394602A88DF809400393B0473F
:1040B8000028EED02146284611F0C3FED7E700BFFE
:1040C8001D9C01008C820100C36802211B78024AF2
:1040D80002480FF095BB00BF489C0100AC8201006C
:1040E80038B5C368B3F801401B786BB90F21204677
:1040F80002F052FE054640B9084B1A8822B96FEA09
:1041080004506FEA1050188038BD012102F022FDDA
:104118002846BDE8384002F0F5BC00BF001B00206F
:1041280010B5C3680121B3F80140204602F034FEFF
:1041380038B92346BDE810400121044A04480FF06D
:104148005FBBBDE8104002F0DDBC00BF709C010001
:10415800AC82010010B5C36801211C88204602F01A
:104168001BFE38B92346BDE810400121034A044824
:104178000FF046BBBDE8104002F0C4BC709C0100C3
:10418800AC820100012110B50C3011F062FEBDE8CF
:10419800104003780121024A02480FF031BB00BFEA
:1041A800949C0100AC820100014610B5084811F04A
:1041B800B7FD0849084813F08CFA031E06DABDE873
:1041C80010400121054A06480FF01ABB10BD00BF78
:1041D800440100202C020020980F0020B69C01000A
:1041E800AC82010073B5C5680121B5F8016030469D
:1041F80002F0D2FD044640B9334601211A4A1B4851
:1042080002B0BDE870400FF0FBBA2B781A2B19D119
:10421800C378012B24D14FF4806104300FF0F9FAF0
:1042280043050FD4D4F8A03069460093D4F8A830D9
:104238002046019303F00CFB204602B0BDE8704015
:1042480002F060BC2B785BB9B5F80330A4F89E3057
:10425800B5F80530A4F8A430B5F80730A4F8A630AE
:10426800204602F0F3FDE7E7709C0100AC820100F4
:104278000121024A02480FF0C1BA00BFD39C0100D5
:10428800AC8201000B46B0B50D8A00AF0446294642
:10429800D868FFF7F7FD8AB06A46094BC2E90750AC
:1042A800C2E9053440F202439384064B4FF432517D
:1042B800054842F8103F0FF0B7FABD46B0BD00BF41
:1042C800ED9C010005000001AC82010037B502EB4E
:1042D800C303934204D103B0BDE83040FFF7D2BF17
:1042E800144614F8085B854211D10B8A54789C4215
:1042F80007D901210090074A07480EF09BFC03B03C
:1043080030BD0846536803B0BDE830401847224620
:10431800DFE700BF0F9D0100AC82010010B501214D
:1043280004460C3011F095FD2146BDE810400B23E2
:10433800014A0078FFF7CABFA08A010070B5C568B6
:104348000121B5F80160304602F026FD044638B96F
:104358003346BDE8704001210B4A0C480FF050BAB3
:104368002B783BB9D5F80330C0F8AC30D5F8073016
:10437800C0F8B030201D4FF400510FF04AFA204623
:10438800BDE8704002F0BEBB709C0100AC82010029
:1043980073B53D4811F0DAFC0446002871D0017E5F
:1043A800012945D0032969D1038A032B02D8374A4A
:1043B800012141E004210C3011F04BFDFF2342881C
:1043C80006886376238AC6F30B009A42608309D075
:1043D800012100922E482F4A0EF02CFC204607F0AF
:1043E8004BFF12E00F2102F0D7FC054610B9638B92
:1043F800294ADDE702F008FD21466076320B28469F
:1044080002F04AFA284602F07DFB244BD3F84431E7
:10441800002B36D02249234813F05BF9031E30DA0B
:104428000121214A1A4802B0BDE870400FF0E8B9EE
:10443800038A012B04D81D4A15480FF0E1F9CDE78E
:1044480002210C3011F005FD054600780FF0ABF99C
:1044580083070CD440F6B523154A164916480DF0C3
:1044680000FE404080F311884FF0030002DF06236E
:104478002146124A2878FFF729FFAFE70B46104A72
:1044880096E702B070BD00BF44010020319D0100D5
:10449800AC820100529D0100769D010000000020C1
:1044A8002C020020980F0020B69C0100989D010066
:1044B800B49D0100E89D0100169E0100708A01006C
:1044C800339E01002DE9F74F0023804689461746A1
:1044D800DFF810A1DAE8EF4FCAE8E23F002AF9D185
:1044E800264644B9434601213F4A404803B0BDE847
:1044F800F04F0FF085B9204607F022FE4FF00C0B65
:104508003B4D0BFB0050438843451BD0204607F02A
:1045180017FE0BFB0050438801210093354A4346A0
:1045280032480EF087FBDAE8EF3FCAE8E26F002A6C
:10453800F9D1002B53D01E46304603B0BDE8F04FEA
:1045480007F09ABEA7420ED0204611F0DEFB0121EB
:1045580004F10C084046217611F03DFC40463A8AA9
:10456800F96811F042FC204607F0EAFD0C2707FB2A
:1045780000504368ABB1B9F1000F12D1204607F0E3
:10458800DFFD012107FB00504268D2E90003127ADF
:1045980003F01F07B9405B09DAB100EB83000FF0A5
:1045A80038F9204607F0CCFD0C2707FB005083683C
:1045B800002BC1D0204607F0C3FD784305F80090D2
:1045C800204607F0BDFD07FB0055A8680BF0BAFAB6
:1045D800B2E7C94300EB83000FF029F9E1E703B024
:1045E800BDE8F08F40010020479E0100AC82010029
:1045F800481700206F9E010038B5042104460C308E
:1046080011F027FC034640885D7818B122461978D6
:10461800FFF758FF25B1BDE8384002480BF092BAC1
:1046280038BD00BF2801002070B5032104460C30B6
:1046380011F00FFC40F635420578B0F80100E36848
:1046480090421B7806D1BDE870400221074A08480D
:104658000FF0D6B818B122461946FFF733FF25B137
:10466800BDE8704003480BF06DBA70BDA29E010012
:10467800AC820100280100202DE9F84F0123D0F871
:104688000C80018A98F8004000AF03EB84038B424A
:104698007CD96D468AB06A46C2E9073105233E488F
:1046A8004FF42151C2E905043C4842F8103F0FF08D
:1046B800BBF8AD46BD46BDE8F88F5B460121384AD8
:1046C80036480FF09DF8013598F800309D42F1DA30
:1046D80008EB8503B3F801B00F215846B3F803601F
:1046E80002F05AFB04460028E7D000F1280B16B365
:1046F8004FF02003EFF3118283F31288BFF36F8F1B
:10470800E3696BB1013BE36182F31188BFF36F8FFB
:10471800204602F087F8013E0BF014FAB6B2E6E73D
:10472800636963B982F31188BFF36F8F0121524621
:104738001A480FF063F8204602F0E4F9C3E7A169CC
:1047480018688B42606108BFA06182F31188BFF3CB
:104758006F8F4FF02002EFF3118182F31288BFF3BD
:104768006F8FDA68E261C3F80C90C3F80090626A50
:104778004AB9C4E9083381F31188BFF36F8F5846EB
:104788000BF0ACFBC4E713606362F4E70025DFF8C5
:1047980014A0A94698E700BFD89E0100AC8201008A
:1047A800029F01001E9F01002DE9F041C66835787F
:1047B8004DBBB6F801700F21384602F0EDFA0446F9
:1047C80038B93B46BDE8F0410121104A10480FF0C6
:1047D80017B8F3782946037302F0BCF9A378012BC4
:1047E80004D02046BDE8F04102F08CB9231DD3E87F
:1047F800AF3FDB07F5D52046022102F0ABF928468A
:1048080001F082FBEDE7BDE8F08100BF359F0100B4
:10481800AC82010010B5C1E900239DF808300C46B0
:104828000B7207F08DFC0C22024B02FB00335C601C
:1048380010BD00BF481700202DE9F0474FF0FF32A8
:104848004FF0FF33064617480F4611F063FA4FF052
:104858000008044600F10C0A0121504611F0BBFA89
:10486800204684F8188007F06BFC4FF00C090E4DB9
:1048780009FB00504680204607F062FC09FB005007
:10488800C0F80880204607F05BFC09FB00550321AF
:104898005046C5F8048011F0A2FA068087702046B9
:1048A800BDE8F087F0050020481700202DE9F04109
:1048B800074616460C4688B021B9FFF7BDFF0446E7
:1048C800002852D002AD01220021284612F050FEE5
:1048D800204607F035FC0C23DFF89C8003FB0080A2
:1048E8008560204611F04BFA0146244811F045FA3C
:1048F8004FF4A022284600230BF04AF9054688B158
:1049080040F24B131E4A1F491F480DF0AAFB2A46C6
:1049180039461E480DF0A5FB404080F311884FF042
:10492800030002DF204607F00BFC0C23584318F85D
:10493800005095B102213B46154A16480095093D9D
:104948000EF078F9EDB2204607F096FC092D0FD845
:10495800114B585708B0BDE8F08116B134600020FB
:10496800F8E7204607F088FCF9E76FF06800F1E700
:104978006FF00400EEE700BF481700204C0100204C
:10498800B49D01005B9F0100169E0100649F010019
:10499800909F0100AC820100FFA3010073B5064699
:1049A8000D4642F22F00002101AAFFF77FFF0446BF
:1049B80038B10121084A09480EF020FF204602B00C
:1049C80070BD0198C368B3F801203280B3F8033092
:1049D8002B8007F051FCF1E7AC9F0100AC8201008D
:1049E800F7B5144B054693F99B300C46002B1DDA9E
:1049F80014B9204603B0F0BD082C4FF0000142F274
:104A0800180001AA264628BF0826FFF74FFF0028EE
:104A1800F0D1019F3246F9682846013113F02CFA8B
:104A2800384607F029FC3544A41BE1E76FF0850000
:104A3800E0E700BF00000020F0B587B006460DF1A2
:104A48000B01002001F08CF90546002845D11921F9
:104A580042F20D00FFF7F0FE0746002840D019216A
:104A68000C3011F0BCF904462946192213F011FA4A
:104A78009DF80B301C4A237392F8211192F82031CB
:104A8800601D994294BF06F1880106F196010EF067
:104A9800B9FE938938462380D389144A6380B6F8CF
:104AA800A030A4F80D30B6F8A230A4F80F30B6F84C
:104AB800A430A4F81130B6F8A630A4F813300123B6
:104AC80000930C230DEB0301FFF7A4FE00223946E7
:104AD80042F20D00FFF7EAFE0546284607B0F0BD92
:104AE8006FF06805F9E700BF00000020D40000203F
:104AF80030B5002187B042F20E00FFF79DFE002579
:104B08000C2304460DEB0301054A0095FFF782FECE
:104B18002A46214642F20E00FFF7C8FE07B030BD14
:104B2800D40000202DE9F04389B005460026944BB7
:104B3800B0F80180198848F47042914202AF04BF6E
:104B48001E80012600F090FF2C7864B3022C23D13C
:104B580000210622084602F0E7FA054658B9012165
:104B6800884A89480EF04AFE002001F0CDF91C372A
:104B7800BD46BDE8F0830021047301F0EBFF2B1D57
:104B8800D3E8AF3FDE0703D52146284601F0E2FF10
:104B9800284601F0B7FFE7E7234602217B4A7A4817
:104BA8000EF02EFEE3E7EB7805F10409012B08BFB0
:104BB800774B484608BF93F86F400EF0F0FD494622
:104BC80048B307F110000EF0DFFDD5F81130C7F833
:104BD8000930B5F81530A7F80D3001233B72E87895
:104BE80038B34846FFF770F96C4688B002AA694B9B
:104BF8004FF4E251C2E905304FF400739383664BDA
:104C0800614842F8103F0EF00FFE1321A5464046BA
:104C18000EF025FEABE720460EF05CFF014607F1DB
:104C280010000EF0EFFD494607F108000EF0EAFD0E
:104C3800D5E7062207F1100102F076FAEB78044670
:104C480023B96FF4805155480EF0F1FD002CC8D0FF
:104C580020460022B5F8013007F1100120F8883B02
:104C68000EF0D0FDB5F81730A4F89E30B5F819301D
:104C7800A4F8A430B5F81B30A4F8A630EB7822735A
:104C8800E37073B907F1080104F196000EF0BAFD5C
:104C9800217A3F4BC1EBC101194404F18F000EF09A
:104CA800B1FD0721204601F055FF1EB10121204624
:104CB80001F050FF20460FF016F8637B072B53D105
:104CC800231DD3E8AF3F13F4005F314E20D1E378C2
:104CD8001BB196F8D83018071AD5022142F21600EF
:104CE800FFF7AAFD0546002846D002210C3011F036
:104CF80076F8238800220380294642F21600FFF73F
:104D0800D5FD034620B10121254A1F480EF078FD44
:104D180096F8D930D9070DD5022300211A46204626
:104D280000910EF0D5FD034620B101211D4A164819
:104D38000EF066FD96F8D8309A0615D5D6F8643187
:104D48009B689B0710D5B91D381DFFF727FE58B97A
:104D58002046FA88B9880EF09DFD034620B101214E
:104D6800114A09480EF04CFD204601F0CBFEE378CD
:104D7800002B7FF4FCAEF7E66FF06803C3E700BFD3
:104D8800001B0020CC9F0100AC820100EA9F0100BB
:104D98000000002003A0010003000001D40000204F
:104DA8001FA0010040A0010057A0010000B5C16884
:104DB80089B00B7801A88DF80030B1F801300431C2
:104DC800ADF8013011F8013C8DF80330B1F8073027
:104DD800ADF81730B1F80930ADF81930B1F80B302B
:104DE800ADF81B304B7B8DF81D300EF00BFD084BDA
:104DF80068461A689B88CDF80B20ADF80F30CDF8BF
:104E08001120ADF81530FFF78DFE09B05DF804FBF1
:104E1800E59B010029289ABF014B185C09207047BF
:104E2800D5A3010070B5C3680F21B3F801601D78E0
:104E3800304601F0B1FF044638B93346BDE870404A
:104E48000121174A17480EF0DBBC65B12846FFF769
:104E5800E1FF29460246204602F0A2F82046BDE8B6
:104E6800704001F04FBE8678012EEFD106F056FF54
:104E780020460EF0AAFC0028E8D10520FFF7CAFF5B
:104E880005210246204602F08BF83146064A0548BD
:104E98000EF0B4FC052120460EF0FCFFDEE700BF53
:104EA800359F0100AC82010073A001002DE9F0419B
:104EB800C6680F21B6F801703578384601F06CFFE6
:104EC800044638B93B46BDE8F04101211B4A1C485D
:104ED8000EF096BC65B12846FFF79CFF29460246AE
:104EE800204602F05DF82046BDE8F04101F00ABE18
:104EF8008278F378012AC37205D00020FFF78AFF71
:104F080000210246ECE70BB106F008FF20460EF040
:104F18005CFC0028F1D10520FFF77CFF0521024643
:104F2800204602F03DF80121064A05480EF066FCCD
:104F3800052120460EF0AEFFD5E700BF359F0100E2
:104F4800AC82010073A0010070B58EB06C460646B5
:104F58000A4D0D2E0FCD0FC40FCD0FC40FCD0FC4AA
:104F680095E8030084E803009DBF0EAB03EB8606BB
:104F780056F8380C02480EB070BD00BFDC83010043
:104F880099A00100024BD3F864315B69184700BF50
:104F98000000002038B505460C4619B9FFF74CFC4F
:104FA8000446C8B140F635439D420FD12046FFF76D
:104FB800E9FF054640B1034601210948094A0EF0B8
:104FC8001FFC204607F058F9284638BD21460648F8
:104FD80010F0D3FE0025F7E76FF06805F4E700BF8F
:104FE800AC820100A1A001004C0100202DE9F04194
:104FF8000446458B477E807A07F09AF86169064631
:1050080049B1637ADA0704D4436A20461B689B686F
:105018009847002363612146304612F09BFA244BDF
:1050280093F88A309B0641D5384602F095FA044633
:1050380038B93B46BDE8F04102211E4A1E480EF031
:10504800DFBB437B073B012B09D91B4802211B4AC5
:105058000EF0D4FB2046BDE8F04101F053BD01F04D
:1050680051FD052140F63540FFF7E6FB044630B90F
:10507800BDE8F0410121124A0F480EF0BFBB00F114
:105088000C070121384610F0AAFE012604210670FB
:10509800384610F0A4FE002305808670C3702146B0
:1050A800BDE8F04140F63540FFF774BFBDE8F08138
:1050B80000000020C3A00100AC820100ECA00100A8
:1050C80018A10100F0B5C56801212F8887B0BCB2CE
:1050D800204601F061FE064640B923460121264AD2
:1050E800264807B0BDE8F0400EF08ABB02ACD5F800
:1050F8000220D5F8063001946989009110F09FFBD1
:1051080040B3122142F21A00FFF796FB054648B950
:1051180001211B4A19480EF071FB304601F0F2FCE0
:1051280007B0F0BD12210C3010F059FE034622469C
:1051380023F8027B06AF144603CCBC4218605960C2
:10514800224603F10803F6D1294642F21A00FFF776
:1051580021FFE2E7022142F21B00FFF76DFB044644
:105168000028D5D002210C3010F039FE21460780E6
:1051780042F21B00EBE700BF709C0100AC8201000B
:105188003BA1010073B5C368D9789A781E8842EAB2
:105198000122ADF8002059791A79B4B242EA012205
:1051A800ADF80220D9799A79204642EA0122ADF871
:1051B80004201A7A5B7A012142EA0323ADF806300B
:1051C80001F0EAFD054658B901211C4823461C4A4E
:1051D8000EF016FB022120460EF0C6FB02B070BD91
:1051E800694601F075FE38B91E2120460EF0BCFB59
:1051F800284601F087FCF1E70E2142F22000FFF774
:105208001BFB04460028F3D00E210C3010F0E7FDFC
:1052180000230680C0F80A30BDF8003021464380DC
:10522800BDF802308380BDF80430C380BDF8063075
:10523800038142F22000FFF7ADFED9E7AC820100FE
:10524800709C01002DE9F84F484FDFF8248107F1E1
:105258001409FB6848466FF39433FB6001F00AFCBD
:10526800451C4FF0FF324FF0FF3329463F480BF003
:105278001BF960B140F6323342463E493E480CF0D5
:10528800F0FE404080F311884FF0030002DF374EF4
:10529800DFF8E8B015B90AF0B3FADAE7F368C3F350
:1052A8008633022B52D9042B5AD1337B002B50D191
:1052B80000220023324810F031FD044660B940F660
:1052C800C42342462F492C480CF0CBFE404080F3C3
:1052D80011884FF0030002DFDFF8ACA04FF0FF3277
:1052E8004FF0FF3329480AF053FCDAF840215AB14D
:1052F800274A012121480EF081FADAF8400106F028
:10530800BBFF0022CAF84021204610F038FDCAF839
:1053180040012046FFF736FE0346B8B101211D4A79
:1053280016480EF06DFA19480AF00CFC204606F0F3
:1053380007FF0C22184B02FB0033588818B122468D
:105348001F21FFF7BFF8204606F096FF1436013DEF
:10535800A0E7012BFAD13069383802F073F8F5E785
:10536800022158460D4A0EF04BFAEFE7F0010020F3
:10537800B49D01005B9F0100169E0100AC820100F4
:105388004C010020E0B501000000002028010020A9
:1053980052A10100A1A00100481700206DA1010041
:1053A8002DE9F041044600F10C06304610F069FD85
:1053B800B4F810800546B8F1010F0AD84346012118
:1053C800184A19480EF01CFA2046BDE8F04106F0CC
:1053D80053BF3046022110F03CFD074600780EF01E
:1053E800E2F9C20706460CD440F6EE630F4A1049AC
:1053F80010480CF036FE404080F311884FF003004F
:1054080002DF052321460C4A3878FEF75FFFB30711
:10541800DAD56369A4F8108013FA85F5E560BDE86C
:10542800F08100BF989D0100AC820100B49D01008D
:105438008EA10100169E0100488A010038B5037E3E
:105448000446012B05D0032B11D1FEF7ADFE002039
:1054580038BDC36818780EF0A6F9C207054602D50C
:105468002046FFF79DFFAB07F1D52046EDE7012168
:10547800044A05480EF0C4F9204606F0FDFE6FF018
:105488001500E5E7A7A10100AC820100084A034620
:10549800D2F8640130B9D96839B1596929B1C2F86B
:1054A800643170476FF0770070476FF015007047F0
:1054B800000000202DE9F84F042100AF3E4C3F4882
:1054C8000EF0A7F9002000F01FFD3D4DE2793D4B9D
:1054D8002046012A88BF1D466E46FEF7F5FC8AB0B5
:1054E8006A46394BA346C2E905350125374BD061D9
:1054F8001362374B4FF42351364842F8103F0EF0F1
:1055080093F9DFF8D480B546DFF8C890334EE379D5
:105518000BF1070B9D4238DB94F870506E46284615
:10552800FFF712FD8CB06A46B4F87210B4F8763002
:10553800C2E907514FF400755362DFF8A4C0294B44
:10554800C2E905C015854FF4535142F8103F214870
:105558000EF06AF9B54694F871603046FFF7F4FC2E
:105568008AB06A46B4F874301F49C2E907631F4B12
:10557800C2E9051095844FF43351164842F8103F9C
:105588000EF052F9BD46BDE8F88F5846FEF79CFC70
:10559800EA468AB06A4640F20133C2E90565D0613D
:1055A80013844FF41351484642F8108F0EF03CF91B
:1055B8000135D546ABE700BF00000020D40000202D
:1055C8005DBC0100BBA10100BFA1010000020103F5
:1055D80004000002AC82010004000001CEA1010019
:1055E800DFA10100060000011DA201000500000165
:1055F80010B5FAF731FF034B1B6813B1BDE8104033
:10560800184710BD6017002070B5344D0646D5F810
:10561800643188B04BB90121314A32480EF0EEF8B6
:105628006FF01204204608B070BD6FF0020105F15A
:10563800D4000EF0FCF801210EF0EBF810EA01049A
:1056480048D1294B1E600A4605F5947011F090FF69
:1056580005F5A67011F067FF00220023CDE90623A7
:105668006FF008034FF48062CDE90243CDE90044AE
:105678001E4B1F4904941F4809F0D8FD1E491D48B8
:1056880011F06EFD1D4812F051F86FF007034FF44A
:1056980096621B49194800940AF026FC19491748D4
:1056A80011F05EFDD5F86431DB689847044630B1E7
:1056B80003460121144A0B480EF0A2F8B2E726B9B6
:1056C80008B0BDE87040FAF7C7BE05F1C4000AF09B
:1056D80005FCA7E76FF07704A4E700BF00000020EF
:1056E8008DA30100AC820100601700204D5200001C
:1056F80028280020180F0020A6A30100980F0020DA
:10570800282C0020ACA30100B2A301000048704778
:10571800CEA30100F8B506460024094DEF79E3B29F
:105728009F4202D86FF0010007E0294630460EF08C
:1057380041F90735631C08B12046F8BD1C46EEE761
:105748000000002037B504460D4671B128461249BD
:105758000EF030F948B929461048C4EBC404204477
:105768000EF030F9002003B030BD68460DF0FEFFA2
:105778000028F8D16846FFF7CDFF0028F5DA074B77
:10578800C4EBC400694618440EF01CF9002DE9D09A
:1057980001462846E4E700BFD89B0100000000202E
:1057A800014BD3E8AF0F7047D400002070B5144EFA
:1057B80006223146044612F006FAD8B1062142F212
:1057C8000500FFF739F80546B0B1062221460C302E
:1057D80010F00BFB0022294642F20500FFF766F89D
:1057E80048B93346226843F86929A288B280012261
:1057F80083F86820002070BD6FF06800FBE700BFE9
:10580800690000202DE9F3410021062204460846DC
:1058180001F08AFC024688B1464BD3E8EF1F41F4F9
:105828000041C3E8E21F002AF7D1237A43F00103BD
:10583800237202B0BDE8F04101F064B9FFF7B0FF90
:105848004106C0F3801702D510460EF082F93A4D92
:1058580095F821314BB100200EF0F9F828B1374AFC
:10586800022137480EF0E6F81DE095F8212195F859
:1058780020319A4222D10221324A31480EF0DAF818
:10588800002242F229001146FFF710F810B12E4A03
:105898000121E6E795F82131013385F82131237A92
:1058A80043F00403237201200EF0D1F8002F3DD0FD
:1058B800012002B0BDE8F0410EF04BB9224604F1D8
:1058C8000108414612F82A0B0EF083F8064608B183
:1058D8001E4ADDE795F82131013385F82131237A15
:1058E80043F00403237295F8A7305B0701D4184AE4
:1058F800B6E7414668460EF065F80123082142F2F2
:105908004E008DF80730FEF797FF044660B1082275
:1059180069460C3010F069FA3246214642F24E00D0
:10592800FEF7C4FF0028BED00A4AB1E702B0BDE8BE
:10593800F08100BFD400002000000020FCA401007A
:10594800CC82010021A5010052A5010072A5010029
:1059580092A50100BCA50100002106222DE9F8430B
:105968000446084601F0E0FB024680B1384BD3E814
:10597800EF1F41F40041C3E8E21F002AF7D1237A60
:1059880043F002032372BDE8F84301F0BBB8FFF708
:1059980007FF4306C0F3801802D510460EF0D9F869
:1059A80000200EF054F82B4D064698B1012103460D
:1059B800294A2A480DF034F995F8213113B101200C
:1059C8000EF045F8B8F1000F3FD0BDE8F8430120CC
:1059D8000EF0BFB895F8213195F820219A420CD2E3
:1059E800013B85F82131237A024623F00403022083
:1059F8001B49237206F06EFADEE7072142F22800FF
:105A0800FEF71AFF04F10109074628B90121154AD2
:105A180012480EF00FF8CFE707210C3010F0DFF92D
:105A280049460DF0CFFF3246394642F22800FEF7CC
:105A38003DFF0028EAD195F82131013B85F8213155
:105A4800237A23F004032372B6E7BDE8F88300BF86
:105A5800D400002000000020D7A50100CC8201005E
:105A6800413A010004A60100084BD3E8EF2F22F4C5
:105A78000041C3E8E01F0028F7D1130404D5002231
:105A88000220034906F026BA704700BFD400002060
:105A9800253B0100002307B50549CDE900036A4607
:105AA800022006F017FA019803B05DF804FB00BF66
:105AB800873A0100034610B470B10A4991F82041B1
:105AC80091F821210CB1944208D2013281F82121A8
