:10000000C83E0020AD310000932A01009931000064
:1000100099310000993100009931000099310000B8
:10002000000000000000000000000000A1320000FD
:1000300099310000000000003932000099310000C1
:10004000913400009134000091340000913400009C
:10005000913400009134000091340000913400008C
:10006000913400009134000091340000913400007C
:10007000913400009134000091340000913400006C
:10008000913400009134000091340000913400005C
:10009000913400009134000091340000913400004C
:1000A000913400009134000091340000913400003C
:1000B000913400009134000091340000913400002C
:1000C000913400009134000091340000913400001C
:1000D000913400009134000091340000913400000C
:1000E00091340000913400009134000091340000FC
:1000F00091340000913400009134000091340000EC
:1001000091340000913400009134000091340000DB
:1001100091340000913400009134000091340000CB
:1001200091340000913400009134000091340000BB
:1001300091340000913400009134000091340000AB
:10014000913400009134000091340000913400009B
:0401500091340000E6
:04015400FFFFFFFFAB
:1001580053B94AB9002908BF00281CBF4FF0FF3126
:100168004FF0FF3000F00CB8ADF1080C6DE904CE8B
:1001780000F008F8DDF804E0DDE9022304B0704778
:10018800704700BF2DE9F04786468C460846089E12
:10019800154674461946002B40F0C1808542B2FAD4
:1001A80082F245D94AB1C2F1200300FA02FC954017
:1001B80094402EFA03F343EA0C0C4FEA154EA8B20A
:1001C800230CBCFBFEF80EFB18CC08FB00F943EA35
:1001D8000C43994528D9EB1808F1FF3704D2994503
:1001E80002D9A8F102072B44A3EB0903A4B2B3FB7D
:1001F800FEFC0EFB1C330CFB00F044EA0344A04257
:1002080014D92C190CF1FF3304D2A04202D9ACF155
:1002180002032C44241A43EA07401EB1D4400023A9
:1002280034607360BDE8F0874746DDE76346F1E771
:1002380092BB431B01214FEA154EAFB2200CB3FB12
:10024800FEFC0EFB1C330CFB07F840EA0343984501
:1002580061D9EB180CF1FF3004D2984502D9ACF102
:1002680002002B44A3EB0803A4B2B3FBFEFC0EFB75
:100278001C330CFB07F744EA0344A7424DD92C1959
:100288000CF1FF3304D2A74202D9ACF102032C448B
:10029800E41B43EA0040C0E7C2F1200395409440C4
:1002A80020FA03F12EFA03F34FEA154E9040AFB24D
:1002B8000343B1FBFEFC0EFB1C10190C0CFB07F8EA
:1002C80041EA0041884522D969180CF1FF3004D26F
:1002D800884502D9ACF102002944A1EB08019BB280
:1002E800B1FBFEFC0EFB1C110CFB07F743EA0143B4
:1002F8009F420ED9EB180CF1FF3104D29F4202D96C
:10030800ACF102012B44DB1B41EA004193E7604654
:10031800E3E76146F7E76046A4E76346B8E7834248
:1003280006D916B9002108467CE7C6E900E0F9E7D6
:10033800B3FA83F78FB9834201D3724508D8BEEB6D
:10034800020460EB030301209C461EB9002169E703
:100358003846FAE7C6E9004CF8E7C7F1200CBB407D
:100368000EFA07F522FA0CF42EFA0CF1BA401C43E7
:1003780020FA0CF3B8404FEA144901431FFA84FEEF
:10038800B3FBF9F809FB18300B0C08FB0EFA43EA2B
:1003980000439A4540D9E31808F1FF3004D29A4542
:1003A80002D9A8F102002344A3EB0A0389B2B3FBE4
:1003B800F9F809FB183308FB0EFE41EA03418E45A4
:1003C8002CD9611808F1FF3304D28E4502D9A8F15F
:1003D8000203214443EA0040A1EB0E01A0FB02986E
:1003E8004145CE46434602D306D14D4504D2013895
:1003F800B9EB020E68EB0403002EA7D0B5EB0E0292
:1004080061EB030101FA0CFC22FA07F3F9404CEA0C
:100418000303C6E9003199E74046C5E74346D9E7F3
:1004280010F8012B11F8013B012A28BF9A42F7D096
:10043800D01A7047034611F8012B03F8012B002A44
:10044800F9D17047034613F8012B002AFBD1181A7B
:100458000138704700000000F0B583B0604D00AF70
:10046800D5F86431996811F001011AD140F60340BA
:100478003A1D04F02FF90446002840F0AD80786852
:10048800C3681B785BB905F1D403D3E8AF2F02F03A
:100498000902D3E8EF1FC3E8E42F002CF9D10BF0D1
:1004A80039F9002141F203003A1D04F013F904461A
:1004B800002840F091807B684A4EDA68D2F8010043
:1004C800D2F8051003C618460BF024F9214641F26C
:1004D80001003A1D04F0FEF8044600287CD1786833
:1004E800C3685A7885F870205A88A5F872201A7956
:1004F80085F87120B3F80720A5F87420B3F8053003
:10050800A5F876300BF006F9214641F202003A1DB3
:1005180004F0E0F8044600285ED1D7F804C0DCF8FF
:100528000C20531C4132344618685968083303C4F8
:1005380093422646F7D160460BF0ECF805F08AFEA8
:100548000446002848D195F88A30990610D402212B
:10055800254A264812F098FB95F87C305A0649D46B
:100568000121234A214812F08FFB6FF0120433E077
:10057800072140F6334004F073F80646002800F0DF
:10058800408107210C3014F086FD452303700623B3
:10059800C0F802408471447004712246C370314629
:1005A80040F6334004F096F80446A8B9012140F615
:1005B800314004F055F80646002800F02281012158
:1005C8000C3014F077FD2246314640F6314004F0F5
:1005D80081F804460028BFD020460C37BD46F0BD40
:1005E8000000002078000020A6950100A0750100F9
:1005F800D4950100002142F203003A1D04F06AF884
:1006080004460028E8D17B68A34EDA68D2F80100D6
:10061800D2F8051003C618460BF07CF8214642F2C2
:1006280002003A1D04F056F804460028D4D17C682C
:10063800E368B3F8012091B249B1D97839B1A5F886
:100648000421DA78114606F1280016F007F9204649
:100658000BF060F895F87C6016F0200618D102219E
:1006680040F66D4003F0FCFF0446002800F0C98006
:1006780002210C3014F00FFD01232146037046704F
:10068800324640F66D4004F025F804460028A3D110
:1006980095F89C301B0712D5002142F21C003A1D28
:1006A80004F018F80446002896D17868C368D3F88F
:1006B8000120D3F80530C5E938230BF02BF895F85D
:1006C800D8309E0621D53846B91C04F07BF804467C
:1006D800002881D1042142F2240003F0C1FF06461C
:1006E800002800F08E8004210C3014F0D4FC3B88E4
:1006F800224603807B883146438042F2240003F07F
:10070800E9FF044600287FF467AF95F8D8305C0607
:1007180010D5002142F22A003A1D03F0DBFF0446FF
:1007280000287FF459AF7868C3685B7885F8203172
:100738000AF0F0FF082142F2010003F091FF04469D
:1007480000285ED008210C3014F0A5FC95F8D810CC
:1007580040F2022311F0400F08BF03230246880726
:100768004CBF43F02C0043F00C008B0695F8D930B1
:1007780048BF40F0400013F0090F95F8A23018BFA9
:1007880040F4006003F00603CE0748BF40F01000B5
:10079800062B08BF40F4C070002112F08FFA2146E2
:1007A800002242F2010003F095FF044600287FF47E
:1007B80013AF95F87C30B5F80411980624D4C9B95C
:1007C80041F205003A1D03F085FF044600287FF436
:1007D80003AFB5F804317C684BB9E368B3F801207E
:1007E800A5F804219A882D48114616F037F82046B6
:1007F8000AF090FF082140F6014003F031FF04465B
:1008080060B96FF06804E7E60029F3D10121244AB2
:10081800244812F039FA6FF00404DDE608210C30A0
:1008280014F039FC95F8D8300246D90729D44FF08E
:1008380000511D4812F042FA2146002240F60140BC
:1008480003F048FF044600287FF4C6AE01463A1D6F
:100858004FF6014003F03EFF50B3144A02211148FD
:1008680012F012FA05F080F9044600287FF4B4AEBD
:1008780006F044FD044600287FF4AEAE04F0D2FC36
:10088800AAE603A1D1E90001D4E700BFAFF30080D5
:100898009088000200800020D80000200801002075
:1008A800F8950100A0750100108800021B96010050
:1008B8007B686D46DC688AB0B4F80130032B96BFBC
:1008C800424A434952F823106A46D3614FF40073F1
:1008D80040481384404BC2E9050142F8103F4FF4E9
:1008E80013513E4812F0DFF9B4F80120AD46022A50
:1008F800B4F8033048D1032B46D8394A52F82310AC
:100908006D468AB06A46D3614FF400733548138444
:10091800314BC2E9050142F8103F4FF413512F48FB
:1009280012F0C1F9AD466379A679032B98BF2E4A18
:10093800B4F80750D4F809006C468CB094BF52F84C
:10094800231023496A46C2E907364FF40073DFF8DB
:100958009CC09385264BC2E905C1C2E909504FF4F2
:10096800735142F8103F1D4812F09DF9A54678686A
:100978000AF0D0FE00214FF602403A1D03F0AAFE0D
:10098800044618B11B4A69E71149B9E778681A4D56
:10099800C368B3F80130A5F8C1300AF0BBFE95F87A
:1009A800C1305B077FF55EAF21464FF603403A1D25
:1009B80003F090FE08B1114A50E77868C3685B7885
:1009C80085F8C0300AF0A6FE4CE700BF7C7D010028
:1009D800FB9301003F96010004000001A07501008F
:1009E8006C7D0100589601005C7D01007096010045
:1009F800070000019D96010000000020C696010036
:100A0800F8B5BDF818101446C1F101059D4228BF7C
:100A18001D46A5B10B4B2A461944204616F0A2FBE9
:100A2800094810F057FD094F661914F8011B38469C
:100A380010F050FDB442F8D1054810F04BFD28469F
:100A4800F8BD00BF3C1B0020408401005E8401000B
:100A58005FAF010010B5BDF808001146C0F10102F2
:100A68009A4228BF1A467AB1084C204416F07AFBFD
:100A7800074810F02FFD2178064810F02BFD064896
:100A880010F028FD012010BD1046FCE73C1B00209B
:100A9800628401005E8401005FAF010008B503486D
:100AA80010F018FD0022024B1A7008BD8484010062
:100AB8003D1B00200349044B0448002A18BF19466F
:100AC80010F008BD9E84010099840100A6840100ED
:100AD800022902D1034810F0FDBC01290CBF0248CD
:100AE8000248F8E7B5840100DA84010001850100B5
:100AF80070B5144D144C287810BB0126134B1249BD
:100B08006360134BA682A360124BE360124B236110
:100B180008F0BEFA00B92E7000214FF400400EF024
:100B280037F90E4B21460020636008F0B1FA08B986
:100B380001232B7000214FF400400EF029F9DAE769
:100B480070BD00BF3D1B0020A0160020EC790100FD
:100B5800BD0A0000A50A00003C1B00203C7A0100E9
:100B6800014810F0B7BC00BF3B85010010B5044632
:100B780021B1BDE81040044810F0ACBC034810F0A7
:100B8800A9FC034B1C6010BD598501007985010043
:100B9800B816002008B5054810F09CFC04480EF073
:100BA80017FA0122034B1A7008BD00BF84850100A3
:100BB800D40400203C1B002030B593B012F059FC3F
:100BC8000378044607AD032B24D8DFE803F0021DA1
:100BD8001F2113492846FFF72DFCA3790595627854
:100BE8001E210492A2780AA80392E278029222793E
:100BF8000192627900920B4A0EF04CFF0A480AA94A
:100C080010F068FC13B030BD0849E3E70849E1E794
:100C18000849DFE70A212846074A0EF03BFFDCE7D0
:100C280099850100BB850100DE850100A0850100D2
:100C3800A7850100B1850100B5A7010070B5284856
:100C480088B00CF057F8014628B9264810F042FC45
:100C5800002008B070BD24480CF05CF8014608B9C3
:100C68002248F3E74FF0A863214A22491E4814F0AE
:100C78002FFC002004F07CFB064610B101461E48FC
:100C8800E4E71E4D1E4803AC10F024FC0FCD0FC442
:100C98002B681C49236002223346009603A805F0FE
:100CA800B9F9014648B1184810F014FC174806F085
:100CB80003FB014628B11648C8E7164810F00AFC9D
:100CC800F4E74FF0FF324FF0FF3313480EF0A6F968
:100CD800124B1868FFF70CFF014814F0F1FBB7E757
:100CE8009C7A0100F5850100A47A01000F860100B5
:100CF800BC1600209D0B00002C86010070760100B8
:100D08004C8601008C7A010063860100C001002036
:100D1800AB86010089860100D4040020B8160020A3
:100D28002DE9F04F91B0009302F004030293C2F34F
:100D3800C2030133840705460E46DDF86890039226
:100D4800059340F0BB81041D30B1072909D86FF025
:100D58001B0011B0BDE8F08F01F00706341DC6F185
:100D68000806009B4FF000084FF0040A591E4FF088
:100D7800FF3347460193C3465346CDF810800DB163
:100D8800009A22600598002800F3E8809848009AA5
:100D9800824203D397488242C0F0E080039AA4EBD2
:100DA800050E92074FEA9E0000F103810F2F00F213
:100DB800B180002D00F0058107F140020DEB020C17
:100DC800019A0CF8200C0CF8102C049801300490AF
:100DD800E7E07A285DD84B280ED8472859D8292823
:100DE8002DD8252852D054D820287AD02338D0F1AD
:100DF800000B4BEB000B74E04C382E2849D8DFE889
:100E080000F07048484848484848484848484B48CF
:100E18004848484848484859484B4B595959704BD5
:100E28006D487048184B184848827F4B48484B48D3
:100E38007F0000204FF0000B4FF0040A38E0012239
:100E48002A38C0B202FA00F010EA0E0F49D110F0A9
:100E5800625C2FD110EA020B43D06046013C544437
:100E6800B4FBFAF40AFB04F4002D61D0A3EB050CE3
:100E7800A444B4453FF66BAF002868D1042B47D192
:100E880059F8043B2360042304342AE0019A013A08
:100E980001924FF0000B24E011F8010C6C2834D1BA
:100EA800002011F8023C83466C2BC5D14FF0080A8C
:100EB8005346D3E709F1070929F00709073424F055
:100EC8000704F9E802AB35B106982044B0423FF672
:100ED8003EAFC4E900AB4FF0000B08344FF0080AEE
:100EE800534611F8010F002878D0BBF1000F7FF4AA
:100EF80070AF2528F5D14FF0010B019B0133019309
:100F08004FF0040AECE7584694E700208346A5E72B
:100F1800082B02D06FF015001BE709F1070929F02B
:100F28000709F9E80223C4E9002308230834D8E7AD
:100F380068B9042B02D109F10409A4E7082BE9D107
:100F480009F1070929F0070909F10809EDE7059AE8
:100F5800013A059259F8042B009210E7039A90077A
:100F680020D54FF0010CA4EB050E4FEA9E00BEF50C
:100F7800007FCFD20F2FCDD8F5B107F140020DEB8E
:100F8800020E019AC0B20EF8200C0EF8102CBCF11B
:100F9800000F3FF41AAF60F07F000EF8200C08F144
:100FA80001080137C5F108024FF6DA7E04340692CB
:100FB80097E74FF0000CDAE7BCF1000F01D00136DB
:100FC800EFE7029802360028EBD10098CDE9063108
:100FD800FFF738FADDE906310644E2E7631BB3F5AB
:100FE800806F97D245B9A6F10804E018B1E600BFB2
:100FF800BC71010094B10100029A9B0828602B7013
:101008009DF81030C2B1EB7085F80280B8F1000F7E
:1010180005D0002208A8C5F1010C97420ED14FF067
:10102800000AC5F101030DF1200901930DF1300B00
:10103800574512D1601B8CE66B70E5E710F8013B51
:10104800190608D504EB0C0EB64503F07F033FF6EE
:101058007EAE04F8013B0132DFE7B8F1000F03D0A0
:1010680099F90020002A17DB029BD3B11AF80B204C
:1010780004F8012B0022019B98182044B0423FF647
:1010880066AE99F80000009904F8010B2046039217
:1010980016F068F8039A14440AF1010A09F10109E3
:1010A800C6E799F8002055F822300093029B009873
:1010B80045F82230FFF7C6F9421CDCE76FF00D0057
:1010C80047E600BF2DE9F04F97B000AFD7F880B0E2
:1010D8003B62CBF3C0030446894690F802A0FA624B
:1010E800BB6141B9457800780AEB800020444D4542
:1010F80017D8A0EB0409E378FB61BAF1000F02D01E
:101108001BF0010F16D1FB6953BBFB6A1BB14946A3
:1011180020463A6A98474D4628465C37BD46BDE8A2
:10112800F08F461C3046FFF78DF90130304409F145
:101138000109DCE7626823787A62FA6A99007961C2
:1011480004EB8301002A40F001810E464FF00008AD
:101158004D4601EB0A094E454CD101EB0A0610E059
:101168001BF0020FD1D023789A007A61626804EBF1
:1011780083017A62FA6A002A77D14D46904601EBDC
:101188000A061BF0050F0CBF02230123FB62FB6953
:1011980006EB430A0BF00203BB625645BCD016F8B7
:1011A800021B16F8013C54F82390AF4B994502D323
:1011B800AE4B994536D3BB69002B40D0786A10F006
:1011C80060F900283BD0E9468AB06A46A84B5361CB
:1011D8007B6AC2E906314FF400731384A54B42F8C9
:1011E800103F00234FF41251A34801F0BFF8023D0D
:1011F800CD46D2E716F8013BF96254F82300FFF711
:1012080021F9D7F88430F96A01304BB1D7F8883022
:1012180098453EBFD7F8843023F8180008F1010834
:10122800054498E7BB6923B1786A10F02AF90028C9
:10123800C9D11BF0010F05D1FB6AED1AADE7BB6AF6
:10124800002BAAD04846FFF7FDF8D7F8843053B1F1
:10125800D7F8883098453FBFD7F88420431C22F838
:10126800183008F10108054497E7BAF1000F73D068
:101278001BF0040673D0D046002607F148005246FA
:101288003B61B96215F06EFFB96A3B6901EB0A026E
:10129800BA62FA69F9695200FA60BA6A02EB410265
:1012A8003A610BF00202BA603A69B96A8A4258D1C7
:1012B80062781BF0020F18BF00217A6208BF4FEA5C
:1012C8005801B2181BF0010FD2B240F09F801BF0FA
:1012D800040F14BF40460020BB616270A070E1702B
:1012E80020463A6A7969FB6A9847051EFFF614AFEB
:1012F800BB69414623707B6A3A6A6370FB6984F86C
:1013080002A0E37007F14800FB6A9847B0F10008B3
:10131800C0F2B4807B69A9EB0A01C91AFB683A6A72
:10132800C91AD7E90A0398470028C0F2A9804FF0E4
:10133800000BA84408EB000507F1380AB34567D34A
:1013480000213A6A0846FB6A9847E5E656464FF098
:10135800000807F1380092E75646D04696E7B046AF
:1013680094E7BA6A12F8021B12F8015CBA6254F8E0
:1013780025003D4A904202D33C4A90421ED3BA69A6
:1013880032B1786A7B6010F07CF87B6800288BD1DA
:10139800BA6802BB08F1280207F1300C08F1010015
:1013A800944407F1580208F1020852FA80F00CF848
:1013B800101C5FFA88F800F8105C75E7BA693AB152
:1013C800786A7B6010F05DF87B6800287FF46CAF6A
:1013D8001BF0010F09D006F1280207F13000711C3B
:1013E800161806F8205CCEB25EE71BF0040F3FF437
:1013F8005BAF08F1280207F1300008F1010102EBA8
:10140800000808F8105C5FFA81F84DE7002063E7F0
:101418001BF80A3054F8239087F83730D7F884300F
:10142800FBB133F81B8001213A6AFB6A07F13700E8
:101438009847002824DB0544B8F1000F06D1484638
:10144800FFF700F800F101081FFA88F841464846FE
:101458003A6AFB6A9847002812DB05440BF1010B36
:101468006CE7D7F88480DEE7BC71010094B1010015
:10147800DB86010004000001E875010045464BE6E3
:10148800054649E6014B1860704700BFD8010020A7
:1014980080B505460E46174698460DF097FC03465C
:1014A80015F07EFE0446DFF81890424649F80030F1
:1014B80039463046A84754F8090001F08BFE00BFB2
:1014C800080000002DE9F047058B044628079046E0
:1014D80011D4022905F0070540F0CD80204610F010
:1014E80069FA78B10138218B042811D8DFE800F0B7
:1014F800C3106D85950001290CBF45F0100545F016
:101508002005258388F31188BFF36F8FBDE8F08726
:1015180001F0070AAA4500F0A6800027B9463E4612
:10152800A368002B00F0BD8041F00801218388F3F7
:101538001188BFF36F8FA168002900F0BB800D6888
:10154800002900F0B780334652462046D1F804807F
:10155800C047002D76D02B6829461D46F0E701F0DC
:1015680007035A1F012A1BD8002221F00701062B66
:10157800276889B2C4E9002209D13B4603E0628B9F
:10158800013262831B68002BF9D141F00201204629
:10159800218310F00FFA00287BD041F0200177E07A
:1015A800042B0AD121F0070189B22046218310F0CB
:1015B80001FA10B141F020012183218B01F0070AC3
:1015C800AA4550D00027B946AAE7236921F00701A8
:1015D80041F00601062DD3F8009021832DD1B9F1F1
:1015E800000F40D041F00801218388F31188BFF330
:1015F8006F8F20463949C84729E021F00701236940
:1016080041F0040189B2042DD3F804902183E6D077
:1016180000274FF0040A3E4682E721F007012369BC
:1016280041F0050189B2052DD3F808902183D6D061
:1016380000274FF0050A3E4672E700274FF0060ADA
:101648003E466DE72B4687E7B9F1000FD1D14FF041
:101658002003EFF3118883F31288BFF36F8F238B76
:1016680023F008032383258BEA062ED525F01003E3
:10167800238305F007056669218B002EBFF66FAF3F
:1016880000232768C4E9003321F0070141F0010174
:101698002183218B4FF0000901F0070AAA457FF446
:1016A8003FAF002F9BD041F00801218388F31188B8
:1016B800BFF36F8F002FC7D03D6839463346524677
:1016C800204610F0A3F92F46F4E7AB067FF51AAFD2
:1016D80025F02003238305F00705FFE6411A0100E2
:1016E80010B530B90B480C4910F04DFA6FF01500E1
:1016F80010BD836833B90748084910F044FA6FF001
:101708000400F5E71B6813B1BDE8104018471846F8
:10171800EEE700BFF87501008F870100A087010080
:1017280010B530B90B480C4910F02DFA6FF01500C0
:1017380010BD836833B90748084910F024FA6FF0E0
:101748000400F5E75B6813B1BDE810401847184678
:10175800EEE700BFF87501008F870100A087010040
:1017680070B508B101B132B90B480C4910F00BFA49
:101778006FF0150070BD84680CB1E56835B906488E
:10178800074910F000FA6FF00400F3E741F8040B82
:10179800E368BDE870401847F8750100BE8701008E
:1017A800A087010010B5044630B91048104910F060
:1017B800EAF96FF0150010BD006830B90B480D4903
:1017C80010F0E1F96FF00100F5E783680BB11B69D0
:1017D80033B90648084910F0D6F96FF00400EAE773
:1017E800616898470028E6D12060E4E7F8750100B1
:1017F800EA870100FB870100A087010070B5134646
:10180800044630B91048114910F0BDF96FF01500C1
:1018180070BD006830B90C480D4910F0B4F96FF08C
:101828000100F5E782680AB1956835B906480949A3
:1018380010F0A9F96FF00400EAE70A46AC466168BF
:10184800BDE87040604700BFF8750100EA870100F5
:10185800FB870100A0870100034A13680BB952688F
:1018680013600020704700BFDC01002030B50C4633
:101878000E4985B00291D0F8AC110546CDE900318A
:1018880000F1E0014FF0FF3320460CF0EDFA50B9BB
:10189800012384F86430D5F8A83123B1204605B077
:1018A800BDE83040184705B030BD00BF871C0100B7
:1018B80038B50C461146054610F0E3F9034638B929
:1018C8002846044910F0DDF903460020236038BD9E
:1018D8000120FBE760AF01002DE9F04F01238146AD
:1018E8000569466885B005F55977D7E8EF2F002ACE
:1018F80003D1C7E8E13F0029F7D10CBF1A460022FF
:1019080040F0B580B368B16A05F5E4781C1F10464D
:1019180010F03CFA844263D8013A00F0A280B2FA8F
:1019280082F24FF00044D44072682046073222F019
:101938000302C5F86022B16A10F028FAC5F86402FB
:10194800B36A40466343033323F0030302EB4302C5
:10195800230103EB4403093323F0030303EBC4031C
:10196800C5F858221A440832C5F854227368C5F8D5
:101978005C42C5F850323F4BC5E9A963D9F800303D
:10198800C5F8FC31316800F0DFF9044630BBD9F8FE
:1019980004A0D9F81090DAE9073409F5307B012B57
:1019A800584608BF103C15F037F80023DAF8240031
:1019B80031494FF4806201EB802100935846234659
:1019C8000DF0D8FC09F52C702C4914F0CBFFDAF88F
:1019D800140083685C682CB96FF05704002139E063
:1019E800013294E74B46264ADAF81810A047044615
:1019F8000028F3D1DAF8140083681B69002BEBD0B8
:101A08000122DAF81810984704460028E6D11D4B41
:101A18002846C5F8A8311C4BC5F8AC311B4B0393BD
:101A2800D5F810320293D5F80832CDE90083D5F8FD
:101A38006832B26AD5F8601300F04EF904460028FF
:101A4800CCD105F1E0000CF0BFFA0028C5F8680316
:101A58000ADB0221384610F049F9204605B0BDE8F6
:101A6800F08F6FF00B04B9E76FF01504B6E76FF06D
:101A78007704F2E7DD1C0100301C0020C31C0100C4
:101A8800B71C0100991A00006B1E0100251D0100FA
:101A980013B5044640B100230122CDE90032074BBB
:101AA800D0E909120CF094F9A36E1B6823B1E06E1B
:101AB80002B0BDE81040184702B010BD60AF010089
:101AC80013B504460846216901F55971D1E8AF1FDD
:101AD800022910D193B1A0B10121CDE900311346FB
:101AE800D0E909120CF074F9074B984208BF6FF05F
:101AF8000B0002B010BD6FF00F00FAE76FF04C005A
:101B0800F7E76FF00100F4E72EF8FFFF2DE9F74340
:101B180088461546066906F55973D3E8AF3F022B88
:101B28005FD1136823B96FF0150003B0BDE8F083E7
:101B38001B78002BF7D0D6F86093B9F1000F33D19A
:101B480006F5D8774FF0FF324FF0FF3338460DF0E7
:101B580091F930462A6801A9FFF7AAFE019C1CB931
:101B6800384610F0C1F8DEE705F10803A3666B6993
:101B780084F86490E366E46360B1384610F0B4F822
:101B880021463046236E2A68FFF770FE0020C8F809
:101B98000040CAE72022296804F1400015F0ABF99B
:101BA800384610F0A1F8F1E730460F4910F069F80F
:101BB80004460028B7D005F1080383666B69C06343
:101BC800C366002380F8643020222968403015F06D
:101BD80092F922460121304600F060F80028D5D05D
:101BE800A1E76FF00F00A0E760AF010010B50C4649
:101BF800006900F55973D3E8AF3F022B0FD189B1C3
:101C08000A4900F52C7014F0EBFE204614F01DF97B
:101C180070220021204615F0B2FA002010BD6FF0A6
:101C28000F00FBE76FF00100F8E700BFC8160020BF
:101C38002DE9F04F05460E4690460027D0F8B0A093
:101C480085B0AAF5AE7421463046FEF7E9FBE0B947
:101C5800114BA4F1400B0293DAF810303246CDE96B
:101C6800008329464FF0FF335846AAF5CE790CF089
:101C7800FBF860B97023012203FB079383F8642003
:101C8800DAF80C300BB158469847703417B105B0E4
:101C9800BDE8F08F0127D6E7991E01001FB514464D
:101CA80090B18AB1012912D10A4B00F1E0010293E7
:101CB800D0F8AC31403201934FF0FF332046009307
:101CC8000CF0D2F804B010BD6FF01500FAE7002050
:101CD800F8E700BF991E01002DE9F04387B00E46D2
:101CE800DDE90E811446DDE910251F4630B329B31E
:101CF800DFF850C000F1E009002D08BF65469EB925
:101D0800CDE9034400F5CE742046059614F0C2FAD6
:101D180003ABCDE900432A463B46414648460CF012
:101D280079F907B0BDE8F083002241460E92484693
:101D38002A4607B0BDE8F0430CF098BA6FF01500DA
:101D4800EFE700BF391C0000F0B50E46044689B025
:101D5800002872D0436B0BB9394B436301232246E9
:101D6800E3630023D4F8981004F1400042F8301FD0
:101D7800CDE901334FF0FF330093D4F89C3013F0D2
:101D880049FD304A06AB92E8030083E80300184691
:101D98000BF024FF0546D8B904F134000BF000FF1E
:101DA8000546A8B9616B284805AA13F00FFD05463A
:101DB80070B9059B9A6872B10C33D4F89400C4F8D2
:101DC800A03010F096F8C4F8D40030B96FF00B05C5
:101DD800284609B0F0BD0346EFE7D4F8940010F0A8
:101DE80088F8C4F8D8000028F0D0D4F88C30D4F89B
:101DF800A010C4F8A8300423C4F8AC30C4F8C43028
:101E08000223A362114BB4F89420D4F8D470C4F818
:101E1800B810C4F8D010D4F89010236204F1A403C9
:101E2800A4F8B020C4F8A470C4F8C010A4F8C8205E
:101E3800C4F8BC00A661E362CAE76FF01505C7E7FE
:101E480025880100847601002F880100D87A0100D6
:101E58002DE9F047044607464FF00109DFF85080A6
:101E680014B93846BDE8F08794FAA4F5B5FA85F5B3
:101E780009FA05F32E0108EB05156FEA030A24EAAF
:101E880003042B7B002BEBD058F806301B694BB9A9
:101E98004644736804222846196807EA0A0700F0CE
:101EA80051FADDE7284698470028D9D1F0E700BF66
:101EB8006076010030B5002289B00F490F4814F050
:101EC80065FE002200230024CDE906230E230C4DD5
:101ED800CDE903344FF440722846CDE90144094B5B
:101EE800094900940CF0E8FB0849284614F0AEFABA
:101EF800204609B030BD00BF191F0000A80E002001
:101F0800200A0020F121000030200020378801003D
:101F180001480DF05DB800BF040500202DE9F04729
:101F280080461F480F4610F036F80646002830D085
:101F380000252846BDE8F087237B73B12368DB685A
:101F48000BB12046984723681B69D3B963680422FC
:101F58002046196800F0F6F9013610344C45EBD3E9
:101F6800B8F1000FE5D0002DE2D02846FFF770FF4A
:101F78000546002FF7D000214FF4A4700CF008FF9D
:101F8800F1E7204698470028E0D00AFA06F31D43F7
:101F9800E2E705464FF0010A024CDFF80C90DDE756
:101FA800001700206076010070760100014B53F89D
:101FB80020007047187B010008B5034608462BB17E
:101FC800044A136000F08EFC002008BD6FF0150075
:101FD800FBE700BF0802002010B5044C237813B9B2
:101FE80003480CF0F5FF0123237010BD3E1B0020B1
:101FF8000405002010B5044606480FF0CCFF3CB19C
:10200800054BD3E8EF1F0139C3E8E21F002AF8D1D6
:1020180010BD00BFF8160020FC1600200020014665
:10202800034BD3E8EF0FC3E8E21F002AF9D170474A
:10203800F816002070B5FFF7F1FF0546074C084E6B
:10204800B44200D370BD63685B792BB123685B68C9
:1020580013B12946204698471034F1E7607601000D
:102068007076010010B5044C044920460FF048FB77
:10207800034B1C6010BD00BF28040020047B010036
:10208800F016002008B50023074A4FF400411370EA
:10209800064A07481360074A1360FFF78DFFBDE83B
:1020A8000840FFF7DFBF00BF3F1B0020F8160020E5
:1020B8009B1F0100FC160020014600220023014856
:1020C8000FF03FBB2804002001480FF0D8BB00BF29
:1020D80028040020024B014618680FF022BC00BFFC
:1020E800F016002001480FF058BC00BF280400205B
:1020F80070B5264B1878002847D0FFF7E5FF05464E
:1021080070B1234BD3E8EF1F0139C3E8E21F002A5F
:10211800F8D1204C204EB4422DD32846FFF7DAFFE1
:102128001E4B1F4C1B68002B19DD14F0E8FC4FF404
:102138007A72A0FB020302FB0131C30B43EA41435D
:10214800D4E900209B1A40F2E9324FEAD13161EB21
:102158000001934271F1000101D3FFF76BFFD4E94D
:10216800003213F57A7342F10002C4E90032BDE887
:102178007040FFF7B7BF63685B7923B123682946CE
:1021880020461B6898471034C5E770BD3E1B0020E9
:10219800FC1600206076010070760100F816002019
:1021A800A00E002070B50D4D297861B90120FFF708
:1021B800B5FE0B4C0B4EB44206D3FFF799FF00282F
:1021C800FBD101232B7070BD63685B791BB1236859
:1021D80020469B6898471034EDE700BF3F1B00205E
:1021E800607601007076010000212DE9F04708466D
:1021F800FFF794FE044658B340F267684FF00009B1
:1022080014F0CEFF1B4B1C4A1B58136033B11B4BF9
:102218001B68092B02DD1A480CF0DAFE0025194F5D
:10222800DFF85CA044B12046FFF712FE044618B957
:102238004FF0FF384FF0FF39FFF75AFF064628B92D
:10224800B5B942464B4650460CF0E8FE3546E9E73C
:102258004FF0FF384FF0FF39D2E72B689B691BB16D
:1022680000222846114698471035BD42F5D3E8E7C5
:10227800054DFAE708000000F4160020FC160020BF
:1022880004050020707601006076010013B5184837
:102298000FF081FE174B1B787BB14FF02003EFF353
:1022A800118483F31288BFF36F8FFFF721FF84F344
:1022B8001188BFF36F8F02B010BD0F4B1B68002B46
:1022C800F9D050B9002200230C48CDE900234FF47F
:1022D800004200230DF0F4FAEDE70928EBD1074896
:1022E80014F060FC064802B0BDE810400CF070BE67
:1022F800FC1600203F1B0020F4160020A80E00202A
:102308000405002010B5064B04461B689847214673
:10231800A06004480FF093FABDE81040FFF7B6BF7D
:102328000802002028040020044A054B9B1AB1EB40
:10233800D30F34BF52F83100002070476075010098
:1023480060760100084B10B4C31A44681B110133AE
:10235800237143689A7101224368196043685A716E
:1023680010BCFFF739BE00BF607601002DE9F04FC1
:102378008FB0C1F34A2804AF0D469146B8607B6020
:102388000C0DB8F1000F63D000264FF0040B4FF08E
:102398000A0A07F11403C7F80C80C7E907667E62CA
:1023A8000193CDF808B0CDF800A007F11C03324620
:1023B8004846F968FEF786FEB0F5006F03461CD361
:1023C8006C468AB0D9F8041004AB26481A46C3E90B
:1023D800050140F2FF71D9614FF400711984224B55
:1023E80042F8103F4FF4125133462048FFF7BEFF22
:1023F800A5462C37BD46BDE8F08FC0F30A0804F1A6
:102408001700184420F0070080083B60FFF754FECF
:1024180068F35325044690B13B6800F11001C7E901
:10242800083607F11403F961CDE900A3CDF808B027
:1024380048460F4AF96807F11C03FEF743FE68F3A4
:1024480053252A4620467B68B9680FF0D6FDD0E7A9
:1024580004F1170020F007008008FFF72DFE04465E
:10246800EDE700BF4C880100040000010076010080
:10247800D71F01002DE9F04F87B00446DDE9105A57
:10248800DDE912690F4693469846A6B310213346F4
:1024980052460020CDF80090CDF81490FEF740FC8D
:1024A800014605F117000844144B04F007040BF02B
:1024B800070BE40020F0070003EA412344EA8B14E9
:1024C80080081C430391FFF7F7FD44EA05540546CD
:1024D80040B13EB1334652460399CDF800901030D2
:1024E800FEF71EFC434622463946284607B0BDE89B
:1024F800F04F0FF082BD3146D3E700BF00FE0F005A
:102508000EB403B503AB53F8042B014604480193FA
:1025180001F0FAF902B05DF804EB03B0704700BFB0
:1025280015210100CA0605D48B064CBF0249034990
:10253800FFF7E6BF704700BF5FAF01005EAF010065
:102548002DE9F04F89B09A46149B9DF84CB006933C
:10255800159B04460593169B0D469046179E0493BB
:10256800BBF1000F00F09D8006F4807307930FF015
:102578002CFD06F00209024600283ED0204692496A
:10258800FFF7BEFF0746B9F1000F08D016F0440F59
:1025980035D12A4620468D49FFF7B2FF074406F099
:1025A800010353B18A4B204653F82B20894B8A49A3
:1025B800002A08BF1A46FFF7A3FF06F48073002B12
:1025C80049D006F00803002B63D1B8F1000F66D09C
:1025D800424620468149FFF793FF0546069B3D4446
:1025E800002B6DD1049B002B73D1F30700F1E5801C
:1025F80031462046FFF796FFD9E00746C3E7784BF8
:1026080018680028CAD0774B4FF47A791B684FF4C2
:102618006161B5FBF3F5B5FBF0F300FB135509FB5E
:1026280005F5B3FBF1F2B5FBF0FE4FF03C0C01FBF6
:10263800123100FB1E55B1FBFCF309FB05F5B5FB98
:10264800F0F50CFB131120460091CDE901E5664930
:10265800FFF756FFA2E706F00803EBB1634B2046ED
:1026680053F82B206249FFF74BFF0546B8F1000FDE
:1026780005D0424620465949FFF742FF0544BAF1C2
:10268800000FABD0524620465A49FFF739FF0544A0
:10269800A4E74FF0000AE1E706F00805E6E745463B
:1026A8009CE7BAF1010F069B06D1002B65D1049B6C
:1026B800002B7CD000250CE0002BF8D04E485DE0C4
:1026C8004E48069B22464E490EF0AAFE049B002B5C
:1026D80069D0DFF83081DFF83091049F3146102F40
:1026E800204628BF10274FF0000AFFF71BFF55456B
:1026F80046DC059B494620461A78FFF701FF4FF054
:10270800010A1AF0070F03D141462046FFF7F8FEE9
:1027180057453CD9059B4946204613F80A20FFF740
:10272800EFFE0AF1010ABAF1100FEAD14FF0000AE0
:1027380020463649FFF7E4FE5246059B20469A5C40
:10274800334B995C11F0970F08BF2E223149FFF7E0
:10275800D7FE0AF1010ABAF1100F1DD01AF0070FBF
:1027680003D141462046FFF7CBFE57455246E4D8F1
:1027780041462046FFF7C4FEEBE720485D46A0E748
:1027880041462046FFF7BCFE0AF1010AAFE72046A2
:102798002149FFF7B5FEC4E7059B3B440593049B1D
:1027A800DB1B049399D1BBF1000F7FF41EAF2046C9
:1027B80009B0BDE8F04F0FF09CBC2046054A064919
:1027C800FFF79EFE14E700BF90880100948801007F
:1027D800287B01008B8801003E950100B988010023
:1027E80008170020041700209D8801003C7B010089
:1027F800BD880100C38801004321010015210100A3
:10280800113900002AAF0100C8880100CE880100F4
:1028180087B00100D088010028AF01002DE9F04100
:102828000F884B6805460C4690468E6886B0C7F3FD
:1028380082175BB1144A9B1A43F3CF01002920DBAE
:102848002078C0F3C200FFF76FFD0346214651F818
:10285800102B6088C2F34A22002A01EB020408BF49
:1028680000210022C0F30B10CDE90408CDE90214C1
:102878002846314601970092FFF762FE06B0BDE890
:10288800F0810023E2E700BF6075010042F20F7398
:1028980073B58B4228BF0B46056804460521684678
:1028A8000D4A0DF0F7F80646636828460B225B6868
:1028B8000A490FF011FC63683246694628465B688E
:1028C8000FF00AFC63681B2228465B6804490FF076
:1028D80003FC02B070BD00BF38900100EF88010012
:1028E800D388010000210123064A904206D8064AEF
:1028F80001B901231360054B186070470121400896
:102908005B00F2E740420F00041700200817002080
:10291800F8B50D460446064F4618B44201D128467C
:10292800F8BD14F8011BBB6801485B689847F4E7D9
:1029380098720100014B036000207047847B0100FE
:102948000449431E0F3013F8012F8A5C83421A7022
:10295800F9D170475D890100F0B50746264E8DB064
:1029680001AD0C460FCE0FC50FCE0FC596E8070078
:1029780085E807003846002F39D0002C39D0381F99
:102988000246214610344B780D781B0443EA056350
:10299800CD7804312B4311F8025C8C4243EA0523BD
:1029A80042F8043FEFD10421144C8A07036916D179
:1029B800C3F30742A55C1A0EA25C42EA0562C3F3A0
:1029C8000725655DDBB2E35C42EA054242EA032281
:1029D80021F0030330336B4453F82C3C534050F838
:1029E800042F013153402C290361DED101200DB0A1
:1029F800F0BD2046FBE700BF8C7601005D89010031
:102A08002DE9F04F002703689DB002934368DFF873
:102A1800BCA103938368DDE902460493C368059368
:102A28000369DDE904BE0693436907938369DDE919
:102A3800062C0893C36998460993089B0093CD59BF
:102A48000CAB2DBA5AF8049BDD514FEAF223A94486
:102A580083EAB213009D83EA72634B4425EA0205B8
:102A680002EA0C0985EA09052B44434486EA0B056A
:102A78004FEA743888EAB408254006EA0B0985EA63
:102A8800090588EAB4580437A844402F03EB0E051B
:102A98004344DE46DDF8008040F088804FF0100A9D
:102AA8004B490A9151460AF1010A0DF1700E0AF0DC
:102AB8000F070EEB870757F8407C01F00F094FEA24
:102AC800B748019788EAF71801F10E0707F00F07D2
:102AD8000EEB870757F8407C09314FEAF74E8EEA2C
:102AE800774ECDF82CE001F00F010DF1700E0EEBD2
:102AF80081010EEB890959F840EC51F8401CBAF1F4
:102B0800400F7144DDF804E088EADE08DDF82CE0C7
:102B180041448EEA972E714405EA02084FEAF52EE1
:102B28002CEA050787EA08078EEAB51EDDF8288033
:102B38008EEA756E774458F804EF49F8401C7744DC
:102B48000F4400994FEA733E394484EA0607CDF8EA
:102B580028808EEAB30E07EA030704EA06088EEA1D
:102B6800B35E87EA080777440F4401EB0B0ECDF8F4
:102B780000C0B34622D1029939440160039919442F
:102B8800049B416023448360059B3344C360069BD8
:102B980073440361079B2B444361089B134483617F
:102BA800099B6344C3611DB0BDE8F08FB346CDF8FF
:102BB80000C0264694461C462A4640E794462646C8
:102BC8002A461C4675463B466CE700BFE87B010079
:102BD800247C010010B50446C8B1702200210FF012
:102BE80009FB0B4B0B4A0C49C4E900230B4B0C485F
:102BF800C4E902130B4BC4E9040301200A4BA36187
:102C080003F17453A3F52303A3F69243E36110BDC4
:102C180085AE67BB67E6096A72F36E3C3AF54FA565
:102C28007F520E518C68059BABD9831F2DE9F04765
:102C380080460C4600AF002936D0D1E90012E9469B
:102C48008AB06D46A3684FF0050A2E461A48C5E9B2
:102C58000723C5E9050146F810AF002332464FF4B3
:102C680021511648FFF782FBD4E90312CD46636968
:102C7800AD461348C5E90723C5E90501C5F810A005
:102C8800002332464FF421510C48FFF76FFBCD4625
:102C9800E36901210B4A09480FF008FAA3690121E9
:102CA800094A06480FF002FA214640460BF004FB99
:102CB800BD46BDE8F08700BF5D8A0100407601008F
:102CC8008C8A0100BB8A0100CA8A010030BFFFF765
:102CD800FDBF00BF114B124A2DE9F041D518013D47
:102CE800B5FBF3F5DFF83C805D430F4B074608EB77
:102CF8000304013CB4FBF3F403FB04540E1B3046FD
:102D08000A4914F02FFA701942460021083E14F0BF
:102D180036FA7E6704F10800BDE8F0810100000082
:102D280000000000040000000400000070760100AC
:102D3800044B99685869884203D003494FF0805280
:102D48000A607047E41A002004ED00E070B52A4CD0
:102D580006460D4629482A490FF09EFEA36ADB065F
:102D680047D5264827490FF097FE1120A36A1C076C
:102D780004D5224824490FF08FFE12201E4CA36A66
:102D8800990712D521491D480FF086FE636BA26A88
:102D9800120609D501211E4A18480FF087F91EB1FD
:102DA800A36A23F08003A3621320134CA36ADE07EF
:102DB80004D5124817490FF06FFE1420A36A9C0629
:102DC80004D50E4814490FF067FE15200A4B9A6A7D
:102DD800D10658BF9A6A9A6A920642BF5A6A22F482
:102DE80000525A629A6A42F0FF029A6200232B70DC
:102DF80070BD1020BAE700BF00ED00E0407601008A
:102E0800F88A01000E8B0100418B0100548B0100F0
:102E18006C8B0100828B0100A18B010010B5244C42
:102E2800244925480FF038FEA36A99013ED5224867
:102E380022490FF031FE1E20A36ADA0104D51E488C
:102E48001F490FF029FE1F20194CA36ADB0204D585
:102E580019481C490FF020FE0220A36A1C0304D560
:102E6800154819490FF018FE2120114CA36A59037F
:102E780004D5114815490FF00FFE2220A36A9A03C2
:102E880004D50D4812490FF007FE2320084CA36A09
:102E9800DB0304D508480F490FF0FEFD2420A36A80
:102EA8006FEA03436FEA1343A36210BD1D20C3E713
:102EB80000ED00E0D08B010040760100E88B0100B6
:102EC800FB8B0100158C01003F8C01005D8C01001B
:102ED800828C01009C8C010070B5294C06460D4679
:102EE800284829490FF0D8FDA36AD9043CD52548BC
:102EF80026490FF0D1FD1720A36A1A0504D52148E9
:102F080023490FF0C9FD18201D4CA36A9B0512D553
:102F18001C4820490FF0C0FDA36BA26A100409D514
:102F280001211D4A17480FF0C1F81EB1A36A23F406
:102F38000043A3621920124CA36A590504D511480D
:102F480016490FF0A9FD1A20A36ADA050ED50D4817
:102F580013490FF0A1FD1B20094A936A43F47F43EC
:102F6800936200232B7070BD1620C5E7A36A9B04EB
:102F7800F2D504480B490FF08FFD1C20ECE700BF89
:102F880000ED00E040760100C78C0100DD8C0100F7
:102F9800418B0100EE8C0100078D01001C8D0100A2
:102FA800378D0100A18B01002DE9F0418AB0654BF6
:102FB8000446D3F80480002600AFC8F3080586F35A
:102FC8001188BFF36F8F02F07F43B3F17F4F07D1B2
:102FD80002F00C03082B12D15B495C480FF05CFD32
:102FE800002634460023FB71EB1E092B00F2898072
:102FF800DFE803F00A7F827C878787878785100749
:103008004CBF0C460126EDE7514950480FF044FDEE
:1030180000234C4DFB71EB6A9A0705D54D494B4887
:103028000FF03AFD002332E0EB6A002B01DA4A493F
:10303800F5E7EB6A5B00F5D5484944480FF02CFDED
:103048006B69A26943F480736B61BFF34F8FBFF361
:103058006F8F6B6932F8022C23F480736B61BFF3B6
:103068004F8FBFF36F8F4DF602739A4208D0AB6A49
:10307800DBB273B30120F91DFFF768FE034606E0D3
:1030880023680121364A31480FF010F82368FA798D
:10309800DAB907F1080504F1200C2A4620686168AE
:1030A800083403C264451546F7D17A6A002E44D025
:1030B800C2F3080121B96FEA52226FEA42227A620A
:1030C800184607F10801FFF7B1FD2837BD46BDE8EE
:1030D800F081AB6A13F47F4F04D00120F91DFFF78C
:1030E800FBFECBE7AB6AB3F5803F9BD3FFF796FEB9
:1030F800C4E70020F91DBFE70020F91DEFE71949D3
:103108008DE7194A18F4F87FE8468AB0174B18BFBC
:1031180013466A461649103DC2E905134FF4007379
:103128001384144BD56142F8103F00234FF411511A
:103138000648FFF71BF9C54674E722F4FF7222F030
:103148000102BCE700ED00E07D8D01004076010042
:10315800A88D0100BF8D0100E08D0100EE8D0100FA
:103168000D8E0100298E0100648D01004F8D010034
:103178004D8E010004000001044B5A6942F0100210
:103188005A615A6942F480625A61704700ED00E062
:10319800EFF30880EFF3098101B57246FFF704FFEA
:1031A80001BD00BF00F05CFD202080F311880848B5
:1031B8004FF40061401880F30988EFF3148002216E
:1031C800084380F31488BFF36F8F00F0BBF800004A
:1031D80088310020084B9B6883420BD1EFF30583AD
:1031E80043B1064B5A6842F080525A605A6A22F438
:1031F80000425A6213F03CBAE41A002000ED00E0E5
:103208006FF00A01084A9368D967084998674B68BC
:1032180043F080534B60002383F31188BFF36F8F13
:103228009368D86F704700BFE41A002000ED00E0F3
:1032380016498A684FF030001044EFF3098C80E893
:10324800F01F202080F31288BFF36F8F104F4FF0CC
:1032580000664A698A603E604FF074041419206859
:103268000C4C2060906F0023936780F3118802F163
:10327800300090E8F01F8CF3098802F1000004B5D3
:103288000FF012FCBDE8044070470000E41A00206B
:1032980004ED00E0381700201EF0040F0CBFEFF318
:1032A8000880EFF30980816911F8021C0229FFD018
:1032B80001B50FF0E6FB01BD40B2002807DB012392
:1032C8004109034A00F01F00834042F8213070474B
:1032D80000E100E040B200280CDB01220649430966
:1032E80000F01F008240203341F82320BFF34F8FA6
:1032F800BFF36F8F704700BF00E100E0054B420944
:1033080053F82220012300F01F0003FA00F01040B8
:10331800704700BF00E100E040B2002801F1010160
:10332800ACBF00F16040064B4FEA4111C9B2ABBFD8
:1033380000F5614000F00F0080F800131954704741
:1033480014ED00E00F4A08B50F4B22F07F029A6097
:10335800BFF34F8FBFF36F8FD3F8882022F470022A
:10336800C3F88820EFF3148323F0040383F314884D
:10337800BFF36F8F0BF054F80CF0D6F800F078F824
:103388000BF098F80000000000ED00E042F8203C47
:10339800009B0B4942F81C3C019B21F0010142F8BB
:1033A800183C029B42F8081C42F8143C4FF080730A
:1033B80042F8043C0023203A02658367704700BF47
:1033C800991400000A4B446F98600A4B1C60436EC6
:1033D80083F30B88104681F30988002163B681F3D3
:1033E8001188BFF36F8F00220023FEF751F800BF4A
:1033F800E41A002038170020014910220A6070479B
:1034080010ED00E072B6404080F31188BFF36F8F73
:1034180001B500F023FB00280AD0BFF34F8F30BF5F
:1034280000BF00BF00BF00BF00BF00BF00BF00BF9C
:10343800BDE8014062B6BFF36F8F704772B649406E
:1034480081F3118801B500F009FB00280AD0BFF309
:103458004F8F20BF00BF00BF00BF00BF00BF00BF2D
:1034680000BF00BFBDE8014080F3118862B6704715
:10347800002320210348C2180133452B82F800138A
:10348800F9D1704700E100E001B5EFF30580A0F144
:1034980010004FEAC0000449014409C99847BDE833
:1034A8000140024908470000D4720100392D00008C
:1034B8001FB5094C094A23460121094800F012F9B1
:1034C80000230393074B0121E41A01A801930294F6
:1034D80000F012F904B010BD000007200000002021
:1034E800E87C0100B006002010B50C7A0B6804F0E7
:1034F8001F0223F01F031A43CB68640923F01F033C
:10350800054943EA440343F00103C1F89800C1F8B0
:103518009C20C1F8A03010BD00ED00E010B50A4BAA
:10352800D3F89030C3F30723013B984208D901210F
:103538000346064A06480EF0B9FD6FF0150010BDA7
:10354800FFF7D2FFFBE700BF00ED00E0648E01004B
:10355800207601002DE9F04F8946144606464FF0C3
:103568000008514D85B0C84527DAD6F804A0BAF14D
:10357800000F44D0BAF11F0F17D91AF01F0F14D13A
:10358800D6F800B01BF01F0F0FD158460FF090FA75
:1035980007460AEB0B0001380FF08AFA874210D071
:1035A8006FF01507414A3B4601E04346404A012176
:1035B80040480EF07BFD6FF01504204605B0BDE8CD
:1035C800F08F17F1160FEDD0BC42EBDDC5F89870FF
:1035D800D5F89C10C5F89870D5F8A03021F01F01D7
:1035E80043F01F0BD6E900321A44994202F1FF3A20
:1035F8001DD1D34507D13146F8B20FF062FA08F170
:1036080001080C36AFE73146C5F89870D5F89C30FC
:1036180022F01F0203F01F031343C5F89C30E0B2E9
:103628000FF04FFA10F1160FC5D0441CE7E7C5F8A4
:103638009870D5F8A020013B23F01F0302F01F0269
:103648001343D3453146E0B2C5F8A030E8D00FF0B7
:1036580038FA10F1160FAED0C5F89870D5F89C203E
:103668009DF808300BF1FF3B62F304038DF8083036
:10367800D5F8A0309DF808205B0863F347128DF851
:103688000820D6E900321344009323F01F035B445B
:10369800A3EB0A03013023F01F036946C0B203936A
:1036A800FFF73CFFBEE700BF00ED00E0AD8E010074
:1036B8008A8E0100207601000522044BC3F894206D
:1036C800BFF34F8FBFF36F8F704700BF00ED00E06F
:1036D800BFF35F8F0022024BC3F89420704700BFEE
:1036E80000ED00E010B5034C2278FFF733FF20709F
:1036F80010BD00BF411B00202DE9F74F294D8A4618
:1037080006464FF00008AB46274FD0451BDAD6F8DF
:103718000490B9F1000F3FD03168084601910FF0CD
:10372800C7F90199044609EB010001380FF0C0F907
:1037380084424FF014021D4B08D002FB08F36FF0CF
:1037480015024BF8032003B0BDE8F08F14F1160FF3
:103758002C60F8D01978A142F5DD02FB08B0C7F853
:103768009840C7F89840D7F89C4000F10801007BC2
:1037780064F304000871D7F8A0000C79400860F3DE
:1037880047140C71D7F89C1021F01F016960D7F815
:10379800A01021F01F01296108F1010814350C3629
:1037A800B3E700BF3C17002000ED00E0411B0020FC
:1037B800F0B54449444CD1F890302568C3F3072349
:1037C8009D4287B07AD80020FFF782FF3F4BC1F8AF
:1037D800C030854216D13E4C01A82570FFF7AAF8E3
:1037E800002506463B4FAE4213D1002023783549C9
:1037F800D1F89020C2F30722934259DBFFF75CFF10
:10380800002053E0616801EB0011FFF76DFE013005
:10381800DFE70199280101EB0513DA683A40B2F5B0
:10382800001F22D0B2F5800F2CD0B2F5801F36D100
:103838005A689B680958013B22F01F000344012085
:10384800844623F01F0340EA4C10CDE902218DF88D
:10385800100002A920780593FFF760FE002823DBFB
:103868002378013501332370BDE75A689B680958EE
:10387800013B22F01F0003444FF0020C012023F00B
:103888001F03E0E75A689B680958013B22F01F00B4
:1038980003444FF0000C062023F01F03D3E7012157
:1038A8000D4A0E480EF0F9FB6FF0150007B0F0BD99
:1038B800C1F89830C1F8A000013399E74FF0FF3004
:1038C800F4E700BF00ED00E0F47C0100AAFF44002B
:1038D800411B00200000F0FFD08E0100207601007F
:1038E80008B5024B1B689847002008BD50170020F8
:1038F800034B044A1860937843F0020393707047AF
:103908005017002024020020F0B587B007460E4665
:1039180014460021102268461D4613F030FC02238D
:103928008DF80230054B2A4621466846CDE90476D3
:1039380001930CF075F907B0F0BD00BFFD2A010036
:1039480008B50649064821F00701C1F1005202F501
:10395800E0220DF00DFD002008BD00BF635E0020D1
:103968005417002000F01F0240090DD001280DD186
:10397800094B03EB8203D3F8002222F0E04242EA2B
:103988000171C3F800127047044BF2E7002380323C
:1039980053F82230FFDE00BF0028845000258450F1
:1039A80038B50124134B144DC3F8004502230321F5
:1039B800C5F8D0360020FFF7D5FF20460321FFF7D2
:1039C800D1FFC5F804472146C5F804492120C5F8A8
:1039D800004BFFF7C7FF21462020FFF7C3FF214612
:1039E8000B20FFF7BFFF21460A20FFF7BBFF00208F
:1039F80038BD00BF001000500040005007B50DF161
:103A0800070011F0AEFD114B98421CD14FF48062B3
:103A18000F4B1049C3F8B8254FF40062C3F83C2592
:103A28009DF8070011F089FD0B499DF8070011F07A
:103A38007FFD01209DF80730984009F0CBFA00205F
:103A480003B05DF804FB6FF00B00F9E70000AD0B65
:103A580000A002502CA0025028A10250052370B5E6
:103A6800144D154E2C780134B4FBF3F303EB8303A8
:103A7800E41A11F007FD114A137823B156F82430DF
:103A8800C01A072814D94FF05023D3F8141141B1A4
:103A98000021C3F81411D3F814312C700CB9012388
:103AA80013702C7811F0EEFC46F82400012070BD4C
:103AB8000020FCE7431B002060170020421B002069
:103AC80048B1054B054A1B68B3FBF2F35843044B56
:103AD80043F00103184770475003002040420F008D
:103AE8004077010070B5049CC4F30726304608F0FF
:103AF80007FFE5B20146284611F02BFD0022012000
:103B0800074BA40B04F0FC041A51A84009F068FA0A
:103B1800304609F0A9F82846BDE8704009F054BBC2
:103B280080A0025073B501A809F048FB264B9842C3
:103B380047D109F07BF8041E0ADA9DF8040009F061
:103B480043FB01212346214A21480EF0AFFA35E014
:103B580040F607031F4D8DF80540AE68ADF80630F6
:103B68007468019B14B96FF05704EAE708212846E6
:103B7800194AA047041EE4DB3369002BF3D0012265
:103B8800082128469847041EDBDB01209DF80430F5
:103B9800984009F01FFA9DF805009DF804509DF81B
:103BA800076011F059FC0146284611F0C6FC0B4B82
:103BB800B60045F000459D51002CC2D1204602B008
:103BC80070BD6FF01204BCE70000AD0B058F01005B
:103BD80050760100AC720100E93B000080A1025060
:103BE8002DE9F341144683681B690BB100229847FD
:103BF800C4F30726304608F08BFE0546304611F020
:103C08002BFC4FF00008E7B20146384611F0A5FC3E
:103C1800104B220E920043F80280304608F070FEE6
:103C28000D4A4FEA943C0CF0FC0C47F0004342F874
:103C38000C300146384611F07BFC084B05F1320286
:103C48000093304643460194520011F00FFC02B035
:103C5800BDE8F08180A1025080A00250ED3A00003A
:103C680009F09AB81022174B70B5C3F840244FF4E6
:103C78007F03D3F83021D3F83431072A1BD1023B14
:103C8800032B02D8104AD35CABB14FF05024012665
:103C980000250520C4F81866C4F8145611F046FC2F
:103CA8003046C4F8146611F041FCC4F81456C4F840
:103CB8001856002070BD4FF050230022C3F8142678
:103CC800F7E700BF00300050368F01000E4B402947
:103CD80028BF402170B51D460C4C4618B04203F170
:103CE800020304D1002305F81130074870BD02789B
:103CF8001209A25C03F8022C10F8012B02F00F0243
:103D0800A25C03F8012CE9E7621B00206D8F01001B
:103D180030B503788BB0044607AD032B21D8DFE814
:103D280003F0021A1C1E12492846FCF783FB05956E
:103D380063781E210493A3780E4A0393E3780E4810
:103D480002932379019363790093A3790BF0A2FE80
:103D580009480BB030BD0949E6E70949E4E70949D4
:103D6800E2E70A212846084A0BF094FEDFE700BF85
:103D780099850100BB850100441B0020A085010036
:103D8800A7850100B1850100B5A7010030B5002461
:103D9800094D0A4B85B028460293039412F03CFE65
:103DA80002AB284600934FF4A3620A2304490BF0A0
:103DB800E1FA204605B030BDE00E0020858F0100F5
:103DC80030230020014601480BF04ABBE00E0020DA
:103DD800037830B5012B13D0022B27D07BB90A46C4
:103DE800184B03F1100453F8045BA34242F8045B38
:103DF800F9D11B78137043884B731B0A8B7330BD42
:103E08000A46104B03F1100453F8045BA34242F82E
:103E1800045BF9D11B7813704368C3F307224B7313
:103E28001B0CCB731B0A8A730B74E8E700F11003B1
:103E380050F8042B984241F8042BF9D103780B7001
:103E4800DDE700BF8E8F0100012838B505460CBF9D
:103E58000648074811F0BAF8044620B101210C3091
:103E680011F015F92576204638BD00BFFC05002065
:103E78004C050020132810B50CD10A4811F0A6F8FB
:103E8800044628B101210C3011F001F901232376F1
:103E9800204610BD09B10448F0E70120BDE81040F4
:103EA800FFF7D2BF80060020D0050020C36802219A
:103EB8001B78024A02480EF0E9BE00BFA78F010036
:103EC800A075010038B5C368B3F801401B786BB919
:103ED8000F21204602F0FAFE054640B9084B1A8821
:103EE80022B96FEA04506FEA1050188038BD0121DA
:103EF80002F0E0FD2846BDE8384002F0A9BD00BF49
:103F08001C1B00202DE9F041C5682E78CEB9B5F804
:103F180001700F21384602F0D9FE044638B93B46F5
:103F2800BDE8F0410121084A08480EF0AFBEEB7821
:103F38003146037302F0BEFD2046BDE8F04102F0B1
:103F480087BDBDE8F08100BFCF8F0100A0750100DB
:103F580010B5C3680121B3F80140204602F0B6FE4F
:103F680038B92346BDE810400121044A04480EF040
:103F78008DBEBDE8104002F06BBD00BFF58F01009B
:103F8800A075010010B5C36801211C88204602F005
:103F98009DFE38B92346BDE810400121034A044874
:103FA8000EF074BEBDE8104002F052BDF58F01005E
:103FB800A0750100012110B50C3011F0A6F8BDE87C
:103FC800104003780121024A02480EF05FBE00BF8C
:103FD80019900100A0750100014610B5084810F0BD
:103FE800FBFF0849084812F0EAFC031E06DABDE8A0
:103FF80010400121054A06480EF048BE10BD00BF1A
:104008004401002070020020001000203B900100B5
:10401800A075010010B5084C0146052294F86F0000
:1040280002F0ECFF38B994F86F000422BDE81040A4
:10403800024902F0E3BF10BD00000020538F0100C9
:104048000121024A02480EF01FBE00BF589001002D
:10405800A07501000B46B0B50D8A00AF044629468D
:10406800D868FFF733FE8AB06A46094BC2E90750A1
:10407800C2E9053440F202439384064B4FF43251AF
:10408800054842F8103F0EF00EFEBD46B0BD00BF19
:104098007290010005000001A075010037B502EB20
:1040A800C303934204D103B0BDE83040FFF7D2BF49
:1040B800144614F8085B854211D10B8A54789C4247
:1040C80007D901210090074A07480DF0F9FF03B00E
:1040D80030BD0846536803B0BDE830401847224653
:1040E800DFE700BF94900100A075010010B5012121
:1040F80004460C3011F009F82146BDE810400A23A7
:10410800014A0078FFF7CABFE47D010070B5C568B1
:104118000121B5F80160304602F0D8FD044638B9EF
:104128003346BDE8704001210B4A0C480EF0AEBD85
:104138002B783BB9D5F80330C0F8AD30D5F8073047
:10414800C0F8B130201D4FF400510EF0A1FD2046FB
:10415800BDE8704002F07CBCF58F0100A07501003D
:1041680073B53D4810F04EFF0446002871D0017E1B
:10417800012945D0032969D1038A032B02D8374A7C
:10418800012141E004210C3010F0BFFFFF234288D9
:1041980006886376238AC6F30B009A42608309D0A7
:1041A800012100922E482F4A0DF08AFF204607F081
:1041B800B1FA12E00F2102F089FD054610B9638BB0
:1041C800294ADDE702F0BAFD21466076320B28461F
:1041D80002F008FB284602F03BFC244BD3F844319C
:1041E800002B36D02249234812F0E9FB031E30DAAF
:1041F8000121214A1A4802B0BDE870400EF046BDC0
:10420800038A012B04D81D4A15480EF03FFDCDE75F
:1042180002210C3010F079FF054600780EF009FDF8
:1042280083070CD440F6B523154A164916480DF0F5
:104238005EF9404080F311884FF0030002DF062347
:104248002146124A2878FFF729FFAFE70B46104AA4
:1042580096E702B070BD00BF44010020B69001008F
:10426800A0750100D7900100FB900100000000201C
:1042780070020020001000203B9001001D910100F9
:10428800399101006D9101009B910100B47D0100FD
:10429800B89101002DE9F74F00238046894617465B
:1042A800DFF810A1DAE8EF4FCAE8E23F002AF9D1B7
:1042B800264644B9434601213F4A404803B0BDE879
:1042C800F04F0EF0E3BC204607F088F94FF00C0BD6
:1042D8003B4D0BFB0050438843451BD0204607F05D
:1042E8007DF90BFB0050438801210093354A434672
:1042F80032480DF0E5FEDAE8EF3FCAE8E26F002A3F
:10430800F9D1002B53D01E46304603B0BDE8F04F1C
:1043180007F000BAA7420ED0204610F052FE012145
:1043280004F10C084046217610F0B1FE40463A8A66
:10433800F96810F0B6FE204607F050F90C2707FB85
:1043480000504368ABB1B9F1000F12D1204607F015
:1043580045F9012107FB00504268D2E90003127AAF
:1043680003F01F07B9405B09DAB100EB83000EF0D8
:104378008FFC204607F032F90C2707FB00508368B2
:10438800002BC1D0204607F029F9784305F80090A2
:10439800204607F023F907FB0055A8680AF018FE25
:1043A800B2E7C94300EB83000EF080FCE1E703B0FD
:1043B800BDE8F08F40010020CC910100A0750100FC
:1043C80074170020F491010038B5042104460C301C
:1043D80010F09BFE034640885D7818B12246197894
:1043E800FFF758FF25B1BDE8384002480AF0F0BD94
:1043F80038BD00BF2801002070B5032104460C30E9
:1044080010F083FE40F635420578B0F80100E36805
:1044180090421B7806D1BDE870400221074A08483F
:104428000EF034BC18B122461946FFF733FF25B108
:10443800BDE8704003480AF0CBBD70BD279201006B
:10444800A0750100280100202DE9F84F0123D0F8BC
:104458000C80018A98F8004000AF03EB84038B427C
:104468007CD96D468AB06A46C2E9073105233E48C1
:104478004FF42151C2E905043C4842F8103F0EF0C0
:1044880012FCAD46BD46BDE8F88F5B460121384AAF
:1044980036480EF0FBFB013598F800309D42F1DA02
:1044A80008EB8503B3F801B00F215846B3F8036051
:1044B80002F00CFC04460028E7D000F1280B16B3E4
:1044C8004FF02003EFF3118283F31288BFF36F8F4D
:1044D800E3696BB1013BE36182F31188BFF36F8F2E
:1044E800204602F045F9013E0AF072FDB6B2E6E751
:1044F800636963B982F31188BFF36F8F0121524654
:104508001A480EF0C1FB204602F0A2FAC3E7A169DF
:1045180018688B42606108BFA06182F31188BFF3FD
:104528006F8F4FF02002EFF3118182F31288BFF3EF
:104538006F8FDA68E261C3F80C90C3F80090626A82
:104548004AB9C4E9083381F31188BFF36F8F58461D
:104558000AF00AFFC4E713606362F4E70025DFF896
:1045680014A0A94698E700BF5D920100A07501005C
:1045780087920100A392010073B5C5680121B5F8BF
:104588000160304602F0A2FB044640B933460121DF
:10459800284A294802B0BDE870400EF077BB2B7856
:1045A800061D1A2B19D1C378012B2AD14FF480612B
:1045B80030460EF06DFB42050FD4D4F8A0306946A2
:1045C8000093D4F8A8302046019302F0C7FF204694
:1045D80002B0BDE8704002F03BBA2B788BB9B5F851
:1045E8000330A4F89E30B5F80530A4F8A430B5F827
:1045F8000730A4F8A6306FF4807130460EF056FBF1
:1046080014E0D6E8AF3FDB05F5D52B78202BF2D1A7
:1046180094F8AC30002BEED0013B84F8AC304FF46A
:104628002032002304F158000AF044FF204602F02B
:10463800A7FBCCE7F58F0100A075010010B5C1E913
:1046480000239DF808300C460B7206F0C7FF0C22B9
:10465800024B02FB00335C6010BD00BF74170020E2
:104668002DE9F0474FF0FF324FF0FF330646174869
:104678000F4610F0ABFC4FF00008044600F10C0A9E
:104688000121504610F003FD204684F8188006F0FA
:10469800A5FF4FF00C090E4D09FB0050468020463F
:1046A80006F09CFF09FB0050C0F80880204606F081
:1046B80095FF09FB005503215046C5F8048010F00A
:1046C800EAFC068087702046BDE8F0875406002083
:1046D800741700202DE9F041074616460C4688B0AD
:1046E80021B9FFF7BDFF0446002852D002AD0122D0
:1046F8000021284612F0B2F8204606F06FFF0C237E
:10470800DFF89C8003FB00808560204610F093FC56
:104718000146244810F08DFC4FF4A02228460023BF
:104728000AF07CFC054688B140F24B131E4A1F492B
:104738001F480CF0DCFE2A4639461E480CF0D7FE0E
:10474800404080F311884FF0030002DF204606F056
:1047580045FF0C23584318F8005095B102213B46F9
:10476800154A16480095093D0DF0AAFCEDB2204601
:1047780006F0D0FF092D0FD8114B585708B0BDE8E7
:10478800F08116B134600020F8E7204606F0C2FF39
:10479800F9E76FF06800F1E76FF00400EEE700BF9B
:1047A800741700204C01002039910100BA920100D1
:1047B8009B910100C3920100EF920100A0750100D6
:1047C8006F97010073B506460D4642F22F0000218F
:1047D80001AAFFF77FFF044638B10121084A0948BA
:1047E8000EF052FA204602B070BD0198C368B3F8C3
:1047F80001203280B3F803302B8006F08BFFF1E7FD
:104808000B930100A0750100F7B5144B054693F909
:104818009B300C46002B1DDA14B9204603B0F0BDBE
:10482800082C4FF0000142F2180001AA264628BFC2
:104838000826FFF74FFF0028F0D1019F3246F9689C
:104848002846013112F08EFC384606F063FF3544E5
:10485800A41BE1E76FF08500E0E700BF000000203F
:104868002DE9F04F89B005464FF000099F4BB0F88D
:104878000180198848F47042914202AF04BFA3F83E
:1048880000904FF0010900F08FFF2C782CB33C2CDE
:104898001CD101F07FFA6FF0800110300EF006FA9B
:1048A8000020FFF7B7FB054640B90121904A91481F
:1048B8000EF0EAF91C37BD46BDE8F08F04730021FD
:1048C80002F0F8F8284602F0C3F8F3E7234602217D
:1048D800894A88480EF0DAF9ECE7EB782E1D012BAF
:1048E80008BF864B304608BF93F86F400EF09DF91D
:1048F800314650B34FF0010A07F110000EF08AF963
:10490800D5F81130C7F80930B5F81530A7F80D30CB
:10491800EB78012B2CD03046FFF7FAF96C4688B0BB
:1049280002AA774B4FF4E251C2E905304FF4007305
:104938009383744B6F4842F8103F0EF0B4F913217B
:10494800A54640460EF0CAF9B4E720460EF027FB0C
:104958000346006895F804A038619A889B796868CE
:10496800BA82BB75B288B379B860BA81BB73CFE736
:1049780007F11000FFF74EFBEB780446012B0AD134
:1049880001F008FA83466FF0800110300EF08EF9BE
:1049980058460EF01CFC002CBDD02346B5F801206B
:1049A80023F8882BBA7D3869B98AC4F888009A71C7
:1049B80000229980B5F81730A4F89E30B5F8193060
:1049C800A4F8A430B5F81B30A4F8A630EB7822730D
:1049D800012BE37020D187F808A0BA89BB7BB8689F
:1049E800A4F8932084F89530C4F88F0001F0D2F928
:1049F800237A424AC3EBC3039918D358C4F89630B4
:104A08008B88A4F89A308B7984F89C30D2F8E430FB
:104A18005D0601D501F07EFB0721204602F04AF829
:104A2800B9F1000F03D00121204602F043F82046D7
:104A38000EF092FC637B072B53D1231DD3E8AF3FC5
:104A480013F4005F2D4E20D1E3781BB196F8D830CF
:104A580018071AD5022142F21600FFF701FE054693
:104A6800002840D002210C3010F015FB23880022CA
:104A78000380294642F21600FFF72CFE034620B1B8
:104A88000121214A1B480EF001F996F8D930D907BF
:104A98000DD5022300211A46204600910EF057F941
:104AA800034620B10121194A12480EF0EFF896F892
:104AB800D8309A0615D5D6F864319B689B0710D56F
:104AC800B91D381DFFF77EFE58B92046FA88B98807
:104AD8000EF01FF9034620B101210D4A05480EF0DA
:104AE800D5F82046EFE66FF06803C9E71C1B0020E5
:104AF8002B930100A07501004C93010000000020D9
:104B0800659301000300000181930100A293010055
:104B1800B993010000B5C36889B01A788DF80020F0
:104B2800B3F80120ADF80120DA788DF80320B3F846
:104B38000B20ADF81720B3F80D20ADF81920B3F805
:104B48000F20ADF81B205A7C8DF81D205868019065
:104B58001A899B7AADF808208DF80A30084B684608
:104B68001A689B88CDF80B20ADF80F30CDF81120CE
:104B7800ADF81530FFF774FE09B05DF804FB00BF0F
:104B8800678F010029289ABF014B185C09207047DC
:104B98004597010070B5C3680F21B3F801601D780F
:104BA800304602F093F8044638B93346BDE8704001
:104BB8000121174A17480EF069B865B12846FFF772
:104BC800E1FF29460246204602F082F92046BDE868
:104BD800704001F03DBF8678012EEFD106F0ECFA67
:104BE80020460EF038F80028E8D10520FFF7CAFF64
:104BF80005210246204602F06BF93146064A05486F
:104C08000EF042F8052120460EF0AFFBDEE700BFAC
:104C1800CF8F0100A0750100D59301002DE9F04167
:104C2800C6680F21B6F801703578384602F04EF89C
:104C3800044638B93B46BDE8F04101211B4A1C48EF
:104C48000EF024B865B12846FFF79CFF29460246B6
:104C5800204602F03DF92046BDE8F04101F0F8BEDB
:104C68008278F378012AC37205D00020FFF78AFF03
:104C780000210246ECE70BB106F09EFA20460DF043
:104C8800EAFF0028F1D10520FFF77CFF0521024645
:104C9800204602F01DF90121064A05480DF0F4FFEF
:104CA800052120460EF061FBD5E700BFCF8F01003C
:104CB800A0750100D593010070B58EB06C4606460C
:104CC8000A4D0D2E0FCD0FC40FCD0FC40FCD0FC43D
:104CD80095E8030084E803009DBF0EAB03EB86064E
:104CE80056F8380C02480EB070BD00BFB876010007
:104CF800FB930100024BD3F864315B69184700BF8E
:104D08000000002038B505460C4619B9FFF7A8FC85
:104D18000446C8B140F635439D420FD12046FFF7FF
:104D2800E9FF054640B1034601210948094A0DF04B
:104D3800ADFF204606F0EEFC284638BD2146064861
:104D480010F077F90025F7E76FF06805F4E700BF82
:104D5800A0750100039401004C0100202DE9F041E9
:104D68000446458B477E807A06F030FC616906462A
:104D780049B1637ADA0704D4436A20461B689B6802
:104D88009847002363612146304611F059FD244BB2
:104D980093F88A309B0641D5384602F0A7FA0446B4
:104DA80038B93B46BDE8F04102211E4A1E480DF0C5
:104DB8006DBF437B073B012B09D91B4802211B4AC6
:104DC8000DF062FF2046BDE8F04101F041BE01F060
:104DD8003FFE052140F63540FFF742FC044630B956
:104DE800BDE8F0410121124A0F480DF04DBF00F116
:104DF8000C070121384610F04EF9012604210670EF
:104E0800384610F048F9002305808670C3702146A3
:104E1800BDE8F04140F63540FFF774BFBDE8F081CA
:104E28000000002025940100A07501004E940100A7
:104E38007A940100F0B5C56801212F8887B0BCB20B
:104E4800204601F043FF064640B923460121264A81
:104E5800264807B0BDE8F0400DF018BF02ACD5F801
:104E68000220D5F806300194698900910FF0B4FE4C
:104E780040B3122142F21A00FFF7F2FB054648B987
:104E880001211B4A19480DF0FFFE304601F0E0FDF4
:104E980007B0F0BD12210C3010F0FDF80346224691
:104EA80023F8027B06AF144603CCBC421860596055
:104EB800224603F10803F6D1294642F21A00FFF709
:104EC80021FFE2E7022142F21B00FFF7C9FB04467B
:104ED8000028D5D002210C3010F0DDF821460780DB
:104EE80042F21B00EBE700BFF58F0100A07501003F
:104EF8009D94010073B5C368D9789A781E8842EAF0
:104F08000122ADF8002059791A79B4B242EA012297
:104F1800ADF80220D9799A79204642EA0122ADF803
:104F280004201A7A5B7A012142EA0323ADF806309D
:104F380001F0CCFE054658B901211C4823461C4AFD
:104F48000DF0A4FE022120460DF04DFF02B070BD09
:104F5800694601F055FF38B91E2120460DF043FF80
:104F6800284601F075FDF1E70E2142F22000FFF717
:104F780077FB04460028F3D00E210C3010F08BF894
:104F880000230680C0F80A30BDF80030214643806F
:104F9800BDF802308380BDF80430C380BDF8063008
:104FA800038142F22000FFF7ADFED9E7A0750100AA
:104FB800F58F01002DE9F84F484FDFF8248107F1FC
:104FC8001409FB6848466FF39433FB6001F0F8FC62
:104FD800451C4FF0FF324FF0FF3329463F480AF097
:104FE800A9FC60B140F6323342463E493E480CF0D7
:104FF8007EFA404080F311884FF0030002DF374EFD
:10500800DFF8E8B015B909F041FEDAE7F368C3F351
:105018008633022B52D9042B5AD1337B002B50D123
:105028000022002332480FF0D5FF044660B940F64D
:10503800C42342462F492C480CF059FA404080F3CB
:1050480011884FF0030002DFDFF8ACA04FF0FF3209
:105058004FF0FF33294809F0E1FFDAF840215AB14F
:10506800274A012121480DF00FFEDAF8400106F029
:1050780051FB0022CAF8402120460FF0DCFFCAF895
:1050880040012046FFF736FE0346B8B101211D4A0C
:1050980016480DF0FBFD194809F09AFF204606F066
:1050A8009DFA0C22184B02FB0033588818B122468F
:1050B8001F21FFF7EFF8204606F02CFB1436013DC0
:1050C800A0E7012BFAD13069383802F06BF8F5E720
:1050D800022158460D4A0DF0D9FDEFE734020020B1
:1050E80039910100BA9201009B910100A07501005D
:1050F8004C01002052A901000000002028010020D6
:10510800B49401000394010074170020CF940100A7
:105118002DE9F041044600F10C06304610F005F880
:10512800B4F810800546B8F1010F0AD843460121AA
:10513800184A19480DF0AAFD2046BDE8F04106F0CE
:10514800E9BA304602210FF0E0FF074600780DF07B
:1051580070FDC20706460CD440F6EE630F4A1049AC
:1051680010480CF0C4F9404080F311884FF0030058
:1051780002DF052321460C4A3878FEF78FFFB30774
:10518800DAD56369A4F8108013FA85F5E560BDE8FF
:10519800F08100BF1D910100A07501003991010047
:1051A800F09401009B9101008C7D010038B5037ECD
:1051B8000446012B05D0032B11D1FEF70DFF00206B
:1051C80038BDC36818780DF034FDC207054602D50E
:1051D8002046FFF79DFFAB07F1D52046EDE70121FB
:1051E800044A05480DF052FD204606F093FA6FF088
:1051F8001500E5E709950100A0750100084A034676
:10520800D2F8640130B9D96839B1596929B1C2F8FD
:10521800643170476FF0770070476FF01500704782
:10522800000000202DE9F84F3D4C00AF04213D4817
:105238000DF02EFD3C4DE2793C4B2046012A88BFFB
:105248001D466E46FEF764FD8AB06A46384BA34693
:10525800C2E905350125374BD0611362364B4FF44F
:105268002351364842F8103F0DF01DFDDFF8D0807D
:10527800B546DFF8C890334EE3790BF1070B9D4232
:1052880038DB94F870506E462846FFF715FD8CB051
:105298006A46B4F87210B4F87630C2E907514FF490
:1052A80000755362DFF8A0C0284BC2E905C0158518
:1052B8004FF4535142F8103F20480DF0F4FCB54626
:1052C80094F871603046FFF7F7FC8AB06A46B4F884
:1052D80074301F49C2E907631E4BC2E90510958463
:1052E8004FF43351154842F8103F0DF0DCFCBD4631
:1052F800BDE8F88F5846FEF70BFDEA468AB06A46C5
:1053080040F20133C2E90565D06113844FF41351AB
:10531800484642F8108F0DF0C6FC0135D546ABE77C
:1053280000000020D400002060AF01001D9501009E
:10533800219501000002010304000002A07501008C
:1053480004000001309501004195010006000001AC
:105358007F9501000500000110B5FBF77DF8034BB0
:105368001B6813B1BDE81040184710BD8C1700200A
:1053780070B5344D0646D5F8643188B04BB9012173
:10538800314A32480DF080FC6FF01204204608B014
:1053980070BD6FF0020105F1D4000DF087FC01210A
:1053A8000DF076FC10EA010448D1294B1E600A462C
:1053B80005F5947011F052FA05F5A67011F029FA66
:1053C80000220023CDE906236FF008034FF4806222
:1053D800CDE90243CDE900441E4B1F4904941F4800
:1053E80009F06AF91E491D4811F030F81D4811F0FE
:1053F80013FB6FF007034FF496621B49194800949A
:1054080009F0B8FF1949174811F020F8D5F86431A8
:10541800DB689847044630B103460121144A0B481B
:105428000DF034FCB2E726B908B0BDE87040FBF7D0
:1054380013B805F1C40009F097FFA7E76FF07704E8
:10544800A4E700BF00000020EF960100A07501004E
:105458008C170020BD4F000048280020800F002036
:105468000897010000100020482C00200E9701002A
:10547800149701000048704730970100F8B50646B8
:105488000024094DEF79E3B29F4202D86FF0010082
:1054980007E0294630460DF0CDFC0735631C08B1FE
:1054A8002046F8BD1C46EEE70000002037B504464C
:1054B8000D4671B1284612490DF0BCFC48B9294681
:1054C8001048C4EBC40420440DF0BCFC002003B019
:1054D80030BD68460DF090FB0028F8D16846FFF70C
:1054E800CDFF0028F5DA074BC4EBC4006946184421
:1054F8000DF0A8FC002DE9D001462846E4E700BFDE
:105508005A8F01000000002070B5144E0622314663
:10551800044611F0CEFCD8B1062142F20500FFF78F
:105528009FF80546B0B1062221460C300FF0B9FDB0
:105538000022294642F20500FFF7CCF848B9334665
:10554800226843F86929A288B280012283F868207A
:10555800002070BD6FF06800FBE700BF6900002005
:10556800F7B5002104460622084601F047FD064625
:1055780088B1414BD3E8EF1F41F40041C3E8E21F73
:10558800002AF7D1237A43F00103237203B0BDE860
:10559800F04001F05DBA394D0146394800F0F4FB9E
:1055A80095F821314BB130460DF091FC28B1354AC0
:1055B800022135480DF07EFC1DE095F8212195F873
:1055C80020319A4221D10221304A2F480DF072FC35
:1055D800002242F229001146FFF77CF810B12C4A4C
:1055E8000121E6E795F82131013385F82131237A45
:1055F80043F00403237201200DF069FC00212548C3
:1056080003B0BDE8F04000F0BFBB2246671C394636
:1056180012F82A0B0DF01DFC064608B11E4ADFE7FA
:1056280095F82131013385F82131237A43F00403B9
:10563800237295F8A7305B0701D4184AB8E73946B2
:1056480068460DF0FFFB0123082142F24E008DF859
:105658000730FFF705F8044660B1082269460C30A8
:105668000FF01FFD3246214642F24E00FFF732F896
:105678000028C0D00A4AB3E7D40000200000002068
:10568800832F01006C980100C075010091980100FA
:10569800C2980100072F0100E29801000299010059
:1056A8002C99010000212DE9F04106220446084604
:1056B80001F0A4FC054680B1334BD3E8EF1F41F459
:1056C8000041C3E8E21F002AF7D1237A43F002031E
:1056D8002372BDE8F04101F0BBB901462B4800F048
:1056E80053FB28460DF0F3FB294D064688B10121EE
:1056F8000346284A28480CF0D9FC95F8213113B103
:1057080001200DF0E4FBBDE8F0410021234800F042
:105718003BBB95F8213195F820219A420CD2013BE8
:1057280085F82131237A024623F0040302201C491C
:10573800237205F01DFEE0E7072142F22800FEF77C
:105748008FFF04F10108074628B90121154A1248BC
:105758000DF0B0FBD1E707210C300FF09CFC41465F
:105768000DF070FB3246394642F22800FEF7B2FFD0
:105778000028EAD195F82131013B85F82131237AB7
:1057880023F004032372B8E7D4000020832F01001C
:105798000000002047990100C0750100072F010093
:1057A800C12E010074990100084BD3E8EF2F22F4B1
:1057B8000041C3E8E01F0028F7D1130404D50022F4
:1057C8000220034905F0D4BD704700BFD400002073
:1057D80005300100002307B50549CDE900036A46F5
:1057E800022005F0C5FD019803B05DF804FB00BF79
:1057F8002D2F0100034610B470B10A4991F82041D9
:1058080091F821210CB1944208D2013281F821216A
:105818001A7A42F004021A7210BC704710BCFFF7E3
:105828009FBE00BF00000020034610B498B10B4C87
:1058380094F8201194F8212129B101318A4203DC1E
:1058480010BCFFF72FBF12B1013A84F821211A7A50
:1058580022F004021A7210BC704700BF000000203A
:1058680070B50446B1B9C0B11F490DF0E3FAA0B94B
:105878002046FFF703FE00282FDA2378012B04D1F6
:10588800A37903F0C003C02B07D00121174A184899
:105898000DF010FB6FF0150070BD164DEB79012B64
:1058A8001ED005F1D403D3E8AF3FDB0707D4002CA3
:1058B800F0D020460C490DF0BDFA0028EAD1EE7967
:1058C8002146731C3046EB71FFF7F0FD08B93046EE
:1058D800E2E7EB79013BEB71DEE76FF07700DBE79E
:1058E8006FF00B00D8E700BF5A8F010099990100AB
:1058F800C0750100000000202DE9F341044640B9BD
:105908001A4A02211A480DF0D5FA002002B0BDE863
:10591800F081002141F2090001AAFEF7DBFE0546ED
:1059280008B1144AEDE7019E0622D6F80C80124908
:1059380008F10107384611F0BCFA28B106223846AA
:105948000E4911F0B6FA18B9304605F0E3FEDCE767
:10595800D8F801303046C4F80130BB882570A4F867
:10596800053005F0D7FE0120D0E700BFC799010038
:10597800C0750100E0990100678F0100618F010087
:1059880007B56846FFF7B8FF044BD87118B16946E8
:105998000020FFF78BFD03B05DF804FB000000203A
:1059A800F7B51F4B054693F8C2300E46DB0708D4FF
:1059B8001C4A02211C480DF07DFA0024204603B041
:1059C800F0BD00214FF6094001AAFEF783FE034609
:1059D80008B1164AEDE701981627C26854780232D2
:1059E800B44228BF34469C4209DC05F093FE002CE3
:1059F800E4D102210E4A0C480DF05CFADEE71146AC
:105A080007FB035602F1140C51F804EB614546F804
:105A180004EBF9D10988013331801632E3E700BF7E
:105A280000000020FE990100C07501002A9A0100BB
:105A38004A9A0100F0B5164D89B0EC792CB90121CC
:105A480002A8FFF7ADFFE871D0B90021084609B0F8
:105A5800BDE8F040FFF704BF08AB06FB003353F87E
:105A6800182C33F8143C6946CDF80120ADF8053000
:105A78008DF80070FFF71AFD013418B109B0F0BDB8
:105A880016260127EB79E0B28342E5D80020F5E736
:105A9800000000202DE9F04190460E461D460246C2
:105AA80050B14BB13103047810D5730708D50121E3
:105AB8002A4A2B480DF0FEF96FF01500BDE8F08179
:105AC8000DF081FA0028F9D1012341E0F70730D51C
